S01400005069675F5363616C65732D322E73726563D7
S11306000C941E040C943D040C943D040C943D0481
S11306100C943D040C943D040C943D040C943D0452
S11306200C943D040C943D040C943D040C943D0442
S11306300C943D040C943D040C943D040C943D0432
S11306400C943D040C943D040C943D040C943D0422
S11306500C943D040C943D040C943D040C943D0412
S11306600C943D040C943D040C943D040C943D0402
S11306700C943D040C943D040C943D040C944A04E5
S11306800C943D040C943D040C943D040C943D04E2
S11306900C943D040C943D040C943D040C943D04D2
S11306A00C943D040C943D040C943D040C945E178E
S11306B00C943D040C943D040C94A2040C943D044D
S11306C00C943D040C943D040C943D040C943D04A2
S11306D00C9476040C943D040C943D040C943D0459
S11306E00C943D040C943D040C943D040C943D0482
S11306F00C943D040C943D040C943D040C943D0472
S1130700840F110F290F400F560F6C0F820F802991
S113071048287728A728D5280E2944297E29F42992
S1130720F829FC29002A062A0A2A0E2AD02A3A2B5A
S1130730A32B0B2C752CDF2C462D6E616E00696E7D
S1130740660000407A10F35A00A0724E1809001097
S1130750A5D4E80000E87648170000E40B54020032
S113076000CA9A3B000000E1F5050000809698005D
S1130770000040420F000000A08601000000102786
S113078000000000E8030000000064000000000016
S11307900A00000000000100000000002C76D88848
S11307A0DC674F0823DFC1DFAE59E1B1B796E5E35B
S11307B0E453C63AE651997696E8E6C28426EB8974
S11307C08C9B62ED407C6FFCEFBC9C9F40F2BAA511
S11307D06FA5F490055A2AF75C936B6CF9676DC1A9
S11307E01BFCE0E40D47FEF520E6B500D0ED902EAD
S11307F00300943577050080841E080000204E0A0B
S1130800000000C80C333333330F986E1283114148
S1130810EF8D2114893BE65516CFFEE6DB18D18413
S11308204B381BF77C1D901DA4BBE424203284723A
S11308305E228100C9F124ECA1E53D2711241FBEED
S1130840CFEFCDBFDFE7DEBF11E4A0E0B0E4ECED15
S1130850F0E800E00BBF02C007900D92AE38B1077C
S1130860D9F722E5AEE8B1E401C01D92AF3AB20770
S1130870E1F70E94F5100C946C400C9400030E9464
S1130880F4120895E4E0F4E0908192609083809300
S1130890815108951F920F920FB60F9211240BB637
S11308A00F928F939F93EF93FF9380912408882353
S11308B0E4F780910351E82FF0E090912008E85F7D
S11308C0FE4A9083893110F01092035180910351B4
S11308D08F5F80930351FF91EF919F918F910F90C0
S11308E00BBE0F900FBE0F901F9018951F920F9282
S11308F00FB60F9211240BB60F928F939F93EF9321
S1130900FF93809164088823E4F780918A51E82F4B
S1130910F0E090916008EE55FE4A90838A3F10F013
S113092010928A5180918A518F5F80938A51FF91EE
S1130930EF919F918F910F900BBE0F900FBE0F9070
S11309401F9018951F920F920FB60F9211240BB699
S11309500F922F933F934F935F936F937F938F9354
S11309609F93AF93BF93EF93FF9381E080934B0AE0
S11309700E9448050E94FE0580914D51811105C0D9
S1130980E7E6F1E51182128205C0EDE4F1E580812C
S11309908150808380918151811106C0E4E0F4E0AC
S11309A080818D7F808303C0815080938151EDE4E9
S11309B0F1E5818192810196818392838181928183
S11309C0803D974028F0E8E2F1E51082118212821E
S11309D0EDE4F1E58381948101968383948380918E
S11309E035518F5F80933551833348F081E0909186
S11309F09351911180E08093935110923551FF915E
S1130A00EF91BF91AF919F918F917F916F915F9182
S1130A104F913F912F910F900BBE0F900FBE0F90EF
S1130A201F901895CF93C82F80916651813019F487
S1130A308C2F0E94852D80916651833019F48C2F60
S1130A400E949A2D80E090E0CF9108958EE08093EB
S1130A5000048DE08093200485E580934004109287
S1130A606004109280048CE08093A00487EF80934C
S1130A70C0041092040410922404109244041092AE
S1130A806404109284041092A4041092C40408957F
S1130A9032E02FC0E4ECF4E080818D7F808380918C
S1130AA0904194E03902F0011124EF56FE4BE80F17
S1130AB0F11D808190E0022E02C0959587950A94DD
S1130AC0E2F780FF06C0E4ECF4E080818460808378
S1130AD005C0E4ECF4E080818B7F8083E4ECF4E0F7
S1130AE08081826080832F5F01C020E0283090F2F3
S1130AF031503323D4F7E4ECF4E0808181608083C7
S1130B0080818E7F8083809190418130A9F028F08C
S1130B10823009F1833071F13BC0E4ECF4E0808170
S1130B208F7E808380818F7D808380818F7B808393
S1130B308081806880832CC0E4ECF4E080818F7E27
S1130B40808380818F7D80838081806480838081A5
S1130B508F7780831DC0E4ECF4E080818F7E8083F6
S1130B6080818062808380818F7B808380818F7786
S1130B7080830EC0E4ECF4E0808180618083808116
S1130B808F7D808380818F7B808380818F7780833A
S1130B90809190418F5F80939041843010F0109247
S1130BA09041089516C0E82FF0E0A42FB0E0A55AB4
S1130BB0BE4B2C91EE0FFF1FEE0FFF1FEF56FE4BA7
S1130BC0E90FF11D20839F5F01C090E0943058F33A
S1130BD08F5F6817D0F7089580E00DC0E82FF0E02C
S1130BE0EE0FFF1FEE0FFF1FEF56FE4B1382128214
S1130BF0118210828F5F833088F308958091685149
S1130C008111CDC08091080484FD0FC08AE090E07A
S1130C100E944204E7E6F1E581E082838183109239
S1130C204E5110924F51109224518091080485FD29
S1130C3010C08AE090E00E944204E7E6F1E582E019
S1130C40828381E0818310924E5110924F51109211
S1130C5024518091080486FD10C08AE090E00E942F
S1130C604204E7E6F1E583E0828381E08183109228
S1130C704E5110924F5110922451809108048823B0
S1130C8084F08AE090E00E944204E7E6F1E584E023
S1130C90828381E0818310924E5110924F511092C1
S1130CA0245180916951843051F4809128518823D2
S1130CB019F01092285103C081E08093285180914B
S1130CC02851882391F080916951823071F4809188
S1130CD02B5181110AC080912951882319F0109257
S1130CE0295103C081E080932951809128518111B9
S1130CF017C080912A51811113C0809169518230AB
S1130D0079F480912C51882319F010922C5108C049
S1130D1081E080932C514AE062E082E00E94D20597
S1130D2080912851882369F080916951823049F477
S1130D3080912B51882329F0E7E6F1E580818F5FCC
S1130D4080838091285181110BC080916951813039
S1130D5039F480912A51811103C081E080932A5192
S1130D60E7E6F1E593818281981311C080916B517C
S1130D70823020F084E180934D51089582E3809382
S1130D804D51E7E6F1E584818F5F8483089582E322
S1130D9080934D51E7E6F1E58281838314820895BF
S1130DA0CF92DF92EF92FF9280E090E00E940713CF
S1130DB08093635181508C3340F081E08093635180
S1130DC061E080E090E00E94291381E090E00E94BD
S1130DD0071380936C5181508C3340F081E08093F1
S1130DE06C5161E081E090E00E94291382E090E080
S1130DF00E94071380935951803240F081E0809320
S1130E00595161E082E090E00E94291383E090E070
S1130E100E940713809302518D3340F081E0809348
S1130E20025161E083E090E00E94291384E090E0A5
S1130E300E940713809396518150843040F082E0E1
S1130E408093965162E084E090E00E94291388E048
S1130E5090E00E941113A0E0B0E08093835190933E
S1130E608451A0938551B093865184569109A10968
S1130E70B10985389340A105B10590F084E690E06E
S1130E80A0E0B0E08093835190938451A093855166
S1130E90B093865164E670E088E090E00E944C13C1
S1130EA08CE090E00E941C130E9488366B017C0148
S1130EB060936F51709370518093715190937251FC
S1130EC020E038EC4FEA57E40E947837181654F0C3
S1130ED020E030E44CE156E4C701B6010E94DB3562
S1130EE08823A4F480E090E4ACE1B7E480936F51EC
S1130EF090937051A0937151B093725140E45CE9A6
S1130F0060E070E08CE090E00E9469138AE090E079
S1130F100E94111380932151909322510A97873094
S1130F20974260F084EF91E0809321519093225195
S1130F3064EF71E08AE090E00E944C1385E090E059
S1130F400E940713809394518150843640F081E0CD
S1130F508093945161E085E090E00E94291386E03B
S1130F6090E00E94071380936D518150843640F0C5
S1130F7081E080936D5161E086E090E00E94291346
S1130F8087E090E00E9407138093A151833038F0EA
S1130F901092A15160E087E090E00E9429130E9422
S1130FA0AE29809152518C3328F060E080E00E9499
S1130FB0E929FFCF8091585181111CC066E186E078
S1130FC00E94E92969E085E00E94E92964E184E05E
S1130FD00E94E92963E083E00E94E9296CE082E051
S1130FE00E94E92960E081E00E94E92960E080E054
S1130FF00E94E929FF90EF90DF90CF9008958FE051
S113100090E00E94420426E686E695E02150804066
S11310109040E1F78FE090E00E94420426E686E6E5
S113102095E0215080409040E1F78FE090E00E94ED
S113103042040895CF93DF93C1E9D1E41F82E09184
S1131040945189E2E89F812D112482958F70A82FF5
S1131050B0E0A55ABE4B9C919E83AE2F94E6899F27
S1131060A01911248DECA89FA12D1124A695A69555
S1131070A695B0E0A55ABE4B9C919D83E89F812D17
S11310801124869586958695880F982F990F990F28
S1131090890FE81BF0E0E55AFE4B80818C83DF91D9
S11310A0CF910895CF93DF93C1E9D1E41B86E091FA
S11310B06D5189E2E89F812D112482958F70A82FAC
S11310C0B0E0A55ABE4B9C919A87AE2F94E6899FB7
S11310D0A01911248DECA89FA12D1124A695A695E5
S11310E0A695B0E0A55ABE4B9C919987E89F812DA7
S11310F01124869586958695880F982F990F990FB8
S1131100890FE81BF0E0E55AFE4B80818887DF9168
S1131110CF9108954F925F926F927F928F929F9298
S1131120AF92BF92CF92DF92EF92FF920F931F93F1
S1131130CF93DF930E94EE19AC0160E070E0C090A1
S11311403F51D0904051E0904151F09042514601BE
S11311505701411551056105710509F437C22A018A
S11311603B0125E0421A510861087108E1E08A0157
S11311709B010B5F1F4F2F4F3F4F0C151D052E0575
S11311803F0508F4E0E021E084149504A604B704C4
S113119008F420E02E2309F4A9C1E6E3F1E58585EE
S11311A09685A785B089480F591F6A1F7B1F7695BE
S11311B0679557954795418752876387748710923F
S11311C0245180912C51811104C08091A151882314
S11311D051F080916E518F5F80936E518091985140
S11311E08F5F8093985180916E51853028F480915F
S11311F098518F3008F4E1C14AE061E081E00E9437
S1131200D20580912C51811105C08091A151882370
S113121009F469C180913651811165C18091C5413C
S1131220833220F48F5F8093C54102C01092C54180
S113123080917B518F5F80937B5190E0EC01CA5386
S1131240DE4B2091A1512883FC01EA56FF4FEE0F9B
S1131250FF1FEA53FE4B8083918306E311E5F801F7
S1131260C182D282E382F482FC01EE53FE4FEE0F80
S1131270FF1FEA53FE4BC082D182FE01E452FA4FB3
S1131280809194518083E45DFE4F80916D51808301
S113129086E00E949F29CC5CD74F8883C0917B5104
S11312A0D0E085E00E949F29CA5DD44B8883C09119
S11312B07B51D0E084E00E949F29CE5AD34B88838F
S11312C0C0917B51D0E082E00E949F29C258D24B4A
S11312D08883C0917B51D0E081E00E949F29C6554C
S11312E0D14B8883C0917B51D0E080E00E949F293C
S11312F0CA52D04B88838091C54190E09C01220F53
S1131300331F820F931F880F991F880F991F6091B5
S1131310A15180960E9429138091C54190E09C01BF
S1131320220F331F820F931F880F991F880F991F55
S113133060917B5170E044960E944C13F801C18285
S1131340D282E382F4828091C54190E09C01220F15
S1131350331F820F931F880F991F880F991FB6019F
S113136048960E944C138091C54190E09C01220F45
S1131370331F820F931F880F991F880F991F609145
S1131380945146960E9429138091C54190E09C0196
S1131390220F331F820F931F880F991F880F991FE5
S11313A060916D5147960E94291386E00E949F29FF
S11313B0682F2091C54130E0C901880F991F280F7B
S11313C0391FC901880F991F880F991F4A960E94D7
S11313D0291385E00E949F29682F2091C54130E0A0
S11313E0C901880F991F280F391FC901880F991F38
S11313F0880F991F4B960E94291384E00E949F290D
S1131400682F2091C54130E0C901880F991F280F2A
S1131410391FC901880F991F880F991F4C960E9484
S1131420291382E00E949F29682F2091C54130E052
S1131430C901880F991F280F391FC901880F991FE7
S1131440880F991F4D960E94291381E00E949F29BD
S1131450682F2091C54130E0C901880F991F280FDA
S1131460391FC901880F991F880F991F4E960E9432
S1131470291380E00E949F29682F2091C54130E004
S1131480C901880F991F280F391FC901880F991F97
S1131490880F991F4F960E94291381E0F8018083D9
S11314A010922C510E94FF07809198511F928F93A4
S11314B080916E511F928F9388E490E49F938F9351
S11314C00E94863EFF92EF92DF92CF9288E690E4EC
S11314D09F938F930E94863E0E9424188DB79EB7D7
S11314E00C968DBF9EBF0E94520867C0C0904351A6
S11314F0D0904451E0904551F09046518A019B01AF
S1131500075E1F4F2F4F3F4F0C151D052E053F053E
S113151008F443C0C0904351D0904451E0904551E9
S1131520F09046518A019B010951110921093109A1
S1131530C016D106E206F30680F180912C51811188
S113154004C08091A151882329F0809198518F5F24
S113155080939851E6E3F1E585859685A785B08962
S1131560480F591F6A1F7B1F7695679557954795B6
S1131570418752876387748781859285A385B48563
S113158081839283A383B48381859285A385B48563
S113159085879687A787B08B0EC0A0E0B0E0E6E30E
S11315A0F1E585879687A787B08B81839283A38390
S11315B0B48310926E510E941A081092885180913F
S11315C0365181112BC00E94241828C020918851C3
S11315D02F5F20938851263008F1E6E3F1E5118668
S11315E0128613861486158616861786108AA0E03E
S11315F0B0E081839283A383B483108210928851D4
S113160010926E511092985180912C51811102C008
S11316100E9452080E941A080E942418DF91CF9158
S11316201F910F91FF90EF90DF90CF90BF90AF90FC
S11316309F908F907F906F905F904F9008951F932D
S1131640CF93DF93CDB7DEB76E97CDBFDEBF8EE10C
S1131650FE013196DF01982F1D929A95E9F7DF017B
S11316601D928A95E9F780917B5190E020918E41FB
S113167030918F412817390738F42F5F3F4F20935B
S11316808E4130938F4104C010928E4110928F414D
S113169080EF898385E18B83809102518C838CE276
S11316A08E8380916C518F8380918E4190918F4174
S11316B0FC01EA53FE4B2081298722E02A87DC01C2
S11316C0AA56BF4FAA0FBB1FAA53BE4B2C9111960B
S11316D03C913B872C87DC01AE53BE4FAA0FBB1F46
S11316E0AA53BE4B2C9111963C913D872E87DF0166
S11316F0A452BA4F2C912F87A45DBE4F2C91288BF6
S1131700A45DBE4F2C91298BA45DBE4F2C912A8BD6
S1131710A45DBE4F2C912B8BA45DBE4F2C912C8BC2
S1131720A45DBE4F2C912D8BE05FF14F20812E8B59
S11317309F8B888F81E090E009C0E1E0F0E0EC0F3E
S1131740FD1FE80FF11D2081920F8F5F8C31A8F3EC
S11317509D8F81EF8E8F10E00AC0E1E0F0E0EC0F86
S1131760FD1FE10FF11D80810E949A2D1F5F1E3124
S1131770A0F36E96CDBFDEBFDF91CF911F91089588
S11317801F93CF93DF93CDB7DEB72A97CDBFDEBFCC
S11317909AE0FE013196DF01292F1D922A95E9F77F
S11317A0DF011D929A95E9F790EF998395E19B8368
S11317B0909102519C838D838CE28E8380916C5135
S11317C08F8381E090E009C0E1E0F0E0EC0FFD1FC1
S11317D0E80FF11D2081920F8F5F8830A8F399875D
S11317E081EF8A8710E00AC0E1E0F0E0EC0FFD1F12
S11317F0E10FF11D80810E949A2D1F5F1A30A0F322
S11318002A96CDBFDEBFDF91CF911F910895EF924D
S1131810FF920F931F93CF93DF93C0E063C10C2F0C
S113182010E0F801EE55FE4A8081803F09F052C075
S1131830F801ED55FE4A9081913009F04BC0F80152
S1131840EC55FE4A9081913009F044C0F801EA5504
S1131850FE4A908191113EC0F801E555FE4A9081FF
S1131860913FC1F5E4E2F4E080818860808390E0F8
S113187081E008C0F801E80FF11DEE55FE4A208111
S1131880920F8F5F8830B0F3F801E655FE4A8081ED
S1131890981318C0F801EB55FE4A908180910251CB
S11318A0981310C0C4E2D4E08881846088830E94C5
S11318B01F0B8CEC9CE10197F1F700C000008881BC
S11318C08B7F88830E94C12DE4E2F4E08081877FCE
S11318D080830BC1803F09F0A1C0F801ED55FE4A99
S11318E09081913009F09AC0F801EA55FE4A90813E
S11318F0993009F093C0F801EF54FE4A9081913F6A
S113190009F08CC0E4E2F4E080818860808390E098
S113191081E008C0F801E80FF11DEE55FE4A208170
S1131920920F8F5F8E30B0F3F801E055FE4A80814C
S113193098136CC0F801E655FE4A8081982F929561
S11319409F70990F692F660F660F960F8F70692F1E
S1131950680F86E00E94E929F801E555FE4A808176
S1131960982F92959F70990F692F660F660F960FA7
S11319708F70692F680F85E00E94E929F801E4550A
S1131980FE4A8081982F92959F70990F692F660F58
S1131990660F960F8F70692F680F84E00E94E92903
S11319A0F801E355FE4A8081982F92959F70990F14
S11319B0692F660F660F960F8F70692F680F82E08C
S11319C00E94E929F801E255FE4A8081982F9295F8
S11319D09F70990F692F660F660F960F8F70692F8E
S11319E0680F81E00E94E929F801E155FE4A8081EF
S11319F0982F92959F70990F692F660F660F960F17
S1131A008F70692F680F80E00E94E9290E94C12D20
S1131A10E4E2F4E08081877F808367C0803F09F03F
S1131A2060C0F801ED55FE4A8081813009F059C04B
S1131A30F801EC55FE4A8081813009F052C07801EA
S1131A4094E0E90EF11CF701EE55FE4A80818730DF
S1131A5009F047C0F801EF53FE4A8081813F09F045
S1131A6040C0E4E2F4E080818860808390E081E01B
S1131A7008C0F801E80FF11DEE55FE4A2081920FCF
S1131A808F5F8E31B0F3F801E054FE4A80819813E1
S1131A9028C060E070E0F801EB55FE4A9081809127
S1131AA0025198131EC060932151709322518AE011
S1131AB090E00E944C1304E214E0F80180818460F9
S1131AC08083F701EE55FE4A80810E94C00B8CECA6
S1131AD09CE10197F1F700C00000F80180818B7F41
S1131AE08083CF5FCA3F08F49ACEDF91CF911F91D4
S1131AF00F91FF90EF900895809150519091515122
S1131B00883E934008F479C010925051109251517C
S1131B100E94AE29E2E5F1E587816481861709F424
S1131B2062C06093595182E090E00E9429138CE2D4
S1131B3091E0E6ECF1E4DF019C011D92215030407C
S1131B40E1F7E2EFF2E4DF019C011D922150304005
S1131B50E1F7EAE4F5E4DF019C011D9221503040F5
S1131B60E1F7E2EAF7E4DF019C011D9221503040E5
S1131B70E1F7EEECF8E4DF019C011D9221503040C6
S1131B80E1F7EAEFF9E4DF019C011D9221503040B6
S1131B90E1F7E6E2FBE4DF019C011D9221503040B5
S1131BA0E1F7E2E5FCE4DF019C011D9221503040A5
S1131BB0E1F7EEE7FDE4DF019C011D922150304086
S1131BC0E1F7EAEAFEE4DF019C011D922150304076
S1131BD0E1F7E6EDFFE4DF019C011D922150304066
S1131BE0E1F710927B51809124518F5F80932451AF
S1131BF0833318F082E3809324510895CF92DF92C7
S1131C00EF92FF9220E836E948E15BE460916F517E
S1131C107091705180917151909172510E94E03590
S1131C2020E030E040E85EE30E947D3720E030E0D1
S1131C3040E053E40E947D379B01AC010E946F3564
S1131C4020E030E040E05BE40E947D376B017C01E2
S1131C502091835130918451409185515091865106
S1131C60A8EEB3E00E94F73B0E9488369B01AC01CA
S1131C70C701B6010E94E0356B017C016091965169
S1131C8070E080E090E00E948A369B01AC01C701BD
S1131C90B6010E94E0356093475170934851809398
S1131CA0495190934A51FF90EF90DF90CF9008955F
S1131CB04AE062E080E00E94D2050E94D00686E6F7
S1131CC09EE00197F1F700000E94FE0D86E69EE07B
S1131CD00197F1F700000E94AB1986E69EE0019798
S1131CE0F1F700000E94AB190E94FF0710923651D1
S1131CF010922451E8E2F1E51082118213821282DB
S1131D001092675110926E51109298514CE062E01B
S1131D1080E00E94D2050895A89508953CC0809162
S1131D206851882369F080916951813019F4809356
S1131D30A15106C080916951833011F41092A151D0
S1131D408091A151882399F080919351882331F097
S1131D504CE061E081E00E94D2051BC0E1E9F1E4BE
S1131D60178216828CEF85838CEE848312C0809157
S1131D709351882331F04CE061E081E00E94D20568
S1131D8008C0E1E9F1E417828CEF86838EE885834D
S1131D9084830E948C0E80912851882321F08091A5
S1131DA029518111BCCF6091A15187E090E00E943C
S1131DB029130895CF93109229514CE062E080E0FA
S1131DC00E94D205C1E0A3C080916851882399F094
S1131DD080916951813031F4C63020F4CF5F109284
S1131DE0695109C080916951833029F4CC2319F0D9
S1131DF0C15010926951E1E9F1E41386128611860B
S1131E00AC2FB0E0A55ABE4B8C9180878C2F90E00C
S1131E108730910508F079C0FC01E058FC4F0C9420
S1131E20DF3BE1E9F1E48AEF838388E382838EE197
S1131E3081839AE39083178296EB96839EED958334
S1131E40848380912951882309F45FC00E948E0EF7
S1131E505CC0E1E9F1E48AE183838EED828390E65C
S1131E6091839083178296EB968385838EE1848396
S1131E7080912951882309F448C00E94B12645C0A5
S1131E80E1E9F1E4138286EF82838AEF81838EE1B4
S1131E908083178296EB96839EED9583848380914D
S1131EA02951882391F10E943F142FC0E1E9F1E404
S1131EB013828AED82838EE381838EED8083178281
S1131EC096EB968385838EE18483809129518823C0
S1131ED0E1F00E940B3419C0E1E9F1E413828AE0D5
S1131EE082838EE181839AE19083178296EB9683B5
S1131EF09EED9583848380912951882331F00E943B
S1131F00172A03C0C1E001C0C5E00E948C0E809175
S1131F102851811159CF0E94580ECF910895CF9323
S1131F20DF932FEF8FE796E1215080409040E1F757
S1131F3000C0000043C180912A51813009F09DC046
S1131F4080916851882341F180916951813051F425
S1131F5080919451843630F48F5F80939451109221
S1131F6069511AC080916951833051F48091945120
S1131F70823030F0815080939451109269510CC09A
S1131F8080916951823041F4E8E2F1E582818F5F0A
S1131F90828314821092695180919351882331F085
S1131FA04CE061E081E00E94D20533C0C1E9D1E494
S1131FB01F82E091945189E2E89F812D112482953A
S1131FC08F70A82FB0E0A55ABE4B9C919E83AE2F74
S1131FD024E6829FA01911248DECA89FA12D112421
S1131FE0A695A695A695B0E0A55ABE4B9C919D8357
S1131FF0E89F812D1124869586958695880F982FC4
S1132000990F990F890FE81BF0E0E55AFE4B808188
S11320108C83C1E9D1E41B86E0916D5189E2E89F8C
S1132020812D112482958F70A82FB0E0A55ABE4B44
S11320309C919A87AE2F94E6899FA01911248DEC68
S1132040A89FA12D1124A695A695A695B0E0A55A02
S1132050BE4B9C919987E89F812D11248695869586
S11320608695880F982F990F990F890FE81BF0E038
S1132070E55AFE4B808188879FC080912A51823027
S113208009F09AC080916851882331F18091695197
S1132090813051F480916D51843630F48F5F809398
S11320A06D511092695118C080916951833051F477
S11320B080916D51823030F0815080936D51109237
S11320C069510AC080916951823031F4E8E2F1E546
S11320D0128214821092695180919351882331F0B5
S11320E04CE062E082E00E94D20533C0C1E9D1E451
S11320F01B86E0916D5189E2E89F812D1124829520
S11321008F70A82FB0E0A55ABE4B9C919A87AE2F32
S113211024E6829FA01911248DECA89FA12D1124DF
S1132120A695A695A695B0E0A55ABE4B9C91998715
S1132130E89F812D1124869586958695880F982F82
S1132140990F990F890FE81BF0E0E55AFE4B808147
S11321508887C1E9D1E41F82E091945189E2E89F24
S1132160812D112482958F70A82FB0E0A55ABE4B03
S11321709C919E83AE2F94E6899FA01911248DEC27
S1132180A89FA12D1124A695A695A695B0E0A55AC1
S1132190BE4B9C919D83E89F812D11248695869545
S11321A08695880F982F990F990F890FE81BF0E0F7
S11321B0E55AFE4B80818C830E948C0E80912A51BB
S11321C08111B9CE10922A516091945185E090E02A
S11321D00E94291360916D5186E090E00E942913BA
S11321E00E94FF07DF91CF9108950E943F040E944F
S11321F0260560E070E082E195E00E94FF3D81E009
S1132200809366512FEF8FE392E0215080409040FD
S1132210E1F700C000008BE191E40E949A3E85E75B
S113222090E40E949A3E1F9284E08F931F928F93B2
S11322308CEA90E49F938F930E94863E86EE90E40E
S11322400E949A3E8DE191E49F938F9386E291E4FC
S11322509F938F9382E391E49F938F930E94863E92
S113226085E790E40E949A3E8BE191E40E949A3EB5
S113227078940E94FF07E4E2F4E08081877F808302
S113228080818B7F8083E1E9F1E4138287E6828396
S113229086E6818310822FEF8FEF9CE221508040ED
S11322A09040E1F700C000000E948C0E85E080930E
S11322B08751109224511092A4520E94D0068DB7D7
S11322C09EB70C968DBF9EBFAEC00E94AE29C2E5DC
S11322D0D1E59E818DEC989F212D1124269526957C
S11322E02695E22FF0E0E55AFE4B3081E1E9F1E476
S11322F03383220F322F330F330F230FA92FA21B47
S1132300B0E0A55ABE4B9C9192839D81989F212D4C
S11323101124269526952695A22FB0E0A55ABE4BEA
S11323203C913183220F322F330F330F230FA92F08
S1132330A21BB0E0A55ABE4B9C9190839C81989FB0
S1132340212D1124269526952695A22FB0E0A55A75
S1132350BE4B3C913783220F322F330F330F230FA1
S1132360A92FA21BB0E0A55ABE4B9C9196839A81DB
S1132370989F212D1124269526952695A22FB0E00D
S1132380A55ABE4B3C913583220F322F330F330FA6
S1132390230FA92FA21BB0E0A55ABE4B9C91948396
S11323A09981989F212D1124269526952695A22F53
S11323B0B0E0A55ABE4B3C913387220F322F330F26
S11323C0330F230FA92FA21BB0E0A55ABE4B9C913B
S11323D092879881989F812D11248695869586955C
S11323E0A82FB0E0A55ABE4B2C912187880F282F27
S11323F0220F220F820FA92FA81BB0E0A55ABE4BB3
S11324008C9180878091A452981769F09093A4527C
S11324108AE090E00E9442040E948C0E80918751D1
S11324208150809387518091875181114ECF0E94B2
S1132430580E0E948C0E80912451843238F40E94EC
S11324408A080CC00E94EC050E948C0E8091685191
S11324508823C1F3109268510E94580E0E948A0882
S11324608091285181110E94DA0E80912A518111A4
S11324700E948F0F0E94070C0E947C0D9FEF2FE398
S113248082E0915020408040E1F700C000000E94AB
S11324908C0ED1CF1092890080E0089543E068ED5E
S11324A080E690E00E949A298091630080FDFCCF31
S11324B080E0089580E008C0E82FF0E0E05FFB4F83
S11324C09081986090838F5F8830B0F380E008C07B
S11324D0E82FF0E0E05DFB4F9081986090838F5F80
S11324E08830B0F380E008C0E82FF0E0E05BFB4FF9
S11324F09081986090838F5F8830B0F380E008C04B
S1132500E82FF0E0E059FB4F9081986090838F5F53
S11325108830B0F380E008C0E82FF0E0E057FB4FCC
S11325209081986090838F5F8830B0F380E008C01A
S1132530E82FF0E0E055FB4F9081986090838F5F27
S11325408830B0F380E008C0E82FF0E0E053FB4FA0
S11325509081986090838F5F8830B0F3089585B33D
S1132560877F85BB84B3886084BBE3EBF4E0808120
S1132570877F808380818F7780838081887F808339
S113258085B38B7F85BB84B3846084BBE2EBF4E0CA
S11325908081877F808380818F7780838081887F1B
S11325A080830E94C8160895E0EEF5E082818B7F57
S11325B08283E0E4F4E080818160808380818D7F88
S11325C080830E94792D0895E0EEF5E082818F7B6F
S11325D08283E0E2F4E080818160808380818D7F6A
S11325E080830E948E2D08950E945A120E944E12DA
S11325F00E94D4120E94E4120E946B2D0E946D2D41
S11326000E944A120E94CB2D0E94AF120895811598
S113261022E0920710F08FEF91E0FC01FC5E8081D4
S113262008958F3F21E0920710F08EEF91E0FC01B6
S1132630FC5E8081918108958D3F21E0920710F026
S11326408CEF91E0FC01FC5E608171818281938159
S113265008951F93CF93DF939C01211582E03807DF
S1132660B0F4909102109370E1F7162FE90143E161
S11326706DE980E090E10E949A29DC5E188340E0D5
S11326806DE980E090E10E949A2981E001C080E038
S1132690DF91CF911F910895CF92DF92EF92FF9235
S11326A0CF93DF938F3F21E0920758F4EC016B0145
S11326B00E9429136D2DCE0101960E94291381E0F9
S11326C001C080E0DF91CF91FF90EF90DF90CF9039
S11326D00895FF920F931F93CF93DF938D3F21E0D3
S11326E09207C0F4172F062FF52E642FEC010E94D9
S11326F029136F2DCE0101960E942913602FCE015C
S113270002960E942913612FCE0103960E94291379
S113271081E001C080E0DF91CF911F910F91FF9084
S113272008954CE062E080E00E94D20542C0E1E9F5
S1132730F1E48EEB838382E082838AE281838AE3FD
S11327408083209163518DEC289F812D11248695DF
S113275086958695A82FB0E0A55ABE4B9C9195838B
S1132760880F982F990F990F890FA22FA81BB0E0FB
S1132770A55ABE4B8C918483809168518823B9F00B
S113278080916951813041F42C3330F42F5F2093D0
S11327906351109269510BC080916951833039F4AF
S11327A0223028F0215020936351109269510E94E5
S11327B08C0E80912851882321F080912951811118
S11327C0B6CF6091635180E090E00E942913089590
S11327D04CE062E080E00E94D20542C0E1E9F1E40D
S11327E08EEB838382E0828380E681838AE7808321
S11327F020916C518DEC289F812D1124869586950E
S11328008695A82FB0E0A55ABE4B9C919583880F5E
S1132810982F990F990F890FA22FA81BB0E0A55AE2
S1132820BE4B8C918483809168518823B9F0809148
S11328306951813041F42C3330F42F5F20936C5173
S1132840109269510BC080916951833039F4223060
S113285028F0215020936C51109269510E948C0EE3
S113286080912851882321F0809129518111B6CF7C
S113287060916C5181E090E00E9429130895CF93F8
S1132880109229514CE062E080E00E94D205C1E040
S11328908BC080916851882399F08091695181306F
S11328A031F4C33020F4CF5F1092695109C0809194
S11328B06951833029F4CC2319F0C1501092695125
S11328C0EC2FF0E0E55AFE4B808180939941C130B2
S11328D041F008F466C0C23099F1C33009F45FC016
S11328E061C0E1E9F1E48EEB838382E082838AE2D2
S11328F081838AE3808317821682409163518DEC31
S1132900489F812D1124869586958695282F30E041
S1132910255A3E4BD9019C919583880F982F990F86
S1132920990F890FA42FA81BB0E0A55ABE4B8C9118
S11329308483809129518823A9F10E94911332C084
S1132940E1E9F1E48EEB838382E0828380E6818394
S11329508AE780831782168240916C518DEC489FE0
S1132960812D1124869586958695282F30E0255A49
S11329703E4BD9019C919583880F982F990F990FFD
S1132980890FA42FA81BB0E0A55ABE4B8C91848359
S113299080912951882331F00E94E81303C0C1E0DB
S11329A001C0C2E00E948C0E80912851811171CF28
S11329B0CF910895E0E2F9E0848188608483858181
S11329C081608583EDE9F1E480818E7F80831386C5
S11329D08EE00895EDE9F1E480818E7F8083138693
S11329E080E00895E0E2F9E08481836084830E94BA
S11329F0EA140895EDE9F1E480818860808381819F
S1132A0090E0880F991F81608093270984E00895DE
S1132A100E94FA1408950E94FA140895EDE9F1E46D
S1132A208081886080838181880F8093270983E077
S1132A3008950E940E150895ADE9B1E48C91877F45
S1132A408C9382E01B968C931B975096ED91FC918E
S1132A5051975C968D919C915D970995823019F000
S1132A60833021F006C00E940B1508950E941915A9
S1132A7008950E94F2140895E0E2F9E084818B7FC6
S1132A80848384E00895E0E2F9E084818B7F848389
S1132A9083E00895E0E2F9E08481846084838481A2
S1132AA0836084830E94EA140895E0E2F9E084815B
S1132AB08460848388E008958091250984FF19C087
S1132AC0ADE9B1E45296ED91FC9153975E968D91E8
S1132AD09C915F970995823019F0833021F006C0EC
S1132AE00E940B1508950E94191508950E94F2146E
S1132AF00895EDE9F1E48081877F8083A281B38129
S1132B00CD010196828393838C91809328098481DB
S1132B109581019784839583892B11F083E008952F
S1132B2085E00895CF93DF93EDE9F1E48081877F19
S1132B30808384819581019731F4E0E2F9E0848116
S1132B408460848305C0E0E2F9E084818B7F848320
S1132B50EDE9F1E484819581019784839583892B40
S1132B60A9F0DF01C281D381E0E2F9E080858883A6
S1132B7012968D919C911397019612968D939C9326
S1132B80139784818260848384E026C0ADE9B1E434
S1132B901296ED91FC9113978091280980831296E7
S1132BA08D919C911397019612968D939C931397F4
S1132BB08C9184608C931C96ED91FC911D97589692
S1132BC08D919C91599709958250823018F40E94F6
S1132BD0551502C00E944A15DF91CF910895809146
S1132BE0250984FF19C0ADE9B1E45296ED91FC9139
S1132BF053975E968D919C915F970995823019F059
S1132C00833021F006C00E940B1508950E94191507
S1132C1008950E94F2140895ADE9B1E48C918460A2
S1132C208C931C96ED91FC911D9758968D919C91D7
S1132C3059970995833039F0843041F0823049F452
S1132C400E940B1508950E94191508950E945C15A1
S1132C5008950E94F2140895E0E2F9E08581886005
S1132C608583ADE9B1E482E01B968C931B971E9695
S1132C70ED91FC911F975A968D919C915B970995C4
S1132C80823019F0833021F006C00E940B1508959C
S1132C900E94191508950E94DA140895E0E2F9E0FB
S1132CA0848188608483858181608583EDE9F1E492
S1132CB080818E7F808382E083878EE00895CF9326
S1132CC0DF93E0E2F9E08581806C858380919D410A
S1132CD083FF07C08091250984FF03C08FE08093A0
S1132CE0A7418091250983FF03C080E18093A74118
S1132CF08091250982FF03C081E18093A741CDE93A
S1132D00D1E4EA85F0E0EE0FFF1FEA5FFF4B01908C
S1132D10F081E02D09958A87DF91CF91089581E0B4
S1132D20089585E008956115710591F090E0FC0126
S1132D303696EE0FFF1FE356FE4B60837183FC0152
S1132D403C96EE0FFF1FE356FE4B408351830895DC
S1132D5090E0FC013696EE0FFF1FE356FE4B2FE882
S1132D6036E120833183FC013C96EE0FFF1FE356CE
S1132D70FE4B108211820895AB01BC0180E00E94D9
S1132D8093160895AB01BC0182E00E949316089546
S1132D90E0E2F9E084E4868381EC838308959091F2
S1132DA09D4191FD37C0EDE9F1E48183892F8E7F48
S1132DB082609EE0928724EF31E020873187877F0D
S1132DC0846080838FE896E184879587108E118EC6
S1132DD086879787128E138E808B918B148E158E17
S1132DE0828B938B168E178E81E996E1848B958B5B
S1132DF010A211A2E0E2F9E08481886084838581D5
S1132E00816085838581806C85838381806C8383E5
S1132E1080E0089581E008958091250982FF07C02C
S1132E20EDE9F1E480818E7F808382E08387809165
S1132E309D4180FD17C0EDE9F1E48D7F80838FEF24
S1132E408183A0E2B9E015968C911597806C159654
S1132E508C93159713968C9113978F7313968C9369
S1132E608385089581E008959C0190919D4192FF8E
S1132E7009C0EDE9F1E42283338364837583892FE8
S1132E808B7F8083089590919D4190FD11C0EDE961
S1132E90F1E491609083882321F081E08093A7413D
S1132EA003C082E08093A7410E945F1680E00895EA
S1132EB081E0089580E00E94431708951F920F92C5
S1132EC00FB60F9211240BB60F922F933F934F938B
S1132ED05F936F937F938F939F93AF93BF93EF937E
S1132EE0FF930E945F16FF91EF91BF91AF919F9165
S1132EF08F917F916F915F914F913F912F910F909F
S1132F000BBE0F900FBE0F901F90189561E070E0FC
S1132F100E94341760E070E080E090E00E94BC16EC
S1132F2084E0089561E070E00E94341760E070E08E
S1132F3080E090E00E94BC1682E00895FF920F9317
S1132F401F93CF93DF9300D0CDB7DEB7F82E6983FC
S1132F504A8300E117E28F2D0E94CF16813019F4C5
S1132F6001501109C1F7012B11F1BE016E5F7F4FB2
S1132F7086E897E10E94BC1661E070E0CE010196FC
S1132F800E94341760E070E082E298E10E94C21669
S1132F900E945A1700E117E20E940C17813019F4BD
S1132FA001501109C9F7012B21F482E003C081E02B
S1132FB001C080E00F900F90DF91CF911F910F918E
S1132FC0FF900895EF92FF921F93CF93DF9300D069
S1132FD0CDB7DEB7182F6A838AE289836894EE241A
S1132FE0E1F8F12C23C0812F0E94CF168823D9F356
S1132FF0BE016F5F7F4F82E997E10E94BC1661E0DA
S113300070E0CE0102960E94341760E070E082E224
S113301098E10E94C2160E945A170E940C17813030
S1133020E1F3882331F081E0E81AF108E114F104B6
S1133030D1F689810F900F90DF91CF911F91FF906E
S1133040EF90089583E008958F929F92AF92BF927C
S1133050EF92FF920F931F93CF93DF93C6E3D1E5D3
S113306069817A818B819C810F2EF0E18F2EF7E2AA
S11330709F2EA12CB12CF02DA50194010E94C03BE0
S1133080E22E2093C24169817A818B819C81A501C2
S113309094010E94C03B0F2EF8EE8F2EF3E09F2E7A
S11330A0A12CB12CF02DA50194010E94C03BF22E5D
S11330B02093975169817A818B819C81A501940128
S11330C00E94C03B0F2EF4E68F2E912CA12CB12C24
S11330D0F02DA50194010E94C03B022F2093895139
S11330E069817A818B819C81A50194010E94C03BF6
S11330F00F2EFAE08F2E912CA12CB12CF02DA501CE
S113310094010E94C03B122F2093625169817A81FD
S11331108B819C81A50194010E94C03B60937F51E7
S113312089819A81AB81BC8181319742A105B10526
S113313014F1EE2DF0E0E55AFE4B8081A1E9B1E4F3
S113314013968C931397EF2DF0E0E55AFE4B808194
S113315012968C931297E02FF0E0E55AFE4B808193
S11331608F5F11968C931197E12FF0E0E55AFE4B97
S113317080818C9358C08091375190913851A0919F
S11331803951B0913A51893E9340A105B10514F1EA
S1133190EF2DF0E0E55AFE4B8081A1E9B1E41396EE
S11331A08C931397E02FF0E0E55AFE4B80818F5FFC
S11331B012968C931297E12FF0E0E55AFE4B808132
S11331C011968C931197E62FF0E0E55AFE4B80811F
S11331D08C9329C08091375190913851A0913951E5
S11331E0B0913A51883E9340A105B105E4F4A1E9B8
S11331F0B1E413961C921397E02FF0E0E55AFE4BCE
S113320080818F5F12968C931297E12FF0E0E55A3C
S1133210FE4B808111968C931197E62FF0E0E55ACE
S1133220FE4B80818C93DF91CF911F910F91FF9082
S1133230EF90BF90AF909F908F9008958F929F9240
S1133240AF92BF92CF92DF92EF92FF92E4E4F4E068
S113325080818B7F80838091480483FFFCCF90E042
S113326040E050E0BA011DC0E4E4F4E080818460F1
S1133270808322E62A95F1F70000440F551F661F4C
S1133280771F80818B7F808382E68A95F1F7000027
S11332908091480483FD04C04F5F5F4F6F4F7F4FA1
S11332A09F5F983108F3E4E4F4E0808184608083D4
S11332B092E69A95F1F7000080818B7F80832FEF4F
S11332C08FE794E0215080409040E1F700C0000077
S11332D06A017B0120E4E2262091835130918451DC
S11332E04091855150918651A0E1B7E20E94F73B8D
S11332F080903B5190903C51A0903D51B0903E51F4
S1133300DC01CB01880D991DAA1DBB1D8C159D05E3
S1133310AE05BF0518F4C12CD12C76010E94FE0D18
S11333208090475190904851A0904951B0904A5193
S1133330C701B6010E948A36A50194010E94E035B6
S11333400E945236FF90EF90DF90CF90BF90AF90E5
S11333509F908F9008950F931F930E941E198B01C5
S11333609C0180913B5190913C51A0913D51B09171
S11333703E51801B910BA20BB30B181619061A06AB
S11333801B067CF4E6E3F1E545815681678170858F
S1133390481B590B6A0B7B0B4583568367837087E5
S11333A010C0BB2374F4E6E3F1E5458156816781DF
S11333B07085480F591F6A1F7B1F45835683678397
S11333C07087892B8A2B8B2B61F68AE090E00E9410
S11333D042040E948C0E1F910F9108954F925F92A8
S11333E06F927F928F929F92AF92BF92CF92DF9211
S11333F0EF92FF920F931F93C0903B51D0903C519A
S1133400E0903D51F0903E510E941E192B013C0169
S1133410209183513091845140918551509186512E
S1133420A8EEB3E00E94F73B4B015C0114141504B1
S1133430160417040CF081C080913B5190913C51CB
S1133440A0913D51B0913E5193018201081B190B8B
S11334502A0B3B0BC901B8012AE030E040E050E000
S11334600E94C03BBA01A901440F551F661F771F74
S1133470DB01CA01880F991FAA1FBB1F880F991F60
S1133480AA1FBB1F8A019B01080F191F2A1F3B1F7C
S1133490C901B801332314F010924C5199232CF034
S11334A086169706A806B90600F580914C518F5FE1
S11334B080934C51863040F00E94AB1910924C51CD
S11334C060E070E0CB0133C015E0C11AD108E10817
S11334D0F108C0923B51D0923C51E0923D51F092A0
S11334E03E5160E070E0CB0122C0161617061806A4
S11334F01906ECF44090215150902251052C000CF7
S113350066087708641575058605970584F425E033
S1133510C20ED11CE11CF11CC0923B51D0923C5113
S1133520E0923D51F0923E5160E070E0CB0186168E
S11335309706A806B90628F007C060E070E0CB0142
S113354003C060E070E0CB012AE030E040E050E0EE
S11335500E94C03BC9011F910F91FF90EF90DF9033
S1133560CF90BF90AF909F908F907F906F905F901F
S11335704F900895109299418AE090E00E941113AF
S11335809C01809321519093225160E177E20E9443
S11335908A3B60932351E8EEF3E0BF010E948A3B2B
S11335A060939551C901BF010E948A3BE4E6F0E0B3
S11335B0BF010E948A3B60932551C901BF010E944B
S11335C08A3BEAE0F0E0BF010E948A3B6093075126
S11335D0C901BF010E948A3B809380513DC181E0B3
S11335E080932B5180916751823009F485C030F467
S11335F0882369F0813009F444C02CC1843009F473
S1133600F0C008F4B4C0853009F422C123C1E091AC
S11336108051F0E0E55AFE4B808180939C4180917B
S11336209351882319F01092984108C0E0912351D6
S1133630F0E0E55AFE4B8081809398418091685177
S1133640882309F407C180916951813051F4809134
S11336502351811106C08F5F8093235110926951C9
S1133660F9C080916951833009F0F4C080912351ED
S1133670882309F4EFC0815080932351109269513B
S1133680E9C0E0912351F0E0E55AFE4B808180933C
S1133690984180919351882319F01092974109C061
S11336A0E0919551F0E0E55AFE4B80818F5F809365
S11336B0974180916851882309F4CCC08091695165
S11336C0813051F480919551893030F48F5F80932B
S11336D0955110926951BEC080916951833009F0AF
S11336E0B9C080919551882309F4B4C08150809366
S11336F0955110926951AEC0E0919551F0E0E55AB0
S1133700FE4B80818F5F80939741809193518823F2
S113371019F01092964108C0E0912551F0E0E55A65
S1133720FE4B80818093964180916851882309F4EF
S113373091C080916951813051F480912551893033
S113374030F48F5F809325511092695183C080912A
S11337506951833009F07EC080912551882309F492
S113376079C08150809325511092695173C0E091C2
S11337702551F0E0E55AFE4B80818093964180917B
S11337809351882319F01092954108C0E091075194
S1133790F0E0E55AFE4B8081809395418091685119
S11337A0882309F457C080916951813051F4809184
S11337B00751893030F48F5F80930751109269511B
S11337C049C080916951833009F044C08091075108
S11337D0882309F43FC081508093075110926951A6
S11337E039C0E0910751F0E0E55AFE4B80818093A7
S11337F0954180919351882319F010929C4108C0FF
S1133800E0918051F0E0E55AFE4B808180939C4129
S1133810809168518823F1F080916951813051F48D
S113382080918051893030F48F5F80938051109261
S1133830695110C080916951833061F48091805145
S1133840882341F08150809380511092695102C0C5
S1133850109267510E948C0E809128518111BFCE25
S11338602091235180E197E2289FB001299F700D98
S113387011244091955128EE33E0429FC001439FAB
S1133880900D1124680F791F8091255194E6899F2A
S1133890600D711D11248091075190E09C01220F4D
S11338A0331F880F991F880F991F880F991F820F44
S11338B0931F680F791F80918051680F711D609369
S11338C02151709322518AE090E00E944C13E8E267
S11338D0F1E581E08083118213821092675108958B
S11338E02F923F924F925F926F927F928F929F920C
S11338F0AF92BF92CF92DF92EF92FF920F931F93FA
S1133900CF93DF93CDB7DEB72597CDBFDEBF10923F
S113391099418CE090E00E941C131B012C016093E0
S11339202D5130922E5140922F515092305110927D
S11339303151109232511092335110923451689493
S1133940AA24A4F80F2EF7E2BF2EF02DC12CD12CFF
S1133950E12CF12C00E010E0262F332D442D552DC1
S113396060E070E080E090E00E945D3C2093735141
S113397030937451409375515093765160937751BD
S1133980709378518093795190937A51222D332DED
S1133990442D552D60E070E080E090E00E945B3C97
S11339A00F2EF8EEAF2EF02D0F2EF3E0BF2EF02DDC
S11339B00E945D3C20939C5230939D5240939E52B2
S11339C050939F526093A0527093A1528093A2523D
S11339D09093A352222D332D442D552D60E070E099
S11339E080E090E00E945B3C0F2EF4E6AF2EF02DB9
S11339F0B12C0E945D3C20938B5130938C514093A9
S1133A008D5150938E5160938F5170939051809348
S1133A10915190939251222D332D442D552D60E0D8
S1133A2070E080E090E00E945B3C0F2EFAE0AF2E45
S1133A30F02D0E945D3C20935A5130935B5140938A
S1133A405C5150935D5160935E5170935F518093CC
S1133A50605190936151222D332D442D552D60E0FA
S1133A6070E080E090E00E945B3C20939951309399
S1133A709A5140939B5150939C5160939D517093E4
S1133A809E5180939F519093A051F2C281E0809304
S1133A902B5180916751823009F435C130F4882369
S1133AA069F0813009F49DC0E1C2843009F44DC24B
S1133AB008F4BAC1853009F4D7C2D8C2E09199514B
S1133AC0F0919A51E55AFE4B808180939C418091FC
S1133AD09351882319F0109298410AC0E0917351D0
S1133AE0F0917451E55AFE4B80818F5F8093984129
S1133AF080916851882309F4B9C280916951813059
S1133B00A9F5F09073510091745110917551809101
S1133B1076518A83809177518983B0917851F0915D
S1133B207951E0917A512F2D302F412F5A81682FEE
S1133B307B2F8F2F9E2FA7E00E94F13C09F0B0F459
S1133B40A1E00E94DC3C2093735130937451409364
S1133B507551509376516093775170937851809357
S1133B60795190937A511092695180C28091695130
S1133B70833009F07BC2F09073510091745110911D
S1133B807551809176518A83809177518983B09160
S1133B907851F0917951E0917A512F2D302F412FA6
S1133BA05A81682F7B2F8F2F9E2FA1E00E94F13C1A
S1133BB009F008F45BC2AFEF0E94DC3C2093735120
S1133BC0309374514093755150937651609377516B
S1133BD0709378518093795190937A5110926951EE
S1133BE045C2E0917351F0917451E55AFE4B8081C6
S1133BF08F5F8093984180919351882319F010929C
S1133C00974109C0E0919C52F0919D52E55AFE4BB8
S1133C1080818093974180916851882309F426C25A
S1133C20809169518130A9F5F0909C5200919D5288
S1133C3010919E5280919F528A838091A0528983D1
S1133C40B091A152F091A252E091A3522F2D302FA6
S1133C50412F5A81682F7B2F8F2F9E2FA8E00E941F
S1133C60F13C09F0B0F4A1E00E94DC3C20939C52AA
S1133C7030939D5240939E5250939F526093A05212
S1133C807093A1528093A2529093A35210926951BF
S1133C90EDC180916951833009F0E8C1F0909C52E4
S1133CA000919D5210919E5280919F528A838091DF
S1133CB0A0528983B091A152F091A252E091A352F3
S1133CC02F2D302F412F5A81682F7B2F8F2F9E2F1E
S1133CD0A0E00E94F13C09F4C9C1AFEF0E94DC3CB2
S1133CE020939C5230939D5240939E5250939F52E6
S1133CF06093A0527093A1528093A2529093A352C6
S1133D0010926951B3C1E0919C52F0919D52E55AD1
S1133D10FE4B80818093974180919351882319F0C1
S1133D201092964109C0E0918B51F0918C51E55A63
S1133D30FE4B80818093964180916851882309F4D9
S1133D4095C1809169518130A9F5F0908B51009112
S1133D508C5110918D5180918E518A8380918F5115
S1133D608983B0919051F0919151E09192512F2D0E
S1133D70302F412F5A81682F7B2F8F2F9E2FA8E041
S1133D800E94F13C09F0B0F4A1E00E94DC3C2093D5
S1133D908B5130938C5140938D5150938E5160933D
S1133DA08F517093905180939151909392511092AE
S1133DB069515CC180916951833009F057C1F09019
S1133DC08B5100918C5110918D5180918E518A8329
S1133DD080918F518983B0919051F0919151E091EC
S1133DE092512F2D302F412F5A81682F7B2F8F2FE7
S1133DF09E2FA0E00E94F13C09F438C1AFEF0E946D
S1133E00DC3C20938B5130938C5140938D515093D3
S1133E108E5160938F5170939051809391519093F0
S1133E2092511092695122C1E0918B51F0918C51C1
S1133E30E55AFE4B8081809396418091935188236B
S1133E4019F01092954109C0E0915A51F0915B51DB
S1133E50E55AFE4B80818093954180916851882377
S1133E6009F404C1809169518130A9F5F0905A5147
S1133E7000915B5110915C5180915D518A838091D6
S1133E805E518983B0915F51F0916051E09161512D
S1133E902F2D302F412F5A81682F7B2F8F2F9E2F4C
S1133EA0A8E00E94F13C09F0B0F4A1E00E94DC3CDF
S1133EB020935A5130935B5140935C5150935D5120
S1133EC060935E5170935F51809360519093615100
S1133ED010926951CBC080916951833009F0C6C0FA
S1133EE0F0905A5100915B5110915C5180915D5159
S1133EF08A8380915E518983B0915F51F0916051C2
S1133F00E09161512F2D302F412F5A81682F7B2F43
S1133F108F2F9E2FA0E00E94F13C09F4A7C0AFEFC1
S1133F200E94DC3C20935A5130935B5140935C5186
S1133F3050935D5160935E5170935F5180936051D3
S1133F40909361511092695191C0E0915A51F0914E
S1133F505B51E55AFE4B808180939541809193514A
S1133F60882319F010929C4109C0E0919951F09175
S1133F709A51E55AFE4B808180939C41809168510F
S1133F80882309F473C0809169518130A9F5F090B8
S1133F90995100919A5110919B5180919C518A831F
S1133FA080919D518983B0919E51F0919F51E091F0
S1133FB0A0512F2D302F412F5A81682F7B2F8F2F07
S1133FC09E2FA8E00E94F13C09F0B0F4A1E00E9409
S1133FD0DC3C2093995130939A5140939B515093D8
S1133FE09C5160939D5170939E5180939F519093E7
S1133FF0A051109269513AC0809169518330B1F552
S1134000F090995100919A5110919B5180919C513B
S11340108A8380919D518983B0919E51F0919F51E3
S1134020E091A0512F2D302F412F5A81682F7B2FE3
S11340308F2F9E2FA0E00E94F13CC1F0AFEF0E94B1
S1134040DC3C2093995130939A5140939B51509367
S11340509C5160939D5170939E5180939F51909376
S1134060A0511092695102C0109267510E948C0EA7
S11340708091285181110ACD6894AA24A4F80F2EA6
S1134080F7E2BF2EF02DC12CD12CE12CF12C00E055
S113409010E02091735130917451409175515091B9
S11340A076516091775170917851809179519091C6
S11340B07A510E94023C622E732E842E952E6D83BB
S11340C079838A839B83E0919C5250909D524090C7
S11340D09E5230909F522090A0528091A1528C8386
S11340E0B091A252A091A3522E2F352D442D532DC1
S11340F0622D782F8B2F9A2F02E00E94BA3CA22EB9
S1134100B32EC42ED52EE62EF72EF82F192F05E048
S11341100E94BA3C0F2F0E94E83CAE2EB52CC42C52
S1134120D32CE22CFC800B2F1A2F0E94D33C03E0EB
S11341300E94BA3CA22EB32EC42ED52EE62EF72E04
S1134140082F192F262D372D482D592D6D81798152
S11341508A819B810E94D33C222E332E442E552EDD
S1134160662E772E89839A8320918B5130918C51BE
S113417040918D5150918E5160918F517091905119
S1134180809191519091925102E00E94BA3C822E0A
S1134190932E4C835B83B62FA72FF82FE92F0E9411
S11341A0BA3CA22EB32EC42ED52EE62EF72E082FFF
S11341B0192F282D392D4C815B816B2F7A2F8F2F4E
S11341C09E2F0E94D33C822E932E4C835B83B62F6A
S11341D0A72FF82FE92F02E00E94BA3CA22EB32E9B
S11341E0C42ED52EE62EF72E082F192F282D392D63
S11341F04C815B816B2F7A2F8F2F9E2F0E94D33C93
S1134200A22EB32EC42ED52EE62EF72E082F192F4C
S1134210222D332D442D552D662D772D89819A819C
S11342200E94D33C222E332E442E552E662E772EFA
S113423089839A8320915A5130915B5140915C510A
S113424050915D5160915E5170915F5180916051C8
S11342509091615101E00E94BA3C822E932E4C83CE
S11342605B83B62FA72FF82FE92F02E00E94BA3CF8
S1134270A22EB32EC42ED52EE62EF72E082F192FDC
S1134280282D392D4C815B816B2F7A2F8F2F9E2FF8
S11342900E94D33CA22EB32EC42ED52EE62EF72E8A
S11342A0082F192F222D332D442D552D662D772DB2
S11342B089819A810E94D33CA0909951B0909A51DF
S11342C0C0909B51D0909C51E0909D51F0909E5194
S11342D000919F511091A0510E94D33C20932D51E5
S11342E030932E5140932F5150933051609331515C
S11342F0709332518093335190933451642F752FBE
S1134300422F532F8CE090E00E946913E8E2F1E51C
S113431081E0808311821382109267512596CDBF6C
S1134320DEBFDF91CF911F910F91FF90EF90DF904F
S1134330CF90BF90AF909F908F907F906F905F9041
S11343404F903F902F9008952F923F924F925F92FB
S11343506F927F928F929F92AF92BF92CF92DF9291
S1134360EF92FF920F931F93CF93DF93CDB7DEB7F6
S11343706097CDBFDEBF8CE090E00E941C131B0150
S11343802C0160932D5130922E5140922F51509216
S11343903051109231511092325110923351109287
S11343A034516894AA24A4F80F2EF7E2BF2EF02DFE
S11343B0C12CD12CE12CF12C00E010E0262F332D60
S11343C0442D552D60E070E080E090E00E945D3C5B
S11343D02093735130937451409375515093765197
S11343E060937751709378518093795190937A5177
S11343F0222D332D442D552D60E070E080E090E0B7
S11344000E945B3C0F2EF8EEAF2EF02D0F2EF3E042
S1134410BF2EF02D0E945D3C20939C5230939D5200
S113442040939E5250939F526093A0527093A15216
S11344308093A2529093A352222D332D442D552DB7
S113444060E070E080E090E00E945B3C0F2EF4E6B8
S1134450AF2EF02DB12C0E945D3C20938B513093F4
S11344608C5140938D5150938E5160938F51709322
S113447090518093915190939251222D332D442D3C
S1134480552D60E070E080E090E00E945B3C0F2ED0
S1134490FAE0AF2EF02D0E945D3C20935A513093E8
S11344A05B5140935C5150935D5160935E517093A6
S11344B05F518093605190936151222D332D442D8F
S11344C0552D60E070E080E090E00E945B3C20931A
S11344D0995130939A5140939B5150939C516093BE
S11344E09D5170939E5180939F519093A051BAC156
S11344F010924E5110924F5110924C51C0903F5116
S1134500D0904051E0904151F0904251CD82DE82F2
S1134510EF82F886CB86DC86ED86FE8620912D51CF
S113452030912E5140912F51509130516091315121
S11345307091325180913351909134510E94C5361B
S113454060936F5170937051809371519093725135
S113455021E32A95F1F700000E94FE0D31E33A951C
S1134560F1F700000E94EE1989879A872C01612CCB
S1134570712C80916851882309F400C1809169519C
S1134580813031F520912D5130912E5140912F5190
S11345905091305160913151709132518091335129
S11345A090913451A5E00E94DC3C20932D5130932E
S11345B02E5140932F515093305160933151709349
S11345C0325180933351909334511092695129C0E0
S11345D080916951833029F520912D5130912E51CC
S11345E040912F515091305160913151709132511D
S11345F08091335190913451ABEF0E94DC3C209375
S11346002D5130932E5140932F515093305160933C
S113461031517093325180933351909334511092AD
S1134620695140912D51498350912E515A83609183
S11346302F516B83709130517C83809031519090D5
S1134640325180913351888B909134519F87689473
S1134650AA24A4F80F2EF7E2BF2EF02DC12CD12CE2
S1134660E12CF12C00E010E0242F352F462F572F9A
S1134670682D792D0E945D3C022F132FF801E55A15
S1134680FE4B80810F2EF1E92F2EF1E43F2EF02D09
S1134690D10117968C93E12CF12C00E010E02981D4
S11346A03A814B815C81682D792D88899F850E9490
S11346B05B3C0F2EF8EEAF2EF02D0F2EF3E0BF2E45
S11346C0F02D0E945D3C022F132FF801E55AFE4B9A
S11346D08081F1018683E12CF12C00E010E0298136
S11346E03A814B815C81682D792D88899F850E9450
S11346F05B3C0F2EF4E6AF2EF02DB12C0E945D3CF6
S1134700022F132FF801E55AFE4B8081D101159633
S11347108C93E12CF12C00E010E029813A814B814B
S11347205C81682D792D88899F850E945B3C0F2EC2
S1134730FAE0AF2EF02D0E945D3C022F132FF801FA
S1134740E55AFE4B8081F1018483E12CF12C00E0D9
S113475010E029813A814B815C81682D792D88890B
S11347609F850E945B3C49835A83022F132FF801D3
S1134770E55AFE4B8081D1011B968C934114510460
S11347806104710409F449C09301820105501109BF
S11347902109310991E0B301A2014B5F5F4F6F4FD3
S11347A07F4FCB84DC84ED84FE844C155D056E055F
S11347B07F0508F490E081E04B855C856D857E85FE
S11347C0401751076207730708F480E0892371F0EA
S11347D06D817E818F8198856093375170933851B4
S11347E08093395190933A51109288518D819E81D2
S11347F0AF81B885840D951DA61DB71DB695A795E7
S11348009795879580933F5190934051A093415140
S1134810B09342510E9424181AC0809188518F5F2E
S113482080938851863098F0E6E3F1E5118612868C
S113483013861486C984DA84C601A0E0B0E08183BB
S11348409283A383B483109288510E9424182FEF7B
S11348503FE342E0215030404040E1F700C0000017
S11348600E948C0E80912851882321F08091295137
S113487081113ECE40912D5150912E5160912F5176
S1134880709130518CE090E00E9469136096CDBF26
S1134890DEBFDF91CF911F910F91FF90EF90DF90DA
S11348A0CF90BF90AF909F908F907F906F905F90CC
S11348B04F903F902F9008958F929F92AF92BF9206
S11348C0CF92DF92EF92FF921092994188E090E0AC
S11348D00E9411136C01E12CF12CC0928351D092EF
S11348E08451E0928551F0928651C701B60128EEB9
S11348F033E040E050E00E949E3B2093C1410F2EE4
S1134900F4E68F2E912CA12CB12CF02DA50194014D
S11349100E949E3B20937C51C701B601A5019401DE
S11349200E949E3B0F2EFAE08F2E912CA12CB12CCD
S1134930F02DA50194010E949E3B20938251C70152
S1134940B601A50194010E949E3B60934B51FFC0A8
S113495081E080932B5180916751823009F482C0A9
S113496030F4882359F0813009F442C0EEC083301A
S113497009F4B2C0843009F4E6C0E7C0E0914B51B9
S1134980F0E0E55AFE4B80818093954180919351EC
S1134990882319F01092984108C0E091C141F0E0D9
S11349A0E55AFE4B80818093984180916851882319
S11349B009F4CBC080916951813051F48091C14197
S11349C0811106C08F5F8093C14110926951BDC0AF
S11349D080916951833009F0B8C08091C141882326
S11349E009F4B3C081508093C14110926951ADC0A4
S11349F0E091C141F0E0E55AFE4B808180939841FB
S1134A0080919351882319F01092974108C0E09146
S1134A107C51F0E0E55AFE4B808180939741809170
S1134A206851882309F491C080916951813051F40F
S1134A3080917C51893030F48F5F80937C51109247
S1134A40695183C080916951833009F07EC080919F
S1134A507C51882309F479C0815080937C51109251
S1134A60695173C0E0917C51F0E0E55AFE4B8081BE
S1134A708093974180919351882319F01092964125
S1134A8008C0E0918251F0E0E55AFE4B80818093AA
S1134A90964180916851882309F457C080916951E7
S1134AA0813051F480918251893030F48F5F80934A
S1134AB082511092695149C080916951833009F043
S1134AC044C080918251882309F43FC0815080936F
S1134AD082511092695139C0E0918251F0E0E55A57
S1134AE0FE4B80818093964180919351882319F0E5
S1134AF01092954108C0E0914B51F0E0E55AFE4B0D
S1134B00808180939541809168518823F1F0809150
S1134B106951813051F480914B51893030F48F5F69
S1134B2080934B511092695110C080916951833028
S1134B3061F480914B51882341F0815080934B5113
S1134B401092695102C0109267510E948C0E80919C
S1134B5028518111FDCE4091C14128EE33E0429F9E
S1134B60C001439F900D1124AC01990F660B770B84
S1134B7080917C5124E6829FC0011124092E000CEF
S1134B80AA0BBB0B840F951FA61FB71F2091825140
S1134B9030E0B901660F771F220F331F220F331F36
S1134BA0220F331F620F731FAB01770F660B770B56
S1134BB0840F951FA61FB71F20914B51BC01CD0137
S1134BC0620F711D811D911D6093835170938451F7
S1134BD0809385519093865188E090E00E944C1315
S1134BE0E8E2F1E581E0808311821382109267513B
S1134BF0FF90EF90DF90CF90BF90AF909F908F90F9
S1134C0008954CE062E080E00E94D20543C0E1E9EF
S1134C10F1E417828AE182838AE281838EE18083D0
S1134C201682209196518DEC289F812D1124869512
S1134C3086958695A82FB0E0A55ABE4B9C91958386
S1134C40880F982F990F990F890FA22FA81BB0E0F6
S1134C50A55ABE4B8C918483108680916851882319
S1134C60B9F080916951813041F4243030F4220F3D
S1134C7020939651109269510BC0809169518330F1
S1134C8039F4223028F026952093965110926951D8
S1134C900E948C0E80912851882321F08091295103
S1134CA08111B5CF6091965184E090E00E94291360
S1134CB008954CE062E080E00E94D20543C0E1E93F
S1134CC0F1E4138280E682838AE78183108217826B
S1134CD01682209102518DEC289F812D11248695F6
S1134CE086958695A82FB0E0A55ABE4B9C919583D6
S1134CF0880F982F990F990F890FA22FA81BB0E046
S1134D00A55ABE4B8C918483108680916851882368
S1134D10B9F080916951813041F42C3330F42F5F24
S1134D2020930251109269510BC0809169518330D4
S1134D3039F4222329F02150209302511092695111
S1134D400E948C0E80912851882321F08091295152
S1134D508111B5CF6091025183E090E00E94291344
S1134D6008952F923F924F925F926F927F928F920B
S1134D709F92AF92BF92CF92DF92EF92FF920F93E6
S1134D801F93CF93DF93109229514CE062E080E0AF
S1134D900E94D20583E090E00E94071380930251A1
S1134DA084E090E00E9407138093965188E090E09D
S1134DB00E941113A0E0B0E080938351909384513A
S1134DC0A0938551B09386518CE090E00E941C130F
S1134DD0DC01CB0180932D5190932E51A0932F5140
S1134DE0B09330511092315110923251109233518C
S1134DF0109234518AE090E00E941113EC018093E8
S1134E00215190932251409083515090845160904D
S1134E10855170908651C301B20128EE33E040E021
S1134E2050E00E949E3B2093C1410F2EF4E68F2E4A
S1134E30912CA12CB12CF02DA50194010E949E3B34
S1134E4020937C51C301B201A50194010E949E3BB1
S1134E500F2EFAE08F2E912CA12CB12CF02DA50150
S1134E6094010E949E3B20938251C301B201A5018B
S1134E7094010E949E3B60934B5120902D513090A1
S1134E802E5140902F51509030516090315170907C
S1134E90325180903351909034516894AA24A4F8EC
S1134EA00F2EF7E2BF2EF02DC12CD12CE12CF12CCA
S1134EB000E010E0222D332D442D552D662D772D45
S1134EC0882D992D0E945D3C209373513093745129
S1134ED04093755150937651609377517093785104
S1134EE08093795190937A51222D332D442D552D51
S1134EF0662D772D882D992D0E945B3C0F2EF8EEA0
S1134F00AF2EF02D0F2EF3E0BF2EF02D0E945D3C4E
S1134F1020939C5230939D5240939E5250939F52A3
S1134F206093A0527093A1528093A2529093A35283
S1134F30222D332D442D552D662D772D882D992D19
S1134F400E945B3C0F2EF4E6AF2EF02DB12C0E9494
S1134F505D3C20938B5130938C5140938D515093F1
S1134F608E5160938F51709390518093915190938F
S1134F709251222D332D442D552D662D772D882DBC
S1134F80992D0E945B3C0F2EFAE0AF2EF02D0E946B
S1134F905D3C20935A5130935B5140935C51509344
S1134FA05D5160935E5170935F5180936051909313
S1134FB06151222D332D442D552D662D772D882DAD
S1134FC0992D0E945B3C2093995130939A514093C0
S1134FD09B5150939C5160939D5170939E5180932B
S1134FE09F519093A051CE0160E177E20E948A3BE9
S1134FF06093235128EE33E0B9010E948A3B609309
S11350009551CE01B9010E948A3B24E630E0B901F2
S11350100E948A3B60932551CE01B9010E948A3BCC
S11350202AE030E0B9010E948A3B60930751CE0127
S1135030B9010E948A3B80938051C1E064C1809190
S11350406851882399F080916951813031F4C730D7
S113505020F4CF5F1092695109C080916951833067
S113506029F4CC2319F0C15010926951EC2FF0E0CF
S1135070E55AFE4B8081809399418C2F90E08830D3
S1135080910508F03EC1FC01E957FC4F0C94DF3B4D
S1135090E1E9F1E41382128280E681838AE7808366
S11350A017821682409102518DEC489F812D112464
S11350B0869586958695282F30E0255A3E4BD90152
S11350C09C919583880F982F990F990F890FA42F7E
S11350D0A81BB0E0A55ABE4B8C91848313868091A3
S11350E02951882309F40DC10E9459260AC1E1E916
S11350F0F1E413828AE182838AE281838EE18083F0
S113510017821682409196518DEC489F812D11246F
S1135110869586958695282F30E0255A3E4BD901F1
S11351209C919583880F982F990F990F890FA42F1D
S1135130A81BB0E0A55ABE4B8C9184831386809142
S11351402951882309F4DDC00E940126DAC0E1E96F
S1135150F1E48CE983838AEF82839EEC91838083DC
S1135160A091C141B0E0A55ABE4B8C918783A09118
S11351707C51B0E0A55ABE4B8C918683A09182519C
S1135180B0E0A55ABE4B8C918583A0914B51B0E001
S1135190A55ABE4B8C918483138680912951882310
S11351A009F4AFC00E945C24ACC0E1E9F1E41382CD
S11351B012828AE081838AE38083A0917351B09143
S11351C07451A55ABE4B8C918F5F8783A0919C52DA
S11351D0B0919D52A55ABE4B8C918683A0918B5160
S11351E0B0918C51A55ABE4B8C918583A0915A5194
S11351F0B0915B51A55ABE4B8C918483A091995177
S1135200B0919A51A55ABE4B8C91838780912951B4
S1135210882309F476C00E94701C73C0E1E9F1E4AC
S113522080E683838CEE828382E0818386EB8083B5
S1135230A0912351B0E0A55ABE4B8C918783A091D5
S11352409551B0E0A55ABE4B8C918F5F8683A09197
S11352502551B0E0A55ABE4B8C918583A09107518E
S1135260B0E0A55ABE4B8C918483A0918051B0E0EC
S1135270A55ABE4B8C91838780912951882309F4C8
S113528040C00E94BA1A3DC0E1E9F1E486EB838391
S11352908AE182838AEF818380E68083A0917351BF
S11352A0B0917451A55ABE4B8C918F5F8783A091A6
S11352B09C52B0919D52A55ABE4B8C918683A0916D
S11352C08B51B0918C51A55ABE4B8C918583A09182
S11352D05A51B0915B51A55ABE4B8C918483A091D5
S11352E09951B0919A51A55ABE4B8C918387809164
S11352F02951882331F00E94A42103C0C1E001C0D8
S1135300C6E00E948C0E80912851811198CEDF91C5
S1135310CF911F910F91FF90EF90DF90CF90BF90AE
S1135320AF909F908F907F906F905F904F903F9041
S11353302F9008951BBEFC0164BF40830895682F1D
S113534088E60E94E217982F92959F70990F292F53
S1135350220F220F920F8F70890F0895CF93DF933E
S113536086E00E949F29C2E5D1E58E8385E00E94F4
S11353709F298D8384E00E949F298C8383E00E946F
S11353809F298B8382E00E949F298A8381E00E9467
S11353909F29898380E00E949F298883DF91CF9190
S11353A008959DEC699F912D112496959695969557
S11353B020E1929FA0011124990F292F220F220F7F
S11353C0920F691B6F70462B682F88E60E949E1708
S11353D00895962F482F50E04730510518F5FA01EB
S11353E0E157FC4F0C94DF3B9C33E8F090E01BC08A
S11353F09C33C8F090E017C09831A8F090E013C037
S11354002FEF290F273078F091E00DC0903258F03B
S113541091E009C09D3038F091E005C0911103C0BE
S113542095E101C090E0692F0E94D1290895CF939E
S1135430DF93109229514CE062E080E00E94D20593
S11354400E94AE29C2E5D1E5AE818DECA89F912DD5
S11354501124969596959695E92FF0E0E55AFE4B22
S11354602081E1E9F1E42383990F292F220F220FF0
S1135470920FA91BB0E0A55ABE4B9C9192834D811B
S1135480489F912D1124969596959695292F30E055
S1135490255A3E4BD9012C912183990F292F220F94
S11354A0220F920FA42FA91BB0E0A55ABE4B9C91CA
S11354B090834C81489F912D1124969596959695AD
S11354C0292F30E0255A3E4BD9012C912783990F7F
S11354D0292F220F220F920FA42FA91BB0E0A55A47
S11354E0BE4B9C9196834A81489F912D1124969599
S11354F096959695292F30E0255A3E4BD9012C914B
S11355002583990F292F220F220F920FA42FA91B55
S1135510B0E0A55ABE4B9C9194834981489F912D3C
S11355201124969596959695292F30E0255A3E4B51
S1135530D9012C912387990F292F220F220F920F23
S1135540A42FA91BB0E0A55ABE4B9C919287A881B9
S1135550A89F812D1124869586958695C82FD0E025
S1135560C55ADE4B98819187880F982F990F990F10
S1135570890FA81BB0E0A55ABE4B8C9180878AC2C4
S113558081E080932B51E09167518E2F90E087301A
S1135590910508F07DC2FC01EA56FC4F0C94DF3BF8
S11355A0E09152518DECE89F812D112486958695CA
S11355B08695A82FB0E0A55ABE4B9C91A1E9B1E411
S11355C019969C931997880F982F990F990F890F03
S11355D0E81BF0E0E55AFE4B808118968C931897EF
S11355E080919351882321F0FD01138212821FC000
S11355F0E09158518DECE89F812D11248695869574
S11356008695A82FB0E0A55ABE4B9C91A1E9B1E4C0
S113561013969C931397880F982F990F990F890FBE
S1135620E81BF0E0E55AFE4B808112968C93809142
S11356306851882309F42CC280916951813051F456
S113564080915851833630F48F5F80935851109273
S113565069511EC280916951833009F019C2809149
S11356605851882309F414C28150809358511092E0
S113567069510EC2E09158518DECE89F812D11249F
S1135680869586958695A82FB0E0A55ABE4B9C9129
S1135690A1E9B1E413969C931397880F982F990F5F
S11356A0990F890FE81BF0E0E55AFE4B80811296B2
S11356B08C93129780919351882321F0FD011182DC
S11356C010821EC0E09157518DECE89F812D11246A
S11356D0869586958695A82FB0E0A55ABE4B9C91D9
S11356E0A1E9B1E411969C931197880F982F990F13
S11356F0990F890FE81BF0E0E55AFE4B80818C93EB
S113570080916851882309F4C3C180916951813023
S113571051F4809157518C3030F48F5F80935751FE
S113572010926951B5C180916951833009F0B0C1BB
S113573080915751823008F4ABC181508093575106
S113574010926951A5C1E09157518DECE89F812DCC
S11357501124869586958695A82FB0E0A55ABE4B50
S11357609C91A1E9B1E411969C931197880F982F0D
S1135770990F990F890FE81BF0E0E55AFE4B8081E1
S11357808C9380919351882321F0FD011782168216
S11357901FC0E09156518DECE89F812D1124869510
S11357A086958695A82FB0E0A55ABE4B9C91A1E999
S11357B0B1E417969C931797880F982F990F990F18
S11357C0890FE81BF0E0E55AFE4B808116968C9316
S11357D080916851882309F45BC1809169518130BB
S11357E051F4809156518F3130F48F5F809356512C
S11357F0109269514DC180916951833009F048C1BB
S113580080915651823008F443C18150809356519F
S1135810109269513DC1E09156518DECE89F812D64
S11358201124869586958695A82FB0E0A55ABE4B7F
S11358309C91A1E9B1E417969C931797880F982F30
S1135840990F990F890FE81BF0E0E55AFE4B808110
S113585016968C93169780919351882321F0FD011D
S1135860158214821FC0E09154518DECE89F812D64
S11358701124869586958695A82FB0E0A55ABE4B2F
S11358809C91A1E9B1E415969C931597880F982FE4
S1135890990F990F890FE81BF0E0E55AFE4B8081C0
S11358A014968C9380916851882309F4F1C08091F7
S11358B06951813051F480915451873130F48F5FB4
S11358C08093545110926951E3C08091695183309F
S11358D009F0DEC080915451882309F4D9C0815065
S11358E08093545110926951D3C0E09154518DEC7E
S11358F0E89F812D1124869586958695A82FB0E082
S1135900A55ABE4B9C91A1E9B1E415969C931597B9
S1135910880F982F990F990F890FE81BF0E0E55A2B
S1135920FE4B808114968C93149780919351882315
S113593021F0FD01138612861FC0E09153518DECB6
S1135940E89F812D1124869586958695A82FB0E031
S1135950A55ABE4B9C91A1E9B1E41B969C931B975D
S1135960880F982F990F990F890FE81BF0E0E55ADB
S1135970FE4B80811A968C9380916851882309F498
S113598087C080916951813051F4809153518B3398
S113599030F48F5F809353511092695179C0809194
S11359A06951833009F074C080915351882309F4FC
S11359B06FC08150809353511092695169C0E09136
S11359C053518DECE89F812D1124869586958695FB
S11359D0A82FB0E0A55ABE4B9C91A1E9B1E41B9657
S11359E09C931B97880F982F990F990F890FE81B89
S11359F0F0E0E55AFE4B80811A968C931A978091B9
S1135A009351882321F0FD01118610861FC0E09177
S1135A1052518DECE89F812D1124869586958695AB
S1135A20A82FB0E0A55ABE4B9C91A1E9B1E4199608
S1135A309C931997880F982F990F990F890FE81B3A
S1135A40F0E0E55AFE4B808118968C938091685162
S1135A508823F1F080916951813051F48091525141
S1135A608B3330F48F5F809352511092695110C080
S1135A7080916951833061F480915251882341F0BF
S1135A808150809352511092695102C01092675113
S1135A900E948C0E80912851811172CDC2E5D1E50E
S1135AA06E8186E00E94E9296D8185E00E94E929E2
S1135AB06C8184E00E94E9296A8182E00E94E929DC
S1135AC0698181E00E94E929688180E00E94E929D6
S1135AD0DF91CF91089580E00895E0E4FAE081E059
S1135AE0828787E490E086A397A38FE0808380E099
S1135AF00895E0E2F8E080E098E18087918784E906
S1135B00858380EC868380E008959091240895FF36
S1135B10FCCF8093220881E090E00895E0E6F8E06D
S1135B2080E098E18087918784E9858380EC86838F
S1135B3080E008959091640895FFFCCF80936208FB
S1135B4081E090E008950F931F93CF93DF938C012E
S1135B50C0E0D0E007C0F801EC0FFD1F80810E9477
S1135B609A2D2196F80101900020E9F73197E01B66
S1135B70F10BCE17DF0778F3DF91CF911F910F91CF
S1135B8008958AEFE2EAF1E5DF011D928A95E9F7CB
S1135B9010928A5108954AE068ED80E091E00E94F5
S1135BA09A2980E00895CF93C0E0C130A1F028F095
S1135BB0C23069F1C33081F133C088E691E40E94B8
S1135BC0A32D2FEF8FEF9CE2215080409040E1F70E
S1135BD000C0000025C08CE691E40E94A32D8091B2
S1135BE06451805D0E949A2D8091C341805D0E9422
S1135BF09A2D80912651805D0E949A2D80910551A5
S1135C00805D0E949A2D8DE00E949A2D09C081E743
S1135C1091E40E94A32D04C087E791E40E94A32D80
S1135C2080E09DC0C11125C0282F30E0F901EE5558
S1135C30FE4A90819F34E9F4F901ED55FE4A9081C2
S1135C409B34B9F4F901EC55FE4A90819D3089F4F6
S1135C5083E090E00E9442042FEF8FE392E0215012
S1135C6080409040E1F700C000000E94C12DC1E0D7
S1135C7079C0C13029F5282F30E0F901EE55FE4AEC
S1135C8090819F34E9F4F901ED55FE4A90819B34EB
S1135C90B9F4F901EC55FE4A90819D3089F483E012
S1135CA090E00E9442042FEF8FE392E02150804065
S1135CB09040E1F700C000000E94C12DC2E052C034
S1135CC0C23029F5282F30E0F901EE55FE4A9081C3
S1135CD09F34E9F4F901ED55FE4A90819B34B9F4FF
S1135CE0F901EC55FE4A90819D3089F483E090E0FF
S1135CF00E9442042FEF8FE392E0215080409040B5
S1135D00E1F700C000000E94C12DC3E02BC0C330E6
S1135D1029F5282F30E0F901EE55FE4A90819F3491
S1135D20E9F4F901ED55FE4A90819B34B9F4F90187
S1135D30EC55FE4A90819D3089F483E090E00E9406
S1135D4042042FEF8FE392E0215080409040E1F72E
S1135D5000C000000E94C12DC5E004C08F5F8A3FCF
S1135D6008F460CF0E948C0EC53009F01ECFCF918D
S1135D7008956F927F928F929F92BF92CF92DF92FB
S1135D80EF92FF920F931F93CF93DF934CE062E067
S1135D9081E00E94D20580907D5190907E519401C3
S1135DA0329522952F7023273F702327A7E4B3E071
S1135DB00E94E83B6C01D694C794D694C794D694B9
S1135DC0C794DC2D20E137E2C29EC001C39E900D32
S1135DD0D29E900D11249401281B390B36952795DA
S1135DE03695279536952795A5ECB0E20E94E83BB9
S1135DF07C01F694E794F694E794F694E794F69489
S1135E00E794BE2C940136952795369527953695BB
S1135E1027950E94E83B929582958F7089279F7001
S1135E20892748EE53E0849F9001859F300D949F0D
S1135E30300D1124C401821B930B9C0136952795C8
S1135E4036952795ABE7B4E10E94E83B3C01769494
S1135E506794062D940136952795369527950E94CB
S1135E60E83B9C013695279544E6429FC001439F39
S1135E70900D11249401281B390BADECBCEC0E944D
S1135E80E83BAC01569547955695479556954795E9
S1135E90C42F94010E94E83B969587959695879523
S1135EA0969587959C01220F331F880F991F880FA1
S1135EB0991F880F991F820F931F9401281B390B78
S1135EC0C901122FD601A55ABE4B2C91A1E9B1E408
S1135ED017962C93179797013327255A3E4BF901B0
S1135EE0208116962C931697F301FF27E55AFE4B53
S1135EF0208115962C9315975527FA01E55AFE4BE8
S1135F00208114962C9314979927FC01E55AFE4B93
S1135F1080811B968C9377C181E080932B51809173
S1135F206751823009F489C028F4882361F08130F4
S1135F30D1F167C1843009F418C108F4C9C08530AF
S1135F4009F45DC15EC1E12FF0E0E55AFE4B8081AA
S1135F5080939C4180919351882319F01092984129
S1135F6007C0ED2FF0E0E55AFE4B80818093984105
S1135F7080916851882309F444C18091695181302A
S1135F8031F4D63020F4DF5F109269513AC1809128
S1135F906951833009F035C1DD2309F432C1D15090
S1135FA0109269512EC1ED2FF0E0E55AFE4B80812D
S1135FB08093984180919351882319F010929741CE
S1135FC007C0EB2DF0E0E55AFE4B808180939741AA
S1135FD080916851882309F414C1D630B8F08091B7
S1135FE06951813039F4F4E0FB1520F0B394109238
S1135FF0695107C180916951833009F002C1BB2006
S113600009F4FFC0BA9410926951FBC080916951A0
S1136010813039F428E02B1520F0B39410926951A3
S1136020F0C080916951833009F0EBC0BB2009F4C2
S1136030E8C0BA9410926951E4C0EB2DF0E0E55A3F
S1136040FE4B80818093974180919351882319F06E
S11360501092964107C0E02FF0E0E55AFE4B808194
S11360608093964180916851882309F4CAC0D63040
S1136070C8F034E03B15B0F480916951813031F4BB
S1136080053020F40F5F10926951BBC080916951B3
S1136090833009F0B6C0002309F4B3C00150109254
S11360A06951AFC080916951813031F4093020F4D5
S11360B00F5F10926951A5C080916951833009F036
S11360C0A0C0002309F49DC001501092695199C0E9
S11360D0E02FF0E0E55AFE4B808180939641809159
S11360E09351882319F01092954107C0EC2FF0E0EA
S11360F0E55AFE4B808180939541809168518823B5
S113610009F47FC0D630D8F044E04B15C0F4053014
S1136110B0F080916951813031F4C33020F4CF5F05
S1136120109269516EC080916951833009F069C041
S1136130CC2309F466C0C1501092695162C08091A9
S11361406951813031F4C93020F4CF5F1092695124
S113615058C080916951833009F053C0CC2309F4AD
S113616050C0C150109269514CC0EC2FF0E0E55A78
S1136170FE4B80818093954180919351882319F03F
S113618010929C4107C0E12FF0E0E55AFE4B80815C
S113619080939C4180916851882399F1D630D8F03E
S11361A084E08B15C0F40530B0F0C330A0F08091CA
S11361B06951813031F4153020F41F5F1092695118
S11361C020C0809169518330E1F41123D1F0115042
S11361D01092695116C080916951813031F419309F
S11361E020F41F5F109269510CC080916951833073
S11361F041F4112331F011501092695102C01092F0
S113620067510E948C0E80912851811185CE20E126
S113621037E2D29FC001D39F900D112448EE53E082
S1136220B49E9001B59E300D1124820F931F9C01E2
S1136230E4E60E9F200D311D1124D0E0CE01880F1D
S1136240991FCC0FDD1FCC0FDD1FCC0FDD1F8C0F72
S11362509D1F820F931F810F911D80937D519093F9
S11362607E51292F22952F702093645110926551ED
S11362709C013F703093C3411092C4419C01332769
S1136280329522952F7023273F7023272093265180
S1136290309327518F70992780930551909306511D
S11362A00E94D32DE8E2F1E581E08083118213821C
S11362B010926751DF91CF911F910F91FF90EF9052
S11362C0DF90CF90BF909F908F907F906F900895B4
S11362D0CF93C0E0C130A1F028F0C230D1F1C33077
S11362E0E9F140C088E691E40E94A32D2FEF8FEFDF
