:100600000C941E040C943D040C943D040C943D0485
:100610000C943D040C943D040C943D040C943D0456
:100620000C943D040C943D040C943D040C943D0446
:100630000C943D040C943D040C943D040C943D0436
:100640000C943D040C943D040C943D040C943D0426
:100650000C943D040C943D040C943D040C943D0416
:100660000C943D040C943D040C943D040C943D0406
:100670000C943D040C943D040C943D040C944A04E9
:100680000C943D040C943D040C943D040C943D04E6
:100690000C943D040C943D040C943D040C943D04D6
:1006A0000C943D040C943D040C943D040C940918E6
:1006B0000C943D040C943D040C94A4040C943D044F
:1006C0000C943D040C943D040C943D040C943D04A6
:1006D0000C9477040C943D040C943D040C943D045C
:1006E0000C943D040C943D040C943D040C943D0486
:1006F0000C943D040C943D040C943D040C943D0476
:10070000EC11EE110112101220122F12EA116929B8
:100710006E299A29C629F229252A582A6629002BEA
:10072000032B062B092B0E2B112B142B0D2C6B2CB2
:10073000CA2C292D882DE72D3C2E6E616E00696E26
:10074000660000407A10F35A00A0724E180900109B
:10075000A5D4E80000E87648170000E40B54020036
:1007600000CA9A3B000000E1F50500008096980061
:10077000000040420F000000A0860100000010278A
:1007800000000000E803000000006400000000001A
:100790000A00000000000100000000002C76D8884C
:1007A000DC674F0823DFC1DFAE59E1B1B796E5E35F
:1007B000E453C63AE651997696E8E6C28426EB8978
:1007C0008C9B62ED407C6FFCEFBC9C9F40F2BAA515
:1007D0006FA5F490055A2AF75C936B6CF9676DC1AD
:1007E0001BFCE0E40D47FEF520E6B500D0ED902EB1
:1007F0000300943577050080841E080000204E0A0F
:10080000000000C80C333333330F986E128311414C
:10081000EF8D2114893BE65516CFFEE6DB18D18417
:100820004B381BF77C1D901DA4BBE424203284723E
:100830005E228100C9F124ECA1E53D2711241FBEF1
:10084000CFEFCDBFDFE7DEBF11E4A0E0B0E4E6ED1F
:10085000F2E800E00BBF02C007900D92A637B10787
:10086000D9F722E5A6E7B1E401C01D92A939B20784
:10087000E1F70E945C120C9469410C9400030E9401
:100880005C140895E4E0F4E090819260908380939A
:100890006B5108951F920F920FB60F9211240BB651
:1008A0000F928F939F93EF93FF93E0E2F8E08481A0
:1008B0008823ECF78091EB5090912008E82FF0E02E
:1008C000E051FF4A9083893110F01092EB508091F3
:1008D000EB508F5F8093EB50FF91EF919F918F9141
:1008E0000F900BBE0F900FBE0F901F9018951F9288
:1008F0000F920FB60F9211240BB60F928F939F9306
:10090000EF93FF93E0E6F8E084818823ECF7809191
:10091000745190916008E82FF0E0E457FE4A90830C
:100920008A3F10F010927451809174518F5F8093C0
:100930007451FF91EF919F918F910F900BBE0F908B
:100940000FBE0F901F9018951F920F920FB60F9227
:1009500011240BB60F922F933F934F935F936F9396
:100960007F938F939F93AF93BF93EF93FF9381E018
:1009700080934B0A0E944A050E94F90580913651E6
:10098000811105C0E0E5F1E51182128205C0E6E3C0
:10099000F1E580818150808380916B51811106C087
:1009A000E4E0F4E080818D7F808303C081508093F8
:1009B0006B51E6E3F1E58181928101968183928317
:1009C00081819281803D974028F0E1E1F1E510823C
:1009D00011821282E6E3F1E583819481019683839B
:1009E000948380911E518F5F80931E51833348F012
:1009F00081E090917D51911180E080937D51109222
:100A00001E51FF91EF91BF91AF919F918F917F9177
:100A10006F915F914F913F912F910F900BBE0F906F
:100A20000FBE0F901F901895CF93C82F80914F51F4
:100A3000813019F48C2F0E94832E80914F51833086
:100A400019F48C2F0E94992E80E090E0CF910895A8
:100A50008EE0809300048DE08093200485E58093F0
:100A6000400410926004109280048CE08093A004F3
:100A700087EF8093C0041092040410922404109213
:100A8000440410926404109284041092A4041092FE
:100A9000C404089562E070E0E4ECF4E024C08081D6
:100AA0008D7F808380917841DA01A80FB11D8C91F0
:100AB00090E0022E02C0959587950A94E2F780FF98
:100AC00004C080818460808303C080818B7F8083A9
:100AD0008081826080832F5F3F4F28303105F9F697
:100AE0006150710950F020E030E0AB01440F551F18
:100AF000440F551F47585E4BD2CFE4ECF4E08081A1
:100B00008160808380818E7F808380917841813075
:100B1000A9F028F0823009F1833071F13BC0E4EC98
:100B2000F4E080818F7E808380818F7D80838081CF
:100B30008F7B80838081806880832CC0E4ECF4E02C
:100B400080818F7E808380818F7D8083808180649F
:100B5000808380818F7780831DC0E4ECF4E0808106
:100B60008F7E808380818062808380818F7B808381
:100B700080818F7780830EC0E4ECF4E08081806117
:100B8000808380818F7D808380818F7B8083808143
:100B90008F778083809178418F5F843018F48093C1
:100BA000784108951092784108956817A0F0E42FD5
:100BB000F0E0ED5BFE4B9081E82FF0E0EE0FFF1FC1
:100BC000EE0FFF1FE758FE4B908391839283938330
:100BD0008F5F681788F70895E9E7F1E485E891E405
:100BE000108211821282138234968E179F07C1F7EA
:100BF0000895809151518111D5C08091080484FDE0
:100C000011C08AE090E00E944204E0E5F1E581E055
:100C100082838183109237511092385110920C5177
:100C200010920D518091080485FD12C08AE090E079
:100C30000E944204E0E5F1E582E0828381E0818365
:100C4000109237511092385110920C5110920D5150
:100C50008091080486FD12C08AE090E00E94420460
:100C6000E0E5F1E583E0828381E0818310923751F2
:100C70001092385110920C5110920D51809108042D
:100C8000882394F08AE090E00E944204E0E5F1E5D8
:100C900084E0828381E08183109237511092385131
:100CA00010920C5110920D5180915251843051F498
:100CB00080911151882319F01092115103C081E0E5
:100CC0008093115180911151882391F0809152515C
:100CD000823071F48091145181110AC080911251B7
:100CE000882319F01092125103C081E080931251B1
:100CF00080911151811117C080911351811113C03E
:100D000080915251823079F480911551882319F0E5
:100D10001092155108C081E0809315514AE062E0BD
:100D200082E00E94D50580911151882369F080915D
:100D30005251823049F480911451882329F0E0E522
:100D4000F1E580818F5F80838091115181110BC00B
:100D500080915251813039F480911351811103C037
:100D600081E080931351E0E5F1E59381828198134E
:100D700011C080915451823020F084E1809336512B
:100D8000089582E380933651E0E5F1E584818F5F39
:100D90008483089582E380933651E0E5F1E5828112
:100DA000838314820895CF92DF92EF92FF9281E0C5
:100DB00090E00E946F149FEF980F9C3318F480937B
:100DC000555108C081E08093555161E081E090E089
:100DD0000E94911482E090E00E946F14803218F417
:100DE0008093425108C081E08093425161E082E0EB
:100DF00090E00E94911483E090E00E946F148D3384
:100E000018F48093EA5008C081E08093EA5061E0D2
:100E100083E090E00E94911484E090E00E946F14BF
:100E20009FEF980F943018F48093805108C082E0AF
:100E30008093805162E084E090E00E94911488E009
:100E400090E00E947914A0E0B0E0AC01BD014456EE
:100E5000510961097109453853406105710548F42C
:100E600080936D5190936E51A0936F51B0937051D8
:100E700012C084E690E0A0E0B0E080936D519093C2
:100E80006E51A0936F51B093705164E670E088E0AA
:100E900090E00E94B5148CE090E00E9484140E94BF
:100EA00085376B017C0120E038EC4FEA57E40E9463
:100EB000753818169CF020E030E44CE156E4C70188
:100EC000B6010E94D83688234CF0C0925851D09277
:100ED0005951E0925A51F0925B5114C080E090E475
:100EE000ACE1B7E48093585190935951A0935A5173
:100EF000B0935B5140E45CE960E070E08CE090E02E
:100F00000E94D2148AE090E00E9479149C012A5039
:100F100031092730374228F48093095190930A51C0
:100F20000CC084EF91E08093095190930A5164EFD3
:100F300071E08AE090E00E94B51485E090E00E94A4
:100F40006F149FEF980F943618F480937E5108C069
:100F500081E080937E5161E085E090E00E949114F1
:100F600086E090E00E946F149FEF980F943618F47B
:100F70008093565108C081E08093565161E086E02D
:100F800090E00E94911487E090E00E946F148330FB
:100F900018F480938B5107C010928B5160E087E06A
:100FA00090E00E9491140E94BA2A80913B518C33A8
:100FB00028F060E080E00E94F52AFFCF8091415147
:100FC00081111CC067E186E00E94F52A64E085E09B
:100FD0000E94F52A65E084E00E94F52A64E083E03F
:100FE0000E94F52A6CE082E00E94F52A60E081E030
:100FF0000E94F52A60E080E00E94F52A80E190E0FE
:101000000E9479148093AD41992780936451909305
:101010006551FF90EF90DF90CF900895EF92FF928F
:101020000F931F93CF93DF937C018DE08E9DE001A2
:101030008F9DD00D1124CE0143960E946F1487011D
:1010400002551E4BF8018083CE0144960E9479140C
:10105000F701EE0FFF1FE652FD4B80839183CE0117
:1010600048960E947914F701EE0FFF1FEE5CFA4BD1
:1010700080839183CE0146960E946F14F801E4525A
:10108000FA4F8083CE0147960E946F14F801E85F03
:10109000F84F8083CE014A960E946F14F801EC5CF1
:1010A000F74F8083CE014B960E946F14F801E05AEF
:1010B000F64F8083CE014C960E946F14F801E457DE
:1010C000F54F8083CE014D960E946F14F801E854CD
:1010D000F44F80836E96CE010E946F14F801EC519C
:1010E000F34F8083CE010E946F14F801E05FF14F4F
:1010F0008083DF91CF911F910F91FF90EF90089522
:10110000CF93DF932DE0289FE001299FD00D11247C
:1011100060E0CE0143960E94911460E070E0CE0141
:1011200044960E94B51460E070E0CE0148960E949B
:10113000B51460E0CE0146960E94911460E0CE01A5
:1011400047960E94911460E0CE014A960E94911445
:1011500060E0CE014B960E94911460E0CE014C9667
:101160000E94911460E0CE014D960E94911460E0BF
:10117000CE014E960E94911460E0CE014F960E94DF
:101180009114DF91CF9108958FE090E00E94420486
:1011900026E686E695E0215080409040E1F78FE01A
:1011A00090E00E94420426E686E695E021508040C9
:1011B0009040E1F78FE090E00E9442040895AF92E2
:1011C000BF92CF92DF92EF92FF920F931F93CF9334
:1011D000DF9380911151882309F457C080911251F7
:1011E000882309F452C00F2EF0E5EF2EF1E5FF2E13
:1011F000F02DDD24D394C9E7D1E40F2EFCEFBF2EF0
:10120000F02D0F2EFCEEAF2EF02D0F2EFEE8CF2E80
:10121000F02D01E111E5F7018181882369F08281D8
:10122000813019F4D0928B510BC0F7018281833049
:1012300019F410928B5113C080918B51882379F04F
:1012400080917D51882331F04CE06D2D8D2D0E94D1
:10125000D50513C01F821E82BD82AC820EC0809154
:101260007D51882331F04CE06D2D8D2D0E94D505E8
:1012700004C01F82BE82CD82CC82A895F8018081F5
:10128000882319F081818111C6CF60918B5187E04D
:1012900090E00E949114DF91CF911F910F91FF90E8
:1012A000EF90DF90CF90BF90AF900895BF92CF9214
:1012B000DF92EF92FF920F931F93CF93DF932FEF65
:1012C0008FE796E1215080409040E1F700C0000098
:1012D00080911351882309F440C101E111E50F2EDB
:1012E000F0E5EF2EF1E5FF2EF02DC9E7D1E40F2E4A
:1012F000F9E2BF2EF02D0F2EF4E6CF2EF02D0F2E9B
:10130000FDECDF2EF02DF8018281813009F08FC0D5
:10131000F7018181882321F18281813049F4809114
:101320007E51843628F48F5F80937E51128218C0DC
:10133000F7018281833049F480917E51823028F018
:10134000815080937E5112820BC0F70182818230DE
:1013500039F4F80182818F5F82831482F70112824F
:1013600080917D51882331F04CE061E081E00E9462
:10137000D5052EC01F82E0917E51EB9D812D112459
:1013800082958F70A82FB0E0AD5BBE4B9C919E8381
:10139000AE2F8C9DA0191124AD9DA12D1124A695D1
:1013A000A695A695B0E0AD5BBE4B8C918D83ED9D6F
:1013B000812D1124869586958695880F982F990FF3
:1013C000990F890FE81BF0E0ED5BFE4B80818C8369
:1013D0001B86E0915651EB9D812D112482958F70D3
:1013E000A82FB0E0AD5BBE4B9C919A87AE2F8C9D31
:1013F000A0191124AD9DA12D1124A695A695A69501
:10140000B0E0AD5BBE4B8C918987ED9D812D1124A1
:10141000869586958695880F982F990F990F890F35
:10142000E81BF0E0ED5BFE4B8081888791C0F801FE
:101430008281823009F08CC0F7018181882311F10B
:101440008281813049F480915651843628F48F5F2F
:1014500080935651128216C0F7018281833049F47D
:1014600080915651823028F08150809356511282DB
:1014700009C0F7018281823029F4F80112821482B6
:10148000F701128280917D51882331F04CE062E0B7
:1014900082E00E94D5052EC01B86E0915651EB9D3F
:1014A000812D112482958F70A82FB0E0AD5BBE4BCB
:1014B0009C919A87AE2F8C9DA0191124AD9DA12DD2
:1014C0001124A695A695A695B0E0AD5BBE4B8C9178
:1014D0008987ED9D812D1124869586958695880FA7
:1014E000982F990F990F890FE81BF0E0ED5BFE4BE9
:1014F000808188871F82E0917E51EB9D812D112490
:1015000082958F70A82FB0E0AD5BBE4B9C919E83FF
:10151000AE2F8C9DA0191124AD9DA12D1124A6954F
:10152000A695A695B0E0AD5BBE4B8C918D83ED9DED
:10153000812D1124869586958695880F982F990F71
:10154000990F890FE81BF0E0ED5BFE4B80818C83E7
:10155000A895F80182818111D6CE10921351609125
:101560007E5185E090E00E9491146091565186E092
:1015700090E00E9491140E94C408DF91CF911F91C6
:101580000F91FF90EF90DF90CF90BF900895CF9391
:10159000DF93C9E7D1E41F82E0917E5189E2E89FA1
:1015A000812D112482958F70A82FB0E0AD5BBE4BCA
:1015B0009C919E83AE2F94E6899FA01911248DECF7
:1015C000A89FA12D1124A695A695A695B0E0AD5B88
:1015D000BE4B9C919D83E89F812D11248695869515
:1015E0008695880F982F990F990F890FE81BF0E0C7
:1015F000ED5BFE4B80818C83DF91CF910895CF937B
:10160000DF93C9E7D1E41B86E091565189E2E89F58
:10161000812D112482958F70A82FB0E0AD5BBE4B59
:101620009C919A87AE2F94E6899FA01911248DEC86
:10163000A89FA12D1124A695A695A695B0E0AD5B17
:10164000BE4B9C919987E89F812D112486958695A4
:101650008695880F982F990F990F890FE81BF0E056
:10166000ED5BFE4B80818887DF91CF9108954F928B
:101670005F926F927F928F929F92AF92BF92CF9222
:10168000DF92EF92FF920F931F93CF93DF930E940D
:101690009C1AAC0160E070E04115510561057105CF
:1016A00009F47FC210920C5110920D5120915751A4
:1016B000233028F4309182513C3008F44FC14AE085
:1016C00061E081E00E94D50580911551811105C02E
:1016D00080918B51882309F43EC180911F51811163
:1016E0003AC180916451909165518B3221E092070B
:1016F00030F40196809364519093655104C0109228
:101700006451109265518091645190916551EC0142
:10171000C255DE4B20918B512883FC01EE0FFF1F39
:10172000E652FD4B80839183EFE1F1E541855285DF
:10173000638574854183528363837483880F991F03
:10174000FC01EE5CFA4B40835183FE01E452FA4FF8
:1017500080917E518083E45DFE4F8091565180835D
:1017600086E00E94AB2AFE01EC5CF74F8083C091BB
:101770006451D091655185E00E94AB2AC25FD44B81
:101780008883C0916451D091655184E00E94AB2A56
:10179000C65CD34B8883C0916451D091655182E07F
:1017A0000E94AB2ACA59D24B8883C0916451D09110
:1017B000655181E00E94AB2ACE56D14B8883C091FF
:1017C0006451D091655180E00E94AB2AC254D04B45
:1017D00088838091AD41833220F48F5F8093AD4147
:1017E00002C01092AD418091AD41CDE0C89FC001D3
:1017F000112460918B5143960E9491146091645121
:10180000709165518091AD41C89FC00111244496EB
:101810000E94B5140FE111E5F80161857285838599
:10182000948561837283838394832091AD41C29FA9
:1018300090011124C90148960E94B5148091AD41D0
:10184000C89FC001112460917E5146960E94911458
:101850008091AD41C89FC0011124609156514796B7
:101860000E94911486E00E94AB2A2091AD41C29F54
:1018700090011124682FC9014A960E94911485E0B5
:101880000E94AB2A2091AD41C29F90011124682F84
:10189000C9014B960E94911484E00E94AB2A2091CA
:1018A000AD41C29F90011124682FC9014C960E943E
:1018B000911482E00E94AB2A2091AD41C29F900119
:1018C0001124682FC9014D960E94911481E00E9455
:1018D000AB2A2091AD41C29F90011124682FC9010C
:1018E0004E960E94911480E00E94AB2A682F2091AE
:1018F000AD41C29FC00111244F960E949114609186
:10190000AD4170E080E190E00E94B51481E0F80103
:101910008083109215510E94C408F8018185928538
:10192000A385B485209182511F922F932091575106
:101930001F922F93BF93AF939F938F9388E490E46C
:101940009F938F930E94833F0E94CF188DB79EB7BD
:101950000A968DBF9EBF0E94FF0A18C1EFE1F1E514
:1019600081849284A384B484418452846384748483
:10197000E1E06A017B01F5E0CF0ED11CE11CF11C16
:10198000C814D904EA04FB0408F4E0E0EE2309F4E7
:1019900041C0E1E06A017B01F5E0CF1AD108E1081E
:1019A000F1084C145D046E047F0408F4E0E0EE23BB
:1019B00089F180911551811104C080918B51882348
:1019C00031F02F5F209357513D5F30938251EFE10B
:1019D000F1E581859285A385B485480F591F6A1F5B
:1019E0007B1F769567955795479541875287638703
:1019F000748781859285A385B48581839283A3832F
:101A0000B48381859285A385B48585879687A787CA
:101A1000B08BBCC080902C5190902D51A0902E5135
:101A2000B0902F516A017B0129E1C20ED11CE11C4B
:101A3000F11CC814D904EA04FB0408F442C08090E5
:101A40002C5190902D51A0902E51B0902F516A01A1
:101A50007B01E9E1CE1AD108E108F1088C149D045C
:101A6000AE04BF0470F180911551811104C08091C2
:101A70008B51882319F03E5F30938251EFE1F1E5FD
:101A800085859685A785B089480F591F6A1F7B1FDA
:101A900076956795579547954187528763877487F1
:101AA00081859285A385B48581839283A383B48342
:101AB00081859285A385B48585879687A787B08B16
:101AC00065C080902C5190902D51A0902E51B090D7
:101AD0002F516A017B01F2E3CF0ED11CE11CF11CF6
:101AE000C814D904EA04FB0408F442C080902C51C5
:101AF00090902D51A0902E51B0902F516A017B01F2
:101B000022E3C21AD108E108F1088C149D04AE0446
:101B1000BF0470F180911551811104C080918B51E7
:101B2000882319F03F5F30938251EFE1F1E585851D
:101B30009685A785B089480F591F6A1F7B1F769528
:101B40006795579547954187528763877487818545
:101B50009285A385B48581839283A383B483818591
:101B60009285A385B48585879687A787B08B0EC09D
:101B7000A0E0B0E0EFE1F1E585879687A787B08B1D
:101B800081839283A383B483109257510E94C70A22
:101B90001092725180911F51811129C00E94CF185B
:101BA00026C0809172518F5F809372518630F8F019
:101BB000EFE1F1E5118612861386148615861686E6
:101BC0001786108A11821282138214821082109258
:101BD000725110925751109282518091155181117A
:101BE00002C00E94FF0A0E94C70A0E94CF18DF911C
:101BF000CF911F910F91FF90EF90DF90CF90BF900A
:101C0000AF909F908F907F906F905F904F900895CE
:101C1000EF92FF920F931F93CF93DF93CDB7DEB771
:101C20006E97CDBFDEBFFE0131968EE1DF011D92C2
:101C30008A95E9F78091764190917741209164519E
:101C4000309165518217930730F401968093764165
:101C50009093774104C0109276411092774180EFC3
:101C6000898385E18B838091EA508C838EE28E8319
:101C7000809155518F838091764190917741FC01FD
:101C8000E255FE4B2081298722E02A87DC01AA0F3A
:101C9000BB1FA652BD4B2C9111963C913B872C87C4
:101CA000DC01AA0FBB1FAE5CBA4B2C9111963C9184
:101CB0003D872E87DF01A452BA4F2C912F87A45D58
:101CC000BE4F2C91288BA45DBE4F2C91298BA45D17
:101CD000BE4F2C912A8BA45DBE4F2C912B8BA45D03
:101CE000BE4F2C912C8BA45DBE4F2C912D8BE05FB1
:101CF000F14F20812E8B9F8B888FFE0132969E01A3
:101D0000235E3F4F80E09191890FE217F307D9F7E7
:101D10008D8F81EF8E8F8E010F5F1F4F7E01BFE190
:101D2000EB0EF11CF80181918F010E94992E0E1586
:101D30001F05C1F76E96CDBFDEBFDF91CF911F911A
:101D40000F91FF90EF900895EF92FF920F931F93E2
:101D5000CF93DF93CDB7DEB72A97CDBFDEBFFE01AD
:101D600031969AE0DF011D929A95E9F790EF9983F9
:101D700095E19B839091EA509C838D838EE28E83C4
:101D8000809155518F8331969E01275F3F4F80E0B0
:101D90009191890FE217F307D9F7898781EF8A8735
:101DA0008E010F5F1F4F7E01BBE0EB0EF11CF801AF
:101DB00081918F010E94992E0E151F05C1F72A9659
:101DC000CDBFDEBFDF91CF911F910F91FF90EF90BC
:101DD0000895CF92DF92EF92FF920F931F93CF93CC
:101DE000DF930CE811E50F2EF6E8EF2EF2E5FF2E5B
:101DF000F02DF8010F2EF4E2CF2EF4E0DF2EF02DBF
:101E0000CF01801B910BAC01EF0121962081203F77
:101E100009F0FBC02181213009F002C1298125315F
:101E200009F0F9C02B812111F6C02885213F09F066
:101E3000F2C0E4E2F4E0208128602083FC01E35753
:101E4000FE4ABC016C567E4A90E02191920FE61743
:101E5000F707D9F7FA01E457FE4A8085981318C0AE
:101E6000FA01E457FE4A93818091EA50981310C01A
:101E7000C4E2D4E08881846088830E94080E8CECE0
:101E80009CE10197F1F700C0000088818B7F888377
:101E90000E94C52EE4E2F4E08081877F8083C3C086
:101EA0002E85213F09F079C0E4E2F4E0208128602A
:101EB0002083FC01E357FE4A86569E4A20E031917A
:101EC000230FE817F907D9F7FA01E457FE4A868588
:101ED00028135BC0EF018085982F92959F70990F12
:101EE000692F660F660F960F8F70692F680F86E057
:101EF0000E94F52A8985982F92959F70990F692FD6
:101F0000660F660F960F8F70692F680F85E00E942D
:101F1000F52A8A85982F92959F70990F692F660FE1
:101F2000660F960F8F70692F680F84E00E94F52A64
:101F30008B85982F92959F70990F692F660F660F6A
:101F4000960F8F70692F680F82E00E94F52A8C85AA
:101F5000982F92959F70990F692F660F660F960FB5
:101F60008F70692F680F81E00E94F52A8D85982F68
:101F700092959F70990F692F660F660F960F8F705D
:101F8000692F680F80E00E94F52A0E94C52EE4E2C6
:101F9000F4E08081877F808346C089818531A9F5FF
:101FA0008B81873091F58E8D813F79F5D6018C91AB
:101FB00088608C937E96DE0180E09D91890FAE173C
:101FC000BF07D9F79D8D891320C09A818091EA506F
:101FD00098131BC060E070E06093095170930A5140
:101FE0008AE090E00E94B514F601808184608083CD
:101FF0008B810E94A40E8CEC9CE10197F1F700C04C
:102000000000D6018C918B7F8C93FE01EC16FD06AF
:1020100009F0F6CE08C02B81293009F0BECF40CFA1
:10202000213099F7BACFDF91CF911F910F91FF9097
:10203000EF90DF90CF900895CF93DF938091395147
:1020400090913A51883E934008F48FC010923951D4
:1020500010923A510E94BA2AEBE3F1E5648187813C
:10206000861709F46FC06093425182E090E00E94AD
:1020700091148CE291E0EEEAF1E4DF019C011D9203
:1020800021503040E1F7EAEDF2E4DF019C011D92BE
:1020900021503040E1F7E2E3F5E4DF019C011D92BD
:1020A00021503040E1F7EAE8F7E4DF019C011D929E
:1020B00021503040E1F7E6EBF8E4DF019C011D928E
:1020C00021503040E1F7E2EEF9E4DF019C011D927E
:1020D00021503040E1F7EEE0FBE4DF019C011D926E
:1020E00021503040E1F7EAE3FCE4DF019C011D925E
:1020F00021503040E1F7E6E6FDE4DF019C011D924E
:1021000021503040E1F7E2E9FEE4DF019C011D923D
:1021100021503040E1F7EEEBFFE4DF019C011D921E
:1021200021503040E1F710926451109265511092A5
:10213000AD41C0E0D0E0CE010E9480082196C332BC
:10214000D105C9F780910C5190910D5101968333BF
:10215000910528F480930C5190930D5106C082E3B1
:1021600090E080930C5190930D51DF91CF910895A1
:10217000CF92DF92EF92FF9220E836E948E15BE4EC
:10218000609158517091595180915A5190915B5181
:102190000E94DD3620E030E040E85EE30E947A38BD
:1021A00020E030E040E053E40E947A389B01AC012B
:1021B0000E946C3620E030E040E05BE40E947A3818
:1021C0006B017C0120916D5130916E5140916F51A6
:1021D00050917051A8EEB3E00E94F43C0E94853704
:1021E0009B01AC01C701B6010E94DD366B017C0189
:1021F0006091805170E080E090E00E9487379B0101
:10220000AC01C701B6010E94DD3660933051709376
:1022100031518093325190933351FF90EF90DF9082
:10222000CF900895CF93DF934AE062E080E00E9470
:10223000D5050E94D30686E69EE00197F1F70000DF
:10224000EBE3F1E5648187818617B1F06093425139
:1022500082E090E00E949114C0E0D0E0CE010E94A4
:1022600080082196C332D105C9F7109264511092AB
:1022700065511092AD4109C0C0E0D0E0CE010E948E
:102280000E082196C332D105C9F70E94B81086E620
:102290009EE00197F1F700000E94541A86E69EE046
:1022A0000197F1F700000E94541A0E94C40810928E
:1022B0001F5110920C5110920D51E1E1F1E5108285
:1022C0001182138212821092505110925751109223
:1022D00082514CE062E080E00E94D505DF91CF9111
:1022E00008953F924F925F926F927F928F929F924A
:1022F000AF92BF92CF92DF92EF92FF920F931F9314
:10230000CF93DF93C1E1D1E519824CE062E080E038
:102310000E94D5058881882309F4B3C011E00F2EEF
:10232000F0E5EF2EF1E5FF2EF02DC9E7D1E40F2EF9
:10233000FAE03F2EF02D0F2EFEE1BF2EF02D0F2ED6
:10234000FAE18F2EF02D0F2EF6EBAF2EF02D0EEDC5
:102350000F2EF1E1CF2EF1E5DF2EF02D0F2EFAED4D
:102360004F2EF02D0F2EFEE35F2EF02D0F2EFEEBE5
:102370006F2EF02D6894772471F80F2EF0E69F2EC3
:10238000F02DF7018181882389F08281813029F441
:10239000163018F41F5F128209C0F7018281833062
:1023A00029F4112309F470C0115012821B861A8679
:1023B0001986E12FF0E0ED5BFE4B80818887812F4D
:1023C00090E08730910508F057C0FC01E058FC4FC1
:1023D0000C94DC3C11E050C015E04EC08AEF8B83BA
:1023E00088E38A83B9828AE388831F82AE820D8361
:1023F000BC82F6018181882309F43EC00E94DF0877
:102400003BC08B820A83998298821F82AE820D83A1
:10241000BC82F6018181882379F10E94A0272CC01B
:102420006B827A8299828AE788831F82AE820D83CB
:10243000BC82F60181818823F9F00E94FA141CC045
:102440001B824A82598208831F82AE820D83BC821E
:10245000F6018181882381F00E94D9340DC01B824E
:102460003A82B98288821F82AE820D83BC82F601D5
:10247000818181110E942A2BA895F601808181110A
:1024800080CF0E94121106C01B861A8619868CEF17
:102490008887A2CFDF91CF911F910F91FF90EF908E
:1024A000DF90CF90BF90AF909F908F907F906F9074
:1024B0005F904F903F9008950E943F040E9428052E
:1024C00060E070E084E195E00E94FC3E81E0809352
:1024D0004F512FEF8FE392E0215080409040E1F781
:1024E00000C0000083E091E40E94973F8DE590E4F6
:1024F0000E94973F1F9286E08F931F9284E08F93F4
:1025000084E990E49F938F930E94833F8EEC90E444
:102510000E94973F85E091E49F938F938EE091E432
:102520009F938F938AE191E49F938F930E94833FBF
:102530008DE590E40E94973F83E091E40E94973FED
:1025400078940E94C408E4E2F4E08081877F80836D
:1025500080818B7F8083E9E7F1E4138287E68283C1
:102560008EE381831082EFEFFFEF2CE2E150F04029
:102570002040E1F700C00000A89585E080937151EC
:1025800010920C5110920D5110928E520E94D3064F
:102590008DB79EB70C968DBF9EBF0BE311E5C9E7C3
:1025A000D1E40F2EFDECFF2EF02DAEC00E94BA2A12
:1025B000F80186818F9D912D11249695969596957B
:1025C000E92FF0E0ED5BFE4B20812B83990F292F43
:1025D000220F220F920FE82FE91BF0E0ED5BFE4B7C
:1025E00080818A83F80185818F9D912D1124969594
:1025F00096959695E92FF0E0ED5BFE4B20812983BF
:10260000990F292F220F220F920FE82FE91BF0E0DC
:10261000ED5BFE4B80818883F80184818F9D912D35
:102620001124969596959695E92FF0E0ED5BFE4B7B
:1026300020812F83990F292F220F220F920FE82F2D
:10264000E91BF0E0ED5BFE4B80818E83F801828117
:102650008F9D912D1124969596959695E92FF0E0F2
:10266000ED5BFE4B20812D83990F292F220F220F26
:10267000920FE82FE91BF0E0ED5BFE4B80818C832D
:10268000F80181818F9D912D1124969596959695AF
:10269000E92FF0E0ED5BFE4B20812B87990F292F6E
:1026A000220F220F920FE82FE91BF0E0ED5BFE4BAB
:1026B00080818A87F80190819F9D812D11248695C4
:1026C00086958695E82FF0E0ED5BFE4B208129870B
:1026D000880F282F220F220F820FE92FE81BF0E02E
:1026E000ED5BFE4B8081888780918E52981761F058
:1026F00090938E528AE090E00E944204A8958091C7
:1027000071518150809371518091715181114ECFDF
:102710000E941211A895C0E5D1E501E111E5809173
:102720000C5190910D518836914020F08981882379
:1027300021F016C00E94370B16C00E94EC050E94C3
:10274000E90E0E941C102FEF8FE392E02150804091
:102750009040E1F700C00000A8958981882369F3C3
:1027600019820E941211F801808181110E94711159
:10277000F801828181110E9456090E94E90E0E948F
:102780001C10FFEF2FE382E0F15020408040E1F782
:1027900000C00000A895C3CFA895089510928900A5
:1027A00080E0089543E068ED80E690E00E94A62A6C
:1027B000E0E6F0E0838180FDFDCF80E00895E0E178
:1027C000F4E0808188608193E83184E0F807C9F7FC
:1027D000E0E3F4E0808188608193E83384E0F807E7
:1027E000C9F7E0E5F4E0808188608193E83584E012
:1027F000F807C9F7E0E7F4E0808188608193E83763
:1028000084E0F807C9F7E0E9F4E08081886081930B
:10281000E83984E0F807C9F7E0EBF4E080818860EC
:102820008193E83B84E0F807C9F7E0EDF4E08081AC
:1028300088608193E83D84E0F807C9F70895AB9874
:10284000A39AE3EBF4E08081877F808380818F7798
:1028500080838081887F8083AA98A29AE2EBF4E04B
:102860008081877F808380818F7780838081887F4C
:1028700080830E9474170895E0EEF5E082818B7FDB
:102880008283E0E4F4E080818160808380818D7FB9
:1028900080830E94772E0895E0EEF5E082818F7BA1
:1028A0008283E0E2F4E080818160808380818D7F9B
:1028B00080830E948D2E08950E94DF130E94D21300
:1028C0000E943C140E944C140E94692E0E946B2EA0
:1028D0000E94CE130E94CF2E0E941F1408958115CE
:1028E00022E0920710F08FEF91E0FC01FC5E808106
:1028F00008958F3F21E0920710F08EEF91E0FC01E8
:10290000FC5E8081918108958D3F21E0920710F057
:102910008CEF91E0FC01FC5E60817181828193818A
:1029200008951F93CF93DF939C01211582E0380710
:10293000B8F4E0E0F0E192819370E9F7162FE90135
:1029400043E16DE980E090E10E94A62ADC5E1883F5
:1029500040E06DE980E090E10E94A62A81E001C09C
:1029600080E0DF91CF911F910895CF92DF92EF9297
:10297000FF92CF93DF938F3F21E0920758F4EC0151
:102980006B010E9491146D2DCE0101960E9491144D
:1029900081E001C080E0DF91CF91FF90EF90DF9068
:1029A000CF900895FF920F931F93CF93DF938D3FA6
:1029B00021E09207C0F4172F062FF52E642FEC01AB
:1029C0000E9491146F2DCE0101960E949114602FE8
:1029D000CE0102960E949114612FCE0103960E94AF
:1029E000911481E001C080E0DF91CF911F910F91A0
:1029F000FF9008959F92AF92BF92CF92DF92EF9295
:102A0000FF920F931F93CF93DF934CE062E080E03F
:102A10000E94D50580911151882309F461C08091ED
:102A20001251882309F45CC0C9E7D1E40F2EFEEBF4
:102A30009F2EF02D6894AA24A1F80F2EF0E6BF2E49
:102A4000F02D0F2EFAE7CF2EF02D0F2EFDECDF2EFE
:102A5000F02D00E511E50F2EF1E1EF2EF1E5FF2E4F
:102A6000F02D9B82AA82B982C882209155512D9D5A
:102A7000812D1124869586958695E82FF0E0ED5BF3
:102A8000FE4B90819D83880F982F990F990F890F86
:102A9000E22FE81BF0E0ED5BFE4B80818C83F801B8
:102AA00081818823A1F08281813039F42C3328F48C
:102AB0002F5F2093555112820AC0F8018281833022
:102AC00031F4223020F021502093555112820E947F
:102AD000CC13F7018081882319F081818111C1CF46
:102AE0006091555181E090E00E949114DF91CF9167
:102AF0001F910F91FF90EF90DF90CF90BF90AF901C
:102B00009F900895E0E2F9E0848188608483858164
:102B100081608583E5E8F1E480818E7F8083138680
:102B20008EE00895E5E8F1E480818E7F808313864E
:102B300080E00895E5E8F1E4808188608083818108
:102B4000880F81608093270984E008950E949A1578
:102B500008950E949A150895E5E8F1E4808188605F
:102B600080838181880F8093270983E008950E94E4
:102B7000AC150895E0E2F9E084818B7F848384E0E2
:102B80000895E0E2F9E084818B7F848383E00895F7
:102B9000E0E2F9E084818460848388E00895E0E2E3
:102BA000F9E0848188608483858181608583E5E89C
:102BB000F1E480818E7F808382E083878EE00895B8
:102BC000CF93DF93E0E2F9E08581806C858380918B
:102BD000854183FF07C08091250984FF03C08FE0F2
:102BE00080938F418091250983FF03C080E180930A
:102BF0008F418091250982FF03C081E180938F413D
:102C0000C5E8D1E4EA85F0E0EE0FFF1FEA5FFF4B75
:102C10000190F081E02D09958A87DF91CF91089589
:102C200081E0089585E008956115710581F090E0D7
:102C3000FC01EE0FFF1FEF56FE4B60837183880F80
:102C4000991FFC01E356FE4B40835183089590E0A9
:102C5000FC01EE0FFF1FEF56FE4B20E136E1208313
:102C60003183880F991FFC01E356FE4B10821182BD
:102C70000895E0E2F9E0858188608583A5E8B1E404
:102C800082E01B968C931B971E96ED91FC911F97EB
:102C90005A968D919C915B970995823019F08330FB
:102CA00021F006C00E949A1508950E94AC1508955F
:102CB0000E9482150895E0E2F9E0848184608483B3
:102CC000848183608483E5E8F1E480818E7F808362
:102CD000138680E00895CF93DF93E5E8F1E48081E7
:102CE000877F808384819581019731F4E0E2F9E068
:102CF00084818460848305C0E0E2F9E084818B7F75
:102D00008483E5E8F1E48481958101978483958348
:102D1000892BA9F0DF01C281D381E0E2F9E080854F
:102D2000888312968D919C911397019612968D939C
:102D30009C93139784818260848384E026C0A5E8F5
:102D4000B1E41296ED91FC9113978091280980834C
:102D500012968D919C911397019612968D939C9348
:102D600013978C9184608C931C96ED91FC911D9728
:102D700058968D919C91599709958250823018F4FC
:102D80000E94C81502C00E945B16DF91CF91089582
:102D9000E0E2F9E0848183608483E5E8F1E4808106
:102DA0008E7F8083138680E00895A5E8B1E48C913E
:102DB000877F8C9382E01B968C931B975096ED91A6
:102DC000FC9151975C968D919C915D97099582300D
:102DD00019F0833021F006C00E949A1508950E94D0
:102DE000AC1508950E94C81608958091250984FFA6
:102DF00019C0A5E8B1E45296ED91FC9153975E9607
:102E00008D919C915F970995823019F0833021F064
:102E100006C00E949A1508950E94AC1508950E945C
:102E2000C8160895E5E8F1E48081877F8083A28158
:102E3000B381CD010196828393838C91809328097D
:102E400084819581019784839583892B11F485E092
:102E5000089583E008958091250984FF19C0A5E8AD
:102E6000B1E45296ED91FC9153975E968D919C91B1
:102E70005F970995823019F0833021F006C00E94D7
:102E80009A1508950E94AC1508950E94C8160895D9
:102E9000A5E8B1E48C9184608C931C96ED91FC9133
:102EA0001D9758968D919C9159970995833039F0CB
:102EB000843041F0823049F40E949A1508950E94AE
:102EC000AC1508950E94F51608950E94C81608953D
:102ED000AB01BC0180E00E9414160895AB01BC0157
:102EE00082E00E9414160895E0E2F9E084E486830B
:102EF00081EC838308959091854191FD36C0E5E88A
:102F0000F1E48183892F847F9EE0928724EF31E072
:102F10002087318782608460808380E196E18487A6
:102F20009587108E118E86879787128E138E808BD1
:102F3000918B148E158E828B938B168E178E82E159
:102F400096E1848B958B10A211A2E0E2F9E08481D6
:102F5000886084838581816085838581806C858399
:102F60008381806C838380E0089581E0089580915F
:102F7000250982FF07C0E5E8F1E480818E7F808328
:102F800082E083878091854180FD17C0E5E8F1E408
:102F90008D7F80838FEF8183A0E2B9E015968C91BD
:102FA0001597806C15968C93159713968C911397A3
:102FB0008F7313968C938385089581E008959C0107
:102FC0009091854192FF09C0E5E8F1E422833383C3
:102FD00064837583892F8B7F8083089590918541C9
:102FE00090FD11C0E5E8F1E491609083882321F021
:102FF00081E080938F4103C082E080938F410E94E3
:10300000E01580E0089581E0089580E00E94EE17C9
:1030100008951F920F920FB60F9211240BB60F92C4
:103020002F933F934F935F936F937F938F939F93D0
:10303000AF93BF93EF93FF930E94E015FF91EF9141
:10304000BF91AF919F918F917F916F915F914F91C0
:103050003F912F910F900BBE0F900FBE0F901F90BE
:10306000189561E070E00E94DF1760E070E080E09A
:1030700090E00E94681784E0089561E070E00E948B
:10308000DF1760E070E080E090E00E94681782E067
:103090000895FF920F931F93CF93DF9300D0CDB786
:1030A000DEB7F82E69834A8300E117E28F2D0E9474
:1030B0007B17813021F401501109C1F729C0012B80
:1030C00021F1BE016E5F7F4F81E398E10E94681796
:1030D00061E070E0CE0101960E94DF1760E070E0D1
:1030E0008DEC98E10E946E170E94051800E117E22E
:1030F0000E94B717813029F401501109C9F782E005
:1031000007C0012B21F080E003C081E001C082E014
:103110000F900F90DF91CF911F910F91FF90089525
:10312000EF92FF921F93CF93DF9300D0CDB7DEB71E
:10313000182F6A838AE289836894EE24E1F8F12CDF
:10314000812F0E947B178823D9F3BE016F5F7F4FC9
:103150008DE398E10E94681761E070E0CE0102966D
:103160000E94DF1760E070E08DEC98E10E946E171E
:103170000E9405180E94B7178130E1F3882321F0DF
:1031800081E0E81AF108E1F689810F900F90DF9154
:10319000CF911F91FF90EF90089583E008958F9253
:1031A0009F92AF92BF92EF92FF920F931F93CF9394
:1031B000DF93CFE1D1E569817A818B819C810F2EEC
:1031C000F0E18F2EF7E29F2EA12CB12CF02DA5015E
:1031D00094010E94BD3CE22E2093AA4169817A812C
:1031E0008B819C81A50194010E94BD3C0F2EF8EEBD
:1031F0008F2EF3E09F2EA12CB12CF02DA501940170
:103200000E94BD3CF22E2093815169817A818B818D
:103210009C81A50194010E94BD3C0F2EF4E68F2EE7
:10322000912CA12CB12CF02DA50194010E94BD3C44
:10323000022F2093735169817A818B819C81A50132
:1032400094010E94BD3C0F2EFAE08F2E912CA12CF0
:10325000B12CF02DA50194010E94BD3C122F2093AA
:103260004B5169817A818B819C81A50194010E94D7
:10327000BD3C6093695189819A81AB81BC81813168
:103280009742A105B10514F1A9E7B1E4EE2DF0E0F4
:10329000ED5BFE4B808113968C931397EF2DF0E03E
:1032A000ED5BFE4B808112968C931297E02FF0E03D
:1032B000ED5BFE4B80818F5F11968C931197E12F10
:1032C000F0E0ED5BFE4B80818C9358C080912051E3
:1032D00090912151A0912251B0912351893E934068
:1032E000A105B10514F1A9E7B1E4EF2DF0E0ED5B24
:1032F000FE4B808113968C931397E02FF0E0ED5BEB
:10330000FE4B80818F5F12968C931297E12FF0E035
:10331000ED5BFE4B808111968C931197E62FF0E0C8
:10332000ED5BFE4B80818C9329C080912051909160
:103330002151A0912251B0912351883E9340A10583
:10334000B105E4F4A9E7B1E413961C921397E02FBA
:10335000F0E0ED5BFE4B80818F5F12968C931297AD
:10336000E12FF0E0ED5BFE4B808111968C9311977D
:10337000E62FF0E0ED5BFE4B80818C93DF91CF91E7
:103380001F910F91FF90EF90BF90AF909F908F9003
:1033900008958F929F92AF92BF92CF92DF92EF9259
:1033A000FF92E4E4F4E080818B7F8083E8E4F4E042
:1033B000808183FFFDCF98E140E050E0BA01E4E472
:1033C000F4E0A8E4B4E080818460808322E62A955A
:1033D000F1F70000440F551F661F771F80818B7F18
:1033E000808382E68A95F1F700008C9183FD04C00A
:1033F0004F5F5F4F6F4F7F4F915029F7E4E4F4E048
:1034000080818460808392E69A95F1F70000808144
:103410008B7F80832FEF8FE794E021508040904096
:10342000E1F700C000006A017B0120E4E226809001
:10343000245190902551A0902651B0902751209171
:103440006D5130916E5140916F5150917051A0E18A
:10345000B7E20E94F43C860E971EA81EB91E8C147B
:103460009D04AE04BF0418F4C12CD12C76010E9437
:10347000B8108090305190903151A0903251B0905E
:103480003351C701B6010E948737A50194010E94FC
:10349000DD360E944F37FF90EF90DF90CF90BF90C6
:1034A000AF909F908F900895CF92DF92EF92FF920E
:1034B0000F931F930E94C9198B019C01EFE1F1E565
:1034C00085819681A781B085801B910BA20BB30BE0
:1034D000181619061A061B067CF445815681678169
:1034E00070856A017B01C81AD90AEA0AFB0AC582FB
:1034F000D682E782F086E4CFBB236CF44581568107
:1035000067817085840F951FA61FB71F85839683DB
:10351000A783B087D5CF892B8A2B8B2B89F68AE09E
:1035200090E00E9442040E94CC131F910F91FF90E3
:10353000EF90DF90CF9008958F929F92AF92BF92BD
:10354000CF92DF92EF92FF9280902451909025517C
:10355000A0902651B09027510E94C919161617063F
:10356000180619060CF080C0C0902451D090255147
:10357000E0902651F09027516C197D098E099F0922
:103580002AE030E040E050E00E94BD3CDA01C90191
:10359000880F991FAA1FBB1F6C017D01CC0CDD1C7D
:1035A000EE1CFF1CCC0CDD1CEE1CFF1CC80ED91E33
:1035B000EA1EFB1EFF20ACF020916D5130916E5140
:1035C00040916F515091705110923551A8EEB3E077
:1035D0000E94F43C6C157D058E059F0508F448C0DB
:1035E00020C0809135518F5F80933551863040F0F7
:1035F0000E94541A10923551C12CD12C76013EC034
:1036000085E0881A9108A108B1088092245190920F
:103610002551A0922651B0922751C12CD12C760170
:103620002DC01C141D041E041F0444F58091095173
:1036300090910A51092E000CAA0BBB0BC816D90693
:10364000EA06FB06DCF485E0880E911CA11CB11C87
:103650008092245190922551A0922651B0922751E8
:10366000C12CD12C76010AC0C12CD12C760106C008
:10367000809135518F5F80933551C2CFC701B6011C
:103680002AE030E040E050E00E94BD3CC901FF90DC
:10369000EF90DF90CF90BF90AF909F908F90089564
:1036A000DF92EF92FF920F931F93CF93DF931092CD
:1036B00081418AE090E00E9479149C018093095135
:1036C00090930A5160E177E20E94873C60930B512E
:1036D000E8EEF3E0BF010E94873C60937F51C9018F
:1036E000BF010E94873CE4E6F0E0BF010E94873CF6
:1036F00060930E51C901BF010E94873CEAE0F0E0EF
:10370000BF010E94873C6093EF50C901BF010E9436
:10371000873C80936A5180911151882309F428C114
:1037200001E111E5DD24D394C0E5D1E50F2EF9E7E1
:10373000EF2EF1E4FF2EF02DF801D3828881823044
:1037400009F477C028F4882361F08130E9F10AC1D7
:10375000843009F4D5C008F4A1C0853009F401C152
:1037600001C1E0916A51F0E0ED5BFE4B8081F70111
:10377000838780917D51882311F0178208C0E091E2
:103780000B51F0E0ED5BFE4B8081F701878389816F
:10379000882309F4E7C08A81813041F480910B517C
:1037A000811126C1D0920B511A82DCC08A818330EC
:1037B00009F0D8C080910B51882309F4D3C08150FF
:1037C00080930B511A82CEC0E0910B51F0E0ED5B7B
:1037D000FE4B8081F701878380917D51882311F012
:1037E000168209C0E0917F51F0E0ED5BFE4B8081D5
:1037F0008F5FF70186838981882309F4B3C08A81AA
:10380000813049F480917F51893028F48F5F809313
:103810007F511A82A7C08A81833009F0A3C08091AA
:103820007F51882309F49EC0815080937F511A8272
:1038300099C0E0917F51F0E0ED5BFE4B80818F5F9E
:10384000F701868380917D51882311F0158208C08D
:10385000E0910E51F0E0ED5BFE4B8081F701858336
:103860008981882309F47EC08A81813049F480915E
:103870000E51893028F48F5F80930E511A8272C0E6
:103880008A81833009F06EC080910E51882309F43B
:1038900069C0815080930E511A8264C0E0910E512C
:1038A000F0E0ED5BFE4B8081F701858380917D51D7
:1038B000882311F0148208C0E091EF50F0E0ED5B36
:1038C000FE4B8081F70184838981882309F44AC0F3
:1038D0008A81813049F48091EF50893028F48F5FDC
:1038E0008093EF501A823EC08A818330D9F580914F
:1038F000EF508823B9F181508093EF501A8232C083
:10390000E091EF50F0E0ED5BFE4B8081F7018483A6
:1039100080917D51882311F0138608C0E0916A518F
:10392000F0E0ED5BFE4B8081F7018387898188237E
:10393000C9F08A81813049F480916A51893028F434
:103940008F5F80936A511A820DC08A81833051F44F
:1039500080916A51882331F0815080936A511A8294
:1039600001C018820E94CC13F80180818111E4CE3D
:1039700020910B5180E197E2289FB001299F700DA3
:10398000112440917F5128EE33E0429FC001439FB4
:10399000900D1124680F791F80910E51F4E68F9FCE
:1039A000600D711D11248091EF5090E09C01220F59
:1039B000331F880F991F880F991F880F991F820F37
:1039C000931F680F791F80916A51680F711D609372
:1039D000095170930A518AE090E00E94B514E1E128
:1039E000F1E581E08083118213821092505105C06D
:1039F0009A81933009F0B6CFE2CEDF91CF911F913B
:103A00000F91FF90EF90DF9008952F923F924F9289
:103A10005F926F927F928F929F92AF92BF92CF925E
:103A2000DF92EF92FF920F931F93CF93DF93CDB767
:103A3000DEB72597CDBFDEBF109281418CE090E0CC
:103A40000E9484141B012C0160931651309217516F
:103A5000409218515092195110921A5110921B51C4
:103A600010921C5110921D516894AA24A4F80F2E94
:103A7000F7E2BF2EF02DC12CD12CE12CF12C00E06F
:103A800010E0262F332D442D552D60E070E080E0AE
:103A900090E00E945A3D20935C5130935D514093D9
:103AA0005E5150935F516093605170936151809368
:103AB000625190936351222D332D442D552D60E09A
:103AC00070E080E090E00E94583D0F2EF8EEAF2E9F
:103AD000F02D0F2EF3E0BF2EF02D0E945A3D2093C3
:103AE0008652309387524093885250938952609304
:103AF0008A5270938B5280938C5290938D52222DC8
:103B0000332D442D552D60E070E080E090E00E9460
:103B1000583D0F2EF4E6AF2EF02DB12C0E945A3DE9
:103B2000209375513093765140937751509378514B
:103B30006093795170937A5180937B5190937C512B
:103B4000222D332D442D552D60E070E080E090E073
:103B50000E94583D0F2EFAE0AF2EF02D0E945A3DE4
:103B600020934351309344514093455150934651D3
:103B700060934751709348518093495190934A51B3
:103B8000222D332D442D552D60E070E080E090E033
:103B90000E94583D20938351309384514093855126
:103BA00050938651609387517093885180938951C7
:103BB00090938A5180911151882309F4F2C201E156
:103BC00011E5CC24C394DC2C0F2EF9E7EF2EF1E4A1
:103BD000FF2EF02D0F2EF3E48F2EF1E59F2EF02D0A
:103BE0000F2EF3E8AF2EF1E5BF2EF02DD80113967E
:103BF000DC92E0E5F1E58081823009F42AC130F4FD
:103C0000882369F0813009F497C0C5C2843009F473
:103C100037C208F4AAC1853009F4BAC2BCC2D501C2
:103C2000ED91FC91ED5BFE4B8081F70183878091E4
:103C30007D51882311F017820AC0ACE5B1E5ED9102
:103C4000FC91ED5BFE4B80818F5FF7018783809154
:103C50005151882309F49FC280915251813099F5C6
:103C600030905C5140905D5150905E5160905F513A
:103C700070906051B0916151F0916251E091635147
:103C8000232D342D452D562D672D7B2F8F2F9E2FC5
:103C9000A7E00E94EE3D09F0B0F4AC2D0E94D93DA2
:103CA00020935C5130935D5140935E5150935F512E
:103CB000609360517093615180936251909363510E
:103CC0001092525168C280915251833009F063C200
:103CD00030905C5140905D5150905E5160905F51CA
:103CE00070906051B0916151F0916251E0916351D7
:103CF000232D342D452D562D672D7B2F8F2F9E2F55
:103D0000AC2D0E94EE3D09F008F445C2AFEF0E94D1
:103D1000D93D20935C5130935D5140935E51509357
:103D20005F516093605170936151809362519093A1
:103D30006351109252512FC2ACE5B1E5ED91FC9167
:103D4000ED5BFE4B80818F5FF701878380917D5112
:103D5000882311F0168209C0A6E8B2E5ED91FC9126
:103D6000ED5BFE4B8081F701868380915151882362
:103D700009F411C280915251813099F530908652E8
:103D800040908752509088526090895270908A5229
:103D9000B0918B52F0918C52E0918D52232D342DA5
:103DA000452D562D672D7B2F8F2F9E2FA8E00E942B
:103DB000EE3D09F0B0F4AC2D0E94D93D209386521F
:103DC00030938752409388525093895260938A521D
:103DD00070938B5280938C5290938D5210925251CB
:103DE000DAC180915251833009F0D5C130908652AA
:103DF00040908752509088526090895270908A52B9
:103E0000B0918B52F0918C52E0918D52232D342D34
:103E1000452D562D672D7B2F8F2F9E2FA0E00E94C2
:103E2000EE3D09F4B8C1AFEF0E94D93D2093865210
:103E300030938752409388525093895260938A52AC
:103E400070938B5280938C5290938D52109252515A
:103E5000A2C1A6E8B2E5ED91FC91ED5BFE4B80813D
:103E6000F701868380917D51882311F0158209C066
:103E7000A5E7B1E5ED91FC91ED5BFE4B8081F7018B
:103E8000858380915151882309F485C180915251D5
:103E9000813099F53090755140907651509077511E
:103EA0006090785170907951B0917A51F0917B5136
:103EB000E0917C51232D342D452D562D672D7B2FE0
:103EC0008F2F9E2FA8E00E94EE3D09F0B0F4AC2D9C
:103ED0000E94D93D2093755130937651409377518C
:103EE000509378516093795170937A5180937B51BC
:103EF00090937C51109252514EC180915251833017
:103F000009F049C1309075514090765150907751E9
:103F10006090785170907951B0917A51F0917B51C5
:103F2000E0917C51232D342D452D562D672D7B2F6F
:103F30008F2F9E2FA0E00E94EE3D09F42CC1AFEF21
:103F40000E94D93D2093755130937651409377511B
:103F5000509378516093795170937A5180937B514B
:103F600090937C511092525116C1A5E7B1E5ED91A5
:103F7000FC91ED5BFE4B8081F701858380917D5143
:103F8000882311F0148208C0D401ED91FC91ED5BFF
:103F9000FE4B8081F701848380915151882309F47D
:103FA000FAC080915251813099F530904351409040
:103FB0004451509045516090465170904751B09196
:103FC0004851F0914951E0914A51232D342D452D0E
:103FD000562D672D7B2F8F2F9E2FA8E00E94EE3D40
:103FE00009F0B0F4AC2D0E94D93D20934351309399
:103FF00044514093455150934651609347517093BB
:1040000048518093495190934A5110925251C3C0E4
:1040100080915251833009F0BEC03090435140909E
:104020004451509045516090465170904751B09125
:104030004851F0914951E0914A51232D342D452D9D
:10404000562D672D7B2F8F2F9E2FA0E00E94EE3DD7
:1040500009F4A1C0AFEF0E94D93D209343513093A2
:10406000445140934551509346516093475170934A
:1040700048518093495190934A51109252518BC0AC
:10408000D401ED91FC91ED5BFE4B8081F7018483BF
:1040900080917D51882311F0138608C0D501ED91E0
:1040A000FC91ED5BFE4B8081F7018387809151513C
:1040B000882309F470C080915251813099F5309075
:1040C00083514090845150908551609086517090FA
:1040D0008751B0918851F0918951E0918A51232DF7
:1040E000342D452D562D672D7B2F8F2F9E2FA8E029
:1040F0000E94EE3D09F0B0F4AC2D0E94D93D209312
:1041000083513093845140938551509386516093ED
:104110008751709388518093895190938A5110925E
:10412000525139C0809152518330A9F5309083515A
:104130004090845150908551609086517090875185
:10414000B0918851F0918951E0918A51232D342DFD
:10415000452D562D672D7B2F8F2F9E2FA0E00E947F
:10416000EE3DC9F0AFEF0E94D93D209383513093CB
:104170008451409385515093865160938751709339
:1041800088518093895190938A511092525103C063
:10419000A0E5B1E51C920E94CC13F8018081811149
:1041A00025CD6894AA24A4F80F2EF7E2BF2EF02D97
:1041B000C12CD12CE12CF12C00E010E020915C51BD
:1041C00030915D5140915E5150915F5160916051CD
:1041D0007091615180916251909163510E94FF3CB6
:1041E000622E732E842E952E6D8379838A839B8312
:1041F000E091865250908752409088523090895278
:1042000020908A52F0918B52FC83B0918C52A091F5
:104210008D522E2F352D442D532D622D7F2F8B2F18
:104220009A2F02E00E94B73DA22EB32EC42ED52EA7
:10423000E62EF72EF82F192F05E00E94B73D0F2F1D
:104240000E94E53DAE2EB52CC42CD32CE22CFC8074
:104250000B2F1A2F0E94D03D03E00E94B73DA22EE3
:10426000B32EC42ED52EE62EF72E082F192F262D6D
:10427000372D482D592D6D8179818A819B810E942E
:10428000D03DA0908351B0908451C0908551D09082
:104290008651E0908751F09088510091895110919A
:1042A0008A510E94D03D222E332E442E552E662E4A
:1042B000772E89839A832091755130917651409160
:1042C0007751509178516091795170917A518091E4
:1042D0007B5190917C5102E00E94B73D822E932E3B
:1042E0004C835B83B62FA72FF82FE92F0E94B73D91
:1042F000A22EB32EC42ED52EE62EF72E082F192F60
:10430000282D392D4C815B816B2F7A2F8F2F9E2F7B
:104310000E94D03D822E932E4C835B83B62FA72F15
:10432000F82FE92F02E00E94B73DA22EB32EC42E33
:10433000D52EE62EF72E082F192F282D392D4C813A
:104340005B816B2F7A2F8F2F9E2F0E94D03DA22E44
:10435000B32EC42ED52EE62EF72E082F192F222D80
:10436000332D442D552D662D772D89819A810E94FC
:10437000D03D222E332E442E552E662E772E898345
:104380009A8320914351309144514091455150912D
:104390004651609147517091485180914951909197
:1043A0004A5101E00E94B73D822E932E4C835B83DD
:1043B000B62FA72FF82FE92F02E00E94B73DA22EBB
:1043C000B32EC42ED52EE62EF72E082F192F282D0A
:1043D000392D4C815B816B2F7A2F8F2F9E2F0E945E
:1043E000D03DA22EB32EC42ED52EE62EF72E082FAA
:1043F000192F222D332D442D552D662D772D898192
:104400009A810E94D03D20931651309317514093CA
:1044100018515093195160931A5170931B51809306
:104420001C5190931D51642F752F422F532F8CE0F8
:1044300090E00E94D214E1E1F1E581E080831182F5
:104440001382109250512596CDBFDEBFDF91CF91E0
:104450001F910F91FF90EF90DF90CF90BF90AF90A2
:104460009F908F907F906F905F904F903F902F9094
:1044700008952F923F924F925F926F927F928F9208
:104480009F92AF92BF92CF92DF92EF92FF920F93E3
:104490001F93CF93DF93CDB7DEB76097CDBFDEBF5D
:1044A0008CE090E00E9484141B012C016093165153
:1044B00030921751409218515092195110921A513E
:1044C00010921B5110921C5110921D516894AA24F5
:1044D000A4F80F2EF7E2BF2EF02DC12CD12CE12C29
:1044E000F12C00E010E0262F332D442D552D60E0F7
:1044F00070E080E090E00E945A3D20935C51309340
:104500005D5140935E5150935F5160936051709341
:1045100061518093625190936351222D332D442D2C
:10452000552D60E070E080E090E00E94583D0F2E35
:10453000F8EEAF2EF02D0F2EF3E0BF2EF02D0E94DF
:104540005A3D20938652309387524093885250931D
:10455000895260938A5270938B5280938C529093BD
:104560008D52222D332D442D552D60E070E080E0DA
:1045700090E00E94583D0F2EF4E6AF2EF02DB12CA6
:104580000E945A3D20937551309376514093775154
:10459000509378516093795170937A5180937B5105
:1045A00090937C51222D332D442D552D60E070E0E9
:1045B00080E090E00E94583D0F2EFAE0AF2EF02DE3
:1045C0000E945A3D209343513093445140934551AA
:1045D000509346516093475170934851809349518D
:1045E00090934A51222D332D442D552D60E070E0DB
:1045F00080E090E00E94583D209383513093845195
:1046000040938551509386516093875170938851A0
:104610008093895190938A5180911151882309F494
:10462000C0C180911251882309F4BBC11092375147
:104630001092385110923551E0902851F090295144
:1046400000912A5110912B51ED86FE860F87188B11
:104650002091165130911751409118515091195194
:1046600060911A5170911B5180911C5190911D5174
:104670000E94C237609358517093595180935A5198
:1046800090935B5101E30A95F1F700000E94B81086
:1046900011E31A95F1F700000E949C1A2C01612C7D
:1046A000712C80915151882309F401C1809152519C
:1046B000813031F5209116513091175140911851A8
:1046C0005091195160911A5170911B5180911C5158
:1046D00090911D51AAE00E94D93D2093165130932C
:1046E0001751409318515093195160931A51709378
:1046F0001B5180931C5190931D511092525129C00F
:1047000080915251833029F52091165130911751E3
:10471000409118515091195160911A5170911B514B
:1047200080911C5190911D51A6EF0E94D93D20937C
:10473000165130931751409318515093195160936B
:104740001A5170931B5180931C5190931D511092DC
:1047500052512090165130901751209118512987AD
:10476000809119518A8790911A519B87A0911B5172
:10477000AC8780901C5190901D516894AA24A4F895
:104780000F2EF7E2BF2EF02DC12CD12CE12CF12CF5
:1047900000E010E0222D332D4985582F692F7A2F04
:1047A000882D992D0E945A3D29833A834B835C833F
:1047B0006D837E838F839887E981FA81ED5BFE4B61
:1047C000808180938041222D332D49855A856B85C8
:1047D0007C85882D992D0E94583D0F2EF8EEAF2E26
:1047E000F02D0F2EF3E0BF2EF02D0E945A3D2983AD
:1047F0003A834B835C836D837E838F839887E981C3
:10480000FA81ED5BFE4B808180937F41222D332D19
:1048100049855A856B857C85882D992D0E94583D48
:104820000F2EF4E6AF2EF02DB12C0E945A3D2983B5
:104830003A834B835C836D837E838F839887E98182
:10484000FA81ED5BFE4B808180937E41222D332DDA
:1048500049855A856B857C85882D992D0E94583D08
:104860000F2EFAE0AF2EF02D0E945A3D29833A8395
:104870004B835C836D837E838F839887E981FA8184
:10488000ED5BFE4B808180937D41222D332D498548
:104890005A856B857C85882D992D0E94583D822EE6
:1048A000932EF401ED5BFE4B808180938441411493
:1048B00051046104710409F445C04D855E856F851E
:1048C000788921E0D301C2010596A11DB11D84178D
:1048D0009507A607B70708F420E02223E1F021E0BE
:1048E000D301C2010597A109B109481759076A0701
:1048F0007B0708F420E0222371F0ED84FE840F850D
:104900001889E0922051F092215100932251109386
:104910002351109272518D859E85AF85B889840D83
:10492000951DA61DB71DB695A7959795879580935C
:10493000285190932951A0932A51B0932B510E9452
:10494000CF181BC0809172518F5F80937251863057
:10495000A0F0109228511092295110922A511092D1
:104960002B511092205110922151109222511092ED
:104970002351109272510E94CF180FEF1FE322E0D3
:10498000015010402040E1F700C000000E94CC130D
:10499000A1E1B1E58C91882321F080911251811120
:1049A00045CE409116515091175160911851709118
:1049B00019518CE090E00E94D2146096CDBFDEBF0A
:1049C000DF91CF911F910F91FF90EF90DF90CF90EB
:1049D000BF90AF909F908F907F906F905F904F901F
:1049E0003F902F9008958F929F92AF92BF92CF9257
:1049F000DF92EF92FF920F931F93CF93DF9310926A
:104A0000814188E090E00E9479146C01E12CF12C46
:104A1000C0926D51D0926E51E0926F51F0927051F0
:104A2000C701B60128EE33E040E050E00E949B3C15
:104A30002093A9410F2EF4E68F2E912CA12CB12C9E
:104A4000F02DA50194010E949B3C20936651C70163
:104A5000B601A50194010E949B3C0F2EFAE08F2E17
:104A6000912CA12CB12CF02DA50194010E949B3C0E
:104A700020936C51C701B601A50194010E949B3C93
:104A80006093345180911151882309F4F0C001E101
:104A900011E5DD24D394C0E5D1E50F2EF9E7EF2E23
:104AA000F1E4FF2EF02DF801D3828881823009F4E1
:104AB00074C028F4882351F08130D9F1D2C08330FA
:104AC00009F49DC0843009F4CBC0CBC0E0913451CF
:104AD000F0E0ED5BFE4B8081F701848380917D5196
:104AE000882311F0178208C0E091A941F0E0ED5B46
:104AF000FE4B8081F70187838981882309F4B1C047
:104B00008A81813041F48091A941811102C1D09202
:104B1000A9411A82A6C08A81833009F0A2C080917F
:104B2000A941882309F49DC081508093A9411A822C
:104B300098C0E091A941F0E0ED5BFE4B8081F70168
:104B4000878380917D51882311F0168208C0E091FF
:104B50006651F0E0ED5BFE4B8081F7018683898131
:104B6000882309F47EC08A81813049F4809166519E
:104B7000893028F48F5F809366511A8272C08A81CF
:104B8000833009F06EC080916651882309F469C0B2
:104B90008150809366511A8264C0E0916651F0E0C2
:104BA000ED5BFE4B8081F701868380917D518823E8
:104BB00011F0158208C0E0916C51F0E0ED5BFE4B06
:104BC0008081F70185838981882309F44AC08A811D
:104BD000813049F480916C51893028F48F5F809343
:104BE0006C511A823EC08A818330D9F580916C5114
:104BF0008823B9F1815080936C511A8232C0E091C0
:104C00006C51F0E0ED5BFE4B8081F7018583809174
:104C10007D51882311F0148208C0E0913451F0E0F6
:104C2000ED5BFE4B8081F701848389818823C9F085
:104C30008A81813049F480913451893028F48F5F22
:104C4000809334511A820DC08A81833051F480914F
:104C50003451882331F08150809334511A8201C03D
:104C600018820E94CC13F801808181111CCF209101
:104C7000A94188EE93E0289FA001299F500D11249F
:104C8000052E000C660B770B80916651F4E68F9F22
:104C9000C0011124092E000CAA0BBB0B840F951F19
:104CA000A61FB71F20913451AC01BD01420F511D09
:104CB000611D711D20916C5130E0C901880F991F51
:104CC000220F331F220F331F220F331F820F931F18
:104CD000092E000CAA0BBB0B8A019B01080F191FA0
:104CE0002A1F3B1FC901B80100936D5110936E51EB
:104CF00020936F513093705188E090E00E94B5147A
:104D0000E1E1F1E581E0808311821382109250513C
:104D100005C09A81933009F0A4CF06CFDF91CF91DF
:104D20001F910F91FF90EF90DF90CF90BF90AF90C9
:104D30009F908F900895AF92BF92CF92DF92EF92A3
:104D4000FF920F931F93CF93DF934CE062E080E0DC
:104D50000E94D50580911151882309F460C080918B
:104D60001251882309F45BC0C9E7D1E40F2EFAE1A0
:104D7000AF2EF02D0F2EFAE2BF2EF02D0F2EFEE1FA
:104D8000CF2EF02D0F2EFDECDF2EF02D00E511E5DE
:104D90000F2EF1E1EF2EF1E5FF2EF02D1F82AA82FA
:104DA000B982C8821E82209180512D9D812D1124AF
:104DB000869586958695E82FF0E0ED5BFE4B908119
:104DC0009D83880F982F990F990F890FE22FE81B69
:104DD000F0E0ED5BFE4B80818C831886F8018181C9
:104DE0008823A1F08281813039F4243028F4220F05
:104DF0002093805112820AC0F8018281833031F4FD
:104E0000223020F026952093805112820E94CC13EC
:104E1000F7018081882319F081818111BFCF6091D2
:104E2000805184E090E00E949114DF91CF911F9116
:104E30000F91FF90EF90DF90CF90BF90AF900895CB
:104E4000BF92CF92DF92EF92FF920F931F93CF9377
:104E5000DF934CE062E080E00E94D5058091115123
:104E6000882309F45DC080911251882309F458C049
:104E7000C9E7D1E40F2EF0E6BF2EF02D0F2EFAE792
:104E8000CF2EF02D0F2EFDECDF2EF02D00E511E5DD
:104E90000F2EF1E1EF2EF1E5FF2EF02D1B82BA82ED
:104EA000C98218821F821E822091EA502D9D812D79
:104EB0001124869586958695E82FF0E0ED5BFE4BF4
:104EC00090819D83880F982F990F990F890FE22F5A
:104ED000E81BF0E0ED5BFE4B80818C831886F801C7
:104EE00081818823A1F08281813039F42C3328F428
:104EF0002F5F2093EA5012820AC0F801828183302A
:104F000031F4222321F021502093EA5012820E9492
:104F1000CC13F7018081882319F081818111BECFE4
:104F20006091EA5083E090E00E949114DF91CF916C
:104F30001F910F91FF90EF90DF90CF90BF90089559
:104F40002F923F924F925F926F927F928F929F9299
:104F5000AF92BF92CF92DF92EF92FF920F931F9387
:104F6000CF93DF93109212514CE062E080E00E94F8
:104F7000D50583E090E00E946F148093EA5084E0AE
:104F800090E00E946F148093805188E090E00E942E
:104F90007914A0E0B0E080936D5190936E51A0938E
:104FA0006F51B09370518CE090E00E948414DC014A
:104FB000CB018093165190931751A0931851B09341
:104FC000195110921A5110921B5110921C511092AB
:104FD0001D518AE090E00E947914EC018093095100
:104FE00090930A51C0906D51D0906E51E0906F51E6
:104FF000F0907051C701B60128EE33E040E050E078
:105000000E949B3C2093A9410F2EF4E68F2E912CF9
:10501000A12CB12CF02DA50194010E949B3C209362
:105020006651C701B601A50194010E949B3C0F2E59
:10503000FAE08F2E912CA12CB12CF02DA50194011A
:105040000E949B3C20936C51C701B601A5019401BD
:105050000E949B3C60933451209016513090175120
:10506000409018515090195160901A5170901B51F6
:1050700080901C5190901D516894AA24A4F80F2E82
:10508000F7E2BF2EF02DC12CD12CE12CF12C00E049
:1050900010E0222D332D442D552D662D772D882D92
:1050A000992D0E945A3D20935C5130935D5140935D
:1050B0005E5150935F516093605170936151809342
:1050C000625190936351222D332D442D552D662D21
:1050D000772D882D992D0E94583D0F2EF8EEAF2E7A
:1050E000F02D0F2EF3E0BF2EF02D0E945A3D20939D
:1050F00086523093875240938852509389526093DE
:105100008A5270938B5280938C5290938D52222DA1
:10511000332D442D552D662D772D882D992D0E94E8
:10512000583D0F2EF4E6AF2EF02DB12C0E945A3DC3
:105130002093755130937651409377515093785125
:105140006093795170937A5180937B5190937C5105
:10515000222D332D442D552D662D772D882D992DFB
:105160000E94583D0F2EFAE0AF2EF02D0E945A3DBE
:1051700020934351309344514093455150934651AD
:1051800060934751709348518093495190934A518D
:10519000222D332D442D552D662D772D882D992DBB
:1051A0000E94583D20938351309384514093855100
:1051B00050938651609387517093885180938951A1
:1051C00090938A51CE0160E177E20E94873C609320
:1051D0000B5128EE33E0B9010E94873C60937F5168
:1051E000CE01B9010E94873C24E630E0B9010E945B
:1051F000873C60930E51CE01B9010E94873C2AE0A2
:1052000030E0B9010E94873C6093EF50CE01B901B4
:105210000E94873C80936A51A1E1B1E58C9188237B
:1052200009F481C13324339400E511E5C9E7D1E4E1
:105230000F2EFAE1CF2EF02D0F2EFAEF2F2EF02D9C
:105240000F2EF0E6DF2EF02D0F2EFCE58F2EF1E570
:105250009F2EF02D0F2EF6E8AF2EF2E5BF2EF02D8B
:105260000F2EF3E46F2EF1E57F2EF02D0F2EF3E8D5
:105270004F2EF1E55F2EF02D7D01F801818188230D
:10528000A1F08281813041F4F6E0F31528F03394E7
:10529000D80112961C9209C0F8018281833029F44A
:1052A000332009F43BC13A941282E32DF0E0ED5B28
:1052B000FE4B80818887832D90E08830910508F02F
:1052C00026C1FC01E957FC4F0C94DC3C3324339499
:1052D0001EC10F2EF6E03F2EF02D19C11B821A823F
:1052E000D9828AE788831F821E829091EA508DECD2
:1052F000989F812D1124869586958695E82FF0E05C
:10530000ED5BFE4B20812D83880F282F220F220F6B
:10531000820F981BE92FF0E0ED5BFE4B80818C83C0
:105320001B86D70111968C91882309F4F0C00E9446
:105330002027EDC01B82CA828AE289838EE188839E
:105340001F821E82909180518DEC989F812D112497
:10535000869586958695E82FF0E0ED5BFE4B2081E3
:105360002D83880F282F220F220F820F981BE92FE1
:10537000F0E0ED5BFE4B80818C831B86F701818121
:10538000882309F4C4C00E949B26C1C08CE98B838A
:105390002A828EEC89832882E091A941F0E0ED5BBE
:1053A000FE4B80818F83E0916651F0E0ED5BFE4B18
:1053B00080818E83E0916C51F0E0ED5BFE4B80814B
:1053C0008D83E0913451F0E0ED5BFE4B80818C8366
:1053D0001B86D70111968C91882309F498C00E94EE
:1053E000F32495C01B821A828AE089838AE388832A
:1053F000D401ED91FC91ED5BFE4B80818F5F8F833B
:10540000D501ED91FC91ED5BFE4B80818E83A5E78C
:10541000B1E5ED91FC91ED5BFE4B80818D83D30175
:10542000ED91FC91ED5BFE4B80818C83D201ED917F
:10543000FC91ED5BFE4B80818B87F7018181882396
:1054400009F465C00E94051D62C0DB828CEE8A8370
:1054500082E08983F6EBF883E0910B51F0E0ED5B9D
:10546000FE4B80818F83E0917F51F0E0ED5BFE4B3E
:1054700080818F5F8E83E0910E51F0E0ED5BFE4BFB
:1054800080818D83E091EF50F0E0ED5BFE4B8081F9
:105490008C83E0916A51F0E0ED5BFE4B80818B875D
:1054A000D70111968C91882391F10E94501B2FC037
:1054B000B6EBBB83CA822982D882D401ED91FC91DC
:1054C000ED5BFE4B80818F5F8F83D501ED91FC9169
:1054D000ED5BFE4B80818E83A5E7B1E5ED91FC91FC
:1054E000ED5BFE4B80818D83D301ED91FC91ED5BF3
:1054F000FE4B80818C83D201ED91FC91ED5BFE4BE4
:1055000080818B87F701818181110E9439220E945D
:10551000CC13D7018C918111B0CE05C0E3E4F1E446
:1055200080818887D6CEDF91CF911F910F91FF9018
:10553000EF90DF90CF90BF90AF909F908F907F9033
:105540006F905F904F903F902F9008951BBEFC018D
:1055500064BF40830895682F88E60E949018982FB2
:1055600092959F70990F292F220F220F920F8F7003
:10557000890F0895CF93DF9386E00E94AB2ACBE397
:10558000D1E58E8385E00E94AB2A8D8384E00E9462
:10559000AB2A8C8383E00E94AB2A8B8382E00E943B
:1055A000AB2A8A8381E00E94AB2A898380E00E9433
:1055B000AB2A8883DF91CF9108959DEC699F912D4F
:1055C000112496959695969520E1929FA00111241D
:1055D000990F292F220F220F920F691B6F70462BF4
:1055E000682F88E60E9449180895962F482F50E0AA
:1055F00047305105E0F4FA01E157FC4F0C94DC3CD4
:105600009C33B8F423C09C33B0F420C09831A8F484
:105610001DC02FEF290F273090F418C0903288F466
:1056200015C09D3080F412C0911110C00EC090E0E2
:105630000DC090E00BC090E009C090E007C091E081
:1056400005C091E003C091E001C095E1692F0E947F
:10565000DD2A0895AF92BF92CF92DF92EF92FF9230
:105660000F931F93CF93DF93C1E1D1E519824CE0F3
:1056700062E080E00E94D5050E94BA2A2BE331E562
:10568000D90116966C91E9E7F1E48DEC689F912DB4
:105690001124969596959695492F50E04D5B5E4B5B
:1056A000DA014C914383990F492F440F440F940F13
:1056B000A62FA91BB0E0AD5BBE4B9C919283D90194
:1056C00015966C91689F912D1124969596959695B7
:1056D000492F50E04D5B5E4BDA014C914183990FAD
:1056E000492F440F440F940FA62FA91BB0E0AD5BC8
:1056F000BE4B9C919083D90114966C91689F912D1B
:105700001124969596959695492F50E04D5B5E4BEA
:10571000DA014C914783990F492F440F440F940F9E
:10572000A62FA91BB0E0AD5BBE4B9C919683D9011F
:1057300012966C91689F912D112496959695969549
:10574000492F50E04D5B5E4BDA014C914583990F38
:10575000492F440F440F940FA62FA91BB0E0AD5B57
:10576000BE4B9C919483D90111966C91689F912DA9
:105770001124969596959695492F50E04D5B5E4B7A
:10578000DA014C914387990F492F440F440F940F2E
:10579000A62FA91BB0E0AD5BBE4B9C919287D901AF
:1057A0004C91489F812D1124869586958695282FAA
:1057B00030E02D5B3E4BD9019C919187880F982F4B
:1057C000990F990F890FA42FA81BB0E0AD5BBE4BBA
:1057D0008C9180878881882309F456C27E01AA248F
:1057E000A39400E511E50F2EFBE3CF2EF1E5DF2EAC
:1057F000F02DEF010F2EFDECBF2EF02DF701A3824F
:10580000D801EC918E2F90E08730910508F036C2D8
:10581000FC01EA56FC4F0C94DC3CD601EC91EB9D6C
:10582000812D1124869586958695A82FB0E0AD5BD5
:10583000BE4B9C919987880F982F990F990F890FCC
:10584000E81BF0E0ED5BFE4B8081888780917D5105
:10585000882319F01B821A821AC0D6011696EC9181
:10586000EB9D812D1124869586958695A82FB0E015
:10587000AD5BBE4B9C919B83880F982F990F990F1E
:10588000890FE81BF0E0ED5BFE4B80818A83F80115
:105890008181882309F4F2C18281813059F4D601D3
:1058A00016968C911697833628F48F5F16968C93F4
:1058B0001282E4C1F8018281833009F0DFC1D60190
:1058C00016968C911697882309F4D8C181501696A4
:1058D0008C931282D3C1D6011696EC91EB9D812D4B
:1058E0001124869586958695A82FB0E0AD5BBE4BBA
:1058F0009C919B83880F982F990F990F890FE81B14
:10590000F0E0ED5BFE4B80818A8380917D5188239E
:1059100019F0198218821AC0D6011596EC91EB9DE8
:10592000812D1124869586958695A82FB0E0AD5BD4
:10593000BE4B9C919983880F982F990F990F890FCF
:10594000E81BF0E0ED5BFE4B80818883F8018181EC
:10595000882309F493C18281813059F4D6011596C8
:105960008C9115978C3028F48F5F15968C9312824A
:1059700085C1F8018281833009F080C1D601159676
:105980008C911597823008F479C1815015968C93CB
:10599000128274C1D6011596EC91EB9D812D1124D4
:1059A000869586958695A82FB0E0AD5BBE4B9C9101
:1059B0009983880F982F990F990F890FE81BF0E0B2
:1059C000ED5BFE4B8081888380917D51882319F0A7
:1059D0001F821E821AC0D6011496EC91EB9D812D78
:1059E0001124869586958695A82FB0E0AD5BBE4BB9
:1059F0009C919F83880F982F990F990F890FE81B0F
:105A0000F0E0ED5BFE4B80818E83F801818188237D
:105A100009F434C18281813059F4D60114968C91F5
:105A200014978F3128F48F5F14968C93128226C1BD
:105A3000F8018281833009F021C1D60114968C913E
:105A40001497823008F41AC1815014968C931282F4
:105A500015C1D6011496EC91EB9D812D11248695EC
:105A600086958695A82FB0E0AD5BBE4B9C919F8339
:105A7000880F982F990F990F890FE81BF0E0ED5BC5
:105A8000FE4B80818E8380917D51882319F01D8289
:105A90001C821AC0D6011296EC91EB9D812D112427
:105AA000869586958695A82FB0E0AD5BBE4B9C9100
:105AB0009D83880F982F990F990F890FE81BF0E0AD
:105AC000ED5BFE4B80818C83F8018181882309F492
:105AD000D5C08281813059F4D60112968C911297EB
:105AE000873128F48F5F12968C931282C7C0F80119
:105AF0008281833009F0C2C0D60112968C91129730
:105B0000882309F4BBC0815012968C931282B6C0D0
:105B1000D6011296EC91EB9D812D112486958695E8
:105B20008695A82FB0E0AD5BBE4B9C919D83880FFE
:105B3000982F990F990F890FE81BF0E0ED5BFE4B52
:105B400080818C8380917D51882319F01B861A8671
:105B50001AC0D6011196EC91EB9D812D11248695EA
:105B600086958695A82FB0E0AD5BBE4B9C919B8738
:105B7000880F982F990F990F890FE81BF0E0ED5BC4
:105B8000FE4B80818A87F8018181882309F476C0E1
:105B90008281813059F4D60111968C9111978B3303
:105BA00028F48F5F11968C93128268C0F80182816D
:105BB000833009F063C0D60111968C911197882328
:105BC00009F45CC0815011968C93128257C0D601A3
:105BD0001196EC91EB9D812D1124869586958695E5
:105BE000A82FB0E0AD5BBE4B9C919B87880F982F90
:105BF000990F990F890FE81BF0E0ED5BFE4B808158
:105C00008A8780917D51882319F01986188619C0DA
:105C1000D601EC91EB9D812D112486958695869574
:105C2000A82FB0E0AD5BBE4B9C919987880F982F51
:105C3000990F990F890FE81BF0E0ED5BFE4B808117
:105C40008887F80181818823C9F08281813041F4FD
:105C5000D6018C918B3320F48F5F8C9312820EC00F
:105C6000F8018281833051F4D6018C91882331F080
:105C700081508C93128202C0F80110820E94CC13D2
:105C8000D7018C918111BACDCBE3D1E56E8186E04D
:105C90000E94F52A6D8185E00E94F52A6C8184E0DE
:105CA0000E94F52A6A8182E00E94F52A698181E0DA
:105CB0000E94F52A688180E00E94F52ADF91CF9149
:105CC0001F910F91FF90EF90DF90CF90BF90AF901A
:105CD000089580E00895E0E4FAE081E0828787E4B7
:105CE00090E086A397A38FE0808380E00895E0E2B0
:105CF000F8E080E098E18087918784E9858380ECF3
:105D0000868380E00895E0E2F8E0948195FFFDCF7E
:105D10008093220881E090E00895E0E6F8E080E0DA
:105D200098E18087918784E9858380EC868380E091
:105D30000895E0E6F8E0948195FFFDCF8093620836
:105D400081E090E00895EF92FF920F931F93CF931D
:105D5000DF938C017C01C0E0D0E006C0F7018191A7
:105D60007F010E94992E2196F80101900020E9F709
:105D70003197E01BF10BCE17DF0780F3DF91CF9156
:105D80001F910F91FF90EF9008958AEFECE8F1E5F5
:105D9000DF011D928A95E9F71092745108954AE047
:105DA00068ED80E091E00E94A62A80E008958F923D
:105DB0009F92AF92BF92CF92DF92EF92FF921F938A
:105DC000CF93DF9310E00F2EFDE48F2EF1E59F2E91
:105DD000F02D0F2EFBEAAF2EF1E4BF2EF02D0F2E8B
:105DE000FFE0CF2EF1E5DF2EF02DCDEED0E50F2E2A
:105DF000F6E8EF2EF2E5FF2EF02D1130A1F028F09D
:105E0000123061F1133079F132C080E591E40E94E3
:105E1000A32E2FEF8FEF9CE2215080409040E1F7BE
:105E200000C0000024C084E591E40E94A32EF40188
:105E30008081805D0E94992EF5018081805D0E94A5
:105E4000992EF6018081805D0E94992E8881805D67
:105E50000E94992E8DE00E94992E09C089E591E457
:105E60000E94A32E04C08FE591E40E94A32EECE8CB
:105E7000F1E511111DC080818F3409F071C081815D
:105E80008B3409F06DC082818D3009F069C083E0E8
:105E900090E00E944204FFEF2FE382E0F1502040A7
:105EA0008040E1F700C000000E94C52E11E060C0F4
:105EB0001130E9F480818F3409F052C081818B3434
:105EC00009F04EC082818D3009F04AC083E090E035
:105ED0000E9442049FEFEFE3F2E09150E040F04077
:105EE000E1F700C000000E94C52E12E041C0123050
:105EF000D1F480818F34A1F581818B3489F5828141
:105F00008D3071F583E090E00E9442042FEF8FE323
:105F100092E0215080409040E1F700C000000E94D4
:105F2000C52E13E025C01330D9F480818F34C1F41D
:105F300081818B34A9F482818D3091F483E090E0EB
:105F40000E944204EFEFFFE322E0E150F0402040E6
:105F5000E1F700C000000E94C52E0E94CC130BC0C8
:105F60003196EE15FF0509F084CF0E94CC1345CF82
:105F70000E94CC1342CFDF91CF911F91FF90EF9001
:105F8000DF90CF90BF90AF909F908F9008956F92C9
:105F90007F928F929F92AF92BF92CF92DF92EF92B9
:105FA000FF920F931F93CF93DF934CE062E081E069
:105FB0000E94D505C0906751D090685196013295E6
:105FC00022952F7023273F702327A7E4B3E00E9478
:105FD000E53C8C011695079516950795169507953E
:105FE000E02E20E137E2029FC001039F900D129F37
:105FF000900D11249601281B390B3695279536955F
:10600000279536952795A5ECB0E20E94E53CEC017A
:10601000D295C295CF70CD27DF70CD27BC2E9601CB
:106020003695279536952795369527950E94E53C18
:10603000929582958F7089279F70892748EE53E04B
:10604000849F9001859F300D949F300D1124C601CF
:10605000821B930B9C013695279536952795ABE7C8
:10606000B4E10E94E53C3C0176946794A62C96012D
:1060700036952795369527950E94E53C9695879508
:1060800044E6489F9001499F300D1124F601E21B20
:10609000F30B9F01ADECBCEC0E94E53CAC015695C6
:1060A00047955695479556954795F42E96010E942B
:1060B000E53C9695879596958795969587959C014D
:1060C000220F331F880F991F880F991F880F991F60
:1060D000820F931F9601281B390BC901922EA9E745
