S01200005069675F5363616C65732E7372656338
S11306000C9417040C9436040C9436040C9436049D
S11306100C9436040C9436040C9436040C9436046E
S11306200C9436040C9436040C9436040C9436045E
S11306300C9436040C9436040C9436040C9436044E
S11306400C9436040C9436040C9436040C9436043E
S11306500C9436040C9436040C9436040C9436042E
S11306600C9436040C9436040C9436040C9436041E
S11306700C9436040C9436040C9436040C94430401
S11306800C9436040C9436040C9436040C943604FE
S11306900C9436040C9436040C9436040C943604EE
S11306A00C9436040C9436040C9436040C94941371
S11306B00C9436040C9436040C949B040C94360469
S11306C00C9436040C9436040C9436040C943604BE
S11306D00C946F040C9436040C9436040C94360475
S11306E00C9436040C9436040C9436040C9436049E
S11306F00C9436040C9436040C9436040C9436048E
S1130700F6238522B422E42212234B238123F423EB
S113071068246C24702474247A247E24822444253E
S1130720AE2517267F26E9265327BA276E616E0069
S1130730696E660000407A10F35A00A0724E1809E0
S11307400010A5D4E80000E87648170000E40B5434
S1130750020000CA9A3B000000E1F5050000809603
S11307609800000040420F000000A0860100000035
S1130770102700000000E8030000000064000000EF
S113078000000A00000000000100000000002C76B8
S1130790D888DC674F0823DFC1DFAE59E1B1B796D3
S11307A0E5E3E453C63AE651997696E8E6C2842630
S11307B0EB898C9B62ED407C6FFCEFBC9C9F40F20C
S11307C0BAA56FA5F490055A2AF75C936B6CF96788
S11307D06DC11BFCE0E40D47FEF520E6B500D0ED4D
S11307E0902E0300943577050080841E08000020B5
S11307F04E0A000000C80C333333330F986E128353
S11308001141EF8D2114893BE65516CFFEE6DB1826
S1130810D1844B381BF77C1D901DA4BBE4242032EB
S113082084725E228100C9F124ECA1E53D271124E4
S11308301FBECFEFCDBFDFE7DEBF10E4A0E0B0E422
S1130840E8E4F5E700E00BBF02C007900D92A03C7E
S1130850B107D9F72CE4A0ECB0E401C01D92AE318D
S1130860B207E1F70E941D0D0C94A23A0C94000308
S11308700E94260F0895E4E0F4E090819260908352
S11308808093F14A08951F920F920FB60F9211248C
S11308900BB60F928F939F93EF93FF93809124084D
S11308A08823E4F78091654AE82FF0E090912008CE
S11308B0E159F54B9083893110F01092654A80918B
S11308C0654A8F5F8093654AFF91EF919F918F9165
S11308D00F900BBE0F900FBE0F901F9018951F9294
S11308E00F920FB60F9211240BB60F928F939F9312
S11308F0EF93FF93809164088823E4F78091F94A89
S1130900E82FF0E090916008E05FF44B90838A3F19
S113091010F01092F94A8091F94A8F5F8093F94A56
S1130920FF91EF919F918F910F900BBE0F900FBE8F
S11309300F901F9018951F920F920FB60F921124CB
S11309400BB60F922F933F934F935F936F937F93C5
S11309508F939F93AF93BF93EF93FF9381E0809323
S11309604B0A0E9440050E94E0058091B74A81111C
S113097005C0E5EDFAE41182128205C0E7EBFAE462
S11309808081815080838091F14A811106C0E4E026
S1130990F4E080818D7F808303C081508093F14A8D
S11309A0E7EBFAE4818192810196818392838181CC
S11309B09281803D974020F0EFE8FAE410821182A2
S11309C0E7EBFAE483819481019683839483809195
S11309D09B4A8F5F80939B4A833348F081E09091D8
S11309E0024B911180E08093024B10929B4AFF913D
S11309F0EF91BF91AF919F918F917F916F915F9193
S1130A004F913F912F910F900BBE0F900FBE0F90FF
S1130A101F901895CF93C82F8091D44A813019F430
S1130A208C2F0E94F9278091D44A833019F48C2F9B
S1130A300E940E2880E090E0CF9108958EE080938C
S1130A4000048DE08093200485E580934004109297
S1130A506004109280048CE08093A00487EF80935C
S1130A60C0041092040410922404109244041092BE
S1130A706404109284041092A4041092C40408958F
S1130A8032E02FC0E4ECF4E080818D7F808380919C
S1130A90C24094E03902F0011124ED53FF4BE80FFA
S1130AA0F11D808190E0022E02C0959587950A94ED
S1130AB0E2F780FF06C0E4ECF4E080818460808388
S1130AC005C0E4ECF4E080818B7F8083E4ECF4E007
S1130AD08081826080832F5F01C020E0283090F203
S1130AE031503323D4F7E4ECF4E0808181608083D7
S1130AF080818E7F80838091C2408130A9F028F06C
S1130B00823009F1833071F13BC0E4ECF4E0808180
S1130B108F7E808380818F7D808380818F7B8083A3
S1130B208081806880832CC0E4ECF4E080818F7E37
S1130B30808380818F7D80838081806480838081B5
S1130B408F7780831DC0E4ECF4E080818F7E808306
S1130B5080818062808380818F7B808380818F7796
S1130B6080830EC0E4ECF4E0808180618083808126
S1130B708F7D808380818F7B808380818F7780834A
S1130B808091C2408F5F8093C240843010F01092F5
S1130B90C240089512C0E82FF0E0A42FB0E0A4579B
S1130BA0BF4B9C91EE0FFF1FEE0FFF1FED53FF4B4A
S1130BB093839283918390838F5F681760F708957E
S1130BC08091D64A8111B9C08091080484FD0DC07A
S1130BD08AE090E00E943B04E5EDFAE481E0828340
S1130BE081831092B84A1092B94A8091080485FD15
S1130BF00EC08AE090E00E943B04E5EDFAE482E056
S1130C00828381E081831092B84A1092B94A80911C
S1130C10080486FD0EC08AE090E00E943B04E5EDE6
S1130C20FAE483E0828381E081831092B84A1092CF
S1130C30B94A80910804882374F08AE090E00E9405
S1130C403B04E5EDFAE484E0828381E08183109241
S1130C50B84A1092B94A8091D74A843051F48091AD
S1130C608F4A882319F010928F4A03C081E0809341
S1130C708F4A80918F4A811115C08091D74A823062
S1130C8089F48091924A882319F01092924A0AC0FA
S1130C9081E08093924AE3ECF0E482E083878287E8
S1130CA08187808780918F4A882391F08091D74AE9
S1130CB0823071F48091914A81110AC08091904AE6
S1130CC0882319F01092904A03C081E08093904ADF
S1130CD080918F4A882391F08091D74A823071F4B1
S1130CE08091914A882351F0E5EDFAE480818F5F89
S1130CF080838081863010F01092D54AE5EDFAE4C5
S1130D0093818281981311C08091D94A823020F056
S1130D1084E18093B74A089582E38093B74AE5ED6E
S1130D20FAE484818F5F8483089582E38093B74AD1
S1130D30E5EDFAE48281838314820895CF92DF92F1
S1130D40EF92FF9281E090E00E943D0F8093D14AA0
S1130D5081508C3340F081E08093D14A61E081E09E
S1130D6090E00E945F0F82E090E00E943D0F80932C
S1130D70DB4A81508C3340F081E08093DB4A61E0B0
S1130D8082E090E00E945F0F83E090E00E943D0FBC
S1130D908093C74A803240F081E08093C74A61E083
S1130DA083E090E00E945F0F84E090E00E943D0F9A
S1130DB08093604A8D3340F081E08093604A61E023
S1130DC084E090E00E945F0F85E090E00E943D0F78
S1130DD08093044B8150843040F082E08093044B34
S1130DE062E085E090E00E945F0F86E090E00E9460
S1130DF0470FA0E0B0E08093F34A9093F44AA093A5
S1130E00F54AB093F64A84569109A109B109853887
S1130E109340A105B10590F084E690E0A0E0B0E035
S1130E208093F34A9093F44AA093F54AB093F64A18
S1130E3064E670E086E090E00E94820F8CE090E02F
S1130E400E94520F0E94FC306B017C016093DC4ACB
S1130E507093DD4A8093DE4A9093DF4A20E038ECB9
S1130E604FEA57E40E94AE31181654F020E030E403
S1130E704CE156E4C701B6010E944F308823A4F424
S1130E8080E090E4ACE1B7E48093DC4A9093DD4ADF
S1130E90A093DE4AB093DF4A40E45CE960E070E08E
S1130EA08CE090E00E949F0F88E090E00E94470F42
S1130EB08093884A9093894A0A978730974260F0D2
S1130EC084EF91E08093884A9093894A64EF71E0BB
S1130ED088E090E00E94820F8AE090E00E94470F31
S1130EE08093E94A9093EA4A8D599F4F873C910534
S1130EF050F01092E94A1092EA4A60E070E08AE009
S1130F0090E00E94820F0E9422248091C04A8C3378
S1130F1028F060E080E00E945D24FFCF8091C64A03
S1130F2081111CC066E186E00E945D2469E085E0D1
S1130F300E945D2464E184E00E945D2463E083E018
S1130F400E945D246CE082E00E945D2460E081E008
S1130F500E945D2460E080E00E945D24FF90EF9099
S1130F60DF90CF9008958FE090E00E943B0426E646
S1130F7086E695E0215080409040E1F78FE090E0D4
S1130F800E943B0426E686E695E02150804090408E
S1130F90E1F78FE090E00E943B0408958F929F92C6
S1130FA0AF92BF92CF92DF92EF92FF920F931F9373
S1130FB0CF93DF930E941116EC016C01E12CF12C0C
S1130FC08091A54A9091A64AA091A74AB091A84AB7
S1130FD0C114D104E104F10409F409C1AC01BD0157
S1130FE04E5C5F4F6F4F7F4FC297A109B10931E04B
S1130FF04C155D056E057F0508F430E021E0C81648
S1131000D906EA06FB0608F420E0232309F4CAC043
S11310108091DA4A8F5F8093DA4A843008F4A6C05C
S11310204AE061E081E00E94CA058091924A8823E7
S113103009F479C08091FB409091FC408B3291403F
S113104040F4EBEFF0E480819181019680839183F9
S113105004C01092FB401092FC400BEF10E4D80146
S11310602D913C918091E94A9091EA4A092E000C15
S1131070AA0BBB0B8C0D9D1DAE1DBF1D0F2EF0EAE0
S11310808F2EFAE49F2EF02DF40181839283A383A3
S1131090B483F9013196EE0FFF1FE550FF4B8083B7
S11310A09183D801AD90BC9086E00E941324F50191
S11310B0E95AFC4B8083F801A080B18085E00E944E
S11310C01324F501ED57FB4B8083D801AD90BC9000
S11310D084E00E941324F501E155FA4B8083F80162
S11310E0A080B18082E00E941324F501E552F94BFF
S11310F08083D801AD90BC9081E00E941324F50157
S1131100E95FF74B8083F8010081118180E00E9440
S11311101324F801ED5CF64B8083D4011C921092E9
S1131120924A0E94B3071092DA4A4CE062E082E0ED
S11311300E94CA058091E94A9091EA4A092E000C5E
S1131140AA0BBB0B8C0D9D1DAE1DBF1DBF93AF9392
S11311509F938F9388E490E49F938F930E94BC386D
S11311600F900F900F900F900F900F90CE01A0E072
S1131170B0E0E0EAFAE485839683A783B0878091A0
S1131180E94A9091EA4A092E000CAA0BBB0BC80E3F
S1131190D91EEA1EFB1EC182D282E382F4820E941F
S11311A05A1445C0CE01A0E0B0E0E0EAFAE4858339
S11311B09683A783B0878091E94A9091EA4A092EE1
S11311C0000CAA0BBB0BC80ED91EEA1EFB1EC18263
S11311D0D282E382F4821092F74A1092DA4A4CE007
S11311E061E081E00E94CA050E945A1420C08091E7
S11311F0F74A8F5F8093F74A8430C8F0E0EAFAE454
S11312001582168217821086CE01A0E0B0E0818399
S11312109283A383B48310821092F74A1092DA4A1D
S11312204CE061E081E00E94CA050E945A14DF91FB
S1131230CF911F910F91FF90EF90DF90CF90BF90CF
S1131240AF909F908F9008951F93CF93DF93CDB766
S1131250DEB76E97CDBFDEBF8EE1FE013196DF01B2
S1131260282F1D922A95E9F7DF011D928A95E9F747
S11312708091C0409091C1408C32914020F01092F6
S1131280C0401092C14080EF898385E18B838091B7
S1131290604A8C8389E28E838091DB4A8F8382E06B
S11312A08A87EBEFF0E4808191819B878081918133
S11312B08C878091C0409091C140FC013196EE0F23
S11312C0FF1FE550FF4B208131813D872081318113
S11312D02E87209155432F8720915643288B855084
S11312E09F4BFC01E45AFD4F2081298BE45DFE4FA6
S11312F020812A8BE45DFE4F20812B8BE45DFE4F21
S113130020812C8BE45DFE4F20812D8BE45DFE4F0C
S113131080818E8B80915F4A8F8B81E090E009C041
S1131320E1E0F0E0EC0FFD1FE80FF11D2081920FCA
S11313308F5F8C31A8F39D8F81EF8E8F10E00AC0F0
S1131340E1E0F0E0EC0FFD1FE10FF11D80810E9450
S11313500E281F5F1E31A0F36E96CDBFDEBFDF9156
S1131360CF911F9108951F93CF93DF93CDB7DEB72D
S11313702A97CDBFDEBF9AE0FE013196DF01292F07
S11313801D922A95E9F7DF011D929A95E9F790EFEE
S1131390998391E09B838C836D8389E28E83809112
S11313A0DB4A8F8381E090E009C0E1E0F0E0EC0FDC
S11313B0FD1FE80FF11D2081920F8F5F8830A8F385
S11313C0998781EF8A8710E00AC0E1E0F0E0EC0F32
S11313D0FD1FE10FF11D80810E940E281F5F1A304E
S11313E0A0F32A96CDBFDEBFDF91CF911F91089560
S11313F0EF92FF920F931F93CF93DF93C0E069C1E5
S11314000C2F10E0F801E05FF44B8081803F09F07D
S113141052C0F801EF5EF44B9081913009F04BC05B
S1131420F801EE5EF44B9081913009F044C0F8016C
S1131430EC5EF44B90819130F1F5F801E75EF44BEA
S11314409081913FC1F5E4E2F4E08081886080837B
S113145090E081E008C0F801E80FF11DE05FF44B73
S11314602081920F8F5F8830B0F3F801E85EF44B6F
S11314708081981318C0F801ED5EF44B908180913F
S1131480604A981310C0C4E2D4E0888184608883E1
S11314900E9424098CEC9CE10197F1F700C0000044
S11314A088818B7F88830E943528E4E2F4E0808180
S11314B0877F808311C1803F09F0A1C0F801EF5EEE
S11314C0F44B9081913009F09AC0F801EC5EF44B32
S11314D09081993009F093C0F801E15EF44B90815A
S11314E0913F09F08CC0E4E2F4E08081886080835D
S11314F090E081E008C0F801E80FF11DE05FF44BD3
S11315002081920F8F5F8E30B0F3F801E25EF44BCE
S1131510808198136CC0F801E85EF44B8081982FA9
S113152092959F70990F692F660F660F960F8F70B3
S1131530692F680F86E00E945D24F801E75EF44B92
S11315408081982F92959F70990F692F660F660F6F
S1131550960F8F70692F680F85E00E945D24F80153
S1131560E65EF44B8081982F92959F70990F692FB6
S1131570660F660F960F8F70692F680F84E00E94C4
S11315805D24F801E55EF44B8081982F92959F705D
S1131590990F692F660F660F960F8F70692F680F6A
S11315A082E00E945D24F801E45EF44B8081982F70
S11315B092959F70990F692F660F660F960F8F7023
S11315C0692F680F81E00E945D24F801E35EF44B0B
S11315D08081982F92959F70990F692F660F660FDF
S11315E0960F8F70692F680F80E00E945D240E941F
S11315F03528E4E2F4E08081877F80836DC0803FFA
S113160009F066C0F801EF5EF44B8081813009F087
S11316105FC0F801EE5EF44B8081813009F058C060
S1131620780194E0E90EF11CF701E05FF44B80814E
S1131630873009F04DC0F801E15DF44B8081813FB2
S113164009F046C0E4E2F4E080818860808390E0A1
S113165081E008C0F801E80FF11DE05FF44B208140
S1131660920F8F5F8E31B0F3F801E25DF44B80810D
S113167098132EC060E070E060930A4C70930B4C9A
S1131680F801ED5EF44B90818091604A981320C07C
S11316906093884A7093894A88E090E00E94820FA0
S11316A004E214E0F801808184608083F701E05F44
S11316B0F44B60818091604A0E94B3098CEC9CE1F8
S11316C00197F1F700C00000F80180818B7F8083CF
S11316D0CF5FCA3F08F494CEDF91CF911F910F9151
S11316E0FF90EF9008958091BA4A9091BB4A883E4A
S11316F0934090F01092BA4A1092BB4A0E9422245E
S1131700E0ECFAE487816481861731F06093C74A7C
S113171083E090E00E945F0F0895CF931092614A96
S11317201092624A1092634A1092644AC0E018C050
S113173080E00E94550E4091614A5091624A609146
S1131740634A7091644A480F591F611D711D40938B
S1131750614A5093624A6093634A7093644ACF5FCC
S1131760C23330F36091614A7091624A8091634A56
S11317709091644A22E330E040E050E00E94D43586
S11317802093614A3093624A4093634A5093644A77
S1131790CA01B9010E94FC3026EF39E040EA5AE35D
S11317A00E94B3316093BC4A7093BD4A8093BE4A91
S11317B09093BF4ACF910895CF92DF92EF92FF9218
S11317C020E836E948E15BE46091DC4A7091DD4A47
S11317D08091DE4A9091DF4A0E9454306B017C0173
S11317E02FE832EC45EF5EE36091BC4A7091BD4A4C
S11317F08091BE4A9091BF4A0E94E32F9B01AC01A5
S1131800C701B6010E94543020E030E040E053E4C8
S11318100E94B3319B01AC010E94E32F20E030E031
S113182040E05BE40E94B3316B017C012091F34AF8
S11318303091F44A4091F54A5091F64AA8EEB3E04B
S11318400E942D360E94FC309B01AC01C701B601F9
S11318500E9454306B017C016091044B70E080E085
S113186090E00E94FE309B01AC01C701B6010E94CA
S113187054306093B14A7093B24A8093B34A9093C0
S1131880B44AFF90EF90DF90CF9008954AE062E071
S113189080E00E94CA05EFE8FAE410821182128205
S11318A01092D54A0E949E068FEF9FE80197F1F7A8
S11318B000C000000E948D0B0E94DC0B8FEF9FE89C
S11318C00197F1F700C000000E94C7158FEF9FE851
S11318D00197F1F700C000000E94C7150E94B307EA
S11318E01092A04A4CE062E080E00E94CA0508958C
S11318F0A8950895CF931092904A4CE062E080E05E
S11319000E94CA05C1E091C08091D64A882399F00B
S11319108091D74A813031F4C53020F4CF5F1092E2
S1131920D74A09C08091D74A833029F4CC2319F0CF
S1131930C1501092D74AE3ECF0E413861286118664
S1131940AC2FB0E0A457BF4B8C918087C23031F1EB
S113195030F4CC2309F466C0C13049F064C0C4300B
S113196009F448C088F1C53009F45AC05CC0E3ECFE
S1131970F0E48AE183838EED828390E69183908301
S1131980178296EB968385838EE184838091904AB7
S1131990882309F448C00E94E52045C0E3ECF0E444
S11319A0138286EF82838AEF81838EE1808317829C
S11319B096EB96839EED958384838091904A882349
S11319C091F10E9475102FC0E3ECF0E413828AEDCC
S11319D082838EE381838EED8083178296EB9683D8
S11319E085838EE184838091904A8823E1F00E946C
S11319F07F2E19C0E3ECF0E413828AE082838EE147
S1131A0081839AE19083178296EB96839EED95836A
S1131A1084838091904A882331F00E948B2403C0F0
S1131A20C1E001C0C4E00E94780C80918F4A81110A
S1131A306BCF0E94460CCF9108950E9438040E94F7
S1131A401E0560E070E08AE095E00E94353881E090
S1131A508093D44A8DEB90E40E94D0382FEF8FE32B
S1131A6092E0215080409040E1F700C0000085E5FD
S1131A7090E49F938F938EE590E49F938F938AE6EF
S1131A8090E49F938F930E94BC380E943B0E0E9467
S1131A90630E0E944C0E78940E94B307E4E2F4E0D3
S1131AA08081877F808380818B7F80830E949E06D4
S1131AB0E3ECF0E4138287E6828380E6818310827C
S1131AC02FEF8FEF9CE2215080409040E1F700C05F
S1131AD000000E94780C0F900F900F900F900F90C1
S1131AE00F9010E00F2EF5E0FF2EF02DA6C00E94FF
S1131AF02224C0ECDAE49E818DEC989F412D1124C0
S1131B00469546954695E42FF0E0E457FF4B508107
S1131B10E3ECF0E45383440F542F550F550F450F56
S1131B20A92FA41BB0E0A457BF4B9C9192839D8125
S1131B30989F412D1124469546954695A42FB0E0D3
S1131B40A457BF4B5C915183440F542F550F550F2D
S1131B50450FA92FA41BB0E0A457BF4B9C919083C1
S1131B609C81989F412D1124469546954695A42F16
S1131B70B0E0A457BF4B5C915783440F542F550FCB
S1131B80550F450FA92FA41BB0E0A457BF4B9C9140
S1131B9096839A81989F412D1124469546954695A2
S1131BA0A42FB0E0A457BF4B5C915583440F542F2E
S1131BB0550F550F450FA92FA41BB0E0A457BF4BD9
S1131BC09C9194839981989F412D11244695469523
S1131BD04695A42FB0E0A457BF4B5C915387440FA4
S1131BE0542F550F550F450FA92FA41BB0E0A45730
S1131BF0BF4B9C9192871881189F812D1124869543
S1131C0086958695A82FB0E0A457BF4B9C919187E9
S1131C10880F982F990F990F890FA12FA81BB0E057
S1131C20A457BF4B8C918087011741F08AE090E064
S1131C300E943B040E94780CFA94012FF11057CFB4
S1131C400E94460C0E94780C80918F4A81110E9458
S1131C507A0C0E94CE070E94F8090E94730B0E941E
S1131C60780C2FEF8FE794E0215080409040E1F70B
S1131C7000C00000E9CFE0E0F6E086E0828381E086
S1131C80808380E00895E0E0F6E090819F7D90837A
S1131C90808781E08287089580910D068170089580
S1131CA0809110069091110608950E94430E0E949F
S1131CB04C0E8823E1F30E94500EE0E0F6E0258507
S1131CC021602587089585E08093A00086EF8A959A
S1131CD0F1F708951092890080E0089543E068EDDB
S1131CE080E690E00E940E248091630080FDFCCF8A
S1131CF080E0089580E0089580E008C0E82FF0E0D7
S1131D00E05FFB4F9081986090838F5F8830B0F3E1
S1131D1080E008C0E82FF0E0E05DFB4F9081986020
S1131D2090838F5F8830B0F380E008C0E82FF0E044
S1131D30E05BFB4F9081986090838F5F8830B0F3B5
S1131D4080E008C0E82FF0E0E059FB4F90819860F4
S1131D5090838F5F8830B0F380E008C0E82FF0E014
S1131D60E057FB4F9081986090838F5F8830B0F389
S1131D7080E008C0E82FF0E0E055FB4F90819860C8
S1131D8090838F5F8830B0F380E008C0E82FF0E0E4
S1131D90E053FB4F9081986090838F5F8830B0F35D
S1131DA0089585B3877F85BB84B3886084BBE3EBE8
S1131DB0F4E08081877F808380818F778083808136
S1131DC0887F808385B38B7F85BB84B3846084BB29
S1131DD0E2EBF4E08081877F808380818F7780834A
S1131DE08081887F80830E94FE120895E0EEF5E0F2
S1131DF082818B7F8283E0E4F4E080818160808350
S1131E0080818D7F80830E94ED270895E0EEF5E0C8
S1131E1082818F7B8283E0E2F4E080818160808331
S1131E2080818D7F80830E94022808951092080685
S1131E30E0E6F4E08089887F808B80898460808BF1
S1131E408089877F808B0E943B0E08950E947C0EC0
S1131E500E946E0E0E94F60E0E94060F0E94160F3C
S1131E600E94DF270E947A0E0E94E1270E946A0ED8
S1131E700E943F280E94D10E0895811522E0920706
S1131E8010F08FEF91E0FC01FC5E808108958F3F9C
S1131E9021E0920710F08EEF91E0FC01FC5E80815E
S1131EA0918108958D3F21E0920710F08CEF91E02D
S1131EB0FC01FC5E608171818281938108951F938E
S1131EC0CF93DF939C01211582E03807B0F4909101
S1131ED002109370E1F7162FE90143E16DE980E008
S1131EE090E10E940E24DC5E188340E06DE980E0FE
S1131EF090E10E940E2481E001C080E0DF91CF9147
S1131F001F910895CF92DF92EF92FF92CF93DF93C8
S1131F108F3F21E0920758F4EC016B010E945F0FA0
S1131F206D2DCE0101960E945F0F81E001C080E01B
S1131F30DF91CF91FF90EF90DF90CF900895FF92C3
S1131F400F931F93CF93DF938D3F21E09207C0F44B
S1131F50172F062FF52E642FEC010E945F0F6F2DB3
S1131F60CE0101960E945F0F602FCE0102960E945F
S1131F705F0F612FCE0103960E945F0F81E001C0C5
S1131F8080E0DF91CF911F910F91FF9008954CE075
S1131F9062E080E00E94CA0542C0E3ECF0E48EEB0C
S1131FA0838382E082838AE281838AE3808320912F
S1131FB0D14A8DEC289F812D11248695869586958E
S1131FC0A82FB0E0A457BF4B9C919583880F982FFE
S1131FD0990F990F890FA22FA81BB0E0A457BF4BEC
S1131FE08C9184838091D64A8823B9F08091D74A12
S1131FF0813041F42C3330F42F5F2093D14A109276
S1132000D74A0BC08091D74A833039F4223028F064
S113201021502093D14A1092D74A0E94780C809183
S11320208F4A882321F08091904A8111B6CF609124
S1132030D14A81E090E00E945F0F08954CE062E095
S113204080E00E94CA0542C0E3ECF0E48EEB838397
S113205082E0828380E681838AE780832091DB4A61
S11320608DEC289F812D1124869586958695A82F21
S1132070B0E0A457BF4B9C919583880F982F990F7C
S1132080990F890FA22FA81BB0E0A457BF4B8C91C6
S113209084838091D64A8823B9F08091D74A8130CD
S11320A041F42C3330F42F5F2093DB4A1092D74A4B
S11320B00BC08091D74A833039F4223028F0215064
S11320C02093DB4A1092D74A0E94780C80918F4A61
S11320D0882321F08091904A8111B6CF6091DB4A28
S11320E082E090E00E945F0F0895CF931092904A8F
S11320F04CE062E080E00E94CA05C1E08BC08091A0
S1132100D64A882399F08091D74A813031F4C3307C
S113211020F4CF5F1092D74A09C08091D74A833008
S113212029F4CC2319F0C1501092D74AEC2FF0E0D7
S1132130E457FF4B80818093CB40C13041F008F4D9
S113214066C0C23099F1C33009F45FC061C0E3ECEA
S1132150F0E48EEB838382E082838AE281838AE3E4
S11321608083178216824091D14A8DEC489F812D3D
S11321701124869586958695282F30E024573F4B69
S1132180D9019C919583880F982F990F990F890FE6
S1132190A42FA81BB0E0A457BF4B8C9184838091DB
S11321A0904A8823A9F10E94C70F32C0E3ECF0E4FF
S11321B08EEB838382E0828380E681838AE7808357
S11321C0178216824091DB4A8DEC489F812D1124A1
S11321D0869586958695282F30E024573F4BD90164
S11321E09C919583880F982F990F990F890FA42F8D
S11321F0A81BB0E0A457BF4B8C9184838091904A74
S1132200882331F00E941E1003C0C1E001C0C2E067
S11322100E94780C80918F4A811171CFCF910895DB
S1132220E0E2F9E08481886084838581816085832C
S1132230EFECF0E480818E7F808313868EE0089536
S1132240EFECF0E480818E7F8083138680E0089534
S1132250E0E2F9E08481836084830E942011089580
S1132260EFECF0E4808188608083818190E0880FC6
S1132270991F81608093270984E008950E9430119A
S113228008950E9430110895EFECF0E48081886095
S113229080838181880F8093270983E008950E94B9
S11322A044110895AFECB0E48C91877F8C9382E065
S11322B01B968C931B975096ED91FC9151975C96CD
S11322C08D919C915D970995823019F0833021F0AE
S11322D006C00E94411108950E944F1108950E9462
S11322E028110895E0E2F9E084818B7F848384E0FF
S11322F00895E0E2F9E084818B7F848383E008958C
S1132300E0E2F9E08481846084838481836084834F
S11323100E9420110895E0E2F9E0848184608483BE
S113232088E008958091250984FF19C0AFECB0E4DA
S11323305296ED91FC9153975E968D919C915F9787
S11323400995823019F0833021F006C00E944111B2
S113235008950E944F1108950E9428110895EFECEA
S1132360F0E48081877F8083A281B381CD010196CF
S1132370828393838C91809328098481958101972A
S113238084839583892B11F083E0089585E0089573
S1132390CF93DF93EFECF0E48081877F80838481A7
S11323A09581019731F4E0E2F9E0848184608483CB
S11323B005C0E0E2F9E084818B7F8483EFECF0E4F4
S11323C084819581019784839583892BA9F0DF010A
S11323D0C281D381E0E2F9E08085888312968D91F1
S11323E09C911397019612968D939C9313978481D5
S11323F08260848384E026C0AFECB0E41296ED9151
S1132400FC91139780912809808312968D919C9159
S11324101397019612968D939C9313978C918460D5
S11324208C931C96ED91FC911D9758968D919C91DF
S1132430599709958250823018F40E948B1102C07A
S11324400E948011DF91CF9108958091250984FF26
S113245019C0AFECB0E45296ED91FC9153975E969F
S11324608D919C915F970995823019F0833021F00A
S113247006C00E94411108950E944F1108950E94C0
S113248028110895AFECB0E48C9184608C931C9671
S1132490ED91FC911D9758968D919C9159970995B2
S11324A0833039F0843041F0823049F40E94411184
S11324B008950E944F1108950E94921108950E9458
S11324C028110895E0E2F9E0858188608583AFEC06
S11324D0B0E482E01B968C931B971E96ED91FC91C1
S11324E01F975A968D919C915B970995823019F0AC
S11324F0833021F006C00E94411108950E944F11BB
S113250008950E9410110895E0E2F9E08481886042
S11325108483858181608583EFECF0E480818E7F04
S1132520808382E083878EE00895CF93DF93E0E297
S1132530F9E08581806C85838091CF4083FF07C05B
S11325408091250984FF03C08FE08093D940809156
S1132550250983FF03C080E18093D9408091250938
S113256082FF03C081E18093D940CFECD0E4EA85B7
S1132570F0E0EE0FFF1FEA5FFF4B0190F081E02DCA
S113258009958A87DF91CF91089581E0089585E0C8
S113259008956115710591F090E0FC013696EE0FF7
S11325A0FF1FE153FF4B60837183FC013C96EE0FE8
S11325B0FF1FE153FF4B40835183089590E0FC01DA
S11325C03696EE0FFF1FE153FF4B25EC32E12083DB
S11325D03183FC013C96EE0FFF1FE153FF4B108249
S11325E011820895AB01BC0180E00E94C9120895D4
S11325F0AB01BC0182E00E94C9120895E0E2F9E057
S113260084E4868381EC838308959091CF4091FD87
S113261037C0EFECF0E48183892F8E7F82609EE0E7
S1132620928724EF31E020873187877F846080831D
S113263085EC92E184879587108E118E8687978723
S1132640128E138E808B918B148E158E828B938BAE
S1132650168E178E87EC92E1848B958B10A211A2B3
S1132660E0E2F9E0848188608483858181608583E8
S11326708581806C85838381806C838380E0089569
S113268081E008958091250982FF07C0EFECF0E412
S113269080818E7F808382E083878091CF4080FD1C
S11326A017C0EFECF0E48D7F80838FEF8183A0E28D
S11326B0B9E015968C911597806C15968C931597A7
S11326C013968C9113978F7313968C938385089527
S11326D081E008959C019091CF4092FF09C0EFECF6
S11326E0F0E42283338364837583892F8B7F808313
S11326F008959091CF4090FD11C0EFECF0E491600B
S11327009083882321F081E08093D94003C082E044
S11327108093D9400E94951280E0089581E0089545
S113272080E00E94791308951F920F920FB60F92C2
S113273011240BB60F922F933F934F935F936F9394
S11327407F938F939F93AF93BF93EF93FF930E94D5
S11327509512FF91EF91BF91AF919F918F917F91CE
S11327606F915F914F913F912F910F900BBE0F90FE
S11327700FBE0F901F90189561E070E00E946A13DD
S113278060E070E080E090E00E94F21284E008953E
S113279061E070E00E946A1360E070E080E090E025
S11327A00E94F21282E00895FF920F931F93CF9339
S11327B0DF9300D0CDB7DEB7F82E69834A8300E1FA
S11327C017E28F2D0E940513813019F4015011096D
S11327D0C1F7012B11F1BE016E5F7F4F8CEB93E1CA
S11327E00E94F21261E070E0CE0101960E946A1329
S11327F060E070E088E594E10E94F8120E94901372
S113280000E117E20E944213813019F401501109CA
S1132810C9F7012B21F482E003C081E001C080E00C
S11328200F900F90DF91CF911F910F91FF9008951A
S1132830EF92FF921F93CF93DF9300D0CDB7DEB713
S1132840182F6A838AE289836894EE24E1F8F12CD4
S113285023C0812F0E9405138823D9F3BE016F5F23
S11328607F4F88EC93E10E94F21261E070E0CE01A8
S113287002960E946A1360E070E088E594E10E9489
S1132880F8120E9490130E9442138130E1F38823CE
S113289031F081E0E81AF108E114F104D1F68981FC
S11328A00F900F90DF91CF911F91FF90EF900895BB
S11328B083E008958F929F92AF92BF92EF92FF921E
S11328C00F931F93CF93DF93C0EADAE469817A818F
S11328D08B819C810F2EF0E18F2EF7E29F2EA12C8D
S11328E0B12CF02DA50194010E94F635E22E20931F
S11328F0F44069817A818B819C81A50194010E94B5
S1132900F6350F2EF8EE8F2EF3E09F2EA12CB12C6E
S1132910F02DA50194010E94F635F22E2093064B6A
S113292069817A818B819C81A50194010E94F6358D
S11329300F2EF4E68F2E912CA12CB12CF02DA50195
S113294094010E94F635022F2093F84A69817A8116
S11329508B819C81A50194010E94F6350F2EFAE02B
S11329608F2E912CA12CB12CF02DA50194010E9445
S1132970F635122F2093D04A69817A818B819C810C
S1132980A50194010E94F6356093ED4A89819A81EC
S1132990AB81BC8181319742A105B10514F1EE2DC3
S11329A0F0E0E457FF4B8081A3ECB0E413968C93E2
S11329B01397EF2DF0E0E457FF4B808112968C9330
S11329C01297E02FF0E0E457FF4B80818F5F119660
S11329D08C931197E12FF0E0E457FF4B80818C93A7
S11329E058C08091A14A9091A24AA091A34AB09163
S11329F0A44A893E9340A105B10514F1EF2DF0E0FE
S1132A00E457FF4B8081A3ECB0E413968C931397A7
S1132A10E02FF0E0E457FF4B80818F5F12968C9398
S1132A201297E12FF0E0E457FF4B808111968C93CD
S1132A301197E62FF0E0E457FF4B80818C9329C077
S1132A408091A14A9091A24AA091A34AB091A44A2C
S1132A50883E9340A105B105E4F4A3ECB0E41396D9
S1132A601C921397E02FF0E0E457FF4B80818F5FB7
S1132A7012968C931297E12FF0E0E457FF4B80817C
S1132A8011968C931197E62FF0E0E457FF4B808169
S1132A908C93DF91CF911F910F91FF90EF90BF9096
S1132AA0AF909F908F900895CF92DF92EF92FF9214
S1132AB0E4E4F4E080818B7F80838091480483FF89
S1132AC0FCCF90E040E050E0BA011DC0440F551F18
S1132AD0661F771FE4E4F4E080818460808322E64B
S1132AE02A95F1F7000080818B7F808382E68A95A6
S1132AF0F1F700008091480483FD04C04F5F5F4FED
S1132B006F4F7F4F9F5F983108F3E4E4F4E08081D6
S1132B108460808392E69A95F1F7000080818B7F30
S1132B2080832FEF8FE794E0215080409040E1F7BD
S1132B3000C00000CB01BA0120E48227613020EFFD
S1132B4072072FE7820791051CF060E070E0CB016B
S1132B5028EE33E040E050E00E94F635A8EEB3E002
S1132B600E942D36C090B14AD090B24AE090B34A48
S1132B70F090B44A0E94FE30A70196010E9454309E
S1132B800E94C630FF90EF90DF90CF9008950F938E
S1132B901F930E9454158B019C018091AD4A909122
S1132BA0AE4AA091AF4AB091B04A801B910BA20BE0
S1132BB0B30B181619061A061B067CF4E0EAFAE4AD
S1132BC04585568567857089481B590B6A0B7B0BB5
S1132BD0458756876787708B10C0BB2374F4E0EA7F
S1132BE0FAE44585568567857089480F591F6A1F21
S1132BF07B1F458756876787708B892B8A2B8B2B86
S1132C0061F68AE090E00E943B0426E686EE90E0BE
S1132C10215080409040E1F70E94780C1F910F9161
S1132C2008954F925F926F927F928F929F92AF928C
S1132C30BF92CF92DF92EF92FF928090AD4A909034
S1132C40AE4AA090AF4AB090B04A0E9454152B01EE
S1132C503C012091F34A3091F44A4091F54A509155
S1132C60F64AA8EEB3E00E942D366B017C011414E1
S1132C701504160417040CF066C08091AD4A9091B7
S1132C80AE4AA091AF4AB091B04AA3019201281B69
S1132C90390B4A0B5B0BCA01B90111F41092B64A05
S1132CA0613836E9730738E983079105C0F08091EC
S1132CB0B64A8F5F8093B64A863070F00E94C7157B
S1132CC08FEF9FE80197F1F700C000000E94C7153D
S1132CD060E070E0CB0103C060E070E0CB01161649
S1132CE01706180619064CF54090884A5090894AF0
S1132CF0052C000C6608770864157505860597058C
S1132D00E4F42091B64A2F5F2093B64A263090F01F
S1132D10DC01CB01880D991DAA1DBB1D8093AD4A12
S1132D209093AE4AA093AF4AB093B04A60E070E08B
S1132D30CB0103C060E070E0CB01C616D706E806FD
S1132D40F90628F007C060E070E0CB0103C060E042
S1132D5070E0CB012AE030E040E050E00E94F6351C
S1132D60C901FF90EF90DF90CF90BF90AF909F90FC
S1132D708F907F906F905F904F9008951092CB400A
S1132D8088E090E00E94470F9C018093884A9093CA
S1132D90894A60E177E20E94C03560938A4AE8EE8E
S1132DA0F3E0BF010E94C0356093034BC901BF012A
S1132DB00E94C035E4E6F0E0BF010E94C035609394
S1132DC08B4AC901BF010E94C035EAE0F0E0BF01AF
S1132DD00E94C03560936A4AC901BF010E94C03590
S1132DE08093EE4A3DC181E08093914A8091D54A17
S1132DF0823009F485C030F4882369F0813009F405
S1132E0044C02CC1843009F4F0C008F4B4C0853047
S1132E1009F422C123C1E091EE4AF0E0E457FF4BEC
S1132E2080818093CE408091024B882319F01092C8
S1132E30CA4008C0E0918A4AF0E0E457FF4B808121
S1132E408093CA408091D64A882309F407C18091AF
S1132E50D74A813051F480918A4A811106C08F5F2C
S1132E6080938A4A1092D74AF9C08091D74A833016
S1132E7009F0F4C080918A4A882309F4EFC0815094
S1132E8080938A4A1092D74AE9C0E0918A4AF0E0D6
S1132E90E457FF4B80818093CA408091024B882382
S1132EA019F01092C94009C0E091034BF0E0E457D7
S1132EB0FF4B80818F5F8093C9408091D64A8823DD
S1132EC009F4CCC08091D74A813051F48091034BEE
S1132ED0893030F48F5F8093034B1092D74ABEC081
S1132EE08091D74A833009F0B9C08091034B88237D
S1132EF009F4B4C081508093034B1092D74AAEC0FA
S1132F00E091034BF0E0E457FF4B80818F5F8093A7
S1132F10C9408091024B882319F01092C84008C020
S1132F20E0918B4AF0E0E457FF4B80818093C840E6
S1132F308091D64A882309F491C08091D74A813080
S1132F4051F480918B4A893030F48F5F80938B4A9F
S1132F501092D74A83C08091D74A833009F07EC04B
S1132F6080918B4A882309F479C0815080938B4ADD
S1132F701092D74A73C0E0918B4AF0E0E457FF4BBC
S1132F8080818093C8408091024B882319F010926D
S1132F90C74008C0E0916A4AF0E0E457FF4B8081E3
S1132FA08093C7408091D64A882309F457C0809102
S1132FB0D74A813051F480916A4A893030F48F5F66
S1132FC080936A4A1092D74A49C08091D74A833085
S1132FD009F044C080916A4A882309F43FC08150B3
S1132FE080936A4A1092D74A39C0E0916A4AF0E065
S1132FF0E457FF4B80818093C7408091024B882324
S113300019F01092CE4008C0E091EE4AF0E0E45787
S1133010FF4B80818093CE408091D64A8823F1F083
S11330208091D74A813051F48091EE4A893030F44E
S11330308F5F8093EE4A1092D74A10C08091D74A8E
S1133040833061F48091EE4A882341F0815080936B
S1133050EE4A1092D74A02C01092D54A0E94780CC8
S113306080918F4A8111BFCE20918A4A80E197E2F4
S1133070289FB001299F700D11244091034B28EE25
S113308033E0429FC001439F900D1124680F791FC4
S113309080918B4A94E6899F600D711D1124809163
S11330A06A4A90E09C01220F331F880F991F880FF2
S11330B0991F880F991F820F931F680F791F8091A2
S11330C0EE4A680F711D6093884A7093894A88E0BC
S11330D090E00E94820FEFE8FAE481E0808311829D
S11330E012821092D54A08952F923F924F925F9286
S11330F06F927F928F929F92AF92BF92CF92DF9204
S1133100EF92FF920F931F93CF93DF93CDB7DEB768
S11331102597CDBFDEBF1092CB408CE090E00E949B
S1133120520F1B012C016093934A3092944A4092AF
S1133130954A5092964A1092974A1092984A109241
S1133140994A10929A4A6894AA24A4F80F2EF7E296
S1133150BF2EF02DC12CD12CE12CF12C00E010E07D
S1133160262F332D442D552D60E070E080E090E053
S11331700E9493362093E04A3093E14A4093E24A16
S11331805093E34A6093E44A7093E54A8093E64A95
S11331909093E74A222D332D442D552D60E070E0A5
S11331A080E090E00E9491360F2EF8EEAF2EF02DC5
S11331B00F2EF3E0BF2EF02D0E94933620930C4C7B
S11331C030930D4C40930E4C50930F4C6093104C25
S11331D07093114C8093124C9093134C222D332DE9
S11331E0442D552D60E070E080E090E00E9491361F
S11331F00F2EF4E6AF2EF02DB12C0E9493362093BF
S1133200FA4A3093FB4A4093FC4A5093FD4A609338
S1133210FE4A7093FF4A8093004B9093014B222DFA
S1133220332D442D552D60E070E080E090E00E9445
S113323091360F2EFAE0AF2EF02D0E949336209394
S1133240C84A3093C94A4093CA4A5093CB4A6093C0
S1133250CC4A7093CD4A8093CE4A9093CF4A222D84
S1133260332D442D552D60E070E080E090E00E9405
S113327091362093074B3093084B4093094B50935E
S11332800A4B60930B4B70930C4B80930D4B9093B4
S11332900E4BF2C281E08093914A8091D54A8230EC
S11332A009F435C130F4882369F0813009F49DC0F4
S11332B0E1C2843009F44DC208F4BAC1853009F47E
S11332C0D7C2D8C2E091074BF091084BE457FF4BAB
S11332D080818093CE408091024B882319F0109214
S11332E0CA400AC0E091E04AF091E14AE457FF4B3A
S11332F080818F5F8093CA408091D64A882309F4E5
S1133300B9C28091D74A8130A9F5F090E04A009182
S1133310E14A1091E24A8091E34A8A838091E44A27
S11333208983B091E54AF091E64AE091E74A2F2D6E
S1133330302F412F5A81682F7B2F8F2F9E2FA7E08C
S11333400E94273709F0B0F4A1E00E9412372093BD
S1133350E04A3093E14A4093E24A5093E34A60934F
S1133360E44A7093E54A8093E64A9093E74A1092C0
S1133370D74A80C28091D74A833009F07BC2F0904B
S1133380E04A0091E14A1091E24A8091E34A8A833B
S11333908091E44A8983B091E54AF091E64AE0914C
S11333A0E74A2F2D302F412F5A81682F7B2F8F2FE3
S11333B09E2FA1E00E94273709F008F45BC2AFEF0B
S11333C00E9412372093E04A3093E14A4093E24A44
S11333D05093E34A6093E44A7093E54A8093E64A43
S11333E09093E74A1092D74A45C2E091E04AF0919F
S11333F0E14AE457FF4B80818F5F8093CA408091FC
S1133400024B882319F01092C94009C0E0910C4C7A
S1133410F0910D4CE457FF4B80818093C94080911B
S1133420D64A882309F426C28091D74A8130A9F567
S1133430F0900C4C00910D4C10910E4C80910F4C5F
S11334408A838091104C8983B091114CF091124C75
S1133450E091134C2F2D302F412F5A81682F7B2F51
S11334608F2F9E2FA8E00E94273709F0B0F4A1E027
S11334700E94123720930C4C30930D4C40930E4C09
S113348050930F4C6093104C7093114C8093124CDA
S11334909093134C1092D74AEDC18091D74A833050
S11334A009F0E8C1F0900C4C00910D4C10910E4CB9
S11334B080910F4C8A838091104C8983B091114C78
S11334C0F091124CE091134C2F2D302F412F5A8143
S11334D0682F7B2F8F2F9E2FA0E00E94273709F49F
S11334E0C9C1AFEF0E94123720930C4C30930D4C9E
S11334F040930E4C50930F4C6093104C7093114CAE
S11335008093124C9093134C1092D74AB3C1E0911C
S11335100C4CF0910D4CE457FF4B80818093C940D3
S11335208091024B882319F01092C84009C0E091A1
S1133530FA4AF091FB4AE457FF4B80818093C840DC
S11335408091D64A882309F495C18091D74A813065
S1133550A9F5F090FA4A0091FB4A1091FC4A809137
S1133560FD4A8A838091FE4A8983B091FF4AF09193
S1133570004BE091014B2F2D302F412F5A81682FA2
S11335807B2F8F2F9E2FA8E00E94273709F0B0F4DD
S1133590A1E00E9412372093FA4A3093FB4A4093E9
S11335A0FC4A5093FD4A6093FE4A7093FF4A80930D
S11335B0004B9093014B1092D74A5CC18091D74A3B
S11335C0833009F057C1F090FA4A0091FB4A1091F8
S11335D0FC4A8091FD4A8A838091FE4A8983B09196
S11335E0FF4AF091004BE091014B2F2D302F412FDA
S11335F05A81682F7B2F8F2F9E2FA0E00E942737A0
S113360009F438C1AFEF0E9412372093FA4A30937D
S1133610FB4A4093FC4A5093FD4A6093FE4A7093E0
S1133620FF4A8093004B9093014B1092D74A22C1DA
S1133630E091FA4AF091FB4AE457FF4B8081809372
S1133640C8408091024B882319F01092C74009C0EA
S1133650E091C84AF091C94AE457FF4B80818093B6
S1133660C7408091D64A882309F404C18091D74A7F
S11336708130A9F5F090C84A0091C94A1091CA4A0C
S11336808091CB4A8A838091CC4A8983B091CD4A78
S1133690F091CE4AE091CF4A2F2D302F412F5A81FD
S11336A0682F7B2F8F2F9E2FA8E00E94273709F0C9
S11336B0B0F4A1E00E9412372093C84A3093C94A5B
S11336C04093CA4A5093CB4A6093CC4A7093CD4AF4
S11336D08093CE4A9093CF4A1092D74ACBC0809120
S11336E0D74A833009F0C6C0F090C84A0091C94A4D
S11336F01091CA4A8091CB4A8A838091CC4A8983AB
S1133700B091CD4AF091CE4AE091CF4A2F2D302F7F
S1133710412F5A81682F7B2F8F2F9E2FA0E00E946C
S1133720273709F4A7C0AFEF0E9412372093C84A85
S11337303093C94A4093CA4A5093CB4A6093CC4AC7
S11337407093CD4A8093CE4A9093CF4A1092D74A31
S113375091C0E091C84AF091C94AE457FF4B808177
S11337608093C7408091024B882319F01092CE4079
S113377009C0E091074BF091084BE457FF4B80815F
S11337808093CE408091D64A882309F473C08091F7
S1133790D74A8130A9F5F090074B0091084B10915E
S11337A0094B80910A4B8A8380910B4B8983B0919A
S11337B00C4BF0910D4BE0910E4B2F2D302F412FE0
S11337C05A81682F7B2F8F2F9E2FA8E00E942737C6
S11337D009F0B0F4A1E00E9412372093074B309314
S11337E0084B4093094B50930A4B60930B4B7093D7
S11337F00C4B80930D4B90930E4B1092D74A3AC0CA
S11338008091D74A8330B1F5F090074B0091084B73
S11338101091094B80910A4B8A8380910B4B8983C9
S1133820B0910C4BF0910D4BE0910E4B2F2D302F9E
S1133830412F5A81682F7B2F8F2F9E2FA0E00E944B
S11338402737C1F0AFEF0E9412372093074B309314
S1133850084B4093094B50930A4B60930B4B709366
S11338600C4B80930D4B90930E4B1092D74A02C091
S11338701092D54A0E94780C80918F4A81110ACD0A
S11338806894AA24A4F80F2EF7E2BF2EF02DC12CC1
S1133890D12CE12CF12C00E010E02091E04A309191
S11338A0E14A4091E24A5091E34A6091E44A7091BE
S11338B0E54A8091E64A9091E74A0E943836622EA2
S11338C0732E842E952E6D8379838A839B83E09156
S11338D00C4C50900D4C40900E4C30900F4C20905E
S11338E0104C8091114C8C83B091124CA091134CCC
S11338F02E2F352D442D532D622D782F8B2F9A2F5B
S113390002E00E94F036A22EB32EC42ED52EE62E4F
S1133910F72EF82F192F05E00E94F0360F2F0E9482
S11339201E37AE2EB52CC42CD32CE22CFC800B2FCE
S11339301A2F0E94093703E00E94F036A22EB32EFC
S1133940C42ED52EE62EF72E082F192F262D372D0F
S1133950482D592D6D8179818A819B810E94093777
S1133960222E332E442E552E662E772E89839A834B
S11339702091FA4A3091FB4A4091FC4A5091FD4A09
S11339806091FE4A7091FF4A8091004B9091014BE7
S113399002E00E94F036822E932E4C835B83B62F76
S11339A0A72FF82FE92F0E94F036A22EB32EC42E93
S11339B0D52EE62EF72E082F192F282D392D4C81C0
S11339C05B816B2F7A2F8F2F9E2F0E940937822EB7
S11339D0932E4C835B83B62FA72FF82FE92F02E099
S11339E00E94F036A22EB32EC42ED52EE62EF72E2C
S11339F0082F192F282D392D4C815B816B2F7A2F9D
S1133A008F2F9E2F0E940937A22EB32EC42ED52E9F
S1133A10E62EF72E082F192F222D332D442D552D48
S1133A20662D772D89819A810E940937222E332EA3
S1133A30442E552E662E772E89839A832091C84A68
S1133A403091C94A4091CA4A5091CB4A6091CC4ABC
S1133A507091CD4A8091CE4A9091CF4A01E00E9464
S1133A60F036822E932E4C835B83B62FA72FF82F2C
S1133A70E92F02E00E94F036A22EB32EC42ED52EDA
S1133A80E62EF72E082F192F282D392D4C815B8116
S1133A906B2F7A2F8F2F9E2F0E940937A22EB32EC1
S1133AA0C42ED52EE62EF72E082F192F222D332DB6
S1133AB0442D552D662D772D89819A810E940937D1
S1133AC0A090074BB090084BC090094BD0900A4B84
S1133AD0E0900B4BF0900C4B00910D4B10910E4B62
S1133AE00E9409372093934A3093944A4093954A0D
S1133AF05093964A6093974A7093984A8093994A50
S1133B0090939A4A642F752F422F532F8CE090E0A4
S1133B100E949F0FEFE8FAE481E080831182128211
S1133B201092D54A2596CDBFDEBFDF91CF911F916C
S1133B300F91FF90EF90DF90CF90BF90AF909F9048
S1133B408F907F906F905F904F903F902F9008954B
S1133B50CF93DF93D2C01092B84A1092B94A109210
S1133B60B64A8091D64A882309F48EC08091D74AF8
S1133B70813061F48091EF4A9091F04A01968093EC
S1133B80EF4A9093F04A1092D74A0FC08091D74AD7
S1133B90833059F48091EF4A9091F04A01978093D1
S1133BA0EF4A9093F04A1092D74A2091EF4A30910D
S1133BB0F04A33230CF1E3ECF0E41782C90164E624
S1133BC070E00E94C035DB01A457BF4B4C91468383
S1133BD0CAE0D0E0BE010E94C035DB01A457BF4B50
S1133BE08C918583C901BE010E94C035DC01A457B4
S1133BF0BF4B8C91848348C02195A3ECB0E482E050
S1133C0017968C93179789E22802812D11248595A4
S1133C10859585958595922F990F990B891BE82F8A
S1133C20082E000CFF0BE457FF4B308116963C9393
S1133C301697322F44E6849F3019112487E6380200
S1133C40E12D1124E595E59537FDE3950E2E000C45
S1133C50FF0BE457FF4B308115963C9315972802D0
S1133C60812D112485958595891B880F982F990F8F
S1133C70990F890FE22FE81B0E2E000CFF0BE4575F
S1133C80FF4B808114968C938091EF4A9091F04A77
S1133C908093E94A9093EA4A0E941116A0E0B0E0AA
S1133CA08093A14A9093A24AA093A34AB093A44AB2
S1133CB00097A105B105C9F0E0EAFAE44181528117
S1133CC0638174818091E94A9091EA4A092E000C3B
S1133CD0AA0BBB0B840F951FA61FB71F818392836A
S1133CE0A383B4830E945A1406C0892B8A2B8B2B7E
S1133CF011F40E945A140E94780C80918F4A8823F0
S1133D0021F08091904A811126CF6091EF4A709101
S1133D10F04A8AE090E00E94820FDF91CF910895EB
S1133D208F929F92AF92BF92CF92DF92EF92FF92C7
S1133D301092CB4086E090E00E94470F6C01E12C8A
S1133D40F12CC092F34AD092F44AE092F54AF092F0
S1133D50F64AC701B60128EE33E040E050E00E9485
S1133D60D4352093F3400F2EF4E68F2E912CA12C02
S1133D70B12CF02DA50194010E94D4352093E84A7A
S1133D80C701B601A50194010E94D4350F2EFAE0B3
S1133D908F2E912CA12CB12CF02DA50194010E9401
S1133DA0D4352093F24AC701B601A50194010E94BB
S1133DB0D4356093B54AFFC081E08093914A8091E5
S1133DC0D54A823009F482C030F4882359F0813016
S1133DD009F442C0EEC0833009F4B2C0843009F45F
S1133DE0E6C0E7C0E091B54AF0E0E457FF4B8081BC
S1133DF08093C7408091024B882319F01092CA40E7
S1133E0008C0E091F340F0E0E457FF4B80818093D9
S1133E10CA408091D64A882309F4CBC08091D74AFE
S1133E20813051F48091F340811106C08F5F8093FB
S1133E30F3401092D74ABDC08091D74A833009F02D
S1133E40B8C08091F340882309F4B3C081508093B3
S1133E50F3401092D74AADC0E091F340F0E0E4574C
S1133E60FF4B80818093CA408091024B882319F0D4
S1133E701092C94008C0E091E84AF0E0E457FF4BD3
S1133E8080818093C9408091D64A882309F491C0E7
S1133E908091D74A813051F48091E84A853030F4DA
S1133EA08F5F8093E84A1092D74A83C08091D74AA3
S1133EB0833009F07EC08091E84A882309F479C0F0
S1133EC081508093E84A1092D74A73C0E091E84A3F
S1133ED0F0E0E457FF4B80818093C9408091024B0E
S1133EE0882319F01092C84008C0E091F24AF0E02B
S1133EF0E457FF4B80818093C8408091D64A882341
S1133F0009F457C08091D74A813051F48091F24A24
S1133F10893030F48F5F8093F24A1092D74A49C0B7
S1133F208091D74A833009F044C08091F24A8823B3
S1133F3009F43FC081508093F24A1092D74A39C0A5
S1133F40E091F24AF0E0E457FF4B80818093C8404F
S1133F508091024B882319F01092C74008C0E09169
S1133F60B54AF0E0E457FF4B80818093C7408091CD
S1133F70D64A8823F1F08091D74A813051F4809158
S1133F80B54A893030F48F5F8093B54A1092D74A8E
S1133F9010C08091D74A833061F48091B54A882358
S1133FA041F081508093B54A1092D74A02C01092D2
S1133FB0D54A0E94780C80918F4A8111FDCE4091A0
S1133FC0F34028EE33E0429FC001439F900D11243B
S1133FD0AC01990F660B770B8091E84A24E6829F27
S1133FE0C0011124092E000CAA0BBB0B840F951FD2
S1133FF0A61FB71F2091F24A30E0B901660F771F60
S1134000220F331F220F331F220F331F620F731F20
S1134010AB01770F660B770B840F951FA61FB71F95
S11340202091B54ABC01CD01620F711D811D911D06
S11340306093F34A7093F44A8093F54A9093F64A56
S113404086E090E00E94820FEFE8FAE481E080834A
S1134050118212821092D54AFF90EF90DF90CF9098
S1134060BF90AF909F908F9008954CE062E080E005
S11340700E94CA0543C0E3ECF0E417828AE182831C
S11340808AE281838EE1808316822091044B8DEC39
S1134090289F812D1124869586958695A82FB0E0BA
S11340A0A457BF4B9C919583880F982F990F990F14
S11340B0890FA22FA81BB0E0A457BF4B8C91848317
S11340C010868091D64A8823B9F08091D74A8130EE
S11340D041F4243030F4220F2093044B1092D74A39
S11340E00BC08091D74A833039F4223028F02695CA
S11340F02093044B1092D74A0E94780C80918F4AE7
S1134100882321F08091904A8111B5CF6091044BAE
S113411085E090E00E945F0F08954CE062E080E04B
S11341200E94CA0543C0E3ECF0E4138280E6828374
S11341308AE781831082178216822091604A8DEC6F
S1134140289F812D1124869586958695A82FB0E009
S1134150A457BF4B9C919583880F982F990F990F63
S1134160890FA22FA81BB0E0A457BF4B8C91848366
S113417010868091D64A8823B9F08091D74A81303D
S113418041F42C3330F42F5F2093604A1092D74AC5
S11341900BC08091D74A833039F4222329F021506F
S11341A02093604A1092D74A0E94780C80918F4ADB
S11341B0882321F08091904A8111B5CF6091604AA3
S11341C084E090E00E945F0F08954F925F926F9297
S11341D07F928F929F92AF92BF92CF92DF92EF9293
S11341E0FF920F931F93CF93DF931092904A4CE06A
S11341F062E080E00E94CA0584E090E00E943D0FE6
S11342008093604A85E090E00E943D0F8093044BC8
S113421086E090E00E94470FA0E0B0E08093F34A6C
S11342209093F44AA093F54AB093F64A8CE090E058
S11342300E94520FDC01CB018093934A9093944ADD
S1134240A093954AB093964A1092974A1092984A2E
S11342501092994A10929A4A88E090E00E94470F7F
S11342608093884A9093894A8AE090E00E94470F9D
S11342708093EF4A9093F04A4090F34A5090F44A66
S11342806090F54A7090F64AC301B20128EE33E01B
S113429040E050E00E94D4352093F3400F2EF4E622
S11342A08F2E912CA12CB12CF02DA50194010E94EC
S11342B0D4352093E84AC301B201A50194010E94B8
S11342C0D4350F2EFAE08F2E912CA12CB12CF02D89
S11342D0A50194010E94D4352093F24AC301B2018E
S11342E0A50194010E94D4356093B54A4090934A45
S11342F05090944A6090954A7090964A8090974A5C
S11343009090984AD091994AC0919A4A6894AA2464
S1134310A4F80F2EF7E2BF2EF02DC12CD12CE12CE6
S1134320F12C00E010E0242D352D462D572D682D5D
S1134330792D8D2F9C2F0E9493362093E04A309341
S1134340E14A4093E24A5093E34A6093E44A70930B
S1134350E54A8093E64A9093E74A242D352D462D6D
S1134360572D682D792D8D2F9C2F0E9491360F2E5D
S1134370F8EEAF2EF02D0F2EF3E0BF2EF02D0E949D
S1134380933620930C4C30930D4C40930E4C509329
S11343900F4C6093104C7093114C8093124C90937B
S11343A0134C242D352D462D572D682D792D8D2F09
S11343B09C2F0E9491360F2EF4E6AF2EF02DB12CD7
S11343C00E9493362093FA4A3093FB4A4093FC4A66
S11343D05093FD4A6093FE4A7093FF4A8093004BCA
S11343E09093014B242D352D462D572D682D792D75
S11343F08D2F9C2F0E9491360F2EFAE0AF2EF02DB8
S11344000E9493362093C84A3093C94A4093CA4ABB
S11344105093CB4A6093CC4A7093CD4A8093CE4A52
S11344209093CF4A242D352D462D572D682D792D67
S11344308D2F9C2F0E9491362093074B3093084B6D
S11344404093094B50930A4B60930B4B70930C4B66
S113445080930D4B90930E4B2091884A3091894A5A
S1134460C90160E177E20E94C03560938A4AE8EEB0
S1134470F3E0BF010E94C0356093034BC901BF0143
S11344800E94C035E4E6F0E0BF010E94C0356093AD
S11344908B4AC901BF010E94C035EAE0F0E0BF01C8
S11344A00E94C03560936A4AC901BF010E94C035A9
S11344B08093EE4AC1E09DC18091D64A882399F049
S11344C08091D74A813031F4C73020F4CF5F109205
S11344D0D74A09C08091D74A833029F4CC2319F0F4
S11344E0C1501092D74AEC2FF0E0E457FF4B808183
S11344F08093CB408C2F90E08830910508F077C1F1
S1134500FC01E058FC4F0C941536E3ECF0E4138204
S1134510128280E681838AE7808317821682409123
S1134520604A8DEC489F812D112486958695869549
S1134530282F30E024573F4BD9019C919583880F55
S1134540982F990F990F890FA42FA81BB0E0A45797
S1134550BF4B8C91848313868091904A882309F4FD
S113456046C10E948D2043C1E3ECF0E413828AE14A
S113457082838AE281838EE180831782168240914E
S1134580044B8DEC489F812D112486958695869544
S1134590282F30E024573F4BD9019C919583880FF5
S11345A0982F990F990F890FA42FA81BB0E0A45737
S11345B0BF4B8C91848313868091904A882309F49D
S11345C016C10E94352013C1E3ECF0E48CE9838327
S11345D08AEF82839EEC91838083A091F340B0E0C4
S11345E0A457BF4B8C918783A091E84AB0E0A457AD
S11345F0BF4B8C918683A091F24AB0E0A457BF4B85
S11346008C918583A091B54AB0E0A457BF4B8C919F
S1134610848313868091904A882309F4E8C00E9419
S1134620901EE5C0E3ECF0E4138212828AE08183F9
S11346308AE38083A091E04AB091E14AA457BF4B3A
S11346408C918F5F8783A0910C4CB0910D4CA45733
S1134650BF4B8C918683A091FA4AB091FB4AA45730
S1134660BF4B8C918583A091C84AB091C94AA45785
S1134670BF4B8C918483A091074BB091084BA457F6
S1134680BF4B8C9183878091904A882309F4AFC0F3
S11346900E947418ACC0E3ECF0E480E683838CEEF3
S11346A0828382E0818386EB8083A0918A4AB0E092
S11346B0A457BF4B8C918783A091034BB0E0A457C0
S11346C0BF4B8C918F5F8683A0918B4AB0E0A45737
S11346D0BF4B8C918583A0916A4AB0E0A457BF4B2D
S11346E08C918483A091EE4AB0E0A457BF4B8C9187
S11346F083878091904A882309F479C00E94BE166A
S113470076C0E3ECF0E486EB83838AE182838AEF6C
S1134710818380E680832091EF4A3091F04A3323ED
S1134720FCF01782C90164E670E00E94C035DB0129
S1134730A457BF4B4C9146830AE010E0B8010E9495
S1134740C035DB01A457BF4B8C918583C901B801E7
S11347500E94C035DC01A457BF4B8C9184833BC0BD
S11347602195A3ECB0E482E017968C93179789E225
S1134770289F812D112482958F70E82FF0E0E45753
S1134780FF4B908116969C931697E22F94E6899F8F
S1134790E01911248DECE89FE12D1124E695E695AE
S11347A0E695F0E0E457FF4B908115969C9315979E
S11347B0289F812D1124869586958695880F982F9C
S11347C0990F990F890F281BE22FF0E0E457FF4B54
S11347D0808114968C931092CE408091904A8823C5
S11347E031F00E94A81D03C0C1E001C0C6E00E94D0
S11347F0780C80918F4A81115FCEDF91CF911F9108
S11348000F91FF90EF90DF90CF90BF90AF909F906B
S11348108F907F906F905F904F9008951BBEFC0126
S113482064BF40830895682F88E60E941814982F67
S113483092959F70990F292F220F220F920F8F703C
S1134840890F0895CF93DF9386E00E941324C0EC70
S1134850DAE48E8385E00E9413248D8384E00E9431
S113486013248C8383E00E9413248B8382E00E94B0
S113487013248A8381E00E941324898380E00E94A8
S113488013248883DF91CF9108959DEC699F912D26
S1134890112496959695969520E1929FA001112456
S11348A0990F292F220F220F920F691B6F70462B2D
S11348B0682F88E60E94D4130895962F482F50E05D
S11348C04730510518F5FA01E857FC4F0C9415369A
S11348D09C33E8F090E01BC09C33C8F090E017C014
S11348E09831A8F090E013C02FEF290F273078F00B
S11348F091E00DC0903258F091E009C09D3038F03D
S113490091E005C0911103C095E101C090E0692FC9
S11349100E9445240895CF93DF931092904A4CE06F
S113492062E080E00E94CA050E942224C0ECDAE41E
S1134930AE818DECA89F912D112496959695969510
S1134940E92FF0E0E457FF4B2081E3ECF0E423830C
S1134950990F292F220F220F920FA91BB0E0A45701
S1134960BF4B9C9192834D81489F912D1124969524
S113497096959695292F30E024573F4BD9012C91D9
S11349802183990F292F220F220F920FA42FA91BE5
S1134990B0E0A457BF4B9C9190834C81489F912DCC
S11349A01124969596959695292F30E024573F4BE0
S11349B0D9012C912783990F292F220F220F920FAF
S11349C0A42FA91BB0E0A457BF4B9C9196834A81A6
S11349D0489F912D1124969596959695292F30E010
S11349E024573F4BD9012C912583990F292F220F4E
S11349F0220F920FA42FA91BB0E0A457BF4B9C9188
S1134A0094834981489F912D112496959695969566
S1134A10292F30E024573F4BD9012C912387990F3C
S1134A20292F220F220F920FA42FA91BB0E0A45705
S1134A30BF4B9C919287A881A89F812D11248695B4
S1134A4086958695C82FD0E0C457DF4B988191870F
S1134A50880F982F990F990F890FA81BB0E0A457BE
S1134A60BF4B8C9180878AC281E08093914AE09108
S1134A70D54A8E2F90E08730910508F07DC2FC0165
S1134A80E157FC4F0C941536E091C04A8DECE89F39
S1134A90812D1124869586958695A82FB0E0A4577C
S1134AA0BF4B9C91A3ECB0E419969C931997880F83
S1134AB0982F990F990F890FE81BF0E0E457FF4BEB
S1134AC0808118968C9318978091024B882321F04B
S1134AD0FD01138212821FC0E091C64A8DECE89F4B
S1134AE0812D1124869586958695A82FB0E0A4572C
S1134AF0BF4B9C91A3ECB0E413969C931397880F3F
S1134B00982F990F990F890FE81BF0E0E457FF4B9A
S1134B10808112968C938091D64A882309F42CC202
S1134B208091D74A813051F48091C64A833630F45B
S1134B308F5F8093C64A1092D74A1EC28091D74A8B
S1134B40833009F019C28091C64A882309F414C23B
S1134B5081508093C64A1092D74A0EC2E091C64A49
S1134B608DECE89F812D1124869586958695A82F36
S1134B70B0E0A457BF4B9C91A3ECB0E413969C9374
S1134B801397880F982F990F990F890FE81BF0E05E
S1134B90E457FF4B808112968C9312978091024BBD
S1134BA0882321F0FD01118210821EC0E091C54AC4
S1134BB08DECE89F812D1124869586958695A82FE6
S1134BC0B0E0A457BF4B9C91A3ECB0E411969C9326
S1134BD01197880F982F990F990F890FE81BF0E010
S1134BE0E457FF4B80818C938091D64A882309F443
S1134BF0C3C18091D74A813051F48091C54A8C3029
S1134C0030F48F5F8093C54A1092D74AB5C1809122
S1134C10D74A833009F0B0C18091C54A823008F484
S1134C20ABC181508093C54A1092D74AA5C1E09187
S1134C30C54A8DECE89F812D11248695869586952D
S1134C40A82FB0E0A457BF4B9C91A3ECB0E41196FD
S1134C509C931197880F982F990F990F890FE81B30
S1134C60F0E0E457FF4B80818C938091024B8823C2
S1134C7021F0FD01178216821FC0E091C44A8DEC19
S1134C80E89F812D1124869586958695A82FB0E0FE
S1134C90A457BF4B9C91A3ECB0E417969C93179731
S1134CA0880F982F990F990F890FE81BF0E0E457AC
S1134CB0FF4B808116968C938091D64A882309F401
S1134CC05BC18091D74A813051F48091C44A8F31BD
S1134CD030F48F5F8093C44A1092D74A4DC18091BB
S1134CE0D74A833009F048C18091C44A823008F41D
S1134CF043C181508093C44A1092D74A3DC1E09188
S1134D00C44A8DECE89F812D11248695869586955D
S1134D10A82FB0E0A457BF4B9C91A3ECB0E4179626
S1134D209C931797880F982F990F990F890FE81B59
S1134D30F0E0E457FF4B808116968C931697809190
S1134D40024B882321F0FD01158214821FC0E091DB
S1134D50C24A8DECE89F812D11248695869586950F
S1134D60A82FB0E0A457BF4B9C91A3ECB0E41596D8
S1134D709C931597880F982F990F990F890FE81B0B
S1134D80F0E0E457FF4B808114968C938091D64ACF
S1134D90882309F4F1C08091D74A813051F480917D
S1134DA0C24A873130F48F5F8093C24A1092D74A47
S1134DB0E3C08091D74A833009F0DEC08091C24AB3
S1134DC0882309F4D9C081508093C24A1092D74AEB
S1134DD0D3C0E091C24A8DECE89F812D11248695C1
S1134DE086958695A82FB0E0A457BF4B9C91A3EC61
S1134DF0B0E415969C931597880F982F990F990FE7
S1134E00890FE81BF0E0E457FF4B808114968C93E4
S1134E1014978091024B882321F0FD01138612869A
S1134E201FC0E091C14A8DECE89F812D1124869525
S1134E3086958695A82FB0E0A457BF4B9C91A3EC10
S1134E40B0E41B969C931B97880F982F990F990F8A
S1134E50890FE81BF0E0E457FF4B80811A968C938E
S1134E608091D64A882309F487C08091D74A81303B
S1134E7051F48091C14A8B3330F48F5F8093C14ADF
S1134E801092D74A79C08091D74A833009F074C010
S1134E908091C14A882309F46FC081508093C14A2C
S1134EA01092D74A69C0E091C14A8DECE89F812DE8
S1134EB01124869586958695A82FB0E0A457BF4BFC
S1134EC09C91A3ECB0E41B969C931B97880F982F9E
S1134ED0990F990F890FE81BF0E0E457FF4B80818D
S1134EE01A968C931A978091024B882321F0FD0126
S1134EF0118610861FC0E091C04A8DECE89F812D79
S1134F001124869586958695A82FB0E0A457BF4BAB
S1134F109C91A3ECB0E419969C931997880F982F51
S1134F20990F990F890FE81BF0E0E457FF4B80813C
S1134F3018968C938091D64A8823F1F08091D74AB1
S1134F40813051F48091C04A8B3330F48F5F809369
S1134F50C04A1092D74A10C08091D74A833061F476
S1134F608091C04A882341F081508093C04A1092B6
S1134F70D74A02C01092D54A0E94780C80918F4A79
S1134F80811172CDC0ECDAE46E8186E00E945D246A
S1134F906D8185E00E945D246C8184E00E945D2423
S1134FA06A8182E00E945D24698181E00E945D241F
S1134FB0688180E00E945D24DF91CF91089580E0B4
S1134FC00895E0E4FAE081E0828787E490E086A334
S1134FD097A38FE0808380E00895E0E2F8E080E02A
S1134FE098E18087918784E9858380EC868380E0DB
S1134FF008959091240895FFFCCF8093220881E0C6
S113500090E00895E0E6F8E080E098E180879187F9
S113501084E9858380EC868380E008959091640818
S113502095FFFCCF8093620881E090E008950F9390
S11350301F93CF93DF938C01C0E0D0E007C0F80149
S1135040EC0FFD1F80810E940E282196F80101902B
S11350500020E9F73197E01BF10BCE17DF0778F357
S1135060DF91CF911F910F9108958AEFE0E1FBE466
S1135070DF011D928A95E9F71092F94A08954AE0F2
S113508068ED80E091E00E940E2480E00895CF93C3
S1135090C0E0C130A1F028F0C23069F1C33081F121
S11350A033C089E990E40E9417282FEF8FEF9CE228
S11350B0215080409040E1F700C0000025C08DE9F8
S11350C090E40E9417288091D24A805D0E940E28A5
S11350D08091F540805D0E940E2880918D4A805D0C
S11350E00E940E288091684A805D0E940E288DE0FF
S11350F00E940E2809C082EA90E40E94172804C086
S113510088EA90E40E94172880E09DC0C11125C060
S1135110282F30E0F901E05FF44B90819F34E9F4EB
S1135120F901EF5EF44B90819B34B9F4F901EE5E22
S1135130F44B90819D3089F483E090E00E943B041D
S11351402FEF8FE392E0215080409040E1F700C0C0
S113515000000E943528C1E079C0C13029F5282F0C
S113516030E0F901E05FF44B90819F34E9F4F901F8
S1135170EF5EF44B90819B34B9F4F901EE5EF44B8D
S113518090819D3089F483E090E00E943B042FEFEE
S11351908FE392E0215080409040E1F700C000008E
S11351A00E943528C2E052C0C23029F5282F30E0D1
S11351B0F901E05FF44B90819F34E9F4F901EF5E6B
S11351C0F44B90819B34B9F4F901EE5EF44B908179
S11351D09D3089F483E090E00E943B042FEF8FE33D
S11351E092E0215080409040E1F700C000000E940E
S11351F03528C3E02BC0C33029F5282F30E0F9014E
S1135200E05FF44B90819F34E9F4F901EF5EF44BD5
S113521090819B34B9F4F901EE5EF44B90819D309A
S113522089F483E090E00E943B042FEF8FE392E047
S1135230215080409040E1F700C000000E943528D2
S1135240C5E004C08F5F8A3F08F460CF0E94780CE9
S1135250C53009F01ECFCF9108956F927F928F923F
S11352609F92BF92CF92DF92EF92FF920F931F9380
S1135270CF93DF934CE062E081E00E94CA05809006
S1135280EB4A9090EC4A9401329522952F70232793
S11352903F702327A7E4B3E00E941E366C01D69426
S11352A0C794D694C794D694C794DC2D20E137E2F2
S11352B0C29EC001C39E900DD29E900D11249401F4
S11352C0281B390B369527953695279536952795BE
S11352D0A5ECB0E20E941E367C01F694E794F694A5
S11352E0E794F694E794F694E794BE2C94013695EB
S11352F0279536952795369527950E941E369295C3
S113530082958F7089279F70892748EE53E0849F88
S11353109001859F300D949F300D1124C401821B90
S1135320930B9C013695279536952795ABE7B4E109
S11353300E941E363C0176946794062D940136959E
S11353402795369527950E941E369C0136952795FC
S113535044E6429FC001439F900D11249401281BF1
S1135360390BADECBCEC0E941E36AC01569547954A
S11353705695479556954795C42F94010E941E361D
S11353809695879596958795969587959C01220F76
S1135390331F880F991F880F991F880F991F820F39
S11353A0931F9401281B390BC901122FD601A4574E
S11353B0BF4B2C91A3ECB0E417962C93179797014D
S11353C0332724573F4BF901208116962C931697C7
S11353D0F301FF27E457FF4B208115962C93159773
S11353E05527FA01E457FF4B208114962C93149708
S11353F09927FC01E457FF4B80811B968C9377C15E
S113540081E08093914A8091D54A823009F489C021
S113541028F4882361F08130D1F167C1843009F424
S113542018C108F4C9C0853009F45DC15EC1E12F1B
S1135430F0E0E457FF4B80818093CE408091024B93
S1135440882319F01092CA4007C0ED2FF0E0E4570A
S1135450FF4B80818093CA408091D64A882309F407
S113546044C18091D74A813031F4D63020F4DF5FD3
S11354701092D74A3AC18091D74A833009F035C196
S1135480DD2309F432C1D1501092D74A2EC1ED2F39
S1135490F0E0E457FF4B80818093CA408091024B37
S11354A0882319F01092C94007C0EB2DF0E0E457AF
S11354B0FF4B80818093C9408091D64A882309F4A8
S11354C014C1D630B8F08091D74A813039F4F4E071
S11354D0FB1520F0B3941092D74A07C18091D74AA4
S11354E0833009F002C1BB2009F4FFC0BA941092C2
S11354F0D74AFBC08091D74A813039F428E02B1574
S113550020F0B3941092D74AF0C08091D74A8330E8
S113551009F0EBC0BB2009F4E8C0BA941092D74A52
S1135520E4C0EB2DF0E0E457FF4B80818093C94049
S11355308091024B882319F01092C84007C0E02FD5
S1135540F0E0E457FF4B80818093C8408091D64AB5
S1135550882309F4CAC0D630C8F034E03B15B0F44F
S11355608091D74A813031F4053020F40F5F1092D6
S1135570D74ABBC08091D74A833009F0B6C0002314
S113558009F4B3C001501092D74AAFC08091D74AF2
S1135590813031F4093020F40F5F1092D74AA5C04E
S11355A08091D74A833009F0A0C0002309F49DC03C
S11355B001501092D74A99C0E02FF0E0E457FF4B16
S11355C080818093C8408091024B882319F0109207
S11355D0C74007C0EC2FF0E0E457FF4B8081809375
S11355E0C7408091D64A882309F47FC0D630D8F0CA
S11355F044E04B15C0F40530B0F08091D74A8130B7
S113560031F4C33020F4CF5F1092D74A6EC080913A
S1135610D74A833009F069C0CC2309F466C0C1506D
S11356201092D74A62C08091D74A813031F4C93090
S113563020F4CF5F1092D74A58C08091D74A833064
S113564009F053C0CC2309F450C0C1501092D74A7A
S11356504CC0EC2FF0E0E457FF4B80818093C740AF
S11356608091024B882319F01092CE4007C0E12F9D
S1135670F0E0E457FF4B80818093CE408091D64A7E
S1135680882399F1D630D8F084E08B15C0F4053026
S1135690B0F0C330A0F08091D74A813031F4153096
S11356A020F41F5F1092D74A20C08091D74A8330DC
S11356B0E1F41123D1F011501092D74A16C0809111
S11356C0D74A813031F4193020F41F5F1092D74A41
S11356D00CC08091D74A833041F4112331F011502A
S11356E01092D74A02C01092D54A0E94780C809139
S11356F08F4A811185CE20E137E2D29FC001D39F2A
S1135700900D112448EE53E0B49E9001B59E300DE7
S11357101124820F931F9C01E4E60E9F200D311D7E
S11357201124D0E0CE01880F991FCC0FDD1FCC0FC0
S1135730DD1FCC0FDD1F8C0F9D1F820F931F810F68
S1135740911D8093EB4A9093EC4A292F22952F7058
S11357502093D24A1092D34A9C013F703093F54073
S11357601092F6409C013327329522952F702327FF
S11357703F70232720938D4A30938E4A8F70992748
S11357808093684A9093694A0E944728EFE8FAE4B4
S113579081E08083118212821092D54ADF91CF91E9
S11357A01F910F91FF90EF90DF90CF90BF909F904B
S11357B08F907F906F900895CF93C0E0C130A1F097
S11357C028F0C230D1F1C330E9F140C089E990E456
S11357D00E9417282FEF8FEF9CE2215080409040C9
S11357E0E1F700C0000032C08EEA90E40E9417285E
S11357F0E091674AF0E0EE0FFF1FE65DFF4B80810A
S11358009181992314F481509F4F892F0E940E286F
S1135810E091674AF0E0EE0FFF1FE65DFF4B8081E9
S11358209181907899231CF401979F6F01960E94AF
S11358300E288DE00E940E2809C082EA90E40E949E
S1135840172804C088EA90E40E94172880E09DC0CD
S1135850C11125C0282F30E0F901E05FF44B90819D
S11358609F34E9F4F901EF5EF44B90819B34B9F471
S1135870F901EE5EF44B90819D3089F483E090E071
S11358800E943B042FEF8FE392E021508040904030
S1135890E1F700C000000E943528C1E079C0C130A2
S11358A029F5282F30E0F901E05FF44B90819F3413
S11358B0E9F4F901EF5EF44B90819B34B9F4F901FA
S11358C0EE5EF44B90819D3089F483E090E00E9479
S11358D03B042FEF8FE392E0215080409040E1F7AA
S11358E000C000000E943528C2E052C0C23029F531
S11358F0282F30E0F901E05FF44B90819F34E9F404
S1135900F901EF5EF44B90819B34B9F4F901EE5E3A
S1135910F44B90819D3089F483E090E00E943B0435
S11359202FEF8FE392E0215080409040E1F700C0D8
S113593000000E943528C3E02BC0C33029F5282F6E
S113594030E0F901E05FF44B90819F34E9F4F90110
S1135950EF5EF44B90819B34B9F4F901EE5EF44BA5
S113596090819D3089F483E090E00E943B042FEF06
S11359708FE392E0215080409040E1F700C00000A6
S11359800E943528C5E004C08F5F8A3F08F460CFC9
S11359900E94780CC53009F011CFCF9108954CE0E6
S11359A062E082E00E94CA053DC02091674A8DEC06
S11359B0289F812D1124869586958695E82FF0E001
S11359C0E457FF4B9081A3ECB0E415969C93159794
S11359D0880F982F990F990F890FE22FE81BF0E099
S11359E0E457FF4B808114968C938091D64A882388
S11359F0B9F08091D74A813041F42E3030F42F5FD2
S1135A002093674A1092D74A0BC08091D74A8330BB
S1135A1039F4222329F021502093674A1092D74A5F
S1135A200E94780C8091904A882321F080918F4ABB
S1135A308111BBCF0E94DC2B0895CF93C0E0C1300D
S1135A40A1F028F0C230B1F0C330C9F01CC089E91C
S1135A5090E40E9417282FEF8FEF9CE221508040A2
S1135A609040E1F700C000000EC083EB90E40E9478
S1135A70172809C089EB90E40E94172804C088EA1B
S1135A8090E40E94172880E030C1C11125C0282F5E
S1135A9030E0F901E05FF44B90819F34E9F4F901BF
S1135AA0EF5EF44B90819B34B9F4F901EE5EF44B54
S1135AB090819D3089F483E090E00E943B042FEFB5
S1135AC08FE392E0215080409040E1F700C0000055
S1135AD00E943528C1E00CC1C13009F04EC0282F06
S1135AE030E0F901E05FF44B90819D3009F045C04E
S1135AF0813019F0823049F02FC0F901E15FF44B95
S1135B00808183548093674A27C0F901E15FF44B95
S1135B1080818A3388F4F901E25FF44B208130E01C
S1135B2020533109220F922F990F990F290F820FB9
S1135B3086538093674A10C0F901E25FF44B2081D9
S1135B4030E020533109220F922F990F990F290F1A
S1135B50820F8D538093674A83E090E00E943B0458
S1135B602FEF8FE392E0215080409040E1F700C096
S1135B7000000E943528C2E0BBC0C23009F08DC0CD
S1135B80282F30E0F901E05FF44B90819D3009F05B
S1135B9084C08230A9F018F4813039F06DC08330AC
S1135BA021F1843009F440C067C0F901E15FF44B8E
S1135BB0808190E0C0978093684A9093694A5CC062
S1135BC0F901E25FF44B808190E0C09780938D4AA5
S1135BD090938E4AF901E15FF44B808190E0C09785
S1135BE08093684A9093694A47C0F901E35FF44B94
S1135BF0808190E0C0978093F5409093F640F9013E
S1135C00E25FF44B808190E0C09780938D4A90933B
S1135C108E4AF901E15FF44B808190E0C097809354
S1135C20684A9093694A28C0F901E45FF44B808183
S1135C3090E0C0978093D24A9093D34AF901E35FEE
S1135C40F44B808190E0C0978093F5409093F640A8
S1135C50F901E25FF44B808190E0C09780938D4A14
S1135C6090938E4AF901E15FF44B808190E0C097F4
S1135C708093684A9093694A83E090E00E943B04D1
S1135C802FEF8FE392E0215080409040E1F700C075
S1135C9000000E943528C3E02BC0C33029F5282F0B
S1135CA030E0F901E05FF44B90819F34E9F4F901AD
S1135CB0EF5EF44B90819B34B9F4F901EE5EF44B42
S1135CC090819D3089F483E090E00E943B042FEFA3
S1135CD08FE392E0215080409040E1F700C0000043
S1135CE00E943528C5E004C08F5F8A3F08F4CDCEFA
S1135CF00E94780CC53009F0A2CECF910895EF929E
S1135D00FF920F931F93CF931092904A4CE062E05E
S1135D1080E00E94CA050E941D2DC1E049C1809106
S1135D20D64A882399F08091D74A813031F4C33020
S1135D3020F4CF5F1092D74A09C08091D74A8330AC
S1135D4029F4CC2319F0C1501092D74AEC2FF0E07B
S1135D50E457FF4B80818093CB40C13041F008F47D
S1135D6024C1C230B9F1C33009F41DC11FC1E3EC31
S1135D70F0E48AED838382E082838AE181838EE288
S1135D808083178216824091674A8DEC489F812D4B
S1135D901124869586958695282F30E024573F4B0D
S1135DA0D9019C919583880F982F990F990F890F8A
S1135DB0A42FA81BB0E0A457BF4B8C9184831386F7
S1135DC0128611868091904A882309F4EFC00E94BC
S1135DD0CF2CECC0E3ECF0E48AED838382E0828391
S1135DE080E681838AE780834091D24A5091D34AE6
S1135DF042955295507F5427407F54278091F54017
S1135E009091F640480F591F42955295507F542760
S1135E10407F542780918D4A90918E4A480F591F94
S1135E2042955295507F5427407F54278091684A69
S1135E309091694A480F591F4093EB4A5093EC4A9A
S1135E407A01F694E794F694E794F694E794F6943A
S1135E50E7949701A7E4B3E00E941E368C011695DF
S1135E6007951695079516950795D801A457BF4B26
S1135E708C91878320E137E2029FC001039F900D3C
S1135E80129F900D11249A01281B390B36952795E2
S1135E903695279536952795A5ECB0E20E941E36D7
S1135EA0929582958F7089279F708927DC01A4576A
S1135EB0BF4B8C9186839A01369527953695279505
S1135EC036952795A5ECB0E20E941E3692958295F0
S1135ED08F7089279F70892768EE73E0869F9001F1
S1135EE0879F300D969F300D1124CA01821B930B9E
S1135EF09C013695279536952795ABE7B4E10E942A
S1135F001E3696958795DC01A457BF4B8C918583EB
S1135F109A013695279536952795ABE7B4E10E940B
S1135F201E369C013695279564E6629FC001639FE7
S1135F30900D11249A01281B390BADECBCEC0E9486
S1135F401E36969587959695879596958795DC0147
S1135F50A457BF4B8C9184839A01ADECBCEC0E9496
S1135F601E369695879596958795969587959C0167
S1135F70220F331F880F991F880F991F880F991FAD
S1135F80820F931F9A01281B390BD901A457BF4BC9
S1135F908C918387128611868091904A882331F0F0
S1135FA00E942D2903C0C1E001C0C2E00E94780C08
S1135FB080918F4A8111B3CECF911F910F91FF90A1
S1135FC0EF9008955058BB27AA270E94FA2F0C94EB
S1135FD074310E94663138F00E946D3120F039F43A
S1135FE09F3F19F426F40C9463310EF4E095E7FB1B
S1135FF00C945D31E92F0E94853158F3BA1762077A
S113600073078407950720F079F4A6F50C94A7315B
S11360100EF4E0950B2EBA2FA02D0B01B9019001BF
S11360200C01CA01A0011124FF27591B99F0593F03
S113603050F4503E68F11A16F040A22F232F342F4B
S11360404427585FF3CF469537952795A795F04099
S11360505395C9F77EF41F16BA0B620B730B840BAE
S1136060BAF09150A1F0FF0FBB1F661F771F881F66
S1136070C2F70EC0BA0F621F731F841F48F48795BE
S113608077956795B795F7959E3F08F0B0CF9395B0
S1136090880F08F09927EE0F9795879508950E9429
S11360A0393108F481E008950E9468300C94743109
S11360B00E946D3158F00E94663140F029F45F3F30
S11360C029F00C945D3151110C94A8310C94633176
S11360D00E94853168F39923B1F3552391F3951BFD
S11360E0550BBB27AA2762177307840738F09F5FF5
S11360F05F4F220F331F441FAA1FA9F335D00E2E62
S11361003AF0E0E832D091505040E695001CCAF7CE
S11361102BD0FE2F29D0660F771F881FBB1F261791
S113612037074807AB07B0E809F0BB0B802DBF0168
S1136130FF2793585F4F3AF09E3F510578F00C9437
S11361405D310C94A8315F3FE4F3983ED4F3869517
S113615077956795B795F7959F5FC9F7880F911D58
S11361609695879597F90895E1E0660F771F881F44
S1136170BB1F621773078407BA0720F0621B730BF7
S1136180840BBA0BEE1F88F7E09508950E94CD307A
S11361906894B1110C94A83108950E948D3188F04F
S11361A09F5798F0B92F9927B751B0F0E1F0660FD7
S11361B0771F881F991F1AF0BA95C9F714C0B13018
S11361C091F00E94A731B1E008950C94A731672F94
S11361D0782F8827B85F39F0B93FCCF38695779547
S11361E06795B395D9F73EF4909580957095619530
S11361F07F4F8F4F9F4F0895E89409C097FB3EF45B
S113620090958095709561957F4F8F4F9F4F9923FF
S1136210A9F0F92F96E9BB279395F695879577957D
S11362206795B795F111F8CFFAF4BB0F11F460FF3D
S11362301BC06F5F7F4F8F4F9F4F16C0882311F095
S113624096E911C0772321F09EE8872F762F05C0A9
S1136250662371F096E8862F70E060E02AF09A9544
S1136260660F771F881FDAF7880F9695879597F939
S11362700895990F0008550FAA0BE0E8FEEF1616D3
S11362801706E807F907C0F012161306E407F50726
S113629098F0621B730B840B950B39F40A2661F09A
S11362A0232B242B252B21F408950A2609F4A1403D
S11362B0A6958FEF811D811D089597F99F6780E84A
S11362C070E060E008959FEF80EC089500240A9444
S11362D01616170618060906089500240A941216BD
S11362E01306140605060895092E0394000C11F4F0
