S01200005069675F5363616C65732E7372656338
S11306000C9417040C9436040C9436040C9436049D
S11306100C9436040C9436040C9436040C9436046E
S11306200C9436040C9436040C9436040C9436045E
S11306300C9436040C9436040C9436040C9436044E
S11306400C9436040C9436040C9436040C9436043E
S11306500C9436040C9436040C9436040C9436042E
S11306600C9436040C9436040C9436040C9436041E
S11306700C9436040C9436040C9436040C94430401
S11306800C9436040C9436040C9436040C943604FE
S11306900C9436040C9436040C9436040C943604EE
S11306A00C9436040C9436040C9436040C942516DD
S11306B00C9436040C9436040C949B040C94360469
S11306C00C9436040C9436040C9436040C943604BE
S11306D00C946F040C9436040C9436040C94360475
S11306E00C9436040C9436040C9436040C9436049E
S11306F00C9436040C9436040C9436040C9436048E
S11307008726162545257525A325DC25122685264D
S1130710F926FD26012705270B270F271327D527A1
S11307203F28A82810297A29E4294B2A6E616E00F3
S1130730696E660000407A10F35A00A0724E1809E0
S11307400010A5D4E80000E87648170000E40B5434
S1130750020000CA9A3B000000E1F5050000809603
S11307609800000040420F000000A0860100000035
S1130770102700000000E8030000000064000000EF
S113078000000A00000000000100000000002C76B8
S1130790D888DC674F0823DFC1DFAE59E1B1B796D3
S11307A0E5E3E453C63AE651997696E8E6C2842630
S11307B0EB898C9B62ED407C6FFCEFBC9C9F40F20C
S11307C0BAA56FA5F490055A2AF75C936B6CF96788
S11307D06DC11BFCE0E40D47FEF520E6B500D0ED4D
S11307E0902E0300943577050080841E08000020B5
S11307F04E0A000000C80C333333330F986E128353
S11308001141EF8D2114893BE65516CFFEE6DB1826
S1130810D1844B381BF77C1D901DA4BBE4242032EB
S113082084725E228100C9F124ECA1E53D271124E4
S11308301FBECFEFCDBFDFE7DEBF11E4A0E0B0E421
S1130840EAE6FAE700E00BBF02C007900D92AA3770
S1130850B107D9F72CE4AAE7B1E401C01D92A53D84
S1130860B207E1F70E94970F0C94333D0C940003F8
S11308700E94B7110895E4E0F4E0908192609083BF
S11308808093A84B08951F920F920FB60F921124D4
S11308900BB60F928F939F93EF93FF93809124084D
S11308A08823E4F780911E4BE82FF0E09091200814
S11308B0E85DF44B9083893110F010921E4B8091C7
S11308C01E4B8F5F80931E4BFF91EF919F918F91F1
S11308D00F900BBE0F900FBE0F901F9018951F9294
S11308E00F920FB60F9211240BB60F928F939F9312
S11308F0EF93FF93809164088823E4F78091B04BD1
S1130900E82FF0E090916008E953F44B90838A3F1C
S113091010F01092B04B8091B04B8F5F8093B04B2E
S1130920FF91EF919F918F910F900BBE0F900FBE8F
S11309300F901F9018951F920F920FB60F921124CB
S11309400BB60F922F933F934F935F936F937F93C5
S11309508F939F93AF93BF93EF93FF9381E0809323
S11309604B0A0E9439050E94DD058091714B81116B
S113097005C0ECE8FBE41182128205C0E1E7FBE468
S11309808081815080838091A84B811106C0E4E06E
S1130990F4E080818D7F808303C081508093A84BD5
S11309A0E1E7FBE4818192810196818392838181D5
S11309B09281803D974020F0E8E4FBE410821182AC
S11309C08091554B8F5F8093554B833348F081E082
S11309D09091B94B911180E08093B94B1092554B93
S11309E0FF91EF91BF91AF919F918F917F916F9103
S11309F05F914F913F912F910F900BBE0F900FBEBF
S1130A000F901F901895CF93C82F80918B4B8130F6
S1130A1019F48C2F0E948A2A80918B4B833019F40D
S1130A208C2F0E949F2A80E090E0CF9108958EE061
S1130A30809300048DE08093200485E58093400436
S1130A4010926004109280048CE08093A00487EFDD
S1130A508093C0041092040410922404109244045D
S1130A6010926404109284041092A4041092C4049A
S1130A70089532E02FC0E4ECF4E080818D7F808320
S1130A8080917C4194E03902F0011124E358FE4B3B
S1130A90E80FF11D808190E0022E02C095958795A4
S1130AA00A94E2F780FF06C0E4ECF4E080818460FD
S1130AB0808305C0E4ECF4E080818B7F8083E4ECE8
S1130AC0F4E08081826080832F5F01C020E02830C1
S1130AD090F231503323D4F7E4ECF4E08081816068
S1130AE0808380818E7F808380917C418130A9F0D6
S1130AF028F0823009F1833071F13BC0E4ECF4E07A
S1130B0080818F7E808380818F7D808380818F7BB5
S1130B1080838081806880832CC0E4ECF4E0808151
S1130B208F7E808380818F7D8083808180648083B9
S1130B3080818F7780831DC0E4ECF4E080818F7E18
S1130B40808380818062808380818F7B80838081A9
S1130B508F7780830EC0E4ECF4E080818061808331
S1130B6080818F7D808380818F7B808380818F775C
S1130B70808380917C418F5F80937C41843010F02E
S1130B8010927C41089516C0E82FF0E0A42FB0E045
S1130B90A95BBE4B2C91EE0FFF1FEE0FFF1FE35816
S1130BA0FE4BE90FF11D20839F5F01C090E094305C
S1130BB058F38F5F6817D0F7089580918D4B81119A
S1130BC0C5C08091080484FD0DC08AE090E00E94B5
S1130BD03B04ECE8FBE481E0828381831092724B56
S1130BE01092734B8091080485FD0EC08AE090E05A
S1130BF00E943B04ECE8FBE482E0828381E0818391
S1130C001092724B1092734B8091080486FD0EC0B3
S1130C108AE090E00E943B04ECE8FBE483E08283FA
S1130C2081E081831092724B1092734B809108047F
S1130C30882374F08AE090E00E943B04ECE8FBE433
S1130C4084E0828381E081831092724B1092734B13
S1130C5080918E4B843051F48091484B882319F055
S1130C601092484B03C081E08093484B8091484BDD
S1130C70882391F080918E4B823071F480914B4B9C
S1130C8081110AC08091494B882319F01092494B75
S1130C9003C081E08093494B8091484B882369F0DD
S1130CA080918E4B823049F480914B4B882329F0FC
S1130CB0ECE8FBE480818F5F80838091484B811155
S1130CC017C080914A4B811113C080918E4B8230A2
S1130CD079F480914C4B882319F010924C4B08C046
S1130CE081E080934C4B4AE062E082E00E94C305BD
S1130CF08091484B81110BC080918E4B813039F427
S1130D0080914A4B811103C081E080934A4BECE807
S1130D10FBE493818281981311C08091904B8230BF
S1130D2020F084E18093714B089582E38093714BAA
S1130D30ECE8FBE484818F5F8483089582E38093ED
S1130D40714BECE8FBE48281838314820895CF9293
S1130D50DF92EF92FF9281E090E00E94CE118093A7
S1130D60884B81508C3340F081E08093884B61E064
S1130D7081E090E00E94F01182E090E00E94CE11A8
S1130D808093924B81508C3340F081E08093924B5E
S1130D9061E082E090E00E94F01184E090E00E9423
S1130DA0CE118093194B8D3340F081E08093194B21
S1130DB061E084E090E00E94F01185E090E00E9400
S1130DC0CE118093BB4B8150843040F082E08093FD
S1130DD0BB4B62E085E090E00E94F01186E090E079
S1130DE00E94D811A0E0B0E08093AA4B9093AB4B43
S1130DF0A093AC4BB093AD4B84569109A109B109B2
S1130E0085389340A105B10590F084E690E0A0E018
S1130E10B0E08093AA4B9093AB4BA093AC4BB093B0
S1130E20AD4B64E670E086E090E00E9413128CE023
S1130E3090E00E94E3110E948D336B017C0160936A
S1130E40934B7093944B8093954B9093964B20E0E7
S1130E5038EC4FEA57E40E943F34181654F020E06F
S1130E6030E44CE156E4C701B6010E94E032882325
S1130E70A4F480E090E4ACE1B7E48093934B9093C6
S1130E80944BA093954BB093964B40E45CE960E09F
S1130E9070E08CE090E00E94301288E090E00E94C4
S1130EA0D8118093414B9093424B0A9787309742D5
S1130EB060F084EF91E08093414B9093424B64EF58
S1130EC071E088E090E00E9413128AE090E00E94B2
S1130ED0D8118093A04B9093A14B8D599F4F873C81
S1130EE0910550F01092A04B1092A14B60E070E07D
S1130EF08AE090E00E9413120E94B3268091784BFE
S1130F008C3328F060E080E00E94EE26FFCF8091D1
S1130F107E4B81111CC066E186E00E94EE2669E0EA
S1130F2085E00E94EE2664E184E00E94EE2663E000
S1130F3083E00E94EE266CE082E00E94EE2660E0F0
S1130F4081E00E94EE2660E080E00E94EE26FF90A1
S1130F50EF90DF90CF9008958FE090E00E943B04E3
S1130F6026E686E695E0215080409040E1F78FE048
S1130F7090E00E943B0426E686E695E021508040FE
S1130F809040E1F78FE090E00E943B040895CF93F6
S1130F90DF93ADE7B1E417961C921797CFE0D4E442
S1130FA0988189E29802E12D1124E595E595E5956E
S1130FB0E59597FDE3950E2E000CFF0BE95BFE4BC8
S1130FC0908116969C93169798819802812D1124EE
S1130FD0859585958595859597FD839524E6829FCE
S1130FE09019112487E69802E12D1124E595E595E1
S1130FF097FDE3950E2E000CFF0BE95BFE4B9081F1
S113100015969C931597E881E802812D1124859506
S11310108595E7FD8395880F982F990F990F890F70
S1131020E81B0E2E000CFF0BE95BFE4B808114962F
S11310308C93DF91CF910895CF93DF93ADE7B1E423
S11310401B961C921B97C0E1D4E4988189E2980214
S1131050E12D1124E595E595E595E59597FDE39555
S11310600E2E000CFF0BE95BFE4B90811A969C93AD
S11310701A9798819802812D1124859585958595D7
S1131080859597FD839524E6829F9019112487E620
S11310909802E12D1124E595E59597FDE3950E2E33
S11310A0000CFF0BE95BFE4B908119969C931997FA
S11310B0E881E802812D112485958595E7FD8395C6
S11310C0880F982F990F990F890FE81B0E2E000C8B
S11310D0FF0BE95BFE4B808118968C93DF91CF91D7
S11310E008958F929F92AF92BF92CF92DF92EF9228
S11310F0FF920F931F93CF93DF930E94A218EC01EA
S11311006C01E12CF12C80915F4B9091604BA0918C
S1131110614BB091624BC114D104E104F10409F4B0
S113112012C1AC01BD014E5C5F4F6F4F7F4FC29740
S1131130A109B10931E04C155D056E057F0508F480
S113114030E021E0C816D906EA06FB0608F420E0E0
S1131150232309F4D6C08091914B8F5F8093914BE8
S1131160843008F4B2C04AE061E081E00E94C30523
S113117080914C4B882309F488C08091B5419091AB
S1131180B6418B32914040F4E5EBF1E480819181EA
S113119001968083918304C01092B5411092B641A8
S11311A005EB11E4D8012D913C918091A04B9091D5
S11311B0A14B092E000CAA0BBB0B8C0D9D1DAE1D63
S11311C0BF1D0F2EFAE58F2EFBE49F2EF02DF401A8
S11311D081839283A383B483F9013196EE0FFF1FB9
S11311E0EB54FE4B80839183D801AD90BC9086E094
S11311F00E94A426F501EF5EFB4B8083F801A080DA
S1131200B18085E00E94A426F501E35CFA4B80835B
S1131210D801AD90BC9084E00E94A426F501E75962
S1131220F94B8083F801A080B18082E00E94A4265B
S1131230F501EB56F84B8083D801AD90BC9081E06A
S11312400E94A426F501EF53F74B8083F801A08098
S1131250B18080E00E94A426F501E351F64B80831F
S1131260D4011C9210924C4BF801808191819F9380
S11312708F9388E490E49F938F930E944D3B0E9448
S1131280AC070F900F900F900F901092914B0E940B
S11312901C088091A04B9091A14B092E000CAA0B25
S11312A0BB0B8C0D9D1DAE1DBF1DBF93AF939F93B4
S11312B08F938BE590E49F938F930E944D3B0F9007
S11312C00F900F900F900F900F90CE01A0E0B0E020
S11312D0EAE5FBE485839683A783B0878091A04BDE
S11312E09091A14B092E000CAA0BBB0BC80ED91E62
S11312F0EA1EFB1EC182D282E382F4820E94EB16B4
S113130045C0CE01A0E0B0E0EAE5FBE48583968326
S1131310A783B0878091A04B9091A14B092E000C1C
S1131320AA0BBB0BC80ED91EEA1EFB1EC182D282B9
S1131330E382F4821092AE4B1092914B0E94C70745
S11313400E94EB1623C08091AE4B8F5F8093AE4B0F
S11313508430E0F0EAE5FBE41582168217821086F9
S1131360CE01A0E0B0E081839283A383B483108292
S11313701092AE4B1092914B80914C4B811102C054
S11313800E941C080E94C7070E94EB16DF91CF91B0
S11313901F910F91FF90EF90DF90CF90BF90AF908F
S11313A09F908F9008951F93CF93DF93CDB7DEB7AF
S11313B06E97CDBFDEBF8EE1FE013196DF01982F1F
S11313C01D929A95E9F7DF011D928A95E9F720911C
S11313D0B5413091B64180917A4190917B41821719
S11313E0930730F4019680937A4190937B4104C033
S11313F010927A4110927B4180EF898385E18B833F
S11314008091194B8C8389E28E838091924B8F83D8
S113141082E08A87E5EBF1E4808191819B8780817A
S113142091818C8720917A4130917B41F9013196E9
S1131430EE0FFF1FEB54FE4B808191819D878081CD
S113144091818E8780910F448F8780911044888B7F
S1131450C9018B549E4BFC01E45AFD4F4081498BDA
S1131460E45DFE4F40814A8BE45DFE4F40814B8B2F
S1131470E45DFE4F40814C8BE45DFE4F40814D8B1B
S1131480E45DFE4F80818E8B3F8B288F81E090E05E
S113149009C0E1E0F0E0EC0FFD1FE80FF11D208131
S11314A0920F8F5F8C31A8F39D8F81EF8E8F10E0A8
S11314B00AC0E1E0F0E0EC0FFD1FE10FF11D8081B7
S11314C00E949F2A1F5F1E31A0F36E96CDBFDEBF20
S11314D0DF91CF911F9108951F93CF93DF93CDB7E1
S11314E0DEB72A97CDBFDEBF9AE0FE013196DF0159
S11314F0292F1D922A95E9F7DF011D929A95E9F7A4
S113150090EF998395E19B839091194B9C838D83F4
S113151089E28E838091924B8F8381E090E009C0B1
S1131520E1E0F0E0EC0FFD1FE80FF11D2081920FC8
S11315308F5F8830A8F3998781EF8A8710E00AC00B
S1131540E1E0F0E0EC0FFD1FE10FF11D80810E944E
S11315509F2A1F5F1A30A0F32A96CDBFDEBFDF910A
S1131560CF911F910895EF92FF920F931F93CF9302
S1131570DF93C0E067C10C2F10E0F801E953F44B8E
S11315808081803F09F052C0F801E853F44B908108
S1131590913009F04BC0F801E753F44B908191303E
S11315A009F044C0F801E553F44B90819130F1F512
S11315B0F801E053F44B9081913FC1F5E4E2F4E08B
S11315C080818860808390E081E008C0F801E80FA2
S11315D0F11DE953F44B2081920F8F5F8830B0F3F3
S11315E0F801E153F44B8081981318C0F801E653D5
S11315F0F44B90818091194B981310C0C4E2D4E04D
S11316008881846088830E94D3098CEC9CE10197D3
S1131610F1F700C0000088818B7F88830E94C62A6E
S1131620E4E2F4E08081877F80830FC1803F09F08A
S1131630A1C0F801E853F44B9081913009F09AC0AD
S1131640F801E553F44B9081993009F093C0F80107
S1131650EA52F44B9081913F09F08CC0E4E2F4E04B
S113166080818860808390E081E008C0F801E80F01
S1131670F11DE953F44B2081920F8F5F8E30B0F34C
S1131680F801EB52F44B808198136CC0F801E153DC
S1131690F44B8081982F92959F70990F692F660F54
S11316A0660F960F8F70692F680F86E00E94EE26F2
S11316B0F801E053F44B8081982F92959F70990F15
S11316C0692F660F660F960F8F70692F680F85E07C
S11316D00E94EE26F801EF52F44B8081982F9295E8
S11316E09F70990F692F660F660F960F8F70692F81
S11316F0680F84E00E94EE26F801EE52F44B8081DC
S1131700982F92959F70990F692F660F660F960F09
S11317108F70692F680F82E00E94EE26F801ED5267
S1131720F44B8081982F92959F70990F692F660FC3
S1131730660F960F8F70692F680F81E00E94EE2666
S1131740F801EC52F44B8081982F92959F70990F79
S1131750692F660F660F960F8F70692F680F80E0F0
S11317600E94EE260E94C62AE4E2F4E08081877F8C
S113177080836BC0803F09F064C0F801E853F44BE8
S11317808081813009F05DC0F801E753F44B80811A
S1131790813009F056C0780194E0E90EF11CF7019C
S11317A0E953F44B8081873009F04BC0F801EA51CA
S11317B0F44B8081813F09F044C0E4E2F4E080818D
S11317C08860808390E081E008C0F801E80FF11D93
S11317D0E953F44B2081920F8F5F8E31B0F3F801FF
S11317E0EB51F44B808198132CC060E070E060935F
S11317F0C14C7093C24CF801E653F44B9081809134
S1131800194B98131EC06093414B7093424B88E070
S113181090E00E94131204E214E0F80180818460D5
S11318208083F701E953F44B80810E946C0A8CECAD
S11318309CE10197F1F700C00000F80180818B7FE3
S11318408083CF5FCA3F08F496CEDF91CF911F917A
S11318500F91FF90EF900895CF9310921A4B10922E
S11318601B4B10921C4B10921D4BC0E018C080E023
S11318700E94E61040911A4B50911B4B60911C4BF7
S113188070911D4B480F591F611D711D40931A4BD8
S113189050931B4B60931C4B70931D4BCF5FC23313
S11318A030F360911A4B70911B4B80911C4B9091BB
S11318B01D4B22E330E040E050E00E946538209365
S11318C01A4B30931B4B40931C4B50931D4BCA0136
S11318D0B9010E948D3326EF39E040EA5AE30E94B1
S11318E044346093744B7093754B8093764B909310
S11318F0774BCF910895CF92DF92EF92FF9220E839
S113190036E948E15BE46091934B7091944B80918C
S1131910954B9091964B0E94E5326B017C012FE828
S113192032EC45EF5EE36091744B7091754B80919E
S1131930764B9091774B0E9474329B01AC01C701A6
S1131940B6010E94E53220E030E040E053E40E941A
S113195044349B01AC010E94743220E030E040E04A
S11319605BE40E9444346B017C012091AA4B3091CA
S1131970AB4B4091AC4B5091AD4BA8EEB3E00E9401
S1131980BE380E948D339B01AC01C701B6010E9491
S1131990E5326B017C016091BB4B70E080E090E02C
S11319A00E948F339B01AC01C701B6010E94E5324E
S11319B060936B4B70936C4B80936D4B90936E4B19
S11319C0FF90EF90DF90CF9008954AE062E080E0CE
S11319D00E94C305E8E4FBE4108211821382109292
S11319E08C4B0E94A7068FEF9FE80197F1F700C088
S11319F000000E942C0C0E947B0C8FEF9FE8019743
S1131A00F1F700C000000E9458188FEF9FE801977B
S1131A10F1F700C000000E9458180E94AC07109211
S1131A205A4B4CE062E080E00E94C3050895A895FB
S1131A300895CF931092494B4CE062E080E00E94FD
S1131A40C305C1E091C080918D4B882399F08091AA
S1131A508E4B813031F4C53020F4CF5F10928E4B21
S1131A6009C080918E4B833029F4CC2319F0C150E6
S1131A7010928E4BEDE7F1E4138612861186AC2F9B
S1131A80B0E0A95BBE4B8C918087C23031F130F459
S1131A90CC2309F466C0C13049F064C0C43009F4F1
S1131AA048C088F1C53009F45AC05CC0EDE7F1E4E0
S1131AB08AE183838EED828390E6918390831782FB
S1131AC096EB968385838EE184838091494B8823AA
S1131AD009F448C00E94762345C0EDE7F1E413827F
S1131AE086EF82838AEF81838EE18083178296EB6F
S1131AF096839EED958384838091494B882391F14D
S1131B000E9406132FC0EDE7F1E413828AED82836D
S1131B108EE381838EED8083178296EB9683858393
S1131B208EE184838091494B8823E1F00E94103137
S1131B3019C0EDE7F1E413828AE082838EE18183A8
S1131B409AE19083178296EB96839EED9583848326
S1131B508091494B882331F00E941C2703C0C1E0C7
S1131B6001C0C4E00E94170D8091484B81116BCFD6
S1131B700E94E50CCF910895CF932FEF4FE786E1B4
S1131B80215040408040E1F700C00000C0E0C6C1E1
S1131B90C111E0C080918D4B882349F180918E4B17
S1131BA0813061F480910F44843644F4EFE0F4E42E
S1131BB080818F5F808310928E4B19C080918E4BF1
S1131BC0833061F480910F44823044F0EFE0F4E418
S1131BD080818150808310928E4B09C080918E4BFE
S1131BE0823029F4CF5F10924C4B10928E4B80912F
S1131BF0B94B882331F04CE061E081E00E94C305D9
S1131C0054C0ADE7B1E417961C9217972FE034E463
S1131C10F901908189E29802E12D1124E595E59579
S1131C20E595E59597FDE3950E2E000CFF0BE95B1A
S1131C30FE4B908116969C931697F9019081980219
S1131C40812D1124859585958595859597FD839599
S1131C50F4E68F9F9019112487E69802E12D112450
S1131C60E595E59597FDE3950E2E000CFF0BE95BDA
S1131C70FE4B908115969C931597F90120812802BB
S1131C80812D11248595859527FD8395880F982F9F
S1131C90990F990F890FE22FE81B0E2E000CFF0BF2
S1131CA0E95BFE4B808114968C93ADE7B1E41B96FF
S1131CB01C921B9720E134E4F901908189E2980297
S1131CC0E12D1124E595E595E595E59597FDE395D9
S1131CD00E2E000CFF0BE95BFE4B90811A969C9331
S1131CE01A97F90190819802812D11248595859583
S1131CF08595859597FD8395F4E68F9F901911241A
S1131D0087E69802E12D1124E595E59597FDE39585
S1131D100E2E000CFF0BE95BFE4B908119969C93F1
S1131D201997F90120812802812D11248595859523
S1131D3027FD8395880F982F990F990F890FE22F0C
S1131D40E81B0E2E000CFF0BE95BFE4B80811896FE
S1131D508C93E2C0C13009F0DFC080918D4B8823A1
S1131D6049F180918E4B813061F480911044843626
S1131D7044F4E0E1F4E480818F5F808310928E4B21
S1131D8019C080918E4B833061F48091104482306D
S1131D9044F0E0E1F4E480818150808310928E4B22
S1131DA009C080918E4B823029F4CF5F10924C4B46
S1131DB010928E4B8091B94B882331F04CE062E055
S1131DC082E00E94C30554C0ADE7B1E41B961C92A7
S1131DD01B9720E134E4F901908189E29802E12D16
S1131DE01124E595E595E595E59597FDE3950E2E8A
S1131DF0000CFF0BE95BFE4B90811A969C931A979B
S1131E00F90190819802812D1124859585958595F8
S1131E10859597FD8395F4E68F9F9019112487E6A5
S1131E209802E12D1124E595E59597FDE3950E2E95
S1131E30000CFF0BE95BFE4B908119969C9319975C
S1131E40F90120812802812D11248595859527FD8E
S1131E508395880F982F990F990F890FE22FE81B0C
S1131E600E2E000CFF0BE95BFE4B808118968C93C1
S1131E70ADE7B1E417961C9217972FE034E4F9010B
S1131E80908189E29802E12D1124E595E595E59587
S1131E90E59597FDE3950E2E000CFF0BE95BFE4BD9
S1131EA0908116969C931697F90190819802812D42
S1131EB01124859585958595859597FD8395F4E6FB
S1131EC08F9F9019112487E69802E12D1124E5953E
S1131ED0E59597FDE3950E2E000CFF0BE95BFE4B99
S1131EE0908115969C931597F90120812802812DE4
S1131EF011248595859527FD8395880F982F990F33
S1131F00990F890FE22FE81B0E2E000CFF0BE95BE3
S1131F10FE4B808114968C930E94170DC23009F0F9
S1131F2037CE10924A4B0E94AC07CF9108950E947D
S1131F3038040E94170560E070E083E095E00E9499
S1131F40C63A81E080938B4B2FEF8FE392E02150D0
S1131F5080409040E1F700C0000088E091E40E94D6
S1131F60613B88E690E40E94613B8EE990E40E9424
S1131F70613B84ED90E40E94613B8AE091E49F938D
S1131F808F9383E191E49F938F938FE191E49F93E7
S1131F908F930E944D3B88E690E40E94613B88E069
S1131FA091E40E94613B0E94CC100E94F4100E94B4
S1131FB0DD1078940E94AC07E4E2F4E08081877F2E
S1131FC0808380818B7F80830E94A706EDE7F1E404
S1131FD0138287E6828380E6818310822FEF8FEF5E
S1131FE09CE2215080409040E1F700C000000E9434
S1131FF0170D0F900F900F900F900F900F9010E00F
S11320000F2EF5E0FF2EF02DA6C00E94B326C8E7E0
S1132010DBE49E818DEC989F412D112446954695D5
S11320204695E42FF0E0E95BFE4B5081EDE7F1E4E7
S11320305383440F542F550F550F450FA92FA41B3D
S1132040B0E0A95BBE4B9C9192839D81989F412DEA
S11320501124469546954695A42FB0E0A95BBE4B46
S11320605C915183440F542F550F550F450FA92FE1
S1132070A41BB0E0A95BBE4B9C9190839C81989F6C
S1132080412D1124469546954695A42FB0E0A95BB1
S1132090BE4B5C915783440F542F550F550F450F7A
S11320A0A92FA41BB0E0A95BBE4B9C9196839A8197
S11320B0989F412D1124469546954695A42FB0E04E
S11320C0A95BBE4B5C915583440F542F550F550F9C
S11320D0450FA92FA41BB0E0A95BBE4B9C91948330
S11320E09981989F412D1124469546954695A42F94
S11320F0B0E0A95BBE4B5C915387440F542F550F3E
S1132100550F450FA92FA41BB0E0A95BBE4B9C91B2
S113211092871881189F812D11248695869586951E
S1132120A82FB0E0A95BBE4B9C919187880F982F94
S1132130990F990F890FA12FA81BB0E0A95BBE4B83
S11321408C918087011741F08AE090E00E943B0463
S11321500E94170DFA94012FF11057CF0E94E50C3D
S11321600E94170D8091484B81110E94190D809196
S11321704A4B81110E94BC0D0E9471080E94B30A4F
S11321800E94170D2FEF8FE794E02150804090407C
S1132190E1F700C00000E6CFE0E0F6E086E08283ED
S11321A081E0808380E00895E0E0F6E090819F7D07
S11321B09083808781E08287089580910D068170E5
S11321C00895809110069091110608950E94D410EC
S11321D00E94DD108823E1F30E94E110E0E0F6E0C4
S11321E0258521602587089585E08093A00086EFEA
S11321F08A95F1F708951092890080E0089543E0EC
S113220068ED80E690E00E949F268091630080FD47
S1132210FCCF80E0089580E0089580E008C0E82FB6
S1132220F0E0E05FFB4F9081986090838F5F88308F
S1132230B0F380E008C0E82FF0E0E05DFB4F908150
S1132240986090838F5F8830B0F380E008C0E82FF7
S1132250F0E0E05BFB4F9081986090838F5F883063
S1132260B0F380E008C0E82FF0E0E059FB4F908124
S1132270986090838F5F8830B0F380E008C0E82FC7
S1132280F0E0E057FB4F9081986090838F5F883037
S1132290B0F380E008C0E82FF0E0E055FB4F9081F8
S11322A0986090838F5F8830B0F380E008C0E82F97
S11322B0F0E0E053FB4F9081986090838F5F88300B
S11322C0B0F3089585B3877F85BB84B3886084BBEE
S11322D0E3EBF4E08081877F808380818F77808344
S11322E08081887F808385B38B7F85BB84B3846042
S11322F084BBE2EBF4E08081877F808380818F77E9
S113230080838081887F80830E948F150895E0EE0A
S1132310F5E082818B7F8283E0E4F4E08081816058
S1132320808380818D7F80830E947E2A0895E0EEE1
S1132330F5E082818F7B8283E0E2F4E0808181603A
S1132340808380818D7F80830E94932A08951092D8
S11323500806E0E6F4E08089887F808B80898460C9
S1132360808B8089877F808B0E94CC1008950E9487
S11323700D110E94FF100E9487110E9497110E9464
S1132380A7110E94702A0E940B110E94722A0E94B7
S1132390FB100E94D02A0E9462110895811522E048
S11323A0920710F08FEF91E0FC01FC5E80810895AC
S11323B08F3F21E0920710F08EEF91E0FC01FC5E6C
S11323C08081918108958D3F21E0920710F08CEF78
S11323D091E0FC01FC5E60817181828193810895AA
S11323E01F93CF93DF939C01211582E03807B0F44B
S11323F0909102109370E1F7162FE90143E16DE922
S113240080E090E10E949F26DC5E188340E06DE945
S113241080E090E10E949F2681E001C080E0DF918E
S1132420CF911F910895CF92DF92EF92FF92CF93B5
S1132430DF938F3F21E0920758F4EC016B010E9477
S1132440F0116D2DCE0101960E94F01181E001C0C2
S113245080E0DF91CF91FF90EF90DF90CF900895CF
S1132460FF920F931F93CF93DF938D3F21E0920749
S1132470C0F4172F062FF52E642FEC010E94F011E3
S11324806F2DCE0101960E94F011602FCE010296AD
S11324900E94F011612FCE0103960E94F01181E099
S11324A001C080E0DF91CF911F910F91FF900895BB
S11324B04CE062E080E00E94C30542C0EDE7F1E435
S11324C08EEB838382E082838AE281838AE3808342
S11324D02091884B8DEC289F812D1124869586951B
S11324E08695A82FB0E0A95BBE4B9C919583880F7D
S11324F0982F990F990F890FA22FA81BB0E0A95B01
S1132500BE4B8C91848380918D4B8823B9F080914C
S11325108E4B813041F42C3330F42F5F2093884B61
S113252010928E4B0BC080918E4B833039F4223045
S113253028F021502093884B10928E4B0E94170D47
S11325408091484B882321F08091494B8111B6CF6B
S11325506091884B81E090E00E94F01108954CE076
S113256062E080E00E94C30542C0EDE7F1E48EEB37
S1132570838382E0828380E681838AE7808320915B
S1132580924B8DEC289F812D1124869586958695F6
S1132590A82FB0E0A95BBE4B9C919583880F982F20
S11325A0990F990F890FA22FA81BB0E0A95BBE4B0E
S11325B08C91848380918D4B8823B9F080918E4BCC
S11325C0813041F42C3330F42F5F2093924B1092DE
S11325D08E4B0BC080918E4B833039F4223028F01F
S11325E021502093924B10928E4B0E94170D809194
S11325F0484B882321F08091494B8111B6CF6091DB
S1132600924B82E090E00E94F0110895CF931092D3
S1132610494B4CE062E080E00E94C305C1E08BC0FE
S113262080918D4B882399F080918E4B813031F4C9
S1132630C33020F4CF5F10928E4B09C080918E4B33
S1132640833029F4CC2319F0C15010928E4BEC2F17
S1132650F0E0E95BFE4B808180938541C13041F01D
S113266008F466C0C23099F1C33009F45FC061C098
S1132670EDE7F1E48EEB838382E082838AE2818357
S11326808AE38083178216824091884B8DEC489FA1
S1132690812D1124869586958695282F30E0295B17
S11326A03E4BD9019C919583880F982F990F990FD0
S11326B0890FA42FA81BB0E0A95BBE4B8C91848327
S11326C08091494B8823A9F10E94581232C0EDE74A
S11326D0F1E48EEB838382E0828380E681838AE760
S11326E08083178216824091924B8DEC489F812DF6
S11326F01124869586958695282F30E0295B3E4BDC
S1132700D9019C919583880F982F990F990F890F60
S1132710A42FA81BB0E0A95BBE4B8C91848380914D
S1132720494B882331F00E94AF1203C0C1E001C0BD
S1132730C2E00E94170D8091484B811171CFCF9157
S11327400895E0E2F9E08481886084838581816072
S11327508583E9E8F1E480818E7F808313868EE0AF
S11327600895E9E8F1E480818E7F8083138680E018
S11327700895E0E2F9E08481836084830E94B113C8
S11327800895E9E8F1E4808188608083818190E0A4
S1132790880F991F81608093270984E008950E941F
S11327A0C11308950E94C1130895E9E8F1E48081FA
S11327B0886080838181880F8093270983E008954E
S11327C00E94D5130895A9E8B1E48C91877F8C9376
S11327D082E01B968C931B975096ED91FC91519738
S11327E05C968D919C915D970995823019F08330A8
S11327F021F006C00E94D21308950E94E0130895A8
S11328000E94B9130895E0E2F9E084818B7F848308
S113281084E00895E0E2F9E084818B7F848383E09F
S11328200895E0E2F9E08481846084838481836094
S113283084830E94B1130895E0E2F9E08481846006
S1132840848388E008958091250984FF19C0A9E84C
S1132850B1E45296ED91FC9153975E968D919C91C3
S11328605F970995823019F0833021F006C00E94E9
S1132870D21308950E94E01308950E94B913089595
S1132880E9E8F1E48081877F8083A281B381CD016F
S11328900196828393838C91809328098481958106
S11328A0019784839583892B11F083E0089585E053
S11328B00895CF93DF93E9E8F1E48081877F8083F3
S11328C084819581019731F4E0E2F9E084818460A8
S11328D0848305C0E0E2F9E084818B7F8483E9E8A6
S11328E0F1E484819581019784839583892BA9F0F0
S11328F0DF01C281D381E0E2F9E08085888312960A
S11329008D919C911397019612968D939C93139796
S113291084818260848384E026C0A9E8B1E41296AD
S1132920ED91FC91139780912809808312968D91E3
S11329309C911397019612968D939C9313978C9167
S113294084608C931C96ED91FC911D9758968D9103
S11329509C91599709958250823018F40E941C1456
S113296002C00E941114DF91CF910895809125092E
S113297084FF19C0A9E8B1E45296ED91FC915397F4
S11329805E968D919C915F970995823019F0833002
S113299021F006C00E94D21308950E94E013089506
S11329A00E94B9130895A9E8B1E48C9184608C93D2
S11329B01C96ED91FC911D9758968D919C91599779
S11329C00995833039F0843041F0823049F40E9413
S11329D0D21308950E94E01308950E9423140895C9
S11329E00E94B9130895E0E2F9E085818860858347
S11329F0A9E8B1E482E01B968C931B971E96ED9197
S1132A00FC911F975A968D919C915B970995823002
S1132A1019F0833021F006C00E94D21308950E9459
S1132A20E01308950E94A1130895E0E2F9E084817F
S1132A3088608483858181608583E9E8F1E480810D
S1132A408E7F808382E083878EE00895CF93DF9327
S1132A50E0E2F9E08581806C85838091894183FF80
S1132A6007C08091250984FF03C08FE080939341C0
S1132A708091250983FF03C080E180939341809175
S1132A80250982FF03C081E180939341C9E8D1E421
S1132A90EA85F0E0EE0FFF1FEA5FFF4B0190F08143
S1132AA0E02D09958A87DF91CF91089581E00895FB
S1132AB085E008956115710591F090E0FC0136966A
S1132AC0EE0FFF1FE757FE4B60837183FC013C96BA
S1132AD0EE0FFF1FE757FE4B40835183089590E0AC
S1132AE0FC013696EE0FFF1FE757FE4B26E535E156
S1132AF020833183FC013C96EE0FFF1FE757FE4B0A
S1132B00108211820895AB01BC0180E00E945A1525
S1132B100895AB01BC0182E00E945A150895E0E2D9
S1132B20F9E084E4868381EC83830895909189415C
S1132B3091FD37C0E9E8F1E48183892F8E7F8260BB
S1132B409EE0928724EF31E020873187877F84607D
S1132B50808386E595E184879587108E118E86871C
S1132B609787128E138E808B918B148E158E828B89
S1132B70938B168E178E88E595E1848B958B10A226
S1132B8011A2E0E2F9E08481886084838581816018
S1132B9085838581806C85838381806C838380E0D9
S1132BA0089581E008958091250982FF07C0E9E82E
S1132BB0F1E480818E7F808382E0838780918941E4
S1132BC080FD17C0E9E8F1E48D7F80838FEF818376
S1132BD0A0E2B9E015968C911597806C15968C93AC
S1132BE0159713968C9113978F7313968C938385F3
S1132BF0089581E008959C019091894192FF09C054
S1132C00E9E8F1E42283338364837583892F8B7F1E
S1132C10808308959091894190FD11C0E9E8F1E421
S1132C2091609083882321F081E08093934103C0D5
S1132C3082E0809393410E94261580E0089581E00C
S1132C40089580E00E940A1608951F920F920FB60D
S1132C500F9211240BB60F922F933F934F935F93D0
S1132C606F937F938F939F93AF93BF93EF93FF9350
S1132C700E942615FF91EF91BF91AF919F918F9183
S1132C807F916F915F914F913F912F910F900BBE68
S1132C900F900FBE0F901F90189561E070E00E9496
S1132CA0FB1560E070E080E090E00E94831584E012
S1132CB0089561E070E00E94FB1560E070E080E040
S1132CC090E00E94831582E00895FF920F931F9372
S1132CD0CF93DF9300D0CDB7DEB7F82E69834A8354
S1132CE000E117E28F2D0E949615813019F40150EE
S1132CF01109C1F7012B11F1BE016E5F7F4F8DE405
S1132D0096E10E94831561E070E0CE0101960E9475
S1132D10FB1560E070E089EE96E10E9489150E943F
S1132D20211600E117E20E94D315813019F40150F5
S1132D301109C9F7012B21F482E003C081E001C02D
S1132D4080E00F900F90DF91CF911F910F91FF9032
S1132D500895EF92FF921F93CF93DF9300D0CDB7E6
S1132D60DEB7182F6A838AE289836894EE24E1F837
S1132D70F12C23C0812F0E9496158823D9F3BE011C
S1132D806F5F7F4F89E596E10E94831561E070E0F3
S1132D90CE0102960E94FB1560E070E089EE96E198
S1132DA00E9489150E9421160E94D3158130E1F3F7
S1132DB0882331F081E0E81AF108E114F104D1F636
S1132DC089810F900F90DF91CF911F91FF90EF9029
S1132DD0089583E008958F929F92AF92BF92EF92ED
S1132DE0FF920F931F93CF93DF93CAE5DBE46981CE
S1132DF07A818B819C810F2EF0E18F2EF7E29F2E3A
S1132E00A12CB12CF02DA50194010E948738E22E4B
S1132E102093AE4169817A818B819C81A5019401C3
S1132E200E9487380F2EF8EE8F2EF3E09F2EA12CF0
S1132E30B12CF02DA50194010E948738F22E209325
S1132E40BD4B69817A818B819C81A50194010E948B
S1132E5087380F2EF4E68F2E912CA12CB12CF02D57
S1132E60A50194010E948738022F2093AF4B6981FA
S1132E707A818B819C81A50194010E9487380F2E51
S1132E80FAE08F2E912CA12CB12CF02DA5019401E8
S1132E900E948738122F2093874B69817A818B8116
S1132EA09C81A50194010E9487386093A44B898179
S1132EB09A81AB81BC8181319742A105B10514F19E
S1132EC0EE2DF0E0E95BFE4B8081ADE7B1E41396B3
S1132ED08C931397EF2DF0E0E95BFE4B8081129603
S1132EE08C931297E02FF0E0E95BFE4B80818F5FBB
S1132EF011968C931197E12FF0E0E95BFE4B8081F2
S1132F008C9358C080915B4B90915C4BA0915D4B2E
S1132F10B0915E4B893E9340A105B10514F1EF2DAC
S1132F20F0E0E95BFE4B8081ADE7B1E413968C934E
S1132F301397E02FF0E0E95BFE4B80818F5F1296E0
S1132F408C931297E12FF0E0E95BFE4B80811196A0
S1132F508C931197E62FF0E0E95BFE4B80818C9314
S1132F6029C080915B4B90915C4BA0915D4BB091DB
S1132F705E4B883E9340A105B105E4F4ADE7B1E4AE
S1132F8013961C921397E02FF0E0E95BFE4B8081CF
S1132F908F5F12968C931297E12FF0E0E95BFE4B62
S1132FA0808111968C931197E62FF0E0E95BFE4B3C
S1132FB080818C93DF91CF911F910F91FF90EF90BF
S1132FC0BF90AF909F908F900895CF92DF92EF9231
S1132FD0FF92E4E4F4E080818B7F80838091480455
S1132FE083FFFCCF90E040E050E0BA011DC0440FE5
S1132FF0551F661F771FE4E4F4E0808184608083BA
S113300022E62A95F1F7000080818B7F808382E697
S11330108A95F1F700008091480483FD04C04F5F56
S11330205F4F6F4F7F4F9F5F983108F3E4E4F4E004
S113303080818460808392E69A95F1F70000808114
S11330408B7F80832FEF8FE794E021508040904066
S1133050E1F700C00000CB01BA0120E4822761300F
S113306020EF72072FE7820791051CF060E070E003
S1133070CB0128EE33E040E050E00E948738A8EE10
S1133080B3E00E94BE38C0906B4BD0906C4BE09084
S11330906D4BF0906E4B0E948F33A70196010E94F6
S11330A0E5320E945733FF90EF90DF90CF90089560
S11330B00F931F930E94E5178B019C018091674B2E
S11330C09091684BA091694BB0916A4B801B910B16
S11330D0A20BB30B181619061A061B067CF4EAE5B4
S11330E0FBE44585568567857089481B590B6A0B37
S11330F07B0B458756876787708B10C0BB2374F49E
S1133100EAE5FBE44585568567857089480F591FB4
S11331106A1F7B1F458756876787708B892B8A2B8D
S11331208B2B61F68AE090E00E943B0426E686EE53
S113313090E0215080409040E1F70E94170D1F91CC
S11331400F9108954F925F926F927F928F929F9208
S1133150AF92BF92CF92DF92EF92FF928090674B33
S11331609090684BA090694BB0906A4B0E94E51711
S11331702B013C012091AA4B3091AB4B4091AC4BBD
S11331805091AD4BA8EEB3E00E94BE386B017C01B8
S113319014141504160417040CF066C08091674BD0
S11331A09091684BA091694BB0916A4BA301920135
S11331B0281B390B4A0B5B0BCA01B90111F410929D
S11331C0704B613836E9730738E983079105C0F01D
S11331D08091704B8F5F8093704B863070F00E94AB
S11331E058188FEF9FE80197F1F700C000000E9484
S11331F0581860E070E0CB0103C060E070E0CB01E0
S113320016161706180619064CF54090414B5090B7
S1133210424B052C000C6608770864157505860575
S11332209705E4F42091704B2F5F2093704B263068
S113323090F0DC01CB01880D991DAA1DBB1D809364
S1133240674B9093684BA093694BB0936A4B60E0D3
S113325070E0CB0103C060E070E0CB01C616D70676
S1133260E806F90628F007C060E070E0CB0103C06F
S113327060E070E0CB012AE030E040E050E00E94E2
S11332808738C901FF90EF90DF90CF90BF90AF9047
S11332909F908F907F906F905F904F9008951092C1
S11332A0854188E090E00E94D8119C018093414BB5
S11332B09093424B60E177E20E9451386093434B14
S11332C0E8EEF3E0BF010E9451386093BA4BC901A4
S11332D0BF010E945138E4E6F0E0BF010E9451387A
S11332E06093444BC901BF010E945138EAE0F0E009
S11332F0BF010E9451386093234BC901BF010E9452
S113330051388093A54B3DC181E080934B4B809114
S11333108C4B823009F485C030F4882369F0813005
S113332009F444C02CC1843009F4F0C008F4B4C0DA
S1133330853009F422C123C1E091A54BF0E0E95B9B
S1133340FE4B8081809388418091B94B882319F08A
S11333501092844108C0E091434BF0E0E95BFE4BDE
S113336080818093844180918D4B882309F407C127
S113337080918E4B813051F48091434B811106C072
S11333808F5F8093434B10928E4BF9C080918E4B8C
S1133390833009F0F4C08091434B882309F4EFC0D3
S11333A081508093434B10928E4BE9C0E091434B84
S11333B0F0E0E95BFE4B8081809384418091B94BBE
S11333C0882319F01092834109C0E091BA4BF0E0D0
S11333D0E95BFE4B80818F5F8093834180918D4BAD
S11333E0882309F4CCC080918E4B813051F48091B4
S11333F0BA4B893030F48F5F8093BA4B10928E4B66
S1133400BEC080918E4B833009F0B9C08091BA4B15
S1133410882309F4B4C081508093BA4B10928E4B28
S1133420AEC0E091BA4BF0E0E95BFE4B80818F5F68
S1133430809383418091B94B882319F01092824183
S113344008C0E091444BF0E0E95BFE4B808180933F
S1133450824180918D4B882309F491C080918E4BD9
S1133460813051F48091444B893030F48F5F8093E4
S1133470444B10928E4B83C080918E4B833009F065
S11334807EC08091444B882309F479C08150809395
S1133490444B10928E4B73C0E091444BF0E0E95BD7
S11334A0FE4B8081809382418091B94B882319F02F
S11334B01092814108C0E091234BF0E0E95BFE4BA0
S11334C080818093814180918D4B882309F457C07A
S11334D080918E4B813051F48091234B893030F4AC
S11334E08F5F8093234B10928E4B49C080918E4BFB
S11334F0833009F044C08091234B882309F43FC0F2
S113350081508093234B10928E4B39C0E091234B12
S1133510F0E0E95BFE4B8081809381418091B94B5F
S1133520882319F01092884108C0E091A54BF0E07F
S1133530E95BFE4B80818093884180918D4B882389
S1133540F1F080918E4B813051F48091A54B8930FC
S113355030F48F5F8093A54B10928E4B10C08091F6
S11335608E4B833061F48091A54B882341F08150C8
S11335708093A54B10928E4B02C010928C4B0E94EC
S1133580170D8091484B8111BFCE2091434B80E1B0
S113359097E2289FB001299F700D11244091BA4BE6
S11335A028EE33E0429FC001439F900D1124680F21
S11335B0791F8091444B94E6899F600D711D1124FD
S11335C08091234B90E09C01220F331F880F991F99
S11335D0880F991F880F991F820F931F680F791FF7
S11335E08091A54B680F711D6093414B7093424BC2
S11335F088E090E00E941312E8E4FBE481E0808319
S11336001182138210928C4B08952F923F924F9205
S11336105F926F927F928F929F92AF92BF92CF925E
S1133620DF92EF92FF920F931F93CF93DF93CDB767
S1133630DEB72597CDBFDEBF109285418CE090E0C8
S11336400E94E3111B012C0160934D4B30924E4BB1
S113365040924F4B5092504B1092514B1092524B00
S11336601092534B1092544B6894AA24A4F80F2E32
S1133670F7E2BF2EF02DC12CD12CE12CF12C00E06F
S113368010E0262F332D442D552D60E070E080E0AE
S113369090E00E9424392093974B3093984B4093A9
S11336A0994B50939A4B60939B4B70939C4B809394
S11336B09D4B90939E4B222D332D442D552D60E030
S11336C070E080E090E00E9422390F2EF8EEAF2ED9
S11336D0F02D0F2EF3E0BF2EF02D0E9424392093FD
S11336E0C34C3093C44C4093C54C5093C64C609328
S11336F0C74C7093C84C8093C94C9093CA4C222DEC
S1133700332D442D552D60E070E080E090E00E9460
S113371022390F2EF4E6AF2EF02DB12C0E9424395D
S11337202093B14B3093B24B4093B34B5093B44B73
S11337306093B54B7093B64B8093B74B9093B84B53
S1133740222D332D442D552D60E070E080E090E073
S11337500E9422390F2EFAE0AF2EF02D0E94243958
S113376020937F4B3093804B4093814B5093824BFB
S11337706093834B7093844B8093854B9093864BDB
S1133780222D332D442D552D60E070E080E090E033
S11337900E9422392093BE4B3093BF4B4093C04BC1
S11337A05093C14B6093C24B7093C34B8093C44BF3
S11337B09093C54BF2C281E080934B4B80918C4B2C
S11337C0823009F435C130F4882369F0813009F47A
S11337D09DC0E1C2843009F44DC208F4BAC18530F9
S11337E009F4D7C2D8C2E091BE4BF091BF4BE95B5C
S11337F0FE4B8081809388418091B94B882319F0D6
S1133800109284410AC0E091974BF091984BE95B88
S1133810FE4B80818F5F8093844180918D4B882300
S113382009F4B9C280918E4B8130A9F5F090974B81
S11338300091984B1091994B80919A4B8A83809177
S11338409B4B8983B0919C4BF0919D4BE0919E4B97
S11338502F2D302F412F5A81682F7B2F8F2F9E2F92
S1133860A7E00E94B83909F0B0F4A1E00E94A3399E
S11338702093974B3093984B4093994B50939A4B8A
S113388060939B4B70939C4B80939D4B90939E4B6A
S113389010928E4B80C280918E4B833009F07BC294
S11338A0F090974B0091984B1091994B80919A4BC3
S11338B08A8380919B4B8983B0919C4BF0919D4B63
S11338C0E0919E4B2F2D302F412F5A81682F7B2F53
S11338D08F2F9E2FA1E00E94B83909F008F45BC233
S11338E0AFEF0E94A3392093974B3093984B4093AA
S11338F0994B50939A4B60939B4B70939C4B809342
S11339009D4B90939E4B10928E4B45C2E091974BEA
S1133910F091984BE95BFE4B80818F5F80938441EB
S11339208091B94B882319F01092834109C0E0912A
S1133930C34CF091C44CE95BFE4B8081809383417E
S113394080918D4B882309F426C280918E4B81305F
S1133950A9F5F090C34C0091C44C1091C54C8091D2
S1133960C64C8A838091C74C8983B091C84CF0912E
S1133970C94CE091CA4C2F2D302F412F5A81682F0A
S11339807B2F8F2F9E2FA8E00E94B83909F0B0F446
S1133990A1E00E94A3392093C34C3093C44C4093BC
S11339A0C54C5093C64C6093C74C7093C84C8093DD
S11339B0C94C9093CA4C10928E4BEDC180918E4BA2
S11339C0833009F0E8C1F090C34C0091C44C1091CD
S11339D0C54C8091C64C8A838091C74C8983B09131
S11339E0C84CF091C94CE091CA4C2F2D302F412F77
S11339F05A81682F7B2F8F2F9E2FA0E00E94B83909
S1133A0009F4C9C1AFEF0E94A3392093C34C30938A
S1133A10C44C4093C54C5093C64C6093C74C7093B0
S1133A20C84C8093C94C9093CA4C10928E4BB3C12E
S1133A30E091C34CF091C44CE95BFE4B80818093D0
S1133A4083418091B94B882319F01092824109C0B7
S1133A50E091B14BF091B24BE95BFE4B80818093D6
S1133A60824180918D4B882309F495C180918E4BBE
S1133A708130A9F5F090B14B0091B24B1091B34B4A
S1133A808091B44B8A838091B54B8983B091B64BB6
S1133A90F091B74BE091B84B2F2D302F412F5A8125
S1133AA0682F7B2F8F2F9E2FA8E00E94B83909F032
S1133AB0B0F4A1E00E94A3392093B14B3093B24BF0
S1133AC04093B34B5093B44B6093B54B7093B64B48
S1133AD08093B74B9093B84B10928E4B5CC18091FE
S1133AE08E4B833009F057C1F090B14B0091B24B2B
S1133AF01091B34B8091B44B8A838091B54B8983E9
S1133B00B091B64BF091B74BE091B84B2F2D302FBD
S1133B10412F5A81682F7B2F8F2F9E2FA0E00E9468
S1133B20B83909F438C1AFEF0E94A3392093B14BDF
S1133B303093B24B4093B34B5093B44B6093B54B1B
S1133B407093B64B8093B74B9093B84B10928E4BB7
S1133B5022C1E091B14BF091B24BE95BFE4B808105
S1133B60809382418091B94B882319F0109281414E
S1133B7009C0E0917F4BF091804BE95BFE4B808163
S1133B808093814180918D4B882309F404C18091F5
S1133B908E4B8130A9F5F0907F4B0091804B1091B2
S1133BA0814B8091824B8A838091834B8983B0912E
S1133BB0844BF091854BE091864B2F2D302F412F74
S1133BC05A81682F7B2F8F2F9E2FA8E00E94B8392F
S1133BD009F0B0F4A1E00E94A33920937F4B309305
S1133BE0804B4093814B5093824B6093834B7093F3
S1133BF0844B8093854B9093864B10928E4BCBC015
S1133C0080918E4B833009F0C6C0F0907F4B0091B9
S1133C10804B1091814B8091824B8A838091834B9E
S1133C208983B091844BF091854BE091864B2F2D85
S1133C30302F412F5A81682F7B2F8F2F9E2FA0E08A
S1133C400E94B83909F4A7C0AFEF0E94A3392093AA
S1133C507F4B3093804B4093814B5093824B6093C6
S1133C60834B7093844B8093854B9093864B109237
S1133C708E4B91C0E0917F4BF091804BE95BFE4B02
S1133C808081809381418091B94B882319F01092EF
S1133C90884109C0E091BE4BF091BF4BE95BFE4BFC
S1133CA080818093884180918D4B882309F473C06F
S1133CB080918E4B8130A9F5F090BE4B0091BF4BA3
S1133CC01091C04B8091C14B8A838091C24B8983F0
S1133CD0B091C34BF091C44BE091C54B2F2D302FC5
S1133CE0412F5A81682F7B2F8F2F9E2FA8E00E948F
S1133CF0B83909F0B0F4A1E00E94A3392093BE4B77
S1133D003093BF4B4093C04B5093C14B6093C24B15
S1133D107093C34B8093C44B9093C54B10928E4BBE
S1133D203AC080918E4B8330B1F5F090BE4B009138
S1133D30BF4B1091C04B8091C14B8A838091C24B81
S1133D408983B091C34BF091C44BE091C54B2F2DA7
S1133D50302F412F5A81682F7B2F8F2F9E2FA0E069
S1133D600E94B839C1F0AFEF0E94A3392093BE4B33
S1133D703093BF4B4093C04B5093C14B6093C24BA5
S1133D807093C34B8093C44B9093C54B10928E4B4E
S1133D9002C010928C4B0E94170D8091484B8111E8
S1133DA00ACD6894AA24A4F80F2EF7E2BF2EF02DB2
S1133DB0C12CD12CE12CF12C00E010E02091974B88
S1133DC03091984B4091994B50919A4B60919B4BF9
S1133DD070919C4B80919D4B90919E4B0E94C93851
S1133DE0622E732E842E952E6D8379838A839B8312
S1133DF0E091C34C5090C44C4090C54C3090C64C9C
S1133E002090C74C8091C84C8C83B091C94CA09130
S1133E10CA4C2E2F352D442D532D622D782F8B2FE8
S1133E209A2F02E00E948139A22EB32EC42ED52EE1
S1133E30E62EF72EF82F192F05E00E9481390F2F57
S1133E400E94AF39AE2EB52CC42CD32CE22CFC80AE
S1133E500B2F1A2F0E949A3903E00E948139A22E57
S1133E60B32EC42ED52EE62EF72E082F192F262D6D
S1133E70372D482D592D6D8179818A819B810E942E
S1133E809A39222E332E442E552E662E772E898370
S1133E909A832091B14B3091B24B4091B34B5091E6
S1133EA0B44B6091B54B7091B64B8091B74B9091E8
S1133EB0B84B02E00E948139822E932E4C835B839F
S1133EC0B62FA72FF82FE92F0E948139A22EB32EE7
S1133ED0C42ED52EE62EF72E082F192F282D392D76
S1133EE04C815B816B2F7A2F8F2F9E2F0E949A39E2
S1133EF0822E932E4C835B83B62FA72FF82FE92FA6
S1133F0002E00E948139A22EB32EC42ED52EE62EB5
S1133F10F72E082F192F282D392D4C815B816B2FFB
S1133F207A2F8F2F9E2F0E949A39A22EB32EC42E41
S1133F30D52EE62EF72E082F192F222D332D442DA2
S1133F40552D662D772D89819A810E949A39222ECA
S1133F50332E442E552E662E772E89839A832091F4
S1133F607F4B3091804B4091814B5091824B6091BB
S1133F70834B7091844B8091854B9091864B01E0EB
S1133F800E948139822E932E4C835B83B62FA72FF8
S1133F90F82FE92F02E00E948139A22EB32EC42EFD
S1133FA0D52EE62EF72E082F192F282D392D4C81CA
S1133FB05B816B2F7A2F8F2F9E2F0E949A39A22E0E
S1133FC0B32EC42ED52EE62EF72E082F192F222D10
S1133FD0332D442D552D662D772D89819A810E948C
S1133FE09A39A090BE4BB090BF4BC090C04BD090BC
S1133FF0C14BE090C24BF090C34B0091C44B109165
S1134000C54B0E949A3920934D4B30934E4B4093AD
S11340104F4B5093504B6093514B7093524B809342
S1134020534B9093544B642F752F422F532F8CE096
S113403090E00E943012E8E4FBE481E08083118286
S1134040138210928C4B2596CDBFDEBFDF91CF91AA
S11340501F910F91FF90EF90DF90CF90BF90AF90A2
S11340609F908F907F906F905F904F903F902F9094
S11340700895CF93DF93D2C01092724B1092734B7A
S11340801092704B80918D4B882309F48EC08091DF
S11340908E4B813061F48091A64B9091A74B019691
S11340A08093A64B9093A74B10928E4B0FC0809198
S11340B08E4B833059F48091A64B9091A74B019776
S11340C08093A64B9093A74B10928E4B2091A64BB6
S11340D03091A74B33230CF1EDE7F1E41782C901CA
S11340E064E670E00E945138DB01A95BBE4B4C9141
S11340F04683CAE0D0E0BE010E945138DB01A95BCF
S1134100BE4B8C918583C901BE010E945138DC01EC
S1134110A95BBE4B8C91848348C02195ADE7B1E483
S113412082E017968C93179789E22802812D112437
S11341308595859585958595922F990F990B891B62
S1134140E82F082E000CFF0BE95BFE4B308116961E
S11341503C931697322F44E6849F3019112487E646
S11341603802E12D1124E595E59537FDE3950E2EF2
S1134170000CFF0BE95BFE4B308115963C931597C1
S11341802802812D112485958595891B880F982FE8
S1134190990F990F890FE22FE81B0E2E000CFF0BCD
S11341A0E95BFE4B808114968C938091A64B909191
S11341B0A74B8093A04B9093A14B0E94A218A0E020
S11341C0B0E080935B4B90935C4BA0935D4BB093BA
S11341D05E4B0097A105B105C9F0EAE5FBE4418116
S11341E05281638174818091A04B9091A14B092EDF
S11341F0000CAA0BBB0B840F951FA61FB71F81834E
S11342009283A383B4830E94EB1606C0892B8A2B66
S11342108B2B11F40E94EB160E94170D8091484BD2
S1134220882321F08091494B811126CF6091A64BC0
S11342307091A74B8AE090E00E941312DF91CF9116
S113424008958F929F92AF92BF92CF92DF92EF9296
S1134250FF921092854186E090E00E94D8116C0193
S1134260E12CF12CC092AA4BD092AB4BE092AC4B18
S1134270F092AD4BC701B60128EE33E040E050E0C8
S11342800E9465382093AD410F2EF4E68F2E912CB9
S1134290A12CB12CF02DA50194010E946538209326
S11342A09F4BC701B601A50194010E9465380F2EEA
S11342B0FAE08F2E912CA12CB12CF02DA5019401A4
S11342C00E9465382093A94BC701B601A50194014A
S11342D00E94653860936F4BFFC081E080934B4B25
S11342E080918C4B823009F482C030F4882359F0D9
S11342F0813009F442C0EEC0833009F4B2C0843086
S113430009F4E6C0E7C0E0916F4BF0E0E95BFE4BD7
S11343108081809381418091B94B882319F0109258
S1134320844108C0E091AD41F0E0E95BFE4B80813F
S11343308093844180918D4B882309F4CBC0809174
S11343408E4B813051F48091AD41811106C08F5F55
S11343508093AD4110928E4BBDC080918E4B8330C3
S113436009F0B8C08091AD41882309F4B3C08150ED
S11343708093AD4110928E4BADC0E091AD41F0E021
S1134380E95BFE4B8081809384418091B94B882303
S113439019F01092834108C0E0919F4BF0E0E95B73
S11343A0FE4B80818093834180918D4B882309F457
S11343B091C080918E4B813051F480919F4B853018
S11343C030F48F5F80939F4B10928E4B83C080910B
S11343D08E4B833009F07EC080919F4B882309F473
S11343E079C0815080939F4B10928E4B73C0E091A3
S11343F09F4BF0E0E95BFE4B808180938341809189
S1134400B94B882319F01092824108C0E091A94B5E
S1134410F0E0E95BFE4B80818093824180918D4B7B
S1134420882309F457C080918E4B813051F48091D8
S1134430A94B893030F48F5F8093A94B10928E4B37
S113444049C080918E4B833009F044C08091A94BC0
S1134450882309F43FC081508093A94B10928E4B5E
S113446039C0E091A94BF0E0E95BFE4B8081809379
S113447082418091B94B882319F01092814108C080
S1134480E0916F4BF0E0E95BFE4B808180938141CA
S113449080918D4B8823F1F080918E4B813051F4C3
S11344A080916F4B893030F48F5F80936F4B109203
S11344B08E4B10C080918E4B833061F480916F4B92
S11344C0882341F0815080936F4B10928E4B02C031
S11344D010928C4B0E94170D8091484B8111FDCE98
S11344E04091AD4128EE33E0429FC001439F900DBF
S11344F01124AC01990F660B770B80919F4B24E636
S1134500829FC0011124092E000CAA0BBB0B840F3F
S1134510951FA61FB71F2091A94B30E0B901660F64
S1134520771F220F331F220F331F220F331F620FF7
S1134530731FAB01770F660B770B840F951FA61FB4
S1134540B71F20916F4BBC01CD01620F711D811DFE
S1134550911D6093AA4B7093AB4B8093AC4B90939B
S1134560AD4B86E090E00E941312E8E4FBE481E0A6
S113457080831182138210928C4BFF90EF90DF9016
S1134580CF90BF90AF909F908F9008954CE062E0E1
S113459080E00E94C30543C0EDE7F1E417828AE19D
S11345A082838AE281838EE1808316822091BB4BD1
S11345B08DEC289F812D1124869586958695A82FAC
S11345C0B0E0A95BBE4B9C919583880F982F990FFF
S11345D0990F890FA22FA81BB0E0A95BBE4B8C9149
S11345E08483108680918D4B8823B9F080918E4B03
S11345F0813041F4243030F4220F2093BB4B1092CD
S11346008E4B0BC080918E4B833039F4223028F0CE
S113461026952093BB4B10928E4B0E94170D8091D0
S1134620484B882321F08091494B8111B5CF60918B
S1134630BB4B85E090E00E94F01108954CE062E0ED
S113464080E00E94C30543C0EDE7F1E4138280E6F5
S113465082838AE781831082178216822091194B04
S11346608DEC289F812D1124869586958695A82FFB
S1134670B0E0A95BBE4B9C919583880F982F990F4E
S1134680990F890FA22FA81BB0E0A95BBE4B8C9198
S11346908483108680918D4B8823B9F080918E4B52
S11346A0813041F42C3330F42F5F2093194B109256
S11346B08E4B0BC080918E4B833039F4222329F02A
S11346C021502093194B10928E4B0E94170D80910C
S11346D0484B882321F08091494B8111B5CF6091DB
S11346E0194B84E090E00E94F01108954F925F927C
S11346F06F927F928F929F92AF92BF92CF92DF92EE
S1134700EF92FF920F931F93CF93DF931092494B35
S11347104CE062E080E00E94C30584E090E00E94E7
S1134720CE118093194B85E090E00E94CE118093C6
S1134730BB4B86E090E00E94D811A0E0B0E08093EB
S1134740AA4B9093AB4BA093AC4BB093AD4B8CE086
S113475090E00E94E311DC01CB0180934D4B9093D8
S11347604E4BA0934F4BB093504B1092514B109221
S1134770524B1092534B1092544B88E090E00E949D
S1134780D8118093414B9093424B8AE090E00E9471
S1134790D8118093A64B9093A74B4090AA4B50906E
S11347A0AB4B6090AC4B7090AD4BC301B20128EEA3
S11347B033E040E050E00E9465382093AD410F2E75
S11347C0F4E68F2E912CA12CB12CF02DA50194018F
S11347D00E94653820939F4BC301B201A501940147
S11347E00E9465380F2EFAE08F2E912CA12CB12C4B
S11347F0F02DA50194010E9465382093A94BC301B3
S1134800B201A50194010E94653860936F4B4090FA
S11348104D4B50904E4B60904F4B7090504B80904E
S1134820514B9090524BD091534BC091544B689440
S1134830AA24A4F80F2EF7E2BF2EF02DC12CD12C00
S1134840E12CF12C00E010E0242D352D462D572DC0
S1134850682D792D8D2F9C2F0E9424392093974BFE
S11348603093984B4093994B50939A4B60939B4B46
S113487070939C4B80939D4B90939E4B242D352D90
S1134880462D572D682D792D8D2F9C2F0E9422396E
S11348900F2EF8EEAF2EF02D0F2EF3E0BF2EF02DDD
S11348A00E9424392093C34C3093C44C4093C54C8C
S11348B05093C64C6093C74C7093C84C8093C94CBA
S11348C09093CA4C242D352D462D572D682D792DC6
S11348D08D2F9C2F0E9422390F2EF4E6AF2EF02D3F
S11348E0B12C0E9424392093B14B3093B24B4093A6
S11348F0B34B5093B44B6093B54B7093B64B8093CA
S1134900B74B9093B84B242D352D462D572D682D3C
S1134910792D8D2F9C2F0E9422390F2EFAE0AF2E75
S1134920F02D0E94243920937F4B3093804B409389
S1134930814B5093824B6093834B7093844B809351
S1134940854B9093864B242D352D462D572D682D60
S1134950792D8D2F9C2F0E9422392093BE4B3093AA
S1134960BF4B4093C04B5093C14B6093C24B709369
S1134970C34B8093C44B9093C54B2091414B3091D2
S1134980424BC90160E177E20E9451386093434B86
S1134990E8EEF3E0BF010E9451386093BA4BC901BD
S11349A0BF010E945138E4E6F0E0BF010E94513893
S11349B06093444BC901BF010E945138EAE0F0E022
S11349C0BF010E9451386093234BC901BF010E946B
S11349D051388093A54BC1E09DC180918D4B8823B4
S11349E099F080918E4B813031F4C73020F4CF5F41
S11349F010928E4B09C080918E4B833029F4CC23C6
S1134A0019F0C15010928E4BEC2FF0E0E95BFE4B95
S1134A108081809385418C2F90E08830910508F047
S1134A2077C1FC01E058FC4F0C94A638EDE7F1E4A3
S1134A301382128280E681838AE78083178216823A
S1134A404091194B8DEC489F812D112486958695B4
S1134A508695282F30E0295B3E4BD9019C919583A4
S1134A60880F982F990F990F890FA42FA81BB0E0D6
S1134A70A95BBE4B8C91848313868091494B882318
S1134A8009F446C10E941E2343C1EDE7F1E41382F9
S1134A908AE182838AE281838EE18083178216828F
S1134AA04091BB4B8DEC489F812D112486958695B2
S1134AB08695282F30E0295B3E4BD9019C91958344
S1134AC0880F982F990F990F890FA42FA81BB0E076
S1134AD0A95BBE4B8C91848313868091494B8823B8
S1134AE009F416C10E94C62213C1EDE7F1E48CE972
S1134AF083838AEF82839EEC91838083A091AD416E
S1134B00B0E0A95BBE4B8C918783A0919F4BB0E032
S1134B10A95BBE4B8C918683A091A94BB0E0A95BA5
S1134B20BE4B8C918583A0916F4BB0E0A95BBE4BCB
S1134B308C91848313868091494B882309F4E8C0BF
S1134B400E942121E5C0EDE7F1E4138212828AE09C
S1134B5081838AE38083A091974BB091984BA95BA2
S1134B60BE4B8C918F5F8783A091C34CB091C44C92
S1134B70A95BBE4B8C918683A091B14BB091B24B93
S1134B80A95BBE4B8C918583A0917F4BB091804BE8
S1134B90A95BBE4B8C918483A091BE4BB091BF4B5B
S1134BA0A95BBE4B8C9183878091494B882309F480
S1134BB0AFC00E94051BACC0EDE7F1E480E683833F
S1134BC08CEE828382E0818386EB8083A091434BC9
S1134BD0B0E0A95BBE4B8C918783A091BA4BB0E047
S1134BE0A95BBE4B8C918F5F8683A091444BB0E050
S1134BF0A95BBE4B8C918583A091234BB0E0A95B4C
S1134C00BE4B8C918483A091A54BB0E0A95BBE4BB5
S1134C108C9183878091494B882309F479C00E9441
S1134C204F1976C0EDE7F1E486EB83838AE1828352
S1134C308AEF818380E680832091A64B3091A74B35
S1134C403323FCF01782C90164E670E00E945138F6
S1134C50DB01A95BBE4B4C9146830AE010E0B8012E
S1134C600E945138DB01A95BBE4B8C918583C9013D
S1134C70B8010E945138DC01A95BBE4B8C9184833E
S1134C803BC02195ADE7B1E482E017968C9317976A
S1134C9089E2289F812D112482958F70E82FF0E0FE
S1134CA0E95BFE4B908116969C931697E22F94E64F
S1134CB0899FE01911248DECE89FE12D1124E695DC
S1134CC0E695E695F0E0E95BFE4B908115969C93A2
S1134CD01597289F812D1124869586958695880F92
S1134CE0982F990F990F890F281BE22FF0E0E95BA9
S1134CF0FE4B808114968C93109288418091494B8D
S1134D00882331F00E94392003C0C1E001C0C6E00D
S1134D100E94170D8091484B81115FCEDF91CF9196
S1134D201F910F91FF90EF90DF90CF90BF90AF90C5
S1134D309F908F907F906F905F904F9008951BBECF
S1134D40FC0164BF40830895682F88E60E94A91679
S1134D50982F92959F70990F292F220F220F920F4F
S1134D608F70890F0895CF93DF9386E00E94A42665
S1134D70C8E7DBE48E8385E00E94A4268D8384E06B
S1134D800E94A4268C8383E00E94A4268B8382E065
S1134D900E94A4268A8381E00E94A426898380E05D
S1134DA00E94A4268883DF91CF9108959DEC699F8A
S1134DB0912D112496959695969520E1929FA001A8
S1134DC01124990F292F220F220F920F691B6F7044
S1134DD0462B682F88E60E9465160895962F482F63
S1134DE050E04730510518F5FA01E857FC4F0C9490
S1134DF0A6389C33E8F090E01BC09C33C8F090E0E8
S1134E0017C09831A8F090E013C02FEF290F273076
S1134E1078F091E00DC0903258F091E009C09D30D7
S1134E2038F091E005C0911103C095E101C090E014
S1134E30692F0E94D6260895CF93DF931092494B91
S1134E404CE062E080E00E94C3050E94B326C8E7FC
S1134E50DBE4AE818DECA89F912D11249695969557
S1134E609695E92FF0E0E95BFE4B2081EDE7F1E454
S1134E702383990F292F220F220F920FA91BB0E031
S1134E80A95BBE4B9C9192834D81489F912D112427
S1134E90969596959695292F30E0295B3E4BD9013E
S1134EA02C912183990F292F220F220F920FA42FC7
S1134EB0A91BB0E0A95BBE4B9C9190834C81489F99
S1134EC0912D1124969596959695292F30E0295B7E
S1134ED03E4BD9012C912783990F292F220F220FA2
S1134EE0920FA42FA91BB0E0A95BBE4B9C919683A3
S1134EF04A81489F912D1124969596959695292F30
S1134F0030E0295B3E4BD9012C912583990F292F41
S1134F10220F220F920FA42FA91BB0E0A95BBE4B56
S1134F209C9194834981489F912D1124969596953F
S1134F309695292F30E0295B3E4BD9012C9123878C
S1134F40990F292F220F220F920FA42FA91BB0E033
S1134F50A95BBE4B9C919287A881A89F812D1124A7
S1134F60869586958695C82FD0E0C95BDE4B9881DF
S1134F709187880F982F990F990F890FA81BB0E07C
S1134F80A95BBE4B8C9180878AC281E080934B4B96
S1134F90E0918C4B8E2F90E08730910508F07DC214
S1134FA0FC01E157FC4F0C94A638E091784B8DEC52
S1134FB0E89F812D1124869586958695A82FB0E0CB
S1134FC0A95BBE4B9C91ADE7B1E419969C931997EC
S1134FD0880F982F990F990F890FE81BF0E0E95B70
S1134FE0FE4B808118968C9318978091B94B882337
S1134FF021F0FD01138212821FC0E0917E4B8DECE3
S1135000E89F812D1124869586958695A82FB0E07A
S1135010A95BBE4B9C91ADE7B1E413969C931397A7
S1135020880F982F990F990F890FE81BF0E0E95B1F
S1135030FE4B808112968C9380918D4B882309F4CA
S11350402CC280918E4B813051F480917E4B8336FB
S113505030F48F5F80937E4B10928E4B1EC28091F2
S11350608E4B833009F019C280917E4B882309F45A
S113507014C2815080937E4B10928E4B0EC2E091ED
S11350807E4B8DECE89F812D11248695869586951F
S1135090A82FB0E0A95BBE4B9C91ADE7B1E4139699
S11350A09C931397880F982F990F990F890FE81BDA
S11350B0F0E0E95BFE4B808112968C93129780910D
S11350C0B94B882321F0FD01118210821EC0E091AA
S11350D07D4B8DECE89F812D1124869586958695D0
S11350E0A82FB0E0A95BBE4B9C91ADE7B1E411964B
S11350F09C931197880F982F990F990F890FE81B8C
S1135100F0E0E95BFE4B80818C9380918D4B88238A
S113511009F4C3C180918E4B813051F480917D4B51
S11351208C3030F48F5F80937D4B10928E4BB5C1E1
S113513080918E4B833009F0B0C180917D4B8230D9
S113514008F4ABC1815080937D4B10928E4BA5C166
S1135150E0917D4B8DECE89F812D112486958695F9
S11351608695A82FB0E0A95BBE4B9C91ADE7B1E456
S113517011969C931197880F982F990F990F890F67
S1135180E81BF0E0E95BFE4B80818C938091B94B86
S1135190882321F0FD01178216821FC0E0917C4B09
S11351A08DECE89F812D1124869586958695A82FF0
S11351B0B0E0A95BBE4B9C91ADE7B1E417969C931C
S11351C01797880F982F990F990F890FE81BF0E014
S11351D0E95BFE4B808116968C9380918D4B8823DE
S11351E009F45BC180918E4B813051F480917C4BEA
S11351F08F3130F48F5F80937C4B10928E4B4DC176
S113520080918E4B833009F048C180917C4B823071
S113521008F443C1815080937C4B10928E4B3DC166
S1135220E0917C4B8DECE89F812D11248695869529
S11352308695A82FB0E0A95BBE4B9C91ADE7B1E485
S113524017969C931797880F982F990F990F890F8A
S1135250E81BF0E0E95BFE4B808116968C93169771
S11352608091B94B882321F0FD01158214821FC05F
S1135270E0917A4B8DECE89F812D112486958695DB
S11352808695A82FB0E0A95BBE4B9C91ADE7B1E435
S113529015969C931597880F982F990F990F890F3E
S11352A0E81BF0E0E95BFE4B808114968C938091BF
S11352B08D4B882309F4F1C080918E4B813051F4D9
S11352C080917A4B873130F48F5F80937A4B1092C0
S11352D08E4BE3C080918E4B833009F0DEC0809109
S11352E07A4B882309F4D9C0815080937A4B109269
S11352F08E4BD3C0E0917A4B8DECE89F812D112425
S1135300869586958695A82FB0E0A95BBE4B9C91A7
S1135310ADE7B1E415969C931597880F982F990FD4
S1135320990F890FE81BF0E0E95BFE4B808114962E
S11353308C9314978091B94B882321F0FD01138637
S113534012861FC0E091794B8DECE89F812D1124CA
S1135350869586958695A82FB0E0A95BBE4B9C9157
S1135360ADE7B1E41B969C931B97880F982F990F78
S1135370990F890FE81BF0E0E95BFE4B80811A96D8
S11353808C9380918D4B882309F487C080918E4B38
S1135390813051F48091794B8B3330F48F5F80935B
S11353A0794B10928E4B79C080918E4B833009F0EB
S11353B074C08091794B882309F46FC08150809325
S11353C0794B10928E4B69C0E091794B8DECE89F3C
S11353D0812D1124869586958695A82FB0E0A95B2A
S11353E0BE4B9C91ADE7B1E41B969C931B97880F31
S11353F0982F990F990F890FE81BF0E0E95BFE4B9A
S113540080811A968C931A978091B94B882321F046
S1135410FD01118610861FC0E091784B8DECE89F4A
S1135420812D1124869586958695A82FB0E0A95BD9
S1135430BE4B9C91ADE7B1E419969C931997880FE4
S1135440982F990F990F890FE81BF0E0E95BFE4B49
S1135450808118968C9380918D4B8823F1F08091F4
S11354608E4B813051F48091784B8B3330F48F5FC5
S11354708093784B10928E4B10C080918E4B83306A
S113548061F48091784B882341F081508093784B6C
S113549010928E4B02C010928C4B0E94170D80917B
S11354A0484B811172CDC8E7DBE46E8186E00E942F
S11354B0EE266D8185E00E94EE266C8184E00E94D8
S11354C0EE266A8182E00E94EE26698181E00E94D4
S11354D0EE26688180E00E94EE26DF91CF91089548
S11354E080E00895E0E4FAE081E0828787E490E0D8
S11354F086A397A38FE0808380E00895E0E2F8E03C
S113550080E098E18087918784E9858380EC8683B5
S113551080E008959091240895FFFCCF80932208A1
S113552081E090E00895E0E6F8E080E098E180878B
S1135530918784E9858380EC868380E00895909147
S1135540640895FFFCCF8093620881E090E00895A1
S11355500F931F93CF93DF938C01C0E0D0E007C07B
S1135560F801EC0FFD1F80810E949F2A2196F8010B
S113557001900020E9F73197E01BF10BCE17DF070C
S113558078F3DF91CF911F910F9108958AEFE7ECA3
S1135590FBE4DF011D928A95E9F71092B04B089560
S11355A04AE068ED80E091E00E949F2680E0089543
S11355B0CF93C0E0C130A1F028F0C23069F1C3300C
S11355C081F133C084E591E40E94A82A2FEF8FEF84
S11355D09CE2215080409040E1F700C0000025C0CB
S11355E088E591E40E94A82A8091894B805D0E94FD
S11355F09F2A8091AF41805D0E949F2A8091464BF3
S1135600805D0E949F2A8091214B805D0E949F2A89
S11356108DE00E949F2A09C08DE591E40E94A82A8A
S113562004C083E691E40E94A82A80E09DC0C111D1
S113563025C0282F30E0F901E953F44B90819F34C1
S1135640E9F4F901E853F44B90819B34B9F4F9017E
S1135650E753F44B90819D3089F483E090E00E94FD
S11356603B042FEF8FE392E0215080409040E1F71C
S113567000C000000E94C62AC1E079C0C13029F5EB
S1135680282F30E0F901E953F44B90819F34E9F479
S1135690F901E853F44B90819B34B9F4F901E753D1
S11356A0F44B90819D3089F483E090E00E943B04A8
S11356B02FEF8FE392E0215080409040E1F700C04B
S11356C000000E94C62AC2E052C0C23029F5282F29
S11356D030E0F901E953F44B90819F34E9F4F90186
S11356E0E853F44B90819B34B9F4F901E753F44B3C
S11356F090819D3089F483E090E00E943B042FEF79
S11357008FE392E0215080409040E1F700C0000018
S11357100E94C62AC3E02BC0C33029F5282F30E0ED
S1135720F901E953F44B90819F34E9F4F901E8530A
S1135730F44B90819B34B9F4F901E753F44B908115
S11357409D3089F483E090E00E943B042FEF8FE3C7
S113575092E0215080409040E1F700C000000E9498
S1135760C62AC5E004C08F5F8A3F08F460CF0E9458
S1135770170DC53009F01ECFCF9108956F927F9217
S11357808F929F92BF92CF92DF92EF92FF920F93EC
S11357901F93CF93DF934CE062E081E00E94C30546
S11357A08090A24B9090A34B9401329522952F7038
S11357B023273F702327A7E4B3E00E94AF386C018E
S11357C0D694C794D694C794D694C794DC2D20E17C
S11357D037E2C29EC001C39E900DD29E900D11244B
S11357E09401281B390B36952795369527953695C0
S11357F02795A5ECB0E20E94AF387C01F694E794BB
S1135800F694E794F694E794F694E794BE2C940106
S11358103695279536952795369527950E94AF3866
S1135820929582958F7089279F70892748EE53E05F
S1135830849F9001859F300D949F300D1124C401E5
S1135840821B930B9C013695279536952795ABE7DC
S1135850B4E10E94AF383C0176946794062D94011C
S113586036952795369527950E94AF389C01369535
S1135870279544E6429FC001439F900D1124940153
S1135880281B390BADECBCEC0E94AF38AC0156952B
S113589047955695479556954795C42F94010E9470
S11358A0AF389695879596958795969587959C019B
S11358B0220F331F880F991F880F991F880F991F74
S11358C0820F931F9401281B390BC901122FD60193
S11358D0A95BBE4B2C91ADE7B1E417962C931797B7
S11358E097013327295B3E4BF901208116962C93AF
S11358F01697F301FF27E95BFE4B208115962C9345
S113590015975527FA01E95BFE4B208114962C93D9
S113591014979927FC01E95BFE4B80811B968C93BD
S113592077C181E080934B4B80918C4B823009F49A
S113593089C028F4882361F08130D1F167C18430B3
S113594009F418C108F4C9C0853009F45DC15EC109
S1135950E12FF0E0E95BFE4B8081809388418091E8
S1135960B94B882319F01092844107C0ED2FF0E061
S1135970E95BFE4B80818093844180918D4B882329
S113598009F444C180918E4B813031F4D63020F437
S1135990DF5F10928E4B3AC180918E4B833009F0B9
S11359A035C1DD2309F432C1D15010928E4B2EC182
S11359B0ED2FF0E0E95BFE4B808180938441809180
S11359C0B94B882319F01092834107C0EB2DF0E006
S11359D0E95BFE4B80818093834180918D4B8823CA
S11359E009F414C1D630B8F080918E4B813039F46B
S11359F0F4E0FB1520F0B39410928E4B07C1809114
S1135A008E4B833009F002C1BB2009F4FFC0BA9465
S1135A1010928E4BFBC080918E4B813039F428E07C
S1135A202B1520F0B39410928E4BF0C080918E4BC6
S1135A30833009F0EBC0BB2009F4E8C0BA9410929B
S1135A408E4BE4C0EB2DF0E0E95BFE4B808180934C
S1135A5083418091B94B882319F01092824107C089
S1135A60E02FF0E0E95BFE4B8081809382418091DE
S1135A708D4B882309F4CAC0D630C8F034E03B15F6
S1135A80B0F480918E4B813031F4053020F40F5FF7
S1135A9010928E4BBBC080918E4B833009F0B6C000
S1135AA0002309F4B3C0015010928E4BAFC0809113
S1135AB08E4B813031F4093020F40F5F10928E4BFD
S1135AC0A5C080918E4B833009F0A0C0002309F457
S1135AD09DC0015010928E4B99C0E02FF0E0E95B1D
S1135AE0FE4B8081809382418091B94B882319F0C9
S1135AF01092814107C0EC2FF0E0E95BFE4B8081FE
S1135B008093814180918D4B882309F47FC0D630E6
S1135B10D8F044E04B15C0F40530B0F080918E4BC2
S1135B20813031F4C33020F4CF5F10928E4B6EC0BD
S1135B3080918E4B833009F069C0CC2309F466C090
S1135B40C15010928E4B62C080918E4B813031F4E3
S1135B50C93020F4CF5F10928E4B58C080918E4B89
S1135B60833009F053C0CC2309F450C0C1501092C3
S1135B708E4B4CC0EC2FF0E0E95BFE4B80818093B0
S1135B8081418091B94B882319F01092884107C054
S1135B90E12FF0E0E95BFE4B8081809388418091A6
S1135BA08D4B882399F1D630D8F084E08B15C0F45E
S1135BB00530B0F0C330A0F080918E4B813031F4C9
S1135BC0153020F41F5F10928E4B20C080918E4BB5
S1135BD08330E1F41123D1F0115010928E4B16C092
S1135BE080918E4B813031F4193020F41F5F109274
S1135BF08E4B0CC080918E4B833041F4112331F0D5
S1135C00115010928E4B02C010928C4B0E94170DB3
S1135C108091484B811185CE20E137E2D29FC001AB
S1135C20D39F900D112448EE53E0B49E9001B59E8D
S1135C30300D1124820F931F9C01E4E60E9F200D6A
S1135C40311D1124D0E0CE01880F991FCC0FDD1F28
S1135C50CC0FDD1FCC0FDD1F8C0F9D1F820F931FF8
S1135C60810F911D8093A24B9093A34B292F2295D2
S1135C702F702093894B10928A4B9C013F70309374
S1135C80AF411092B0419C013327329522952F7079
S1135C9023273F7023272093464B3093474B8F7025
S1135CA099278093214B9093224B0E94D82AE8E4B1
S1135CB0FBE481E080831182138210928C4BDF918C
S1135CC0CF911F910F91FF90EF90DF90CF90BF90F5
S1135CD09F908F907F906F900895CF93C0E0C130D4
S1135CE0A1F028F0C230D1F1C330E9F140C084E51D
S1135CF091E40E94A82A2FEF8FEF9CE2215080406C
S1135D009040E1F700C0000032C089E691E40E94AF
S1135D10A82AE091204BF0E0EE0FFF1FE65DFF4B59
S1135D2080819181992314F481509F4F892F0E947F
S1135D309F2AE091204BF0E0EE0FFF1FE65DFF4B42
S1135D4080819181907899231CF401979F6F01962B
S1135D500E949F2A8DE00E949F2A09C08DE591E44C
S1135D600E94A82A04C083E691E40E94A82A80E045
S1135D709DC0C11125C0282F30E0F901E953F44B2F
S1135D8090819F34E9F4F901E853F44B90819B34FA
S1135D90B9F4F901E753F44B90819D3089F483E021
S1135DA090E00E943B042FEF8FE392E0215080406B
S1135DB09040E1F700C000000E94C62AC1E079C00B
S1135DC0C13029F5282F30E0F901E953F44B9081D3
S1135DD09F34E9F4F901E853F44B90819B34B9F40E
S1135DE0F901E753F44B90819D3089F483E090E00E
S1135DF00E943B042FEF8FE392E0215080409040BB
S1135E00E1F700C000000E94C62AC2E052C0C230BE
S1135E1029F5282F30E0F901E953F44B90819F34A0
S1135E20E9F4F901E853F44B90819B34B9F4F90196
S1135E30E753F44B90819D3089F483E090E00E9415
S1135E403B042FEF8FE392E0215080409040E1F734
S1135E5000C000000E94C62AC3E02BC0C33029F54D
S1135E60282F30E0F901E953F44B90819F34E9F491
S1135E70F901E853F44B90819B34B9F4F901E753E9
S1135E80F44B90819D3089F483E090E00E943B04C0
S1135E902FEF8FE392E0215080409040E1F700C063
S1135EA000000E94C62AC5E004C08F5F8A3F08F440
S1135EB060CF0E94170DC53009F011CFCF9108951E
S1135EC04CE062E082E00E94C3053DC02091204B7B
S1135ED08DEC289F812D1124869586958695E82F33
S1135EE0F0E0E95BFE4B9081ADE7B1E415969C933D
S1135EF01597880F982F990F990F890FE22FE81B98
S1135F00F0E0E95BFE4B808114968C9380918D4B7D
S1135F108823B9F080918E4B813041F42E3030F4D7
S1135F202F5F2093204B10928E4B0BC080918E4B91
S1135F30833039F4222329F021502093204B1092EE
S1135F408E4B0E94170D8091494B882321F080913C
S1135F50484B8111BBCF0E946D2E0895CF93C0E0B2
S1135F60C130A1F028F0C230B1F0C330C9F01CC078
S1135F7084E591E40E94A82A2FEF8FEF9CE2215040
S1135F8080409040E1F700C000000EC08EE691E42E
S1135F900E94A82A09C084E791E40E94A82A04C0A8
S1135FA083E691E40E94A82A80E030C1C11125C093
S1135FB0282F30E0F901E953F44B90819F34E9F440
S1135FC0F901E853F44B90819B34B9F4F901E75398
S1135FD0F44B90819D3089F483E090E00E943B046F
S1135FE02FEF8FE392E0215080409040E1F700C012
S1135FF000000E94C62AC1E00CC1C13009F04EC0A5
S1136000282F30E0F901E953F44B90819D3009F0D9
S113601045C0813019F0823049F02FC0F901EA53AC
S1136020F44B808183548093204B27C0F901EA53B9
S1136030F44B80818A3388F4F901EB53F44B2081CB
S113604030E020533109220F922F990F990F290F15
S1136050820F86538093204B10C0F901EB53F44B0D
S1136060208130E020533109220F922F990F990F8C
S1136070290F820F8D538093204B83E090E00E9480
S11360803B042FEF8FE392E0215080409040E1F7F2
S113609000C000000E94C62AC2E0BBC0C23009F0A2
S11360A08DC0282F30E0F901E953F44B90819D30E5
S11360B009F084C08230A9F018F4813039F06DC041
S11360C0833021F1843009F440C067C0F901EA53F8
S11360D0F44B808190E0C0978093214B9093224BA6
S11360E05CC0F901EB53F44B808190E0C09780933E
S11360F0464B9093474BF901EA53F44B808190E06F
S1136100C0978093214B9093224B47C0F901EC53E5
S1136110F44B808190E0C0978093AF419093B0415D
S1136120F901EB53F44B808190E0C0978093464B88
S11361309093474BF901EA53F44B808190E0C09768
S11361408093214B9093224B28C0F901ED53F44BDB
S1136150808190E0C0978093894B90938A4BF9019A
S1136160EC53F44B808190E0C0978093AF419093BF
S1136170B041F901EB53F44B808190E0C0978093D8
S1136180464B9093474BF901EA53F44B808190E0DE
S1136190C0978093214B9093224B83E090E00E9420
S11361A03B042FEF8FE392E0215080409040E1F7D1
S11361B000C000000E94C62AC3E02BC0C33029F5EA
S11361C0282F30E0F901E953F44B90819F34E9F42E
S11361D0F901E853F44B90819B34B9F4F901E75386
S11361E0F44B90819D3089F483E090E00E943B045D
S11361F02FEF8FE392E0215080409040E1F700C000
S113620000000E94C62AC5E004C08F5F8A3F08F4DC
S1136210CDCE0E94170DC53009F0A2CECF910895BE
S1136220EF92FF920F931F93CF931092494B4CE040
S113623062E080E00E94C3050E94AE2FC1E049C124
S113624080918D4B882399F080918E4B813031F46D
S1136250C33020F4CF5F10928E4B09C080918E4BD7
S1136260833029F4CC2319F0C15010928E4BEC2FBB
S1136270F0E0E95BFE4B808180938541C13041F0C1
S113628008F424C1C230B9F1C33009F41DC11FC1DF
S1136290EDE7F1E48AED838382E082838AE18183FE
S11362A08EE28083178216824091204B8DEC489FAA
S11362B0812D1124869586958695282F30E0295BBB
S11362C03E4BD9019C919583880F982F990F990F74
S11362D0890FA42FA81BB0E0A95BBE4B8C918483CB
S11362E01386128611868091494B882309F4EFC0E6
