S01400005069675F5363616C65732D322E73726563D7
S11306000C941E040C943D040C943D040C943D0481
S11306100C943D040C943D040C943D040C943D0452
S11306200C943D040C943D040C943D040C943D0442
S11306300C943D040C943D040C943D040C943D0432
S11306400C943D040C943D040C943D040C943D0422
S11306500C943D040C943D040C943D040C943D0412
S11306600C943D040C943D040C943D040C943D0402
S11306700C943D040C943D040C943D040C944A04E5
S11306800C943D040C943D040C943D040C943D04E2
S11306900C943D040C943D040C943D040C943D04D2
S11306A00C943D040C943D040C943D040C94AC1740
S11306B00C943D040C943D040C94A2040C943D044D
S11306C00C943D040C943D040C943D040C943D04A2
S11306D00C9476040C943D040C943D040C943D0459
S11306E00C943D040C943D040C943D040C943D0482
S11306F00C943D040C943D040C943D040C943D0472
S1130700E20F6F0F870F9E0FB40FCA0FE00F3E2941
S11307100628352865289328CC2802293C29B229A3
S1130720B629BA29BE29C429C829CC298E2AF82A6F
S1130730612BC92B332C9D2C042D6E616E00696EC8
S1130740660000407A10F35A00A0724E1809001097
S1130750A5D4E80000E87648170000E40B54020032
S113076000CA9A3B000000E1F5050000809698005D
S1130770000040420F000000A08601000000102786
S113078000000000E8030000000064000000000016
S11307900A00000000000100000000002C76D88848
S11307A0DC674F0823DFC1DFAE59E1B1B796E5E35B
S11307B0E453C63AE651997696E8E6C28426EB8974
S11307C08C9B62ED407C6FFCEFBC9C9F40F2BAA511
S11307D06FA5F490055A2AF75C936B6CF9676DC1A9
S11307E01BFCE0E40D47FEF520E6B500D0ED902EAD
S11307F00300943577050080841E080000204E0A0B
S1130800000000C80C333333330F986E1283114148
S1130810EF8D2114893BE65516CFFEE6DB18D18413
S11308204B381BF77C1D901DA4BBE424203284723A
S11308305E228100C9F124ECA1E53D2711241FBEED
S1130840CFEFCDBFDFE7DEBF11E4A0E0B0E4E8E521
S1130850F0E800E00BBF02C007900D92AE36B1077E
S1130860D9F722E5AEE6B1E401C01D92AE3AB20773
S1130870E1F70E9453110C942A400C9400030E9447
S113088042130895E4E0F4E09081926090838093B1
S1130890815108951F920F920FB60F9211240BB637
S11308A00F928F939F93EF93FF9380912408882353
S11308B0E4F78091E350E82FF0E090912008E851AC
S11308C0FF4A9083893110F01092E3508091E350F5
S11308D08F5F8093E350FF91EF919F918F910F90E1
S11308E00BBE0F900FBE0F901F9018951F920F9282
S11308F00FB60F9211240BB60F928F939F93EF9321
S1130900FF93809164088823E4F780918A51E82F4B
S1130910F0E090916008EF55FE4A90838A3F10F012
S113092010928A5180918A518F5F80938A51FF91EE
S1130930EF919F918F910F900BBE0F900FBE0F9070
S11309401F9018951F920F920FB60F9211240BB699
S11309500F922F933F934F935F936F937F938F9354
S11309609F93AF93BF93EF93FF9381E080934B0AE0
S11309700E9448050E94EC0580914D51811105C0EB
S1130980E7E6F1E51182128205C0EDE4F1E580812C
S11309908150808380918151811106C0E4E0F4E0AC
S11309A080818D7F808303C0815080938151EDE4E9
S11309B0F1E5818192810196818392838181928183
S11309C0803D974028F0E8E0F1E510821182128220
S11309D0EDE4F1E58381948101968383948380918E
S11309E015518F5F80931551833348F081E09091C6
S11309F09351911180E08093935110921551FF917E
S1130A00EF91BF91AF919F918F917F916F915F9182
S1130A104F913F912F910F900BBE0F900FBE0F90EF
S1130A201F901895CF93C82F80916651813019F487
S1130A308C2F0E94432D80916651833019F48C2FA2
S1130A400E94582D80E090E0CF9108958EE080932D
S1130A5000048DE08093200485E580934004109287
S1130A606004109280048CE08093A00487EF80934C
S1130A70C0041092040410922404109244041092AE
S1130A806404109284041092A4041092C40408957F
S1130A9032E02FC0E4ECF4E080818D7F808380918C
S1130AA0704194E03902F0011124EF58FE4BE80F35
S1130AB0F11D808190E0022E02C0959587950A94DD
S1130AC0E2F780FF06C0E4ECF4E080818460808378
S1130AD005C0E4ECF4E080818B7F8083E4ECF4E0F7
S1130AE08081826080832F5F01C020E0283090F2F3
S1130AF031503323D4F7E4ECF4E0808181608083C7
S1130B0080818E7F8083809170418130A9F028F0AC
S1130B10823009F1833071F13BC0E4ECF4E0808170
S1130B208F7E808380818F7D808380818F7B808393
S1130B308081806880832CC0E4ECF4E080818F7E27
S1130B40808380818F7D80838081806480838081A5
S1130B508F7780831DC0E4ECF4E080818F7E8083F6
S1130B6080818062808380818F7B808380818F7786
S1130B7080830EC0E4ECF4E0808180618083808116
S1130B808F7D808380818F7B808380818F7780833A
S1130B90809170418F5F80937041843010F0109287
S1130BA07041089516C0E82FF0E0A42FB0E0A55CD2
S1130BB0BE4B2C91EE0FFF1FEE0FFF1FEF58FE4BA5
S1130BC0E90FF11D20839F5F01C090E0943058F33A
S1130BD08F5F6817D0F70895809168518111CDC057
S1130BE08091080484FD0FC08AE090E00E944204D2
S1130BF0E7E6F1E581E08283818310924E51109201
S1130C004F51109204518091080485FD10C08AE070
S1130C1090E00E944204E7E6F1E582E0828381E00D
S1130C20818310924E5110924F5110920451809131
S1130C30080486FD10C08AE090E00E944204E7E6C2
S1130C40F1E583E0828381E0818310924E5110921A
S1130C504F511092045180910804882384F08AE053
S1130C6090E00E944204E7E6F1E584E0828381E0BB
S1130C70818310924E5110924F51109204518091E1
S1130C806951843051F480910851882319F01092ED
S1130C90085103C081E08093085180910851882352
S1130CA091F080916951823071F480910B518111DE
S1130CB00AC080910951882319F01092095103C088
S1130CC081E08093095180910851811117C080916E
S1130CD00A51811113C080916951823079F4809155
S1130CE00C51882319F010920C5108C081E08093B4
S1130CF00C514AE062E082E00E94D20580910851E2
S1130D00882369F080916951823049F480910B51B4
S1130D10882329F0E7E6F1E580818F5F8083809165
S1130D20085181110BC080916951813039F480914F
S1130D300A51811103C081E080930A51E7E6F1E58D
S1130D4093818281981311C080916B51823020F07D
S1130D5084E180934D51089582E380934D51E7E6F9
S1130D60F1E584818F5F8483089582E380934D51FC
S1130D70E7E6F1E58281838314820895CF92DF92BE
S1130D80EF92FF9280E090E00E94551380936351AC
S1130D9081508C3340F081E08093635161E080E0C6
S1130DA090E00E94771381E090E00E9455138093B5
S1130DB06D5181508C3340F081E080936D5161E03E
S1130DC081E090E00E94771382E090E00E94551346
S1130DD080935951803240F081E08093595161E011
S1130DE082E090E00E94771383E090E00E94551324
S1130DF08093E2508D3340F081E08093E25061E0D3
S1130E0083E090E00E94771384E090E00E94551301
S1130E10809396518150843040F082E080939651C3
S1130E2062E084E090E00E94771388E090E00E9402
S1130E305F13A0E0B0E08093835190938451A0931A
S1130E408551B093865184569109A109B109853819
S1130E509340A105B10590F084E690E0A0E0B0E0F5
S1130E608093835190938451A0938551B09386517C
S1130E7064E670E088E090E00E949A138CE090E0D1
S1130E800E946A130E9446366B017C0160936F5185
S1130E9070937051809371519093725120E038ECAB
S1130EA04FEA57E40E943637181654F020E030E435
S1130EB04CE156E4C701B6010E9499358823A4F495
S1130EC080E090E4ACE1B7E480936F51909370516B
S1130ED0A0937151B093725140E45CE960E070E01A
S1130EE08CE090E00E94B7138AE090E00E945F13C8
S1130EF080930151909302510A978730974260F092
S1130F0084EF91E0809301519093025164EF71E07A
S1130F108AE090E00E949A1385E090E00E945513C5
S1130F20809394518150843640F081E080939451B1
S1130F3061E085E090E00E94771386E090E00E94F3
S1130F40551380936E518150843640F081E0809334
S1130F506E5161E086E090E00E94771387E090E0B4
S1130F600E9455138093A051833038F01092A05101
S1130F7060E087E090E00E9477130E946C298091E2
S1130F8052518C3328F060E080E00E94A729FFCF03
S1130F908091585181111CC066E186E00E94A72906
S1130FA069E085E00E94A72964E184E00E94A72902
S1130FB063E083E00E94A7296CE082E00E94A729F5
S1130FC060E081E00E94A72960E080E00E94A729F8
S1130FD0FF90EF90DF90CF9008958FE090E00E9413
S1130FE0420426E686E695E0215080409040E1F7F1
S1130FF08FE090E00E94420426E686E695E02150C8
S113100080409040E1F78FE090E00E944204089510
S1131010CF93DF93C1E7D1E41F82E091945189E239
S1131020E89F812D112482958F70A82FB0E0A55CD4
S1131030BE4B9C919E83AE2F94E6899FA0191124E8
S11310408DECA89FA12D1124A695A695A695B0E098
S1131050A55CBE4B9C919D83E89F812D11248695B0
S113106086958695880F982F990F990F890FE81BFD
S1131070F0E0E55CFE4B80818C83DF91CF91089595
S1131080CF93DF93C1E7D1E41B86E0916E5189E2EF
S1131090E89F812D112482958F70A82FB0E0A55C64
S11310A0BE4B9C919A87AE2F94E6899FA019112478
S11310B08DECA89FA12D1124A695A695A695B0E028
S11310C0A55CBE4B9C919987E89F812D1124869540
S11310D086958695880F982F990F990F890FE81B8D
S11310E0F0E0E55CFE4B80818887DF91CF91089525
S11310F04F925F926F927F928F929F92AF92BF9224
S1131100CF92DF92EF92FF920F931F93CF93DF93CF
S11311100E94401AEC016C01E12CF12CE6E1F1E5AE
S1131120418552856385748585859685A785B089B3
S1131130480F591F6A1F7B1F81899289A389B4892B
S1131140480F591F6A1F7B1F85899689A789B08D0F
S1131150480F591F6A1F7B1F818D928DA38DB48DFB
S1131160480F591F6A1F7B1F858D968DA78DB0A1CF
S1131170480F591F6A1F7B1F81A192A1A3A1B4A18B
S1131180480F591F6A1F7B1F85A196A1A7A1B0A56F
S1131190480F591F6A1F7B1F81A592A5A3A5B4A55B
S11311A0480F591F6A1F7B1F85A596A5A7A5B0A93F
S11311B08A019B01080F191F2A1F3B1FC901B8018F
S11311C02AE030E040E050E00E947E3B49015A01B1
S11311D0DA01C901C114D104E104F10409F437C2EC
S11311E02601370119E1411A51086108710831E0FB
S11311F0B701A601475E5F4F6F4F7F4F48155905F2
S11312006A057B0508F430E021E084159505A60500
S1131210B70508F420E0232309F499C1109204517E
S113122080910C51811104C08091A051882329F030
S113123080916C518F5F80936C5180916C5182309E
S113124009F077C14AE061E081E00E94D205809113
S11312500C51811105C08091A051882309F467C104
S113126080911651811163C18091A541833220F48C
S11312708F5F8093A54102C01092A54180917B515C
S11312808F5F80937B5190E08C010A551E4B209117
S1131290A051F8012083FC01EA56FF4FEE0FFF1F17
S11312A0EA55FE4B808391830F2EF6E1EF2EF1E594
S11312B0FF2EF02DF70181829282A382B482FC0179
S11312C0EE53FE4FEE0FFF1FEA55FE4B80829182D4
S11312D0F801E452FA4F809194518083E45DFE4F0B
S11312E080916E51808386E00E945D29F801EC5C58
S11312F0F74F808300917B5110E085E00E945D29C7
S1131300F801EA5FF44B808300917B5110E084E0A4
S11313100E945D29F801EE5CF34B808300917B51C0
S113132010E082E00E945D29F801E25AF24B8083CA
S113133000917B5110E081E00E945D29F801E6579D
S1131340F14B808300917B5110E080E00E945D2985
S1131350F801EA54F04B80838091A54190E09C0110
S1131360220F331F820F931F880F991F880F991F15
S11313706091A05180960E9477138091A54190E0DE
S11313809C01220F331F820F931F880F991F880F10
S1131390991F60917B5170E044960E949A13F70163
S11313A081829282A382B4828091A54190E09C01C3
S11313B0220F331F820F931F880F991F880F991FC5
S11313C0B40148960E949A138091A54190E09C0133
S11313D0220F331F820F931F880F991F880F991FA5
S11313E06091945146960E9477138091A54190E0B4
S11313F09C01220F331F820F931F880F991F880FA0
S1131400991F60916E5147960E94771386E00E945F
S11314105D29682F2091A54130E0C901880F991FEB
S1131420280F391FC901880F991F880F991F4A96E1
S11314300E94771385E00E945D29682F2091A541C1
S113144030E0C901880F991F280F391FC901880F7F
S1131450991F880F991F4B960E94771384E00E946E
S11314605D29682F2091A54130E0C901880F991F9B
S1131470280F391FC901880F991F880F991F4C968F
S11314800E94771382E00E945D29682F2091A54174
S113149030E0C901880F991F280F391FC901880F2F
S11314A0991F880F991F4D960E94771381E00E941F
S11314B05D29682F2091A54130E0C901880F991F4B
S11314C0280F391FC901880F991F880F991F4E963D
S11314D00E94771380E00E945D29682F2091A54126
S11314E030E0C901880F991F280F391FC901880FDF
S11314F0991F880F991F4F960E94771381E0F70177
S1131500808310920C510E94ED07BF92AF929F927C
S11315108F9288E490E49F938F930E94443E0E94AC
S113152072180F900F900F900F900F900F900E94D1
S11315304008E6E1F1E581829282A382B48280814F
S1131540811102C00E947218109288512EC0B701F6
S1131550A6014A565F4F6F4F7F4FF6E9CF1AD10865
S1131560E108F10831E0481759076A077B0708F4D6
S113157030E021E08C159D05AE05BF0508F420E0A0
S1131580232399F006E111E5F80181829282A38276
S1131590B4820E940808F8018081811102C00E946F
S11315A072181092885110926C51E6E1F1E581A510
S11315B092A5A3A5B4A585A796A7A7A7B0AB85A117
S11315C096A1A7A1B0A581A792A7A3A7B4A781A11B
S11315D092A1A3A1B4A185A396A3A7A3B0A7858D27
S11315E0968DA78DB0A181A392A3A3A3B4A3818D4B
S11315F0928DA38DB48D858F968FA78FB0A3858987
S11316009689A789B08D818F928FA38FB48F81899A
S11316109289A389B489858B968BA78BB08F858596
S11316209685A785B089818B928BA38BB48B81859A
S11316309285A385B48585879687A787B08BCE01CD
S1131640A0E0B0E081879287A387B48749C08091E6
S113165088518F5F80938851863008F441C0E6E159
S1131660F1E5118E128E138E148E158A168A178A3E
S1131670108E118A128A138A148A15861686178682
S1131680108A118612861386148615A616A617A626
S113169010AA11A612A613A614A615A216A217A282
S11316A010A611A212A213A214A2158E168E178EC2
S11316B010A2CE01A0E0B0E081839283A383B4831F
S11316C00E9472180E94080880910C51811102C076
S11316D00E944008109216511092885110926C5139
S11316E0DF91CF911F910F91FF90EF90DF90CF90FA
S11316F0BF90AF909F908F907F906F905F904F902E
S113170008951F93CF93DF93CDB7DEB76E97CDBF08
S1131710DEBF8EE1FE013196DF01982F1D929A956E
S1131720E9F7DF011D928A95E9F780917B5190E0FA
S113173020916E4130916F412817390738F42F5F9B
S11317403F4F20936E4130936F4104C010926E411D
S113175010926F4180EF898385E18B838091E25001
S11317608C838CE28E8380916D518F8380916E4146
S113177090916F41FC01EA55FE4B2081298722E0BC
S11317802A87DC01AA56BF4FAA0FBB1FAA55BE4B1E
S11317902C9111963C913B872C87DC01AE53BE4FB4
S11317A0AA0FBB1FAA55BE4B2C9111963C913D87A5
S11317B02E87DF01A452BA4F2C912F87A45DBE4F10
S11317C02C91288BA45DBE4F2C91298BA45DBE4F18
S11317D02C912A8BA45DBE4F2C912B8BA45DBE4F04
S11317E02C912C8BA45DBE4F2C912D8BE05FF14F7F
S11317F020812E8B9F8B888F81E090E009C0E1E0EF
S1131800F0E0EC0FFD1FE80FF11D2081920F8F5FB8
S11318108C31A8F39D8F81EF8E8F10E00AC0E1E038
S1131820F0E0EC0FFD1FE10FF11D80810E94582DA7
S11318301F5F1E31A0F36E96CDBFDEBFDF91CF9147
S11318401F9108951F93CF93DF93CDB7DEB72A97E7
S1131850CDBFDEBF9AE0FE013196DF01292F1D9234
S11318602A95E9F7DF011D929A95E9F790EF99839C
S113187095E19B839091E2509C838D838CE28E83CF
S113188080916D518F8381E090E009C0E1E0F0E048
S1131890EC0FFD1FE80FF11D2081920F8F5F883040
S11318A0A8F3998781EF8A8710E00AC0E1E0F0E0AD
S11318B0EC0FFD1FE10FF11D80810E94582D1F5F69
S11318C01A30A0F32A96CDBFDEBFDF91CF911F91CE
S11318D00895EF92FF920F931F93CF93DF93C0E08D
S11318E063C10C2F10E0F801EF55FE4A8081803F60
S11318F009F052C0F801EE55FE4A9081913009F08A
S11319004BC0F801ED55FE4A9081913009F044C076
S1131910F801EB55FE4A908191113EC0F801E6555D
S1131920FE4A9081913FC1F5E4E2F4E08081886051
S1131930808390E081E008C0F801E80FF11DEF55C5
S1131940FE4A2081920F8F5F8830B0F3F801E7558B
S1131950FE4A8081981318C0F801EC55FE4A908124
S11319608091E250981310C0C4E2D4E0888184606E
S113197088830E94810B8CEC9CE10197F1F700C0F5
S1131980000088818B7F88830E947F2DE4E2F4E04D
S11319908081877F80830BC1803F09F0A1C0F8015B
S11319A0EE55FE4A9081913009F09AC0F801EB554A
S11319B0FE4A9081993009F093C0F801E055FE4A3F
S11319C09081913F09F08CC0E4E2F4E0808188606A
S11319D0808390E081E008C0F801E80FF11DEF5525
S11319E0FE4A2081920F8F5F8E30B0F3F801E155EB
S11319F0FE4A808198136CC0F801E755FE4A808145
S1131A00982F92959F70990F692F660F660F960F06
S1131A108F70692F680F86E00E94A729F801E655A8
S1131A20FE4A8081982F92959F70990F692F660FB7
S1131A30660F960F8F70692F680F85E00E94A729A3
S1131A40F801E555FE4A8081982F92959F70990F71
S1131A50692F660F660F960F8F70692F680F84E0E9
S1131A600E94A729F801E455FE4A8081982F929597
S1131A709F70990F692F660F660F960F8F70692FED
S1131A80680F82E00E94A729F801E355FE4A80818D
S1131A90982F92959F70990F692F660F660F960F76
S1131AA08F70692F680F81E00E94A729F801E25521
S1131AB0FE4A8081982F92959F70990F692F660F27
S1131AC0660F960F8F70692F680F80E00E94A72918
S1131AD00E947F2DE4E2F4E08081877F808367C0E9
S1131AE0803F09F060C0F801EE55FE4A80818130E4
S1131AF009F059C0F801ED55FE4A8081813009F0A2
S1131B0052C0780194E0E90EF11CF701EF55FE4A4A
S1131B108081873009F047C0F801E054FE4A808193
S1131B20813F09F040C0E4E2F4E080818860808372
S1131B3090E081E008C0F801E80FF11DEF55FE4A7E
S1131B402081920F8F5F8E31B0F3F801E154FE4A89
S1131B508081981328C060E070E0F801EC55FE4ADB
S1131B6090818091E25098131EC06093015170934C
S1131B7002518AE090E00E949A1304E214E0F80112
S1131B80808184608083F701EF55FE4A80810E9442
S1131B90220C8CEC9CE10197F1F700C00000F801E5
S1131BA080818B7F8083CF5FCA3F08F49ACEDF9118
S1131BB0CF911F910F91FF90EF9008958091505114
S1131BC090915151883E934008F479C0109250513D
S1131BD0109251510E946C29E2E5F1E587816481FC
S1131BE0861709F462C06093595182E090E00E9424
S1131BF077138CE291E0E6EAF1E4DF019C011D92A7
S1131C0021503040E1F7E2EDF2E4DF019C011D9246
S1131C1021503040E1F7EAE2F5E4DF019C011D9236
S1131C2021503040E1F7E2E8F7E4DF019C011D9226
S1131C3021503040E1F7EEEAF8E4DF019C011D9207
S1131C4021503040E1F7EAEDF9E4DF019C011D92F7
S1131C5021503040E1F7E6E0FBE4DF019C011D92F6
S1131C6021503040E1F7E2E3FCE4DF019C011D92E6
S1131C7021503040E1F7EEE5FDE4DF019C011D92C7
S1131C8021503040E1F7EAE8FEE4DF019C011D92B7
S1131C9021503040E1F7E6EBFFE4DF019C011D92A7
S1131CA021503040E1F710927B51809104518F5FB5
S1131CB0809304518B3018F08AE080930451089586
S1131CC0CF92DF92EF92FF9220E836E948E15BE49D
S1131CD060916F51709170518091715190917251D6
S1131CE00E949E3520E030E040E85EE30E943B37EE
S1131CF020E030E040E053E40E943B379B01AC011C
S1131D000E942D3520E030E040E05BE40E943B3748
S1131D106B017C0120918351309184514091855114
S1131D2050918651A8EEB3E00E94B53B0E9446361E
S1131D309B01AC01C701B6010E949E356B017C0179
S1131D406091965170E080E090E00E9448369B01DB
S1131D50AC01C701B6010E949E3560934751709350
S1131D6048518093495190934A51FF90EF90DF90EE
S1131D70CF9008954AE062E080E00E94D2050E947C
S1131D80BE0686E69EE00197F1F700000E94600E11
S1131D9086E69EE00197F1F700000E94FD1986E6B1
S1131DA09EE00197F1F700000E94FD190E94ED07E3
S1131DB01092165110920451E8E0F1E5108211825C
S1131DC013821282109267514CE062E080E00E941C
S1131DD0D2050895A89508953CC080916851882340
S1131DE069F080916951813019F48093A05106C043
S1131DF080916951833011F41092A0518091A051C7
S1131E00882399F080919351882331F04CE061E06C
S1131E1081E00E94D2051BC0E1E7F1E4178216823B
S1131E208CEF85838CEE848312C080919351882338
S1131E3031F04CE061E081E00E94D20508C0E1E7A6
S1131E40F1E417828CEF86838EE8858384830E9475
S1131E50EA0E80910851882321F080910951811163
S1131E60BCCF6091A05187E090E00E947713089561
S1131E70CF93109209514CE062E080E00E94D205B9
S1131E80C1E0A3C080916851882399F08091695181
S1131E90813031F4C63020F4CF5F1092695109C00B
S1131EA080916951833029F4CC2319F0C1501092E8
S1131EB06951E1E7F1E4138612861186AC2FB0E094
S1131EC0A55CBE4B8C9180878C2F90E08730910568
S1131ED008F079C0FC01E058FC4F0C949D3BE1E70D
S1131EE0F1E48AEF838388E382838EE181839AE33A
S1131EF09083178296EB96839EED958384838091DD
S1131F000951882309F45FC00E94EC0E5CC0E1E72C
S1131F10F1E48AE183838EED828390E6918390835A
S1131F20178296EB968385838EE184838091095191
S1131F30882309F448C00E946F2645C0E1E7F1E414
S1131F40138286EF82838AEF81838EE180831782F6
S1131F5096EB96839EED9583848380910951882323
S1131F6091F10E948D142FC0E1E7F1E413828AED10
S1131F7082838EE381838EED8083178296EB968332
S1131F8085838EE18483809109518823E1F00E9446
S1131F90C93319C0E1E7F1E413828AE082838EE158
S1131FA081839AE19083178296EB96839EED9583C5
S1131FB0848380910951882331F00E94D52903C07C
S1131FC0C1E001C0C5E00E94EA0E80910851811170
S1131FD059CF0E94BA0ECF910895CF93DF932FEF7C
S1131FE08FE796E1215080409040E1F700C0000067
S1131FF043C180910A51813009F09DC0809168519C
S1132000882341F180916951813051F48091945138
S1132010843630F48F5F80939451109269511AC0C2
S113202080916951833051F480919451823030F021
S1132030815080939451109269510CC080916951E0
S1132040823041F4E8E0F1E582818F5F828314827B
S11320501092695180919351882331F04CE061E0F2
S113206081E00E94D20533C0C1E7D1E41F82E09130
S1132070945189E2E89F812D112482958F70A82FB5
S1132080B0E0A55CBE4B9C919E83AE2F24E6829F5C
S1132090A01911248DECA89FA12D1124A695A69515
S11320A0A695B0E0A55CBE4B9C919D83E89F812DD5
S11320B01124869586958695880F982F990F990FE8
S11320C0890FE81BF0E0E55CFE4B80818C83C1E75F
S11320D0D1E41B86E0916E5189E2E89F812D1124A1
S11320E082958F70A82FB0E0A55CBE4B9C919A8717
S11320F0AE2F94E6899FA01911248DECA89FA12DE1
S11321001124A695A695A695B0E0A55CBE4B9C911E
S11321109987E89F812D1124869586958695880F49
S1132120982F990F990F890FE81BF0E0E55CFE4B9F
S1132130808188879FC080910A51823009F09AC0BB
S113214080916851882331F180916951813051F433
S113215080916E51843630F48F5F80936E5110926B
S1132160695118C080916951833051F480916E5146
S1132170823030F0815080936E51109269510AC0C0
S113218080916951823031F4E8E0F1E512821482E1
S11321901092695180919351882331F04CE062E0B0
S11321A082E00E94D20533C0C1E7D1E41B86E091EE
S11321B06E5189E2E89F812D112482958F70A82F9A
S11321C0B0E0A55CBE4B9C919A87AE2F24E6829F1B
S11321D0A01911248DECA89FA12D1124A695A695D4
S11321E0A695B0E0A55CBE4B9C919987E89F812D94
S11321F01124869586958695880F982F990F990FA7
S1132200890FE81BF0E0E55CFE4B80818887C1E71D
S1132210D1E41F82E091945189E2E89F812D112439
S113222082958F70A82FB0E0A55CBE4B9C919E83D5
S1132230AE2F94E6899FA01911248DECA89FA12D9F
S11322401124A695A695A695B0E0A55CBE4B9C91DD
S11322509D83E89F812D1124869586958695880F08
S1132260982F990F990F890FE81BF0E0E55CFE4B5E
S113227080818C830E94EA0E80910A518111B9CE2B
S113228010920A516091945185E090E00E94771376
S113229060916E5186E090E00E9477130E94ED07F2
S11322A0DF91CF9108950E943F040E94260560E0CB
S11322B070E082E195E00E94BD3D81E0809366512B
S11322C02FEF8FE392E0215080409040E1F700C06F
S11322D000008BEF90E40E94583E85E590E40E9454
S11322E0583E1F9284E08F931F928F938CE890E462
S11322F09F938F930E94443E86EC90E40E94583E44
S11323008DEF90E49F938F9386E091E49F938F9356
S113231082E191E49F938F930E94443E85E590E48B
S11323200E94583E8BEF90E40E94583E78940E949D
S1132330ED07E4E2F4E08081877F808380818B7FF6
S11323408083E1E7F1E4138287E6828386E6818372
S11323501082AFEFBFEF2CE2A150B0402040E1F774
S113236000C000000E94EA0E85E08093875110921D
S113237004511092A3520E94BE068DB79EB70C96CC
S11323808DBF9EBFB1C00E946C29C2E5D1E5AE816C
S11323908DECA89F912D1124969596959695E92FED
S11323A0F0E0E55CFE4B2081E1E7F1E42383990F43
S11323B0292F220F220F920FA91BB0E0A55CBE4B60
S11323C09C9192834D81489F912D112496959695C9
S11323D09695292F30E0255C3E4BD9012C91218321
S11323E0990F292F220F220F920FA42FA91BB0E0BF
S11323F0A55CBE4B9C9190834C81489F912D1124E8
S1132400969596959695292F30E0255C3E4BD901FB
S11324102C912783990F292F220F220F920FA42F7B
S1132420A91BB0E0A55CBE4B9C9196834A81489F52
S1132430912D1124969596959695292F30E0255C3B
S11324403E4BD9012C912583990F292F220F220F5E
S1132450920FA42FA91BB0E0A55CBE4B9C91948362
S11324604981489F912D1124969596959695292FEB
S113247030E0255C3E4BD9012C912387990F292FFD
S1132480220F220F920FA42FA91BB0E0A55CBE4B14
S11324909C9192879881989F812D11248695869589
S11324A08695A82FB0E0A55CBE4B2C912187880FA0
S11324B0282F220F220F820FA92FA81BB0E0A55CA2
S11324C0BE4B8C9180878091A352981769F09093AA
S11324D0A3528AE090E00E9442040E94EA0E809196
S11324E087518150809387518091875181114BCFBF
S11324F00E94BA0E0E94EA0E0E9478088091085148
S113250081110E94380F80910A5181110E94ED0FB0
S11325100E94690C0E94DE0DBFEF2FE382E0B150F0
S113252020408040E1F700C000000E94EA0EE4CFA2
S11325301092890080E0089543E068ED80E690E021
S11325400E9458298091630080FDFCCF80E00895AB
S113255080E008C0E82FF0E0E05FFB4F90819860D6
S113256090838F5F8830B0F380E008C0E82FF0E0FC
S1132570E05DFB4F9081986090838F5F8830B0F36B
S113258080E008C0E82FF0E0E05BFB4F90819860AA
S113259090838F5F8830B0F380E008C0E82FF0E0CC
S11325A0E059FB4F9081986090838F5F8830B0F33F
S11325B080E008C0E82FF0E0E057FB4F908198607E
S11325C090838F5F8830B0F380E008C0E82FF0E09C
S11325D0E055FB4F9081986090838F5F8830B0F313
S11325E080E008C0E82FF0E0E053FB4F9081986052
S11325F090838F5F8830B0F3089585B3877F85BB60
S113260084B3886084BBE3EBF4E08081877F8083BC
S113261080818F7780838081887F808385B38B7F5F
S113262085BB84B3846084BBE2EBF4E08081877F64
S1132630808380818F7780838081887F80830E94DC
S113264016170895E0EEF5E082818B7F8283E0E443
S1132650F4E080818160808380818D7F80830E940B
S1132660372D0895E0EEF5E082818F7B8283E0E2EE
S1132670F4E080818160808380818D7F80830E94EB
S11326804C2D08950E94A8120E949C120E942213AD
S11326900E9432130E94292D0E942B2D0E94981211
S11326A00E94892D0E94FD120895811522E092074F
S11326B010F08FEF91E0FC01FC5E808108958F3F64
S11326C021E0920710F08EEF91E0FC01FC5E808126
S11326D0918108958D3F21E0920710F08CEF91E0F5
S11326E0FC01FC5E608171818281938108951F9356
S11326F0CF93DF939C01211582E03807B0F49091C9
S113270002109370E1F7162FE90143E16DE980E0CF
S113271090E10E945829DC5E188340E06DE980E076
S113272090E10E94582981E001C080E0DF91CF91BF
S11327301F910895CF92DF92EF92FF92CF93DF9390
S11327408F3F21E0920758F4EC016B010E9477134C
S11327506D2DCE0101960E94771381E001C080E0C7
S1132760DF91CF91FF90EF90DF90CF900895FF928B
S11327700F931F93CF93DF938D3F21E09207C0F413
S1132780172F062FF52E642FEC010E9477136F2D5F
S1132790CE0101960E947713602FCE0102960E940B
S11327A07713612FCE0103960E94771381E001C055
S11327B080E0DF91CF911F910F91FF9008954CE03D
S11327C062E080E00E94D20542C0E1E7F1E48EEBD2
S11327D0838382E082838AE281838AE380832091F7
S11327E063518DEC289F812D1124869586958695BD
S11327F0A82FB0E0A55CBE4B9C919583880F982FC1
S1132800990F990F890FA22FA81BB0E0A55CBE4BAE
S11328108C918483809168518823B9F080916951A7
S1132820813041F42C3330F42F5F209363511092A4
S113283069510BC080916951833039F4223028F0FA
S1132840215020936351109269510E94EA0E8091A5
S11328500851882321F0809109518111B6CF6091EC
S1132860635180E090E00E94771308954CE062E0A9
S113287080E00E94D20542C0E1E7F1E48EEB83835D
S113288082E0828380E681838AE7808320916D5190
S11328908DEC289F812D1124869586958695A82FE9
S11328A0B0E0A55CBE4B9C919583880F982F990F3F
S11328B0990F890FA22FA81BB0E0A55CBE4B8C9189
S11328C08483809168518823B9F080916951813063
S11328D041F42C3330F42F5F20936D5110926951E1
S11328E00BC080916951833039F4223028F0215093
S11328F020936D51109269510E94EA0E8091085103
S1132900882321F0809109518111B6CF60916D51D6
S113291081E090E00E9477130895CF9310920951BB
S11329204CE062E080E00E94D205C1E08BC080915F
S11329306851882399F080916951813031F4C33012
S113294020F4CF5F1092695109C08091695183309E
S113295029F4CC2319F0C15010926951EC2FF0E006
S1132960E55CFE4B808180937941C13041F008F4ED
S113297066C0C23099F1C33009F45FC061C0E1E7B9
S1132980F1E48EEB838382E082838AE281838AE3AB
S1132990808317821682409163518DEC489F812D6C
S11329A01124869586958695282F30E0255C3E4B2C
S11329B0D9019C919583880F982F990F990F890FAE
S11329C0A42FA81BB0E0A55CBE4B8C91848380919E
S11329D009518823A9F10E94DF1332C0E1E7F1E431
S11329E08EEB838382E0828380E681838AE780831F
S11329F01782168240916D518DEC489F812D1124D0
S1132A00869586958695282F30E0255C3E4BD90126
S1132A109C919583880F982F990F990F890FA42F54
S1132A20A81BB0E0A55CBE4B8C91848380910951B6
S1132A30882331F00E94361403C0C1E001C0C2E013
S1132A400E94EA0E80910851811171CFCF910895AF
S1132A50E0E2F9E0848188608483858181608583F4
S1132A60EDE7F1E480818E7F808313868EE0089504
S1132A70EDE7F1E480818E7F8083138680E0089502
S1132A80E0E2F9E08481836084830E94381508952C
S1132A90EDE7F1E4808188608083818190E0880F94
S1132AA0991F81608093270984E008950E94481546
S1132AB008950E9448150895EDE7F1E48081886047
S1132AC080838181880F8093270983E008950E9481
S1132AD05C150895ADE7B1E48C91877F8C9382E017
S1132AE01B968C931B975096ED91FC9151975C9695
S1132AF08D919C915D970995823019F0833021F076
S1132B0006C00E94591508950E94671508950E94F1
S1132B1040150895E0E2F9E084818B7F848384E0AA
S1132B200895E0E2F9E084818B7F848383E0089553
S1132B30E0E2F9E084818460848384818360848317
S1132B400E9438150895E0E2F9E08481846084836A
S1132B5088E008958091250984FF19C0ADE7B1E4A8
S1132B605296ED91FC9153975E968D919C915F974F
S1132B700995823019F0833021F006C00E9459155E
S1132B8008950E94671508950E9440150895EDE781
S1132B90F1E48081877F8083A281B381CD01019696
S1132BA0828393838C9180932809848195810197F2
S1132BB084839583892B11F083E0089585E008953B
S1132BC0CF93DF93EDE7F1E48081877F8083848175
S1132BD09581019731F4E0E2F9E084818460848393
S1132BE005C0E0E2F9E084818B7F8483EDE7F1E4C2
S1132BF084819581019784839583892BA9F0DF01D2
S1132C00C281D381E0E2F9E08085888312968D91B8
S1132C109C911397019612968D939C93139784819C
S1132C208260848384E026C0ADE7B1E41296ED911E
S1132C30FC91139780912809808312968D919C9121
S1132C401397019612968D939C9313978C9184609D
S1132C508C931C96ED91FC911D9758968D919C91A7
S1132C60599709958250823018F40E94A31502C026
S1132C700E949815DF91CF9108958091250984FFD2
S1132C8019C0ADE7B1E45296ED91FC9153975E966D
S1132C908D919C915F970995823019F0833021F0D2
S1132CA006C00E94591508950E94671508950E9450
S1132CB040150895ADE7B1E48C9184608C931C9623
S1132CC0ED91FC911D9758968D919C91599709957A
S1132CD0833039F0843041F0823049F40E94591530
S1132CE008950E94671508950E94AA1508950E94E8
S1132CF040150895E0E2F9E0858188608583ADE7B9
S1132D00B1E482E01B968C931B971E96ED91FC9187
S1132D101F975A968D919C915B970995823019F073
S1132D20833021F006C00E94591508950E9467154A
S1132D3008950E9428150895E0E2F9E084818860EE
S1132D408483858181608583EDE7F1E480818E7FD2
S1132D50808382E083878EE00895CF93DF93E0E25F
S1132D60F9E08581806C858380917D4183FF07C074
S1132D708091250984FF03C08FE08093874180916F
S1132D80250983FF03C080E1809387418091250951
S1132D9082FF03C081E180938741CDE7D1E4EA85D6
S1132DA0F0E0EE0FFF1FEA5FFF4B0190F081E02D92
S1132DB009958A87DF91CF91089581E0089585E090
S1132DC008956115710591F090E0FC013696EE0FBF
S1132DD0FF1FE358FE4B60837183FC013C96EE0FAA
S1132DE0FF1FE358FE4B40835183089590E0FC019C
S1132DF03696EE0FFF1FE358FE4B2DED36E1208390
S1132E003183FC013C96EE0FFF1FE358FE4B10820A
S1132E1011820895AB01BC0180E00E94E11608957F
S1132E20AB01BC0182E00E94E1160895E0E2F9E002
S1132E3084E4868381EC8383089590917D4191FDA0
S1132E4037C0EDE7F1E48183892F8E7F82609EE0B5
S1132E50928724EF31E020873187877F84608083E5
S1132E608DED96E184879587108E118E86879787DE
S1132E70128E138E808B918B148E158E828B938B76
S1132E80168E178E8FED96E1848B958B10A211A26E
S1132E90E0E2F9E0848188608483858181608583B0
S1132EA08581806C85838381806C838380E0089531
S1132EB081E008958091250982FF07C0EDE7F1E4E0
S1132EC080818E7F808382E0838780917D4180FD35
S1132ED017C0EDE7F1E48D7F80838FEF8183A0E25B
S1132EE0B9E015968C911597806C15968C9315976F
S1132EF013968C9113978F7313968C9383850895EF
S1132F0081E008959C0190917D4192FF09C0EDE715
S1132F10F1E42283338364837583892F8B7F8083D9
S1132F20089590917D4190FD11C0EDE7F1E4916029
S1132F309083882321F081E08093874103C082E05D
S1132F40809387410E94AD1680E0089581E0089542
S1132F5080E00E94911708951F920F920FB60F926E
S1132F6011240BB60F922F933F934F935F936F935C
S1132F707F938F939F93AF93BF93EF93FF930E949D
S1132F80AD16FF91EF91BF91AF919F918F917F917A
S1132F906F915F914F913F912F910F900BBE0F90C6
S1132FA00FBE0F901F90189561E070E00E94821789
S1132FB060E070E080E090E00E940A1784E00895E9
S1132FC061E070E00E94821760E070E080E090E0D1
S1132FD00E940A1782E00895FF920F931F93CF93E4
S1132FE0DF9300D0CDB7DEB7F82E69834A8300E1C2
S1132FF017E28F2D0E941D17813019F40150110919
S1133000C1F7012B11F1BE016E5F7F4F84ED97E193
S11330100E940A1761E070E0CE0101960E948217B7
S113302060E070E080E798E10E9410170E94A81702
S113303000E117E20E945A17813019F40150110976
S1133040C9F7012B21F482E003C081E001C080E0D4
S11330500F900F90DF91CF911F910F91FF900895E2
S1133060EF92FF921F93CF93DF9300D0CDB7DEB7DB
S1133070182F6A838AE289836894EE24E1F8F12C9C
S113308023C0812F0E941D178823D9F3BE016F5FCF
S11330907F4F80EE97E10E940A1761E070E0CE0155
S11330A002960E94821760E070E080E798E10E9437
S11330B010170E94A8170E945A178130E1F3882341
S11330C031F081E0E81AF108E114F104D1F68981C4
S11330D00F900F90DF91CF911F91FF90EF90089583
S11330E083E008958F929F92AF92BF92EF92FF92E6
S11330F00F931F93CF93DF93C6E1D1E569817A8162
S11331008B819C810F2EF0E18F2EF7E29F2EA12C54
S1133110B12CF02DA50194010E947E3BE22E209358
S1133120A24169817A818B819C81A50194010E94CD
S11331307E3B0F2EF8EE8F2EF3E09F2EA12CB12CA8
S1133140F02DA50194010E947E3BF22E209397510D
S113315069817A818B819C81A50194010E947E3BC7
S11331600F2EF4E68F2E912CA12CB12CF02DA5015D
S113317094010E947E3B022F2093895169817A81B8
S11331808B819C81A50194010E947E3B0F2EFAE065
S11331908F2E912CA12CB12CF02DA50194010E940D
S11331A07E3B122F2093625169817A818B819C81AD
S11331B0A50194010E947E3B60937F5189819A818D
S11331C0AB81BC8181319742A105B10514F1EE2D8B
S11331D0F0E0E55CFE4B8081A1E7B1E413968C93AB
S11331E01397EF2DF0E0E55CFE4B808112968C93F3
S11331F01297E02FF0E0E55CFE4B80818F5F119623
S11332008C931197E12FF0E0E55CFE4B80818C9369
S113321058C08091175190911851A0911951B091B3
S11332201A51893E9340A105B10514F1EF2DF0E048
S1133230E55CFE4B8081A1E7B1E413968C93139770
S1133240E02FF0E0E55CFE4B80818F5F12968C935B
S11332501297E12FF0E0E55CFE4B808111968C9390
S11332601197E62FF0E0E55CFE4B80818C9329C03A
S11332708091175190911851A0911951B0911A5100
S1133280883E9340A105B105E4F4A1E7B1E41396A7
S11332901C921397E02FF0E0E55CFE4B80818F5F7A
S11332A012968C931297E12FF0E0E55CFE4B80813F
S11332B011968C931197E62FF0E0E55CFE4B80812C
S11332C08C93DF91CF911F910F91FF90EF90BF905E
S11332D0AF909F908F9008958F929F92AF92BF92DC
S11332E0CF92DF92EF92FF92E4E4F4E080818B7F4F
S11332F080838091480483FFFCCF90E040E050E05D
S1133300BA011DC0E4E4F4E080818460808322E695
S11333102A95F1F70000440F551F661F771F80811F
S11333208B7F808382E68A95F1F7000080914804C0
S113333083FD04C04F5F5F4F6F4F7F4F9F5F983196
S113334008F3E4E4F4E080818460808392E69A9553
S1133350F1F7000080818B7F80832FEF8FE794E06B
S1133360215080409040E1F700C000006A017B01D9
S113337020E4E2262091835130918451409185517B
S113338050918651A0E1B7E20E94B53B80901B5159
S113339090901C51A0901D51B0901E51DC01CB01A6
S11333A0880D991DAA1DBB1D8C159D05AE05BF0575
S11333B018F4C12CD12C76010E94600E81E38A9509
S11333C0F1F700008090475190904851A0904951E6
S11333D0B0904A51C701B6010E944836A501940134
S11333E00E949E350E941036FF90EF90DF90CF90A0
S11333F0BF90AF909F908F9008950F931F930E945A
S11334006C198B019C0180911B5190911C51A091CE
S11334101D51B0911E51801B910BA20BB30B1816BA
S113342019061A061B067CF4E6E1F1E5458156818E
S113343067817085481B590B6A0B7B0B4583568348
S11334406783708710C0BB2374F4E6E1F1E545811E
S1133450568167817085480F591F6A1F7B1F4583FA
S1133460568367837087892B8A2B8B2B61F68AE0BE
S113347090E00E9442040E94EA0E1F910F91089569
S11334804F925F926F927F928F929F92AF92BF9270
S1133490CF92DF92EF92FF920F931F93C0901B5134
S11334A0D0901C51E0901D51F0901E510E946C1957
S11334B02B013C01209183513091845140918551DD
S11334C050918651A8EEB3E00E94B53B4B015C01DC
S11334D014141504160417040CF081C080911B51B8
S11334E090911C51A0911D51B0911E5193018201E4
S11334F0081B190B2A0B3B0BC901B8012AE030E069
S113350040E050E00E947E3BBA01A901440F551FE0
S1133510661F771FDB01CA01880F991FAA1FBB1FF3
S1133520880F991FAA1FBB1F8A019B01080F191F2F
S11335302A1F3B1FC901B801332314F010924C51C8
S113354099232CF086169706A806B90600F58091F3
S11335504C518F5F80934C518B3040F00E94FD1989
S113356010924C5160E070E0CB0133C015E0C11AF9
S1133570D108E108F108C0921B51D0921C51E0928D
S11335801D51F0921E5160E070E0CB0122C016166E
S1133590170618061906ECF4409001515090025198
S11335A0052C000C660877086415750586059705D3
S11335B084F425E0C20ED11CE11CF11CC0921B5105
S11335C0D0921C51E0921D51F0921E5160E070E0C7
S11335D0CB0186169706A806B90628F007C060E056
S11335E070E0CB0103C060E070E0CB012AE030E082
S11335F040E050E00E947E3BC9011F910F91FF9073
S1133600EF90DF90CF90BF90AF909F908F907F907E
S11336106F905F904F900895109279418AE090E006
S11336200E945F139C01809301519093025160E1C9
S113363077E20E94483B60930351E8EEF3E0BF0158
S11336400E94483B60939551C901BF010E94483BC9
S1133650E4E6F0E0BF010E94483B60930551C901D4
S1133660BF010E94483BEAE0F0E0BF010E94483BF2
S11336706093E750C901BF010E94483B8093805189
S11336803DC181E080930B5180916751823009F4F0
S113369085C030F4882369F0813009F444C02CC11A
S11336A0843009F4F0C008F4B4C0853009F422C1B0
S11336B023C1E0918051F0E0E55CFE4B8081809372
S11336C07C4180919351882319F01092784108C06D
S11336D0E0910351F0E0E55CFE4B808180937841FA
S11336E080916851882309F407C180916951813020
S11336F051F480910351811106C08F5F809303516F
S113370010926951F9C080916951833009F0F4C075
S113371080910351882309F4EFC0815080930351B1
S113372010926951E9C0E0910351F0E0E55CFE4B71
S113373080818093784180919351882319F010926D
S1133740774109C0E0919551F0E0E55CFE4B808142
S11337508F5F8093774180916851882309F4CCC0AE
S113376080916951813051F480919551893030F4C0
S11337708F5F8093955110926951BEC080916951B9
S1133780833009F0B9C080919551882309F4B4C0FD
S113379081508093955110926951AEC0E09195513A
S11337A0F0E0E55CFE4B80818F5F809377418091F0
S11337B09351882319F01092764108C0E091055185
S11337C0F0E0E55CFE4B8081809376418091685106
S11337D0882309F491C080916951813051F480911A
S11337E00551893030F48F5F8093055110926951EF
S11337F083C080916951833009F07EC08091055166
S1133800882309F479C0815080930551109269513D
S113381073C0E0910551F0E0E55CFE4B808180933C
S1133820764180919351882319F01092754108C014
S1133830E091E750F0E0E55CFE4B808180937541B8
S113384080916851882309F457C08091695181306F
S113385051F48091E750893030F48F5F8093E750C2
S11338601092695149C080916951833009F044C074
S11338708091E750882309F43FC081508093E7503A
S11338801092695139C0E091E750F0E0E55CFE4BDD
S113389080818093754180919351882319F010920F
S11338A07C4108C0E0918051F0E0E55CFE4B8081F2
S11338B080937C41809168518823F1F08091695113
S11338C0813051F480918051893030F48F5F80933E
S11338D080511092695110C080916951833061F414
S11338E080918051882341F08150809380511092BF
S11338F0695102C0109267510E94EA0E80910851EA
S11339008111BFCE2091035180E197E2289FB0013D
S1133910299F700D11244091955128EE33E0429F68
S1133920C001439F900D1124680F791F80910551A8
S113393094E6899F600D711D11248091E75090E0F9
S11339409C01220F331F880F991F880F991F880F1E
S1133950991F820F931F680F791F80918051680F00
S1133960711D60930151709302518AE090E00E94AE
S11339709A13E8E0F1E581E08083118213821092CA
S1133980675108952F923F924F925F926F927F9268
S11339908F929F92AF92BF92CF92DF92EF92FF925B
S11339A00F931F93CF93DF93CDB7DEB72597CDBF8A
S11339B0DEBF109279418CE090E00E946A131B01F3
S11339C02C0160930D5130920E5140920F51509240
S11339D010511092115110921251109213511092D1
S11339E014516894AA24A4F80F2EF7E2BF2EF02DE8
S11339F0C12CD12CE12CF12C00E010E0262F332D2A
S1133A00442D552D60E070E080E090E00E941B3C66
S1133A102093735130937451409375515093765160
S1133A2060937751709378518093795190937A5140
S1133A30222D332D442D552D60E070E080E090E080
S1133A400E94193C0F2EF8EEAF2EF02D0F2EF3E04E
S1133A50BF2EF02D0E941B3C20939B5230939C520E
S1133A6040939D5250939E5260939F527093A052E4
S1133A708093A1529093A252222D332D442D552D83
S1133A8060E070E080E090E00E94193C0F2EF4E6C4
S1133A90AF2EF02DB12C0E941B3C20938B51309300
S1133AA08C5140938D5150938E5160938F517093EC
S1133AB090518093915190939251222D332D442D06
S1133AC0552D60E070E080E090E00E94193C0F2EDC
S1133AD0FAE0AF2EF02D0E941B3C20935A513093F4
S1133AE05B5140935C5150935D5160935E51709370
S1133AF05F518093605190936151222D332D442D59
S1133B00552D60E070E080E090E00E94193C209325
S1133B1098513093995140939A5150939B5160938B
S1133B209C5170939D5180939E5190939F51F2C2EA
S1133B3081E080930B5180916751823009F435C143
S1133B4030F4882369F0813009F49DC0E1C28430E7
S1133B5009F44DC208F4BAC1853009F4D7C2D8C2F9
S1133B60E0919851F0919951E55CFE4B80818093EE
S1133B707C4180919351882319F0109278410AC0B6
S1133B80E0917351F0917451E55CFE4B80818F5F3D
S1133B908093784180916851882309F4B9C2809157
S1133BA069518130A9F5F0907351009174511091CD
S1133BB07551809176518A83809177518983B09130
S1133BC07851F0917951E0917A512F2D302F412F76
S1133BD05A81682F7B2F8F2F9E2FA7E00E94AF3C26
S1133BE009F0B0F4A1E00E949A3C20937351309301
S1133BF074514093755150937651609377517093FB
S1133C0078518093795190937A511092695180C27E
S1133C1080916951833009F07BC2F0907351009117
S1133C20745110917551809176518A8380917751A6
S1133C308983B0917851F0917951E0917A512F2D87
S1133C40302F412F5A81682F7B2F8F2F9E2FA1E079
S1133C500E94AF3C09F008F45BC2AFEF0E949A3CAB
S1133C60209373513093745140937551509376510E
S1133C7060937751709378518093795190937A51EE
S1133C801092695145C2E0917351F0917451E55C11
S1133C90FE4B80818F5F809378418091935188237C
S1133CA019F01092774109C0E0919B52F0919C5217
S1133CB0E55CFE4B80818093774180916851882335
S1133CC009F426C2809169518130A9F5F0909B5284
S1133CD000919C5210919D5280919E528A838091B2
S1133CE09F528983B091A052F091A152E091A252C7
S1133CF02F2D302F412F5A81682F7B2F8F2F9E2FEE
S1133D00A8E00E94AF3C09F0B0F4A1E00E949A3C04
S1133D1020939B5230939C5240939D5250939E52B9
S1133D2060939F527093A0528093A1529093A25299
S1133D3010926951EDC180916951833009F0E8C155
S1133D40F0909B5200919C5210919D5280919E52F2
S1133D508A8380919F528983B091A052F091A1529D
S1133D60E091A2522F2D302F412F5A81682F7B2FA3
S1133D708F2F9E2FA0E00E94AF3C09F4C9C1AFEF82
S1133D800E949A3C20939B5230939C5240939D52A4
S1133D9050939E5260939F527093A0528093A1526D
S1133DA09093A25210926951B3C1E0919B52F09149
S1133DB09C52E55CFE4B80818093774180919351C6
S1133DC0882319F01092764109C0E0918B51F0914B
S1133DD08C51E55CFE4B80818093764180916851E3
S1133DE0882309F495C1809169518130A9F5F09037
S1133DF08B5100918C5110918D5180918E518A83F9
S1133E0080918F518983B0919051F0919151E091BB
S1133E1092512F2D302F412F5A81682F7B2F8F2FB6
S1133E209E2FA8E00E94AF3C09F0B0F4A1E00E94EC
S1133E309A3C20938B5130938C5140938D515093E5
S1133E408E5160938F5170939051809391519093C0
S1133E509251109269515CC180916951833009F08B
S1133E6057C1F0908B5100918C5110918D518091DC
S1133E708E518A8380918F518983B0919051F091B2
S1133E809151E09192512F2D302F412F5A81682F5B
S1133E907B2F8F2F9E2FA0E00E94AF3C09F438C1E6
S1133EA0AFEF0E949A3C20938B5130938C514093F6
S1133EB08D5150938E5160938F5170939051809394
S1133EC09151909392511092695122C1E0918B517A
S1133ED0F0918C51E55CFE4B80818093764180911A
S1133EE09351882319F01092754109C0E0915A51F9
S1133EF0F0915B51E55CFE4B80818093754180912C
S1133F006851882309F404C1809169518130A9F56D
S1133F10F0905A5100915B5110915C5180915D5128
S1133F208A8380915E518983B0915F51F091605191
S1133F30E09161512F2D302F412F5A81682F7B2F13
S1133F408F2F9E2FA8E00E94AF3C09F0B0F4A1E0AF
S1133F500E949A3C20935A5130935B5140935C5198
S1133F6050935D5160935E5170935F5180936051A3
S1133F709093615110926951CBC080916951833003
S1133F8009F0C6C0F0905A5100915B5110915C51F8
S1133F9080915D518A8380915E518983B0915F5194
S1133FA0F0916051E09161512F2D302F412F5A81B2
S1133FB0682F7B2F8F2F9E2FA0E00E94AF3C09F427
S1133FC0A7C0AFEF0E949A3C20935A5130935B51A3
S1133FD040935C5150935D5160935E5170935F5177
S1133FE080936051909361511092695191C0E09116
S1133FF05A51F0915B51E55CFE4B80818093754191
S113400080919351882319F010927C4109C0E0916A
S11340109851F0919951E55CFE4B808180937C41ED
S113402080916851882309F473C08091695181306B
S1134030A9F5F09098510091995110919A5180915D
S11340409B518A8380919C518983B0919D51F091B9
S11340509E51E0919F512F2D302F412F5A81682F6F
S11340607B2F8F2F9E2FA8E00E94AF3C09F0B0F465
S1134070A1E00E949A3C2093985130939951409327
S11340809A5150939B5160939C5170939D5180938E
S11340909E5190939F51109269513AC080916951F9
S11340A08330B1F5F09098510091995110919A5143
S11340B080919B518A8380919C518983B0919D51B9
S11340C0F0919E51E0919F512F2D302F412F5A8115
S11340D0682F7B2F8F2F9E2FA0E00E94AF3CC1F052
S11340E0AFEF0E949A3C209398513093995140939A
S11340F09A5150939B5160939C5170939D5180931E
S11341009E5190939F511092695102C01092675131
S11341100E94EA0E8091085181110ACD6894AA2464
S1134120A4F80F2EF7E2BF2EF02DC12CD12CE12CD8
S1134130F12C00E010E020917351309174514091C2
S11341407551509176516091775170917851809169
S1134150795190917A510E94C03B622E732E842E25
S1134160952E6D8379838A839B83E0919B52509033
S11341709C5240909D5230909E5220909F5280912C
S1134180A0528C83B091A152A091A2522E2F352D12
S1134190442D532D622D782F8B2F9A2F02E00E94ED
S11341A0783CA22EB32EC42ED52EE62EF72EF82F51
S11341B0192F05E00E94783C0F2F0E94A63CAE2EDA
S11341C0B52CC42CD32CE22CFC800B2F1A2F0E946C
S11341D0913C03E00E94783CA22EB32EC42ED52E2F
S11341E0E62EF72E082F192F262D372D482D592D61
S11341F06D8179818A819B810E94913C222E332E8C
S1134200442E552E662E772E89839A8320918B51C6
S113421030918C5140918D5150918E5160918F51BC
S113422070919051809191519091925102E00E942D
S1134230783C822E932E4C835B83B62FA72FF82FC6
S1134240E92F0E94783CA22EB32EC42ED52EE62E42
S1134250F72E082F192F282D392D4C815B816B2FB8
S11342607A2F8F2F9E2F0E94913C822E932E4C8367
S11342705B83B62FA72FF82FE92F02E00E94783C2A
S1134280A22EB32EC42ED52EE62EF72E082F192FCC
S1134290282D392D4C815B816B2F7A2F8F2F9E2FE8
S11342A00E94913CA22EB32EC42ED52EE62EF72EBC
S11342B0082F192F222D332D442D552D662D772DA2
S11342C089819A810E94913C222E332E442E552EB0
S11342D0662E772E89839A8320915A5130915B51AF
S11342E040915C5150915D5160915E5170915F516C
S11342F0809160519091615101E00E94783C822E3E
S1134300932E4C835B83B62FA72FF82FE92F02E05F
S11343100E94783CA22EB32EC42ED52EE62EF72E64
S1134320082F192F282D392D4C815B816B2F7A2F63
S11343308F2F9E2F0E94913CA22EB32EC42ED52ED9
S1134340E62EF72E082F192F222D332D442D552D0F
S1134350662D772D89819A810E94913CA090985175
S1134360B0909951C0909A51D0909B51E0909C513B
S1134370F0909D5100919E5110919F510E94913C4B
S113438020930D5130930E5140930F51509310517F
S1134390609311517093125180931351909314515F
S11343A0642F752F422F532F8CE090E00E94B71397
S11343B0E8E0F1E581E08083118213821092675175
S11343C02596CDBFDEBFDF91CF911F910F91FF9056
S11343D0EF90DF90CF90BF90AF909F908F907F90A1
S11343E06F905F904F903F902F9008952F923F923F
S11343F04F925F926F927F928F929F92AF92BF92F1
S1134400CF92DF92EF92FF920F931F93CF93DF939C
S11344108CE090E00E946A131B012C0160930D5103
S113442030920E5140920F515092105110921151EE
S11344301092125110921351109214516894AA249C
S1134440A4F80F2EF7E2BF2EF02DC12CD12CE12CB5
S1134450F12C00E010E0262F332D442D552D60E083
S113446070E080E090E00E941B3C209373513093F5
S11344707451409375515093765160937751709372
S113448078518093795190937A51222D332D442D74
S1134490552D60E070E080E090E00E94193C0F2E02
S11344A0F8EEAF2EF02D0F2EF3E0BF2EF02D0E946C
S11344B01B3C20939B5230939C5240939D525093AB
S11344C09E5260939F527093A0528093A1529093F6
S11344D0A252222D332D442D552D60E070E080E052
S11344E090E00E94193C0F2EF4E6AF2EF02DB12C73
S11344F00E941B3C20938B5130938C5140938D51DF
S113450050938E5160938F51709390518093915139
S113451090939251222D332D442D552D60E070E05F
S113452080E090E00E94193C0F2EFAE0AF2EF02DAF
S11345300E941B3C20935A5130935B5140935C5131
S113454050935D5160935E5170935F5180936051BD
S113455090936151222D332D442D552D60E070E050
S113456080E090E00E94193C209398513093995137
S113457040939A5150939B5160939C5170939D51D9
S113458080939E5190939F512EC110924E51109240
S11345904F5110924C5180916851882309F4ECC01A
S11345A080916951813031F520910D5130910E5136
S11345B040910F51509110516091115170911251CD
S11345C08091135190911451AAE00E949A3C209337
S11345D00D5130930E5140930F51509310516093ED
S11345E0115170931251809313519093145110925E
S11345F0695129C080916951833029F520910D5169
S113460030910E5140910F515091105160911151C0
S1134610709112518091135190911451A6EF0E9400
S11346209A3C20930D5130930E5140930F51509367
S113463010516093115170931251809313519093C0
S113464014511092695120900D5130900E514090A8
S11346500F515090105160901151709012518090F0
S11346601351909014516894AA24A4F80F2EF7E2E1
S1134670BF2EF02DC12CD12CE12CF12C00E010E048
S1134680222D332D442D552D662D772D882D992DD2
S11346900E941B3C022F132FF801E55CFE4B808126
S11346A0C1E7D1E48F8300E010E0222D332D442DA7
S11346B0552D662D772D882D992D0E94193C0F2E8E
S11346C0F8EEAF2EF02D0F2EF3E0BF2EF02D0E944A
S11346D01B3C022F132FF801E55CFE4B80818E8377
S11346E0E12CF12C00E010E0222D332D442D552D2A
S11346F0662D772D882D992D0E94193C0F2EF4E6F6
S1134700AF2EF02DB12C0E941B3C022F132FF80169
S1134710E55CFE4B80818D83E12CF12C00E010E000
S1134720222D332D442D552D662D772D882D992D31
S11347300E94193C0F2EFAE0AF2EF02D0E941B3C74
S1134740022F132FF801E55CFE4B80818C83E12C52
S1134750F12C00E010E0222D332D442D552D662D33
S1134760772D882D992D0E94193C022F132FF801C3
S1134770E55CFE4B80818B8720910D5130910E5169
S113478040910F51509110516091115170911251FB
S113479080911351909114510E94833660936F510C
S11347A07093705180937151909372510E94600E76
S11347B00E94401AA0E0B0E08093175190931851E2
S11347C0A0931951B0931A510097A105B10519F09E
S11347D00E94721806C0892B8A2B8B2B11F40E941D
S11347E072180E94EA0E80910851882321F080916A
S11347F009518111CACE40910D5150910E516091D1
S11348000F51709110518CE090E00E94B713DF912A
S1134810CF911F910F91FF90EF90DF90CF90BF90B9
S1134820AF909F908F907F906F905F904F903F904C
S11348302F9008958F929F92AF92BF92CF92DF9262
S1134840EF92FF921092794188E090E00E945F130A
S11348506C01E12CF12CC0928351D0928451E092EE
S11348608551F0928651C701B60128EE33E040E04D
S113487050E00E945C3B2093A1410F2EF4E68F2E62
S1134880912CA12CB12CF02DA50194010E945C3B2C
S113489020937C51C701B601A50194010E945C3BA1
S11348A00F2EFAE08F2E912CA12CB12CF02DA50106
S11348B094010E945C3B20938251C701B601A5017B
S11348C094010E945C3B60934B51FFC081E0809354
S11348D00B5180916751823009F482C030F48823EF
S11348E059F0813009F442C0EEC0833009F4B2C0FB
S11348F0843009F4E6C0E7C0E0914B51F0E0E55C98
S1134900FE4B80818093754180919351882319F0E7
S11349101092784108C0E091A141F0E0E55CFE4BC3
S113492080818093784180916851882309F4CBC0B9
S113493080916951813051F48091A141811106C067
S11349408F5F8093A14110926951BDC080916951DC
S1134950833009F0B8C08091A141882309F4B3C021
S113496081508093A14110926951ADC0E091A14161
S1134970F0E0E55CFE4B8081809378418091935117
S1134980882319F01092774108C0E0917C51F0E03F
S1134990E55CFE4B80818093774180916851882348
S11349A009F491C080916951813051F480917C5116
S11349B0893030F48F5F80937C511092695183C0A9
S11349C080916951833009F07EC080917C518823A5
S11349D009F479C0815080937C511092695173C05D
S11349E0E0917C51F0E0E55CFE4B8081809377415F
S11349F080919351882319F01092764108C0E09178
S1134A008251F0E0E55CFE4B808180937641809199
S1134A106851882309F457C080916951813051F459
S1134A2080918251893030F48F5F8093825110924B
S1134A30695149C080916951833009F044C0809123
S1134A408251882309F43FC081508093825110928F
S1134A50695139C0E0918251F0E0E55CFE4B808100
S1134A608093764180919351882319F01092754177
S1134A7008C0E0914B51F0E0E55CFE4B80818093EF
S1134A807541809168518823F1F08091695181309A
S1134A9051F480914B51893030F48F5F80934B51A6
S1134AA01092695110C080916951833061F48091F2
S1134AB04B51882341F0815080934B51109269519E
S1134AC002C0109267510E94EA0E80910851811130
S1134AD0FDCE4091A14128EE33E0429FC001439FA7
S1134AE0900D1124AC01990F660B770B80917C51CA
S1134AF024E6829FC0011124092E000CAA0BBB0BD3
S1134B00840F951FA61FB71F2091825130E0B90171
S1134B10660F771F220F331F220F331F220F331FFD
S1134B20620F731FAB01770F660B770B840F951F12
S1134B30A61FB71F20914B51BC01CD01620F711DFF
S1134B40811D911D6093835170938451809385518D
S1134B509093865188E090E00E949A13E8E0F1E592
S1134B6081E080831182138210926751FF90EF904D
S1134B70DF90CF90BF90AF909F908F9008954CE0BE
S1134B8062E080E00E94D20543C0E1E7F1E41782CD
S1134B908AE182838AE281838EE180831682209176
S1134BA096518DEC289F812D1124869586958695A6
S1134BB0A82FB0E0A55CBE4B9C919583880F982FDD
S1134BC0990F990F890FA22FA81BB0E0A55CBE4BCB
S1134BD08C9184831086809168518823B9F08091E8
S1134BE06951813041F4243030F4220F20939651DE
S1134BF0109269510BC080916951833039F422308D
S1134C0028F0269520939651109269510E94EA0E3D
S1134C1080910851882321F0809109518111B5CFE9
S1134C206091965184E090E00E94771308954CE0DF
S1134C3062E080E00E94D20543C0E1E7F1E4138220
S1134C4080E682838AE7818310821782168220910C
S1134C50E2508DEC289F812D1124869586958695AA
S1134C60A82FB0E0A55CBE4B9C919583880F982F2C
S1134C70990F990F890FA22FA81BB0E0A55CBE4B1A
S1134C808C9184831086809168518823B9F0809137
S1134C906951813041F42C3330F42F5F2093E2507A
S1134CA0109269510BC080916951833039F42223E9
S1134CB029F021502093E250109269510E94EA0E8B
S1134CC080910851882321F0809109518111B5CF39
S1134CD06091E25083E090E00E94771308952F9250
S1134CE03F924F925F926F927F928F929F92AF9278
S1134CF0BF92CF92DF92EF92FF920F931F93CF93C5
S1134D00DF93109209514CE062E080E00E94D205EA
S1134D1083E090E00E9455138093E25084E090E099
S1134D200E9455138093965188E090E00E945F138F
S1134D30A0E0B0E08093835190938451A093855177
S1134D40B09386518CE090E00E946A13DC01CB01A1
S1134D5080930D5190930E51A0930F51B093105125
S1134D601092115110921251109213511092145129
S1134D708AE090E00E945F13EC01809301519093CC
S1134D8002514090835150908451609085517090AD
S1134D908651C301B20128EE33E040E050E00E94A6
S1134DA05C3B2093A1410F2EF4E68F2E912CA12C75
S1134DB0B12CF02DA50194010E945C3B20937C5101
S1134DC0C301B201A50194010E945C3B0F2EFAE0DD
S1134DD08F2E912CA12CB12CF02DA50194010E94B1
S1134DE05C3B20938251C301B201A50194010E944E
S1134DF05C3B60934B5120900D5130900E5140908C
S1134E000F51509010516090115170901251809038
S1134E101351909014516894AA24A4F80F2EF7E229
S1134E20BF2EF02DC12CD12CE12CF12C00E010E090
S1134E30222D332D442D552D662D772D882D992D1A
S1134E400E941B3C209373513093745140937551CD
S1134E505093765160937751709378518093795140
S1134E6090937A51222D332D442D552D662D772D77
S1134E70882D992D0E94193C0F2EF8EEAF2EF02D9F
S1134E800F2EF3E0BF2EF02D0E941B3C20939B526B
S1134E9030939C5240939D5250939E5260939F52E4
S1134EA07093A0528093A1529093A252222D332D3D
S1134EB0442D552D662D772D882D992D0E94193C52
S1134EC00F2EF4E6AF2EF02DB12C0E941B3C209344
S1134ED08B5130938C5140938D5150938E516093EC
S1134EE08F51709390518093915190939251222DB0
S1134EF0332D442D552D662D772D882D992D0E9407
S1134F00193C0F2EFAE0AF2EF02D0E941B3C20938B
S1134F105A5130935B5140935C5150935D5160936F
S1134F205E5170935F518093605190936151222D33
S1134F30332D442D552D662D772D882D992D0E94C6
S1134F40193C209398513093995140939A5150931E
S1134F509B5160939C5170939D5180939E5190936B
S1134F609F51CE0160E177E20E94483B6093035178
S1134F7028EE33E0B9010E94483B60939551CE017D
S1134F80B9010E94483B24E630E0B9010E94483B45
S1134F9060930551CE01B9010E94483B2AE030E0FC
S1134FA0B9010E94483B6093E750CE01B9010E94C9
S1134FB0483B80938051C1E064C18091685188234B
S1134FC099F080916951813031F4C73020F4CF5F7A
S1134FD01092695109C080916951833029F4CC231E
S1134FE019F0C15010926951EC2FF0E0E55CFE4BD2
S1134FF08081809379418C2F90E08830910508F06E
S11350003EC1FC01E957FC4F0C949D3BE1E7F1E400
S11350101382128280E681838AE780831782168254
S11350204091E2508DEC489F812D11248695869500
S11350308695282F30E0255C3E4BD9019C919583C1
S1135040880F982F990F990F890FA42FA81BB0E0F0
S1135050A55CBE4B8C91848313868091095188236F
S113506009F40DC10E9417260AC1E1E7F1E4138295
S11350708AE182838AE281838EE1808317821682A9
S1135080409196518DEC489F812D112486958695EB
S11350908695282F30E0255C3E4BD9019C91958361
S11350A0880F982F990F990F890FA42FA81BB0E090
S11350B0A55CBE4B8C91848313868091095188230F
S11350C009F4DDC00E94BF25DAC0E1E7F1E48CE910
S11350D083838AEF82839EEC91838083A091A14194
S11350E0B0E0A55CBE4B8C918783A0917C51B0E06D
S11350F0A55CBE4B8C918683A0918251B0E0A55CE7
S1135100BE4B8C918583A0914B51B0E0A55CBE4B06
S11351108C918483138680910951882309F4AFC04C
S11351200E941A24ACC0E1E7F1E4138212828AE0FF
S113513081838AE38083A0917351B0917451A55CFB
S1135140BE4B8C918F5F8783A0919B52B0919C52F0
S1135150A55CBE4B8C918683A0918B51B0918C51F0
S1135160A55CBE4B8C918583A0915A51B0915B5143
S1135170A55CBE4B8C918483A0919851B0919951B8
S1135180A55CBE4B8C91838780910951882309F4D7
S113519076C00E94C21C73C0E1E7F1E480E6838319
S11351A08CEE828382E0818386EB8083A09103511D
S11351B0B0E0A55CBE4B8C918783A0919551B0E083
S11351C0A55CBE4B8C918F5F8683A0910551B0E0A6
S11351D0A55CBE4B8C918583A091E750B0E0A55CA3
S11351E0BE4B8C918483A0918051B0E0A55CBE4BF2
S11351F08C91838780910951882309F440C00E94CF
S11352000C1B3DC0E1E7F1E486EB83838AE18283F2
S11352108AEF818380E68083A0917351B0917451A9
S1135220A55CBE4B8C918F5F8783A0919B52B091FC
S11352309C52A55CBE4B8C918683A0918B51B091FE
S11352408C51A55CBE4B8C918583A0915A51B09131
S11352505B51A55CBE4B8C918483A0919851B09115
S11352609951A55CBE4B8C91838780910951882309
S113527031F00E94F62103C0C1E001C0C6E00E94E3
S1135280EA0E80910851811198CEDF91CF911F9140
S11352900F91FF90EF90DF90CF90BF90AF909F90D1
S11352A08F907F906F905F904F903F902F900895D4
S11352B01BBEFC0164BF40830895682F88E60E94EA
S11352C03018982F92959F70990F292F220F220F33
S11352D0920F8F70890F0895CF93DF9386E00E9419
S11352E05D29C2E5D1E58E8385E00E945D298D8329
S11352F084E00E945D298C8383E00E945D298B8376
S113530082E00E945D298A8381E00E945D2989836D
S113531080E00E945D298883DF91CF9108959DEC00
S1135320699F912D112496959695969520E1929FCB
S1135330A0011124990F292F220F220F920F691B0C
S11353406F70462B682F88E60E94EC170895962FFD
S1135350482F50E04730510518F5FA01E157FC4F4A
S11353600C949D3B9C33E8F090E01BC09C33C8F048
S113537090E017C09831A8F090E013C02FEF290FE8
S1135380273078F091E00DC0903258F091E009C0D8
S11353909D3038F091E005C0911103C095E101C042
S11353A090E0692F0E948F290895CF93DF93109284
S11353B009514CE062E080E00E94D2050E946C2911
S11353C0C2E5D1E5AE818DECA89F912D112496956F
S11353D096959695E92FF0E0E55CFE4B2081E1E798
S11353E0F1E42383990F292F220F220F920FA91B77
S11353F0B0E0A55CBE4B9C9192834D81489F912D5A
S11354001124969596959695292F30E0255C3E4B70
S1135410D9012C912183990F292F220F220F920F4A
S1135420A42FA91BB0E0A55CBE4B9C9190834C813A
S1135430489F912D1124969596959695292F30E0A5
S1135440255C3E4BD9012C912783990F292F220FDC
S1135450220F920FA42FA91BB0E0A55CBE4B9C9118
S113546096834A81489F912D1124969596959695F9
S1135470292F30E0255C3E4BD9012C912583990FCF
S1135480292F220F220F920FA42FA91BB0E0A55C95
S1135490BE4B9C9194834981489F912D11249695EC
S11354A096959695292F30E0255C3E4BD9012C9199
S11354B02387990F292F220F220F920FA42FA91BA4
S11354C0B0E0A55CBE4B9C919287A881A89F812DDA
S11354D01124869586958695C82FD0E0C55CDE4B51
S11354E098819187880F982F990F990F890FA81B7E
S11354F0B0E0A55CBE4B8C9180878AC281E080932A
S11355000B51E09167518E2F90E08730910508F0A0
S11355107DC2FC01EA56FC4F0C949D3BE091525134
S11355208DECE89F812D1124869586958695A82F6C
S1135530B0E0A55CBE4B9C91A1E7B1E419969C93A5
S11355401997880F982F990F990F890FE81BF0E08E
S1135550E55CFE4B808118968C931897809193514B
S1135560882321F0FD01138212821FC0E09158515B
S11355708DECE89F812D1124869586958695A82F1C
S1135580B0E0A55CBE4B9C91A1E7B1E413969C935B
S11355901397880F982F990F990F890FE81BF0E044
S11355A0E55CFE4B808112968C9380916851882330
S11355B009F42CC280916951813051F48091585181
S11355C0833630F48F5F80935851109269511EC214
S11355D080916951833009F019C280915851882310
S11355E009F414C2815080935851109269510EC22B
S11355F0E09158518DECE89F812D11248695869574
S11356008695A82FB0E0A55CBE4B9C91A1E7B1E4C0
S113561013969C931397880F982F990F990F890FBE
S1135620E81BF0E0E55CFE4B808112968C931297A8
S113563080919351882321F0FD01118210821EC0B4
S1135640E09157518DECE89F812D11248695869524
S11356508695A82FB0E0A55CBE4B9C91A1E7B1E470
S113566011969C931197880F982F990F990F890F72
S1135670E81BF0E0E55CFE4B80818C9380916851DF
S1135680882309F4C3C180916951813051F4809118
S113569057518C3030F48F5F809357511092695179
S11356A0B5C180916951833009F0B0C180915751DF
S11356B0823008F4ABC181508093575110926951E4
S11356C0A5C1E09157518DECE89F812D1124869559
S11356D086958695A82FB0E0A55CBE4B9C91A1E76A
S11356E0B1E411969C931197880F982F990F990FF5
S11356F0890FE81BF0E0E55CFE4B80818C93809180
S11357009351882321F0FD01178216821FC0E09176
S113571056518DECE89F812D1124869586958695AA
S1135720A82FB0E0A55CBE4B9C91A1E7B1E417960D
S11357309C931797880F982F990F990F890FE81B3F
S1135740F0E0E55CFE4B808116968C938091685165
S1135750882309F45BC180916951813051F48091AF
S113576056518F3130F48F5F8093565110926951A6
S11357704DC180916951833009F048C180915651DF
S1135780823008F443C1815080935651109269517C
S11357903DC1E09156518DECE89F812D11248695F1
S11357A086958695A82FB0E0A55CBE4B9C91A1E799
S11357B0B1E417969C931797880F982F990F990F18
S11357C0890FE81BF0E0E55CFE4B808116968C9314
S11357D0169780919351882321F0FD01158214823C
S11357E01FC0E09154518DECE89F812D11248695C2
S11357F086958695A82FB0E0A55CBE4B9C91A1E749
S1135800B1E415969C931597880F982F990F990FCB
S1135810890FE81BF0E0E55CFE4B808114968C93C5
S113582080916851882309F4F1C0809169518130D5
S113583051F480915451873130F48F5F80935451E7
S113584010926951E3C080916951833009F0DEC040
S113585080915451882309F4D9C0815080935451C4
S113586010926951D3C0E09154518DECE89F812D81
S11358701124869586958695A82FB0E0A55CBE4B2D
S11358809C91A1E7B1E415969C931597880F982FE6
S1135890990F990F890FE81BF0E0E55CFE4B8081BE
S11358A014968C93149780919351882321F0FD01D1
S11358B0138612861FC0E09153518DECE89F812D11
S11358C01124869586958695A82FB0E0A55CBE4BDD
S11358D09C91A1E7B1E41B969C931B97880F982F8A
S11358E0990F990F890FE81BF0E0E55CFE4B80816E
S11358F01A968C9380916851882309F487C080910B
S11359006951813051F4809153518B3330F48F5F5E
S1135910809353511092695179C0809169518330B9
S113592009F074C080915351882309F46FC08150E9
S1135930809353511092695169C0E09153518DEC99
S1135940E89F812D1124869586958695A82FB0E031
S1135950A55CBE4B9C91A1E7B1E41B969C931B975D
S1135960880F982F990F990F890FE81BF0E0E55CD9
S1135970FE4B80811A968C931A97809193518823B9
S113598021F0FD01118610861FC0E09152518DEC6B
S1135990E89F812D1124869586958695A82FB0E0E1
S11359A0A55CBE4B9C91A1E7B1E419969C93199711
S11359B0880F982F990F990F890FE81BF0E0E55C89
S11359C0FE4B808118968C93809168518823F1F066
S11359D080916951813051F4809152518B3330F46C
S11359E08F5F809352511092695110C08091695118
S11359F0833061F480915251882341F08150809327
S1135A0052511092695102C0109267510E94EA0EDD
S1135A1080910851811172CDC2E5D1E56E8186E095
S1135A200E94A7296D8185E00E94A7296C8184E0EA
S1135A300E94A7296A8182E00E94A729698181E0E6
S1135A400E94A729688180E00E94A729DF91CF9155
S1135A50089580E00895E0E4FAE081E0828787E435
S1135A6090E086A397A38FE0808380E00895E0E22E
S1135A70F8E080E098E18087918784E9858380EC71
S1135A80868380E008959091240895FFFCCF80934D
S1135A90220881E090E00895E0E6F8E080E098E1F3
S1135AA08087918784E9858380EC868380E00895EC
S1135AB09091640895FFFCCF8093620881E090E0A8
S1135AC008950F931F93CF93DF938C01C0E0D0E030
S1135AD007C0F801EC0FFD1F80810E94582D21960C
S1135AE0F80101900020E9F73197E01BF10BCE1784
S1135AF0DF0778F3DF91CF911F910F9108958AEF1B
S1135B00E1EAF1E5DF011D928A95E9F710928A51E5
S1135B1008954AE068ED80E091E00E94582980E011
S1135B200895CF93C0E0C130A1F028F0C23069F1EC
S1135B30C33081F133C088E491E40E94612D2FEFDA
S1135B408FEF9CE2215080409040E1F700C00000BC
S1135B5025C08CE491E40E94612D80916451805DA4
S1135B600E94582D8091A341805D0E94582D809100
S1135B700651805D0E94582D8091E550805D0E9401
S1135B80582D8DE00E94582D09C081E591E40E94B2
S1135B90612D04C087E591E40E94612D80E09DC0E1
S1135BA0C11125C0282F30E0F901EF55FE4A90813C
S1135BB09F34E9F4F901EE55FE4A90819B34B9F41F
S1135BC0F901ED55FE4A90819D3089F483E090E01F
S1135BD00E9442042FEF8FE392E0215080409040D6
S1135BE0E1F700C000000E947F2DC1E079C0C13000
S1135BF029F5282F30E0F901EF55FE4A90819F34B2
S1135C00E9F4F901EE55FE4A90819B34B9F4F901A7
S1135C10ED55FE4A90819D3089F483E090E00E9426
S1135C2042042FEF8FE392E0215080409040E1F74F
S1135C3000C000000E947F2DC2E052C0C23029F58E
S1135C40282F30E0F901EF55FE4A90819F34E9F4A2
S1135C50F901EE55FE4A90819B34B9F4F901ED55F2
S1135C60FE4A90819D3089F483E090E00E944204D2
S1135C702FEF8FE392E0215080409040E1F700C085
S1135C8000000E947F2DC3E02BC0C33029F5282FCC
S1135C9030E0F901EF55FE4A90819F34E9F4F901AF
S1135CA0EE55FE4A90819B34B9F4F901ED55FE4A54
S1135CB090819D3089F483E090E00E9442042FEFAC
S1135CC08FE392E0215080409040E1F700C0000053
S1135CD00E947F2DC5E004C08F5F8A3F08F460CF27
S1135CE00E94EA0EC53009F01ECFCF9108956F923D
S1135CF07F928F929F92BF92CF92DF92EF92FF9208
S1135D000F931F93CF93DF934CE062E081E00E94F6
S1135D10D20580907D5190907E51940132952295C8
S1135D202F7023273F702327A7E4B3E00E94A63BEC
S1135D306C01D694C794D694C794D694C794DC2D9A
S1135D4020E137E2C29EC001C39E900DD29E900D09
S1135D5011249401281B390B3695279536952795E0
S1135D6036952795A5ECB0E20E94A63B7C01F694FB
S1135D70E794F694E794F694E794F694E794BE2CAB
S1135D8094013695279536952795369527950E9443
S1135D90A63B929582958F7089279F70892748EE3C
S1135DA053E0849F9001859F300D949F300D112402
S1135DB0C401821B930B9C01369527953695279534
S1135DC0ABE7B4E10E94A63B3C0176946794062DB0
S1135DD0940136952795369527950E94A63B9C01FC
S1135DE03695279544E6429FC001439F900D1124A8
S1135DF09401281B390BADECBCEC0E94A63BAC0112
S1135E00569547955695479556954795C42F9401B1
S1135E100E94A63B96958795969587959695879526
S1135E209C01220F331F880F991F880F991F880F19
S1135E30991F820F931F9401281B390BC901122F3C
S1135E40D601A55CBE4B2C91A1E7B1E417962C9327
S1135E50179797013327255C3E4BF901208116964D
S1135E602C931697F301FF27E55CFE4B20811596D2
S1135E702C9315975527FA01E55CFE4B2081149667
S1135E802C9314979927FC01E55CFE4B80811B96AB
S1135E908C9377C181E080930B518091675182305C
S1135EA009F489C028F4882361F08130D1F167C1F5
S1135EB0843009F418C108F4C9C0853009F45DC1FF
S1135EC05EC1E12FF0E0E55CFE4B808180937C4174
S1135ED080919351882319F01092784107C0ED2FD7
S1135EE0F0E0E55CFE4B80818093784180916851BD
S1135EF0882309F444C180916951813031F4D6304A
S1135F0020F4DF5F109269513AC180916951833066
S1135F1009F035C1DD2309F432C1D1501092695121
S1135F202EC1ED2FF0E0E55CFE4B8081809378413B
S1135F3080919351882319F01092774107C0EB2D7B
S1135F40F0E0E55CFE4B808180937741809168515D
S1135F50882309F414C1D630B8F080916951813096
S1135F6039F4F4E0FB1520F0B3941092695107C1A1
S1135F7080916951833009F002C1BB2009F4FFC04C
S1135F80BA9410926951FBC080916951813039F4FF
S1135F9028E02B1520F0B39410926951F0C0809141
S1135FA06951833009F0EBC0BB2009F4E8C0BA940E
S1135FB010926951E4C0EB2DF0E0E55CFE4B80816A
S1135FC08093774180919351882319F01092764100
S1135FD007C0E02FF0E0E55CFE4B808180937641C2
S1135FE080916851882309F4CAC0D630C8F034E0DF
S1135FF03B15B0F480916951813031F4053020F4BF
S11360000F5F10926951BBC080916951833009F0D0
S1136010B6C0002309F4B3C0015010926951AFC057
S113602080916951813031F4093020F40F5F10926E
S11360306951A5C080916951833009F0A0C0002343
S113604009F49DC001501092695199C0E02FF0E00D
S1136050E55CFE4B80818093764180919351882347
S113606019F01092754107C0EC2FF0E0E55CFE4B8F
S113607080818093754180916851882309F47FC0A1
S1136080D630D8F044E04B15C0F40530B0F0809120
S11360906951813031F4C33020F4CF5F10926951DB
S11360A06EC080916951833009F069C0CC2309F432
S11360B066C0C1501092695162C0809169518130AB
S11360C031F4C93020F4CF5F1092695158C08091E7
S11360D06951833009F053C0CC2309F450C0C15036
S11360E0109269514CC0EC2FF0E0E55CFE4B8081CE
S11360F08093754180919351882319F010927C41CB
S113610007C0E12FF0E0E55CFE4B808180937C4189
S113611080916851882399F1D630D8F084E08B15AA
S1136120C0F40530B0F0C330A0F0809169518130E3
S113613031F4153020F41F5F1092695120C0809112
S113614069518330E1F41123D1F011501092695157
S113615016C080916951813031F4193020F41F5FE9
S1136160109269510CC080916951833041F411231C
S113617031F011501092695102C0109267510E947F
S1136180EA0E80910851811185CE20E137E2D29F39
S1136190C001D39F900D112448EE53E0B49E9001AA
S11361A0B59E300D1124820F931F9C01E4E60E9FCF
S11361B0200D311D1124D0E0CE01880F991FCC0F82
S11361C0DD1FCC0FDD1FCC0FDD1F8C0F9D1F820F39
S11361D0931F810F911D80937D5190937E51292FA0
S11361E022952F7020936451109265519C013F7049
S11361F03093A3411092A4419C01332732952295F8
S11362002F7023273F702327209306513093075183
S11362108F7099278093E5509093E6500E94912DBA
S1136220E8E0F1E581E080831182138210926751E6
S1136230DF91CF911F910F91FF90EF90DF90CF905E
S1136240BF909F908F907F906F900895CF93C0E000
S1136250C130A1F028F0C230D1F1C330E9F140C01F
S113626088E491E40E94612D2FEF8FEF9CE221508E
S113627080409040E1F700C0000032C08DE591E419
S11362800E94612DE091E450F0E0EE0FFF1FE65D07
S1136290FF4B80819181992314F481509F4F892F62
S11362A00E94582DE091E450F0E0EE0FFF1FE65DF0
S11362B0FF4B80819181907899231CF401979F6F03
S11362C001960E94582D8DE00E94582D09C081E549
S11362D091E40E94612D04C087E591E40E94612D40
S11362E080E09DC0C11125C0282F30E0F901EF5591
