:100600000C9417040C9436040C9436040C943604A1
:100610000C9436040C9436040C9436040C94360472
:100620000C9436040C9436040C9436040C94360462
:100630000C9436040C9436040C9436040C94360452
:100640000C9436040C9436040C9436040C94360442
:100650000C9436040C9436040C9436040C94360432
:100660000C9436040C9436040C9436040C94360422
:100670000C9436040C9436040C9436040C94430405
:100680000C9436040C9436040C9436040C94360402
:100690000C9436040C9436040C9436040C943604F2
:1006A0000C9436040C9436040C9436040C94A21367
:1006B0000C9436040C9436040C949B040C9436046D
:1006C0000C9436040C9436040C9436040C943604C2
:1006D0000C946F040C9436040C9436040C94360479
:1006E0000C9436040C9436040C9436040C943604A2
:1006F0000C9436040C9436040C9436040C94360492
:100700005724E622152345237323AC23E2235524E3
:10071000C924CD24D124D524DB24DF24E324A5253A
:100720000F267826E0264A27B4271B286E616E0024
:10073000696E660000407A10F35A00A0724E1809E4
:100740000010A5D4E80000E87648170000E40B5438
:10075000020000CA9A3B000000E1F5050000809607
:100760009800000040420F000000A0860100000039
:10077000102700000000E8030000000064000000F3
:1007800000000A00000000000100000000002C76BC
:10079000D888DC674F0823DFC1DFAE59E1B1B796D7
:1007A000E5E3E453C63AE651997696E8E6C2842634
:1007B000EB898C9B62ED407C6FFCEFBC9C9F40F210
:1007C000BAA56FA5F490055A2AF75C936B6CF9678C
:1007D0006DC11BFCE0E40D47FEF520E6B500D0ED51
:1007E000902E0300943577050080841E08000020B9
:1007F0004E0A000000C80C333333330F986E128357
:100800001141EF8D2114893BE65516CFFEE6DB182A
:10081000D1844B381BF77C1D901DA4BBE4242032EF
:1008200084725E228100C9F124ECA1E53D271124E8
:100830001FBECFEFCDBFDFE7DEBF10E4A0E0B0E426
:10084000EAE0F6E700E00BBF02C007900D92A03C83
:10085000B107D9F722E4A0ECB0E401C01D92A23E9A
:10086000B207E1F70E942B0D0C94033B0C9400039C
:100870000E94340F0895E4E0F4E090819260908348
:100880008093B54108951F920F920FB60F921124D5
:100890000BB60F928F939F93EF93FF938091240851
:1008A0008823E4F78091FE40E82FF0E09091200843
:1008B000E85FFE4B9083893110F01092FE408091EA
:1008C000FE408F5F8093FE40FF91EF919F918F914B
:1008D0000F900BBE0F900FBE0F901F9018951F9298
:1008E0000F920FB60F9211240BB60F928F939F9316
:1008F000EF93FF93809164088823E4F78091BD41D2
:10090000E82FF0E090916008EC52FE4B90838A3F14
:1009100010F01092BD418091BD418F5F8093BD4129
:10092000FF91EF919F918F910F900BBE0F900FBE93
:100930000F901F9018951F920F920FB60F921124CF
:100940000BB60F922F933F934F935F936F937F93C9
:100950008F939F93AF93BF93EF93FF9381E0809327
:100960004B0A0E9445050E94E50580915141811185
:1009700005C0E1E7F1E41182128205C0E1E5F1E48E
:100980008081815080838091B541811106C0E4E06F
:10099000F4E080818D7F808303C081508093B541D6
:1009A000E1E5F1E4818192810196818392838181E5
:1009B0009281803D974020F0E8E2F1E410821182BC
:1009C000E1E5F1E4838194810196838394838581B9
:1009D0009681019685839683809133418F5F8093C2
:1009E0003341833348F081E09091C641911180E01A
:1009F0008093C64110923341FF91EF91BF91AF9127
:100A00009F918F917F916F915F914F913F912F9126
:100A10000F900BBE0F900FBE0F901F901895CF93A5
:100A2000C82F80917041813019F48C2F0E945A2870
:100A300080917041833019F48C2F0E946F2880E0E0
:100A400090E0CF9108958EE0809300048DE0809334
:100A5000200485E580934004109260041092800485
:100A60008CE08093A00487EF8093C004109204046C
:100A7000109224041092440410926404109284048E
:100A80001092A4041092C404089532E02FC0E4EC44
:100A9000F4E080818D7F80838091C04094E03902B2
:100AA000F0011124EF53FF4BE80FF11D808190E01E
:100AB000022E02C0959587950A94E2F780FF06C042
:100AC000E4ECF4E080818460808305C0E4ECF4E031
:100AD00080818B7F8083E4ECF4E08081826080837E
:100AE0002F5F01C020E0283090F231503323D4F73B
:100AF000E4ECF4E080818160808380818E7F80835C
:100B00008091C0408130A9F028F0823009F1833013
:100B100071F13BC0E4ECF4E080818F7E80838081C2
:100B20008F7D808380818F7B8083808180688083BC
:100B30002CC0E4ECF4E080818F7E808380818F7D07
:100B4000808380818064808380818F7780831DC0D3
:100B5000E4ECF4E080818F7E8083808180628083FA
:100B600080818F7B808380818F7780830EC0E4ECCF
:100B7000F4E080818061808380818F7D80838081AB
:100B80008F7B808380818F7780838091C0408F5F4F
:100B90008093C040843010F01092C040089512C07D
:100BA000E82FF0E0A42FB0E0A457BF4B9C91EE0FCC
:100BB000FF1FEE0FFF1FEF53FF4B93839283918331
:100BC00090838F5F681760F708958091724181115B
:100BD000A0C08091080484FD0DC08AE090E00E94CE
:100BE0003B04E1E7F1E481E082838183109252418A
:100BF000109253418091080485FD0EC08AE090E078
:100C00000E943B04E1E7F1E482E0828381E081839A
:100C100010925241109253418091080486FD0EC0FB
:100C20008AE090E00E943B04E1E7F1E483E0828304
:100C300081E08183109252411092534180910804C7
:100C4000882374F08AE090E00E943B04E1E7F1E43D
:100C500084E0828381E0818310925241109253415B
:100C600080917341843051F480912841882319F098
:100C70001092284103C081E080932841809128414F
:100C8000882391F080917341823071F480912A41E0
:100C900081110AC080912941882319F010922941BD
:100CA00003C081E08093294180912841882391F0FD
:100CB00080917341823071F480912A41882351F0F0
:100CC000E1E7F1E480818F5F80838081863010F0DE
:100CD00010927141E1E7F1E493818281981311C090
:100CE00080917541823020F084E1809351410895D4
:100CF00082E380935141E1E7F1E484818F5F848353
:100D0000089582E380935141E1E7F1E48281838396
:100D100014820895CF92DF92EF92FF9281E090E0EB
:100D20000E944B0F80936D4181508C3340F081E0E5
:100D300080936D4161E081E090E00E946D0F82E060
:100D400090E00E944B0F8093774181508C3340F0AC
:100D500081E08093774161E082E090E00E946D0F36
:100D600083E090E00E944B0F80936341803240F01B
:100D700081E08093634161E083E090E00E946D0F29
:100D800084E090E00E944B0F8093F9408D3340F057
:100D900081E08093F94061E084E090E00E946D0F73
:100DA00085E090E00E944B0F8093C84181508430D1
:100DB00040F082E08093C84162E085E090E00E94CC
:100DC0006D0F86E090E00E94550FA0E0B0E08093A8
:100DD000B7419093B841A093B941B093BA418456BA
:100DE0009109A109B10985389340A105B10590F099
:100DF00084E690E0A0E0B0E08093B7419093B841E2
:100E0000A093B941B093BA4164E670E086E090E007
:100E10000E94900F8CE090E00E94600F0E945D3174
:100E20006B017C016093A0417093A1418093A2412A
:100E30009093A34120E038EC4FEA57E40E940F3230
:100E4000181654F020E030E44CE156E4C701B60136
:100E50000E94B0308823A4F480E090E4ACE1B7E4D1
:100E60008093A0419093A141A093A241B093A3414C
:100E700040E45CE960E070E08CE090E00E94AD0F3F
:100E800088E090E00E94550F809321419093224189
:100E90000A978730974260F084EF91E08093214178
:100EA0009093224164EF71E088E090E00E94900FFF
:100EB0008AE090E00E94550F8093AD419093AE413F
:100EC0008D599F4F873C910550F01092AD41109283
:100ED000AE4160E070E08AE090E00E94900F0E94D6
:100EE000832480915C418C3328F060E080E00E9494
:100EF000BE24FFCF8091624181111CC066E186E073
:100F00000E94BE2469E085E00E94BE2464E184E082
:100F10000E94BE2463E083E00E94BE246CE082E075
:100F20000E94BE2460E081E00E94BE2460E080E078
:100F30000E94BE24FF90EF90DF90CF9008958FE045
:100F400090E00E943B0426E686E695E02150804032
:100F50009040E1F78FE090E00E943B0426E686E6B1
:100F600095E0215080409040E1F78FE090E00E94B2
:100F70003B0408954F925F926F927F928F929F925F
:100F8000AF92BF92CF92DF92EF92FF920E941F1614
:100F90006C01E12CF12CE8E3F1E487809084A184DA
:100FA000B28420812093FF40409156415091574197
:100FB000C114D104E104F10409F4C4C0E1E0443FE8
:100FC000514008F4E0E02401350134E6431A5108A9
:100FD00061087108F1E0B501A4014C595F4F6F4FF2
:100FE0007F4F4C155D056E057F0508F4F0E031E09C
:100FF000C414D504E604F70408F430E03F23EE23DC
:1010000009F483C0332309F480C0809176418F5F57
:1010100080937641843008F45FC021113FC081E0A5
:101020008093FF408093384124E112C0822F90E0EA
:10103000FC013197EE0FFF1FE858FE4B40815181B4
:10104000880F991FFC01E858FE4B408351832150C3
:10105000223060F78091AD419091AE41092E000C95
:10106000AA0BBB0B8C0D9D1DAE1DBF1DE8E3F1E46B
:1010700083839483A583B68380937A4190937B4145
:1010800081819281019681839283108210925641D0
:10109000109257410E9468140E949F071092764157
:1010A0008091AD419091AE41092E000CAA0BBB0B73
:1010B0008C0D9D1DAE1DBF1DBF93AF939F938F934E
:1010C00088E490E49F938F930E941D390F900F90B6
:1010D0000F900F900F900F90E8E3F1E487829086D5
:1010E000A186B2868091AD419091AE41092E000C4F
:1010F000AA0BBB0BC80ED91EEA1EFB1EC382D482EC
:10110000E582F6820E94681437C0A0E0B0E0E8E310
:10111000F1E487839087A187B2878091AD41909158
:10112000AE41092E000CAA0BBB0BC80ED91EEA1E3D
:10113000FB1EC382D482E582F6821092BB410E94DC
:1011400068141AC02091BB412F5F2093BB4124300B
:1011500098F0E8E3F1E410821092BB411782108608
:101160001186128610927641A0E0B0E083839483CA
:10117000A583B6830E946814FF90EF90DF90CF9014
:10118000BF90AF909F908F907F906F905F904F90A7
:1011900008950F931F93CF93DF93CDB7DEB7C65655
:1011A000D109CDBFDEBF96E6FE013196DF01292FC2
:1011B0001D922A95E9F7DF011D929A95E9F790EFC4
:1011C000998391E09B836C8391E49E839091774116
:1011D0009F8392E09A8791E020E030E00AE052C0DD
:1011E000813009F04EC04091394150913A4144312B
:1011F000510538F02091394130913A41290F311D84
:1012000015C06091394170913A41492F50E06417FF
:10121000750740F46091394170913A416417750740
:1012200018F004C09A0102C020E030E041E0400F15
:10123000E1E0F0E0EC0FFD1FE00FF11D308362E014
:10124000600FE1E0F0E0EC0FFD1FE40FF11D2083E3
:10125000E92FF0E0EE0FFF1FE858FE4B508141816F
:10126000E1E0F0E0EC0FFD1FE60FF11D408343E0ED
:10127000400FE1E0F0E0EC0FFD1FE40FF11D0C5F0B
:1012800050839F5F953108F4ABCFE1E0F0E0EC0FC5
:10129000FD1FE00FF11D108281E0800FE1E0F0E022
:1012A000EC0FFD1FE80FF11D108282E0800FE1E0DE
:1012B000F0E0EC0FFD1FE80FF11D108283E0800FBE
:1012C000E1E0F0E0EC0FFD1FE80FF11D108284E07B
:1012D000800FE1E0F0E0EC0FFD1FE80FF11D108240
:1012E00036E0300F85E0800FE1E0F0E0EC0FFD1F0D
:1012F000E80FF11D108281E090E009C0E1E0F0E02C
:10130000EC0FFD1FE80FF11D2081920F8F5F8317F7
:10131000A8F387E0800FE1E0F0E0EC0FFD1FE30FA2
:10132000F11D9083085FE1E0F0E0EC0FFD1FE80F96
:10133000F11D81EF808310E00AC0E1E0F0E0EC0FE6
:10134000FD1FE10FF11D80810E946F281F5F1017A4
:10135000A0F3CA59DF4FCDBFDEBFDF91CF911F9100
:101360000F9108951F93CF93DF93CDB7DEB72A97E0
:10137000CDBFDEBF9AE0FE013196DF01292F1D921D
:101380002A95E9F7DF011D929A95E9F790EF998385
:1013900091E09B838C836D8381E48E838091774180
:1013A0008F8381E090E009C0E1E0F0E0EC0FFD1FE9
:1013B000E80FF11D2081920F8F5F8830A8F3998785
:1013C00081EF8A8710E00AC0E1E0F0E0EC0FFD1F3A
:1013D000E10FF11D80810E946F281F5F1A30A0F37A
:1013E0002A96CDBFDEBFDF91CF911F910895EF9276
:1013F000FF920F931F93CF93DF93C0E06DC10C2F2B
:1014000010E0F801EC52FE4B8081803F09F056C09D
:10141000F801EB52FE4B9081913009F04FC0F8017A
:10142000EA52FE4B9081913009F048C0F801E85231
:10143000FE4B9081913009F041C0F801E352FE4B20
:101440009081913FD9F5E4E2F4E080818860808367
:1014500090E081E008C0F801E80FF11DEC52FE4B6E
:101460002081920F8F5F8830B0F3F801E452FE4B79
:10147000808198131BC0F801E952FE4B9081809146
:10148000F940981313C0C4E2D4E088818460888353
:101490006091F94081E00E94C9088CEC9CE10197C1
:1014A000F1F700C0000088818B7F88830E94962816
:1014B000E4E2F4E08081877F808311C1803F09F0FE
:1014C000A1C0F801EB52FE4B9081913009F09AC017
:1014D000F801E852FE4B9081993009F093C0F80171
:1014E000ED51FE4B9081913F09F08CC0E4E2F4E0B5
:1014F00080818860808390E081E008C0F801E80F77
:10150000F11DEC52FE4B2081920F8F5F8E30B0F3B5
:10151000F801EE51FE4B808198136CC0F801E45243
:10152000FE4B8081982F92959F70990F692F660FBF
:10153000660F960F8F70692F680F86E00E94BE2499
:10154000F801E352FE4B8081982F92959F70990F7E
:10155000692F660F660F960F8F70692F680F85E0F1
:101560000E94BE24F801E252FE4B8081982F929592
:101570009F70990F692F660F660F960F8F70692FF6
:10158000680F84E00E94BE24F801E152FE4B808186
:10159000982F92959F70990F692F660F660F960F7F
:1015A0008F70692F680F82E00E94BE24F801E0521C
:1015B000FE4B8081982F92959F70990F692F660F2F
:1015C000660F960F8F70692F680F81E00E94BE240E
:1015D000F801EF51FE4B8081982F92959F70990FE3
:1015E000692F660F660F960F8F70692F680F80E066
:1015F0000E94BE240E949628E4E2F4E08081877F66
:1016000080836DC0803F09F066C0F801EB52FE4B4D
:101610008081813009F05FC0F801EA52FE4B808181
:10162000813009F058C0780194E0E90EF11CF7010F
:10163000EC52FE4B8081873009F04DC0F801ED502F
:10164000FE4B8081813F09F046C0E4E2F4E08081F6
:101650008860808390E081E008C0F801E80FF11D08
:10166000EC52FE4B2081920F8F5F8E31B0F3F80168
:10167000EE50FE4B808198132EC060E070E06093C6
:10168000CE427093CF42F801E952FE4B9081809197
:10169000F940981320C0609321417093224188E063
:1016A00090E00E94900F04E214E0F80180818460D1
:1016B0008083F701EC52FE4B60818091F9400E94DB
:1016C000B2098CEC9CE10197F1F700C00000F80131
:1016D00080818B7F8083CF5FCA3F08F490CEDF91FB
:1016E000CF911F910F91FF90EF90089580915441F9
:1016F00090915541883E9340E8F0109254411092E9
:1017000055410E948324ECE5F1E4878164818617CA
:1017100089F06093634183E090E00E946D0F88E25E
:10172000E8E7F1E4DF011D928A95E9F7109239416B
:1017300010923A410895CF931092FA401092FB40D4
:101740001092FC401092FD40C0E018C080E00E9462
:10175000630E4091FA405091FB406091FC407091C3
:10176000FD40480F591F611D711D4093FA40509371
:10177000FB406093FC407093FD40CF5FC23330F379
:101780006091FA407091FB408091FC409091FD4047
:1017900022E330E040E050E00E9435362093FA40EA
:1017A0003093FB404093FC405093FD40CA01B90187
:1017B0000E945D3126EF39E040EA5AE30E9414327C
:1017C000609358417093594180935A4190935B4183
:1017D000CF910895CF92DF92EF92FF9220E836E901
:1017E00048E15BE46091A0417091A1418091A241E8
:1017F0009091A3410E94B5306B017C012FE832EC3F
:1018000045EF5EE3609158417091594180915A4192
:1018100090915B410E9444309B01AC01C701B6012D
:101820000E94B53020E030E040E053E40E941432E2
:101830009B01AC010E94443020E030E040E05BE4DA
:101840000E9414326B017C012091B7413091B84164
:101850004091B9415091BA41A8EEB3E00E948E3652
:101860000E945D319B01AC01C701B6010E94B530F9
:101870006B017C016091C84170E080E090E00E94C3
:101880005F319B01AC01C701B6010E94B530609386
:101890004B4170934C4180934D4190934E41FF904A
:1018A000EF90DF90CF9008954AE062E080E00E94E0
:1018B000CF05E8E2F1E410821182128210927141A8
:1018C0000E948A068FEF9FE80197F1F700C00000A1
:1018D0000E949B0B0E94EA0B8FEF9FE80197F1F7A4
:1018E00000C000000E94D5158FEF9FE80197F1F727
:1018F00000C000000E94D5150E949F071092384139
:101900004CE062E080E00E94CF050895A89508951C
:10191000CF93109229414CE062E080E00E94CF0515
:10192000C1E091C080917241882399F08091734108
:10193000813031F4C53020F4CF5F1092734109C07B
:1019400080917341833029F4CC2319F0C150109257
:101950007341E1ECF0E4138612861186AC2FB0E0FF
:10196000A457BF4B8C918087C23031F130F4CC2327
:1019700009F466C0C13049F064C0C43009F448C0FD
:1019800088F1C53009F45AC05CC0E1ECF0E48AE1AA
:1019900083838EED828390E691839083178296EB0A
:1019A000968385838EE1848380912941882309F47D
:1019B00048C00E94462145C0E1ECF0E4138286EF66
:1019C00082838AEF81838EE18083178296EB9683F0
:1019D0009EED9583848380912941882391F10E9413
:1019E00083102FC0E1ECF0E413828AED82838EE352
:1019F00081838EED8083178296EB968385838EE1BB
:101A00008483809129418823E1F00E94E02E19C04F
:101A1000E1ECF0E413828AE082838EE181839AE133
:101A20009083178296EB96839EED958384838091B5
:101A30002941882331F00E94EC2403C0C1E001C099
:101A4000C4E00E94860C8091284181116BCF0E94D6
:101A5000540CCF9108950E9438040E94230560E041
:101A600070E08FE095E00E94963881E080937041AD
:101A70008DEB90E40E9431392FEF8FE392E02150FB
:101A800080409040E1F700C0000085E590E49F931E
:101A90008F938EE590E49F938F938AE690E49F93D3
:101AA0008F930E941D390E94490E0E94710E0E9460
:101AB0005A0E78940E949F07E4E2F4E08081877FC9
:101AC000808380818B7F80830E948A06E1ECF0E432
:101AD000138287E6828380E6818310822FEF8FEF67
:101AE0009CE2215080409040E1F700C000000E943D
:101AF000860C0F900F900F900F900F900F9010E0AA
:101B00000F2EF3E0FF2EF02DA6C00E948324CCE51B
:101B1000D1E49E818DEC989F412D112446954695E8
:101B20004695E42FF0E0E457FF4B5081E1ECF0E400
:101B30005383440F542F550F550F450FA92FA41B46
:101B4000B0E0A457BF4B9C9192839D81989F412DFB
:101B50001124469546954695A42FB0E0A457BF4B57
:101B60005C915183440F542F550F550F450FA92FEA
:101B7000A41BB0E0A457BF4B9C9190839C81989F7D
:101B8000412D1124469546954695A42FB0E0A457C3
:101B9000BF4B5C915783440F542F550F550F450F82
:101BA000A92FA41BB0E0A457BF4B9C9196839A81A8
:101BB000989F412D1124469546954695A42FB0E057
:101BC000A457BF4B5C915583440F542F550F550FAD
:101BD000450FA92FA41BB0E0A457BF4B9C91948341
:101BE0009981989F412D1124469546954695A42F9D
:101BF000B0E0A457BF4B5C915387440F542F550F4F
:101C0000550F450FA92FA41BB0E0A457BF4B9C91C3
:101C100092871881189F812D112486958695869527
:101C2000A82FB0E0A457BF4B9C919187880F982FA5
:101C3000990F990F890FA12FA81BB0E0A457BF4B94
:101C40008C918087011741F08AE090E00E943B046C
:101C50000E94860CFA94012FF11057CF0E94540C69
:101C60000E94860C8091284181110E94880C0E945C
:101C7000BA070E94F7090E94760B0E94860C2FEF8C
:101C80008FE794E0215080409040E1F700C00000D1
:101C9000E9CFE0E0F6E086E0828381E0808380E0C7
:101CA0000895E0E0F6E090819F7D9083808781E059
:101CB0008287089580910D068170089580911006A5
:101CC0009091110608950E94510E0E945A0E882389
:101CD000E1F30E945E0EE0E0F6E0258521602587B5
:101CE000089585E08093A00086EF8A95F1F7089526
:101CF0001092890080E0089543E068ED80E690E06E
:101D00000E946F248091630080FDFCCF80E00895E5
:101D100080E0089580E008C0E82FF0E0E05FFB4F2E
:101D20009081986090838F5F8830B0F380E008C026
:101D3000E82FF0E0E05DFB4F9081986090838F5F2B
:101D40008830B0F380E008C0E82FF0E0E05BFB4FA4
:101D50009081986090838F5F8830B0F380E008C0F6
:101D6000E82FF0E0E059FB4F9081986090838F5FFF
:101D70008830B0F380E008C0E82FF0E0E057FB4F78
:101D80009081986090838F5F8830B0F380E008C0C6
:101D9000E82FF0E0E055FB4F9081986090838F5FD3
:101DA0008830B0F380E008C0E82FF0E0E053FB4F4C
:101DB0009081986090838F5F8830B0F3089585B3E9
:101DC000877F85BB84B3886084BBE3EBF4E08081CC
:101DD000877F808380818F7780838081887F8083E5
:101DE00085B38B7F85BB84B3846084BBE2EBF4E076
:101DF0008081877F808380818F7780838081887FC7
:101E000080830E940C130895E0EEF5E082818B7FC1
:101E10008283E0E4F4E080818160808380818D7F33
:101E200080830E944E280895E0EEF5E082818F7B4A
:101E30008283E0E2F4E080818160808380818D7F15
:101E400080830E946328089510920806E0E6F4E07B
:101E50008089887F808B80898460808B8089877F60
:101E6000808B0E94490E08950E948A0E0E947C0E6B
:101E70000E94040F0E94140F0E94240F0E94402809
:101E80000E94880E0E9442280E94780E0E94A0287C
:101E90000E94DF0E0895811522E0920710F08FEF67
:101EA00091E0FC01FC5E808108958F3F21E0920764
:101EB00010F08EEF91E0FC01FC5E8081918108952D
:101EC0008D3F21E0920710F08CEF91E0FC01FC5E69
:101ED000608171818281938108951F93CF93DF93F5
:101EE0009C01211582E03807B0F4909102109370A4
:101EF000E1F7162FE90143E16DE980E090E10E94EE
:101F00006F24DC5E188340E06DE980E090E10E9480
:101F10006F2481E001C080E0DF91CF911F9108958F
:101F2000CF92DF92EF92FF92CF93DF938F3F21E02A
:101F3000920758F4EC016B010E946D0F6D2DCE01DC
:101F400001960E946D0F81E001C080E0DF91CF918A
:101F5000FF90EF90DF90CF900895FF920F931F9323
:101F6000CF93DF938D3F21E09207C0F4172F062F08
:101F7000F52E642FEC010E946D0F6F2DCE0101969E
:101F80000E946D0F602FCE0102960E946D0F612F8F
:101F9000CE0103960E946D0F81E001C080E0DF91C9
:101FA000CF911F910F91FF9008954CE062E080E087
:101FB0000E94CF0542C0E1ECF0E48EEB838382E027
:101FC00082838AE281838AE3808320916D418DEC54
:101FD000289F812D1124869586958695A82FB0E09F
:101FE000A457BF4B9C919583880F982F990F990FF9
:101FF000890FA22FA81BB0E0A457BF4B8C918483FC
:10200000809172418823B9F080917341813041F40D
:102010002C3330F42F5F20936D41109273410BC02D
:1020200080917341833039F4223028F0215020937D
:102030006D41109273410E94860C80912841882343
:1020400021F0809129418111B6CF60916D4181E0ED
:1020500090E00E946D0F08954CE062E080E00E94E5
:10206000CF0542C0E1ECF0E48EEB838382E0828313
:1020700080E681838AE78083209177418DEC289FD9
:10208000812D1124869586958695A82FB0E0A457BA
:10209000BF4B9C919583880F982F990F990F890FAB
:1020A000A22FA81BB0E0A457BF4B8C9184838091D2
:1020B00072418823B9F080917341813041F42C330F
:1020C00030F42F5F20937741109273410BC08091C1
:1020D0007341833039F4223028F021502093774126
:1020E000109273410E94860C80912841882321F030
:1020F000809129418111B6CF6091774182E090E0D3
:102100000E946D0F0895CF93109229414CE062E038
:1021100080E00E94CF05C1E08BC08091724188238E
:1021200099F080917341813031F4C33020F4CF5F56
:102130001092734109C080917341833029F4CC23FC
:1021400019F0C15010927341EC2FF0E0E457FF4BAF
:1021500080818093C940C13041F008F466C0C2302C
:1021600099F1C33009F45FC061C0E1ECF0E48EEB9B
:10217000838382E082838AE281838AE38083178279
:10218000168240916D418DEC489F812D11248695DA
:1021900086958695282F30E024573F4BD9019C9196
:1021A0009583880F982F990F990F890FA42FA81B3B
:1021B000B0E0A457BF4B8C91848380912941882340
:1021C000A9F10E94D50F32C0E1ECF0E48EEB8383DD
:1021D00082E0828380E681838AE780831782168289
:1021E000409177418DEC489F812D112486958695ED
:1021F0008695282F30E024573F4BD9019C91958339
:10220000880F982F990F990F890FA42FA81BB0E062
:10221000A457BF4B8C91848380912941882331F04E
:102220000E942C1003C0C1E001C0C2E00E94860CD5
:1022300080912841811171CFCF910895E0E2F9E0BA
:10224000848188608483858181608583EDECF0E4FE
:1022500080818E7F808313868EE00895EDECF0E41C
:1022600080818E7F8083138680E00895E0E2F9E02C
:102270008481836084830E942E110895EDECF0E444
:10228000808188608083818190E0880F991F8160C0
:102290008093270984E008950E943E1108950E94CA
:1022A0003E110895EDECF0E48081886080838181A7
:1022B000880F8093270983E008950E9452110895A2
:1022C000ADECB0E48C91877F8C9382E01B968C936D
:1022D0001B975096ED91FC9151975C968D919C9136
:1022E0005D970995823019F0833021F006C00E9475
:1022F0004F1108950E945D1108950E9436110895AE
:10230000E0E2F9E084818B7F848384E00895E0E259
:10231000F9E084818B7F848383E00895E0E2F9E033
:102320008481846084838481836084830E942E11ED
:102330000895E0E2F9E084818460848388E0089570
:102340008091250984FF19C0ADECB0E45296ED915F
:10235000FC9153975E968D919C915F970995823081
:1023600019F0833021F006C00E944F1108950E9499
:102370005D1108950E9436110895EDECF0E480811E
:10238000877F8083A281B381CD010196828393836D
:102390008C9180932809848195810197848395830A
:1023A000892B11F083E0089585E00895CF93DF93A2
:1023B000EDECF0E48081877F8083848195810197B3
:1023C00031F4E0E2F9E084818460848305C0E0E2D6
:1023D000F9E084818B7F8483EDECF0E48481958146
:1023E000019784839583892BA9F0DF01C281D38172
:1023F000E0E2F9E08085888312968D919C91139795
:10240000019612968D939C931397848182608483A6
:1024100084E026C0ADECB0E41296ED91FC911397E8
:1024200080912809808312968D919C911397019633
:1024300012968D939C9313978C9184608C931C9629
:10244000ED91FC911D9758968D919C915997099506
:102450008250823018F40E94991102C00E948E119D
:10246000DF91CF9108958091250984FF19C0ADECCB
:10247000B0E45296ED91FC9153975E968D919C91AC
:102480005F970995823019F0833021F006C00E94D1
:102490004F1108950E945D1108950E94361108950C
:1024A000ADECB0E48C9184608C931C96ED91FC9122
:1024B0001D9758968D919C9159970995833039F0C5
:1024C000843041F0823049F40E944F1108950E94F7
:1024D0005D1108950E94A01108950E94361108957B
:1024E000E0E2F9E0858188608583ADECB0E482E0CC
:1024F0001B968C931B971E96ED91FC911F975A96F5
:102500008D919C915B970995823019F0833021F071
:1025100006C00E944F1108950E945D1108950E9407
:102520001E110895E0E2F9E084818860848385814A
:1025300081608583EDECF0E480818E7F808382E092
:1025400083878EE00895CF93DF93E0E2F9E0858101
:10255000806C85838091CD4083FF07C080912509E1
:1025600084FF03C08FE08093D7408091250983FFCB
:1025700003C080E18093D7408091250982FF03C08A
:1025800081E18093D740CDECD0E4EA85F0E0EE0F16
:10259000FF1FEA5FFF4B0190F081E02D09958A87CC
:1025A000DF91CF91089581E0089585E00895611548
:1025B000710591F090E0FC013696EE0FFF1FE3539A
:1025C000FF4B60837183FC013C96EE0FFF1FE353CA
:1025D000FF4B40835183089590E0FC013696EE0F47
:1025E000FF1FE353FF4B23ED32E120833183FC01D6
:1025F0003C96EE0FFF1FE353FF4B108211820895AC
:10260000AB01BC0180E00E94D7120895AB01BC0170
:1026100082E00E94D7120895E0E2F9E084E4868324
:1026200081EC838308959091CD4091FD37C0EDEC0E
:10263000F0E48183892F8E7F82609EE0928724EF71
:1026400031E020873187877F8460808383ED92E14A
:1026500084879587108E118E86879787128E138EAA
:10266000808B918B148E158E828B938B168E178E8A
:1026700085ED92E1848B958B10A211A2E0E2F9E046
:102680008481886084838581816085838581806C75
:1026900085838381806C838380E0089581E0089541
:1026A0008091250982FF07C0EDECF0E480818E7FE8
:1026B000808382E083878091CD4080FD17C0EDEC60
:1026C000F0E48D7F80838FEF8183A0E2B9E01596DF
:1026D0008C911597806C15968C93159713968C9109
:1026E00013978F7313968C938385089581E00895D3
:1026F0009C019091CD4092FF09C0EDECF0E4228363
:10270000338364837583892F8B7F808308959091B1
:10271000CD4090FD11C0EDECF0E4916090838823F2
:1027200021F081E08093D74003C082E08093D740BE
:102730000E94A31280E0089581E0089580E00E9445
:10274000871308951F920F920FB60F9211240BB6A4
:102750000F922F933F934F935F936F937F938F933A
:102760009F93AF93BF93EF93FF930E94A312FF91A8
:10277000EF91BF91AF919F918F917F916F915F91F9
:102780004F913F912F910F900BBE0F900FBE0F9066
:102790001F90189561E070E00E94781360E070E08F
:1027A00080E090E00E94001384E0089561E070E012
:1027B0000E94781360E070E080E090E00E940013D7
:1027C00082E00895FF920F931F93CF93DF9300D081
:1027D000CDB7DEB7F82E69834A8300E117E28F2D6B
:1027E0000E941313813019F401501109C1F7012B14
:1027F00011F1BE016E5F7F4F8AEC93E10E940013DE
:1028000061E070E0CE0101960E94781360E070E014
:1028100086E694E10E9406130E949E1300E117E2EF
:102820000E945013813019F401501109C9F7012B8E
:1028300021F482E003C081E001C080E00F900F909E
:10284000DF91CF911F910F91FF900895EF92FF922A
:102850001F93CF93DF9300D0CDB7DEB7182F6A83D5
:102860008AE289836894EE24E1F8F12C23C0812F59
:102870000E9413138823D9F3BE016F5F7F4F86ED4B
:1028800093E10E94001361E070E0CE0102960E9485
:10289000781360E070E086E694E10E9406130E94DF
:1028A0009E130E9450138130E1F3882331F081E0C0
:1028B000E81AF108E114F104D1F689810F900F9024
:1028C000DF91CF911F91FF90EF90089583E00895DD
:1028D0008F929F92AF92BF92EF92FF920F931F93AE
:1028E000CF93DF93C8E3D1E46B817C818D819E819E
:1028F0000F2EF0E18F2EF7E29F2EA12CB12CF02DA0
:10290000A50194010E945736E22E2093F2406B817C
:102910007C818D819E81A50194010E9457360F2EE6
:10292000F8EE8F2EF3E09F2EA12CB12CF02DA501F7
:1029300094010E945736F22E2093CA416B817C810C
:102940008D819E81A50194010E9457360F2EF4E6D9
:102950008F2E912CA12CB12CF02DA50194010E9459
:102960005736022F2093BC416B817C818D819E81E3
:10297000A50194010E9457360F2EFAE08F2E912C5C
:10298000A12CB12CF02DA50194010E945736122FD5
:1029900020936C416B817C818D819E81A501940186
:1029A0000E9457366093B1418B819C81AD81BE817D
:1029B00081319742A105B10514F1EE2DF0E0E45705
:1029C000FF4B8081A1ECB0E413968C931397EF2D0D
:1029D000F0E0E457FF4B808112968C931297E02F22
:1029E000F0E0E457FF4B80818F5F11968C93119735
:1029F000E12FF0E0E457FF4B80818C9358C0809129
:102A00003B4190913C41A0913D41B0913E41893E76
:102A10009340A105B10514F1EF2DF0E0E457FF4B11
:102A20008081A1ECB0E413968C931397E02FF0E033
:102A3000E457FF4B80818F5F12968C931297E12FA2
:102A4000F0E0E457FF4B808111968C931197E62FAD
:102A5000F0E0E457FF4B80818C9329C080913B418B
:102A600090913C41A0913D41B0913E41883E9340C0
:102A7000A105B105E4F4A1ECB0E413961C92139700
:102A8000E02FF0E0E457FF4B80818F5F12968C932C
:102A90001297E12FF0E0E457FF4B808111968C9361
:102AA0001197E62FF0E0E457FF4B80818C93DF9184
:102AB000CF911F910F91FF90EF90BF90AF909F909B
:102AC0008F900895CF92DF92EF92FF92E4E4F4E0CA
:102AD00080818B7F80838091480483FFFCCF90E0CE
:102AE00040E050E0BA011DC0440F551F661F771F1C
:102AF000E4E4F4E080818460808322E62A95F1F7A3
:102B0000000080818B7F808382E68A95F1F7000048
:102B10008091480483FD04C04F5F5F4F6F4F7F4F2C
:102B20009F5F983108F3E4E4F4E08081846080835F
:102B300092E69A95F1F7000080818B7F80832FEFDA
:102B40008FE794E0215080409040E1F700C0000002
:102B5000CB01BA0120E48227613020EF72072FE712
:102B6000820791051CF060E070E0CB0128EE33E0B5
:102B700040E050E00E945736A8EEB3E00E948E3647
:102B8000C0904B41D0904C41E0904D41F0904E416F
:102B90000E945F31A70196010E94B5300E94273143
:102BA000FF90EF90DF90CF9008950F931F930E94B6
:102BB00062158B019C018091474190914841A09101
:102BC0004941B0914A41801B910BA20BB30B1816DF
:102BD00019061A061B067CF4E8E3F1E447855089E0
:102BE00061897289481B590B6A0B7B0B4787508B95
:102BF000618B728B10C0BB2374F4E8E3F1E447856A
:102C0000508961897289480F591F6A1F7B1F478746
:102C1000508B618B728B892B8A2B8B2B61F68AE010
:102C200090E00E943B0426E686EE90E02150804032
:102C30009040E1F70E94860C1F910F9108954F92EA
:102C40005F926F927F928F929F92AF92BF92CF923C
:102C5000DF92EF92FF924090474150904841609040
:102C6000494170904A410E9462156B017C0120919C
:102C7000B7413091B8414091B9415091BA41A8EE65
:102C8000B3E00E948E364B015C011C141D041E042F
:102C90001F040CF0B7C08091474190914841A0912A
:102CA0004941B0914A41C81AD90AEA0AFB0A1C14E0
:102CB0001D041E041F046CF5809143419091444112
:102CC000A0914541B0914641C816D906EA06FB06D7
:102CD000C4F0809150418F5F809350418536C8F099
:102CE000D301C2018C0D9D1DAE1DBF1D80934741B8
:102CF00090934841A0934941B0934A410E949F0755
:102D000008C0C0924341D0924441E0924541F092C4
:102D10004641C114D104E104F10411F41092504170
:102D20008091214190912241919581959109092E9F
:102D3000000CAA0BBB0BC816D906EA06FB06C4F4A6
:102D4000809150418F5F809350418B3070F00E9492
:102D5000D5158FEF9FE80197F1F700C000000E94A2
:102D6000D515C12CD12C760103C0C12CD12C7601F4
:102D70008091214190912241AC01092E000C660BFB
:102D8000770BC416D506E606F706B4F5919581953E
:102D90009109092E000CAA0BBB0B8C159D05AE05E5
:102DA000BF0554F51C141D041E041F0484F4C40C38
:102DB000D51CE61CF71CC0924741D0924841E092D6
:102DC0004941F0924A41C12CD12C760115C0FF2017
:102DD00084F4C40CD51CE61CF71CC0924741D09269
:102DE0004841E0924941F0924A41C12CD12C7601F0
:102DF00003C0C12CD12C76018C149D04AE04BF04F9
:102E000028F007C0C12CD12C760103C0C12CD12CD5
:102E10007601C701B6012AE030E040E050E00E94B0
:102E20005736C901FF90EF90DF90CF90BF90AF90E1
:102E30009F908F907F906F905F904F900895109229
:102E4000C94088E090E00E94550F9C018093214189
:102E50009093224160E177E20E9421366093234102
:102E6000E8EEF3E0BF010E9421366093C741C9013B
:102E7000BF010E942136E4E6F0E0BF010E94213646
:102E800060932441C901BF010E942136EAE0F0E0CD
:102E9000BF010E94213660930341C901BF010E9416
:102EA00021368093B2413DC181E080932A418091D7
:102EB0007141823009F485C030F4882369F0813093
:102EC00009F444C02CC1843009F4F0C008F4B4C043
:102ED000853009F422C123C1E091B241F0E0E4570A
:102EE000FF4B80818093CC408091C641882319F0AC
:102EF0001092C84008C0E0912341F0E0E457FF4B36
:102F000080818093C84080917241882309F407C171
:102F100080917341813051F480912341811106C029
:102F20008F5F8093234110927341F9C08091734168
:102F3000833009F0F4C080912341882309F4EFC065
:102F400081508093234110927341E9C0E091234165
:102F5000F0E0E457FF4B80818093C8408091C641E8
:102F6000882319F01092C74009C0E091C741F0E0F2
:102F7000E457FF4B80818F5F8093C74080917241FF
:102F8000882309F4CCC080917341813051F4809141
:102F9000C741893030F48F5F8093C74110927341ED
:102FA000BEC080917341833009F0B9C08091C741A0
:102FB000882309F4B4C081508093C74110927341B3
:102FC000AEC0E091C741F0E0E457FF4B80818F5FD6
:102FD0008093C7408091C641882319F01092C64063
:102FE00008C0E0912441F0E0E457FF4B80818093DA
:102FF000C64080917241882309F491C08091734149
:10300000813051F480912441893030F48F5F809376
:1030100024411092734183C080917341833009F041
:103020007EC080912441882309F479C08150809327
:1030300024411092734173C0E0912441F0E0E457C1
:10304000FF4B80818093C6408091C641882319F050
:103050001092C54008C0E0910341F0E0E457FF4BF7
:1030600080818093C54080917241882309F457C0C4
:1030700080917341813051F480910341893030F463
:103080008F5F809303411092734149C080917341D7
:10309000833009F044C080910341882309F43FC084
:1030A0008150809303411092734139C0E0910341F4
:1030B000F0E0E457FF4B80818093C5408091C6418A
:1030C000882319F01092CC4008C0E091B241F0E0A2
:1030D000E457FF4B80818093CC40809172418823DC
:1030E000F1F080917341813051F48091B241893087
:1030F00030F48F5F8093B2411092734110C0809181
:103100007341833061F48091B241882341F0815052
:103110008093B2411092734102C0109271410E949B
:10312000860C809128418111BFCE2091234180E1FE
:1031300097E2289FB001299F700D11244091C7414B
:1031400028EE33E0429FC001439F900D1124680F89
:10315000791F8091244194E6899F600D711D11248F
:103160008091034190E09C01220F331F880F991F2B
:10317000880F991F880F991F820F931F680F791F5F
:103180008091B241680F711D60932141709322417B
:1031900088E090E00E94900FE8E2F1E481E0808313
:1031A000118212821092714108952F923F924F9294
:1031B0005F926F927F928F929F92AF92BF92CF92C7
:1031C000DF92EF92FF920F931F93CF93DF93CDB7D0
:1031D000DEB72597CDBFDEBF1092C9408CE090E0EE
:1031E0000E94600F1B012C0160932B4130922C41F7
:1031F00040922D4150922E4110922F411092304119
:1032000010923141109232416894AA24A4F80F2EF2
:10321000F7E2BF2EF02DC12CD12CE12CF12C00E0D7
:1032200010E0262F332D442D552D60E070E080E016
:1032300090E00E94F4362093A4413093A54140933E
:10324000A6415093A7416093A8417093A9418093F0
:10325000AA419093AB41222D332D442D552D60E092
:1032600070E080E090E00E94F2360F2EF8EEAF2E74
:10327000F02D0F2EF3E0BF2EF02D0E94F436209398
:10328000D0423093D1424093D2425093D342609384
:10329000D4427093D5428093D6429093D742222D48
:1032A000332D442D552D60E070E080E090E00E94C9
:1032B000F2360F2EF4E6AF2EF02DB12C0E94F4362C
:1032C0002093BE413093BF414093C0415093C141D0
:1032D0006093C2417093C3418093C4419093C541B0
:1032E000222D332D442D552D60E070E080E090E0DC
:1032F0000E94F2360F2EFAE0AF2EF02D0E94F43627
:1033000020936441309365414093664150936741F7
:10331000609368417093694180936A4190936B41D7
:10332000222D332D442D552D60E070E080E090E09B
:103330000E94F2362093CB413093CC414093CD4153
:103340005093CE416093CF417093D0418093D1414F
:103350009093D241F2C281E080932A4180917141E1
:10336000823009F435C130F4882369F0813009F4E2
:103370009DC0E1C2843009F44DC208F4BAC1853061
:1033800009F4D7C2D8C2E091CB41F091CC41E457C7
:10339000FF4B80818093CC408091C641882319F0F7
:1033A0001092C8400AC0E091A441F091A541E457B1
:1033B000FF4B80818F5F8093C8408091724188234A
:1033C00009F4B9C2809173418130A9F5F090A4410C
:1033D0000091A5411091A6418091A7418A838091D7
:1033E000A8418983B091A941F091AA41E091AB41F4
:1033F0002F2D302F412F5A81682F7B2F8F2F9E2FFB
:10340000A7E00E94883709F0B0F4A1E00E9473376A
:103410002093A4413093A5414093A6415093A741E6
:103420006093A8417093A9418093AA419093AB41C6
:103430001092734180C280917341833009F07BC246
:10344000F090A4410091A5411091A6418091A7411F
:103450008A838091A8418983B091A941F091AA41C2
:10346000E091AB412F2D302F412F5A81682F7B2FB8
:103470008F2F9E2FA1E00E94883709F008F45BC2CD
:10348000AFEF0E9473372093A4413093A54140933E
:10349000A6415093A7416093A8417093A94180939E
:1034A000AA419093AB411092734145C2E091A4416F
:1034B000F091A541E457FF4B80818F5F8093C84016
:1034C0008091C641882319F01092C74009C0E0914D
:1034D000D042F091D142E457FF4B80818093C740A6
:1034E00080917241882309F426C280917341813012
:1034F000A9F5F090D0420091D1421091D242809132
:10350000D3428A838091D4428983B091D542F0918D
:10351000D642E091D7422F2D302F412F5A81682F6C
:103520007B2F8F2F9E2FA8E00E94883709F0B0F4E0
:10353000A1E00E9473372093D0423093D142409350
:10354000D2425093D3426093D4427093D542809339
:10355000D6429093D74210927341EDC1809173414E
:10356000833009F0E8C1F090D0420091D14210912F
:10357000D2428091D3428A838091D4428983B09190
:10358000D542F091D642E091D7422F2D302F412FD6
:103590005A81682F7B2F8F2F9E2FA0E00E948837A3
:1035A00009F4C9C1AFEF0E9473372093D042309322
:1035B000D1424093D2425093D3426093D44270930D
:1035C000D5428093D6429093D74210927341B3C1B3
:1035D000E091D042F091D142E457FF4B808180933B
:1035E000C7408091C641882319F01092C64009C097
:1035F000E091BE41F091BF41E457FF4B8081809341
:10360000C64080917241882309F495C1809173412D
:103610008130A9F5F090BE410091BF411091C041A9
:103620008091C1418A838091C2418983B091C34115
:10363000F091C441E091C5412F2D302F412F5A8187
:10364000682F7B2F8F2F9E2FA8E00E94883709F0CC
:10365000B0F4A1E00E9473372093BE413093BF4184
:103660004093C0415093C1416093C2417093C341A4
:103670008093C4419093C541109273415CC1809185
:103680007341833009F057C1F090BE410091BF41B2
:103690001091C0418091C1418A838091C241898348
:1036A000B091C341F091C441E091C5412F2D302F1D
:1036B000412F5A81682F7B2F8F2F9E2FA0E00E94D1
:1036C000883709F438C1AFEF0E9473372093BE41A9
:1036D0003093BF414093C0415093C1416093C24178
:1036E0007093C3418093C4419093C541109273413C
:1036F00022C1E091BE41F091BF41E457FF4B808170
:103700008093C6408091C641882319F01092C5402D
:1037100009C0E0916441F0916541E457FF4B80811D
:103720008093C54080917241882309F404C180913F
:1037300073418130A9F5F090644100916541109189
:103740006641809167418A83809168418983B09105
:103750006941F0916A41E0916B412F2D302F412F4B
:103760005A81682F7B2F8F2F9E2FA8E00E948837C9
:1037700009F0B0F4A1E00E947337209364413093C4
:1037800065414093664150936741609368417093EF
:10379000694180936A4190936B4110927341CBC011
:1037A00080917341833009F0C6C0F090644100916C
:1037B000654110916641809167418A83809168419B
:1037C0008983B0916941F0916A41E0916B412F2D5D
:1037D000302F412F5A81682F7B2F8F2F9E2FA0E0F3
:1037E0000E94883709F4A7C0AFEF0E947337209377
:1037F00064413093654140936641509367416093C3
:1038000068417093694180936A4190936B41109233
:10381000734191C0E0916441F0916541E457FF4BE1
:1038200080818093C5408091C641882319F0109211
:10383000CC4009C0E091CB41F091CC41E457FF4B23
:1038400080818093CC4080917241882309F473C0B9
:10385000809173418130A9F5F090CB410091CC412A
:103860001091CD418091CE418A838091CF4189834F
:10387000B091D041F091D141E091D2412F2D302F24
:10388000412F5A81682F7B2F8F2F9E2FA8E00E94F7
:10389000883709F0B0F4A1E00E9473372093CB4140
:1038A0003093CC414093CD415093CE416093CF4172
:1038B0007093D0418093D1419093D2411092734143
:1038C0003AC0809173418330B1F5F090CB410091C3
:1038D000CC411091CD418091CE418A838091CF41DE
:1038E0008983B091D041F091D141E091D2412F2D07
:1038F000302F412F5A81682F7B2F8F2F9E2FA0E0D2
:103900000E948837C1F0AFEF0E9473372093CB41FC
:103910003093CC414093CD415093CE416093CF4101
:103920007093D0418093D1419093D24110927341D2
:1039300002C0109271410E94860C80912841811131
:103940000ACD6894AA24A4F80F2EF7E2BF2EF02D1A
:10395000C12CD12CE12CF12C00E010E02091A441ED
:103960003091A5414091A6415091A7416091A84155
:103970007091A9418091AA419091AB410E949936E2
:10398000622E732E842E952E6D8379838A839B837A
:10399000E091D0425090D1424090D2423090D342F8
:1039A0002090D4428091D5428C83B091D642A09190
:1039B000D7422E2F352D442D532D622D782F8B2F4E
:1039C0009A2F02E00E945137A22EB32EC42ED52E7C
:1039D000E62EF72EF82F192F05E00E9451370F2FF2
:1039E0000E947F37AE2EB52CC42CD32CE22CFC8049
:1039F0000B2F1A2F0E946A3703E00E945137A22E24
:103A0000B32EC42ED52EE62EF72E082F192F262DD5
:103A1000372D482D592D6D8179818A819B810E9496
:103A20006A37222E332E442E552E662E772E89830A
:103A30009A832091BE413091BF414091C041509145
:103A4000C1416091C2417091C3418091C441909144
:103A5000C54102E00E945137822E932E4C835B8336
:103A6000B62FA72FF82FE92F0E945137A22EB32E81
:103A7000C42ED52EE62EF72E082F192F282D392DDE
:103A80004C815B816B2F7A2F8F2F9E2F0E946A377C
:103A9000822E932E4C835B83B62FA72FF82FE92F0E
:103AA00002E00E945137A22EB32EC42ED52EE62E50
:103AB000F72E082F192F282D392D4C815B816B2F64
:103AC0007A2F8F2F9E2F0E946A37A22EB32EC42EDC
:103AD000D52EE62EF72E082F192F222D332D442D0B
:103AE000552D662D772D89819A810E946A37222E65
:103AF000332E442E552E662E772E89839A8320915D
:103B000064413091654140916641509167416091B7
:103B100068417091694180916A4190916B4101E0E7
:103B20000E945137822E932E4C835B83B62FA72F92
:103B3000F82FE92F02E00E945137A22EB32EC42E97
:103B4000D52EE62EF72E082F192F282D392D4C8132
:103B50005B816B2F7A2F8F2F9E2F0E946A37A22EA8
:103B6000B32EC42ED52EE62EF72E082F192F222D78
:103B7000332D442D552D662D772D89819A810E94F4
:103B80006A37A090CB41B090CC41C090CD41D0904D
:103B9000CE41E090CF41F090D0410091D1411091C1
:103BA000D2410E946A3720932B4130932C4140939D
:103BB0002D4150932E4160932F417093304180935B
:103BC000314190933241642F752F422F532F8CE057
:103BD00090E00E94AD0FE8E2F1E481E08083118281
:103BE0001282109271412596CDBFDEBFDF91CF9139
:103BF0001F910F91FF90EF90DF90CF90BF90AF900B
:103C00009F908F907F906F905F904F903F902F90FC
:103C10000895CF93DF93D2C0109252411092534136
:103C20001092504180917241882309F48EC0809196
:103C30007341813061F48091B3419091B441019618
:103C40008093B3419093B441109273410FC080911F
:103C50007341833059F48091B3419091B4410197FD
:103C60008093B3419093B441109273412091B3413A
:103C70003091B44133230CF1E1ECF0E41782C90137
:103C800064E670E00E942136DB01A457BF4B4C91E3
:103C90004683CAE0D0E0BE010E942136DB01A45772
:103CA000BF4B8C918583C901BE010E942136DC0186
:103CB000A457BF4B8C91848348C02195A1ECB0E4FC
:103CC00082E017968C93179789E22802812D1124A0
:103CD0008595859585958595922F990F990B891BCB
:103CE000E82F082E000CFF0BE457FF4B308116968F
:103CF0003C931697322F44E6849F3019112487E6AF
:103D00003802E12D1124E595E59537FDE3950E2E5A
:103D1000000CFF0BE457FF4B308115963C93159731
:103D20002802812D112485958595891B880F982F50
:103D3000990F990F890FE22FE81B0E2E000CFF0B35
:103D4000E457FF4B808114968C938091B3419091FE
:103D5000B4418093AD419093AE410E941F16A0E004
:103D6000B0E080933B4190933C41A0933D41B093A0
:103D70003E410097A105B105C9F0E8E3F1E44381B4
:103D80005481658176818091AD419091AE41092E3B
:103D9000000CAA0BBB0B840F951FA61FB71F8383B4
:103DA0009483A583B6830E94681406C0892B8A2B4E
:103DB0008B2B11F40E9468140E94860C809128417C
:103DC000882321F080912941811126CF6091B34150
:103DD0007091B4418AE090E00E94900FDF91CF9102
:103DE00008958F929F92AF92BF92CF92DF92EF92FF
:103DF000FF921092C94086E090E00E94550F6C013E
:103E0000E12CF12CC092B741D092B841E092B94177
:103E1000F092BA41C701B60128EE33E040E050E02D
:103E20000E9435362093F1400F2EF4E68F2E912C10
:103E3000A12CB12CF02DA50194010E9435362093C0
:103E4000AC41C701B601A50194010E9435360F2E81
:103E5000FAE08F2E912CA12CB12CF02DA50194010C
:103E60000E9435362093B641C701B601A5019401E1
:103E70000E94353660934F41FFC081E080932A4114
:103E800080917141823009F482C030F4882359F066
:103E9000813009F442C0EEC0833009F4B2C08430EE
:103EA00009F4E6C0E7C0E0914F41F0E0E457FF4B72
:103EB00080818093C5408091C641882319F010927B
:103EC000C84008C0E091F140F0E0E457FF4B80812A
:103ED0008093C84080917241882309F4CBC08091BF
:103EE0007341813051F48091F140811106C08F5FA0
:103EF0008093F14010927341BDC080917341833033
:103F000009F0B8C08091F140882309F4B3C0815012
:103F10008093F14010927341ADC0E091F140F0E028
:103F2000E457FF4B80818093C8408091C64188232D
:103F300019F01092C74008C0E091AC41F0E0E4579E
:103F4000FF4B80818093C74080917241882309F4A0
:103F500091C080917341813051F48091AC418530A2
:103F600030F48F5F8093AC411092734183C0809195
:103F70007341833009F07EC08091AC41882309F4FD
:103F800079C081508093AC411092734173C0E0912D
:103F9000AC41F0E0E457FF4B80818093C7408091B3
:103FA000C641882319F01092C64008C0E091B6417E
:103FB000F0E0E457FF4B80818093C64080917241CE
:103FC000882309F457C080917341813051F4809166
:103FD000B641893030F48F5F8093B64110927341BF
:103FE00049C080917341833009F044C08091B6414B
:103FF000882309F43FC081508093B64110927341E9
:1040000039C0E091B641F0E0E457FF4B80818093E6
:10401000C6408091C641882319F01092C54008C05F
:10402000E0914F41F0E0E457FF4B80818093C54021
:10403000809172418823F1F080917341813051F475
:1040400080914F41893030F48F5F80934F411092BF
:10405000734110C080917341833061F480914F416E
:10406000882341F0815080934F411092734102C0E8
:10407000109271410E94860C809128418111FDCEE1
:104080004091F14028EE33E0429FC001439F900DE4
:104090001124AC01990F660B770B8091AC4124E69B
:1040A000829FC0011124092E000CAA0BBB0B840FA8
:1040B000951FA61FB71F2091B64130E0B901660FCA
:1040C000771F220F331F220F331F220F331F620F60
:1040D000731FAB01770F660B770B840F951FA61F1D
:1040E000B71F20914F41BC01CD01620F711D811D91
:1040F000911D6093B7417093B8418093B9419093FB
:10410000BA4186E090E00E94900FE8E2F1E481E09D
:1041100080831182128210927141FF90EF90DF90A4
:10412000CF90BF90AF909F908F9008954CE062E049
:1041300080E00E94CF0543C0E1ECF0E417828AE101
:1041400082838AE281838EE1808316822091C84136
:104150008DEC289F812D1124869586958695A82F14
:10416000B0E0A457BF4B9C919583880F982F990F6F
:10417000990F890FA22FA81BB0E0A457BF4B8C91B9
:1041800084831086809172418823B9F080917341B5
:10419000813041F4243030F4220F2093C841109232
:1041A00073410BC080917341833039F4223028F081
:1041B00026952093C841109273410E94860C8091ED
:1041C0002841882321F0809129418111B5CF609148
:1041D000C84185E090E00E946D0F08954CE062E0D8
:1041E00080E00E94CF0543C0E1ECF0E4138280E65A
:1041F00082838AE781831082178216822091F94098
:104200008DEC289F812D1124869586958695A82F63
:10421000B0E0A457BF4B9C919583880F982F990FBE
:10422000990F890FA22FA81BB0E0A457BF4B8C9108
:1042300084831086809172418823B9F08091734104
:10424000813041F42C3330F42F5F2093F9401092E9
:1042500073410BC080917341833039F4222329F0DC
:1042600021502093F940109273410E94860C809156
:104270002841882321F0809129418111B5CF609197
:10428000F94084E090E00E946D0F08954F925F9294
:104290006F927F928F929F92AF92BF92CF92DF9256
:1042A000EF92FF920F931F93CF93DF9310922941C8
:1042B0004CE062E080E00E94CF0584E090E00E9444
:1042C0004B0F8093F94085E090E00E944B0F809364
:1042D000C84186E090E00E94550FA0E0B0E08093D6
:1042E000B7419093B841A093B941B093BA418CE0E3
:1042F00090E00E94600FDC01CB0180932B419093F2
:104300002C41A0932D41B0932E4110922F41109239
:104310003041109231411092324188E090E00E9489
:10432000550F80932141909322418AE090E00E94B2
:10433000550F8093B3419093B4414090B741509052
:10434000B8416090B9417090BA41C301B20128EE02
:1043500033E040E050E00E9435362093F1400F2ECC
:10436000F4E68F2E912CA12CB12CF02DA5019401F7
:104370000E9435362093AC41C301B201A5019401DE
:104380000E9435360F2EFAE08F2E912CA12CB12CE5
:10439000F02DA50194010E9435362093B641C3014A
:1043A000B201A50194010E94353660934F414090BF
:1043B0002B4150902C4160902D4170902E41809067
:1043C0002F4190903041D0913141C0913241689459
:1043D000AA24A4F80F2EF7E2BF2EF02DC12CD12C69
:1043E000E12CF12C00E010E0242D352D462D572D29
:1043F000682D792D8D2F9C2F0E94F4362093A44197
:104400003093A5414093A6415093A7416093A841A2
:104410007093A9418093AA419093AB41242D352DEF
:10442000462D572D682D792D8D2F9C2F0E94F23609
:104430000F2EF8EEAF2EF02D0F2EF3E0BF2EF02D45
:104440000E94F4362093D0423093D1424093D2421E
:104450005093D3426093D4427093D5428093D64216
:104460009093D742242D352D462D572D682D792D2B
:104470008D2F9C2F0E94F2360F2EF4E6AF2EF02DDA
:10448000B12C0E94F4362093BE413093BF4140933B
:10449000C0415093C1416093C2417093C341809326
:1044A000C4419093C541242D352D462D572D682D9F
:1044B000792D8D2F9C2F0E94F2360F2EFAE0AF2E11
:1044C000F02D0E94F436209364413093654140936F
:1044D000664150936741609368417093694180934E
:1044E0006A4190936B41242D352D462D572D682D13
:1044F000792D8D2F9C2F0E94F2362093CB41309343
:10450000CC414093CD415093CE416093CF417093C5
:10451000D0418093D1419093D2412091214130915B
:104520002241C90160E177E20E9421366093234174
:10453000E8EEF3E0BF010E9421366093C741C90154
:10454000BF010E942136E4E6F0E0BF010E9421365F
:1045500060932441C901BF010E942136EAE0F0E0E6
:10456000BF010E94213660930341C901BF010E942F
:1045700021368093B241C1E09DC180917241882370
:1045800099F080917341813031F4C73020F4CF5FCE
:104590001092734109C080917341833029F4CC2378
:1045A00019F0C15010927341EC2FF0E0E457FF4B2B
:1045B00080818093C9408C2F90E08830910508F06D
:1045C00077C1FC01E058FC4F0C947636E1ECF0E446
:1045D0001382128280E681838AE7808317821682A3
:1045E0004091F9408DEC489F812D11248695869548
:1045F0008695282F30E024573F4BD9019C91958315
:10460000880F982F990F990F890FA42FA81BB0E03E
:10461000A457BF4B8C9184831386809129418823B2
:1046200009F446C10E94EE2043C1E1ECF0E413829C
:104630008AE182838AE281838EE1808317821682F7
:104640004091C8418DEC489F812D11248695869517
:104650008695282F30E024573F4BD9019C919583B4
:10466000880F982F990F990F890FA42FA81BB0E0DE
:10467000A457BF4B8C918483138680912941882352
:1046800009F416C10E94962013C1E1ECF0E48CE914
:1046900083838AEF82839EEC91838083A091F14093
:1046A000B0E0A457BF4B8C918783A091AC41B0E0A0
:1046B000A457BF4B8C918683A091B641B0E0A4571C
:1046C000BF4B8C918583A0914F41B0E0A457BF4B65
:1046D0008C918483138680912941882309F4E8C052
:1046E0000E94F11EE5C0E1ECF0E4138212828AE040
:1046F00081838AE38083A091A441B091A541A4570E
:10470000BF4B8C918F5F8783A091D042B091D142F3
:10471000A457BF4B8C918683A091BE41B091BF41FD
:10472000A457BF4B8C918583A0916441B0916541A2
:10473000A457BF4B8C918483A091CB41B091CC41C5
:10474000A457BF4B8C91838780912941882309F41A
:10475000AFC00E94D518ACC0E1ECF0E480E68383E2
:104760008CEE828382E0818386EB8083A09123415B
:10477000B0E0A457BF4B8C918783A091C741B0E0B4
:10478000A457BF4B8C918F5F8683A0912441B0E0EA
:10479000A457BF4B8C918583A0910341B0E0A457EF
:1047A000BF4B8C918483A091B241B0E0A457BF4B22
:1047B0008C91838780912941882309F479C00E94D4
:1047C0001F1776C0E1ECF0E486EB83838AE18283F5
:1047D0008AEF818380E680832091B3413091B44198
:1047E0003323FCF01782C90164E670E00E94213691
:1047F000DB01A457BF4B4C9146830AE010E0B8019F
:104800000E942136DB01A457BF4B8C918583C901DF
:10481000B8010E942136DC01A457BF4B8C918483E0
:104820003BC02195A1ECB0E482E017968C931797DA
:1048300089E2289F812D112482958F70E82FF0E066
:10484000E457FF4B908116969C931697E22F94E6BF
:10485000899FE01911248DECE89FE12D1124E69544
:10486000E695E695F0E0E457FF4B908115969C9312
:104870001597289F812D1124869586958695880FFA
:10488000982F990F990F890F281BE22FF0E0E4571A
:10489000FF4B808114968C931092CC4080912941DB
:1048A000882331F00E94091E03C0C1E001C0C6E0A8
:1048B0000E94860C8091284181115FCEDF91CF91BB
:1048C0001F910F91FF90EF90DF90CF90BF90AF902E
:1048D0009F908F907F906F905F904F9008951BBE38
:1048E000FC0164BF40830895682F88E60E94261467
:1048F000982F92959F70990F292F220F220F920FB8
:104900008F70890F0895CF93DF9386E00E947424FF
:10491000CCE5D1E48E8385E00E9474248D8384E00D
:104920000E9474248C8383E00E9474248B8382E031
:104930000E9474248A8381E00E947424898380E029
:104940000E9474248883DF91CF9108959DEC699F24
:10495000912D112496959695969520E1929FA00110
:104960001124990F292F220F220F920F691B6F70AC
:10497000462B682F88E60E94E2130895962F482F51
:1049800050E04730510518F5FA01E857FC4F0C94F8
:1049900076369C33E8F090E01BC09C33C8F090E082
:1049A00017C09831A8F090E013C02FEF290F2730DF
:1049B00078F091E00DC0903258F091E009C09D3040
:1049C00038F091E005C0911103C095E101C090E07D
:1049D000692F0E94A6240895CF93DF931092294156
:1049E0004CE062E080E00E94CF050E948324CCE589
:1049F000D1E4AE818DECA89F912D112496959695CA
:104A00009695E92FF0E0E457FF4B2081E1ECF0E4CC
:104A10002383990F292F220F220F920FA91BB0E099
:104A2000A457BF4B9C9192834D81489F912D112497
:104A3000969596959695292F30E024573F4BD901AE
:104A40002C912183990F292F220F220F920FA42F2F
:104A5000A91BB0E0A457BF4B9C9190834C81489F09
:104A6000912D1124969596959695292F30E02457EF
:104A70003F4BD9012C912783990F292F220F220F09
:104A8000920FA42FA91BB0E0A457BF4B9C91968313
:104A90004A81489F912D1124969596959695292F98
:104AA00030E024573F4BD9012C912583990F292FB2
:104AB000220F220F920FA42FA91BB0E0A457BF4BC7
:104AC0009C9194834981489F912D112496959695A8
:104AD0009695292F30E024573F4BD9012C912387FD
:104AE000990F292F220F220F920FA42FA91BB0E09C
:104AF000A457BF4B9C919287A881A89F812D112418
:104B0000869586958695C82FD0E0C457DF4B98814F
:104B10009187880F982F990F990F890FA81BB0E0E4
:104B2000A457BF4B8C9180878AC281E080932A4131
:104B3000E09171418E2F90E08730910508F07DC2A1
:104B4000FC01E157FC4F0C947636E0915C418DEC12
:104B5000E89F812D1124869586958695A82FB0E033
:104B6000A457BF4B9C91A1ECB0E419969C93199764
:104B7000880F982F990F990F890FE81BF0E0E457E1
:104B8000FF4B808118968C9318978091C64188239B
:104B900021F0FD01138212821FC0E09162418DEC71
:104BA000E89F812D1124869586958695A82FB0E0E3
:104BB000A457BF4B9C91A1ECB0E413969C93139720
:104BC000880F982F990F990F890FE81BF0E0E45791
:104BD000FF4B808112968C9380917241882309F457
:104BE0002CC280917341813051F4809162418336AF
:104BF00030F48F5F80936241109273411EC28091A6
:104C00007341833009F019C280916241882309F40D
:104C100014C2815080936241109273410EC2E091A0
:104C200062418DECE89F812D1124869586958695AD
:104C3000A82FB0E0A457BF4B9C91A1ECB0E4139611
:104C40009C931397880F982F990F990F890FE81B42
:104C5000F0E0E457FF4B808112968C93129780917D
:104C6000C641882321F0FD01118210821EC0E0910F
:104C700061418DECE89F812D11248695869586955E
:104C8000A82FB0E0A457BF4B9C91A1ECB0E41196C3
:104C90009C931197880F982F990F990F890FE81BF4
:104CA000F0E0E457FF4B80818C9380917241882320
:104CB00009F4C3C180917341813051F48091614105
:104CC0008C3030F48F5F8093614110927341B5C195
:104CD00080917341833009F0B0C18091614182308D
:104CE00008F4ABC181508093614110927341A5C11A
:104CF000E09161418DECE89F812D11248695869588
:104D00008695A82FB0E0A457BF4B9C91A1ECB0E4CE
:104D100011969C931197880F982F990F990F890FCF
:104D2000E81BF0E0E457FF4B80818C938091C641F3
:104D3000882321F0FD01178216821FC0E091604197
:104D40008DECE89F812D1124869586958695A82F58
:104D5000B0E0A457BF4B9C91A1ECB0E417969C9394
:104D60001797880F982F990F990F890FE81BF0E07C
:104D7000E457FF4B808116968C9380917241882373
:104D800009F45BC180917341813051F4809160419D
:104D90008F3130F48F5F80936041109273414DC129
:104DA00080917341833009F048C180916041823025
:104DB00008F443C1815080936041109273413DC11A
:104DC000E09160418DECE89F812D112486958695B8
:104DD0008695A82FB0E0A457BF4B9C91A1ECB0E4FE
:104DE00017969C931797880F982F990F990F890FF3
:104DF000E81BF0E0E457FF4B808116968C931697E2
:104E00008091C641882321F0FD01158214821FC0C4
:104E1000E0915E418DECE89F812D11248695869569
:104E20008695A82FB0E0A457BF4B9C91A1ECB0E4AD
:104E300015969C931597880F982F990F990F890FA6
:104E4000E81BF0E0E457FF4B808114968C9380912F
:104E50007241882309F4F1C080917341813051F48B
:104E600080915E41873130F48F5F80935E41109274
:104E70007341E3C080917341833009F0DEC08091BB
:104E80005E41882309F4D9C0815080935E4110921D
:104E90007341D3C0E0915E418DECE89F812D1124D8
:104EA000869586958695A82FB0E0A457BF4B9C9118
:104EB000A1ECB0E415969C931597880F982F990F45
:104EC000990F890FE81BF0E0E457FF4B808114969F
:104ED0008C9314978091C641882321F0FD0113869D
:104EE00012861FC0E0915D418DECE89F812D112459
:104EF000869586958695A82FB0E0A457BF4B9C91C8
:104F0000A1ECB0E41B969C931B97880F982F990FE8
:104F1000990F890FE81BF0E0E457FF4B80811A9648
:104F20008C9380917241882309F487C080917341EA
:104F3000813051F480915D418B3330F48F5F8093E9
:104F40005D411092734179C080917341833009F0C3
:104F500074C080915D41882309F46FC081508093B3
:104F60005D411092734169C0E0915D418DECE89F15
:104F7000812D1124869586958695A82FB0E0A4579B
:104F8000BF4B9C91A1ECB0E41B969C931B97880FA0
:104F9000982F990F990F890FE81BF0E0E457FF4B0A
:104FA00080811A968C931A978091C641882321F0AC
:104FB000FD01118610861FC0E0915C418DECE89FD9
:104FC000812D1124869586958695A82FB0E0A4574B
:104FD000BF4B9C91A1ECB0E419969C931997880F54
:104FE000982F990F990F890FE81BF0E0E457FF4BBA
:104FF000808118968C93809172418823F1F0809182
:105000007341813051F480915C418B3330F48F5F78
:1050100080935C411092734110C080917341833042
:1050200061F480915C41882341F0815080935C4120
:105030001092734102C0109271410E94860C8091BF
:105040002841811172CDCCE5D1E46E8186E00E94C9
:10505000BE246D8185E00E94BE246C8184E00E94A4
:10506000BE246A8182E00E94BE24698181E00E94A0
:10507000BE24688180E00E94BE24DF91CF91089514
:1050800080E00895E0E4FAE081E0828787E490E040
:1050900086A397A38FE0808380E00895E0E2F8E0A4
:1050A00080E098E18087918784E9858380EC86831E
:1050B00080E008959091240895FFFCCF809322080A
:1050C00081E090E00895E0E6F8E080E098E18087F4
:1050D000918784E9858380EC868380E008959091B0
:1050E000640895FFFCCF8093620881E090E008950A
:1050F0000F931F93CF93DF938C01C0E0D0E007C0E4
:10510000F801EC0FFD1F80810E946F282196F801A5
:1051100001900020E9F73197E01BF10BCE17DF0774
:1051200078F3DF91CF911F910F9108958AEFE4ED0D
:10513000F1E4DF011D928A95E9F71092BD410895CF
:105140004AE068ED80E091E00E946F2480E00895DD
:10515000CF93C0E0C130A1F028F0C23069F1C33074
:1051600081F133C089E990E40E9478282FEF8FEF16
:105170009CE2215080409040E1F700C0000025C033
:105180008DE990E40E94782880916E41805D0E94B4
:105190006F288091F340805D0E946F2880912641A6
:1051A000805D0E946F2880910141805D0E946F2880
:1051B0008DE00E946F2809C082EA90E40E9478285E
:1051C00004C088EA90E40E94782880E09DC0C11164
:1051D00025C0282F30E0F901EC52FE4B90819F341E
:1051E000E9F4F901EB52FE4B90819B34B9F4F901DB
:1051F000EA52FE4B90819D3089F483E090E00E945A
:105200003B042FEF8FE392E0215080409040E1F784
:1052100000C000000E949628C1E079C0C13029F585
:10522000282F30E0F901EC52FE4B90819F34E9F4D5
:10523000F901EB52FE4B90819B34B9F4F901EA522B
:10524000FE4B90819D3089F483E090E00E943B0406
:105250002FEF8FE392E0215080409040E1F700C0B3
:1052600000000E949628C2E052C0C23029F5282FC3
:1052700030E0F901EC52FE4B90819F34E9F4F901E2
:10528000EB52FE4B90819B34B9F4F901EA52FE4B8C
:1052900090819D3089F483E090E00E943B042FEFE1
:1052A0008FE392E0215080409040E1F700C0000081
:1052B0000E949628C3E02BC0C33029F5282F30E088
:1052C000F901EC52FE4B90819F34E9F4F901EB5265
:1052D000FE4B90819B34B9F4F901EA52FE4B908168
:1052E0009D3089F483E090E00E943B042FEF8FE330
:1052F00092E0215080409040E1F700C000000E9401
:105300009628C5E004C08F5F8A3F08F460CF0E94F2
:10531000860CC53009F01ECFCF9108956F927F9211
:105320008F929F92BF92CF92DF92EF92FF920F9354
:105330001F93CF93DF934CE062E081E00E94CF05A2
:105340008090AF419090B0419401329522952F709A
:1053500023273F702327A7E4B3E00E947F366C0128
:10536000D694C794D694C794D694C794DC2D20E1E4
:1053700037E2C29EC001C39E900DD29E900D1124B3
:105380009401281B390B3695279536952795369528
:105390002795A5ECB0E20E947F367C01F694E79455
:1053A000F694E794F694E794F694E794BE2C94016F
:1053B0003695279536952795369527950E947F3601
:1053C000929582958F7089279F70892748EE53E0C8
:1053D000849F9001859F300D949F300D1124C4014E
:1053E000821B930B9C013695279536952795ABE745
:1053F000B4E10E947F363C0176946794062D9401B7
:1054000036952795369527950E947F369C013695CF
:10541000279544E6429FC001439F900D11249401BB
:10542000281B390BADECBCEC0E947F36AC015695C5
:1054300047955695479556954795C42F94010E94D8
:105440007F369695879596958795969587959C0135
:10545000220F331F880F991F880F991F880F991FDC
:10546000820F931F9401281B390BC901122FD601FB
:10547000A457BF4B2C91A1ECB0E417962C9317972F
:105480009701332724573F4BF901208116962C931F
:105490001697F301FF27E457FF4B208115962C93B5
:1054A00015975527FA01E457FF4B208114962C934A
:1054B00014979927FC01E457FF4B80811B968C932E
:1054C00077C181E080932A4180917141823009F453
:1054D00089C028F4882361F08130D1F167C184301C
:1054E00009F418C108F4C9C0853009F45DC15EC172
:1054F000E12FF0E0E457FF4B80818093CC40809116
:10550000C641882319F01092C84007C0ED2FF0E083
:10551000E457FF4B80818093C8408091724188237B
:1055200009F444C180917341813031F4D63020F4C4
:10553000DF5F109273413AC180917341833009F06B
:1055400035C1DD2309F432C1D150109273412EC10F
:10555000ED2FF0E0E457FF4B80818093C8408091AD
:10556000C641882319F01092C74007C0EB2DF0E028
:10557000E457FF4B80818093C7408091724188231C
:1055800009F414C1D630B8F080917341813039F4F8
:10559000F4E0FB1520F0B3941092734107C18091A1
:1055A0007341833009F002C1BB2009F4FFC0BA94F3
:1055B00010927341FBC080917341813039F428E02F
:1055C0002B1520F0B39410927341F0C08091734179
:1055D000833009F0EBC0BB2009F4E8C0BA94109204
:1055E0007341E4C0EB2DF0E0E457FF4B80818093E2
:1055F000C7408091C641882319F01092C64007C069
:10560000E02FF0E0E457FF4B80818093C64080910B
:105610007241882309F4CAC0D630C8F034E03B1583
:10562000B0F480917341813031F4053020F40F5F84
:1056300010927341BBC080917341833009F0B6C0B2
:10564000002309F4B3C0015010927341AFC08091A0
:105650007341813031F4093020F40F5F10927341AF
:10566000A5C080917341833009F0A0C0002309F4E4
:105670009DC001501092734199C0E02FF0E0E457B3
:10568000FF4B80818093C6408091C641882319F0EA
:105690001092C54007C0EC2FF0E0E457FF4B80812B
:1056A0008093C54080917241882309F47FC0D63031
:1056B000D8F044E04B15C0F40530B0F08091734150
:1056C000813031F4C33020F4CF5F109273416EC04B
:1056D00080917341833009F069C0CC2309F466C01E
:1056E000C1501092734162C080917341813031F496
:1056F000C93020F4CF5F1092734158C0809173413C
:10570000833009F053C0CC2309F450C0C15010922B
:1057100073414CC0EC2FF0E0E457FF4B8081809345
:10572000C5408091C641882319F01092CC4007C033
:10573000E12FF0E0E457FF4B80818093CC408091D3
:105740007241882399F1D630D8F084E08B15C0F4EB
:105750000530B0F0C330A0F080917341813031F456
:10576000153020F41F5F1092734120C08091734167
:105770008330E1F41123D1F011501092734116C01F
:1057800080917341813031F4193020F41F5F109201
:1057900073410CC080917341833041F4112331F087
:1057A00011501092734102C0109271410E94860CF8
:1057B00080912841811185CE20E137E2D29FC0013E
:1057C000D39F900D112448EE53E0B49E9001B59EF6
:1057D000300D1124820F931F9C01E4E60E9F200DD3
:1057E000311D1124D0E0CE01880F991FCC0FDD1F91
:1057F000CC0FDD1FCC0FDD1F8C0F9D1F820F931F61
:10580000810F911D8093AF419093B041292F229534
:105810002F7020936E4110926F419C013F70309326
:10582000F3401092F4409C013327329522952F705B
:1058300023273F70232720932641309327418F70E1
:10584000992780930141909302410E94A828E8E2A1
:10585000F1E481E080831182128210927141DF9124
:10586000CF911F910F91FF90EF90DF90CF90BF905D
:105870009F908F907F906F900895CF93C0E0C1303C
:10588000A1F028F0C230D1F1C330E9F140C089E97C
:1058900090E40E9478282FEF8FEF9CE22150804007
:1058A0009040E1F700C0000032C08EEA90E40E9410
:1058B0007828E0910041F0E0EE0FFF1FE65DFF4B1E
:1058C00080819181992314F481509F4F892F0E94E8
:1058D0006F28E0910041F0E0EE0FFF1FE65DFF4B07
:1058E00080819181907899231CF401979F6F019694
:1058F0000E946F288DE00E946F2809C082EA90E420
:105900000E94782804C088EA90E40E94782880E009
:105910009DC0C11125C0282F30E0F901EC52FE4B8B
:1059200090819F34E9F4F901EB52FE4B90819B3456
:10593000B9F4F901EA52FE4B90819D3089F483E07D
:1059400090E00E943B042FEF8FE392E021508040D3
:105950009040E1F700C000000E949628C1E079C0A5
:10596000C13029F5282F30E0F901EC52FE4B90812F
:105970009F34E9F4F901EB52FE4B90819B34B9F46A
:10598000F901EA52FE4B90819D3089F483E090E06A
:105990000E943B042FEF8FE392E021508040904023
:1059A000E1F700C000000E949628C2E052C0C23059
:1059B00029F5282F30E0F901EC52FE4B90819F34FD
:1059C000E9F4F901EB52FE4B90819B34B9F4F901F3
:1059D000EA52FE4B90819D3089F483E090E00E9472
:1059E0003B042FEF8FE392E0215080409040E1F79D
:1059F00000C000000E949628C3E02BC0C33029F5E8
:105A0000282F30E0F901EC52FE4B90819F34E9F4ED
:105A1000F901EB52FE4B90819B34B9F4F901EA5243
:105A2000FE4B90819D3089F483E090E00E943B041E
:105A30002FEF8FE392E0215080409040E1F700C0CB
:105A400000000E949628C5E004C08F5F8A3F08F4DA
:105A500060CF0E94860CC53009F011CFCF91089518
:105A60004CE062E082E00E94CF053DC02091004101
:105A70008DEC289F812D1124869586958695E82F9B
:105A8000F0E0E457FF4B9081A1ECB0E415969C93B5
:105A90001597880F982F990F990F890FE22FE81B00
:105AA000F0E0E457FF4B808114968C938091724113
:105AB0008823B9F080917341813041F42E3030F465
:105AC0002F5F20930041109273410BC0809173416E
:105AD000833039F4222329F0215020930041109281
:105AE00073410E94860C80912941882321F0809186
:105AF00028418111BBCF0E943D2C0895CF93C0E077
:105B0000C130A1F028F0C230B1F0C330C9F01CC0E0
:105B100089E990E40E9478282FEF8FEF9CE22150D2
:105B200080409040E1F700C000000EC083EB90E49D
:105B30000E94782809C089EB90E40E94782804C06C
:105B400088EA90E40E94782880E030C1C11125C025
:105B5000282F30E0F901EC52FE4B90819F34E9F49C
:105B6000F901EB52FE4B90819B34B9F4F901EA52F2
:105B7000FE4B90819D3089F483E090E00E943B04CD
:105B80002FEF8FE392E0215080409040E1F700C07A
:105B900000000E949628C1E00CC1C13009F04EC03F
:105BA000282F30E0F901EC52FE4B90819D3009F036
:105BB00045C0813019F0823049F02FC0F901ED5213
:105BC000FE4B808183548093004127C0F901ED5240
:105BD000FE4B80818A3388F4F901EE52FE4B20811E
:105BE00030E020533109220F922F990F990F290F7E
:105BF000820F86538093004110C0F901EE52FE4B94
:105C0000208130E020533109220F922F990F990FF4
:105C1000290F820F8D538093004183E090E00E9412
:105C20003B042FEF8FE392E0215080409040E1F75A
:105C300000C000000E949628C2E0BBC0C23009F03C
:105C40008DC0282F30E0F901EC52FE4B90819D3041
:105C500009F084C08230A9F018F4813039F06DC0A9
:105C6000833021F1843009F440C067C0F901ED525E
:105C7000FE4B808190E0C097809301419093024158
:105C80005CC0F901EE52FE4B808190E0C09780939A
:105C9000264190932741F901ED52FE4B808190E01F
:105CA000C097809301419093024147C0F901EF52A0
:105CB000FE4B808190E0C0978093F3409093F44036
:105CC000F901EE52FE4B808190E0C097809326410F
:105CD00090932741F901ED52FE4B808190E0C097EF
:105CE000809301419093024128C0F901E053FE4B9B
:105CF000808190E0C09780936E4190936F41F9014D
:105D0000EF52FE4B808190E0C0978093F3409093D8
:105D1000F440F901EE52FE4B808190E0C0978093F1
:105D2000264190932741F901ED52FE4B808190E08E
:105D3000C097809301419093024183E090E00E94DC
:105D40003B042FEF8FE392E0215080409040E1F739
:105D500000C000000E949628C3E02BC0C33029F584
:105D6000282F30E0F901EC52FE4B90819F34E9F48A
:105D7000F901EB52FE4B90819B34B9F4F901EA52E0
:105D8000FE4B90819D3089F483E090E00E943B04BB
:105D90002FEF8FE392E0215080409040E1F700C068
:105DA00000000E949628C5E004C08F5F8A3F08F477
:105DB000CDCE0E94860CC53009F0A2CECF910895B9
:105DC000EF92FF920F931F93CF93109229414CE0D3
:105DD00062E080E00E94CF050E947E2DC1E049C1B3
:105DE00080917241882399F080917341813031F420
:105DF000C33020F4CF5F1092734109C0809173418A
:105E0000833029F4CC2319F0C15010927341EC2F48
:105E1000F0E0E457FF4B80818093C940C13041F0EE
:105E200008F424C1C230B9F1C33009F41DC11FC147
:105E3000E1ECF0E48AED838382E082838AE181836E
:105E40008EE2808317821682409100418DEC489F3C
:105E5000812D1124869586958695282F30E024572C
:105E60003F4BD9019C919583880F982F990F990FDB
:105E7000890FA42FA81BB0E0A457BF4B8C9184833B
:105E800013861286118680912941882309F4EFC078
:105E90000E94302DECC0E1ECF0E48AED838382E0D7
:105EA000828380E681838AE7808340916E415091AE
:105EB0006F4142955295507F5427407F54278091DF
:105EC000F3409091F440480F591F42955295507FEE
:105ED0005427407F54278091264190912741480FB5
:105EE000591F42955295507F5427407F54278091E7
:105EF000014190910241480F591F4093AF41509387
:105F0000B0417A01F694E794F694E794F694E79416
:105F1000F694E7949701A7E4B3E00E947F368C01E2
:105F2000169507951695079516950795D801A457C8
:105F3000BF4B8C91878320E137E2029FC001039F12
:105F4000900D129F900D11249A01281B390B369544
:105F500027953695279536952795A5ECB0E20E94B2
:105F60007F36929582958F7089279F708927DC01F3
:105F7000A457BF4B8C9186839A0136952795369509
:105F8000279536952795A5ECB0E20E947F3692952D
:105F900082958F7089279F70892768EE73E0869FAE
:105FA0009001879F300D969F300D1124CA01821BEE
:105FB000930B9C013695279536952795ABE7B4E171
:105FC0000E947F3696958795DC01A457BF4B8C9134
:105FD00085839A013695279536952795ABE7B4E1E9
:105FE0000E947F369C013695279564E6629FC0012A
:105FF000639F900D11249A01281B390BADECBCEC6A
:106000000E947F3696958795969587959695879564
:10601000DC01A457BF4B8C9184839A01ADECBCEC9E
:106020000E947F3696958795969587959695879544
:106030009C01220F331F880F991F880F991F880F0B
:10604000991F820F931F9A01281B390BD901A4575E
:10605000BF4B8C91838712861186809129418823BA
:1060600031F00E948E2903C0C1E001C0C2E00E944D
:10607000860C809128418111B3CECF911F910F9151
:10608000FF90EF9008955058BB27AA270E945B30DD
:106090000C94D5310E94C73138F00E94CE3120F0E7
:1060A00039F49F3F19F426F40C94C4310EF4E095B2
:1060B000E7FB0C94BE31E92F0E94E63158F3BA1782
:1060C000620773078407950720F079F4A6F50C940E
:1060D00008320EF4E0950B2EBA2FA02D0B01B9015A
