:100600000C9417040C9436040C9436040C943604A1
:100610000C9436040C9436040C9436040C94360472
:100620000C9436040C9436040C9436040C94360462
:100630000C9436040C9436040C9436040C94360452
:100640000C9436040C9436040C9436040C94360442
:100650000C9436040C9436040C9436040C94360432
:100660000C9436040C9436040C9436040C94360422
:100670000C9436040C9436040C9436040C94430405
:100680000C9436040C9436040C9436040C94360402
:100690000C9436040C9436040C9436040C943604F2
:1006A0000C9436040C9436040C9436040C94A11764
:1006B0000C9436040C9436040C949B040C9436046D
:1006C0000C9436040C9436040C9436040C943604C2
:1006D0000C946F040C9436040C9436040C94360479
:1006E0000C9436040C9436040C9436040C943604A2
:1006F0000C9436040C9436040C9436040C94360492
:100700006E31313061309230C130FB3036316C3176
:10071000633267326B326F32753279327D323F33FA
:10072000A93312347A34E4344E35B5356E616E0037
:10073000696E660000407A10F35A00A0724E1809E4
:100740000010A5D4E80000E87648170000E40B5438
:10075000020000CA9A3B000000E1F5050000809607
:100760009800000040420F000000A0860100000039
:10077000102700000000E8030000000064000000F3
:1007800000000A00000000000100000000002C76BC
:10079000D888DC674F0823DFC1DFAE59E1B1B796D7
:1007A000E5E3E453C63AE651997696E8E6C2842634
:1007B000EB898C9B62ED407C6FFCEFBC9C9F40F210
:1007C000BAA56FA5F490055A2AF75C936B6CF9678C
:1007D0006DC11BFCE0E40D47FEF520E6B500D0ED51
:1007E000902E0300943577050080841E08000020B9
:1007F0004E0A000000C80C333333330F986E128357
:100800001141EF8D2114893BE65516CFFEE6DB182A
:10081000D1844B381BF77C1D901DA4BBE4242032EF
:1008200084725E228100C9F124ECA1E53D271124E8
:100830001FBECFEFCDBFDFE7DEBF11E4A0E0B0E425
:10084000EAE6F1E900E00BBF02C007900D92AE3678
:10085000B107D9F724E4AEE6B1E401C01D92A0329D
:10086000B207E1F70E9420110C94B3480C940003E6
:100870000E9435130895E4E0F4E090819260908343
:100880008093A14208951F920F920FB60F921124E8
:100890000BB60F928F939F93EF93FF938091240851
:1008A0008823E4F78091D541E82FF0E0909120086B
:1008B000EF51FE4B9083893110F01092D541809119
:1008C000D5418F5F8093D541FF91EF919F918F919B
:1008D0000F900BBE0F900FBE0F901F9018951F9298
:1008E0000F920FB60F9211240BB60F928F939F9316
:1008F000EF93FF93809164088823E4F78091A742E7
:10090000E82FF0E090916008E951FD4B90838A3F19
:1009100010F01092A7428091A7428F5F8093A74268
:10092000FF91EF919F918F910F900BBE0F900FBE93
:100930000F901F9018951F920F920FB60F921124CF
:100940000BB60F922F933F934F935F936F937F93C9
:100950008F939F93AF93BF93EF93FF9381E0809327
:100960004B0A0E944F050E94EF0580915D42811164
:1009700005C0E0E8F2E41182128205C0EDE5F2E480
:100980008081815080838091A142811106C0E4E082
:10099000F4E080818D7F808303C081508093A142E9
:1009A000EDE5F2E4818192810196818392838181D8
:1009B0009281803D974020F0E5E0F2E410821182C0
:1009C000EDE5F2E4838194810196838394838581AC
:1009D000968101968583968387819085019687838A
:1009E00090878185928501968187928780911042B8
:1009F0008F5F80931042833348F081E09091B04242
:100A0000911180E08093B04210921042FF91EF91DB
:100A1000BF91AF919F918F917F916F915F914F9116
:100A20003F912F910F900BBE0F900FBE0F901F9014
:100A30001895CF93C82F80917F42813019F48C2F65
:100A40000E94F43580917F42833019F48C2F0E94EC
:100A5000093680E090E0CF9108958EE08093000405
:100A60008DE08093200485E580934004109260041B
:100A7000109280048CE08093A00487EF8093C004E0
:100A800010920404109224041092440410926404FE
:100A9000109284041092A4041092C404089532E0C9
:100AA0002FC0E4ECF4E080818D7F808380916E41E3
:100AB00094E03902F0011124E159FE4BE80FF11DD9
:100AC000808190E0022E02C0959587950A94E2F706
:100AD00080FF06C0E4ECF4E080818460808305C080
:100AE000E4ECF4E080818B7F8083E4ECF4E08081AF
:100AF000826080832F5F01C020E0283090F2315067
:100B00003323D4F7E4ECF4E080818160808380813A
:100B10008E7F808380916E418130A9F028F08230F1
:100B200009F1833071F13BC0E4ECF4E080818F7E09
:100B3000808380818F7D808380818F7B8083808193
:100B4000806880832CC0E4ECF4E080818F7E808319
:100B500080818F7D808380818064808380818F7796
:100B600080831DC0E4ECF4E080818F7E80838081EF
:100B70008062808380818F7B808380818F77808378
:100B80000EC0E4ECF4E080818061808380818F7D01
:100B9000808380818F7B808380818F778083809129
:100BA0006E418F5F80936E41843010F010926E41E1
:100BB000089512C0E82FF0E0A42FB0E0A55CBE4B72
:100BC0009C91EE0FFF1FEE0FFF1FE159FE4B938329
:100BD0009283918390838F5F681760F70895809167
:100BE00081428111A0C08091080484FD0DC08AE07B
:100BF00090E00E943B04E0E8F2E481E0828381839C
:100C000010925E4210925F428091080485FD0EC0F2
:100C10008AE090E00E943B04E0E8F2E482E0828314
:100C200081E0818310925E4210925F4280910804BD
:100C300086FD0EC08AE090E00E943B04E0E8F2E40A
:100C400083E0828381E0818310925E4210925F4252
:100C500080910804882374F08AE090E00E943B04AD
:100C6000E0E8F2E484E0828381E0818310925E42D6
:100C700010925F4280918242843051F4809105420B
:100C8000882319F01092054203C081E08093054249
:100C900080910542882391F080918242823071F4E4
:100CA0008091074281110AC080910642882319F081
:100CB0001092064203C081E0809306428091054273
:100CC000882391F080918242823071F480910742B2
:100CD000882351F0E0E8F2E480818F5F8083808197
:100CE000863010F010928042E0E8F2E49381828135
:100CF000981311C080918442823020F084E1809367
:100D00005D42089582E380935D42E0E8F2E48481ED
:100D10008F5F8483089582E380935D42E0E8F2E48C
:100D20008281838314820895CF92DF92EF92FF92A3
:100D300081E090E00E944A1380937C4281508C3382
:100D400040F081E080937C4261E081E090E00E948D
:100D50006C1382E090E00E944A1380938642815097
:100D60008C3340F081E08093864261E082E090E045
:100D70000E946C1383E090E00E944A1380937242B9
:100D8000803240F081E08093724261E083E090E045
:100D90000E946C1384E090E00E944A138093A54166
:100DA0008D3340F081E08093A54161E084E090E0E4
:100DB0000E946C1385E090E00E944A138093E34305
:100DC0008D3338F01092E34360E085E090E00E94BC
:100DD0006C1386E090E00E944A138093FE418D33AD
:100DE00038F01092FE4160E086E090E00E946C13C3
:100DF00087E090E00E944A138093E0418150843064
:100E000040F082E08093E04162E087E090E00E9461
:100E10006C1388E090E00E944A138093DD42815079
:100E2000843040F082E08093DD4262E088E090E030
:100E30000E946C1389E090E00E944A138093A342C1
:100E40008150843040F082E08093A34262E089E0E8
:100E500090E00E946C138AE090E00E945413A0E09E
:100E6000B0E080938B4290938C42A0938D42B093DC
:100E70008E4284569109A109B10985389340A10594
:100E8000B10590F084E690E0A0E0B0E080938B4262
:100E900090938C42A0938D42B0938E4264E670E0B2
:100EA0008AE090E00E948F138CE090E00E9454133F
:100EB000A0E0B0E08093994290939A42A0939B4225
:100EC000B0939C4284569109A109B1098538934099
:100ED000A105B10590F084E690E0A0E0B0E0809339
:100EE000994290939A42A0939B42B0939C4264E6AD
:100EF00070E08CE090E00E948F138EE090E00E9402
:100F00005413A0E0B0E08093874290938842A0936E
:100F10008942B0938A4284569109A109B109853862
:100F20009340A105B10590F084E690E0A0E0B0E028
:100F30008093874290938842A0938942B0938A42DB
:100F400064E670E08EE090E00E948F1386E190E00E
:100F50000E945F130E94F73E6B017C016093D141B8
:100F60007093D2418093D3419093D44120E038ECE8
:100F70004FEA57E40E94E73F181654F020E030E4AF
:100F80004CE156E4C701B6010E944A3E8823A4F40E
:100F900080E090E4ACE1B7E48093D1419093D241FA
:100FA000A093D341B093D44140E45CE960E070E0A9
:100FB00086E190E00E94AC138AE190E00E945F130A
:100FC0000E94F73E6B017C016093A0417093A141A8
:100FD0008093A2419093A34120E038EC4FEA57E47C
:100FE0000E94E73F181654F020E030E44CE156E44C
:100FF000C701B6010E944A3E8823A4F480E090E431
:10100000ACE1B7E48093A0419093A141A093A241A9
:10101000B093A34140E45CE960E070E08AE190E0D5
:101020000E94AC138EE190E00E945F130E94F73E95
:101030006B017C016093DB417093DC418093DD4167
:101040009093DE4120E038EC4FEA57E40E94E73FFE
:10105000181654F020E030E44CE156E4C701B60124
:101060000E944A3E8823A4F480E090E4ACE1B7E417
:101070008093DB419093DC41A093DD41B093DE414E
:1010800040E45CE960E070E08EE190E00E94AC1327
:1010900080E190E00E9454138093EC439093ED43E1
:1010A0000A978730974260F084EF91E08093EC4399
:1010B0009093ED4364EF71E080E190E00E948F1324
:1010C00082E190E00E945413809301429093024287
:1010D0000A978730974260F084EF91E08093014255
:1010E0009093024264EF71E082E190E00E948F13DE
:1010F00084E190E00E945413809368429093694287
:101100000A978730974260F084EF91E080936842BD
:101110009093694264EF71E084E190E00E948F1344
:101120000E941D3280916B428C3328F060E080E099
:101130000E945832FFCF8091714281111CC066E13C
:1011400086E00E94583269E085E00E94583264E1EE
:1011500084E00E94583263E083E00E9458326CE0E1
:1011600082E00E94583260E081E00E94583260E0E4
:1011700080E00E945832FF90EF90DF90CF9008956A
:101180008FE090E00E943B0426E686E695E0215041
:1011900080409040E1F78FE090E00E943B0426E61B
:1011A00086E695E0215080409040E1F78FE090E0A6
:1011B0000E943B0408954F925F926F927F928F92AC
:1011C0009F92AF92BF92CF92DF92EF92FF92CF9316
:1011D000C82F8130E9F481E00E94CE1C6C01E12C23
:1011E000F12CE1E1F2E4C486D586E686F786808CB0
:1011F000918CA28CB38C809157428093D641809180
:101200008F4280938542809162429091634246C0B2
:101210008230E9F482E00E94CE1C6C01E12CF12CBA
:10122000E1E1F2E4C08AD18AE28AF38A848C958C67
:10123000A68CB78C809158428093D6418091DC4235
:1012400080938542809164429091654227C08330AB
:10125000E9F483E00E94CE1C6C01E12CF12CE1E169
:10126000F2E4C48AD58AE68AF78A80A091A0A2A077
:10127000B3A0809159428093D64180915B42809384
:101280008542809166429091674208C080E090E07C
:10129000812C912C5401C12CD12C7601C114D10484
:1012A000E104F10409F48CC121E0843F914008F489
:1012B00020E02401350182E3481A510861087108D1
:1012C00091E0B501A4014E5C5F4F6F4F7F4F4C150D
:1012D0005D056E057F0508F490E081E0C414D50437
:1012E000E604F70408F480E08923222309F425C1E9
:1012F000882309F422C1809185428F5F80938542C3
:10130000833009F0D1C08091D6418111BBC081E00A
:101310008093D641C13019F4809357420BC0C2303C
:1013200021F481E08093584205C0C33019F481E074
:101330008093594284E13CC0C13091F4282F30E0C1
:10134000F9013197EE0FFF1FE251FC4B40815181B3
:10135000220F331FF901E251FC4B4083518327C018
:10136000C23091F4282F30E0F9013197EE0FFF1FC2
:10137000EF54FD4B40815181220F331FF901EF548F
:10138000FD4B4083518313C0C33089F4282F30E0D4
:10139000F9013197EE0FFF1FE755FE4B4081518158
:1013A000220F331FF901E755FE4B408351838150D3
:1013B000823010F6C13009F5E1E1F2E484859585CB
:1013C000A685B78584879587A687B7878093F043DE
:1013D0009093F143E1E5F2E480819181019680836D
:1013E00091838C2F0E9467180E94C0081092574268
:1013F000109262421092634245C0C23009F5E1E1A9
:10140000F2E480899189A289B389808B918BA28B28
:10141000B38B8093B3429093B442E3E5F2E48081CE
:1014200091810196808391838C2F0E9467180E947E
:10143000C00810925842109264421092654222C035
:10144000C33001F5E1E1F2E484899589A689B78981
:10145000848B958BA68BB78B8093AB419093AC41DB
:10146000E5E5F2E4808191810196808391838C2F60
:101470000E9467180E94C00810925942109266425A
:101480001092674210928542FF92EF92DF92CF92C4
:1014900088E490E49F938F930E94CD460F900F9025
:1014A0000F900F900F900F90C130B1F48091854252
:1014B00080938F42E1E1F2E4808E918EA28EB38E12
:1014C00084859585A685B78584879587A687B78700
:1014D0008C2F0E946718C5C0C230B1F4809185423C
:1014E0008093DC42E1E1F2E4848E958EA68EB78E85
:1014F00080899189A289B389808B918BA28BB38BD0
:101500008C2F0E946718ADC0C33009F0AAC080912B
:10151000854280935B42E1E1F2E480A291A2A2A223
:10152000B3A284899589A689B789848B958BA68B6C
:10153000B78B8C2F0E94671894C0C130A1F4E1E1F1
:10154000F2E4C08ED18EE28EF38E84859585A685D9
:10155000B78584879587A687B7878C2F0E946718E1
:101560001092A2427EC0C230A1F4E1E1F2E4C48E46
:10157000D58EE68EF78E80899189A289B389808B7A
:10158000918BA28BB38B8C2F0E9467181092A6416F
:1015900068C0C33009F065C0E1E1F2E4C0A2D1A2A5
:1015A000E2A2F3A284899589A689B789848B958B59
:1015B000A68BB78B8C2F0E94671810925C4251C08B
:1015C000C130D1F48091A2428F5F8093A2428630D5
:1015D00008F447C08C2F0E9467181092574210924F
:1015E000A2421092294210922A4210922B4210924B
:1015F0002C4210928F4235C0C230C9F48091A6416E
:101600008F5F8093A641863060F18C2F0E9467180F
:10161000109258421092A64110922D4210922E42E2
:1016200010922F42109230421092DC421AC0C33006
:10163000C1F480915C428F5F80935C42863088F079
:101640008C2F0E9467181092594210925C4210929F
:101650003142109232421092334210923442109230
:101660005B42CF91FF90EF90DF90CF90BF90AF9013
:101670009F908F907F906F905F904F9008951F93F1
:10168000CF93DF93CDB7DEB72A97CDBFDEBF9AE009
:10169000FE013196DF01292F1D922A95E9F7DF011E
:1016A0001D929A95E9F790EF998391E09B838C8343
:1016B0006D8381E28E83809186428F8381E090E00A
:1016C00009C0E1E0F0E0EC0FFD1FE80FF11D208103
:1016D000920F8F5F8830A8F3998781EF8A8710E097
:1016E0000AC0E1E0F0E0EC0FFD1FE10FF11D808189
:1016F0000E9409361F5F1A30A0F32A96CDBFDEBFC5
:10170000DF91CF911F910895809160429091614245
:10171000883E934098F110926042109261420E947C
:101720001D32EBE6F2E487816481861739F160931C
:10173000724283E090E00E946C1388E2EEEEF3E4E4
:10174000DF01282F1D922A95E9F71092514210923D
:101750005242E1EBF2E4DF01282F1D922A95E9F7CE
:101760001092534210925442E9EAF1E4DF011D92D3
:101770008A95E9F710925542109256420895CF92F9
:10178000DF92EF92FF92CF93DF9320E836E948E1B2
:101790005BE46091D1417091D2418091D3419091AD
:1017A000D4410E944F3E20E030E040E85EE30E94DA
:1017B000EC3F20E030E040E053E40E94EC3F9B012E
:1017C000AC010E94DE3D20E030E040E05BE40E949E
:1017D000EC3F6B017C0120918B4230918C42409117
:1017E0008D4250918E42A8EEB3E00E9452440E9476
:1017F000F73E9B01AC01C701B6010E944F3E6B0151
:101800007C016091E04170E080E090E00E94F93E50
:101810009B01AC01C701B6010E944F3EC1E1D2E479
:10182000688379838A839B8320E836E948E15BE417
:101830006091A0417091A1418091A2419091A341FA
:101840000E944F3E20E030E040E85EE30E94EC3F23
:1018500020E030E040E053E40E94EC3F9B01AC010B
:101860000E94DE3D20E030E040E05BE40E94EC3F7F
:101870006B017C012091994230919A4240919B42A8
:1018800050919C42A8EEB3E00E9452440E94F73E61
:101890009B01AC01C701B6010E944F3E6B017C0168
:1018A0006091DD4270E080E090E00E94F93E9B0193
:1018B000AC01C701B6010E944F3E6C837D838E83CD
:1018C0009F8320E836E948E15BE46091DB41709159
:1018D000DC418091DD419091DE410E944F3E20E04D
:1018E00030E040E85EE30E94EC3F20E030E040E082
:1018F00053E40E94EC3F9B01AC010E94DE3D20E0DE
:1019000030E040E05BE40E94EC3F6B017C01209101
:101910008742309188424091894250918A42A8EE94
:10192000B3E00E9452440E94F73E9B01AC01C70104
:10193000B6010E944F3E6B017C016091A34270E0B2
:1019400080E090E00E94F93E9B01AC01C701B60126
:101950000E944F3E688779878A879B87DF91CF9166
:10196000FF90EF90DF90CF900895CF934AE062E030
:1019700080E00E94D9050E9494068FEF9FE80197AE
:10198000F1F700C000000E94BF0B8FEF9FE80197A6
:10199000F1F700C00000C0E00FC081E00E940C1C05
:1019A00082E00E940C1C83E00E940C1C86E69EE0F4
:1019B0000197F1F70000CF5FC23078F30E94C008B2
:1019C000109257421092584210925942E5E0F2E4C8
:1019D00010821182128210928042CF910895A895B0
:1019E0000895CF93109206424CE062E080E00E949E
:1019F000D905C1E091C080918142882399F08091FE
:101A00008242813031F4C53020F4CF5F109282429F
:101A100009C080918242833029F4CC2319F0C1504F
:101A200010928242EFE6F1E4138612861186AC2F03
:101A3000B0E0A55CBE4B8C918087C23031F130F4B0
:101A4000CC2309F466C0C13049F064C0C43009F445
:101A500048C088F1C53009F45AC05CC0EFE6F1E433
:101A60008AE183838EED828390E69183908317824F
:101A700096EB968385838EE184838091064288234A
:101A800009F448C00E94873145C0EFE6F1E41382B3
:101A900086EF82838AEF81838EE18083178296EBC3
:101AA00096839EED9583848380910642882391F1ED
:101AB0000E9482142FC0EFE6F1E413828AED828344
:101AC0008EE381838EED8083178296EB96838583E8
:101AD0008EE18483809106428823E1F00E947A3C63
:101AE00019C0EFE6F1E413828AE082838EE18183FC
:101AF0009AE19083178296EB96839EED958384837B
:101B000080910642882331F00E94863203C0C1E0F2
:101B100001C0C4E00E94EF0C8091054281116BCF9F
:101B20000E94B50CCF910895DF92EF92FF920F9330
:101B30001F93CF93DF93CDB7DEB7C656D109CDBF84
:101B4000DEBFD82E86E6FE013196DF01982F1D926A
:101B50009A95E9F7DF011D928A95E9F780EF89836D
:101B600081E08B836C8381E28E83809186428F83B8
:101B700082E08A8711E0E12CF12C0AE0F5C0B1E0A7
:101B8000DB124EC08091514290915242449738F0FE
:101B9000E0905142F0905242E10EF11C15C02091AC
:101BA000514230915242812F90E02817390740F47A
:101BB00020915142309152422817390718F004C041
:101BC0007C0102C0E12CF12C81E0800FE1E0F0E02B
:101BD000EC0FFD1FE00FF11DF08222E0200FE1E08D
:101BE000F0E0EC0FFD1FE80FF11DE082E12FF0E0C7
:101BF000EE0FFF1FE251FC4B90818181E1E0F0E0AC
:101C0000EC0FFD1FE20FF11D808383E0800FE1E008
:101C1000F0E0EC0FFD1FE80FF11D0C5F9083A1C0F9
:101C200082E0D8124EC08091534290915442449722
:101C300038F0E0905342F0905442E10EF11C15C090
:101C40002091534230915442812F90E02817390758
:101C500040F420915342309154422817390718F02C
:101C600004C07C0102C0E12CF12C81E0800FE1E096
:101C7000F0E0EC0FFD1FE00FF11DF08222E0200FDD
:101C8000E1E0F0E0EC0FFD1FE80FF11DE082E12F35
:101C9000F0E0EE0FFF1FEF54FD4B90818181E1E0FA
:101CA000F0E0EC0FFD1FE20FF11D808383E0800F59
:101CB000E1E0F0E0EC0FFD1FE80FF11D0C5F9083F9
:101CC00050C093E0D9124DC0809155429091564238
:101CD000449738F0E0905542F0905642E10EF11CE6
:101CE00015C02091554230915642812F90E028171F
:101CF000390740F420915542309156422817390750
:101D000018F004C07C0102C0E12CF12C81E0800FAE
:101D1000E1E0F0E0EC0FFD1FE00FF11DF08222E0AA
:101D2000200FE1E0F0E0EC0FFD1FE80FF11DE08275
:101D3000E12FF0E0EE0FFF1FE755FE4B9081818110
:101D4000E1E0F0E0EC0FFD1FE20FF11D808383E086
:101D5000800FE1E0F0E0EC0FFD1FE80FF11D0C5FDC
:101D600090830E94EF0C1F5F153108F408CFE1E06B
:101D7000F0E0EC0FFD1FE00FF11D108281E0800FFD
:101D8000E1E0F0E0EC0FFD1FE80FF11D108282E0B2
:101D9000800FE1E0F0E0EC0FFD1FE80FF11D108275
:101DA00083E0800FE1E0F0E0EC0FFD1FE80FF11D94
:101DB000108284E0800FE1E0F0E0EC0FFD1FE80FFF
:101DC000F11D108236E0300F85E0800FE1E0F0E099
:101DD000EC0FFD1FE80FF11D108281E090E009C0BB
:101DE000E1E0F0E0EC0FFD1FE80FF11D2081920F04
:101DF0008F5F8317A8F387E0800FE1E0F0E0EC0F3E
:101E0000FD1FE30FF11D9083085FE1E0F0E0EC0FB0
:101E1000FD1FE80FF11D81EF808310E00AC0E1E0B3
:101E2000F0E0EC0FFD1FE10FF11D80810E940936EB
:101E30001F5F1017A0F3CA59DF4FCDBFDEBFDF9180
:101E4000CF911F910F91FF90EF90DF900895EF9247
:101E5000FF920F931F93CF93DF93C0E0E7C10C2F46
:101E600010E0F801E951FD4B8081803F09F086C008
:101E7000F801E851FD4B9081913009F07FC0F801E5
:101E8000E751FD4B9081913009F078C0F801E551A0
:101E9000FD4B9081911172C0F801E051FD4B908192
:101EA000913F09F06BC0E4E2F4E0808188608083B8
:101EB00090E081E008C0F801E80FF11DE951FD4B09
:101EC0002081920F8F5F8830B0F3F801E151FD4B14
:101ED000808198134BC0F801E651FD4B80819091B1
:101EE000A541891314C0C4E2D4E08881846088834A
:101EF0006091A54181E00E94940D8CEC9CE10197DA
:101F0000F1F700C0000088818B7F88832FC09091FB
:101F1000E343891314C0C4E2D4E0888184608883D9
:101F20006091E34382E00E94940DECECFCE1319778
:101F3000F1F700C0000088818B7F888317C09091E3
:101F4000FE41891313C0C4E2D4E088818460888391
:101F50006091FE4183E00E94940D8CEC9CE101971E
:101F6000F1F700C0000088818B7F88830E943036A3
:101F7000E4E2F4E08081877F80835BC1803F09F0E9
:101F8000A1C0F801E851FD4B9081913009F09AC051
:101F9000F801E551FD4B9081993009F093C0F801AB
:101FA000EA50FD4B9081913F09F08CC0E4E2F4E0EF
:101FB00080818860808390E081E008C0F801E80FAC
:101FC000F11DE951FD4B2081920F8F5F8E30B0F3F0
:101FD000F801EB50FD4B808198136CC0F801E15182
:101FE000FD4B8081982F92959F70990F692F660FF6
:101FF000660F960F8F70692F680F86E00E94583227
:10200000F801E051FD4B8081982F92959F70990FB8
:10201000692F660F660F960F8F70692F680F85E026
:102020000E945832F801EF50FD4B8081982F929515
:102030009F70990F692F660F660F960F8F70692F2B
:10204000680F84E00E945832F801EE50FD4B808109
:10205000982F92959F70990F692F660F660F960FB4
:102060008F70692F680F82E00E945832F801ED509E
:10207000FD4B8081982F92959F70990F692F660F65
:10208000660F960F8F70692F680F81E00E9458329B
:10209000F801EC50FD4B8081982F92959F70990F1D
:1020A000692F660F660F960F8F70692F680F80E09B
:1020B0000E9458320E943036E4E2F4E08081877F4B
:1020C0008083B7C0803F09F0B0C0F801E851FD4BF4
:1020D0008081813009F0A9C0F801E751FD4B808172
:1020E000813009F0A2C0780194E0E90EF11CF701FB
:1020F000E951FD4B8081873009F097C0F801EA5F14
:10210000FC4B8081813F09F090C0E4E2F4E08081E3
:102110008860808390E081E008C0F801E80FF11D3D
:10212000E951FD4B2081920F8F5F8E31B0F3F801A2
:10213000EB5FFC4B8081981378C060E070E06093A7
:10214000E1437093E243F801E651FD4B80819091A9
:10215000A541891321C06093EC437093ED4380E166
:1021600090E00E948F1304E214E0F8018081846003
:102170008083F701E951FD4B60818091A5410E9468
:102180003F0B8CEC9CE10197F1F700C00000F801D7
:1021900080818B7F808349C09091E343891321C064
:1021A000609301427093024282E190E00E948F139B
:1021B00004E214E0F801808184608083F701E95132
:1021C000FD4B60818091E3430E943F0B8CEC9CE1CE
:1021D0000197F1F700C00000F80180818B7F8083B8
:1021E00024C09091FE41891320C06093684270938F
:1021F000694284E190E00E948F1304E214E0F80148
:10220000808184608083F701E951FD4B608180917A
:10221000FE410E943F0B8CEC9CE10197F1F700C05E
:102220000000F80180818B7F8083CF5FCA3F08F474
:1022300016CEDF91CF911F910F91FF90EF900895EF
:102240000E9438040E942D0560E070E089E195E06D
:102250000E94464681E080937F422FEF8FE392E019
:10226000215080409040E1F700C000008BEF90E4E7
:102270000E94E14685E590E40E94E1461F9283E0DA
:102280008F931F928F938CE890E49F938F930E947B
:10229000CD4686EC90E40E94E1468DEF90E49F935A
:1022A0008F9386E091E49F938F9382E191E49F93D3
:1022B0008F930E94CD4685E590E40E94E1468BEF26
:1022C00090E40E94E14678940E94C008E4E2F4E0C1
:1022D0008081877F808380818B7F8083EFE6F1E43C
:1022E000138283EF828382EF818310822FEF8FEF3F
:1022F0009CE2215080409040E1F700C000000E9425
:10230000EF0C0E9494068DB79EB70C968DBF9EBFB2
:1023100010E00F2EF5E0FF2EF02DA6C00E941D321A
:10232000CBE6D2E49E818DEC989F412D11244695F9
:1023300046954695E42FF0E0E55CFE4B5081EFE6D4
:10234000F1E45383440F542F550F550F450FA92F18
:10235000A41BB0E0A55CBE4B9C9192839D81989F8D
:10236000412D1124469546954695A42FB0E0A55CD5
:10237000BE4B5C915183440F542F550F550F450FA1
:10238000A92FA41BB0E0A55CBE4B9C9190839C81BF
:10239000989F412D1124469546954695A42FB0E06F
:1023A000A55CBE4B5C915783440F542F550F550FBE
:1023B000450FA92FA41BB0E0A55CBE4B9C91968352
:1023C0009A81989F412D1124469546954695A42FB4
:1023D000B0E0A55CBE4B5C915583440F542F550F64
:1023E000550F450FA92FA41BB0E0A55CBE4B9C91D7
:1023F00094839981989F412D112446954695469541
:10240000A42FB0E0A55CBE4B5C915387440F542FC2
:10241000550F550F450FA92FA41BB0E0A55CBE4B6F
:102420009C9192871881189F812D112486958695FD
:102430008695A82FB0E0A55CBE4B9C919187880F34
:10244000982F990F990F890FA12FA81BB0E0A55CB9
:10245000BE4B8C918087011741F08AE090E00E948A
:102460003B040E94EF0CFA94012FF11057CF0E9409
:10247000B50C0E94EF0C8091A541882321F081E0EA
:102480000E94DB080EC04CE060E080E00E94D905AD
:102490009FEF2FE181E0915020408040E1F700C0A4
:1024A00000008091E343882321F082E00E94DB0852
:1024B0000EC04CE061E081E00E94D9059FEF2FE162
:1024C00081E0915020408040E1F700C00000809101
:1024D000FE41882321F083E00E94DB080EC04CE01F
:1024E00062E082E00E94D9059FEF2FE181E09150E8
:1024F00020408040E1F700C000008091054281113A
:102500000E94F10C0E94270F0E94840B0E94EF0C86
:10251000B2CF1092890080E0089543E068ED80E634
:1025200090E00E9409328091630080FDFCCF80E042
:10253000089580E0089580E008C0E82FF0E0E05FB3
:10254000FB4F9081986090838F5F8830B0F380E07C
:1025500008C0E82FF0E0E05DFB4F90819860908329
:102560008F5F8830B0F380E008C0E82FF0E0E05BD8
:10257000FB4F9081986090838F5F8830B0F380E04C
:1025800008C0E82FF0E0E059FB4F908198609083FD
:102590008F5F8830B0F380E008C0E82FF0E0E057AC
:1025A000FB4F9081986090838F5F8830B0F380E01C
:1025B00008C0E82FF0E0E055FB4F908198609083D1
:1025C0008F5F8830B0F380E008C0E82FF0E0E05380
:1025D000FB4F9081986090838F5F8830B0F30895AF
:1025E00085B3877F85BB84B3886084BBE3EBF4E06D
:1025F0008081877F808380818F7780838081887FBF
:10260000808385B38B7F85BB84B3846084BBE2EB1E
:10261000F4E08081877F808380818F7780838081D1
:10262000887F80830E940B170895E0EEF5E0828199
:102630008B7F8283E0E4F4E080818160808380810D
:102640008D7F80830E94E8350895E0EEF5E0828179
:102650008F7B8283E0E2F4E08081816080838081EF
:102660008D7F80830E94FD3508950E949B120E94F9
:102670008D120E9415130E9425130E94DA350E94C4
:1026800099120E94DC350E9489120E943A360E94FB
:10269000F0120895811522E0920710F08FEF91E07B
:1026A000FC01FC5E808108958F3F21E0920710F0CD
:1026B0008EEF91E0FC01FC5E8081918108958D3F59
:1026C00021E0920710F08CEF91E0FC01FC5E60814C
:1026D00071818281938108951F93CF93DF939C0131
:1026E000211582E03807B0F4909102109370E1F761
:1026F000162FE90143E16DE980E090E10E94093283
:10270000DC5E188340E06DE980E090E10E940932D0
:1027100081E001C080E0DF91CF911F910895CF92B9
:10272000DF92EF92FF92CF93DF938F3F21E09207EA
:1027300058F4EC016B010E946C136D2DCE010196D3
:102740000E946C1381E001C080E0DF91CF91FF9087
:10275000EF90DF90CF900895FF920F931F93CF9348
:10276000DF938D3F21E09207C0F4172F062FF52E3F
:10277000642FEC010E946C136F2DCE0101960E9414
:102780006C13602FCE0102960E946C13612FCE0154
:1027900003960E946C1381E001C080E0DF91CF912D
:1027A0001F910F91FF9008954CE062E080E00E943D
:1027B000D90542C0EFE6F1E48EEB838382E08283A9
:1027C0008AE281838AE3808320917C428DEC289F7A
:1027D000812D1124869586958695A82FB0E0A55C5D
:1027E000BE4B9C919583880F982F990F990F890F55
:1027F000A22FA81BB0E0A55CBE4B8C918483809176
:1028000081428823B9F080918242813041F42C3397
:1028100030F42F5F20937C42109282420BC0809153
:102820008242833039F4223028F0215020937C42B8
:10283000109282420E94EF0C80910542882321F081
:10284000809106428111B6CF60917C4281E090E098
:102850000E946C1308954CE062E080E00E94D9056C
:1028600042C0EFE6F1E48EEB838382E0828380E670
:1028700081838AE78083209186428DEC289F812D79
:102880001124869586958695A82FB0E0A55CBE4B51
:102890009C919583880F982F990F990F890FA22FDC
:1028A000A81BB0E0A55CBE4B8C91848380918142D3
:1028B0008823B9F080918242813041F42C3330F486
:1028C0002F5F20938642109282420BC080918242F9
:1028D000833039F4223028F0215020938642109220
:1028E00082420E94EF0C80910542882321F0809162
:1028F00006428111B6CF6091864282E090E00E944C
:102900006C130895CF93109206424CE062E080E091
:102910000E94D905C1E08BC080918142882399F043
:1029200080918242813031F4C33020F4CF5F109225
:10293000824209C080918242833029F4CC2319F06D
:10294000C15010928242EC2FF0E0E55CFE4B80819A
:1029500080937741C13041F008F466C0C23099F1EC
:10296000C33009F45FC061C0EFE6F1E48EEB83830E
:1029700082E082838AE281838AE3808317821682DF
:1029800040917C428DEC489F812D1124869586953F
:102990008695282F30E0255C3E4BD9019C9195838C
:1029A000880F982F990F990F890FA42FA81BB0E0BB
:1029B000A55CBE4B8C918483809106428823A9F14B
:1029C0000E94D41332C0EFE6F1E48EEB838382E001
:1029D000828380E681838AE7808317821682409112
:1029E00086428DEC489F812D11248695869586958B
:1029F000282F30E0255C3E4BD9019C919583880FB0
:102A0000982F990F990F890FA42FA81BB0E0A55CF0
:102A1000BE4B8C91848380910642882331F00E94C2
:102A20002B1403C0C1E001C0C2E00E94EF0C8091F2
:102A30000542811171CFCF910895E0E2F9E08481E0
:102A400088608483858181608583EBE7F1E4808100
:102A50008E7F808313868EE00895EBE7F1E480811A
:102A60008E7F8083138680E00895E0E2F9E0848120
:102A7000836084830E942D150895EBE7F1E4808143
:102A800088608083818190E0880F991F81608093A6
:102A9000270984E008950E943D1508950E943D1580
:102AA0000895EBE7F1E48081886080838181880F5D
:102AB0008093270983E008950E9451150895ABE79C
:102AC000B1E48C91877F8C9382E01B968C931B974B
:102AD0005096ED91FC9151975C968D919C915D97EC
:102AE0000995823019F0833021F006C00E944E15FE
:102AF00008950E945C1508950E9435150895E0E23E
:102B0000F9E084818B7F848384E00895E0E2F9E03A
:102B100084818B7F848383E00895E0E2F9E08481FF
:102B2000846084838481836084830E942D1508954A
:102B3000E0E2F9E084818460848388E008958091F4
:102B4000250984FF19C0ABE7B1E45296ED91FC91E1
:102B500053975E968D919C915F970995823019F0FD
:102B6000833021F006C00E944E1508950E945C1526
:102B700008950E9435150895EBE7F1E48081877F81
:102B80008083A281B381CD010196828393838C914E
:102B90008093280984819581019784839583892B6B
:102BA00011F083E0089585E00895CF93DF93EBE77C
:102BB000F1E48081877F808384819581019731F45E
:102BC000E0E2F9E084818460848305C0E0E2F9E01A
:102BD00084818B7F8483EBE7F1E484819581019785
:102BE00084839583892BA9F0DF01C281D381E0E240
:102BF000F9E08085888312968D919C9113970196B8
:102C000012968D939C93139784818260848384E0D1
:102C100026C0ABE7B1E41296ED91FC911397809139
:102C20002809808312968D919C9113970196129694
:102C30008D939C9313978C9184608C931C96ED914B
:102C4000FC911D9758968D919C91599709958250AA
:102C5000823018F40E94981502C00E948D15DF91F1
:102C6000CF9108958091250984FF19C0ABE7B1E4A5
:102C70005296ED91FC9153975E968D919C915F9742
:102C80000995823019F0833021F006C00E944E155C
:102C900008950E945C1508950E9435150895ABE7CC
:102CA000B1E48C9184608C931C96ED91FC911D97FE
:102CB00058968D919C9159970995833039F08430BD
:102CC00041F0823049F40E944E1508950E945C152F
:102CD00008950E949F1508950E9435150895E0E219
:102CE000F9E0858188608583ABE7B1E482E01B96DB
:102CF0008C931B971E96ED91FC911F975A968D9180
:102D00009C915B970995823019F0833021F006C0C1
:102D10000E944E1508950E945C1508950E941D158D
:102D20000895E0E2F9E08481886084838581816090
:102D30008583EBE7F1E480818E7F808382E0838767
:102D40008EE00895CF93DF93E0E2F9E08581806C17
:102D5000858380917B4183FF07C08091250984FF93
:102D600003C08FE0809385418091250983FF03C0D4
:102D700080E1809385418091250982FF03C081E134
:102D800080938541CBE7D1E4EA85F0E0EE0FFF1FA9
:102D9000EA5FFF4B0190F081E02D09958A87DF9172
:102DA000CF91089581E0089585E00895611571053A
:102DB00091F090E0FC013696EE0FFF1FE558FE4BB8
:102DC00060837183FC013C96EE0FFF1FE558FE4BBC
:102DD00040835183089590E0FC013696EE0FFF1F6B
:102DE000E558FE4B22ED36E120833183FC013C9611
:102DF000EE0FFF1FE558FE4B108211820895AB01C4
:102E0000BC0180E00E94D6160895AB01BC0182E0AF
:102E10000E94D6160895E0E2F9E084E4868381EC0E
:102E20008383089590917B4191FD37C0EBE7F1E4F6
:102E30008183892F8E7F82609EE0928724EF31E02C
:102E400020873187877F8460808382ED96E1848745
:102E50009587108E118E86879787128E138E808BA2
:102E6000918B148E158E828B938B168E178E84ED1C
:102E700096E1848B958B10A211A2E0E2F9E08481A7
:102E8000886084838581816085838581806C85836A
:102E90008381806C838380E0089581E00895809130
:102EA000250982FF07C0EBE7F1E480818E7F8083F4
:102EB00082E0838780917B4180FD17C0EBE7F1E4DE
:102EC0008D7F80838FEF8183A0E2B9E015968C918E
:102ED0001597806C15968C93159713968C91139774
:102EE0008F7313968C938385089581E008959C01D8
:102EF00090917B4192FF09C0EBE7F1E42283338399
:102F000064837583892F8B7F8083089590917B41A3
:102F100090FD11C0EBE7F1E491609083882321F0EC
:102F200081E08093854103C082E0809385410E94C7
:102F3000A21680E0089581E0089580E00E9486173F
:102F400008951F920F920FB60F9211240BB60F9295
:102F50002F933F934F935F936F937F938F939F93A1
:102F6000AF93BF93EF93FF930E94A216FF91EF914F
:102F7000BF91AF919F918F917F916F915F914F9191
:102F80003F912F910F900BBE0F900FBE0F901F908F
:102F9000189561E070E00E94771760E070E080E0D3
:102FA00090E00E94FF1684E0089561E070E00E94C6
:102FB000771760E070E080E090E00E94FF1682E00A
:102FC0000895FF920F931F93CF93DF9300D0CDB757
:102FD000DEB7F82E69834A8300E117E28F2D0E9445
:102FE0001217813019F401501109C1F7012B11F1A9
:102FF000BE016E5F7F4F89EC97E10E94FF1661E092
:1030000070E0CE0101960E94771760E070E085E6DF
:1030100098E10E9405170E949D1700E117E20E94A7
:103020004F17813019F401501109C9F7012B21F410
:1030300082E003C081E001C080E00F900F90DF913B
:10304000CF911F910F91FF900895EF92FF921F93E0
:10305000CF93DF9300D0CDB7DEB7182F6A838AE213
:1030600089836894EE24E1F8F12C23C0812F0E941B
:1030700012178823D9F3BE016F5F7F4F85ED97E16B
:103080000E94FF1661E070E0CE0102960E94771761
:1030900060E070E085E698E10E9405170E949D17A8
:1030A0000E944F178130E1F3882331F081E0E81A64
:1030B000F108E114F104D1F689810F900F90DF91AE
:1030C000CF911F91FF90EF90089583E008957F9234
:1030D0008F929F92AF92BF92CF92DF92EF92FF9228
:1030E0000F931F93CF93DF93082F813049F4809083
:1030F0001D4290901E42A0901F42B090204219C0E5
:10310000823049F48090214290902242A090234244
:10311000B09024420EC0833049F4809025429090B4
:103120002642A0902742B090284203C0812C912CC7
:103130005401C501B40120E137E240E050E00E94B3
:10314000F943722E2093A4410F2EF8EECF2EF3E018
:10315000DF2EE12CF12CF02DA70196010E94F943FE
:10316000122F2093DA42C501B401A70196010E94F3
:10317000F9430F2EF4E6CF2ED12CE12CF12CF02DBB
:10318000A70196010E94F943D22F2093A542C501C1
:10319000B401A70196010E94F9430F2EFAE0CF2E49
:1031A000D12CE12CF12CF02DA70196010E94F943BE
:1031B000C22F20937B42C501B401A70196010E9452
:1031C000F94360939F4281E1881687E29806A10443
:1031D000B10418F1E02FF0E03197A72DB0E0A55C25
:1031E000BE4B8C91EE0FFF1FEE0FFF1FE159FE4B00
:1031F0008383A12FB0E0A55CBE4B8C918283AD2F61
:10320000B0E0A55CBE4B8C918F5F8183AC2FB0E0AA
:10321000A55CBE4B8C9180834EC089EE881683E0FE
:103220009806A104B10418F1E02FF0E03197A12F26
:10323000B0E0A55CBE4B8C91EE0FFF1FEE0FFF1FA1
:10324000E159FE4B8383AD2FB0E0A55CBE4B8C9162
:103250008F5F8283AC2FB0E0A55CBE4B8C918183E5
:10326000A62FB0E0A55CBE4B8C91808324C088EE75
:10327000881683E09806A104B104E8F4E02FF0E09A
:103280003197EE0FFF1FEE0FFF1FE159FE4B138228
:10329000AD2FB0E0A55CBE4B8C918F5F8283AC2FCD
:1032A000B0E0A55CBE4B8C918183A62FB0E0A55CFD
:1032B000BE4B8C918083DF91CF911F910F91FF9036
:1032C000EF90DF90CF90BF90AF909F908F907F90C6
:1032D00008958F929F92AF92BF92CF92DF92EF921A
:1032E000FF920F931F93CF93DF93813049F4C090E7
:1032F0001D42D0901E42E0901F42F090204219C023
:10330000823049F4C0902142D0902242E090234282
:10331000F09024420EC0833049F4C0902542D090F2
:103320002642E0902742F090284203C0C12CD12CC5
:103330007601C701B60120E137E240E050E00E948B
:10334000F943022F2093A4410F2EF8EE8F2EF3E0C5
:103350009F2EA12CB12CF02DA50194010E94F943C0
:10336000122F2093DA42C701B601A50194010E94F1
:10337000F9430F2EF4E68F2E912CA12CB12CF02DB9
:10338000A50194010E94F943D22F2093A542C701C1
:10339000B601A50194010E94F9430F2EFAE08F2E89
:1033A000912CA12CB12CF02DA50194010E94F94380
:1033B000C22F20937B42C701B601A50194010E9450
:1033C000F94360939F4281E1C81687E2D806E10481
:1033D000F10410F1E02FF0E0E55CFE4B8081AFE6F8
:1033E000B1E413968C931397E12FF0E0E55CFE4B6C
:1033F000808112968C931297ED2FF0E0E55CFE4BE6
:1034000080818F5F11968C931197EC2FF0E0E55C33
:10341000FE4B80818C934CC089EEC81683E0D806A1
:10342000E104F10410F1E12FF0E0E55CFE4B808156
:10343000AFE6B1E413968C931397ED2FF0E0E55CC3
:10344000FE4B80818F5F12968C931297EC2FF0E0E9
:10345000E55CFE4B808111968C931197E62FF0E08E
:10346000E55CFE4B80818C9323C088EEC81683E018
:10347000D806E104F104E0F4AFE6B1E413961C923F
:103480001397ED2FF0E0E55CFE4B80818F5F129685
:103490008C931297EC2FF0E0E55CFE4B8081119647
:1034A0008C931197E62FF0E0E55CFE4B80818C93C6
:1034B000DF91CF911F910F91FF90EF90DF90CF9010
:1034C000BF90AF909F908F9008958F929F92AF92F0
:1034D000BF92CF92DF92EF92FF92E4E4F4E080811A
:1034E0008B7F80838091480483FFFCCF90E040E095
:1034F00050E0BA011DC0440F551F661F771FE4E45A
:10350000F4E080818460808322E62A95F1F7000050
:1035100080818B7F808382E68A95F1F7000080911D
:10352000480483FD04C04F5F5F4F6F4F7F4F9F5F25
:10353000983108F3E4E4F4E080818460808392E6CB
:103540009A95F1F7000080818B7F80832FEF8FE7C2
:1035500094E0215080409040E1F700C000006A01F3
:103560007B0120E4E22620918B4230918C424091F5
:103570008D4250918E42A0E1B7E20E945244809069
:10358000414290904242A0904342B0904442DC01BC
:10359000CB01880D991DAA1DBB1D8C159D05AE057F
:1035A000BF0518F4C12CD12C76010E94BF0B80906E
:1035B000114290901242A0901342B0901442C70161
:1035C000B6010E94F93EA50194010E944F3E0E945F
:1035D000C13EFF90EF90DF90CF90BF90AF909F9053
:1035E0008F9008958F929F92AF92BF92CF92DF9269
:1035F000EF92FF92E4E4F4E080818F7E80838091FB
:10360000480485FFFCCF90E040E050E0BA011DC0C7
:10361000440F551F661F771FE4E4F4E0808180614A
:10362000808322E62A95F1F7000080818F7E8083D7
:1036300082E68A95F1F700008091480485FD04C078
:103640004F5F5F4F6F4F7F4F9F5F983108F3E4E408
:10365000F4E080818061808392E69A95F1F7000022
:1036600080818F7E80832FEF8FE794E02150804010
:103670009040E1F700C000006A017B0120E4E226EF
:103680002091994230919A4240919B4250919C42A4
:10369000A0E1B7E20E9452448090414290904242A1
:1036A000A0904342B0904442DC01CB01880D991DAB
:1036B000AA1DBB1D8C159D05AE05BF0518F4C12CB8
:1036C000D12C76010E94BF0B80901542909016423B
:1036D000A0901742B0901842C701B6010E94F93E6F
:1036E000A50194010E944F3E0E94C13EFF90EF90C1
:1036F000DF90CF90BF90AF909F908F9008958F9262
:103700009F92AF92BF92CF92DF92EF92FF92E4E44A
:10371000F4E080818F7B8083809148048823E4F7E4
:1037200090E040E050E0BA011DC0440F551F661FF5
:10373000771FE4E4F4E080818064808322E62A95A8
:10374000F1F7000080818F7B808382E68A95F1F714
:10375000000080914804882324F04F5F5F4F6F4F33
:103760007F4F9F5F983108F3E4E4F4E08081806448
:10377000808392E69A95F1F7000080818F7B8083A9
:103780002FEF8FE794E0215080409040E1F700C098
:1037900000006A017B0120E4E22620918B423091F7
:1037A0008C4240918D4250918E42A0E1B7E20E943E
:1037B00052448090414290904242A0904342B09047
:1037C0004442DC01CB01880D991DAA1DBB1D8C153F
:1037D0009D05AE05BF0518F4C12CD12C76010E94C1
:1037E000BF0B8090194290901A42A0901B42B0905B
:1037F0001C42C701B6010E94F93EA50194010E9436
:103800004F3E0E94C13EFF90EF90DF90CF90BF905F
:10381000AF909F908F9008950F931F938130C9F5BB
:103820000E94651A8B019C0180914542909146420D
:10383000A0914742B0914842801B910BA20BB30B61
:10384000181619061A061B067CF4E1E1F2E444A9F5
:1038500055A966A977A9481B590B6A0B7B0B44AB8A
:1038600055AB66AB77AB10C0BB2374F4E1E1F2E477
:1038700044A955A966A977A9480F591F6A1F7B1F3C
:1038800044AB55AB66AB77AB892B8A2B8B2B61F6A0
:1038900075C08230C9F50E94F21A8B019C0180919B
:1038A000494290914A42A0914B42B0914C42801BB8
:1038B000910BA20BB30B181619061A061B067CF403
:1038C000E1E1F2E440AD51AD62AD73AD481B590B7F
:1038D0006A0B7B0B40AF51AF62AF73AF10C0BB231D
:1038E00074F4E1E1F2E440AD51AD62AD73AD480F67
:1038F000591F6A1F7B1F40AF51AF62AF73AF892B57
:103900008A2B8B2B61F63AC08330C1F50E947F1B56
:103910008B019C0180914D4290914E42A0914F426B
:10392000B0915042801B910BA20BB30B18161906D5
:103930001A061B067CF4E1E1F2E444AD55AD66AD38
:1039400077AD481B590B6A0B7B0B44AF55AF66AF85
:1039500077AF10C0BB2374F4E1E1F2E444AD55ADA0
:1039600066AD77AD480F591F6A1F7B1F44AF55AF37
:1039700066AF77AF892B8A2B8B2B61F68AE090E0BC
:103980000E943B0426E686EE90E021508040904065
:10399000E1F70E94EF0C1F910F9108954F925F92F3
:1039A0006F927F928F929F92AF92BF92CF92DF924F
:1039B000EF92FF92CF93DF93CDB7DEB72597CDBFC0
:1039C000DEBF8D83109241421092424210924342D8
:1039D00010924442813091F50E94651A6B017C017E
:1039E000E1E1F2E444A055A066A077A084A995A9DE
:1039F000A6A9B7A980AB91ABA2ABB3AB8091EC43C6
:103A00009091ED439C0140E050E029833A834B8341
:103A10005C8320918B4230918C4240918D42509139
:103A20008E42A8EEB3E00E9452446093FA41709334
:103A3000FB418093FC419093FD4174C03D81323045
:103A400091F50E94F21A6B017C01E1E1F2E440A4DD
:103A500051A462A473A480AD91ADA2ADB3AD80AB0F
:103A600091ABA2ABB3AB80910142909102429C0119
:103A700040E050E029833A834B835C832091994254
:103A800030919A4240919B4250919C42A8EEB3E003
:103A90000E9452446093FA417093FB418093FC4131
:103AA0009093FD413FC03D81333091F50E947F1BD3
:103AB0006B017C01E1E1F2E444A455A466A477A47F
:103AC00084AD95ADA6ADB7AD80AB91ABA2ABB3ABBA
:103AD00080916842909169429C0140E050E02983C6
:103AE0003A834B835C832091874230918842409196
:103AF000894250918A42A8EEB3E00E9452446093FA
:103B0000FA417093FB418093FC419093FD410AC0C0
:103B100019821A821B821C82412C512C3201C12C29
:103B2000D12C76011C141D041E041F040CF0A4C12A
:103B30008091414290914242A0914342B0914442CF
:103B4000A7019601281B390B4A0B5B0BCA01B9016F
:103B50002AE030E040E050E00E941B44DA01C90155
:103B6000880F991FAA1FBB1F4C015D01880C991C6F
:103B7000AA1CBB1C880C991CAA1CBB1C880E991E75
:103B8000AA1EBB1E75016401181419041A041B0433
:103B90000CF076C084149504A604B7040CF44FC04E
:103BA0003D813130B9F480916A428F5F80936A42DF
:103BB000833380F0E1E1F2E480A991A9A2A9B3A93D
:103BC000880D991DAA1DBB1D84AB95ABA6ABB7ABE9
:103BD0000E94C0084D814230B9F48091DB428F5F72
:103BE0008093DB42833380F0E1E1F2E480A991A984
:103BF000A2A9B3A9880D991DAA1DBB1D80AF91AFC5
:103C0000A2AFB3AF0E94C0085D815330C9F5809167
:103C1000DE428F5F8093DE42833390F1E1E1F2E494
:103C200080A991A9A2A9B3A9880E991EAA1EBB1E9C
:103C300084AE95AEA6AEB7AE0E94C00821C08D81FD
:103C4000813041F48092354290923642A0923742C0
:103C5000B09238429D81923041F4809239429092E4
:103C60003A42A0923B42B0923C42AD81A33041F433
:103C700080923D4290923E42A0923F42B09240429A
:103C8000C114D104E104F10489F4BD81B13019F407
:103C900010926A420BC02D81223019F41092DB423F
:103CA00005C03D81333011F41092DE42FF2074F0E4
:103CB0008091FA419091FB41A091FC41B091FD416E
:103CC0008C159D05AE05BF0508F07EC04D814130C5
:103CD00031F480916A428F5F80936A4211C05D81A6
:103CE000523031F48091DB428F5F8093DB4208C019
:103CF0008D81833029F48091DE428F5F8093DE4294
:103D00009D819130F1F480916A42863048F0892F8C
:103D10000E940C1C10926A42C12CD12C76019EC0CC
:103D2000E1E1F2E480A991A9A2A9B3A90597A109AB
:103D3000B10984AB95ABA6ABB7ABC12CD12C760146
:103D40008DC0AD81A230F1F48091DB42863048F025
:103D50008A2F0E940C1C10926A42C12CD12C760131
:103D60007DC0E1E1F2E480A991A9A2A9B3A90597D8
:103D7000A109B10980AF91AFA2AFB3AFC12CD12CD3
:103D800076016CC0BD81B33009F068C08091DE421D
:103D9000863048F08B2F0E940C1C10926A42C12C76
:103DA000D12C76015BC0E1E1F2E480A991A9A2A93E
:103DB000B3A90597A109B10984AF95AFA6AFB7AF75
:103DC000C12CD12C76014AC01C141D041E041F04F2
:103DD0000CF044C029813A814B815C81C216D30624
:103DE000E406F506DCF53D81313089F4E1E1F2E4E9
:103DF00080A991A9A2A9B3A90596A11DB11D84AB63
:103E000095ABA6ABB7ABC12CD12C760127C04D81A9
:103E1000423089F4E1E1F2E480A991A9A2A9B3A911
:103E20000596A11DB11D80AF91AFA2AFB3AFC12C5C
:103E3000D12C760113C05D81533081F4E1E1F2E4CD
:103E400080A991A9A2A9B3A90596A11DB11D84AF0E
:103E500095AFA6AFB7AFC12CD12C76018091FA41B6
:103E60009091FB41A091FC41B091FD418C159D05C5
:103E7000AE05BF0528F007C0C12CD12C760103C0C8
:103E8000C12CD12C7601C701B6012AE030E040E018
:103E900050E00E941B44C9012596CDBFDEBFDF91D3
:103EA000CF91FF90EF90DF90CF90BF90AF909F9019
:103EB0008F907F906F905F904F900895CF93C82F11
:103EC00010927741813049F480E190E00E945413D0
:103ED0008093E1439093E24315C0823049F482E13C
:103EE00090E00E9454138093E1439093E2430AC010
:103EF000833041F482E190E00E9454138093E143C7
:103F00009093E2434091E1435091E2439A0132950C
:103F100022952F7023273F702327A7E4B3E00E9448
:103F20004344969587959695879596958795809322
:103F3000FF4160E177E2869F9001879F300D969F59
:103F4000300D1124CA01821B930B9C0136952795D5
:103F50003695279536952795A5ECB0E20E94434407
:103F6000929582958F7089279F7089278093D94277
:103F70009A013695279536952795369527950E946F
:103F80004344929582958F7089279F70892768EEA8
:103F900073E0869F9001879F300D969F300D11240E
:103FA000CA01821B930B9C01369527953695279560
:103FB000ABE7B4E10E944344969587958093004215
:103FC0009A0136952795369527950E9443449C0182
:103FD0003695279564E6629FC001639F900D11247A
:103FE0009A01281B390BADECBCEC0E94434496951A
:103FF000879596958795969587958093DA419A014E
:104000000E944344969587959695879596958795B2
:104010009C01220F331F880F991F880F991F880F4B
:10402000991F820F931F9A01281B390B2093A042DE
:104030003DC181E08093074280918042823009F443
:1040400085C030F4882369F0813009F444C02CC164
:10405000843009F4F0C008F4B4C0853009F422C1FA
:1040600023C1E091A042F0E0E55CFE4B80818093AB
:104070007A418091B042882319F01092764108C0AD
:10408000E091FF41F0E0E55CFE4B8081809376415A
:1040900080918142882309F407C180918242813056
:1040A00051F48091FF41811106C08F5F8093FF41E1
:1040B00010928242F9C080918242833009F0F4C0AC
:1040C0008091FF41882309F4EFC081508093FF4124
:1040D00010928242E9C0E091FF41F0E0E55CFE4BC6
:1040E0008081809376418091B042882319F01092AC
:1040F000754109C0E091D942F0E0E55CFE4B80815A
:104100008F5F8093754180918142882309F4CCC0F0
:1041100080918242813051F48091D942893030F4CB
:104120008F5F8093D94210928242BEC080918242BA
:10413000833009F0B9C08091D942882309F4B4C012
:1041400081508093D94210928242AEC0E091D94210
:10415000F0E0E55CFE4B80818F5F8093754180913C
:10416000B042882319F01092744108C0E0910042D7
:10417000F0E0E55CFE4B8081809374418091814248
:10418000882309F491C080918242813051F480915A
:104190000042893030F48F5F809300421092824257
:1041A00083C080918242833009F07EC080910042BA
:1041B000882309F479C08150809300421092824292
:1041C00073C0E0910042F0E0E55CFE4B808180939B
:1041D00074418091B042882319F01092734108C055
:1041E000E091DA41F0E0E55CFE4B80818093734121
:1041F00080918142882309F457C0809182428130A6
:1042000051F48091DA41893030F48F5F8093DA4144
:104210001092824249C080918242833009F044C0AA
:104220008091DA41882309F43FC081508093DA41BC
:104230001092824239C0E091DA41F0E0E55CFE4B39
:104240008081809373418091B042882319F010924D
:104250007A4108C0E091A042F0E0E55CFE4B80812D
:1042600080937A41809181428823F1F0809182424B
:10427000813051F48091A042893030F48F5F809377
:10428000A0421092824210C080918242833061F439
:104290008091A042882341F081508093A0421092E7
:1042A000824202C0109280420E94EF0C809105422F
:1042B0008111BFCE4091FF4120E137E2429FC00112
:1042C000439F900D11244091D94228EE33E0429F44
:1042D000B001439F700D1124680F791F8091004237
:1042E0009B0144E6849F200D311D1124C9012091BA
:1042F000DA4130E0B901660F771F220F331F220F1A
:10430000331F220F331F620F731F680F791F8091B5
:10431000A042680F711D6093E1437093E243C13086
:1043200029F480E190E00E948F130DC0C23029F47F
:1043300082E190E00E948F1306C0C33021F484E133
:1043400090E00E948F13E5E0F2E481E08083118227
:10435000128210928042CF9108952F923F924F92F5
:104360005F926F927F928F929F92AF92BF92CF9205
:10437000DF92EF92FF920F931F93CF93DF93CDB70E
:10438000DEB72D97CDBFDEBF898310927741813094
:1043900011F586E190E00E945F137B018C0120E023
:1043A00030E0A9016D83FE820F83188729873A8741
:1043B0004B875C8760930842F092094200930A425F
:1043C00010930B4210920C4210920D4210920E422A
:1043D00010920F4249C00981023011F58AE190E044
:1043E0000E945F137B018C0120E030E0A9016D8306
:1043F000FE820F83188729873A874B875C876093F3
:104400000842F092094200930A4210930B42109224
:104410000C4210920D4210920E4210920F4224C094
:104420000981033009F58EE190E00E945F137B0162
:104430008C0120E030E0A9016D83FE820F83188794
:1044400029873A874B875C8760930842F09209423C
:1044500000930A4210930B4210920C4210920D42AC
:1044600010920E4210920F42409008425090094222
:1044700060900A4270900B4280900C4290900D42E6
:10448000F0900E42FB8200910F420A836894AA24A6
:10449000A4F80F2EF7E2BF2EF02DC12CD12CE12C69
:1044A000F12C00E010E0242D352D462D572D682DE0
:1044B000792D8B819A810E94B84420939042309349
:1044C00091424093924250939342609394427093EE
:1044D00095428093964290939742242D352D462DF8
:1044E000572D682D792D8B819A810E94B6440F2E0D
:1044F000F8EEAF2EF02D0F2EF3E0BF2EF02D0E9420
:10450000B8442093E4433093E5434093E64350930B
:10451000E7436093E8437093E9438093EA439093C1
:10452000EB43242D352D462D572D682D792D8B816C
:104530009A810E94B6440F2EF4E6AF2EF02DB12CD6
:104540000E94B8442093A8423093A9424093AA42C3
:104550005093AB426093AC427093AD428093AE42B5
:104560009093AF42242D352D462D572D682D792D52
:104570008B819A810E94B6440F2EFAE0AF2EF02D67
:104580000E94B84420937342309374424093754222
:104590005093764260937742709378428093794249
:1045A00090937A42242D352D462D572D682D792D47
:1045B0008B819A810E94B6442093DF423093E0427F
:1045C0004093E1425093E2426093E3427093E442AD
:1045D0008093E5429093E642F2C281E080930742E5
:1045E00080918042823009F435C130F4882369F02B
:1045F000813009F49DC0E1C2843009F44DC208F451
:10460000BAC1853009F4D7C2D8C2E091DF42F09137
:10461000E042E55CFE4B808180937A418091B0421C
:10462000882319F0109276410AC0E0919042F091EF
:104630009142E55CFE4B80818F5F80937641809153
:104640008142882309F4B9C2809182428130A9F560
:10465000F09090420091914210919242E0909342EA
:10466000EB82E0909442EA82B0919542F0919642BA
:10467000E09197422F2D302F412F5B816E2D7B2FA4
:104680008F2F9E2FA7E00E944C4509F0B0F4A1E0C7
:104690000E9437452093904230939142409392423A
:1046A00050939342609394427093954280939642C4
:1046B000909397421092824280C2809182428330CE
:1046C00009F07BC2F0909042009191421091924289
:1046D000E0909342EB82E0909442EA82B09195425E
:1046E000F0919642E09197422F2D302F412F5B8120
:1046F0006E2D7B2F8F2F9E2FA1E00E944C4509F03D
:1047000008F45BC2AFEF0E9437452093904230938C
:10471000914240939242509393426093944270939B
:10472000954280939642909397421092824245C25E
:10473000E0919042F0919142E55CFE4B80818F5F69
:10474000809376418091B042882319F01092754190
:1047500009C0E091E443F091E543E55CFE4B8081C4
:104760008093754180918142882309F426C280910B
:1047700082428130A9F5F090E4430091E543109125
:10478000E643E090E743EB82E090E843EA82B091B1
:10479000E943F091EA43E091EB432F2D302F412F75
:1047A0005B816E2D7B2F8F2F9E2FA8E00E944C45A2
:1047B00009F0B0F4A1E00E9437452093E443309320
:1047C000E5434093E6435093E7436093E843709397
:1047D000E9438093EA439093EB4310928242EDC108
:1047E00080918242833009F0E8C1F090E443009167
:1047F000E5431091E643E090E743EB82E090E84325
:10480000EA82B091E943F091EA43E091EB432F2D26
:10481000302F412F5B816E2D7B2F8F2F9E2FA0E09D
:104820000E944C4509F4C9C1AFEF0E94374520935F
:10483000E4433093E5434093E6435093E74360936A
:10484000E8437093E9438093EA439093EB431092DB
:104850008242B3C1E091E443F091E543E55CFE4B55
:104860008081809375418091B042882319F0109225
:10487000744109C0E091A842F091A942E55CFE4B69
:1048800080818093744180918142882309F495C18D
:10489000809182428130A9F5F090A8420091A9420E
:1048A0001091AA42E090AB42EB82E090AC42EA82E7
:1048B000B091AD42F091AE42E091AF422F2D302F3A
:1048C000412F5B816E2D7B2F8F2F9E2FA8E00E94A2
:1048D0004C4509F0B0F4A1E00E9437452093A8426E
:1048E0003093A9424093AA425093AB426093AC42AA
:1048F0007093AD428093AE429093AF421092824249
:104900005CC180918242833009F057C1F090A84287
:104910000091A9421091AA42E090AB42EB82E09054
:10492000AC42EA82B091AD42F091AE42E091AF422A
:104930002F2D302F412F5B816E2D7B2F8F2F9E2FA0
:10494000A0E00E944C4509F438C1AFEF0E94374502
:104950002093A8423093A9424093AA425093AB427D
:104960006093AC427093AD428093AE429093AF425D
:104970001092824222C1E091A842F091A942E55CE6
:10498000FE4B8081809374418091B042882319F05E
:104990001092734109C0E0917342F0917442E55C5A
:1049A000FE4B80818093734180918142882309F47A
:1049B00004C1809182428130A9F5F0907342009148
:1049C000744210917542E0907642EB82E09077421B
:1049D000EA82B0917842F0917942E0917A422F2DAB
:1049E000302F412F5B816E2D7B2F8F2F9E2FA8E0C4
:1049F0000E944C4509F0B0F4A1E00E943745209395
:104A00007342309374424093754250937642609360
:104A10007742709378428093794290937A421092D1
:104A20008242CBC080918242833009F0C6C0F090B0
:104A300073420091744210917542E0907642EB828D
:104A4000E0907742EA82B0917842F0917942E09129
:104A50007A422F2D302F412F5B816E2D7B2F8F2F90
:104A60009E2FA0E00E944C4509F4A7C0AFEF0E9422
:104A7000374520937342309374424093754250936C
:104A80007642609377427093784280937942909314
:104A90007A421092824291C0E0917342F091744246
:104AA000E55CFE4B8081809373418091B042882306
:104AB00019F010927A4109C0E091DF42F091E04292
:104AC000E55CFE4B808180937A418091814288230E
:104AD00009F473C0809182428130A9F5F090DF42E1
:104AE0000091E0421091E142E090E242EB82E090DE
:104AF000E342EA82B091E442F091E542E091E6427D
:104B00002F2D302F412F5B816E2D7B2F8F2F9E2FCE
:104B1000A8E00E944C4509F0B0F4A1E00E9437459E
:104B20002093DF423093E0424093E1425093E242CF
:104B30006093E3427093E4428093E5429093E642AF
:104B4000109282423AC0809182428330B1F5F09057
:104B5000DF420091E0421091E142E090E242EB82BC
:104B6000E090E342EA82B091E442F091E542E091C4
:104B7000E6422F2D302F412F5B816E2D7B2F8F2F03
:104B80009E2FA0E00E944C45C1F0AFEF0E94374538
:104B90002093DF423093E0424093E1425093E2425F
:104BA0006093E3427093E4428093E5429093E6423F
:104BB0001092824202C0109280420E94EF0C8091BB
:104BC000054281110ACD6894AA24A4F80F2EF7E2B9
:104BD000BF2EF02DC12CD12CE12CF12C00E010E0E7
:104BE0002091904230919142409192425091934253
:104BF0006091944270919542809196429091974233
:104C00000E945D44422E532E642E752E862E7A838A
:104C10008B839C83B091E443A091E543F091E643FC
:104C2000E091E7432090E8439090E943F090EA4315
:104C3000FD860091EB430D832B2F3A2F4F2F5E2FD4
:104C4000622D792D8F2D902F02E00E941545A22E06
:104C5000B32EC42ED52EE62EF72E382E192F05E0B2
:104C60000E941545032D0E944345AB2EBA2ECF2E30
:104C7000DE2EE22CF92C0D851D810E942E4503E0CD
:104C80000E941545A22EB32EC42ED52EE62EF72E49
:104C9000082F192F242D352D462D572D682D7A815B
:104CA0008B819C810E942E45222E332E442E552E20
:104CB000662E772E8A839B832091A8423091A94249
:104CC0004091AA425091AB426091AC427091AD428A
:104CD0008091AE429091AF4202E00E941545822E33
:104CE000932E4D835C83B62FA72FF82FE92F0E94B8
:104CF0001545A22EB32EC42ED52EE62EF72E082F44
:104D0000192F282D392D4D815C816B2F7A2F8F2FF4
:104D10009E2F0E942E45822E932E4D835C83B62FAC
:104D2000A72FF82FE92F02E00E941545A22EB32EDF
:104D3000C42ED52EE62EF72E082F192F282D392D0B
:104D40004D815C816B2F7A2F8F2F9E2F0E942E45D5
:104D5000A22EB32EC42ED52EE62EF72E082F192FF5
:104D6000222D332D442D552D662D772D8A819B8143
:104D70000E942E45222E332E442E552E662E772E3F
:104D80008A839B8320917342309174424091754293
:104D90005091764260917742709178428091794249
:104DA00090917A4201E00E941545822E932E4D8308
:104DB0005C83B62FA72FF82FE92F02E00E9415453C
:104DC000A22EB32EC42ED52EE62EF72E082F192F85
:104DD000282D392D4D815C816B2F7A2F8F2F9E2F9F
:104DE0000E942E45A22EB32EC42ED52EE62EF72ECF
:104DF000082F192F222D332D442D552D662D772D5B
:104E00008A819B810E942E45A090DF42B090E042B3
:104E1000C090E142D090E242E090E342F090E44260
:104E20000091E5421091E6420E942E4520930842EF
:104E30003093094240930A4250930B4260930C42D4
:104E400070930D4280930E4290930F42198111305E
:104E500049F4642F752F422F532F86E190E00E9472
:104E6000AC1317C08981823049F4642F752F422F0B
:104E7000532F8AE190E00E94AC130BC009810330EC
:104E800041F4642F752F422F532F8EE190E00E9442
:104E9000AC13E5E0F2E481E080831182128210928B
:104EA00080422D96CDBFDEBFDF91CF911F910F9134
:104EB000FF90EF90DF90CF90BF90AF909F908F903A
:104EC0007F906F905F904F903F902F9008952F921A
:104ED0003F924F925F926F927F928F929F92AF928A
:104EE000BF92CF92DF92EF92FF920F931F93CF93D7
:104EF000DF93CDB7DEB72E97CDBFDEBF8E83813077
:104F000011F586E190E00E945F137B018C0120E0A7
:104F100030E0A9016F83F88609871A872B873C87C1
:104F20004D875E8760930842F092094200930A42DF
:104F300010930B4210920C4210920D4210920E42AE
:104F400010920F4249C00E81023011F58AE190E0C3
:104F50000E945F137B018C0120E030E0A9016F8388
:104F6000F88609871A872B873C874D875E87609371
:104F70000842F092094200930A4210930B421092A9
:104F80000C4210920D4210920E4210920F4224C019
:104F90000E81033009F58EE190E00E945F137B01E2
:104FA0008C0120E030E0A9016F83F88609871A8719
:104FB0002B873C874D875E8760930842F0920942B9
:104FC00000930A4210930B4210920C4210920D4231
:104FD00010920E4210920F424090084250900942A7
:104FE00060900A4270900B4280900C4290900D426B
:104FF000F0900E42FA8200910F4209836894AA242D
:10500000A4F80F2EF7E2BF2EF02DC12CD12CE12CED
:10501000F12C00E010E0242D352D462D572D682D64
:10502000792D8A8199810E94B844209390423093CF
:105030009142409392425093934260939442709372
:1050400095428093964290939742242D352D462D7C
:10505000572D682D792D8A8199810E94B6440F2E93
:10506000F8EEAF2EF02D0F2EF3E0BF2EF02D0E94A4
:10507000B8442093E4433093E5434093E643509390
:10508000E7436093E8437093E9438093EA43909346
:10509000EB43242D352D462D572D682D792D8A81F2
:1050A00099810E94B6440F2EF4E6AF2EF02DB12C5C
:1050B0000E94B8442093A8423093A9424093AA4248
:1050C0005093AB426093AC427093AD428093AE423A
:1050D0009093AF42242D352D462D572D682D792DD7
:1050E0008A8199810E94B6440F2EFAE0AF2EF02DEE
:1050F0000E94B844209373423093744240937542A7
:1051000050937642609377427093784280937942CD
:1051100090937A42242D352D462D572D682D792DCB
:105120008A8199810E94B6442093DF423093E04205
:105130004093E1425093E2426093E3427093E44231
:105140008093E5429093E6421A821B821C821D8264
:10515000EBC110925E4210925F422E81213019F411
:1051600010926A420BC03E81323019F41092DB4239
:1051700005C04E81433011F41092DE42809181428D
:10518000882309F4FDC080918242813031F520915D
:1051900008423091094240910A4250910B4260917D
:1051A0000C4270910D4280910E4290910F42AAE004
:1051B0000E943745209308423093094240930A42A7
:1051C00050930B4260930C4270930D4280930E42B9
:1051D00090930F421092824229C080918242833084
:1051E00029F5209108423091094240910A4250919C
:1051F0000B4260910C4270910D4280910E42909151
:105200000F42A6EF0E94374520930842309309428F
:1052100040930A4250930B4260930C4270930D42AC
:1052200080930E4290930F42109282425091084216
:1052300059834090094250900A4260900B4270900E
:105240000C4280900D4290900E4280910F428F83CD
:105250006894AA24A4F80F2EF7E2BF2EF02DC12CDB
:10526000D12CE12CF12C00E010E0252F342D452D20
:10527000562D672D782D892D9F810E94B844022FCD
:10528000132FF801E55CFE4B80810F2EFFE62F2ED9
:10529000F1E43F2EF02DD10117968C93E12CF12CE7
:1052A00000E010E02981342D452D562D672D782DF5
:1052B000892D9F810E94B6440F2EF8EEAF2EF02D5F
:1052C0000F2EF3E0BF2EF02D0E94B844022F132FB3
:1052D000F801E55CFE4B8081F1018683E12CF12C25
:1052E00000E010E02981342D452D562D672D782DB5
:1052F000892D9F810E94B6440F2EF4E6AF2EF02D2B
:10530000B12C0E94B844022F132FF801E55CFE4B2C
:105310008081D10115968C93E12CF12C00E010E0F6
:105320002981342D452D562D672D782D892D9F816E
:105330000E94B6440F2EFAE0AF2EF02D0E94B84422
:10534000022F132FF801E55CFE4B8081F10184836D
:10535000E12CF12C00E010E02981342D452D562D53
:10536000672D782D892D9F810E94B6443983022FA5
:10537000132FF801E55CFE4B8081D1011B968C93C5
:10538000BE81B13061F520910842309109424091CF
:105390000A4250910B4260910C4270910D428091F3
:1053A0000E4290910F420E94343F6093D14170931E
:1053B000D2418093D3419093D4418E810E94CE1CE0
:1053C000A0E0B0E080931D4290931E42A0931F4244
:1053D000B09320428A839B83AC83BD835DC0EE8102
:1053E000E23061F5209108423091094240910A4231
:1053F00050910B4260910C4270910D4280910E428F
:1054000090910F420E94343F6093A0417093A1415C
:105410008093A2419093A3418E810E94CE1CA0E074
:10542000B0E08093214290932242A0932342B09314
:1054300024428A839B83AC83BD832EC0FE81F330DC
:1054400059F5209108423091094240910A42509109
:105450000B4260910C4270910D4280910E429091EE
:105460000F420E94343F6093DB417093DC41809394
:10547000DD419093DE418E810E94CE1CA0E0B0E021
:105480008093254290932642A0932742B0932842CE
:105490008A839B83AC83BD83EA80FB800C811D8162
:1054A000EF28E02AE12A99F10E81013071F4E1E15F
:1054B000F2E484859585A685B78584879587A68738
:1054C000B787802F0E9469192DC01E81123071F498
:1054D000E1E1F2E480899189A289B389808B918B83
:1054E000A28BB38B812F0E9469191CC02E8123309F
:1054F000C9F4E1E1F2E484899589A689B789848BAE
:10550000958BA68BB78B822F0E9469190BC08A815D
:105510009B81AC81BD81892B8A2B8B2B19F48E81C9
:105520000E9469190E94EF0C80910542882321F0A6
:105530008091064281110DCE9E81913069F4409197
:1055400008425091094260910A4270910B4286E1F3
:1055500090E00E94AC131FC0AE81A23069F440916C
:1055600008425091094260910A4270910B428AE1CF
:1055700090E00E94AC130FC0BE81B33061F4409143
:1055800008425091094260910A4270910B428EE1AB
:1055900090E00E94AC132E96CDBFDEBFDF91CF917D
:1055A0001F910F91FF90EF90DF90CF90BF90AF9041
:1055B0009F908F907F906F905F904F903F902F9033
:1055C00008958F929F92AF92BF92CF92DF92EF9207
:1055D000FF920F931F93CF93C82F10927741813082
:1055E00079F48AE090E00E945413A0E0B0E0809348
:1055F000FA419093FB41A093FC41B093FD4121C03F
:10560000823079F48CE090E00E945413A0E0B0E086
:105610008093FA419093FB41A093FC41B093FD41EC
:1056200010C0833071F48EE090E00E945413A0E02B
:10563000B0E08093FA419093FB41A093FC41B0937A
:10564000FD41C090FA41D090FB41E090FC41F090C8
:10565000FD41C701B60128EE33E040E050E00E9472
:10566000F94320939F410F2EF4E68F2E912CA12C0D
:10567000B12CF02DA50194010E94F943209398428A
:10568000C701B601A50194010E94F9430F2EFAE06B
:105690008F2E912CA12CB12CF02DA50194010E94EC
:1056A000F9432093A442C701B601A50194010E94C9
:1056B000F94360935A42FFC081E080930742809192
:1056C0008042823009F482C030F4882359F081305E
:1056D00009F442C0EEC0833009F4B2C0843009F44A
:1056E000E6C0E7C0E0915A42F0E0E55CFE4B808105
:1056F000809373418091B042882319F010927641D3
:1057000008C0E0919F41F0E0E55CFE4B8081809312
:10571000764180918142882309F4CBC080918242F6
:10572000813051F480919F41811106C08F5F809339
:105730009F4110928242BDC080918242833009F025
:10574000B8C080919F41882309F4B3C081508093F1
:105750009F4110928242ADC0E0919F41F0E0E55C34
:10576000FE4B8081809376418091B042882319F06E
:105770001092754108C0E0919842F0E0E55CFE4B64
:1057800080818093754180918142882309F491C082
:1057900080918242813051F480919842853030F47A
:1057A0008F5F809398421092824283C080918242A0
:1057B000833009F07EC080919842882309F479C033
:1057C0008150809398421092824273C0E091984237
:1057D000F0E0E55CFE4B8081809375418091B042A2
:1057E000882319F01092744108C0E091A442F0E0BF
:1057F000E55CFE4B808180937441809181428823D7
:1058000009F457C080918242813051F48091A442C2
:10581000893030F48F5F8093A4421092824249C055
:1058200080918242833009F044C08091A442882351
:1058300009F43FC081508093A4421092824239C043
:10584000E091A442F0E0E55CFE4B808180937441DE
:105850008091B042882319F01092734108C0E09102
:105860005A42F0E0E55CFE4B808180937341809169
:1058700081428823F1F080918242813051F48091FD
:105880005A42893030F48F5F80935A42109282429C
:1058900010C080918242833061F480915A42882303
:1058A00041F0815080935A421092824202C010927D
:1058B00080420E94EF0C809105428111FDCE209123
:1058C0009F4188EE93E0289FA001299F500D11244D
:1058D0008A01550F220B330B8091984244E6849F36
:1058E000C0011124092E000CAA0BBB0BAC01BD0199
:1058F000400F511F621F731F2091A44230E0C90165
:10590000880F991F220F331F220F331F220F331FBF
:10591000820F931F092E000CAA0BBB0B840F951F3F
:10592000A61FB71F20915A42BC01CD01620F711D05
:10593000811D911D6093FA417093FB418093FC415E
:105940009093FD41C13029F48AE090E00E948F13CA
:105950000DC0C23029F48CE090E00E948F1306C085
:10596000C33021F48EE090E00E948F13E5E0F2E472
:1059700081E080831182128210928042CF911F9128
:105980000F91FF90EF90DF90CF90BF90AF909F90DE
:105990008F900895CF93C82F4CE062E080E00E9482
:1059A000D90549C0EFE6F1E48AE183838AE2828384
:1059B0008EE18183AC2FB0E0A55CBE4B8C918083DF
:1059C000178216822091A6428DEC289F812D1124EA
:1059D000869586958695A82FB0E0A55CBE4B9C91D8
:1059E0009583880F982F990F990F890FA22FA81BC5
:1059F000B0E0A55CBE4B8C9184831086809181427F
:105A00008823B9F080918242813041F4243030F40F
:105A1000220F2093A642109282420BC080918242B4
:105A2000833039F4223028F026952093A642109234
:105A300082420E94EF0C80910542882321F08091E0
:105A400006428111AFCFC13039F46091A64287E0A0
:105A500090E00E946C1311C0C23039F46091A642EC
:105A600088E090E00E946C1308C0C33031F460916C
:105A7000A64289E090E00E946C13CF910895CF93E5
:105A8000C82F4CE062E080E00E94D90549C0EFE6F3
:105A9000F1E480E683838AE7828382E08183AC2F0E
:105AA000B0E0A55CBE4B8C9180831782168220915A
:105AB000DF418DEC289F812D112486958695869552
:105AC000A82FB0E0A55CBE4B9C919583880F982FC2
:105AD000990F990F890FA22FA81BB0E0A55CBE4BB0
:105AE0008C9184831086809181428823B9F08091C3
:105AF0008242813041F42C3330F42F5F2093DF4118
:105B0000109282420BC080918242833039F422236A
:105B100029F021502093DF41109282420E94EF0C25
:105B200080910542882321F0809106428111AFCFF8
:105B3000C13039F46091DF4184E090E00E946C1341
:105B400011C0C23039F46091DF4185E090E00E94DD
:105B50006C1308C0C33031F46091DF4186E090E0FF
:105B60000E946C13CF9108953F924F925F926F9273
:105B70007F928F929F92AF92BF92CF92DF92EF92DD
:105B8000FF920F931F93CF93DF93C82F109206427B
:105B90004CE062E080E00E94D905C130C9F584E0A4
:105BA00090E00E944A138093DF4187E090E00E94DA
:105BB0004A138093A6428AE090E00E945413A0E02A
:105BC000B0E08093FA419093FB41A093FC41B093E5
:105BD000FD4186E190E00E945F138B019C010093E0
:105BE00008421093094220930A4230930B421092CC
:105BF0000C4210920D4210920E4210920F4280E120
:105C000090E00E9454138093E1439093E24375C067
:105C1000C230C9F585E090E00E944A138093DF41CD
:105C200088E090E00E944A138093A6428CE090E0C6
:105C30000E945413A0E0B0E08093FA419093FB419E
:105C4000A093FC41B093FD418AE190E00E945F1374
:105C50008B019C01009308421093094220930A4251
:105C600030930B4210920C4210920D4210920E4251
:105C700010920F4282E190E00E9454138093E1431E
:105C80009093E2433AC0C330C1F586E090E00E94B1
:105C90004A138093DF4189E090E00E944A13809389
:105CA000A6428EE090E00E945413A0E0B0E0809302
:105CB000FA419093FB41A093FC41B093FD418EE1EA
:105CC00090E00E945F138B019C01009308421093A7
:105CD000094220930A4230930B4210920C421092D8
:105CE0000D4210920E4210920F4284E190E00E9409
:105CF00054138093E1439093E2434090FA415090D3
:105D0000FB416090FC417090FD41C301B20128EE5F
:105D100033E040E050E00E94F94320939F410F2E72
:105D2000F4E68F2E912CA12CB12CF02DA50194011D
:105D30000E94F94320939842C301B201A501940146
:105D40000E94F9430F2EFAE08F2E912CA12CB12C3A
:105D5000F02DA50194010E94F9432093A442C301B0
:105D6000B201A50194010E94F94360935A42309018
:105D700008424090094250900A4260900B42709055
:105D80000C4280900D4290900E42D0910F42689448
:105D9000AA24A4F80F2EF7E2BF2EF02DC12CD12C8F
:105DA000E12CF12C00E010E0232D342D452D562D53
:105DB000672D782D892D9D2F0E94B8442093904205
:105DC0003093914240939242509393426093944215
:105DD000709395428093964290939742232D342D51
:105DE000452D562D672D782D892D9D2F0E94B64467
:105DF0000F2EF8EEAF2EF02D0F2EF3E0BF2EF02D6C
:105E00000E94B8442093E4433093E5434093E64333
:105E10005093E7436093E8437093E9438093EA43E8
:105E20009093EB43232D342D452D562D672D782D42
:105E3000892D9D2F0E94B6440F2EF4E6AF2EF02D33
:105E4000B12C0E94B8442093A8423093A9424093B9
:105E5000AA425093AB426093AC427093AD428093A0
:105E6000AE429093AF42232D342D452D562D672DF4
:105E7000782D892D9D2F0E94B6440F2EFAE0AF2E6B
:105E8000F02D0E94B84420937342309374424093A3
:105E90007542509376426093774270937842809334
:105EA000794290937A42232D342D452D562D672D1E
:105EB000782D892D9D2F0E94B6442093DF42309388
:105EC000E0424093E1425093E2426093E342709398
:105ED000E4428093E5429093E6424091E143509141
:105EE000E2434A0196948794969487949694879473
:105EF000969487949401A7E4B3E00E944344FC0184
:105F0000F695E795F695E795F695E795E093FF41C9
:105F100020E137E2E29FC001E39F900DF29F900DD8
:105F200011249A01281B390B36952795369527950C
:105F300036952795A5ECB0E20E9443449295829550
:105F40008F7089279F7089278093D9429A0136954F
:105F5000279536952795369527950E944344929527
:105F600082958F7089279F70892768EE73E0869FDE
:105F70009001879F300D969F300D1124CA01821B1E
:105F8000930B9C013695279536952795ABE7B4E1A1
:105F90000E94434496958795809300429A013695D6
:105FA0002795369527950E9443449C013695279561
:105FB00064E6629FC001639F900D11249A01281B23
:105FC000390BADECBCEC0E944344969587959695B1
:105FD0008795969587958093DA419A010E9443446C
:105FE0009695879596958795969587959C01220F0E
:105FF000331F880F991F880F991F880F991F820FD1
:10600000931F9A01281B390B2093A042D1E069C14C
:1060100080918142882399F080918242813031F4CD
:10602000D73020F4DF5F1092824209C08091824213
:10603000833029F4DD2319F0D15010928242ED2FE4
:10604000F0E0E55CFE4B8081809377418D2F90E0FE
:106050008830910508F043C1FC01E058FC4F0C94D6
:106060003A44EFE6F1E41382128280E681838AE704
:106070008083178216824091DF418DEC489F812DED
:106080001124869586958695282F30E0255C3E4B19
:10609000D9019C919583880F982F990F990F890F9B
:1060A000A42FA81BB0E0A55CBE4B8C918483138603
:1060B00080910642882309F412C18C2F0E943F2D43
:1060C0000EC1EFE6F1E413828AE182838AE28183E2
:1060D0008EE18083178216824091A6428DEC489F04
