S01400005069675F5363616C65732D322E73726563D7
S11306000C941E040C943D040C943D040C943D0481
S11306100C943D040C943D040C943D040C943D0452
S11306200C943D040C943D040C943D040C943D0442
S11306300C943D040C943D040C943D040C943D0432
S11306400C943D040C943D040C943D040C943D0422
S11306500C943D040C943D040C943D040C943D0412
S11306600C943D040C943D040C943D040C943D0402
S11306700C943D040C943D040C943D040C944A04E5
S11306800C943D040C943D040C943D040C943D04E2
S11306900C943D040C943D040C943D040C943D04D2
S11306A00C943D040C943D040C943D040C94F616F7
S11306B00C943D040C943D040C94A2040C943D044D
S11306C00C943D040C943D040C943D040C943D04A2
S11306D00C9476040C943D040C943D040C943D0459
S11306E00C943D040C943D040C943D040C943D0482
S11306F00C943D040C943D040C943D040C943D0472
S11307002C0FB90ED10EE80EFE0E140F2A0F182965
S1130710E0270F283F286D28A628DC2816298C29D5
S11307209029942998299E29A229A629682AD22A9F
S11307303B2BA32B0D2C772CDE2C6E616E00696E87
S1130740660000407A10F35A00A0724E1809001097
S1130750A5D4E80000E87648170000E40B54020032
S113076000CA9A3B000000E1F5050000809698005D
S1130770000040420F000000A08601000000102786
S113078000000000E8030000000064000000000016
S11307900A00000000000100000000002C76D88848
S11307A0DC674F0823DFC1DFAE59E1B1B796E5E35B
S11307B0E453C63AE651997696E8E6C28426EB8974
S11307C08C9B62ED407C6FFCEFBC9C9F40F2BAA511
S11307D06FA5F490055A2AF75C936B6CF9676DC1A9
S11307E01BFCE0E40D47FEF520E6B500D0ED902EAD
S11307F00300943577050080841E080000204E0A0B
S1130800000000C80C333333330F986E1283114148
S1130810EF8D2114893BE65516CFFEE6DB18D18413
S11308204B381BF77C1D901DA4BBE424203284723A
S11308305E228100C9F124ECA1E53D2711241FBEED
S1130840CFEFCDBFDFE7DEBF11E4A0E0B0E4ECE022
S1130850F0E800E00BBF02C007900D92AE36B1077E
S1130860D9F722E5AEE6B1E401C01D92AE38B20775
S1130870E1F70E949D100C9404400C9400030E9424
S11308808C120895E4E0F4E0908192609083809368
S1130890615108951F920F920FB60F9211240BB657
S11308A00F928F939F93EF93FF9380912408882353
S11308B0E4F78091E350E82FF0E090912008E851AC
S11308C0FF4A9083893110F01092E3508091E350F5
S11308D08F5F8093E350FF91EF919F918F910F90E1
S11308E00BBE0F900FBE0F901F9018951F920F9282
S11308F00FB60F9211240BB60F928F939F93EF9321
S1130900FF93809164088823E4F780916A51E82F6B
S1130910F0E090916008EF57FE4A90838A3F10F010
S113092010926A5180916A518F5F80936A51FF914E
S1130930EF919F918F910F900BBE0F900FBE0F9070
S11309401F9018951F920F920FB60F9211240BB699
S11309500F922F933F934F935F936F937F938F9354
S11309609F93AF93BF93EF93FF9381E080934B0AE0
S11309700E9448050E94EC0580912D51811105C00B
S1130980E7E4F1E51182128205C0EDE2F1E5808130
S11309908150808380916151811106C0E4E0F4E0CC
S11309A080818D7F808303C0815080936151EDE20B
S11309B0F1E5818192810196818392838181928183
S11309C0803D974028F0E8E0F1E510821182128220
S11309D0EDE2F1E583819481019683839483809190
S11309E015518F5F80931551833348F081E09091C6
S11309F07351911180E08093735110921551FF91BE
S1130A00EF91BF91AF919F918F917F916F915F9182
S1130A104F913F912F910F900BBE0F900FBE0F90EF
S1130A201F901895CF93C82F80914651813019F4A7
S1130A308C2F0E941D2D80914651833019F48C2FE8
S1130A400E94322D80E090E0CF9108958EE0809353
S1130A5000048DE08093200485E580934004109287
S1130A606004109280048CE08093A00487EF80934C
S1130A70C0041092040410922404109244041092AE
S1130A806404109284041092A4041092C40408957F
S1130A9032E02FC0E4ECF4E080818D7F808380918C
S1130AA0704194E03902F0011124EF58FE4BE80F35
S1130AB0F11D808190E0022E02C0959587950A94DD
S1130AC0E2F780FF06C0E4ECF4E080818460808378
S1130AD005C0E4ECF4E080818B7F8083E4ECF4E0F7
S1130AE08081826080832F5F01C020E0283090F2F3
S1130AF031503323D4F7E4ECF4E0808181608083C7
S1130B0080818E7F8083809170418130A9F028F0AC
S1130B10823009F1833071F13BC0E4ECF4E0808170
S1130B208F7E808380818F7D808380818F7B808393
S1130B308081806880832CC0E4ECF4E080818F7E27
S1130B40808380818F7D80838081806480838081A5
S1130B508F7780831DC0E4ECF4E080818F7E8083F6
S1130B6080818062808380818F7B808380818F7786
S1130B7080830EC0E4ECF4E0808180618083808116
S1130B808F7D808380818F7B808380818F7780833A
S1130B90809170418F5F80937041843010F0109287
S1130BA07041089516C0E82FF0E0A42FB0E0A55CD2
S1130BB0BE4B2C91EE0FFF1FEE0FFF1FEF58FE4BA5
S1130BC0E90FF11D20839F5F01C090E0943058F33A
S1130BD08F5F6817D0F70895809148518111CDC077
S1130BE08091080484FD0FC08AE090E00E944204D2
S1130BF0E7E4F1E581E08283818310922E51109223
S1130C002F51109204518091080485FD10C08AE090
S1130C1090E00E944204E7E4F1E582E0828381E00F
S1130C20818310922E5110922F5110920451809171
S1130C30080486FD10C08AE090E00E944204E7E4C4
S1130C40F1E583E0828381E0818310922E5110923A
S1130C502F511092045180910804882384F08AE073
S1130C6090E00E944204E7E4F1E584E0828381E0BD
S1130C70818310922E5110922F5110920451809121
S1130C804951843051F480910851882319F010920D
S1130C90085103C081E08093085180910851882352
S1130CA091F080914951823071F480910B518111FE
S1130CB00AC080910951882319F01092095103C088
S1130CC081E08093095180910851811117C080916E
S1130CD00A51811113C080914951823079F4809175
S1130CE00C51882319F010920C5108C081E08093B4
S1130CF00C514AE062E082E00E94D20580910851E2
S1130D00882369F080914951823049F480910B51D4
S1130D10882329F0E7E4F1E580818F5F8083809167
S1130D20085181110BC080914951813039F480916F
S1130D300A51811103C081E080930A51E7E4F1E58F
S1130D4093818281981311C080914B51823020F09D
S1130D5084E180932D51089582E380932D51E7E43B
S1130D60F1E584818F5F8483089582E380932D511C
S1130D70E7E4F1E58281838314820895CF92DF92C0
S1130D80EF92FF9280E090E00E949F128093435183
S1130D9081508C3340F081E08093435161E080E0E6
S1130DA090E00E94C11281E090E00E949F12809323
S1130DB04D5181508C3340F081E080934D5161E07E
S1130DC081E090E00E94C11282E090E00E949F12B4
S1130DD080933951803240F081E08093395161E051
S1130DE082E090E00E94C11283E090E00E949F1292
S1130DF08093E2508D3340F081E08093E25061E0D3
S1130E0083E090E00E94C11284E090E00E949F126F
S1130E10809376518150843040F082E08093765103
S1130E2062E084E090E00E94C11288E090E00E94B9
S1130E30A912A0E0B0E08093635190936451A09311
S1130E406551B093665184569109A109B109853859
S1130E509340A105B10590F084E690E0A0E0B0E0F5
S1130E608093635190936451A0936551B0936651FC
S1130E7064E670E088E090E00E94E4128CE090E088
S1130E800E94B4120E9420366B017C0160934F5182
S1130E9070935051809351519093525120E038EC0B
S1130EA04FEA57E40E941037181654F020E030E45B
S1130EB04CE156E4C701B6010E9473358823A4F4BB
S1130EC080E090E4ACE1B7E480934F5190935051AB
S1130ED0A0935151B093525140E45CE960E070E05A
S1130EE08CE090E00E9401138AE090E00E94A91235
S1130EF080930151909302510A978730974260F092
S1130F0084EF91E0809301519093025164EF71E07A
S1130F108AE090E00E94E41285E090E00E949F1233
S1130F20809374518150843640F081E080937451F1
S1130F3061E085E090E00E94C11286E090E00E94AA
S1130F409F1280934E518150843640F081E080930B
S1130F504E5161E086E090E00E94C11287E090E08B
S1130F600E949F1280938051833038F010928051F8
S1130F7060E087E090E00E94C1120E9446298091BF
S1130F8032518C3328F060E080E00E948129FFCF49
S1130F908091385181111CC066E186E00E9481294C
S1130FA069E085E00E94812964E184E00E9481294E
S1130FB063E083E00E9481296CE082E00E94812941
S1130FC060E081E00E94812960E080E00E94812944
S1130FD0FF90EF90DF90CF9008958FE090E00E9413
S1130FE0420426E686E695E0215080409040E1F7F1
S1130FF08FE090E00E94420426E686E695E02150C8
S113100080409040E1F78FE090E00E944204089510
S1131010CF93DF93C1E7D1E41F82E091745189E259
S1131020E89F812D112482958F70A82FB0E0A55CD4
S1131030BE4B9C919E83AE2F94E6899FA0191124E8
S11310408DECA89FA12D1124A695A695A695B0E098
S1131050A55CBE4B9C919D83E89F812D11248695B0
S113106086958695880F982F990F990F890FE81BFD
S1131070F0E0E55CFE4B80818C83DF91CF91089595
S1131080CF93DF93C1E7D1E41B86E0914E5189E20F
S1131090E89F812D112482958F70A82FB0E0A55C64
S11310A0BE4B9C919A87AE2F94E6899FA019112478
S11310B08DECA89FA12D1124A695A695A695B0E028
S11310C0A55CBE4B9C919987E89F812D1124869540
S11310D086958695880F982F990F990F890FE81B8D
S11310E0F0E0E55CFE4B80818887DF91CF91089525
S11310F04F925F926F927F928F929F92AF92BF9224
S1131100CF92DF92EF92FF920F931F93CF93DF93CF
S11311100E948619AC0160E070E0C0901F51D0902D
S11311202051E0902151F090225146015701411580
S113113051056105710509F4F5C12A013B012AE055
S1131140421A510861087108E1E08A019B01065FB7
S11311501F4F2F4F3F4F0C151D052E053F0508F45B
S1131160E0E021E084149504A604B70408F420E028
S11311702E2309F481C11092045180910C518111E4
S113118004C080918051882329F080914C518F5F55
S113119080934C5180914C51833009F0BAC14AE09C
S11311A061E081E00E94D20580910C51811105C05B
S11311B080918051882309F45CC18091165181117A
S11311C058C18091A541833220F48F5F8093A5415B
S11311D002C01092A54180915B518F5F80935B5157
S11311E090E0EC01CA55DE4B209180512883FC012C
S11311F0EA56FF4FEE0FFF1FEA55FE4B80839183A3
S113120006E111E5F801C182D282E382F482FC0195
S1131210EE53FE4FEE0FFF1FEA55FE4BC082D18204
S1131220FE01E452FA4F809174518083E45DFE4FD5
S113123080914E51808386E00E943729CC5CD74F41
S11312408883C0915B51D0E085E00E943729CA5F52
S1131250D44B8883C0915B51D0E084E00E9437294D
S1131260CE5CD34B8883C0915B51D0E082E00E9476
S11312703729C25AD24B8883C0915B51D0E081E0B8
S11312800E943729C657D14B8883C0915B51D0E067
S113129080E00E943729CA54D04B88838091A541AD
S11312A090E09C01220F331F820F931F880F991F18
S11312B0880F991F6091805180960E94C11280917D
S11312C0A54190E09C01220F331F820F931F880FCA
S11312D0991F880F991F60915B5170E044960E949A
S11312E0E412F801C182D282E382F4828091A541A2
S11312F090E09C01220F331F820F931F880F991FC8
S1131300880F991FB60148960E94E4128091A54166
S113131090E09C01220F331F820F931F880F991FA7
S1131320880F991F6091745146960E94C112809152
S1131330A54190E09C01220F331F820F931F880F59
S1131340991F880F991F60914E5147960E94C112B0
S113135086E00E943729682F2091A54130E0C90119
S1131360880F991F280F391FC901880F991F880FEB
S1131370991F4A960E94C11285E00E943729682F5E
S11313802091A54130E0C901880F991F280F391F0A
S1131390C901880F991F880F991F4B960E94C1128B
S11313A084E00E943729682F2091A54130E0C901CB
S11313B0880F991F280F391FC901880F991F880F9B
S11313C0991F4C960E94C11282E00E943729682F0F
S11313D02091A54130E0C901880F991F280F391FBA
S11313E0C901880F991F880F991F4D960E94C11239
S11313F081E00E943729682F2091A54130E0C9017E
S1131400880F991F280F391FC901880F991F880F4A
S1131410991F4E960E94C11280E00E943729682FBE
S11314202091A54130E0C901880F991F280F391F69
S1131430C901880F991F880F991F4F960E94C112E6
S113144081E0F801808310920C510E94ED07FF9215
S1131450EF92DF92CF9288E490E49F938F930E945F
S11314601E3E0E94BC170F900F900F900F900F908C
S11314700F900E9440084DC0C0902351D090245139
S1131480E0902551F09026518A019B010E5C1F4F7C
S11314902F4F3F4F0C151D052E053F0570F1C090D1
S11314A02351D0902451E0902551F09026518A0187
S11314B09B010253110921093109C016D106E20624
S11314C0F306D8F0E6E1F1E585859685A785B08930
S11314D0480F591F6A1F7B1F769567955795479547
S11314E0418752876387748781859285A385B485F4
S11314F081839283A383B4830AC0A0E0B0E0809385
S1131500235190932451A0932551B09326510E94C6
S113151008081092685180911651811129C00E94C7
S1131520BC1726C0209168512F5F20936851263044
S1131530F8F0E6E1F1E51186128613861486158625
S113154016861786108AA0E0B0E081839283A38375
S1131550B48310821092685110924C5180910C51B6
S1131560811102C00E9440080E9408080E94BC1712
S1131570DF91CF911F910F91FF90EF90DF90CF906B
S1131580BF90AF909F908F907F906F905F904F909F
S113159008951F93CF93DF93CDB7DEB76E97CDBF7A
S11315A0DEBF8EE1FE013196DF01982F1D929A95E0
S11315B0E9F7DF011D928A95E9F780915B5190E08C
S11315C020916E4130916F412817390738F42F5F0D
S11315D03F4F20936E4130936F4104C010926E418F
S11315E010926F4180EF898385E18B838091E25073
S11315F08C838CE28E8380914D518F8380916E41D8
S113160090916F41FC01EA55FE4B2081298722E02D
S11316102A87DC01AA56BF4FAA0FBB1FAA55BE4B8F
S11316202C9111963C913B872C87DC01AE53BE4F25
S1131630AA0FBB1FAA55BE4B2C9111963C913D8716
S11316402E87DF01A452BA4F2C912F87A45DBE4F81
S11316502C91288BA45DBE4F2C91298BA45DBE4F89
S11316602C912A8BA45DBE4F2C912B8BA45DBE4F75
S11316702C912C8BA45DBE4F2C912D8BE05FF14FF0
S113168020812E8B9F8B888F81E090E009C0E1E060
S1131690F0E0EC0FFD1FE80FF11D2081920F8F5F2A
S11316A08C31A8F39D8F81EF8E8F10E00AC0E1E0AA
S11316B0F0E0EC0FFD1FE10FF11D80810E94322D3F
S11316C01F5F1E31A0F36E96CDBFDEBFDF91CF91B9
S11316D01F9108951F93CF93DF93CDB7DEB72A9759
S11316E0CDBFDEBF9AE0FE013196DF01292F1D92A6
S11316F02A95E9F7DF011D929A95E9F790EF99830E
S113170095E19B839091E2509C838D838CE28E8340
S113171080914D518F8381E090E009C0E1E0F0E0D9
S1131720EC0FFD1FE80FF11D2081920F8F5F8830B1
S1131730A8F3998781EF8A8710E00AC0E1E0F0E01E
S1131740EC0FFD1FE10FF11D80810E94322D1F5F00
S11317501A30A0F32A96CDBFDEBFDF91CF911F913F
S11317600895EF92FF920F931F93CF93DF93C0E0FE
S113177063C10C2F10E0F801EF57FE4A8081803FCF
S113178009F052C0F801EE57FE4A9081913009F0F9
S11317904BC0F801ED57FE4A9081913009F044C0E6
S11317A0F801EB57FE4A908191113EC0F801E657CB
S11317B0FE4A9081913FC1F5E4E2F4E080818860C3
S11317C0808390E081E008C0F801E80FF11DEF5735
S11317D0FE4A2081920F8F5F8830B0F3F801E757FB
S11317E0FE4A8081981318C0F801EC57FE4A908194
S11317F08091E250981310C0C4E2D4E088818460E0
S113180088830E94C90A8CEC9CE10197F1F700C01F
S1131810000088818B7F88830E94592DE4E2F4E0E4
S11318208081877F80830BC1803F09F0A1C0F801CC
S1131830EE57FE4A9081913009F09AC0F801EB57B7
S1131840FE4A9081993009F093C0F801E057FE4AAE
S11318509081913F09F08CC0E4E2F4E080818860DB
S1131860808390E081E008C0F801E80FF11DEF5794
S1131870FE4A2081920F8F5F8E30B0F3F801E1575A
S1131880FE4A808198136CC0F801E757FE4A8081B4
S1131890982F92959F70990F692F660F660F960F78
S11318A08F70692F680F86E00E948129F801E6573E
S11318B0FE4A8081982F92959F70990F692F660F29
S11318C0660F960F8F70692F680F85E00E9481293B
S11318D0F801E557FE4A8081982F92959F70990FE1
S11318E0692F660F660F960F8F70692F680F84E05B
S11318F00E948129F801E457FE4A8081982F92952D
S11319009F70990F692F660F660F960F8F70692F5E
S1131910680F82E00E948129F801E357FE4A808122
S1131920982F92959F70990F692F660F660F960FE7
S11319308F70692F680F81E00E948129F801E257B6
S1131940FE4A8081982F92959F70990F692F660F98
S1131950660F960F8F70692F680F80E00E948129AF
S11319600E94592DE4E2F4E08081877F808367C080
S1131970803F09F060C0F801EE57FE4A8081813053
S113198009F059C0F801ED57FE4A8081813009F011
S113199052C0780194E0E90EF11CF701EF57FE4ABA
S11319A08081873009F047C0F801E056FE4A808103
S11319B0813F09F040C0E4E2F4E0808188608083E4
S11319C090E081E008C0F801E80FF11DEF57FE4AEE
S11319D02081920F8F5F8E31B0F3F801E156FE4AF9
S11319E08081981328C060E070E0F801EC57FE4A4B
S11319F090818091E25098131EC0609301517093BE
S1131A0002518AE090E00E94E41204E214E0F8013A
S1131A10808184608083F701EF57FE4A80810E94B1
S1131A206A0B8CEC9CE10197F1F700C00000F8010F
S1131A3080818B7F8083CF5FCA3F08F49ACEDF9189
S1131A40CF911F910F91FF90EF90089580913051A5
S1131A5090913151883E934008F479C010923051EE
S1131A60109231510E944629E2E3F1E587816481B5
S1131A70861709F462C06093395182E090E00E94B5
S1131A80C1128CE291E0E6EAF1E4DF019C011D92CF
S1131A9021503040E1F7E2EDF2E4DF019C011D92B8
S1131AA021503040E1F7EAE2F5E4DF019C011D92A8
S1131AB021503040E1F7E2E8F7E4DF019C011D9298
S1131AC021503040E1F7EEEAF8E4DF019C011D9279
S1131AD021503040E1F7EAEDF9E4DF019C011D9269
S1131AE021503040E1F7E6E0FBE4DF019C011D9268
S1131AF021503040E1F7E2E3FCE4DF019C011D9258
S1131B0021503040E1F7EEE5FDE4DF019C011D9238
S1131B1021503040E1F7EAE8FEE4DF019C011D9228
S1131B2021503040E1F7E6EBFFE4DF019C011D9218
S1131B3021503040E1F710925B51809104518F5F46
S1131B40809304518B3018F08AE0809304510895F7
S1131B50CF92DF92EF92FF9220E836E948E15BE40E
S1131B6060914F51709150518091515190915251C7
S1131B700E94783520E030E040E85EE30E941537AB
S1131B8020E030E040E053E40E9415379B01AC01B3
S1131B900E94073520E030E040E05BE40E94153706
S1131BA06B017C01209163513091645140916551E6
S1131BB050916651A8EEB3E00E948F3B0E942036FC
S1131BC09B01AC01C701B6010E9478356B017C0111
S1131BD06091765170E080E090E00E9422369B0193
S1131BE0AC01C701B6010E94783560932751709308
S1131BF028518093295190932A51FF90EF90DF90C0
S1131C00CF9008954AE062E080E00E94D2050E94ED
S1131C10BE0686E69EE00197F1F700000E94A80D3B
S1131C2086E69EE00197F1F700000E94431986E6DC
S1131C309EE00197F1F700000E9443190E94ED070E
S1131C401092165110920451E8E0F1E510821182CD
S1131C50138212821092475110924C514CE062E070
S1131C6080E00E94D2050895A89508953CC0809113
S1131C704851882369F080914951813019F4809347
S1131C80805106C080914951833011F410928051E3
S1131C9080918051882399F080917351882331F089
S1131CA04CE061E081E00E94D2051BC0E1E7F1E471
S1131CB0178216828CEF85838CEE848312C0809108
S1131CC07351882331F04CE061E081E00E94D20539
S1131CD008C0E1E7F1E417828CEF86838EE8858300
S1131CE084830E94340E80910851882321F08091CE
S1131CF009518111BCCF6091805187E090E00E942E
S1131D00C1120895CF93109209514CE062E080E033
S1131D100E94D205C1E0A3C080914851882399F064
S1131D2080914951813031F4C63020F4CF5F109254
S1131D30495109C080914951833029F4CC2319F0C9
S1131D40C15010924951E1E7F1E4138612861186DD
S1131D50AC2FB0E0A55CBE4B8C9180878C2F90E0BB
S1131D608730910508F079C0FC01E058FC4F0C94D1
S1131D70773BE1E7F1E48AEF838388E382838EE1B2
S1131D8081839AE39083178296EB96839EED9583E5
S1131D90848380910951882309F45FC00E94360E20
S1131DA05CC0E1E7F1E48AE183838EED828390E60F
S1131DB091839083178296EB968385838EE1848347
S1131DC080910951882309F448C00E94492645C0DE
S1131DD0E1E7F1E4138286EF82838AEF81838EE167
S1131DE08083178296EB96839EED958384838091FE
S1131DF00951882391F10E94D7132FC0E1E7F1E440
S1131E0013828AED82838EE381838EED8083178231
S1131E1096EB968385838EE1848380910951882390
S1131E20E1F00E94A33319C0E1E7F1E413828AE0F0
S1131E3082838EE181839AE19083178296EB968365
S1131E409EED9583848380910951882331F00E940B
S1131E50AF2903C0C1E001C0C5E00E94340E8091E7
S1131E600851811159CF0E94020ECF910895CF934A
S1131E70DF932FEF8FE796E1215080409040E1F708
S1131E8000C0000043C180910A51813009F09DC017
S1131E9080914851882341F180914951813051F416
S1131EA080917451843630F48F5F80937451109212
S1131EB049511AC080914951833051F48091745131
S1131EC0823030F0815080937451109249510CC08B
S1131ED080914951823041F4E8E0F1E582818F5FDD
S1131EE0828314821092495180917351882331F076
S1131EF04CE061E081E00E94D20533C0C1E7D1E447
S1131F001F82E091745189E2E89F812D112482950A
S1131F108F70A82FB0E0A55CBE4B9C919E83AE2F22
S1131F2024E6829FA01911248DECA89FA12D1124D1
S1131F30A695A695A695B0E0A55CBE4B9C919D8305
S1131F40E89F812D1124869586958695880F982F74
S1131F50990F990F890FE81BF0E0E55CFE4B808137
S1131F608C83C1E7D1E41B86E0914E5189E2E89F5E
S1131F70812D112482958F70A82FB0E0A55CBE4BF3
S1131F809C919A87AE2F94E6899FA01911248DEC19
S1131F90A89FA12D1124A695A695A695B0E0A55CB1
S1131FA0BE4B9C919987E89F812D11248695869537
S1131FB08695880F982F990F990F890FE81BF0E0E9
S1131FC0E55CFE4B808188879FC080910A518230F6
S1131FD009F09AC080914851882331F18091495188
S1131FE0813051F480914E51843630F48F5F809368
S1131FF04E511092495118C080914951833051F487
S113200080914E51823030F0815080934E51109225
S113201049510AC080914951823031F4E8E0F1E538
S1132020128214821092495180917351882331F0A5
S11320304CE062E082E00E94D20533C0C1E7D1E403
S11320401B86E0914E5189E2E89F812D11248295EF
S11320508F70A82FB0E0A55CBE4B9C919A87AE2FE1
S113206024E6829FA01911248DECA89FA12D112490
S1132070A695A695A695B0E0A55CBE4B9C919987C4
S1132080E89F812D1124869586958695880F982F33
S1132090990F990F890FE81BF0E0E55CFE4B8081F6
S11320A08887C1E7D1E41F82E091745189E2E89FF7
S11320B0812D112482958F70A82FB0E0A55CBE4BB2
S11320C09C919E83AE2F94E6899FA01911248DECD8
S11320D0A89FA12D1124A695A695A695B0E0A55C70
S11320E0BE4B9C919D83E89F812D112486958695F6
S11320F08695880F982F990F990F890FE81BF0E0A8
S1132100E55CFE4B80818C830E94340E80910A51E1
S11321108111B9CE10920A516091745185E090E01A
S11321200E94C11260914E5186E090E00E94C1125B
S11321300E94ED07DF91CF9108950E943F040E9411
S1132140260560E070E082E195E00E94973D81E021
S1132150809346512FEF8FE392E0215080409040CE
S1132160E1F700C000008BEF90E40E94323E85E569
S113217090E40E94323E1F9284E08F931F928F93CB
S11321808CE890E49F938F930E941E3E86EC90E42B
S11321900E94323E8DEF90E49F938F9386E091E40A
S11321A09F938F9382E191E49F938F930E941E3EAD
S11321B085E590E40E94323E8BEF90E40E94323E2B
S11321C078940E94ED07E4E2F4E08081877F8083C5
S11321D080818B7F8083E1E7F1E4138287E6828349
S11321E086E681831082AFEFBFEF2CE2A150B040AE
S11321F02040E1F700C000000E94340E85E0809387
S1132200675110920451109283520E94BE068DB7FA
S11322109EB70C968DBF9EBFB1C00E944629C2E3F3
S1132220D1E5AE818DECA89F912D112496959695BC
S11322309695E92FF0E0E55CFE4B2081E1E7F1E4BF
S11322402383990F292F220F220F920FA91BB0E08D
S1132250A55CBE4B9C9192834D81489F912D112486
S1132260969596959695292F30E0255C3E4BD9019D
S11322702C912183990F292F220F220F920FA42F23
S1132280A91BB0E0A55CBE4B9C9190834C81489FF8
S1132290912D1124969596959695292F30E0255CDD
S11322A03E4BD9012C912783990F292F220F220FFE
S11322B0920FA42FA91BB0E0A55CBE4B9C91968302
S11322C04A81489F912D1124969596959695292F8C
S11322D030E0255C3E4BD9012C912583990F292FA1
S11322E0220F220F920FA42FA91BB0E0A55CBE4BB6
S11322F09C9194834981489F912D1124969596959C
S11323009695292F30E0255C3E4BD9012C912387EB
S1132310990F292F220F220F920FA42FA91BB0E08F
S1132320A55CBE4B9C9192879881989F812D112426
S1132330869586958695A82FB0E0A55CBE4B2C911A
S11323402187880F282F220F220F820FA92FA81B65
S1132350B0E0A55CBE4B8C91808780918352981726
S113236069F0909383528AE090E00E9442040E94B4
S1132370340E8091675181508093675180916751E9
S113238081114BCF0E94020E0E94340E0E947808E5
S11323908091085181110E94820E80910A5181110D
S11323A00E94370F0E94B10B0E94260DBFEF2FE34E
S11323B082E0B15020408040E1F700C000000E945C
S11323C0340EE4CF1092890080E0089543E068ED74
S11323D080E690E00E9432298091630080FDFCCF6A
S11323E080E0089580E008C0E82FF0E0E05FFB4F54
S11323F09081986090838F5F8830B0F380E008C04C
S1132400E82FF0E0E05DFB4F9081986090838F5F50
S11324108830B0F380E008C0E82FF0E0E05BFB4FC9
S11324209081986090838F5F8830B0F380E008C01B
S1132430E82FF0E0E059FB4F9081986090838F5F24
S11324408830B0F380E008C0E82FF0E0E057FB4F9D
S11324509081986090838F5F8830B0F380E008C0EB
S1132460E82FF0E0E055FB4F9081986090838F5FF8
S11324708830B0F380E008C0E82FF0E0E053FB4F71
S11324809081986090838F5F8830B0F3089585B30E
S1132490877F85BB84B3886084BBE3EBF4E08081F1
S11324A0877F808380818F7780838081887F80830A
S11324B085B38B7F85BB84B3846084BBE2EBF4E09B
S11324C08081877F808380818F7780838081887FEC
S11324D080830E9460160895E0EEF5E082818B7F90
S11324E08283E0E4F4E080818160808380818D7F59
S11324F080830E94112D0895E0EEF5E082818F7BA8
S11325008283E0E2F4E080818160808380818D7F3A
S113251080830E94262D08950E94F2110E94E611E4
S11325200E946C120E947C120E94032D0E94052DB1
S11325300E94E2110E94632D0E94471208958115A2
S113254022E0920710F08FEF91E0FC01FC5E8081A5
S113255008958F3F21E0920710F08EEF91E0FC0187
S1132560FC5E8081918108958D3F21E0920710F0F7
S11325708CEF91E0FC01FC5E60817181828193812A
S113258008951F93CF93DF939C01211582E03807B0
S1132590B0F4909102109370E1F7162FE90143E132
S11325A06DE980E090E10E943229DC5E188340E00E
S11325B06DE980E090E10E94322981E001C080E071
S11325C0DF91CF911F910895CF92DF92EF92FF9206
S11325D0CF93DF938F3F21E0920758F4EC016B0116
S11325E00E94C1126D2DCE0101960E94C11281E09C
S11325F001C080E0DF91CF91FF90EF90DF90CF900A
S11326000895FF920F931F93CF93DF938D3F21E0A3
S11326109207C0F4172F062FF52E642FEC010E94A9
S1132620C1126F2DCE0101960E94C112602FCE01FE
S113263002960E94C112612FCE0103960E94C1121C
S113264081E001C080E0DF91CF911F910F91FF9055
S113265008954CE062E080E00E94D20542C0E1E7C8
S1132660F1E48EEB838382E082838AE281838AE3CE
S11326708083209143518DEC289F812D11248695D0
S113268086958695A82FB0E0A55CBE4B9C9195835A
S1132690880F982F990F990F890FA22FA81BB0E0CC
S11326A0A55CBE4B8C918483809148518823B9F0FA
S11326B080914951813041F42C3330F42F5F2093C1
S11326C04351109249510BC080914951833039F4E0
S11326D0223028F0215020934351109249510E94F6
S11326E0340E80910851882321F080910951811181
S11326F0B6CF6091435180E090E00E94C1120895EA
S11327004CE062E080E00E94D20542C0E1E7F1E4DF
S11327108EEB838382E0828380E681838AE78083F1
S113272020914D518DEC289F812D112486958695FD
S11327308695A82FB0E0A55CBE4B9C919583880F2D
S1132740982F990F990F890FA22FA81BB0E0A55CB1
S1132750BE4B8C918483809148518823B9F0809139
S11327604951813041F42C3330F42F5F20934D5183
S1132770109249510BC080914951833039F4223071
S113278028F0215020934D51109249510E94340E4B
S113279080910851882321F0809109518111B6CF8D
S11327A060914D5181E090E00E94C1120895CF9351
S11327B0109209514CE062E080E00E94D205C1E031
S11327C08BC080914851882399F080914951813080
S11327D031F4C33020F4CF5F1092495109C0809185
S11327E04951833029F4CC2319F0C1501092495136
S11327F0EC2FF0E0E55CFE4B808180937941C130A1
S113280041F008F466C0C23099F1C33009F45FC0E6
S113281061C0E1E7F1E48EEB838382E082838AE2A4
S113282081838AE3808317821682409143518DEC21
S1132830489F812D1124869586958695282F30E012
S1132840255C3E4BD9019C919583880F982F990F55
S1132850990F890FA42FA81BB0E0A55CBE4B8C91E7
S11328608483809109518823A9F10E94291332C0DD
S1132870E1E7F1E48EEB838382E0828380E6818367
S11328808AE780831782168240914D518DEC489FD0
S1132890812D1124869586958695282F30E0255C18
S11328A03E4BD9019C919583880F982F990F990FCE
S11328B0890FA42FA81BB0E0A55CBE4B8C91848328
S11328C080910951882331F00E94801303C0C1E034
S11328D001C0C2E00E94340E80910851811171CF71
S11328E0CF910895E0E2F9E0848188608483858152
S11328F081608583EDE7F1E480818E7F8083138698
S11329008EE00895EDE7F1E480818E7F8083138665
S113291080E00895E0E2F9E08481836084830E948A
S113292082140895EDE7F1E48081886080838181D9
S113293090E0880F991F81608093270984E00895AF
S11329400E94921408950E9492140895EDE7F1E410
S11329508081886080838181880F8093270983E048
S113296008950E94A6140895ADE7B1E48C91877F81
S11329708C9382E01B968C931B975096ED91FC915F
S113298051975C968D919C915D970995823019F0D1
S1132990833021F006C00E94A31408950E94B1144C
S11329A008950E948A140895E0E2F9E084818B7FFF
S11329B0848384E00895E0E2F9E084818B7F84835A
S11329C083E00895E0E2F9E0848184608483848173
S11329D0836084830E9482140895E0E2F9E0848194
S11329E08460848388E008958091250984FF19C058
S11329F0ADE7B1E45296ED91FC9153975E968D91BB
S1132A009C915F970995823019F0833021F006C0BC
S1132A100E94A31408950E94B11408950E948A1478
S1132A200895EDE7F1E48081877F8083A281B381FB
S1132A30CD010196828393838C91809328098481AC
S1132A409581019784839583892B11F083E0089500
S1132A5085E00895CF93DF93EDE7F1E48081877FEC
S1132A60808384819581019731F4E0E2F9E08481E7
S1132A708460848305C0E0E2F9E084818B7F8483F1
S1132A80EDE7F1E484819581019784839583892B13
S1132A90A9F0DF01C281D381E0E2F9E08085888377
S1132AA012968D919C911397019612968D939C93F7
S1132AB0139784818260848384E026C0ADE7B1E407
S1132AC01296ED91FC9113978091280980831296B8
S1132AD08D919C911397019612968D939C931397C5
S1132AE08C9184608C931C96ED91FC911D97589663
S1132AF08D919C91599709958250823018F40E94C7
S1132B00ED1402C00E94E214DF91CF9108958091E8
S1132B10250984FF19C0ADE7B1E45296ED91FC910B
S1132B2053975E968D919C915F970995823019F029
S1132B30833021F006C00E94A31408950E94B114AA
S1132B4008950E948A140895ADE7B1E48C918460DD
S1132B508C931C96ED91FC911D9758968D919C91A8
S1132B6059970995833039F0843041F0823049F423
S1132B700E94A31408950E94B11408950E94F414AD
S1132B8008950E948A140895E0E2F9E0858188603E
S1132B908583ADE7B1E482E01B968C931B971E9668
S1132BA0ED91FC911F975A968D919C915B97099595
S1132BB0823019F0833021F006C00E94A3140895D6
S1132BC00E94B11408950E9472140895E0E2F9E09D
S1132BD0848188608483858181608583EDE7F1E465
S1132BE080818E7F808382E083878EE00895CF93F7
S1132BF0DF93E0E2F9E08581806C858380917D41FB
S1132C0083FF07C08091250984FF03C08FE0809370
S1132C1087418091250983FF03C080E18093874128
S1132C208091250982FF03C081E180938741CDE72C
S1132C30D1E4EA85F0E0EE0FFF1FEA5FFF4B01905D
S1132C40F081E02D09958A87DF91CF91089581E085
S1132C50089585E008956115710591F090E0FC01F7
S1132C603696EE0FFF1FE358FE4B60837183FC0121
S1132C703C96EE0FFF1FE358FE4B408351830895AB
S1132C8090E0FC013696EE0FFF1FE358FE4B27E25F
S1132C9036E120833183FC013C96EE0FFF1FE3589D
S1132CA0FE4B108211820895AB01BC0180E00E94AA
S1132CB02B160895AB01BC0182E00E942B160895E7
S1132CC0E0E2F9E084E4868381EC838308959091C3
S1132CD07D4191FD37C0EDE7F1E48183892F8E7F3B
S1132CE082609EE0928724EF31E020873187877FDE
S1132CF08460808387E296E184879587108E118EA5
S1132D0086879787128E138E808B918B148E158EE7
S1132D10828B938B168E178E89E296E1848B958B2A
S1132D2010A211A2E0E2F9E08481886084838581A5
S1132D30816085838581806C85838381806C8383B6
S1132D4080E0089581E008958091250982FF07C0FD
S1132D50EDE7F1E480818E7F808382E08387809138
S1132D607D4180FD17C0EDE7F1E48D7F80838FEF17
S1132D708183A0E2B9E015968C911597806C159625
S1132D808C93159713968C9113978F7313968C933A
S1132D908385089581E008959C0190917D4192FF7F
S1132DA009C0EDE7F1E42283338364837583892FBB
S1132DB08B7F8083089590917D4190FD11C0EDE754
S1132DC0F1E491609083882321F081E0809387412E
S1132DD003C082E0809387410E94F71580E0089544
S1132DE081E0089580E00E94DB1608951F920F92FF
S1132DF00FB60F9211240BB60F922F933F934F935C
S1132E005F936F937F938F939F93AF93BF93EF934E
S1132E10FF930E94F715FF91EF91BF91AF919F919E
S1132E208F917F916F915F914F913F912F910F906F
S1132E300BBE0F900FBE0F901F90189561E070E0CD
S1132E400E94CC1660E070E080E090E00E9454168E
S1132E5084E0089561E070E00E94CC1660E070E0C8
S1132E6080E090E00E94541682E00895FF920F9350
S1132E701F93CF93DF9300D0CDB7DEB7F82E6983CD
S1132E804A8300E117E28F2D0E946716813019F4FE
S1132E9001501109C1F7012B11F1BE016E5F7F4F83
S1132EA08EE197E10E94541661E070E0CE01019634
S1132EB00E94CC1660E070E08AEB97E10E945A16FB
S1132EC00E94F21600E117E20E94A416813019F460
S1132ED001501109C9F7012B21F482E003C081E0FC
S1132EE001C080E00F900F90DF91CF911F910F915F
S1132EF0FF900895EF92FF921F93CF93DF9300D03A
S1132F00CDB7DEB7182F6A838AE289836894EE24EA
S1132F10E1F8F12C23C0812F0E9467168823D9F38E
S1132F20BE016F5F7F4F8AE297E10E94541661E011
S1132F3070E0CE0102960E94CC1660E070E08AEB4D
S1132F4097E10E945A160E94F2160E94A41681303C
S1132F50E1F3882331F081E0E81AF108E114F10487
S1132F60D1F689810F900F90DF91CF911F91FF903F
S1132F70EF90089583E008958F929F92AF92BF924D
S1132F80EF92FF920F931F93CF93DF93C6E1D1E5A6
S1132F9069817A818B819C810F2EF0E18F2EF7E27B
S1132FA09F2EA12CB12CF02DA50194010E94583B19
S1132FB0E22E2093A24169817A818B819C81A501B3
S1132FC094010E94583B0F2EF8EE8F2EF3E09F2EB3
S1132FD0A12CB12CF02DA50194010E94583BF22E96
S1132FE02093775169817A818B819C81A501940119
S1132FF00E94583B0F2EF4E68F2E912CA12CB12C5D
S1133000F02DA50194010E94583B022F2093695191
S113301069817A818B819C81A50194010E94583B2E
S11330200F2EFAE08F2E912CA12CB12CF02DA5019E
S113303094010E94583B122F2093425169817A8156
S11330408B819C81A50194010E94583B60935F5140
S113305089819A81AB81BC8181319742A105B105F7
S113306014F1EE2DF0E0E55CFE4B8081A1E7B1E4C4
S113307013968C931397EF2DF0E0E55CFE4B808163
S113308012968C931297E02FF0E0E55CFE4B808162
S11330908F5F11968C931197E12FF0E0E55CFE4B66
S11330A080818C9358C08091175190911851A091B0
S11330B01951B0911A51893E9340A105B10514F1FB
S11330C0EF2DF0E0E55CFE4B8081A1E7B1E41396BF
S11330D08C931397E02FF0E0E55CFE4B80818F5FCB
S11330E012968C931297E12FF0E0E55CFE4B808101
S11330F011968C931197E62FF0E0E55CFE4B8081EE
S11331008C9329C08091175190911851A091195115
S1133110B0911A51883E9340A105B105E4F4A1E7AA
S1133120B1E413961C921397E02FF0E0E55CFE4B9C
S113313080818F5F12968C931297E12FF0E0E55C0B
S1133140FE4B808111968C931197E62FF0E0E55C9D
S1133150FE4B80818C93DF91CF911F910F91FF9053
S1133160EF90BF90AF909F908F9008958F929F9211
S1133170AF92BF92CF92DF92EF92FF92E4E4F4E039
S113318080818B7F80838091480483FFFCCF90E013
S113319040E050E0BA011DC0E4E4F4E080818460C2
S11331A0808322E62A95F1F70000440F551F661F1D
S11331B0771F80818B7F808382E68A95F1F70000F8
S11331C08091480483FD04C04F5F5F4F6F4F7F4F72
S11331D09F5F983108F3E4E4F4E0808184608083A5
S11331E092E69A95F1F7000080818B7F80832FEF20
S11331F08FE794E0215080409040E1F700C0000048
S11332006A017B0120E4E2262091635130916451EC
S11332104091655150916651A0E1B7E20E948F3B05
S113322080901B5190901C51A0901D51B0901E5144
S1133230DC01CB01880D991DAA1DBB1D8C159D05B4
S1133240AE05BF0518F4C12CD12C76010E94A80D3F
S11332508090275190902851A0902951B0902A51E4
S1133260C701B6010E942236A50194010E94783557
S11332700E94EA35FF90EF90DF90CF90BF90AF901F
S11332809F908F9008950F931F930E94B6188B01FF
S11332909C0180911B5190911C51A0911D51B091A2
S11332A01E51801B910BA20BB30B181619061A069C
S11332B01B067CF4E6E1F1E5458156816781708562
S11332C0481B590B6A0B7B0B4583568367837087B6
S11332D010C0BB2374F4E6E1F1E5458156816781B2
S11332E07085480F591F6A1F7B1F45835683678368
S11332F07087892B8A2B8B2B61F68AE090E00E94E1
S113330042040E94340E1F910F9108954F925F92D0
S11333106F927F928F929F92AF92BF92CF92DF92E1
S1133320EF92FF920F931F93C0901B51D0901C51AA
S1133330E0901D51F0901E510E94B6182B013C01E3
S1133340209163513091645140916551509166517F
S1133350A8EEB3E00E948F3B4B015C0114141504EA
S1133360160417040CF081C080911B5190911C51DC
S1133370A0911D51B0911E5193018201081B190B9C
S11333802A0B3B0BC901B8012AE030E040E050E0D1
S11333900E94583BBA01A901440F551F661F771FAD
S11333A0DB01CA01880F991FAA1FBB1F880F991F31
S11333B0AA1FBB1F8A019B01080F191F2A1F3B1F4D
S11333C0C901B801332314F010922C5199232CF025
S11333D086169706A806B90600F580912C518F5FD2
S11333E080932C51863040F00E94431910922C5146
S11333F060E070E0CB0133C015E0C11AD108E108E8
S1133400F108C0921B51D0921C51E0921D51F092D0
S11334101E5160E070E0CB0122C016161706180694
S11334201906ECF44090015150900251052C000C07
S113343066087708641575058605970584F425E004
S1133440C20ED11CE11CF11CC0921B51D0921C5124
S1133450E0921D51F0921E5160E070E0CB0186169F
S11334609706A806B90628F007C060E070E0CB0113
S113347003C060E070E0CB012AE030E040E050E0BF
S11334800E94583BC9011F910F91FF90EF90DF906C
S1133490CF90BF90AF909F908F907F906F905F90F0
S11334A04F900895109279418AE090E00E94A91209
S11334B09C01809301519093025160E177E20E9454
S11334C0223B60930351E8EEF3E0BF010E94223BEC
S11334D060937551C901BF010E94223BE4E6F0E00C
S11334E0BF010E94223B60930551C901BF010E94A4
S11334F0223BEAE0F0E0BF010E94223B6093E750E8
S1133500C901BF010E94223B809360513DC181E00B
S113351080930B5180914751823009F485C030F477
S1133520882369F0813009F444C02CC1843009F443
S1133530F0C008F4B4C0853009F422C123C1E0917D
S11335406051F0E0E55CFE4B808180937C4180918A
S11335507351882319F01092784108C0E091035107
S1133560F0E0E55CFE4B8081809378418091485186
S1133570882309F407C180914951813051F4809125
S11335800351811106C08F5F8093035110924951FA
S1133590F9C080914951833009F0F4C080910351FE
S11335A0882309F4EFC0815080930351109249514C
S11335B0E9C0E0910351F0E0E55CFE4B808180932B
S11335C0784180917351882319F01092774109C092
S11335D0E0917551F0E0E55CFE4B80818F5F809354
S11335E0774180914851882309F4CCC08091495196
S11335F0813051F480917551893030F48F5F80931C
S1133600755110924951BEC080914951833009F0DF
S1133610B9C080917551882309F4B4C08150809356
S1133620755110924951AEC0E0917551F0E0E55CDE
S1133630FE4B80818F5F8093774180917351882303
S113364019F01092764108C0E0910551F0E0E55C74
S1133650FE4B80818093764180914851882309F400
S113366091C080914951813051F480910551893044
S113367030F48F5F809305511092495183C080913B
S11336804951833009F07EC080910551882309F4A3
S113369079C08150809305511092495173C0E091D3
S11336A00551F0E0E55CFE4B80818093764180918A
S11336B07351882319F01092754108C0E091E750C6
S11336C0F0E0E55CFE4B8081809375418091485128
S11336D0882309F457C080914951813051F4809175
S11336E0E750893030F48F5F8093E750109249514E
S11336F049C080914951833009F044C08091E7501A
S1133700882309F43FC081508093E75010924951B7
S113371039C0E091E750F0E0E55CFE4B8081809396
S1133720754180917351882319F010927C4108C02F
S1133730E0916051F0E0E55CFE4B808180937C4138
S1133740809148518823F1F080914951813051F49E
S113375080916051893030F48F5F80936051109272
S1133760495110C080914951833061F48091605176
S1133770882341F08150809360511092495102C0D6
S1133780109247510E94340E809108518111BFCE8E
S11337902091035180E197E2289FB001299F700D89
S11337A011244091755128EE33E0429FC001439F9C
S11337B0900D1124680F791F8091055194E6899F1B
S11337C0600D711D11248091E75090E09C01220F3F
S11337D0331F880F991F880F991F880F991F820F15
S11337E0931F680F791F80916051680F711D60935A
S11337F00151709302518AE090E00E94E412E8E0E3
S1133800F1E581E08083118213821092475108957B
S11338102F923F924F925F926F927F928F929F92DC
S1133820AF92BF92CF92DF92EF92FF920F931F93CA
S1133830CF93DF93CDB7DEB72597CDBFDEBF109210
S113384079418CE090E00E94B4121B012C0160933A
S11338500D5130920E5140920F51509210511092CE
S113386011511092125110921351109214516894E4
S1133870AA24A4F80F2EF7E2BF2EF02DC12CD12CD0
S1133880E12CF12C00E010E0262F332D442D552D92
S113389060E070E080E090E00E94F53B209353519B
S11338A0309354514093555150935651609357510E
S11338B0709358518093595190935A51222D332D1E
S11338C0442D552D60E070E080E090E00E94F33BD1
S11338D00F2EF8EEAF2EF02D0F2EF3E0BF2EF02DAD
S11338E00E94F53B20937B5230937C5240937D524F
S11338F050937E5260937F52709380528093815292
S113390090938252222D332D442D552D60E070E08A
S113391080E090E00E94F33B0F2EF4E6AF2EF02DF2
S1133920B12C0E94F53B20936B5130936C51409322
S11339306D5150936E5160936F5170937051809399
S1133940715190937251222D332D442D552D60E0E9
S113395070E080E090E00E94F33B0F2EFAE0AF2E7F
S1133960F02D0E94F53B20933A5130933B51409304
S11339703C5150933D5160933E5170933F5180931D
S1133980405190934151222D332D442D552D60E00B
S113399070E080E090E00E94F33B209378513093F4
S11339A0795140937A5150937B5160937C51709339
S11339B07D5180937E5190937F51F2C281E0809338
S11339C00B5180914751823009F435C130F488237A
S11339D069F0813009F49DC0E1C2843009F44DC21C
S11339E008F4BAC1853009F4D7C2D8C2E09178513D
S11339F0F0917951E55CFE4B808180937C4180910C
S1133A007351882319F0109278410AC0E091535100
S1133A10F0915451E55CFE4B80818F5F8093784137
S1133A2080914851882309F4B9C280914951813069
S1133A30A9F5F09053510091545110915551809132
S1133A4056518A83809157518983B0915851F0918E
S1133A505951E0915A512F2D302F412F5A81682FFF
S1133A607B2F8F2F9E2FA7E00E94893C09F0B0F492
S1133A70A1E00E94743C20935351309354514093DD
S1133A8055515093565160935751709358518093A8
S1133A90595190935A511092495180C28091495181
S1133AA0833009F07BC2F09053510091545110912E
S1133AB05551809156518A83809157518983B09191
S1133AC05851F0915951E0915A512F2D302F412FD7
S1133AD05A81682F7B2F8F2F9E2FA1E00E94893C53
S1133AE009F008F45BC2AFEF0E94743C2093535179
S1133AF030935451409355515093565160935751BC
S1133B00709358518093595190935A51109249513E
S1133B1045C2E0915351F0915451E55CFE4B8081D4
S1133B208F5F8093784180917351882319F01092AC
S1133B30774109C0E0917B52F0917C52E55CFE4BE9
S1133B4080818093774180914851882309F426C26B
S1133B50809149518130A9F5F0907B5200917C52BB
S1133B6010917D5280917E528A8380917F52898305
S1133B70B0918052F0918152E09182522F2D302FDA
S1133B80412F5A81682F7B2F8F2F9E2FA8E00E94F0
S1133B90893C09F0B0F4A1E00E94743C20937B526C
S1133BA030937C5240937D5250937E5260937F5267
S1133BB07093805280938152909382521092495113
S1133BC0EDC180914951833009F0E8C1F0907B52F6
S1133BD000917C5210917D5280917E528A83809113
S1133BE07F528983B0918052F0918152E091825248
S1133BF02F2D302F412F5A81682F7B2F8F2F9E2FEF
S1133C00A0E00E94893C09F4C9C1AFEF0E94743C52
S1133C1020937B5230937C5240937D5250937E523A
S1133C2060937F527093805280938152909382521A
S1133C3010924951B3C1E0917B52F0917C52E55C02
S1133C40FE4B80818093774180917351882319F0D2
S1133C501092764109C0E0916B51F0916C51E55C92
S1133C60FE4B80818093764180914851882309F4EA
S1133C7095C1809149518130A9F5F0906B51009123
S1133C806C5110916D5180916E518A8380916F5166
S1133C908983B0917051F0917151E09172512F2D3F
S1133CA0302F412F5A81682F7B2F8F2F9E2FA8E012
S1133CB00E94893C09F0B0F4A1E00E94743C209376
S1133CC06B5130936C5140936D5150936E5160938E
S1133CD06F517093705180937151909372511092FF
S1133CE049515CC180914951833009F057C1F0902A
S1133CF06B5100916C5110916D5180916E518A837A
S1133D0080916F518983B0917051F0917151E0911C
S1133D1072512F2D302F412F5A81682F7B2F8F2FD7
S1133D209E2FA0E00E94893C09F438C1AFEF0E94A5
S1133D30743C20936B5130936C5140936D5150936C
S1133D406E5160936F517093705180937151909341
S1133D5072511092495122C1E0916B51F0916C5112
S1133D60E55CFE4B8081809376418091735188237A
S1133D7019F01092754109C0E0913A51F0913B510C
S1133D80E55CFE4B80818093754180914851882386
S1133D9009F404C1809149518130A9F5F0903A5158
S1133DA000913B5110913C5180913D518A83809107
S1133DB03E518983B0913F51F0914051E09141517E
S1133DC02F2D302F412F5A81682F7B2F8F2F9E2F1D
S1133DD0A8E00E94893C09F0B0F4A1E00E94743C80
S1133DE020933A5130933B5140933C5150933D5171
S1133DF060933E5170933F51809340519093415151
S1133E0010924951CBC080914951833009F0C6C00A
S1133E10F0903A5100913B5110913C5180913D51A9
S1133E208A8380913E518983B0913F51F0914051F2
S1133E30E09141512F2D302F412F5A81682F7B2F34
S1133E408F2F9E2FA0E00E94893C09F4A7C0AFEFFA
S1133E500E94743C20933A5130933B5140933C511F
S1133E6050933D5160933E5170933F518093405124
S1133E70909341511092495191C0E0913A51F0917F
S1133E803B51E55CFE4B8081809375418091735179
S1133E90882319F010927C4109C0E0917851F09187
S1133EA07951E55CFE4B808180937C41809148513F
S1133EB0882309F473C0809149518130A9F5F090A9
S1133EC078510091795110917A5180917B518A8374
S1133ED080917C518983B0917D51F0917E51E09124
S1133EE07F512F2D302F412F5A81682F7B2F8F2FF9
S1133EF09E2FA8E00E94893C09F0B0F4A1E00E9442
S1133F00743C209378513093795140937A51509373
S1133F107B5160937C5170937D5180937E5190933B
S1133F207F51109249513AC0809149518330B1F583
S1133F30F09078510091795110917A5180917B5190
S1133F408A8380917C518983B0917D51F0917E5117
S1133F50E0917F512F2D302F412F5A81682F7B2FD5
S1133F608F2F9E2FA0E00E94893CC1F0AFEF0E94EA
S1133F70743C209378513093795140937A51509303
S1133F807B5160937C5170937D5180937E519093CB
S1133F907F511092495102C0109247510E94340E31
S1133FA08091085181110ACD6894AA24A4F80F2E97
S1133FB0F7E2BF2EF02DC12CD12CE12CF12C00E026
S1133FC010E02091535130915451409155515091EA
S1133FD05651609157517091585180915951909117
S1133FE05A510E949A3B622E732E842E952E6D8315
S1133FF079838A839B83E0917B5250907C524090DA
S11340007D5230907E5220907F52809180528C83DA
S1134010B0918152A09182522E2F352D442D532DD3
S1134020622D782F8B2F9A2F02E00E94523CA22EF1
S1134030B32EC42ED52EE62EF72EF82F192F05E019
S11340400E94523C0F2F0E94803CAE2EB52CC42CF3
S1134050D32CE22CFC800B2F1A2F0E946B3C03E024
S11340600E94523CA22EB32EC42ED52EE62EF72E3D
S1134070082F192F262D372D482D592D6D81798123
S11340808A819B810E946B3C222E332E442E552E16
S1134090662E772E89839A8320916B5130916C51CF
S11340A040916D5150916E5160916F51709170516A
S11340B0809171519091725102E00E94523C822E83
S11340C0932E4C835B83B62FA72FF82FE92F0E94E2
S11340D0523CA22EB32EC42ED52EE62EF72E082F38
S11340E0192F282D392D4C815B816B2F7A2F8F2F1F
S11340F09E2F0E946B3C822E932E4C835B83B62FA3
S1134100A72FF82FE92F02E00E94523CA22EB32ED3
S1134110C42ED52EE62EF72E082F192F282D392D33
S11341204C815B816B2F7A2F8F2F9E2F0E946B3CCB
S1134130A22EB32EC42ED52EE62EF72E082F192F1D
S1134140222D332D442D552D662D772D89819A816D
S11341500E946B3C222E332E442E552E662E772E33
S113416089839A8320913A5130913B5140913C513B
S113417050913D5160913E5170913F518091405119
S11341809091415101E00E94523C822E932E4C8327
S11341905B83B62FA72FF82FE92F02E00E94523C31
S11341A0A22EB32EC42ED52EE62EF72E082F192FAD
S11341B0282D392D4C815B816B2F7A2F8F2F9E2FC9
S11341C00E946B3CA22EB32EC42ED52EE62EF72EC3
S11341D0082F192F222D332D442D552D662D772D83
S11341E089819A810E946B3CA0907851B09079515A
S11341F0C0907A51D0907B51E0907C51F0907D51E9
S113420000917E5110917F510E946B3C20930D517F
S113421030930E5140930F515093105160931151AC
S1134220709312518093135190931451642F752FEE
S1134230422F532F8CE090E00E940113E8E0F1E557
S113424081E0808311821382109247512596CDBF5D
S1134250DEBFDF91CF911F910F91FF90EF90DF9020
S1134260CF90BF90AF909F908F907F906F905F9012
S11342704F903F902F9008952F923F924F925F92CC
S11342806F927F928F929F92AF92BF92CF92DF9262
S1134290EF92FF920F931F93CF93DF93CDB7DEB7C7
S11342A06097CDBFDEBF8CE090E00E94B4121B018A
S11342B02C0160930D5130920E5140920F51509247
S11342C010511092115110921251109213511092D8
S11342D014516894AA24A4F80F2EF7E2BF2EF02DEF
S11342E0C12CD12CE12CF12C00E010E0262F332D31
S11342F0442D552D60E070E080E090E00E94F53B95
S113430020935351309354514093555150935651E7
S113431060935751709358518093595190935A51C7
S1134320222D332D442D552D60E070E080E090E087
S11343300E94F33B0F2EF8EEAF2EF02D0F2EF3E07C
S1134340BF2EF02D0E94F53B20937B5230937C527C
S113435040937D5250937E5260937F52709380526B
S11343608093815290938252222D332D442D552DCA
S113437060E070E080E090E00E94F33B0F2EF4E6F2
S1134380AF2EF02DB12C0E94F53B20936B5130934E
S11343906C5140936D5150936E5160936F51709373
S11343A070518093715190937251222D332D442D6D
S11343B0552D60E070E080E090E00E94F33B0F2E0A
S11343C0FAE0AF2EF02D0E94F53B20933A51309342
S11343D03B5140933C5150933D5160933E517093F7
S11343E03F518093405190934151222D332D442DC0
S11343F0552D60E070E080E090E00E94F33B209354
S113440078513093795140937A5150937B51609312
S11344107C5170937D5180937E5190937F51BAC1AA
S113442010922E5110922F5110922C51C0901F5166
S1134430D0902051E0902151F0902251CD82DE8223
S1134440EF82F886CB86DC86ED86FE8620910D51C0
S113445030910E5140910F51509110516091115172
S11344607091125180911351909114510E945D36B4
S113447060934F5170935051809351519093525186
S113448021E32A95F1F700000E94A80D31E33A9543
S1134490F1F700000E94861989879A872C01612C04
S11344A0712C80914851882309F400C180914951AD
S11344B0813031F520910D5130910E5140910F51C1
S11344C0509110516091115170911251809113517A
S11344D090911451A5E00E94743C20930D513093A7
S11344E00E5140930F51509310516093115170939A
S11344F0125180931351909314511092495129C031
S113450080914951833029F520910D5130910E51FC
S113451040910F515091105160911151709112516D
S11345208091135190911451ABEF0E94743C2093ED
S11345300D5130930E5140930F515093105160938D
S113454011517093125180931351909314511092FE
S1134550495140910D51498350910E515A836091B4
S11345600F516B83709110517C8380901151909006
S1134570125180911351888B909114519F876894A4
S1134580AA24A4F80F2EF7E2BF2EF02DC12CD12CB3
S1134590E12CF12C00E010E0242F352F462F572F6B
S11345A0682D792D0E94F53B022F132FF801E55C4D
S11345B0FE4B80810F2EF1E72F2EF1E43F2EF02DDC
S11345C0D10117968C93E12CF12C00E010E02981A5
S11345D03A814B815C81682D792D88899F850E9461
S11345E0F33B0F2EF8EEAF2EF02D0F2EF3E0BF2E7F
S11345F0F02D0E94F53B022F132FF801E55CFE4BD2
S11346008081F1018683E12CF12C00E010E0298106
S11346103A814B815C81682D792D88899F850E9420
S1134620F33B0F2EF4E6AF2EF02DB12C0E94F53B98
S1134630022F132FF801E55CFE4B8081D101159602
S11346408C93E12CF12C00E010E029813A814B811C
S11346505C81682D792D88899F850E94F33B0F2EFC
S1134660FAE0AF2EF02D0E94F53B022F132FF80134
S1134670E55CFE4B8081F1018483E12CF12C00E0A8
S113468010E029813A814B815C81682D792D8889DC
S11346909F850E94F33B49835A83022F132FF8010D
S11346A0E55CFE4B8081D1011B968C93411451042F
S11346B06104710409F449C0930182010A5011098B
S11346C02109310991E0B301A201465F5F4F6F4FA9
S11346D07F4FCB84DC84ED84FE844C155D056E0530
S11346E07F0508F490E081E04B855C856D857E85CF
S11346F0401751076207730708F480E0892371F0BB
S11347006D817E818F8198856093175170931851C4
S11347108093195190931A51109268518D819E8102
S1134720AF81B885840D951DA61DB71DB695A795B7
S11347309795879580931F5190932051A093215171
S1134740B09322510E94BC171AC0809168518F5FA8
S113475080936851863098F0E6E1F1E5118612867F
S113476013861486C984DA84C601A0E0B0E081838C
S11347709283A383B483109268510E94BC172FEFD5
S11347803FE342E0215030404040E1F700C00000E8
S11347900E94340E80910851882321F080910951A0
S11347A081113ECE40910D5150910E5160910F51A7
S11347B0709110518CE090E00E9401136096CDBF7F
S11347C0DEBFDF91CF911F910F91FF90EF90DF90AB
S11347D0CF90BF90AF909F908F907F906F905F909D
S11347E04F903F902F9008958F929F92AF92BF92D7
S11347F0CF92DF92EF92FF921092794188E090E09D
S11348000E94A9126C01E12CF12CC0926351D09248
S11348106451E0926551F0926651C701B60128EEE9
S113482033E040E050E00E94363B2093A1410F2E3C
S1134830F4E68F2E912CA12CB12CF02DA50194011E
S11348400E94363B20935C51C701B601A501940137
S11348500E94363B0F2EFAE08F2E912CA12CB12C06
S1134860F02DA50194010E94363B20936251C701AB
S1134870B601A50194010E94363B60932B51FFC001
S113488081E080930B5180914751823009F482C0BA
S113489030F4882359F0813009F442C0EEC08330EB
S11348A009F4B2C0843009F4E6C0E7C0E0912B51AA
S11348B0F0E0E55CFE4B80818093754180917351FB
S11348C0882319F01092784108C0E091A141F0E0EA
S11348D0E55CFE4B80818093784180914851882328
S11348E009F4CBC080914951813051F48091A141A8
S11348F0811106C08F5F8093A14110924951BDC0C0
S113490080914951833009F0B8C08091A141882336
S113491009F4B3C081508093A14110924951ADC0B4
S1134920E091A141F0E0E55CFE4B80818093784109
S113493080917351882319F01092774108C0E09157
S11349405C51F0E0E55CFE4B80818093774180917F
S11349504851882309F491C080914951813051F420
S113496080915C51893030F48F5F80935C51109258
S1134970495183C080914951833009F07EC08091B0
S11349805C51882309F479C0815080935C51109262
S1134990495173C0E0915C51F0E0E55CFE4B8081CD
S11349A08093774180917351882319F01092764156
S11349B008C0E0916251F0E0E55CFE4B8081809399
S11349C0764180914851882309F457C08091495118
S11349D0813051F480916251893030F48F5F80933B
S11349E062511092495149C080914951833009F074
S11349F044C080916251882309F43FC08150809360
S1134A0062511092495139C0E0916251F0E0E55C85
S1134A10FE4B80818093764180917351882319F0F5
S1134A201092754108C0E0912B51F0E0E55CFE4B1B
S1134A30808180937541809148518823F1F0809161
S1134A404951813051F480912B51893030F48F5F7A
S1134A5080932B511092495110C080914951833059
S1134A6061F480912B51882341F0815080932B5124
S1134A701092495102C0109247510E94340E809105
S1134A8008518111FDCE4091A14128EE33E0429FAF
S1134A90C001439F900D1124AC01990F660B770B55
S1134AA080915C5124E6829FC0011124092E000CE0
S1134AB0AA0BBB0B840F951FA61FB71F2091625131
S1134AC030E0B901660F771F220F331F220F331F07
S1134AD0220F331F620F731FAB01770F660B770B27
S1134AE0840F951FA61FB71F20912B51BC01CD0128
S1134AF0620F711D811D911D609363517093645108
S1134B00809365519093665188E090E00E94E4128E
S1134B10E8E0F1E581E0808311821382109247512D
S1134B20FF90EF90DF90CF90BF90AF909F908F90C9
S1134B3008954CE062E080E00E94D20543C0E1E7C2
S1134B40F1E417828AE182838AE281838EE18083A1
S1134B501682209176518DEC289F812D1124869503
S1134B6086958695A82FB0E0A55CBE4B9C91958355
S1134B70880F982F990F990F890FA22FA81BB0E0C7
S1134B80A55CBE4B8C918483108680914851882308
S1134B90B9F080914951813041F4243030F4220F2E
S1134BA020937651109249510BC080914951833022
S1134BB039F4223028F026952093765110924951E9
S1134BC00E94340E80910851882321F0809109516C
S1134BD08111B5CF6091765184E090E00E94C112BA
S1134BE008954CE062E080E00E94D20543C0E1E712
S1134BF0F1E4138280E682838AE78183108217823C
S1134C0016822091E2508DEC289F812D11248695E7
S1134C1086958695A82FB0E0A55CBE4B9C919583A4
S1134C20880F982F990F990F890FA22FA81BB0E016
S1134C30A55CBE4B8C918483108680914851882357
S1134C40B9F080914951813041F42C3330F42F5F15
S1134C502093E250109249510BC080914951833006
S1134C6039F4222329F021502093E2501092495123
S1134C700E94340E80910851882321F080910951BB
S1134C808111B5CF6091E25083E090E00E94C1129F
S1134C9008952F923F924F925F926F927F928F92DC
S1134CA09F92AF92BF92CF92DF92EF92FF920F93B7
S1134CB01F93CF93DF93109209514CE062E080E0A0
S1134CC00E94D20583E090E00E949F128093E250FC
S1134CD084E090E00E949F128093765188E090E0F7
S1134CE00E94A912A0E0B0E08093635190936451B4
S1134CF0A0936551B09366518CE090E00E94B41289
S1134D00DC01CB0180930D5190930E51A0930F5170
S1134D10B0931051109211511092125110921351DC
S1134D20109214518AE090E00E94A912EC01809341
S1134D30015190930251409063515090645160909E
S1134D40655170906651C301B20128EE33E040E032
S1134D5050E00E94363B2093A1410F2EF4E68F2EA3
S1134D60912CA12CB12CF02DA50194010E94363B6D
S1134D7020935C51C301B201A50194010E94363B0A
S1134D800F2EFAE08F2E912CA12CB12CF02DA50121
S1134D9094010E94363B20936251C301B201A501E4
S1134DA094010E94363B60932B5120900D5130901A
S1134DB00E5140900F5150901051609011517090CD
S1134DC0125180901351909014516894AA24A4F81D
S1134DD00F2EF7E2BF2EF02DC12CD12CE12CF12C9B
S1134DE000E010E0222D332D442D552D662D772D16
S1134DF0882D992D0E94F53B2093535130935451A3
S1134E004093555150935651609357517093585154
S1134E108093595190935A51222D332D442D552D61
S1134E20662D772D882D992D0E94F33B0F2EF8EED9
S1134E30AF2EF02D0F2EF3E0BF2EF02D0E94F53B88
S1134E4020937B5230937C5240937D5250937E52F8
S1134E5060937F52709380528093815290938252D8
S1134E60222D332D442D552D662D772D882D992DEA
S1134E700E94F33B0F2EF4E6AF2EF02DB12C0E94CE
S1134E80F53B20936B5130936C5140936D5150938B
S1134E906E5160936F5170937051809371519093E0
S1134EA07251222D332D442D552D662D772D882DAD
S1134EB0992D0E94F33B0F2EFAE0AF2EF02D0E94A5
S1134EC0F53B20933A5130933B5140933C515093DE
S1134ED03D5160933E5170933F5180934051909364
S1134EE04151222D332D442D552D662D772D882D9E
S1134EF0992D0E94F33B209378513093795140933C
S1134F007A5150937B5160937C5170937D5180937F
S1134F107E5190937F51CE0160E177E20E94223B63
S1134F206093035128EE33E0B9010E94223B609361
S1134F307551CE01B9010E94223B24E630E0B9014B
S1134F400E94223B60930551CE01B9010E94223B8D
S1134F502AE030E0B9010E94223B6093E750CE0181
S1134F60B9010E94223B80936051C1E064C18091E9
S1134F704851882399F080914951813031F4C730E8
S1134F8020F4CF5F1092495109C080914951833078
S1134F9029F4CC2319F0C15010924951EC2FF0E0C0
S1134FA0E55CFE4B8081809379418C2F90E08830C2
S1134FB0910508F03EC1FC01E957FC4F0C94773B86
S1134FC0E1E7F1E41382128280E681838AE7808339
S1134FD0178216824091E2508DEC489F812D112456
S1134FE0869586958695282F30E0255C3E4BD90121
S1134FF09C919583880F982F990F990F890FA42F4F
S1135000A81BB0E0A55CBE4B8C9184831386809171
S11350100951882309F40DC10E94F1250AC1E1E771
S1135020F1E413828AE182838AE281838EE18083C0
S113503017821682409176518DEC489F812D112460
S1135040869586958695282F30E0255C3E4BD901C0
S11350509C919583880F982F990F990F890FA42FEE
S1135060A81BB0E0A55CBE4B8C9184831386809111
S11350700951882309F4DDC00E949925DAC0E1E7CB
S1135080F1E48CE983838AEF82839EEC91838083AD
S1135090A091A141B0E0A55CBE4B8C918783A09107
S11350A05C51B0E0A55CBE4B8C918683A0916251AB
S11350B0B0E0A55CBE4B8C918583A0912B51B0E0F0
S11350C0A55CBE4B8C9184831386809109518823FF
S11350D009F4AFC00E94F423ACC0E1E7F1E4138209
S11350E012828AE081838AE38083A0915351B09134
S11350F05451A55CBE4B8C918F5F8783A0917B52EA
S1135100B0917C52A55CBE4B8C918683A0916B516F
S1135110B0916C51A55CBE4B8C918583A0913A51A2
S1135120B0913B51A55CBE4B8C918483A091785186
S1135130B0917951A55CBE4B8C91838780910951C4
S1135140882309F476C00E94081C73C0E1E7F1E4E7
S113515080E683838CEE828382E0818386EB808386
S1135160A0910351B0E0A55CBE4B8C918783A091C4
S11351707551B0E0A55CBE4B8C918F5F8683A09186
S11351800551B0E0A55CBE4B8C918583A091E7509E
S1135190B0E0A55CBE4B8C918483A0916051B0E0DB
S11351A0A55CBE4B8C91838780910951882309F4B7
S11351B040C00E94521A3DC0E1E7F1E486EB8383CC
S11351C08AE182838AEF818380E68083A0915351B0
S11351D0B0915451A55CBE4B8C918F5F8783A09195
S11351E07B52B0917C52A55CBE4B8C918683A0917E
S11351F06B51B0916C51A55CBE4B8C918583A09191
S11352003A51B0913B51A55CBE4B8C918483A091E3
S11352107851B0917951A55CBE4B8C918387809174
S11352200951882331F00E943C2103C0C1E001C030
S1135230C6E00E94340E80910851811198CEDF910E
S1135240CF911F910F91FF90EF90DF90CF90BF907F
S1135250AF909F908F907F906F905F904F903F9012
S11352602F9008951BBEFC0164BF40830895682FEE
S113527088E60E947A17982F92959F70990F292F8C
S1135280220F220F920F8F70890F0895CF93DF930F
S113529086E00E943729C2E3D1E58E8385E00E942F
S11352A037298D8384E00E9437298C8383E00E9410
S11352B037298B8382E00E9437298A8381E00E9408
S11352C03729898380E00E9437298883DF91CF9131
S11352D008959DEC699F912D112496959695969528
S11352E020E1929FA0011124990F292F220F220F50
S11352F0920F691B6F70462B682F88E60E94361741
S11353000895962F482F50E04730510518F5FA01BB
S1135310E157FC4F0C94773B9C33E8F090E01BC0C2
S11353209C33C8F090E017C09831A8F090E013C007
S11353302FEF290F273078F091E00DC0903258F00C
S113534091E009C09D3038F091E005C0911103C08F
S113535095E101C090E0692F0E9469290895CF93D7
S1135360DF93109209514CE062E080E00E94D20584
S11353700E944629C2E3D1E5AE818DECA89F912D10
S11353801124969596959695E92FF0E0E55CFE4BF1
S11353902081E1E7F1E42383990F292F220F220FC3
S11353A0920FA91BB0E0A55CBE4B9C9192834D81EA
S11353B0489F912D1124969596959695292F30E026
S11353C0255C3E4BD9012C912183990F292F220F63
S11353D0220F920FA42FA91BB0E0A55CBE4B9C9199
S11353E090834C81489F912D11249695969596957E
S11353F0292F30E0255C3E4BD9012C912783990F4E
S1135400292F220F220F920FA42FA91BB0E0A55C15
S1135410BE4B9C9196834A81489F912D1124969569
S113542096959695292F30E0255C3E4BD9012C9119
S11354302583990F292F220F220F920FA42FA91B26
S1135440B0E0A55CBE4B9C9194834981489F912D0B
S11354501124969596959695292F30E0255C3E4B20
S1135460D9012C912387990F292F220F220F920FF4
S1135470A42FA91BB0E0A55CBE4B9C919287A88188
S1135480A89F812D1124869586958695C82FD0E0F6
S1135490C55CDE4B98819187880F982F990F990FDF
S11354A0890FA81BB0E0A55CBE4B8C9180878AC293
S11354B081E080930B51E09147518E2F90E087302B
S11354C0910508F07DC2FC01EA56FC4F0C94773B31
S11354D0E09132518DECE89F812D112486958695BB
S11354E08695A82FB0E0A55CBE4B9C91A1E7B1E4E2
S11354F019969C931997880F982F990F990F890FD4
S1135500E81BF0E0E55CFE4B808118968C931897BD
S113551080917351882321F0FD01138212821FC0F0
S1135520E09138518DECE89F812D11248695869564
S11355308695A82FB0E0A55CBE4B9C91A1E7B1E491
S113554013969C931397880F982F990F990F890F8F
S1135550E81BF0E0E55CFE4B808112968C93809111
S11355604851882309F42CC280914951813051F467
S113557080913851833630F48F5F80933851109284
S113558049511EC280914951833009F019C280915A
S11355903851882309F414C28150809338511092F1
S11355A049510EC2E09138518DECE89F812D1124B0
S11355B0869586958695A82FB0E0A55CBE4B9C91F8
S11355C0A1E7B1E413969C931397880F982F990F32
S11355D0990F890FE81BF0E0E55CFE4B8081129681
S11355E08C93129780917351882321F0FD011182CD
S11355F010821EC0E09137518DECE89F812D11245B
S1135600869586958695A82FB0E0A55CBE4B9C91A7
S1135610A1E7B1E411969C931197880F982F990FE5
S1135620990F890FE81BF0E0E55CFE4B80818C93B9
S113563080914851882309F4C3C180914951813034
S113564051F4809137518C3030F48F5F809337510F
S113565010924951B5C180914951833009F0B0C1CC
S113566080913751823008F4ABC181508093375117
S113567010924951A5C1E09137518DECE89F812DDD
S11356801124869586958695A82FB0E0A55CBE4B1F
S11356909C91A1E7B1E411969C931197880F982FE0
S11356A0990F990F890FE81BF0E0E55CFE4B8081B0
S11356B08C9380917351882321F0FD011782168207
S11356C01FC0E09136518DECE89F812D1124869501
S11356D086958695A82FB0E0A55CBE4B9C91A1E76A
S11356E0B1E417969C931797880F982F990F990FE9
S11356F0890FE81BF0E0E55CFE4B808116968C93E5
S113570080914851882309F45BC1809149518130CB
S113571051F4809136518F3130F48F5F809336513C
S1135720109249514DC180914951833009F048C1CB
S113573080913651823008F443C1815080933651B0
S1135740109249513DC1E09136518DECE89F812D75
S11357501124869586958695A82FB0E0A55CBE4B4E
S11357609C91A1E7B1E417969C931797880F982F03
S1135770990F990F890FE81BF0E0E55CFE4B8081DF
S113578016968C93169780917351882321F0FD010E
S1135790158214821FC0E09134518DECE89F812D55
S11357A01124869586958695A82FB0E0A55CBE4BFE
S11357B09C91A1E7B1E415969C931597880F982FB7
S11357C0990F990F890FE81BF0E0E55CFE4B80818F
S11357D014968C9380914851882309F4F1C08091E8
S11357E04951813051F480913451873130F48F5FC5
S11357F08093345110924951E3C0809149518330D0
S113580009F0DEC080913451882309F4D9C0815055
S11358108093345110924951D3C0E09134518DECAE
S1135820E89F812D1124869586958695A82FB0E052
S1135830A55CBE4B9C91A1E7B1E415969C9315978A
S1135840880F982F990F990F890FE81BF0E0E55CFA
S1135850FE4B808114968C93149780917351882306
S113586021F0FD01138612861FC0E09133518DECA7
S1135870E89F812D1124869586958695A82FB0E002
S1135880A55CBE4B9C91A1E7B1E41B969C931B972E
S1135890880F982F990F990F890FE81BF0E0E55CAA
S11358A0FE4B80811A968C9380914851882309F489
S11358B087C080914951813051F4809133518B33A9
S11358C030F48F5F809333511092495179C08091A5
S11358D04951833009F074C080913351882309F40D
S11358E06FC08150809333511092495169C0E09147
S11358F033518DECE89F812D1124869586958695EC
S1135900A82FB0E0A55CBE4B9C91A1E7B1E41B9627
S11359109C931B97880F982F990F990F890FE81B59
S1135920F0E0E55CFE4B80811A968C931A97809187
S11359307351882321F0FD01118610861FC0E09168
S113594032518DECE89F812D11248695869586959C
S1135950A82FB0E0A55CBE4B9C91A1E7B1E41996D9
S11359609C931997880F982F990F990F890FE81B0B
S1135970F0E0E55CFE4B808118968C938091485151
S11359808823F1F080914951813051F48091325152
S11359908B3330F48F5F809332511092495110C091
S11359A080914951833061F480913251882341F0D0
S11359B08150809332511092495102C01092475144
S11359C00E94340E80910851811172CDC2E3D1E559
S11359D06E8186E00E9481296D8185E00E94812983
S11359E06C8184E00E9481296A8182E00E9481297D
S11359F0698181E00E948129688180E00E94812977
S1135A00DF91CF91089580E00895E0E4FAE081E029
S1135A10828787E490E086A397A38FE0808380E069
S1135A200895E0E2F8E080E098E18087918784E9D6
S1135A30858380EC868380E008959091240895FF07
S1135A40FCCF8093220881E090E00895E0E6F8E03E
S1135A5080E098E18087918784E9858380EC868360
S1135A6080E008959091640895FFFCCF80936208CC
S1135A7081E090E008950F931F93CF93DF938C01FF
S1135A80C0E0D0E007C0F801EC0FFD1F80810E9448
S1135A90322D2196F80101900020E9F73197E01B9F
S1135AA0F10BCE17DF0778F3DF91CF911F910F91A0
S1135AB008958AEFE1E8F1E5DF011D928A95E9F79F
S1135AC010926A5108954AE068ED80E091E00E94E6
S1135AD0322980E00895CF93C0E0C130A1F028F0CE
S1135AE0C23069F1C33081F133C088E491E40E948B
S1135AF03B2D2FEF8FEF9CE2215080409040E1F747
S1135B0000C0000025C08CE491E40E943B2D8091EC
S1135B104451805D0E94322D8091A341805D0E949A
S1135B20322D80910651805D0E94322D8091E55086
S1135B30805D0E94322D8DE00E94322D09C081E5E6
S1135B4091E40E943B2D04C087E591E40E943B2D23
S1135B5080E09DC0C11125C0282F30E0F901EF5726
S1135B60FE4A90819F34E9F4F901EE57FE4A908190
S1135B709B34B9F4F901ED57FE4A90819D3089F4C4
S1135B8083E090E00E9442042FEF8FE392E02150E3
S1135B9080409040E1F700C000000E94592DC1E010
S1135BA079C0C13029F5282F30E0F901EF57FE4ABA
S1135BB090819F34E9F4F901EE57FE4A90819B34B9
S1135BC0B9F4F901ED57FE4A90819D3089F483E0E0
S1135BD090E00E9442042FEF8FE392E02150804036
S1135BE09040E1F700C000000E94592DC2E052C06D
S1135BF0C23029F5282F30E0F901EF57FE4A908191
S1135C009F34E9F4F901EE57FE4A90819B34B9F4CC
S1135C10F901ED57FE4A90819D3089F483E090E0CC
S1135C200E9442042FEF8FE392E021508040904085
S1135C30E1F700C000000E94592DC3E02BC0C3301F
S1135C4029F5282F30E0F901EF57FE4A90819F345F
S1135C50E9F4F901EE57FE4A90819B34B9F4F90155
S1135C60ED57FE4A90819D3089F483E090E00E94D4
S1135C7042042FEF8FE392E0215080409040E1F7FF
S1135C8000C000000E94592DC5E004C08F5F8A3F08
S1135C9008F460CF0E94340EC53009F01ECFCF91B6
S1135CA008956F927F928F929F92BF92CF92DF92CC
S1135CB0EF92FF920F931F93CF93DF934CE062E038
S1135CC081E00E94D20580905D5190905E519401D4
S1135CD0329522952F7023273F702327A7E4B3E042
S1135CE00E94803B6C01D694C794D694C794D694F2
S1135CF0C794DC2D20E137E2C29EC001C39E900D03
S1135D00D29E900D11249401281B390B36952795AA
S1135D103695279536952795A5ECB0E20E94803BF1
S1135D207C01F694E794F694E794F694E794F69459
S1135D30E794BE2C9401369527953695279536958C
S1135D4027950E94803B929582958F7089279F703A
S1135D50892748EE53E0849F9001859F300D949FDE
S1135D60300D1124C401821B930B9C013695279599
S1135D7036952795ABE7B4E10E94803B3C017694CD
S1135D806794062D940136952795369527950E949C
S1135D90803B9C013695279544E6429FC001439F72
S1135DA0900D11249401281B390BADECBCEC0E941E
S1135DB0803BAC0156954795569547955695479522
S1135DC0C42F94010E94803B96958795969587955C
S1135DD0969587959C01220F331F880F991F880F72
S1135DE0991F880F991F820F931F9401281B390B49
S1135DF0C901122FD601A55CBE4B2C91A1E7B1E4D9
S1135E0017962C93179797013327255C3E4BF9017E
S1135E10208116962C931697F301FF27E55CFE4B21
S1135E20208115962C9315975527FA01E55CFE4BB6
S1135E30208114962C9314979927FC01E55CFE4B62
S1135E4080811B968C9377C181E080930B51809164
S1135E504751823009F489C028F4882361F08130E5
S1135E60D1F167C1843009F418C108F4C9C0853080
S1135E7009F45DC15EC1E12FF0E0E55CFE4B808179
S1135E8080937C4180917351882319F0109278415A
S1135E9007C0ED2FF0E0E55CFE4B808180937841F4
S1135EA080914851882309F444C18091495181303B
S1135EB031F4D63020F4DF5F109249513AC1809119
S1135EC04951833009F035C1DD2309F432C1D15081
S1135ED0109249512EC1ED2FF0E0E55CFE4B80811C
S1135EE08093784180917351882319F010927741FF
S1135EF007C0EB2DF0E0E55CFE4B80818093774199
S1135F0080914851882309F414C1D630B8F08091A7
S1135F104951813039F4F4E0FB1520F0B394109228
S1135F20495107C180914951833009F002C1BB2016
S1135F3009F4FFC0BA9410924951FBC080914951B1
S1135F40813039F428E02B1520F0B3941092495194
S1135F50F0C080914951833009F0EBC0BB2009F4B3
S1135F60E8C0BA9410924951E4C0EB2DF0E0E55C2E
S1135F70FE4B80818093774180917351882319F07F
S1135F801092764107C0E02FF0E0E55CFE4B808183
S1135F908093764180914851882309F4CAC0D63051
S1135FA0C8F034E03B15B0F480914951813031F4AC
S1135FB0053020F40F5F10924951BBC080914951C4
S1135FC0833009F0B6C0002309F4B3C00150109225
S1135FD04951AFC080914951813031F4093020F4E6
S1135FE00F5F10924951A5C080914951833009F047
S1135FF0A0C0002309F49DC001501092495199C0DA
S1136000E02FF0E0E55CFE4B808180937641809147
S11360107351882319F01092754107C0EC2FF0E0FA
S1136020E55CFE4B808180937541809148518823C3
S113603009F47FC0D630D8F044E04B15C0F40530E5
S1136040B0F080914951813031F4C33020F4CF5FF6
S1136050109249516EC080914951833009F069C052
S1136060CC2309F466C0C1501092495162C080919A
S11360704951813031F4C93020F4CF5F1092495135
S113608058C080914951833009F053C0CC2309F49E
S113609050C0C150109249514CC0EC2FF0E0E55C67
S11360A0FE4B80818093754180917351882319F050
S11360B010927C4107C0E12FF0E0E55CFE4B80814B
S11360C080937C4180914851882399F1D630D8F04F
S11360D084E08B15C0F40530B0F0C330A0F080919B
S11360E04951813031F4153020F41F5F1092495129
S11360F020C0809149518330E1F41123D1F0115033
S11361001092495116C080914951813031F41930AF
S113611020F41F5F109249510CC080914951833083
S113612041F4112331F011501092495102C01092E0
S113613047510E94340E80910851811185CE20E18F
S113614037E2D29FC001D39F900D112448EE53E053
S1136150B49E9001B59E300D1124820F931F9C01B3
S1136160E4E60E9F200D311D1124D0E0CE01880FEE
S1136170991FCC0FDD1FCC0FDD1FCC0FDD1F8C0F43
S11361809D1F820F931F810F911D80935D519093EA
S11361905E51292F22952F7020934451109245511E
S11361A09C013F703093A3411092A4419C0133277A
S11361B0329522952F7023273F7023272093065171
S11361C0309307518F7099278093E5509093E65050
S11361D00E946B2DE8E0F1E581E080831182138257
S11361E010924751DF91CF911F910F91FF90EF9043
S11361F0DF90CF90BF909F908F907F906F90089585
S1136200CF93C0E0C130A1F028F0C230D1F1C33047
S1136210E9F140C088E491E40E943B2D2FEF8FEF19
S11362209CE2215080409040E1F700C0000032C061
S11362308DE591E40E943B2DE091E450F0E0EE0FF7
S1136240FF1FE65DFF4B80819181992314F48150F7
S11362509F4F892F0E94322DE091E450F0E0EE0F21
S1136260FF1FE65DFF4B80819181907899231CF498
S113627001979F6F01960E94322D8DE00E94322D6E
S113628009C081E591E40E943B2D04C087E591E4B7
S11362900E943B2D80E09DC0C11125C0282F30E015
S11362A0F901EF57FE4A90819F34E9F4F901EE5762
S11362B0FE4A90819B34B9F4F901ED57FE4A90816E
S11362C09D3089F483E090E00E9442042FEF8FE335
S11362D092E0215080409040E1F700C000000E940D
S11362E0592DC1E079C0C13029F5282F30E0F901DA
