:100600000C941E040C943D040C943D040C943D0485
:100610000C943D040C943D040C943D040C943D0456
:100620000C943D040C943D040C943D040C943D0446
:100630000C943D040C943D040C943D040C943D0436
:100640000C943D040C943D040C943D040C943D0426
:100650000C943D040C943D040C943D040C943D0416
:100660000C943D040C943D040C943D040C943D0406
:100670000C943D040C943D040C943D040C944A04E9
:100680000C943D040C943D040C943D040C943D04E6
:100690000C943D040C943D040C943D040C943D04D6
:1006A0000C943D040C943D040C943D040C944E17A2
:1006B0000C943D040C943D040C94A2040C943D0451
:1006C0000C943D040C943D040C943D040C943D04A6
:1006D0000C9476040C943D040C943D040C943D045D
:1006E0000C943D040C943D040C943D040C943D0486
:1006F0000C943D040C943D040C943D040C943D0476
:10070000830F100F280F3F0F550F6B0F810FDF283E
:10071000A727D627062834286D28A328DD285329A3
:1007200057295B295F29652969296D292F2A992A6B
:10073000022B6A2BD42B3E2CA52C6E616E00696EA9
:10074000660000407A10F35A00A0724E180900109B
:10075000A5D4E80000E87648170000E40B54020036
:1007600000CA9A3B000000E1F50500008096980061
:10077000000040420F000000A0860100000010278A
:1007800000000000E803000000006400000000001A
:100790000A00000000000100000000002C76D8884C
:1007A000DC674F0823DFC1DFAE59E1B1B796E5E35F
:1007B000E453C63AE651997696E8E6C28426EB8978
:1007C0008C9B62ED407C6FFCEFBC9C9F40F2BAA515
:1007D0006FA5F490055A2AF75C936B6CF9676DC1AD
:1007E0001BFCE0E40D47FEF520E6B500D0ED902EB1
:1007F0000300943577050080841E080000204E0A0F
:10080000000000C80C333333330F986E128311414C
:10081000EF8D2114893BE65516CFFEE6DB18D18417
:100820004B381BF77C1D901DA4BBE424203284723E
:100830005E228100C9F124ECA1E53D2711241FBEF1
:10084000CFEFCDBFDFE7DEBF11E4A0E0B0E4EAE91F
:10085000FFE700E00BBF02C007900D92AE36B10774
:10086000D9F722E5AEE6B1E401C01D92AA39B2077C
:10087000E1F70E94F4100C94CB3F0C9400030E940B
:10088000E4120895E4E0F4E0908192609083809314
:100890006D5108951F920F920FB60F9211240BB64F
:1008A0000F928F939F93EF93FF9380912408882357
:1008B000E4F78091E350E82FF0E090912008E851B0
:1008C000FF4A9083893110F01092E3508091E350F9
:1008D0008F5F8093E350FF91EF919F918F910F90E5
:1008E0000BBE0F900FBE0F901F9018951F920F9286
:1008F0000FB60F9211240BB60F928F939F93EF9325
:10090000FF93809164088823E4F780917651E82F63
:10091000F0E090916008E357FE4A90838A3F10F020
:1009200010927651809176518F5F80937651FF912E
:10093000EF919F918F910F900BBE0F900FBE0F9074
:100940001F9018951F920F920FB60F9211240BB69D
:100950000F922F933F934F935F936F937F938F9358
:100960009F93AF93BF93EF93FF9381E080934B0AE4
:100970000E9448050E94EC0580913951811105C003
:10098000E3E5F1E51182128205C0E9E3F1E580813A
:100990008150808380916D51811106C0E4E0F4E0C4
:1009A00080818D7F808303C0815080936D51E9E306
:1009B000F1E5818192810196818392838181928187
:1009C000803D974028F0E8E0F1E510821182128224
:1009D000E9E3F1E583819481019683839483809197
:1009E00015518F5F80931551833348F081E09091CA
:1009F0007F51911180E080937F5110921551FF91AA
:100A0000EF91BF91AF919F918F917F916F915F9186
:100A10004F913F912F910F900BBE0F900FBE0F90F3
:100A20001F901895CF93C82F80915251813019F49F
:100A30008C2F0E94E42C80915251833019F48C2F1A
:100A40000E94F92C80E090E0CF9108958EE0809391
:100A500000048DE08093200485E58093400410928B
:100A60006004109280048CE08093A00487EF809350
:100A7000C0041092040410922404109244041092B2
:100A80006404109284041092A4041092C404089583
:100A900032E02FC0E4ECF4E080818D7F8083809190
:100AA000704194E03902F0011124EF58FE4BE80F39
:100AB000F11D808190E0022E02C0959587950A94E1
:100AC000E2F780FF06C0E4ECF4E08081846080837C
:100AD00005C0E4ECF4E080818B7F8083E4ECF4E0FB
:100AE0008081826080832F5F01C020E0283090F2F7
:100AF00031503323D4F7E4ECF4E0808181608083CB
:100B000080818E7F8083809170418130A9F028F0B0
:100B1000823009F1833071F13BC0E4ECF4E0808174
:100B20008F7E808380818F7D808380818F7B808397
:100B30008081806880832CC0E4ECF4E080818F7E2B
:100B4000808380818F7D80838081806480838081A9
:100B50008F7780831DC0E4ECF4E080818F7E8083FA
:100B600080818062808380818F7B808380818F778A
:100B700080830EC0E4ECF4E080818061808380811A
:100B80008F7D808380818F7B808380818F7780833E
:100B9000809170418F5F80937041843010F010928B
:100BA0007041089516C0E82FF0E0A42FB0E0A55CD6
:100BB000BE4B2C91EE0FFF1FEE0FFF1FEF58FE4BA9
:100BC000E90FF11D20839F5F01C090E0943058F33E
:100BD0008F5F6817D0F70895809154518111CDC06F
:100BE0008091080484FD0FC08AE090E00E944204D6
:100BF000E3E5F1E581E08283818310923A5110921E
:100C00003B51109204518091080485FD10C08AE088
:100C100090E00E944204E3E5F1E582E0828381E016
:100C2000818310923A5110923B511092045180915D
:100C3000080486FD10C08AE090E00E944204E3E5CB
:100C4000F1E583E0828381E0818310923A51109232
:100C50003B511092045180910804882384F08AE06B
:100C600090E00E944204E3E5F1E584E0828381E0C4
:100C7000818310923A5110923B511092045180910D
:100C80005551843051F480910851882319F0109205
:100C9000085103C081E08093085180910851882356
:100CA00091F080915551823071F480910B518111F6
:100CB0000AC080910951882319F01092095103C08C
:100CC00081E08093095180910851811117C0809172
:100CD0000A51811113C080915551823079F480916D
:100CE0000C51882319F010920C5108C081E08093B8
:100CF0000C514AE062E082E00E94D20580910851E6
:100D0000882369F080915551823049F480910B51CC
:100D1000882329F0E3E5F1E580818F5F808380916E
:100D2000085181110BC080915551813039F4809167
:100D30000A51811103C081E080930A51E3E5F1E596
:100D400093818281981311C080915751823020F095
:100D500084E180933951089582E380933951E3E52A
:100D6000F1E584818F5F8483089582E38093395114
:100D7000E3E5F1E58281838314820895CF92DF92C7
:100D8000EF92FF9280E090E00E94F71280934F5123
:100D900081508C3340F081E080934F5161E080E0DE
:100DA00090E00E94191381E090E00E94F712809376
:100DB000595181508C3340F081E08093595161E06A
:100DC00081E090E00E94191382E090E00E94F71207
:100DD00080934551803240F081E08093455161E03D
:100DE00082E090E00E94191383E090E00E94F712E5
:100DF0008093E2508D3340F081E08093E25061E0D7
:100E000083E090E00E94191384E090E00E94F712C2
:100E1000809382518150843040F082E080938251EF
:100E200062E084E090E00E94191388E090E00E9464
:100E30000113A0E0B0E080936F5190937051A093A4
:100E40007151B093725184569109A109B109853845
:100E50009340A105B10590F084E690E0A0E0B0E0F9
:100E600080936F5190937051A0937151B0937251D0
:100E700064E670E088E090E00E943C138CE090E033
:100E80000E940C130E94E7356B017C0160935B515B
:100E900070935C5180935D5190935E5120E038ECEB
:100EA0004FEA57E40E94D736181654F020E030E499
:100EB0004CE156E4C701B6010E943A358823A4F4F8
:100EC00080E090E4ACE1B7E480935B5190935C5197
:100ED000A0935D51B0935E5140E45CE960E070E046
:100EE0008CE090E00E9459138AE090E00E94011388
:100EF00080930151909302510A978730974260F096
:100F000084EF91E0809301519093025164EF71E07E
:100F10008AE090E00E943C1385E090E00E94F71286
:100F2000809380518150843640F081E080938051DD
:100F300061E085E090E00E94191386E090E00E9455
:100F4000F71280935A518150843640F081E08093AB
:100F50005A5161E086E090E00E94191387E090E02A
:100F60000E94F71280938C51833038F010928C518C
:100F700060E087E090E00E9419130E940D298091A3
:100F80003E518C3328F060E080E00E944829FFCF7A
:100F90008091445181111CC066E186E00E9448297D
:100FA00069E085E00E94482964E184E00E944829C4
:100FB00063E083E00E9448296CE082E00E944829B7
:100FC00060E081E00E94482960E080E00E944829BA
:100FD000FF90EF90DF90CF9008958FE090E00E9417
:100FE000420426E686E695E0215080409040E1F7F5
:100FF0008FE090E00E94420426E686E695E02150CC
:1010000080409040E1F78FE090E00E944204089514
:10101000CF93DF93C1E7D1E41F82E091805189E251
:10102000E89F812D112482958F70A82FB0E0A55CD8
:10103000BE4B9C919E83AE2F94E6899FA0191124EC
:101040008DECA89FA12D1124A695A695A695B0E09C
:10105000A55CBE4B9C919D83E89F812D11248695B4
:1010600086958695880F982F990F990F890FE81B01
:10107000F0E0E55CFE4B80818C83DF91CF91089599
:10108000CF93DF93C1E7D1E41B86E0915A5189E207
:10109000E89F812D112482958F70A82FB0E0A55C68
:1010A000BE4B9C919A87AE2F94E6899FA01911247C
:1010B0008DECA89FA12D1124A695A695A695B0E02C
:1010C000A55CBE4B9C919987E89F812D1124869544
:1010D00086958695880F982F990F990F890FE81B91
:1010E000F0E0E55CFE4B80818887DF91CF91089529
:1010F0006F927F928F929F92AF92BF92CF92DF9228
:10110000EF92FF920F931F93CF93DF930E94E11909
:10111000EC016C01E12CF12CE6E1F1E54581568111
:101120006781708581859285A385B485480F591F95
:101130006A1F7B1F85859685A785B089480F591F33
:101140006A1F7B1F81899289A389B489480F591F1F
:101150006A1F7B1F85899689A789B08D8A019B01AB
:10116000080F191F2A1F3B1FC901B80125E030E0F5
:1011700040E050E00E941F3BC114D104E104F1049F
:1011800009F41EC249015A0112E3810E911CA11CEF
:10119000B11CBA01A901425351096109710991E0D9
:1011A0008C149D04AE04BF0408F490E081E0C416E2
:1011B000D506E606F70608F480E0892309F4D2C1D3
:1011C0001F921F92DF92CF9288E490E49F938F93B7
:1011D0000E94E53D1092045180910C510F900F90A8
:1011E0000F900F900F900F90811104C080918C513F
:1011F000882329F0809158518F5F809358518091B6
:101200005851853009F078C14AE061E081E00E94E0
:10121000D20580910C51811105C080918C51882399
:1012200009F468C180911651811164C18091A54172
:10123000833220F48F5F8093A54102C01092A541B4
:10124000809167518F5F8093675190E08C010A55C0
:101250001E4B20918C51F8012083FC01EA56FF4F70
:10126000EE0FFF1FEA55FE4B808391834E01A12CA8
:10127000B12C0F2EF6E16F2EF1E57F2EF02DF3014C
:1012800081829282A382B482FC01EE53FE4FEE0F64
:10129000FF1FEA55FE4BC083D183F801E452FA4F99
:1012A000809180518083E45DFE4F80915A5180830C
:1012B00086E00E94FE28F801EC5CF74F80830091E5
:1012C000675110E085E00E94FE28F801EA5FF44BC8
:1012D00080830091675110E084E00E94FE28F801AD
:1012E000EE5CF34B80830091675110E082E00E9436
:1012F000FE28F801E25AF24B80830091675110E01A
:1013000081E00E94FE28F801E657F14B80830091AE
:10131000675110E080E00E94FE28F801EA54F04B8B
:1013200080838091A54190E09C01220F331F820FA2
:10133000931F880F991F880F991F60918C51809679
:101340000E9419138091A54190E09C01220F331F48
:10135000820F931F880F991F880F991F6091675103
:1013600070E044960E943C13F30181829282A38232
:10137000B4828091A54190E09C01220F331F820F1F
:10138000931F880F991F880F991FBE0148960E94CE
:101390003C138091A54190E09C01220F331F820FE6
:1013A000931F880F991F880F991F6091805146964F
:1013B0000E9419138091A54190E09C01220F331FD8
:1013C000820F931F880F991F880F991F60915A51A0
:1013D00047960E94191386E00E94FE28682F2091EC
:1013E000A54130E0C901880F991F280F391FC90195
:1013F000880F991F880F991F4A960E94191385E03C
:101400000E94FE28682F2091A54130E0C901880F75
:10141000991F280F391FC901880F991F880F991F1D
:101420004B960E94191384E00E94FE28682F209199
:10143000A54130E0C901880F991F280F391FC90144
:10144000880F991F880F991F4C960E94191382E0EC
:101450000E94FE28682F2091A54130E0C901880F25
:10146000991F280F391FC901880F991F880F991FCD
:101470004D960E94191381E00E94FE28682F20914A
:10148000A54130E0C901880F991F280F391FC901F4
:10149000880F991F880F991F4E960E94191380E09C
:1014A0000E94FE28682F2091A54130E0C901880FD5
:1014B000991F280F391FC901880F991F880F991F7D
:1014C0004F960E94191381E0F301808310920C5112
:1014D0000E94ED071F921F92DF92CF9288E490E462
:1014E0009F938F930E94E53D0F900F900F900F9068
:1014F0000F900F900E94400880911651811102C0F8
:101500000E941418E6E1F1E581899289A389B489E2
:10151000858B968BA78BB08F85859685A785B0899F
:10152000818B928BA38BB48B81859285A385B485A7
:1015300085879687A787B08B85819681A781B0859F
:1015400081879287A387B487CE01A0E0B0E085832E
:101550009683A783B08781839283A383B4831092F9
:10156000745161C0E6E1F1E581899289A389B4896A
:10157000858B968BA78BB08F85859685A785B0893F
:10158000818B928BA38BB48B81859285A385B48547
:1015900085879687A787B08B85819681A781B0853F
:1015A00081879287A387B487CE01A0E0B0E08583CE
:1015B0009683A783B087109274510E94080833C0A5
:1015C000809174518F5F80937451863060F1E6E1B1
:1015D000F1E515821682178210861186128613860F
:1015E0001486158616861786108A118A128A138A1F
:1015F000148A158A168A178A108ECE01A0E0B0E0F0
:1016000081839283A383B4831082109274511092C9
:10161000585180910C51811102C00E9440080E94D3
:1016200008080E941418DF91CF911F910F91FF902D
:10163000EF90DF90CF90BF90AF909F908F907F9072
:101640006F9008951F93CF93DF93CDB7DEB76E975A
:10165000CDBFDEBF8EE1FE013196DF01982F1D92D6
:101660009A95E9F7DF011D928A95E9F78091675114
:1016700090E020916E4130916F412817390738F47E
:101680002F5F3F4F20936E4130936F4104C0109203
:101690006E4110926F4180EF898385E18B83809149
:1016A000E2508C838BE28E83809159518F8380919D
:1016B0006E4190916F41FC01EA55FE4B20812987D4
:1016C00022E02A87DC01AA56BF4FAA0FBB1FAA55EA
:1016D000BE4B2C9111963C913B872C87DC01AE537D
:1016E000BE4FAA0FBB1FAA55BE4B2C9111963C9121
:1016F0003D872E87DF01A452BA4F2C912F87A45D1E
:10170000BE4F2C91288BA45DBE4F2C91298BA45DDC
:10171000BE4F2C912A8BA45DBE4F2C912B8BA45DC8
:10172000BE4F2C912C8BA45DBE4F2C912D8BE05F76
:10173000F14F20812E8B9F8B888F81E090E009C034
:10174000E1E0F0E0EC0FFD1FE80FF11D2081920FAA
:101750008F5F8C31A8F39D8F81EF8E8F10E00AC0D0
:10176000E1E0F0E0EC0FFD1FE10FF11D80810E9430
:10177000F92C1F5F1E31A0F36E96CDBFDEBFDF9147
:10178000CF911F9108951F93CF93DF93CDB7DEB70D
:101790002A97CDBFDEBF9AE0FE013196DF01292FE7
:1017A0001D922A95E9F7DF011D929A95E9F790EFCE
:1017B000998395E19B839091E2509C838D838BE28A
:1017C0008E83809159518F8381E090E009C0E1E0E0
:1017D000F0E0EC0FFD1FE80FF11D2081920F8F5FED
:1017E0008830A8F3998781EF8A8710E00AC0E1E08A
:1017F000F0E0EC0FFD1FE10FF11D80810E94F92C3C
:101800001F5F1A30A0F32A96CDBFDEBFDF91CF91C4
:101810001F910895EF92FF920F931F93CF93DF9341
:10182000C0E063C10C2F10E0F801E357FE4A80814D
:10183000803F09F052C0F801E257FE4A9081913092
:1018400009F04BC0F801E157FE4A9081913009F050
:1018500044C0F801EF56FE4A908191113EC0F80154
:10186000EA56FE4A9081913FC1F5E4E2F4E08081BE
:101870008860808390E081E008C0F801E80FF11DE6
:10188000E357FE4A2081920F8F5F8830B0F3F80152
:10189000EB56FE4A8081981318C0F801E057FE4AC3
:1018A00090818091E250981310C0C4E2D4E0888106
:1018B000846088830E94220B8CEC9CE10197F1F7F5
:1018C00000C0000088818B7F88830E94202DE4E285
:1018D000F4E08081877F80830BC1803F09F0A1C045
:1018E000F801E257FE4A9081913009F09AC0F80160
:1018F000EF56FE4A9081993009F093C0F801E45602
:10190000FE4A9081913F09F08CC0E4E2F4E08081CE
:101910008860808390E081E008C0F801E80FF11D45
:10192000E357FE4A2081920F8F5F8E30B0F3F801AB
:10193000E556FE4A808198136CC0F801EB56FE4ACA
:101940008081982F92959F70990F692F660F660F6F
:10195000960F8F70692F680F86E00E944829F80162
:10196000EA56FE4A8081982F92959F70990F692FB1
:10197000660F660F960F8F70692F680F85E00E94C3
:101980004829F801E956FE4A8081982F92959F7068
:10199000990F692F660F660F960F8F70692F680F6A
:1019A00084E00E944829F801E856FE4A8081982F79
:1019B00092959F70990F692F660F660F960F8F7023
:1019C000692F680F82E00E944829F801E756FE4A15
:1019D0008081982F92959F70990F692F660F660FDF
:1019E000960F8F70692F680F81E00E944829F801D7
:1019F000E656FE4A8081982F92959F70990F692F25
:101A0000660F660F960F8F70692F680F80E00E9437
:101A100048290E94202DE4E2F4E08081877F8083C2
:101A200067C0803F09F060C0F801E257FE4A80813C
:101A3000813009F059C0F801E157FE4A80818130B8
:101A400009F052C0780194E0E90EF11CF701E35768
:101A5000FE4A8081873009F047C0F801E455FE4A0C
:101A60008081813F09F040C0E4E2F4E08081886039
:101A7000808390E081E008C0F801E80FF11DE35792
:101A8000FE4A2081920F8F5F8E31B0F3F801E55549
:101A9000FE4A8081981328C060E070E0F801E057AA
:101AA000FE4A90818091E25098131EC060930151CC
:101AB000709302518AE090E00E943C1304E214E02B
:101AC000F801808184608083F701E357FE4A8081BA
:101AD0000E94C30B8CEC9CE10197F1F700C0000061
:101AE000F80180818B7F8083CF5FCA3F08F49ACE54
:101AF000DF91CF911F910F91FF90EF90089580910A
:101B00003C5190913D51883E934008F479C0109229
:101B10003C5110923D510E940D29EEE3F1E5878181
:101B20006481861709F462C06093455182E090E0B9
:101B30000E9419138CE291E0E6EAF1E4DF019C01D6
:101B40001D9221503040E1F7E2EDF2E4DF019C010B
:101B50001D9221503040E1F7EAE2F5E4DF019C01FB
:101B60001D9221503040E1F7E2E8F7E4DF019C01EB
:101B70001D9221503040E1F7EEEAF8E4DF019C01CC
:101B80001D9221503040E1F7EAEDF9E4DF019C01BC
:101B90001D9221503040E1F7E6E0FBE4DF019C01BB
:101BA0001D9221503040E1F7E2E3FCE4DF019C01AB
:101BB0001D9221503040E1F7EEE5FDE4DF019C018C
:101BC0001D9221503040E1F7EAE8FEE4DF019C017C
:101BD0001D9221503040E1F7E6EBFFE4DF019C016C
:101BE0001D9221503040E1F71092675180910451CD
:101BF0008F5F809304518B3018F08AE080930451FA
:101C00000895CF92DF92EF92FF9220E836E948E103
:101C10005BE460915B5170915C5180915D5190915A
:101C20005E510E943F3520E030E040E85EE30E94D4
:101C3000DC3620E030E040E053E40E94DC369B01DB
:101C4000AC010E94CE3420E030E040E05BE40E9432
:101C5000DC366B017C0120916F51309170514091C5
:101C6000715150917251A8EEB3E00E94563B0E9410
:101C7000E7359B01AC01C701B6010E943F356B01FE
:101C80007C016091825170E080E090E00E94E93533
:101C90009B01AC01C701B6010E943F3560933351EF
:101CA000709334518093355190933651FF90EF905B
:101CB000DF90CF9008954AE062E080E00E94D20574
:101CC0000E94BE0686E69EE00197F1F700000E94A2
:101CD000010E86E69EE00197F1F700000E949E1932
:101CE00086E69EE00197F1F700000E949E190E948F
:101CF000ED071092165110920451E8E0F1E51082C0
:101D0000118213821282109253514CE062E080E003
:101D10000E94D2050895A89508953CC08091545121
:101D2000882369F080915551813019F480938C514A
:101D300006C080915551833011F410928C518091DE
:101D40008C51882399F080917F51882331F04CE0A9
:101D500061E081E00E94D2051BC0E1E7F1E4178257
:101D600016828CEF85838CEE848312C080917F5124
:101D7000882331F04CE061E081E00E94D20508C088
:101D8000E1E7F1E417828CEF86838EE88583848314
:101D90000E948B0E80910851882321F08091095177
:101DA0008111BCCF60918C5187E090E00E941913A3
:101DB0000895CF93109209514CE062E080E00E94B8
:101DC000D205C1E0A3C080915451882399F080913D
:101DD0005551813031F4C63020F4CF5F1092555107
:101DE00009C080915551833029F4CC2319F0C1509A
:101DF00010925551E1E7F1E4138612861186AC2F5B
:101E0000B0E0A55CBE4B8C9180878C2F90E0873032
:101E1000910508F079C0FC01E058FC4F0C943E3B62
:101E2000E1E7F1E48AEF838388E382838EE18183B3
:101E30009AE39083178296EB96839EED9583848335
:101E400080910951882309F45FC00E948D0E5CC007
:101E5000E1E7F1E48AE183838EED828390E691836A
:101E60009083178296EB968385838EE1848380919D
:101E70000951882309F448C00E94102645C0E1E7B3
:101E8000F1E4138286EF82838AEF81838EE180837F
:101E9000178296EB96839EED9583848380910951FA
:101EA000882391F10E942F142FC0E1E7F1E41382FF
:101EB0008AED82838EE381838EED8083178296EB99
:101EC000968385838EE18483809109518823E1F094
:101ED0000E946A3319C0E1E7F1E413828AE0828349
:101EE0008EE181839AE19083178296EB96839EED33
:101EF0009583848380910951882331F00E9476294B
:101F000003C0C1E001C0C5E00E948B0E8091085162
:101F1000811159CF0E945B0ECF910895CF93DF932B
:101F20002FEF8FE796E1215080409040E1F700C00D
:101F3000000043C180910A51813009F09DC0809119
:101F40005451882341F180915551813051F4809151
:101F50008051843630F48F5F8093805110925551B8
:101F60001AC080915551833051F480918051823054
:101F700030F0815080938051109255510CC0809167
:101F80005551823041F4E8E0F1E582818F5F828330
:101F900014821092555180917F51882331F04CE08A
:101FA00061E081E00E94D20533C0C1E7D1E41F8225
:101FB000E091805189E2E89F812D112482958F70F4
:101FC000A82FB0E0A55CBE4B9C919E83AE2F24E66B
:101FD000829FA01911248DECA89FA12D1124A695F4
:101FE000A695A695B0E0A55CBE4B9C919D83E89F0D
:101FF000812D1124869586958695880F982F990FA7
:10200000990F890FE81BF0E0E55CFE4B80818C8323
:10201000C1E7D1E41B86E0915A5189E2E89F812D06
:10202000112482958F70A82FB0E0A55CBE4B9C91C7
:102030009A87AE2F94E6899FA01911248DECA89F52
:10204000A12D1124A695A695A695B0E0A55CBE4B42
:102050009C919987E89F812D112486958695869578
:10206000880F982F990F990F890FE81BF0E0E55C16
:10207000FE4B808188879FC080910A51823009F091
:102080009AC080915451882331F18091555181300B
:1020900051F480915A51843630F48F5F80935A51B5
:1020A0001092555118C080915551833051F4809150
:1020B0005A51823030F0815080935A5110925551CC
:1020C0000AC080915551823031F4E8E0F1E5128286
:1020D00014821092555180917F51882331F04CE049
:1020E00062E082E00E94D20533C0C1E7D1E41B86E2
:1020F000E0915A5189E2E89F812D112482958F70D9
:10210000A82FB0E0A55CBE4B9C919A87AE2F24E629
:10211000829FA01911248DECA89FA12D1124A695B2
:10212000A695A695B0E0A55CBE4B9C919987E89FCB
:10213000812D1124869586958695880F982F990F65
:10214000990F890FE81BF0E0E55CFE4B80818887E2
:10215000C1E7D1E41F82E091805189E2E89F812D9F
:10216000112482958F70A82FB0E0A55CBE4B9C9186
:102170009E83AE2F94E6899FA01911248DECA89F11
:10218000A12D1124A695A695A695B0E0A55CBE4B01
:102190009C919D83E89F812D112486958695869537
:1021A000880F982F990F990F890FE81BF0E0E55CD5
:1021B000FE4B80818C830E948B0E80910A5181118D
:1021C000B9CE10920A516091805185E090E00E9452
:1021D000191360915A5186E090E00E9419130E94F1
:1021E000ED07DF91CF9108950E943F040E942605DC
:1021F00060E070E082E195E00E945E3D81E08093C6
:1022000052512FEF8FE392E0215080409040E1F750
:1022100000C000008BEF90E40E94F93D85E590E45A
:102220000E94F93D1F9283E08F931F9284E08F9369
:102230008CE890E49F938F930E94E53D86EC90E4B8
:102240000E94F93D8DEF90E49F938F9386E091E497
:102250009F938F9382E191E49F938F930E94E53D3A
:1022600085E590E40E94F93D8BEF90E40E94F93DF2
:1022700078940E94ED07E4E2F4E08081877F808318
:1022800080818B7F8083E1E7F1E4138287E682839C
:1022900082EF81831082AFEFBFEF2CE2A150B040FC
:1022A0002040E1F700C000000E948B0E85E0809383
:1022B00073511092045110928F520E94BE068DB736
:1022C0009EB70C968DBF9EBFB1C00E940D29CEE374
:1022D000D1E5AE818DECA89F912D11249695969510
:1022E0009695E92FF0E0E55CFE4B2081E1E7F1E413
:1022F0002383990F292F220F220F920FA91BB0E0E1
:10230000A55CBE4B9C9192834D81489F912D1124D9
:10231000969596959695292F30E0255C3E4BD901F0
:102320002C912183990F292F220F220F920FA42F76
:10233000A91BB0E0A55CBE4B9C9190834C81489F4B
:10234000912D1124969596959695292F30E0255C30
:102350003E4BD9012C912783990F292F220F220F51
:10236000920FA42FA91BB0E0A55CBE4B9C91968355
:102370004A81489F912D1124969596959695292FDF
:1023800030E0255C3E4BD9012C912583990F292FF4
:10239000220F220F920FA42FA91BB0E0A55CBE4B09
:1023A0009C9194834981489F912D112496959695EF
:1023B0009695292F30E0255C3E4BD9012C9123873F
:1023C000990F292F220F220F920FA42FA91BB0E0E3
:1023D000A55CBE4B9C9192879881989F812D11247A
:1023E000869586958695A82FB0E0A55CBE4B2C916E
:1023F0002187880F282F220F220F820FA92FA81BB9
:10240000B0E0A55CBE4B8C91808780918F5298176D
:1024100069F090938F528AE090E00E9442040E94FB
:102420008B0E8091735181508093735180917351C1
:1024300081114BCF0E945B0E0E948B0E0E94780888
:102440008091085181110E94D90E80910A51811109
:102450000E948E0F0E940A0C0E947F0DBFEF2FE199
:1024600081E0B15020408040E1F700C000000E94B0
:102470008B0EE4CF1092890080E0089543E068ED70
:1024800080E690E00E94F9288091630080FDFCCFF7
:1024900080E0089580E008C0E82FF0E0E05FFB4FA7
:1024A0009081986090838F5F8830B0F380E008C09F
:1024B000E82FF0E0E05DFB4F9081986090838F5FA4
:1024C0008830B0F380E008C0E82FF0E0E05BFB4F1D
:1024D0009081986090838F5F8830B0F380E008C06F
:1024E000E82FF0E0E059FB4F9081986090838F5F78
:1024F0008830B0F380E008C0E82FF0E0E057FB4FF1
:102500009081986090838F5F8830B0F380E008C03E
:10251000E82FF0E0E055FB4F9081986090838F5F4B
:102520008830B0F380E008C0E82FF0E0E053FB4FC4
:102530009081986090838F5F8830B0F3089585B361
:10254000877F85BB84B3886084BBE3EBF4E0808144
:10255000877F808380818F7780838081887F80835D
:1025600085B38B7F85BB84B3846084BBE2EBF4E0EE
:102570008081877F808380818F7780838081887F3F
:1025800080830E94B8160895E0EEF5E082818B7F8B
:102590008283E0E4F4E080818160808380818D7FAC
:1025A00080830E94D82C0895E0EEF5E082818F7B35
:1025B0008283E0E2F4E080818160808380818D7F8E
:1025C00080830E94ED2C08950E944A120E943E12C0
:1025D0000E94C4120E94D4120E94CA2C0E94CC2CC9
:1025E0000E943A120E942A2D0E949F12089581157E
:1025F00022E0920710F08FEF91E0FC01FC5E8081F9
:1026000008958F3F21E0920710F08EEF91E0FC01DA
:10261000FC5E8081918108958D3F21E0920710F04A
:102620008CEF91E0FC01FC5E60817181828193817D
:1026300008951F93CF93DF939C01211582E0380703
:10264000B0F4909102109370E1F7162FE90143E185
:102650006DE980E090E10E94F928DC5E188340E09B
:102660006DE980E090E10E94F92881E001C080E0FE
:10267000DF91CF911F910895CF92DF92EF92FF9259
:10268000CF93DF938F3F21E0920758F4EC016B0169
:102690000E9419136D2DCE0101960E94191381E03D
:1026A00001C080E0DF91CF91FF90EF90DF90CF905D
:1026B0000895FF920F931F93CF93DF938D3F21E0F7
:1026C0009207C0F4172F062FF52E642FEC010E94FD
:1026D00019136F2DCE0101960E941913602FCE01A0
:1026E00002960E941913612FCE0103960E941913BE
:1026F00081E001C080E0DF91CF911F910F91FF90A9
:1027000008954CE062E080E00E94D20542C0E1E71B
:10271000F1E48EEB838382E082838AE281838AE321
:10272000808320914F518DEC289F812D1124869517
:1027300086958695A82FB0E0A55CBE4B9C919583AD
:10274000880F982F990F990F890FA22FA81BB0E01F
:10275000A55CBE4B8C918483809154518823B9F041
:1027600080915551813041F42C3330F42F5F209308
:102770004F51109255510BC080915551833039F40F
:10278000223028F0215020934F51109255510E9431
:102790008B0E80910851882321F08091095181117D
:1027A000B6CF60914F5180E090E00E9419130895D8
:1027B0004CE062E080E00E94D20542C0E1E7F1E433
:1027C0008EEB838382E0828380E681838AE7808345
:1027D000209159518DEC289F812D11248695869545
:1027E0008695A82FB0E0A55CBE4B9C919583880F81
:1027F000982F990F990F890FA22FA81BB0E0A55C05
:10280000BE4B8C918483809154518823B9F0809180
:102810005551813041F42C3330F42F5F20935951BE
:10282000109255510BC080915551833039F42230AC
:1028300028F0215020935951109255510E948B0E2F
:1028400080910851882321F0809109518111B6CFE0
:102850006091595181E090E00E9419130895CF933F
:10286000109209514CE062E080E00E94D205C1E084
:102870008BC080915451882399F0809155518130BB
:1028800031F4C33020F4CF5F1092555109C08091CC
:102890005551833029F4CC2319F0C1501092555171
:1028A000EC2FF0E0E55CFE4B808180937941C130F4
:1028B00041F008F466C0C23099F1C33009F45FC03A
:1028C00061C0E1E7F1E48EEB838382E082838AE2F8
:1028D00081838AE380831782168240914F518DEC69
:1028E000489F812D1124869586958695282F30E066
:1028F000255C3E4BD9019C919583880F982F990FA9
:10290000990F890FA42FA81BB0E0A55CBE4B8C913A
:102910008483809109518823A9F10E94811332C0D8
:10292000E1E7F1E48EEB838382E0828380E68183BA
:102930008AE7808317821682409159518DEC489F17
:10294000812D1124869586958695282F30E0255C6B
:102950003E4BD9019C919583880F982F990F990F21
:10296000890FA42FA81BB0E0A55CBE4B8C9184837B
:1029700080910951882331F00E94D81303C0C1E02F
:1029800001C0C2E00E948B0E80910851811171CF6D
:10299000CF910895E0E2F9E08481886084838581A5
:1029A00081608583EDE7F1E480818E7F80831386EB
:1029B0008EE00895EDE7F1E480818E7F80831386B9
:1029C00080E00895E0E2F9E08481836084830E94DE
:1029D000DA140895EDE7F1E48081886080838181D5
:1029E00090E0880F991F81608093270984E0089503
:1029F0000E94EA1408950E94EA140895EDE7F1E4B4
:102A00008081886080838181880F8093270983E09B
:102A100008950E94FE140895ADE7B1E48C91877F7C
:102A20008C9382E01B968C931B975096ED91FC91B2
:102A300051975C968D919C915D970995823019F024
:102A4000833021F006C00E94FB1408950E940915EE
:102A500008950E94E2140895E0E2F9E084818B7FFA
:102A6000848384E00895E0E2F9E084818B7F8483AD
:102A700083E00895E0E2F9E08481846084838481C6
:102A8000836084830E94DA140895E0E2F9E084818F
:102A90008460848388E008958091250984FF19C0AB
:102AA000ADE7B1E45296ED91FC9153975E968D910E
:102AB0009C915F970995823019F0833021F006C010
:102AC0000E94FB1408950E94091508950E94E214C3
:102AD0000895EDE7F1E48081877F8083A281B3814F
:102AE000CD010196828393838C9180932809848100
:102AF0009581019784839583892B11F083E0089554
:102B000085E00895CF93DF93EDE7F1E48081877F3F
:102B1000808384819581019731F4E0E2F9E084813A
:102B20008460848305C0E0E2F9E084818B7F848344
:102B3000EDE7F1E484819581019784839583892B66
:102B4000A9F0DF01C281D381E0E2F9E080858883CA
:102B500012968D919C911397019612968D939C934A
:102B6000139784818260848384E026C0ADE7B1E45A
:102B70001296ED91FC91139780912809808312960B
:102B80008D919C911397019612968D939C93139718
:102B90008C9184608C931C96ED91FC911D975896B6
:102BA0008D919C91599709958250823018F40E941A
:102BB000451502C00E943A15DF91CF91089580918A
:102BC000250984FF19C0ADE7B1E45296ED91FC915F
:102BD00053975E968D919C915F970995823019F07D
:102BE000833021F006C00E94FB1408950E9409154D
:102BF00008950E94E2140895ADE7B1E48C918460D9
:102C00008C931C96ED91FC911D9758968D919C91FB
:102C100059970995833039F0843041F0823049F476
:102C20000E94FB1408950E94091508950E944C15F6
:102C300008950E94E2140895E0E2F9E08581886039
:102C40008583ADE7B1E482E01B968C931B971E96BB
:102C5000ED91FC911F975A968D919C915B970995E8
:102C6000823019F0833021F006C00E94FB140895D1
:102C70000E94091508950E94CA140895E0E2F9E03F
:102C8000848188608483858181608583EDE7F1E4B8
:102C900080818E7F808382E083878EE00895CF934A
:102CA000DF93E0E2F9E08581806C858380917D414E
:102CB00083FF07C08091250984FF03C08FE08093C4
:102CC00087418091250983FF03C080E1809387417C
:102CD0008091250982FF03C081E180938741CDE780
:102CE000D1E4EA85F0E0EE0FFF1FEA5FFF4B0190B1
:102CF000F081E02D09958A87DF91CF91089581E0D9
:102D0000089585E008956115710591F090E0FC014A
:102D10003696EE0FFF1FE358FE4B60837183FC0174
:102D20003C96EE0FFF1FE358FE4B408351830895FE
:102D300090E0FC013696EE0FFF1FE358FE4B2FE7A5
:102D400036E120833183FC013C96EE0FFF1FE358F0
:102D5000FE4B108211820895AB01BC0180E00E94FD
:102D600083160895AB01BC0182E00E94831608958A
:102D7000E0E2F9E084E4868381EC83830895909116
:102D80007D4191FD37C0EDE7F1E48183892F8E7F8E
:102D900082609EE0928724EF31E020873187877F31
:102DA000846080838FE796E184879587108E118EEB
:102DB00086879787128E138E808B918B148E158E3B
:102DC000828B938B168E178E81E896E1848B958B80
:102DD00010A211A2E0E2F9E08481886084838581F9
:102DE000816085838581806C85838381806C83830A
:102DF00080E0089581E008958091250982FF07C051
:102E0000EDE7F1E480818E7F808382E0838780918B
:102E10007D4180FD17C0EDE7F1E48D7F80838FEF6A
:102E20008183A0E2B9E015968C911597806C159678
:102E30008C93159713968C9113978F7313968C938D
:102E40008385089581E008959C0190917D4192FFD2
:102E500009C0EDE7F1E42283338364837583892F0E
:102E60008B7F8083089590917D4190FD11C0EDE7A7
:102E7000F1E491609083882321F081E08093874181
:102E800003C082E0809387410E944F1680E008953E
:102E900081E0089580E00E94331708951F920F92F9
:102EA0000FB60F9211240BB60F922F933F934F93AF
:102EB0005F936F937F938F939F93AF93BF93EF93A2
:102EC000FF930E944F16FF91EF91BF91AF919F9199
:102ED0008F917F916F915F914F913F912F910F90C3
:102EE0000BBE0F900FBE0F901F90189561E070E021
:102EF0000E94241760E070E080E090E00E94AC1631
:102F000084E0089561E070E00E94241760E070E0C2
:102F100080E090E00E94AC1682E00895FF920F934B
:102F20001F93CF93DF9300D0CDB7DEB7F82E698320
:102F30004A8300E117E28F2D0E94BF16813019F4F9
:102F400001501109C1F7012B11F1BE016E5F7F4FD6
:102F500086E797E10E94AC1661E070E0CE01019631
:102F60000E94241760E070E082E198E10E94B216AE
:102F70000E944A1700E117E20E94FC16813019F402
:102F800001501109C9F7012B21F482E003C081E04F
:102F900001C080E00F900F90DF91CF911F910F91B2
:102FA000FF900895EF92FF921F93CF93DF9300D08D
:102FB000CDB7DEB7182F6A838AE289836894EE243E
:102FC000E1F8F12C23C0812F0E94BF168823D9F38A
:102FD000BE016F5F7F4F82E897E10E94AC1661E00F
:102FE00070E0CE0102960E94241760E070E082E15A
:102FF00098E10E94B2160E944A170E94FC16813086
:10300000E1F3882331F081E0E81AF108E114F104DA
:10301000D1F689810F900F90DF91CF911F91FF9092
:10302000EF90089583E008958F929F92AF92BF92A0
:10303000EF92FF920F931F93CF93DF93C6E1D1E5F9
:1030400069817A818B819C810F2EF0E18F2EF7E2CE
:103050009F2EA12CB12CF02DA50194010E941F3BA5
:10306000E22E2093A24169817A818B819C81A50106
:1030700094010E941F3B0F2EF8EE8F2EF3E09F2E3F
:10308000A12CB12CF02DA50194010E941F3BF22E22
:103090002093835169817A818B819C81A501940160
:1030A0000E941F3B0F2EF4E68F2E912CA12CB12CE9
:1030B000F02DA50194010E941F3B022F2093755112
:1030C00069817A818B819C81A50194010E941F3BBB
:1030D0000F2EFAE08F2E912CA12CB12CF02DA501F2
:1030E00094010E941F3B122F20934E5169817A81D7
:1030F0008B819C81A50194010E941F3B60936B51C1
:1031000089819A81AB81BC8181319742A105B1054A
:1031100014F1EE2DF0E0E55CFE4B8081A1E7B1E417
:1031200013968C931397EF2DF0E0E55CFE4B8081B6
:1031300012968C931297E02FF0E0E55CFE4B8081B5
:103140008F5F11968C931197E12FF0E0E55CFE4BB9
:1031500080818C9358C08091175190911851A09103
:103160001951B0911A51893E9340A105B10514F14E
:10317000EF2DF0E0E55CFE4B8081A1E7B1E4139612
:103180008C931397E02FF0E0E55CFE4B80818F5F1E
:1031900012968C931297E12FF0E0E55CFE4B808154
:1031A00011968C931197E62FF0E0E55CFE4B808141
:1031B0008C9329C08091175190911851A091195169
:1031C000B0911A51883E9340A105B105E4F4A1E7FE
:1031D000B1E413961C921397E02FF0E0E55CFE4BF0
:1031E00080818F5F12968C931297E12FF0E0E55C5F
:1031F000FE4B808111968C931197E62FF0E0E55CF1
:10320000FE4B80818C93DF91CF911F910F91FF90A6
:10321000EF90BF90AF909F908F9008958F929F9264
:10322000AF92BF92CF92DF92EF92FF92E4E4F4E08C
:1032300080818B7F80838091480483FFFCCF90E066
:1032400040E050E0BA011DC0E4E4F4E08081846015
:10325000808322E62A95F1F70000440F551F661F70
:10326000771F80818B7F808382E68A95F1F700004B
:103270008091480483FD04C04F5F5F4F6F4F7F4FC5
:103280009F5F983108F3E4E4F4E0808184608083F8
:1032900092E69A95F1F7000080818B7F808329E97F
:1032A00089E993E0215080409040E1F700006A01F5
:1032B0007B0120E4E22620916F51309170514091C2
:1032C000715150917251A0E1B7E20E94563B80903B
:1032D0002F5190903051A0903151B0903251DC017B
:1032E000CB01880D991DAA1DBB1D8C159D05AE0532
:1032F000BF0518F4C12CD12C76010E94010E81E388
:103300008A95F1F700008090335190903451A0904D
:103310003551B0903651C701B6010E94E935A5017B
:1033200094010E943F350E94B135FF90EF90DF90ED
:10333000CF90BF90AF909F908F9008950F931F9361
:103340000E940E198B019C0180912F519091305158
:10335000A0913151B0913251801B910BA20BB30B54
:10336000181619061A061B067CF4E6E1F1E5418DF4
:10337000528D638D748D481B590B6A0B7B0B418FEB
:10338000528F638F748F10C0BB2374F4E6E1F1E5B4
:10339000418D528D638D748D480F591F6A1F7B1F9D
:1033A000418F528F638F748F892B8A2B8B2B61F601
:1033B0008AE090E00E9442040E948B0E1F910F91C0
:1033C00008954F925F926F927F928F929F92AF92E9
:1033D000BF92CF92DF92EF92FF920F931F93C09014
:1033E0002F51D0903051E0903151F09032510E94E5
:1033F0000E192B013C0120916F5130917051409179
:10340000715150917251A8EEB3E00E94563B4B01AE
:103410005C0114141504160417040CF081C080918B
:103420002F5190913051A0913151B091325193016F
:103430008201081B190B2A0B3B0BC901B8012AE0BA
:1034400030E040E050E00E941F3BBA01A901440F68
:10345000551F661F771FDB01CA01880F991FAA1F1E
:10346000BB1F880F991FAA1FBB1F8A019B01080F52
:10347000191F2A1F3B1FC901B801332314F01092F2
:10348000385199232CF086169706A806B90600F540
:10349000809138518F5F809338518B3040F00E947B
:1034A0009E191092385160E070E0CB0133C015E0F6
:1034B000C11AD108E108F108C0922F51D0923051C1
:1034C000E0923151F092325160E070E0CB0122C0C5
:1034D0001616170618061906ECF440900151509084
:1034E0000251052C000C66087708641575058605E1
:1034F000970584F425E0C20ED11CE11CF11CC0929A
:103500002F51D0923051E0923151F092325160E01F
:1035100070E0CB0186169706A806B90628F007C00A
:1035200060E070E0CB0103C060E070E0CB012AE016
:1035300030E040E050E00E941F3BC9011F910F9115
:10354000FF90EF90DF90CF90BF90AF909F908F90C3
:103550007F906F905F904F900895109279418AE02C
:1035600090E00E9401139C018093015190930251BD
:1035700060E177E20E94E93A60930351E8EEF3E0FC
:10358000BF010E94E93A60938151C901BF010E94C5
:10359000E93AE4E6F0E0BF010E94E93A60930551A0
:1035A000C901BF010E94E93AEAE0F0E0BF010E94D0
:1035B000E93A6093E750C901BF010E94E93A80935C
:1035C0006C513DC181E080930B5180915351823009
:1035D00009F485C030F4882369F0813009F444C0CF
:1035E0002CC1843009F4F0C008F4B4C0853009F46B
:1035F00022C123C1E0916C51F0E0E55CFE4B80817B
:1036000080937C4180917F51882319F010927841FA
:1036100008C0E0910351F0E0E55CFE4B80818093AF
:10362000784180915451882309F407C18091555104
:10363000813051F480910351811106C08F5F8093D6
:10364000035110925551F9C080915551833009F0C2
:10365000F4C080910351882309F4EFC08150809316
:10366000035110925551E9C0E0910351F0E0E55C3F
:10367000FE4B80818093784180917F51882319F09F
:103680001092774109C0E0918151F0E0E55CFE4B7A
:1036900080818F5F8093774180915451882309F412
:1036A000CCC080915551813051F480918151893045
:1036B00030F48F5F8093815110925551BEC080913C
:1036C0005551833009F0B9C080918151882309F4A4
:1036D000B4C081508093815110925551AEC0E09199
:1036E0008151F0E0E55CFE4B80818F5F80937741F4
:1036F00080917F51882319F01092764108C0E091A3
:103700000551F0E0E55CFE4B80818093764180912D
:103710005451882309F491C080915551813051F45E
:1037200080910551893030F48F5F8093055110925C
:10373000555183C080915551833009F07EC08091EE
:103740000551882309F479C0815080930551109266
:10375000555173C0E0910551F0E0E55CFE4B80816E
:103760008093764180917F51882319F010927541A2
:1037700008C0E091E750F0E0E55CFE4B808180936B
:10378000754180915451882309F457C08091555157
:10379000813051F48091E750893030F48F5F80930D
:1037A000E7501092555149C080915551833009F02E
:1037B00044C08091E750882309F43FC08150809332
:1037C000E7501092555139C0E091E750F0E0E55CC8
:1037D000FE4B80818093754180917F51882319F041
:1037E00010927C4108C0E0916C51F0E0E55CFE4B2A
:1037F000808180937C41809154518823F1F08091A5
:103800005551813051F480916C51893030F48F5F83
:1038100080936C511092555110C080915551833056
:1038200061F480916C51882341F0815080936C51F8
:103830001092555102C0109253510E948B0E8091EC
:1038400008518111BFCE2091035180E197E2289F5A
:10385000B001299F700D11244091815128EE33E071
:10386000429FC001439F900D1124680F791F8091E2
:10387000055194E6899F600D711D11248091E750D8
:1038800090E09C01220F331F880F991F880F991F0A
:10389000880F991F820F931F680F791F80916C51B9
:1038A000680F711D60930151709302518AE090E09E
:1038B0000E943C13E8E0F1E581E0808311821382ED
:1038C0001092535108952F923F924F925F926F92B0
:1038D0007F928F929F92AF92BF92CF92DF92EF92A0
:1038E000FF920F931F93CF93DF93CDB7DEB725974A
:1038F000CDBFDEBF109279418CE090E00E940C13A6
:103900001B012C0160930D5130920E5140920F51CA
:103910005092105110921151109212511092135155
:10392000109214516894AA24A4F80F2EF7E2BF2E27
:10393000F02DC12CD12CE12CF12C00E010E0262F31
:10394000332D442D552D60E070E080E090E00E9422
:10395000BC3B20935F513093605140936151509331
:103960006251609363517093645180936551909359
:103970006651222D332D442D552D60E070E080E0FE
:1039800090E00E94BA3B0F2EF8EEAF2EF02D0F2ED6
:10399000F3E0BF2EF02D0E94BC3B20938752309362
:1039A00088524093895250938A5260938B527093FD
:1039B0008C5280938D5290938E52222D332D442D14
:1039C000552D60E070E080E090E00E94BA3B0F2E41
:1039D000F4E6AF2EF02DB12C0E94BC3B2093775122
:1039E000309378514093795150937A5160937B5141
:1039F00070937C5180937D5190937E51222D332D75
:103A0000442D552D60E070E080E090E00E94BA3BCC
:103A10000F2EFAE0AF2EF02D0E94BC3B20934651B2
:103A200030934751409348515093495160934A51C4
:103A300070934B5180934C5190934D51222D332DC7
:103A4000442D552D60E070E080E090E00E94BA3B8C
:103A500020938451309385514093865150938751E0
:103A6000609388517093895180938A5190938B51C0
:103A7000F2C281E080930B5180915351823009F45E
:103A800035C130F4882369F0813009F49DC0E1C26A
:103A9000843009F44DC208F4BAC1853009F4D7C2A4
:103AA000D8C2E0918451F0918551E55CFE4B808154
:103AB00080937C4180917F51882319F01092784146
:103AC0000AC0E0915F51F0916051E55CFE4B80814E
:103AD0008F5F8093784180915451882309F4B9C253
:103AE000809155518130A9F5F0905F51009160515E
:103AF00010916151809162518A83809163518983D1
:103B0000B0916451F0916551E09166512F2D302FA5
:103B1000412F5A81682F7B2F8F2F9E2FA7E00E9465
:103B2000503C09F0B0F4A1E00E943B3C20935F516F
:103B3000309360514093615150936251609363514F
:103B400070936451809365519093665110925551D2
:103B500080C280915551833009F07BC2F0905F5153
:103B60000091605110916151809162518A838091DE
:103B700063518983B0916451F0916551E091665130
:103B80002F2D302F412F5A81682F7B2F8F2F9E2F63
:103B9000A1E00E94503C09F008F45BC2AFEF0E9424
:103BA0003B3C20935F51309360514093615150935F
:103BB0006251609363517093645180936551909307
:103BC00066511092555145C2E0915F51F09160519C
:103BD000E55CFE4B80818F5F8093784180917F51BF
:103BE000882319F01092774109C0E0918752F09133
:103BF0008852E55CFE4B80818093774180915451DF
:103C0000882309F426C2809155518130A9F5F0909E
:103C10008752009188521091895280918A528A83EA
:103C200080918B528983B0918C52F0918D52E091AA
:103C30008E522F2D302F412F5A81682F7B2F8F2F9F
:103C40009E2FA8E00E94503C09F0B0F4A1E00E9431
:103C50003B3C209387523093885240938952509333
:103C60008A5260938B5270938C5280938D529093B2
:103C70008E5210925551EDC180915551833009F00B
:103C8000E8C1F0908752009188521091895280913A
:103C90008A528A8380918B528983B0918C52F091A1
:103CA0008D52E0918E522F2D302F412F5A81682F47
:103CB0007B2F8F2F9E2FA0E00E94503C09F4C9C19A
:103CC000AFEF0E943B3C2093875230938852409341
:103CD000895250938A5260938B5270938C52809386
:103CE0008D5290938E5210925551B3C1E0918752EC
:103CF000F0918852E55CFE4B808180937741809102
:103D00007F51882319F01092764109C0E0917751D4
:103D1000F0917851E55CFE4B8081809376418091F3
:103D20005451882309F495C1809155518130A9F5EA
:103D3000F0907751009178511091795180917A519A
:103D40008A8380917B518983B0917C51F0917D5120
:103D5000E0917E512F2D302F412F5A81682F7B2FDC
:103D60008F2F9E2FA8E00E94503C09F0B0F4A1E0F4
:103D70000E943B3C20937751309378514093795186
:103D800050937A5160937B5170937C5180937D5115
:103D900090937E51109255515CC180915551833062
:103DA00009F057C1F09077510091785110917951F5
:103DB00080917A518A8380917B518983B0917C5123
:103DC000F0917D51E0917E512F2D302F412F5A815E
:103DD000682F7B2F8F2F9E2FA0E00E94503C09F46C
:103DE00038C1AFEF0E943B3C20937751309378511C
:103DF0004093795150937A5160937B5170937C51E9
:103E000080937D5190937E511092555122C1E09143
:103E10007751F0917851E55CFE4B8081809376413B
:103E200080917F51882319F01092754109C0E0916B
:103E30004651F0914751E55CFE4B8081809375417E
:103E400080915451882309F404C1809155518130E7
:103E5000A9F5F09046510091475110914851809139
:103E600049518A8380914A518983B0914B51F09195
:103E70004C51E0914D512F2D302F412F5A81682FF9
:103E80007B2F8F2F9E2FA8E00E94503C09F0B0F4AA
:103E9000A1E00E943B3C2093465130934751409310
:103EA00048515093495160934A5170934B518093BC
:103EB0004C5190934D5110925551CBC0809155511A
:103EC000833009F0C6C0F0904651009147511091DF
:103ED0004851809149518A8380914A518983B09198
:103EE0004B51F0914C51E0914D512F2D302F412FDE
:103EF0005A81682F7B2F8F2F9E2FA0E00E94503C6D
:103F000009F4A7C0AFEF0E943B3C20934651309389
:103F10004751409348515093495160934A5170938F
:103F20004B5180934C5190934D511092555191C0EB
:103F3000E0914651F0914751E55CFE4B80818093C2
:103F4000754180917F51882319F010927C4109C0FE
:103F5000E0918451F0918551E55CFE4B8081809326
:103F60007C4180915451882309F473C0809155514C
:103F70008130A9F5F09084510091855110918651BE
:103F8000809187518A83809188518983B09189512A
:103F9000F0918A51E0918B512F2D302F412F5A8172
:103FA000682F7B2F8F2F9E2FA8E00E94503C09F096
:103FB000B0F4A1E00E943B3C2093845130938551A2
:103FC00040938651509387516093885170938951E3
:103FD00080938A5190938B51109255513AC08091A1
:103FE00055518330B1F5F090845100918551109175
:103FF0008651809187518A83809188518983B091BD
:104000008951F0918A51E0918B512F2D302F412F02
:104010005A81682F7B2F8F2F9E2FA0E00E94503C4B
:10402000C1F0AFEF0E943B3C209384513093855107
:104030004093865150938751609388517093895172
:1040400080938A5190938B511092555102C01092D7
:1040500053510E948B0E8091085181110ACD6894B2
:10406000AA24A4F80F2EF7E2BF2EF02DC12CD12CDC
:10407000E12CF12C00E010E020915F513091605173
:1040800040916151509162516091635170916451BE
:1040900080916551909166510E94613B622E732E12
:1040A000842E952E6D8379838A839B83E09187523A
:1040B000509088524090895230908A5220908B5272
:1040C00080918C528C83B0918D52A0918E522E2F64
:1040D000352D442D532D622D782F8B2F9A2F02E0F2
:1040E0000E94193CA22EB32EC42ED52EE62EF72EFA
:1040F000F82F192F05E00E94193C0F2F0E94473C12
:10410000AE2EB52CC42CD32CE22CFC800B2F1A2FF6
:104110000E94323C03E00E94193CA22EB32EC42E12
:10412000D52EE62EF72E082F192F262D372D482DA8
:10413000592D6D8179818A819B810E94323C222E8A
:10414000332E442E552E662E772E89839A83209106
:104150007751309178514091795150917A516091D5
:104160007B5170917C5180917D5190917E5102E004
:104170000E94193C822E932E4C835B83B62FA72F6F
:10418000F82FE92F0E94193CA22EB32EC42ED52E53
:10419000E62EF72E082F192F282D392D4C815B8103
:1041A0006B2F7A2F8F2F9E2F0E94323C822E932EC0
:1041B0004C835B83B62FA72FF82FE92F02E00E94D4
:1041C000193CA22EB32EC42ED52EE62EF72E082F84
:1041D000192F282D392D4C815B816B2F7A2F8F2F32
:1041E0009E2F0E94323CA22EB32EC42ED52EE62E38
:1041F000F72E082F192F222D332D442D552D662DE6
:10420000772D89819A810E94323C222E332E442EB2
:10421000552E662E772E89839A83209146513091B0
:104220004751409148515091495160914A51709184
:104230004B5180914C5190914D5101E00E94193C9D
:10424000822E932E4C835B83B62FA72FF82FE92F56
:1042500002E00E94193CA22EB32EC42ED52EE62ECB
:10426000F72E082F192F282D392D4C815B816B2FAC
:104270007A2F8F2F9E2F0E94323CA22EB32EC42E57
:10428000D52EE62EF72E082F192F222D332D442D53
:10429000552D662D772D89819A810E94323CA09000
:1042A0008451B0908551C0908651D0908751E09054
:1042B0008851F090895100918A5110918B510E9440
:1042C000323C20930D5130930E5140930F51509337
:1042D0001051609311517093125180931351909328
:1042E0001451642F752F422F532F8CE090E00E94C1
:1042F0005913E8E0F1E581E0808311821382109286
:1043000053512596CDBFDEBFDF91CF911F910F9105
:10431000FF90EF90DF90CF90BF90AF909F908F90E5
:104320007F906F905F904F903F902F9008952F92C5
:104330003F924F925F926F927F928F929F92AF9235
:10434000BF92CF92DF92EF92FF920F931F93CF9382
:10435000DF938CE090E00E940C131B012C01609312
:104360000D5130920E5140920F51509210511092B7
:1043700011511092125110921351109214516894CD
:10438000AA24A4F80F2EF7E2BF2EF02DC12CD12CB9
:10439000E12CF12C00E010E0262F332D442D552D7B
:1043A00060E070E080E090E00E94BC3B20935F51B1
:1043B00030936051409361515093625160936351C7
:1043C000709364518093655190936651222D332DE3
:1043D000442D552D60E070E080E090E00E94BA3BF3
:1043E0000F2EF8EEAF2EF02D0F2EF3E0BF2EF02D96
:1043F0000E94BC3B2093875230938852409389524D
:1044000050938A5260938B5270938C5280938D524A
:1044100090938E52222D332D442D552D60E070E067
:1044200080E090E00E94BA3B0F2EF4E6AF2EF02D14
:10443000B12C0E94BC3B209377513093785140932C
:10444000795150937A5160937B5170937C51809352
:104450007D5190937E51222D332D442D552D60E0BA
:1044600070E080E090E00E94BA3B0F2EFAE0AF2EA1
:10447000F02D0E94BC3B209346513093475140930E
:1044800048515093495160934A5170934B518093D6
:104490004C5190934D51222D332D442D552D60E0DC
:1044A00070E080E090E00E94BA3B2093845130930A
:1044B00085514093865150938751609388517093F2
:1044C000895180938A5190938B512EC110923A5109
:1044D00010923B511092385180915451882309F425
:1044E000ECC080915551813031F520910D513091C2
:1044F0000E5140910F515091105160911151709196
:1045000012518091135190911451AAE00E943B3CAA
:1045100020930D5130930E5140930F5150931051F1
:1045200060931151709312518093135190931451D1
:104530001092555129C080915551833029F5209111
:104540000D5130910E5140910F5150911051609189
:104550001151709112518091135190911451A6EF05
:104560000E943B3C20930D5130930E5140930F51CC
:1045700050931051609311517093125180931351C5
:10458000909314511092555120900D5130900E512E
:1045900040900F51509010516090115170901251F5
:1045A00080901351909014516894AA24A4F80F2E6F
:1045B000F7E2BF2EF02DC12CD12CE12CF12C00E024
:1045C00010E0222D332D442D552D662D772D882D6D
:1045D000992D0E94BC3B022F132FF801E55CFE4B86
:1045E0008081C1E7D1E48F8300E010E0222D332DDC
:1045F000442D552D662D772D882D992D0E94BA3B7F
:104600000F2EF8EEAF2EF02D0F2EF3E0BF2EF02D73
:104610000E94BC3B022F132FF801E55CFE4B80810A
:104620008E83E12CF12C00E010E0222D332D442D5F
:10463000552D662D772D882D992D0E94BA3B0F2E72
:10464000F4E6AF2EF02DB12C0E94BC3B022F132FAD
:10465000F801E55CFE4B80818D83E12CF12C00E0BC
:1046600010E0222D332D442D552D662D772D882DCC
:10467000992D0E94BA3B0F2EFAE0AF2EF02D0E942A
:10468000BC3B022F132FF801E55CFE4B80818C832D
:10469000E12CF12C00E010E0222D332D442D552D7E
:1046A000662D772D882D992D0E94BA3B022F132F4E
:1046B000F801E55CFE4B80818B8720910D51309194
:1046C0000E5140910F5150911051609111517091C4
:1046D000125180911351909114510E94243660938D
:1046E0005B5170935C5180935D5190935E510E9439
:1046F000010E0E94E119A0E0B0E080931751909361
:104700001851A0931951B0931A510097A105B10502
:1047100019F00E94141806C0892B8A2B8B2B11F4D8
:104720000E9414180E948B0E80910851882321F05A
:10473000809109518111CACE40910D5150910E5175
:1047400060910F51709110518CE090E00E945913CC
:10475000DF91CF911F910F91FF90EF90DF90CF905D
:10476000BF90AF909F908F907F906F905F904F9091
:104770003F902F9008958F929F92AF92BF92CF92C9
:10478000DF92EF92FF921092794188E090E00E94D0
:1047900001136C01E12CF12CC0926F51D092705139
:1047A000E0927151F0927251C701B60128EE33E0E8
:1047B00040E050E00E94FD3A2093A1410F2EF4E624
:1047C0008F2E912CA12CB12CF02DA50194010E94CB
:1047D000FD3A20936851C701B601A50194010E94DA
:1047E000FD3A0F2EFAE08F2E912CA12CB12CF02D3A
:1047F000A50194010E94FD3A20936E51C701B601B4
:10480000A50194010E94FD3A60933751FFC081E0F9
:1048100080930B5180915351823009F482C030F45F
:10482000882359F0813009F442C0EEC0833009F486
:10483000B2C0843009F4E6C0E7C0E0913751F0E03F
:10484000E55CFE4B80818093754180917F51882388
:1048500019F01092784108C0E091A141F0E0E55CC8
:10486000FE4B80818093784180915451882309F4D4
:10487000CBC080915551813051F48091A14181117B
:1048800006C08F5F8093A14110925551BDC08091A9
:104890005551833009F0B8C08091A141882309F4B3
:1048A000B3C081508093A14110925551ADC0E091A9
:1048B000A141F0E0E55CFE4B8081809378418091DE
:1048C0007F51882319F01092774108C0E091685118
:1048D000F0E0E55CFE4B80818093774180915451FC
:1048E000882309F491C080915551813051F4809111
:1048F0006851893030F48F5F809368511092555120
:1049000083C080915551833009F07EC080916851F9
:10491000882309F479C081508093685110925551D1
:1049200073C0E0916851F0E0E55CFE4B80818093BC
:10493000774180917F51882319F01092764108C009
:10494000E0916E51F0E0E55CFE4B80818093764112
:1049500080915451882309F457C08091555181307A
:1049600051F480916E51893030F48F5F80936E5195
:104970001092555149C080915551833009F044C07F
:1049800080916E51882309F43FC0815080936E510D
:104990001092555139C0E0916E51F0E0E55CFE4B4C
:1049A00080818093764180917F51882319F0109205
:1049B000754108C0E0913751F0E0E55CFE4B808125
:1049C00080937541809154518823F1F08091555125
:1049D000813051F480913751893030F48F5F80936A
:1049E00037511092555110C080915551833061F468
:1049F00080913751882341F0815080933751109234
:104A0000555102C0109253510E948B0E8091085153
:104A10008111FDCE4091A14128EE33E0429FC001BB
:104A2000439F900D1124AC01990F660B770B809179
:104A3000685124E6829FC0011124092E000CAA0BA4
:104A4000BB0B840F951FA61FB71F20916E5130E03E
:104A5000B901660F771F220F331F220F331F220F5A
:104A6000331F620F731FAB01770F660B770B840F39
:104A7000951FA61FB71F20913751BC01CD01620FB2
:104A8000711D811D911D60936F51709370518093C2
:104A900071519093725188E090E00E943C13E8E0DD
:104AA000F1E581E080831182138210925351FF90CF
:104AB000EF90DF90CF90BF90AF909F908F90089530
:104AC0004CE062E080E00E94D20543C0E1E7F1E4FF
:104AD00017828AE182838AE281838EE18083168253
:104AE000209182518DEC289F812D112486958695E9
:104AF0008695A82FB0E0A55CBE4B9C919583880F4E
:104B0000982F990F990F890FA22FA81BB0E0A55CD1
:104B1000BE4B8C9184831086809154518823B9F0C8
:104B200080915551813041F4243030F4220F20938C
:104B30008251109255510BC080915551833039F4F8
:104B4000223028F0269520938251109255510E94D0
:104B50008B0E80910851882321F080910951811199
:104B6000B5CF6091825184E090E00E9419130895BE
:104B70004CE062E080E00E94D20543C0E1E7F1E44E
:104B8000138280E682838AE78183108217821682ED
:104B90002091E2508DEC289F812D112486958695D9
:104BA0008695A82FB0E0A55CBE4B9C919583880F9D
:104BB000982F990F990F890FA22FA81BB0E0A55C21
:104BC000BE4B8C9184831086809154518823B9F018
:104BD00080915551813041F42C3330F42F5F209374
:104BE000E250109255510BC080915551833039F4E9
:104BF000222329F021502093E250109255510E9417
:104C00008B0E80910851882321F0809109518111E8
:104C1000B5CF6091E25083E090E00E9419130895AF
:104C20002F923F924F925F926F927F928F929F92BC
:104C3000AF92BF92CF92DF92EF92FF920F931F93AA
:104C4000CF93DF93109209514CE062E080E00E9424
:104C5000D20583E090E00E94F7128093E25084E056
:104C600090E00E94F7128093825188E090E00E94C9
:104C70000113A0E0B0E080936F5190937051A09326
:104C80007151B09372518CE090E00E940C13DC01E2
:104C9000CB0180930D5190930E51A0930F51B0937F
:104CA00010511092115110921251109213511092F2
:104CB00014518AE090E00E940113EC0180930151AD
:104CC0009093025140906F5150907051609071518B
:104CD00070907251C301B20128EE33E040E050E021
:104CE0000E94FD3A2093A1410F2EF4E68F2E912CC5
:104CF000A12CB12CF02DA50194010E94FD3A209326
:104D00006851C301B201A50194010E94FD3A0F2E22
:104D1000FAE08F2E912CA12CB12CF02DA50194013D
:104D20000E94FD3A20936E51C301B201A501940186
:104D30000E94FD3A6093375120900D5130900E51F2
:104D400040900F515090105160901151709012513D
:104D500080901351909014516894AA24A4F80F2EB7
:104D6000F7E2BF2EF02DC12CD12CE12CF12C00E06C
:104D700010E0222D332D442D552D662D772D882DB5
:104D8000992D0E94BC3B20935F513093605140931A
:104D90006151509362516093635170936451809359
:104DA000655190936651222D332D442D552D662D3E
:104DB000772D882D992D0E94BA3B0F2EF8EEAF2E3D
:104DC000F02D0F2EF3E0BF2EF02D0E94BC3B209360
:104DD0008752309388524093895250938A526093FD
:104DE0008B5270938C5280938D5290938E52222DC1
:104DF000332D442D552D662D772D882D992D0E940C
:104E0000BA3B0F2EF4E6AF2EF02DB12C0E94BC3B26
:104E100020937751309378514093795150937A5140
:104E200060937B5170937C5180937D5190937E5120
:104E3000222D332D442D552D662D772D882D992D1E
:104E40000E94BA3B0F2EFAE0AF2EF02D0E94BC3B21
:104E500020934651309347514093485150934951C4
:104E600060934A5170934B5180934C5190934D51A4
:104E7000222D332D442D552D662D772D882D992DDE
:104E80000E94BA3B209384513093855140938651C0
:104E900050938751609388517093895180938A51C0
:104EA00090938B51CE0160E177E20E94E93A6093E2
:104EB000035128EE33E0B9010E94E93A6093815131
:104EC000CE01B9010E94E93A24E630E0B9010E941E
:104ED000E93A60930551CE01B9010E94E93A2AE00E
:104EE00030E0B9010E94E93A6093E750CE01B90180
:104EF0000E94E93A80936C51C1E064C180915451A1
:104F0000882399F080915551813031F4C73020F4D5
:104F1000CF5F1092555109C080915551833029F4CB
:104F2000CC2319F0C15010925551EC2FF0E0E55C04
:104F3000FE4B8081809379418C2F90E088309105E1
:104F400008F03EC1FC01E957FC4F0C943E3BE1E701
:104F5000F1E41382128280E681838AE780831782DC
:104F600016824091E2508DEC489F812D1124869548
:104F700086958695282F30E0255C3E4BD9019C9183
:104F80009583880F982F990F990F890FA42FA81B2D
:104F9000B0E0A55CBE4B8C9184831386809109514F
:104FA000882309F40DC10E94B8250AC1E1E7F1E4A4
:104FB00013828AE182838AE281838EE18083178271
:104FC0001682409182518DEC489F812D1124869547
:104FD00086958695282F30E0255C3E4BD9019C9123
:104FE0009583880F982F990F990F890FA42FA81BCD
:104FF000B0E0A55CBE4B8C918483138680910951EF
:10500000882309F4DDC00E946025DAC0E1E7F1E4FD
:105010008CE983838AEF82839EEC91838083A091C5
:10502000A141B0E0A55CBE4B8C918783A0916851F3
:10503000B0E0A55CBE4B8C918683A0916E51B0E030
:10504000A55CBE4B8C918583A0913751B0E0A55CE7
:10505000BE4B8C918483138680910951882309F477
:10506000AFC00E94BB23ACC0E1E7F1E4138212821F
:105070008AE081838AE38083A0915F51B09160517F
:10508000A55CBE4B8C918F5F8783A0918752B091B6
:105090008852A55CBE4B8C918683A0917751B091CC
:1050A0007851A55CBE4B8C918583A0914651B091FF
:1050B0004751A55CBE4B8C918483A0918451B091E3
:1050C0008551A55CBE4B8C918387809109518823C3
:1050D00009F476C00E94631C73C0E1E7F1E480E646
:1050E00083838CEE828382E0818386EB8083A09130
:1050F0000351B0E0A55CBE4B8C918783A091815198
:10510000B0E0A55CBE4B8C918F5F8683A09105516A
:10511000B0E0A55CBE4B8C918583A091E750B0E0D8
:10512000A55CBE4B8C918483A0916C51B0E0A55CD2
:10513000BE4B8C91838780910951882309F440C02C
:105140000E94AD1A3DC0E1E7F1E486EB83838AE17A
:1051500082838AEF818380E68083A0915F51B09142
:105160006051A55CBE4B8C918F5F8783A091875265
:10517000B0918852A55CBE4B8C918683A0917751EB
:10518000B0917851A55CBE4B8C918583A09146511E
:10519000B0914751A55CBE4B8C918483A091845102
:1051A000B0918551A55CBE4B8C918387809109514C
:1051B000882331F00E94972103C0C1E001C0C6E0FE
:1051C0000E948B0E80910851811198CEDF91CF9172
:1051D0001F910F91FF90EF90DF90CF90BF90AF9015
:1051E0009F908F907F906F905F904F903F902F9007
:1051F00008951BBEFC0164BF40830895682F88E6B4
:105200000E94D217982F92959F70990F292F220FE5
:10521000220F920F8F70890F0895CF93DF9386E04E
:105220000E94FE28CEE3D1E58E8385E00E94FE2811
:105230008D8384E00E94FE288C8383E00E94FE28F8
:105240008B8382E00E94FE288A8381E00E94FE28F0
:10525000898380E00E94FE288883DF91CF910895A2
:105260009DEC699F912D112496959695969520E138
:10527000929FA0011124990F292F220F220F920F24
:10528000691B6F70462B682F88E60E948E17089561
:10529000962F482F50E04730510518F5FA01E15795
:1052A000FC4F0C943E3B9C33E8F090E01BC09C33D9
:1052B000C8F090E017C09831A8F090E013C02FEF2D
:1052C000290F273078F091E00DC0903258F091E02E
:1052D00009C09D3038F091E005C0911103C095E1FF
:1052E00001C090E0692F0E9430290895CF93DF9389
:1052F000109209514CE062E080E00E94D2050E94C9
:105300000D29CEE3D1E5AE818DECA89F912D11241E
:10531000969596959695E92FF0E0E55CFE4B2081F9
:10532000E1E7F1E42383990F292F220F220F920F37
:10533000A91BB0E0A55CBE4B9C9192834D81489F18
:10534000912D1124969596959695292F30E0255C00
:105350003E4BD9012C912183990F292F220F220F27
:10536000920FA42FA91BB0E0A55CBE4B9C9190832B
:105370004C81489F912D1124969596959695292FAD
:1053800030E0255C3E4BD9012C912783990F292FC2
:10539000220F220F920FA42FA91BB0E0A55CBE4BD9
:1053A0009C9196834A81489F912D112496959695BC
:1053B0009695292F30E0255C3E4BD9012C91258311
:1053C000990F292F220F220F920FA42FA91BB0E0B3
:1053D000A55CBE4B9C9194834981489F912D1124DB
:1053E000969596959695292F30E0255C3E4BD901F0
:1053F0002C912387990F292F220F220F920FA42F70
:10540000A91BB0E0A55CBE4B9C919287A881A89F88
:10541000812D1124869586958695C82FD0E0C55C90
:10542000DE4B98819187880F982F990F990F890FDC
:10543000A81BB0E0A55CBE4B8C9180878AC281E03E
:1054400080930B51E09153518E2F90E0873091055E
:1054500008F07DC2FC01EA56FC4F0C943E3BE09103
:105460003E518DECE89F812D112486958695869579
:10547000A82FB0E0A55CBE4B9C91A1E7B1E41996C2
:105480009C931997880F982F990F990F890FE81BF4
:10549000F0E0E55CFE4B808118968C931897809124
:1054A0007F51882321F0FD01138212821FC0E091F9
:1054B00044518DECE89F812D112486958695869523
:1054C000A82FB0E0A55CBE4B9C91A1E7B1E4139678
:1054D0009C931397880F982F990F990F890FE81BAA
:1054E000F0E0E55CFE4B808112968C9380915451E4
:1054F000882309F42CC280915551813051F4809158
:105500004451833630F48F5F80934451109255514B
:105510001EC280915551833009F019C280914451C7
:10552000882309F414C2815080934451109255513C
:105530000EC2E09144518DECE89F812D1124869597
:1055400086958695A82FB0E0A55CBE4B9C91A1E7FF
:10555000B1E413969C931397880F982F990F990F86
:10556000890FE81BF0E0E55CFE4B808112968C937E
:10557000129780917F51882321F0FD0111821082C2
:105580001EC0E09143518DECE89F812D112486953A
:1055900086958695A82FB0E0A55CBE4B9C91A1E7AF
:1055A000B1E411969C931197880F982F990F990F3A
:1055B000890FE81BF0E0E55CFE4B80818C938091C5
:1055C0005451882309F4C3C180915551813051F45D
:1055D000809143518C3030F48F5F8093435110920F
:1055E0005551B5C180915551833009F0B0C18091BA
:1055F0004351823008F4ABC18150809343511092E3
:105600005551A5C1E09143518DECE89F812D1124A6
:10561000869586958695A82FB0E0A55CBE4B9C919B
:10562000A1E7B1E411969C931197880F982F990FD9
:10563000990F890FE81BF0E0E55CFE4B80818C93AD
:1056400080917F51882321F0FD01178216821FC0AF
:10565000E09142518DECE89F812D1124869586952D
:105660008695A82FB0E0A55CBE4B9C91A1E7B1E464
:1056700017969C931797880F982F990F990F890F5A
:10568000E81BF0E0E55CFE4B808116968C938091E0
:105690005451882309F45BC180915551813051F4F4
:1056A000809142518F3130F48F5F8093425110923C
:1056B00055514DC180915551833009F048C18091B9
:1056C0004251823008F443C181508093425110927C
:1056D00055513DC1E09142518DECE89F812D11243F
:1056E000869586958695A82FB0E0A55CBE4B9C91CB
:1056F000A1E7B1E417969C931797880F982F990FFD
:10570000990F890FE81BF0E0E55CFE4B808116964F
:105710008C93169780917F51882321F0FD0115828B
:1057200014821FC0E09140518DECE89F812D11241F
:10573000869586958695A82FB0E0A55CBE4B9C917A
:10574000A1E7B1E415969C931597880F982F990FB0
:10575000990F890FE81BF0E0E55CFE4B8081149601
:105760008C9380915451882309F4F1C08091555154
:10577000813051F480914051873130F48F5F8093B4
:10578000405110925551E3C080915551833009F03A
:10579000DEC080914051882309F4D9C081508093A4
:1057A000405110925551D3C0E09140518DECE89F8B
:1057B000812D1124869586958695A82FB0E0A55C4D
:1057C000BE4B9C91A1E7B1E415969C931597880F69
:1057D000982F990F990F890FE81BF0E0E55CFE4BBD
:1057E000808114968C93149780917F51882321F0A7
:1057F000FD01138612861FC0E0913F518DECE89F9A
:10580000812D1124869586958695A82FB0E0A55CFC
:10581000BE4B9C91A1E7B1E41B969C931B97880F0C
:10582000982F990F990F890FE81BF0E0E55CFE4B6C
:1058300080811A968C9380915451882309F487C0F3
:1058400080915551813051F480913F518B3330F428
:105850008F5F80933F511092555179C0809155517F
:10586000833009F074C080913F51882309F46FC0E0
:10587000815080933F511092555169C0E0913F5142
:105880008DECE89F812D1124869586958695A82F0D
:10589000B0E0A55CBE4B9C91A1E7B1E41B969C9344
:1058A0001B97880F982F990F990F890FE81BF0E02D
:1058B000E55CFE4B80811A968C931A9780917F51FC
:1058C000882321F0FD01118610861FC0E0913E5112
:1058D0008DECE89F812D1124869586958695A82FBD
:1058E000B0E0A55CBE4B9C91A1E7B1E419969C93F6
:1058F0001997880F982F990F990F890FE81BF0E0DF
:10590000E55CFE4B808118968C93809154518823DE
:10591000F1F080915551813051F480913E518B339B
:1059200030F48F5F80933E511092555110C080919A
:105930005551833061F480913E51882341F081506C
:1059400080933E511092555102C0109253510E94C3
:105950008B0E80910851811172CDCEE3D1E56E811D
:1059600086E00E9448296D8185E00E9448296C816B
:1059700084E00E9448296A8182E00E944829698166
:1059800081E00E944829688180E00E944829DF91D7
:10599000CF91089580E00895E0E4FAE081E0828705
:1059A00087E490E086A397A38FE0808380E008954A
:1059B000E0E2F8E080E098E18087918784E98583E0
:1059C00080EC868380E008959091240895FFFCCFB9
:1059D0008093220881E090E00895E0E6F8E080E01E
:1059E00098E18087918784E9858380EC868380E0D5
:1059F00008959091640895FFFCCF8093620881E040
:105A000090E008950F931F93CF93DF938C01C0E034
:105A1000D0E007C0F801EC0FFD1F80810E94F92C37
:105A20002196F80101900020E9F73197E01BF10B76
:105A3000CE17DF0778F3DF91CF911F910F91089573
:105A40008AEFEDE8F1E5DF011D928A95E9F7109202
:105A5000765108954AE068ED80E091E00E94F928CF
:105A600080E00895CF93C0E0C130A1F028F0C230AB
:105A700069F1C33081F133C088E491E40E94022DC2
:105A80002FEF8FEF9CE2215080409040E1F700C063
:105A9000000025C08CE491E40E94022D80915051B9
:105AA000805D0E94F92C8091A341805D0E94F92CB9
:105AB00080910651805D0E94F92C8091E550805DB7
:105AC0000E94F92C8DE00E94F92C09C081E591E437
:105AD0000E94022D04C087E591E40E94022D80E01F
:105AE0009DC0C11125C0282F30E0F901E357FE4ABF
:105AF00090819F34E9F4F901E257FE4A90819B348A
:105B0000B9F4F901E157FE4A90819D3089F483E0B0
:105B100090E00E9442042FEF8FE392E021508040FA
:105B20009040E1F700C000000E94202DC1E079C044
:105B3000C13029F5282F30E0F901E357FE4A908162
:105B40009F34E9F4F901E257FE4A90819B34B9F49D
:105B5000F901E157FE4A90819D3089F483E090E09D
:105B60000E9442042FEF8FE392E02150804090404A
:105B7000E1F700C000000E94202DC2E052C0C230F8
:105B800029F5282F30E0F901E357FE4A90819F3430
:105B9000E9F4F901E257FE4A90819B34B9F4F90126
:105BA000E157FE4A90819D3089F483E090E00E94A5
:105BB00042042FEF8FE392E0215080409040E1F7C4
:105BC00000C000000E94202DC3E02BC0C33029F587
:105BD000282F30E0F901E357FE4A90819F34E9F421
:105BE000F901E257FE4A90819B34B9F4F901E1577B
:105BF000FE4A90819D3089F483E090E00E94420447
:105C00002FEF8FE392E0215080409040E1F700C0F9
:105C100000000E94202DC5E004C08F5F8A3F08F479
:105C200060CF0E948B0EC53009F01ECFCF91089532
:105C30006F927F928F929F92BF92CF92DF92EF925C
:105C4000FF920F931F93CF93DF934CE062E081E0CC
:105C50000E94D2058090695190906A5194013295CA
:105C600022952F7023273F702327A7E4B3E00E94DB
:105C7000473B6C01D694C794D694C794D694C794E6
:105C8000DC2D20E137E2C29EC001C39E900DD29E62
:105C9000900D11249401281B390B369527953695C4
:105CA000279536952795A5ECB0E20E94473B7C01ED
:105CB000F694E794F694E794F694E794F694E794D0
:105CC000BE2C9401369527953695279536952795C0
:105CD0000E94473B929582958F7089279F708927F4
:105CE00048EE53E0849F9001859F300D949F300DC6
:105CF0001124C401821B930B9C0136952795369580
:105D00002795ABE7B4E10E94473B3C01769467944A
:105D1000062D940136952795369527950E94473B89
:105D20009C013695279544E6429FC001439F900D04
:105D300011249401281B390BADECBCEC0E94473BAD
:105D4000AC01569547955695479556954795C42F5E
:105D500094010E94473B96958795969587959695D1
:105D600087959C01220F331F880F991F880F991F59
:105D7000880F991F820F931F9401281B390BC901AB
:105D8000122FD601A55CBE4B2C91A1E7B1E417966A
:105D90002C93179797013327255C3E4BF9012081FF
:105DA00016962C931697F301FF27E55CFE4B208196
:105DB00015962C9315975527FA01E55CFE4B20812B
:105DC00014962C9314979927FC01E55CFE4B808177
:105DD0001B968C9377C181E080930B518091535136
:105DE000823009F489C028F4882361F08130D1F130
:105DF00067C1843009F418C108F4C9C0853009F4BA
:105E00005DC15EC1E12FF0E0E55CFE4B80818093D7
:105E10007C4180917F51882319F01092784107C00E
:105E2000ED2FF0E0E55CFE4B80818093784180911E
:105E30005451882309F444C180915551813031F483
:105E4000D63020F4DF5F109255513AC18091555100
:105E5000833009F035C1DD2309F432C1D1501092ED
:105E600055512EC1ED2FF0E0E55CFE4B8081809313
:105E7000784180917F51882319F01092774107C0B3
:105E8000EB2DF0E0E55CFE4B8081809377418091C3
:105E90005451882309F414C1D630B8F0809155517B
:105EA000813039F4F4E0FB1520F0B3941092555191
:105EB00007C180915551833009F002C1BB2009F41C
:105EC000FFC0BA9410925551FBC08091555181305A
:105ED00039F428E02B1520F0B39410925551F0C0FE
:105EE00080915551833009F0EBC0BB2009F4E8C024
:105EF000BA9410925551E4C0EB2DF0E0E55CFE4BF6
:105F000080818093774180917F51882319F010928E
:105F1000764107C0E02FF0E0E55CFE4B8081809386
:105F2000764180915451882309F4CAC0D630C8F014
:105F300034E03B15B0F480915551813031F4053097
:105F400020F40F5F10925551BBC0809155518330A2
:105F500009F0B6C0002309F4B3C0015010925551A6
:105F6000AFC080915551813031F4093020F40F5F7A
:105F700010925551A5C080915551833009F0A0C0B1
:105F8000002309F49DC001501092555199C0E02F93
:105F9000F0E0E55CFE4B80818093764180917F51FB
:105FA000882319F01092754107C0EC2FF0E0E55CF2
:105FB000FE4B80818093754180915451882309F470
:105FC0007FC0D630D8F044E04B15C0F40530B0F0B7
:105FD00080915551813031F4C33020F4CF5F10925D
:105FE00055516EC080915551833009F069C0CC2362
:105FF00009F466C0C1501092555162C0809155514C
:10600000813031F4C93020F4CF5F1092555158C01F
:1060100080915551833009F053C0CC2309F450C00E
:10602000C150109255514CC0EC2FF0E0E55CFE4B96
:1060300080818093754180917F51882319F010925F
:106040007C4107C0E12FF0E0E55CFE4B808180934E
:106050007C4180915451882399F1D630D8F084E066
:106060008B15C0F40530B0F0C330A0F080915551CD
:10607000813031F4153020F41F5F1092555120C04B
:10608000809155518330E1F41123D1F011501092D9
:10609000555116C080915551813031F4193020F49A
:1060A0001F5F109255510CC080915551833041F4BF
:1060B000112331F011501092555102C010925351DA
:1060C0000E948B0E80910851811185CE20E137E22C
:1060D000D29FC001D39F900D112448EE53E0B49E8F
