:100600000C9417040C9436040C9436040C943604A1
:100610000C9436040C9436040C9436040C94360472
:100620000C9436040C9436040C9436040C94360462
:100630000C9436040C9436040C9436040C94360452
:100640000C9436040C9436040C9436040C94360442
:100650000C9436040C9436040C9436040C94360432
:100660000C9436040C9436040C9436040C94360422
:100670000C9436040C9436040C9436040C94430405
:100680000C9436040C9436040C9436040C94360402
:100690000C9436040C9436040C9436040C943604F2
:1006A0000C9436040C9436040C9436040C944416C2
:1006B0000C9436040C9436040C949B040C9436046D
:1006C0000C9436040C9436040C9436040C943604C2
:1006D0000C946F040C9436040C9436040C94360479
:1006E0000C9436040C9436040C9436040C943604A2
:1006F0000C9436040C9436040C9436040C94360492
:10070000A626352564259425C225FB253126A42659
:1007100018271C27202724272A272E273227F427AB
:100720005E28C7282F299929032A6A2A6E616E003C
:10073000696E660000407A10F35A00A0724E1809E4
:100740000010A5D4E80000E87648170000E40B5438
:10075000020000CA9A3B000000E1F5050000809607
:100760009800000040420F000000A0860100000039
:10077000102700000000E8030000000064000000F3
:1007800000000A00000000000100000000002C76BC
:10079000D888DC674F0823DFC1DFAE59E1B1B796D7
:1007A000E5E3E453C63AE651997696E8E6C2842634
:1007B000EB898C9B62ED407C6FFCEFBC9C9F40F210
:1007C000BAA56FA5F490055A2AF75C936B6CF9678C
:1007D0006DC11BFCE0E40D47FEF520E6B500D0ED51
:1007E000902E0300943577050080841E08000020B9
:1007F0004E0A000000C80C333333330F986E128357
:100800001141EF8D2114893BE65516CFFEE6DB182A
:10081000D1844B381BF77C1D901DA4BBE4242032EF
:1008200084725E228100C9F124ECA1E53D271124E8
:100830001FBECFEFCDBFDFE7DEBF10E4A0E0B0E426
:10084000E8EAFAE700E00BBF02C007900D92A23D74
:10085000B107D9F72CE4A2EDB0E401C01D92A13399
:10086000B207E1F70E94C80F0C94523D0C940003AC
:100870000E94D6110895E4E0F4E0908192609083A4
:100880008093044B08951F920F920FB60F9211247C
:100890000BB60F928F939F93EF93FF938091240851
:1008A0008823E4F78091774AE82FF0E090912008C0
:1008B000EF57F54B9083893110F01092774A809171
:1008C000774A8F5F8093774AFF91EF919F918F9145
:1008D0000F900BBE0F900FBE0F901F9018951F9298
:1008E0000F920FB60F9211240BB60F928F939F9316
:1008F000EF93FF93809164088823E4F780910C4B79
:10090000E82FF0E090916008ED5DF44B90838A3F12
:1009100010F010920C4B80910C4B8F5F80930C4B1E
:10092000FF91EF919F918F910F900BBE0F900FBE93
:100930000F901F9018951F920F920FB60F921124CF
:100940000BB60F922F933F934F935F936F937F93C9
:100950008F939F93AF93BF93EF93FF9381E0809327
:100960004B0A0E9440050E94E4058091CA4A811109
:1009700005C0E8EEFAE41182128205C0EAECFAE45E
:100980008081815080838091044B811106C0E4E016
:10099000F4E080818D7F808303C081508093044B7D
:1009A000EAECFAE4818192810196818392838181CC
:1009B0009281803D974020F0E1EAFAE410821182B2
:1009C000EAECFAE483819481019683839483809195
:1009D000AE4A8F5F8093AE4A833348F081E09091B6
:1009E000154B911180E08093154B1092AE4AFF9108
:1009F000EF91BF91AF919F918F917F916F915F9197
:100A00004F913F912F910F900BBE0F900FBE0F9003
:100A10001F901895CF93C82F8091E74A813019F421
:100A20008C2F0E94A92A8091E74A833019F48C2FD9
:100A30000E94BE2A80E090E0CF9108958EE08093DE
:100A400000048DE08093200485E58093400410929B
:100A50006004109280048CE08093A00487EF809360
:100A6000C0041092040410922404109244041092C2
:100A70006404109284041092A4041092C404089593
:100A800032E02FC0E4ECF4E080818D7F80838091A0
:100A9000D44094E03902F0011124EB52FF4BE80FEF
:100AA000F11D808190E0022E02C0959587950A94F1
:100AB000E2F780FF06C0E4ECF4E08081846080838C
:100AC00005C0E4ECF4E080818B7F8083E4ECF4E00B
:100AD0008081826080832F5F01C020E0283090F207
:100AE00031503323D4F7E4ECF4E0808181608083DB
:100AF00080818E7F80838091D4408130A9F028F05E
:100B0000823009F1833071F13BC0E4ECF4E0808184
:100B10008F7E808380818F7D808380818F7B8083A7
:100B20008081806880832CC0E4ECF4E080818F7E3B
:100B3000808380818F7D80838081806480838081B9
:100B40008F7780831DC0E4ECF4E080818F7E80830A
:100B500080818062808380818F7B808380818F779A
:100B600080830EC0E4ECF4E080818061808380812A
:100B70008F7D808380818F7B808380818F7780834E
:100B80008091D4408F5F8093D440843010F01092D5
:100B9000D440089516C0E82FF0E0A42FB0E0A1568D
:100BA000BF4B2C91EE0FFF1FEE0FFF1FEB52FF4BC1
:100BB000E90FF11D20839F5F01C090E0943058F34E
:100BC0008F5F6817D0F708958091E94A8111C5C0F9
:100BD0008091080484FD0DC08AE090E00E943B04EF
:100BE000E8EEFAE481E0828381831092CB4A10928E
:100BF000CC4A8091080485FD0EC08AE090E00E94F6
:100C00003B04E8EEFAE482E0828381E08183109283
:100C1000CB4A1092CC4A8091080486FD0EC08AE02F
:100C200090E00E943B04E8EEFAE483E0828381E0F6
:100C300081831092CB4A1092CC4A80910804882379
:100C400074F08AE090E00E943B04E8EEFAE484E06D
:100C5000828381E081831092CB4A1092CC4A8091AA
:100C6000EA4A843051F48091A14A882319F0109205
:100C7000A14A03C081E08093A14A8091A14A8823C0
:100C800091F08091EA4A823071F48091A44A8111F6
:100C90000AC08091A24A882319F01092A24A03C088
:100CA00081E08093A24A8091A14A882369F08091D3
:100CB000EA4A823049F48091A44A882329F0E8EE78
:100CC000FAE480818F5F80838091A14A811117C0EF
:100CD0008091A34A811113C08091EA4A823079F44D
:100CE0008091A54A882319F01092A54A08C081E096
:100CF0008093A54A4AE062E082E00E94CA058091A2
:100D0000A14A81110BC08091EA4A813039F4809167
:100D1000A34A811103C081E08093A34AE8EEFAE47C
:100D200093818281981311C08091EC4A823020F027
:100D300084E18093CA4A089582E38093CA4AE8EE28
:100D4000FAE484818F5F8483089582E38093CA4AA2
:100D5000E8EEFAE48281838314820895CF92DF92D1
:100D6000EF92FF9281E090E00E94ED118093E44ABF
:100D700081508C3340F081E08093E44A61E081E06F
:100D800090E00E940F1282E090E00E94ED118093AB
:100D9000EE4A81508C3340F081E08093EE4A61E06E
:100DA00082E090E00E940F1283E090E00E94ED113B
:100DB0008093DA4A803240F081E08093DA4A61E041
:100DC00083E090E00E940F1284E090E00E94ED1119
:100DD0008093724A8D3340F081E08093724A61E0E3
:100DE00084E090E00E940F1285E090E00E94ED11F7
:100DF0008093174B8150843040F082E08093174BF2
:100E000062E085E090E00E940F1286E090E00E9490
:100E1000F711A0E0B0E08093064B9093074BA093AE
:100E2000084BB093094B84569109A109B109853843
:100E30009340A105B10590F084E690E0A0E0B0E019
:100E40008093064B9093074BA093084BB093094BAC
:100E500064E670E086E090E00E9432128CE090E060
:100E60000E9402120E94AC336B017C016093EF4A36
:100E70007093F04A8093F14A9093F24A20E038EC64
:100E80004FEA57E40E945E34181654F020E030E434
:100E90004CE156E4C701B6010E94FF328823A4F456
:100EA00080E090E4ACE1B7E48093EF4A9093F04A9D
:100EB000A093F14AB093F24A40E45CE960E070E04C
:100EC0008CE090E00E944F1288E090E00E94F711C1
:100ED00080939A4A90939B4A0A978730974260F092
:100EE00084EF91E080939A4A90939B4A64EF71E07B
:100EF00088E090E00E9432128AE090E00E94F711B0
:100F00008093FC4A9093FD4A8D599F4F873C9105F1
:100F100050F01092FC4A1092FD4A60E070E08AE0C6
:100F200090E00E9432120E94D2268091D34A8C33E4
:100F300028F060E080E00E940D27FFCF8091D94A21
:100F400081111CC066E186E00E940D2769E085E002
:100F50000E940D2764E184E00E940D2763E083E096
:100F60000E940D276CE082E00E940D2760E081E086
:100F70000E940D2760E080E00E940D27FF90EF9017
:100F8000DF90CF9008958FE090E00E943B0426E62A
:100F900086E695E0215080409040E1F78FE090E0B8
:100FA0000E943B0426E686E695E021508040904072
:100FB000E1F78FE090E00E943B040895CF93DF9328
:100FC000A5EDB0E417961C921797C7E6D3E4988175
:100FD00089E29802E12D1124E595E595E595E595E1
:100FE00097FDE3950E2E000CFF0BE156FF4B908111
:100FF00016969C93169798819802812D11248595B9
:1010000085958595859597FD839524E6829F901912
:10101000112487E69802E12D1124E595E59597FDC9
:10102000E3950E2E000CFF0BE156FF4B90811596B9
:101030009C931597E881E802812D1124859585956B
:10104000E7FD8395880F982F990F990F890FE81B5B
:101050000E2E000CFF0BE156FF4B808114968C93F3
:10106000DF91CF910895CF93DF93A5EDB0E41B9668
:101070001C921B97C8E6D3E4988189E29802E12D7F
:101080001124E595E595E595E59597FDE3950E2EFB
:10109000000CFF0BE156FF4B90811A969C931A9718
:1010A00098819802812D1124859585958595859542
:1010B00097FD839524E6829F9019112487E6980274
:1010C000E12D1124E595E59597FDE3950E2E000C95
:1010D000FF0BE156FF4B908119969C931997E8817D
:1010E000E802812D112485958595E7FD8395880F6C
:1010F000982F990F990F890FE81B0E2E000CFF0BEC
:10110000E156FF4B808118968C93DF91CF91089523
:101110008F929F92AF92BF92CF92DF92EF92FF9207
:101120000F931F93CF93DF930E94C118EC016C01C2
:10113000E12CF12C8091B84A9091B94AA091BA4A19
:10114000B091BB4AC114D104E104F10409F412C105
:10115000AC01BD014E5C5F4F6F4F7F4FC297A1093D
:10116000B10931E04C155D056E057F0508F430E0EE
:1011700021E0C816D906EA06FB0608F420E023237E
:1011800009F4D6C08091ED4A8F5F8093ED4A843098
:1011900008F4B2C04AE061E081E00E94CA05809193
:1011A000A54A882309F488C080910D4190910E4191
:1011B0008B32914040F4EDE0F1E480819181019621
:1011C0008083918304C010920D4110920E410DE076
:1011D00011E4D8012D913C918091FC4A9091FD4AF7
:1011E000092E000CAA0BBB0B8C0D9D1DAE1DBF1D47
:1011F0000F2EF3EB8F2EFAE49F2EF02DF401818356
:101200009283A383B483F9013196EE0FFF1FE35F4E
:10121000FE4B80839183D801AD90BC9086E00E9404
:10122000C326F501E759FC4B8083F801A080B1800B
:1012300085E00E94C326F501EB56FB4B8083D80165
:10124000AD90BC9084E00E94C326F501EF53FA4BA9
:101250008083F801A080B18082E00E94C326F5015E
:10126000E351F94B8083D801AD90BC9081E00E949E
:10127000C326F501E75EF74B8083F801A080B180BB
:1012800080E00E94C326F501EB5BF64B8083D4011E
:101290001C921092A54AF801808191819F938F93AF
:1012A00088E490E49F938F930E946C3B0E94C30755
:1012B0000F900F900F900F901092ED4A0E943308FC
:1012C0008091FC4A9091FD4A092E000CAA0BBB0BA1
:1012D0008C0D9D1DAE1DBF1DBF93AF939F938F932C
:1012E0008BE590E49F938F930E946C3B0F900F903F
:1012F0000F900F900F900F90CE01A0E0B0E0E3EBC5
:10130000FAE485839683A783B0878091FC4A909105
:10131000FD4A092E000CAA0BBB0BC80ED91EEA1EF3
:10132000FB1EC182D282E382F4820E940A1745C06A
:10133000CE01A0E0B0E0E3EBFAE485839683A783D7
:10134000B0878091FC4A9091FD4A092E000CAA0BAF
:10135000BB0BC80ED91EEA1EFB1EC182D282E382DD
:10136000F48210920A4B1092ED4A0E94DE070E940E
:101370000A1723C080910A4B8F5F80930A4B8430F9
:10138000E0F0E3EBFAE41582168217821086CE01B4
:10139000A0E0B0E081839283A383B4831082109293
:1013A0000A4B1092ED4A8091A54A811102C00E9419
:1013B00033080E94DE070E940A17DF91CF911F9128
:1013C0000F91FF90EF90DF90CF90BF90AF909F90E4
:1013D0008F9008951F93CF93DF93CDB7DEB76E97AD
:1013E000CDBFDEBF8EE1FE013196DF01982F1D9249
:1013F0009A95E9F7DF011D928A95E9F720910D4151
:1014000030910E418091D2409091D3408217930742
:1014100030F401968093D2409093D34004C0109250
:10142000D2401092D34080EF898385E18B838091F5
:10143000724A8C8389E28E838091EE4A8F8382E0A8
:101440008A87EDE0F1E4808191819B8780819181A1
:101450008C872091D2403091D340F9013196EE0F24
:10146000FF1FE35FFE4B808191819D878081918189
:101470008E87809167438F8780916843888BC901ED
:10148000835F9E4BFC01E45AFD4F4081498BE45D34
:10149000FE4F40814A8BE45DFE4F40814B8BE45D03
:1014A000FE4F40814C8BE45DFE4F40814D8BE45DEF
:1014B000FE4F80818E8B3F8B288F81E090E009C0AA
:1014C000E1E0F0E0EC0FFD1FE80FF11D2081920F2D
:1014D0008F5F8C31A8F39D8F81EF8E8F10E00AC053
:1014E000E1E0F0E0EC0FFD1FE10FF11D80810E94B3
:1014F000BE2A1F5F1E31A0F36E96CDBFDEBFDF9107
:10150000CF911F9108951F93CF93DF93CDB7DEB78F
:101510002A97CDBFDEBF9AE0FE013196DF01292F69
:101520001D922A95E9F7DF011D929A95E9F790EF50
:10153000998395E19B839091724A9C838D8389E284
:101540008E838091EE4A8F8381E090E009C0E1E0D4
:10155000F0E0EC0FFD1FE80FF11D2081920F8F5F6F
:101560008830A8F3998781EF8A8710E00AC0E1E00C
:10157000F0E0EC0FFD1FE10FF11D80810E94BE2AFB
:101580001F5F1A30A0F32A96CDBFDEBFDF91CF9147
:101590001F910895EF92FF920F931F93CF93DF93C4
:1015A000C0E067C10C2F10E0F801ED5DF44B8081C5
:1015B000803F09F052C0F801EC5DF44B908191300E
:1015C00009F04BC0F801EB5DF44B9081913009F0CC
:1015D00044C0F801E95DF44B90819130F1F5F801D8
:1015E000E45DF44B9081913FC1F5E4E2F4E0808149
:1015F0008860808390E081E008C0F801E80FF11D69
:10160000ED5DF44B2081920F8F5F8830B0F3F801CD
:10161000E55DF44B8081981318C0F801EA5DF44B46
:1016200090818091724A981310C0C4E2D4E08881FE
:10163000846088830E94EA098CEC9CE10197F1F7B1
:1016400000C0000088818B7F88830E94E52AE4E245
:10165000F4E08081877F80830FC1803F09F0A1C0C3
:10166000F801EC5DF44B9081913009F09AC0F801DB
:10167000E95DF44B9081993009F093C0F801EE5C7C
:10168000F44B9081913F09F08CC0E4E2F4E080815A
:101690008860808390E081E008C0F801E80FF11DC8
:1016A000ED5DF44B2081920F8F5F8E30B0F3F80127
:1016B000EF5CF44B808198136CC0F801E55DF44B4E
:1016C0008081982F92959F70990F692F660F660FF2
:1016D000960F8F70692F680F86E00E940D27F80122
:1016E000E45DF44B8081982F92959F70990F692F3C
:1016F000660F660F960F8F70692F680F85E00E9446
:101700000D27F801E35DF44B8081982F92959F702F
:10171000990F692F660F660F960F8F70692F680FEC
:1017200084E00E940D27F801E25DF44B8081982F40
:1017300092959F70990F692F660F660F960F8F70A5
:10174000692F680F82E00E940D27F801E15DF44BDC
:101750008081982F92959F70990F692F660F660F61
:10176000960F8F70692F680F81E00E940D27F80196
:10177000E05DF44B8081982F92959F70990F692FAF
:10178000660F660F960F8F70692F680F80E00E94BA
:101790000D270E94E52AE4E2F4E08081877F8083C0
:1017A0006BC0803F09F064C0F801EC5DF44B8081B0
:1017B000813009F05DC0F801EB5DF44B8081813030
:1017C00009F056C0780194E0E90EF11CF701ED5DD7
:1017D000F44B8081873009F04BC0F801EE5BF44B8D
:1017E0008081813F09F044C0E4E2F4E080818860B8
:1017F000808390E081E008C0F801E80FF11DED5D05
:10180000F44B2081920F8F5F8E31B0F3F801EF5BC4
:10181000F44B808198132CC060E070E060931D4C05
:1018200070931E4CF801EA5DF44B90818091724AEE
:1018300098131EC060939A4A70939B4A88E090E088
:101840000E94321204E214E0F801808184608083F7
:10185000F701ED5DF44B80810E94830A8CEC9CE1E2
:101860000197F1F700C00000F80180818B7F808331
:10187000CF5FCA3F08F496CEDF91CF911F910F91B1
:10188000FF90EF9008958091CD4A9091CE4A883E86
:10189000934090F01092CD4A1092CE4A0E94D226E8
:1018A000E3EDFAE487816481861731F06093DA4AC8
:1018B00083E090E00E940F120895CF931092734A34
:1018C0001092744A1092754A1092764AC0E018C07D
:1018D00080E00E9405114091734A5091744A6091D2
:1018E000754A7091764A480F591F611D711D4093CA
:1018F000734A5093744A6093754A7093764ACF5FE7
:10190000C23330F36091734A7091744A8091754A82
:101910009091764A22E330E040E050E00E94843823
:101920002093734A3093744A4093754A5093764A91
:10193000CA01B9010E94AC3326EF39E040EA5AE30C
:101940000E9463346093CF4A7093D04A8093D14A07
:101950009093D24ACF910895CF92DF92EF92FF9267
:1019600020E836E948E15BE46091EF4A7091F04A83
:101970008091F14A9091F24A0E9404336B017C01FC
:101980002FE832EC45EF5EE36091CF4A7091D04A88
:101990008091D14A9091D24A0E9493329B01AC012E
:1019A000C701B6010E94043320E030E040E053E478
:1019B0000E9463349B01AC010E94933220E030E02E
:1019C00040E05BE40E9463346B017C012091064B94
:1019D0003091074B4091084B5091094BA8EEB3E072
:1019E0000E94DD380E94AC339B01AC01C701B601F7
:1019F0000E9404336B017C016091174B70E080E022
:101A000090E00E94AE339B01AC01C701B6010E9479
:101A100004336093C44A7093C54A8093C64A909336
:101A2000C74AFF90EF90DF90CF9008954AE062E0C0
:101A300080E00E94CA05E1EAFAE410821182138272
:101A40001092E84A0E94AE068FEF9FE80197F1F7E7
:101A500000C000000E945D0C0E94AC0C8FEF9FE85C
:101A60000197F1F700C000000E9477188FEF9FE800
:101A70000197F1F700C000000E9477180E94C30789
:101A80001092B34A4CE062E080E00E94CA050895DB
:101A9000A8950895CF931092A24A4CE062E080E0AE
:101AA0000E94CA05C1E091C08091E94A882399F05B
:101AB0008091EA4A813031F4C53020F4CF5F109232
:101AC000EA4A09C08091EA4A833029F4CC2319F00C
:101AD000C1501092EA4AE5EDF0E4138612861186B1
:101AE000AC2FB0E0A156BF4B8C918087C23031F152
:101AF00030F4CC2309F466C0C13049F064C0C4306E
:101B000009F448C088F1C53009F45AC05CC0E5ED5D
:101B1000F0E48AE183838EED828390E69183908363
:101B2000178296EB968385838EE184838091A24A07
:101B3000882309F448C00E94952345C0E5EDF0E4F0
:101B4000138286EF82838AEF81838EE180831782FE
:101B500096EB96839EED958384838091A24A882399
:101B600091F10E9425132FC0E5EDF0E413828AED78
:101B700082838EE381838EED8083178296EB96833A
:101B800085838EE184838091A24A8823E1F00E94BC
:101B90002F3119C0E5EDF0E413828AE082838EE1F3
:101BA00081839AE19083178296EB96839EED9583CD
:101BB00084838091A24A882331F00E943B2703C08E
:101BC000C1E001C0C4E00E94480D8091A14A81118A
:101BD0006BCF0E94160DCF910895CF932FEF4FE753
:101BE00086E1215040408040E1F700C00000C0E0A5
:101BF000C6C1C111E0C08091E94A882349F18091B2
:101C0000EA4A813061F480916743843644F4E7E620
:101C1000F3E480818F5F80831092EA4A19C080913B
:101C2000EA4A833061F480916743823044F0E7E60A
:101C3000F3E48081815080831092EA4A09C0809148
:101C4000EA4A823029F4CF5F1092A54A1092EA4AFC
:101C50008091154B882331F04CE061E081E00E94D7
:101C6000CA0554C0A5EDB0E417961C92179727E655
:101C700033E4F901908189E29802E12D1124E59580
:101C8000E595E595E59597FDE3950E2E000CFF0B88
:101C9000E156FF4B908116969C931697F90190811F
:101CA0009802812D1124859585958595859597FDBB
:101CB0008395F4E68F9F9019112487E69802E12D11
:101CC0001124E595E59597FDE3950E2E000CFF0B8D
:101CD000E156FF4B908115969C931597F901208151
:101CE0002802812D11248595859527FD8395880FE0
:101CF000982F990F990F890FE22FE81B0E2E000CD9
:101D0000FF0BE156FF4B808114968C93A5EDB0E458
:101D10001B961C921B9728E633E4F901908189E217
:101D20009802E12D1124E595E595E595E59597FD5A
:101D3000E3950E2E000CFF0BE156FF4B90811A9697
:101D40009C931A97F90190819802812D1124859511
:101D500085958595859597FD8395F4E68F9F9019D8
:101D6000112487E69802E12D1124E595E59597FD6C
:101D7000E3950E2E000CFF0BE156FF4B9081199658
:101D80009C931997F90120812802812D11248595B2
:101D9000859527FD8395880F982F990F990F890FA7
:101DA000E22FE81B0E2E000CFF0BE156FF4B80814B
:101DB00018968C93E2C0C13009F0DFC08091E94AE7
:101DC000882349F18091EA4A813061F48091684327
:101DD000843644F4E8E6F3E480818F5F80831092D8
:101DE000EA4A19C08091EA4A833061F480916843DD
:101DF000823044F0E8E6F3E48081815080831092E1
:101E0000EA4A09C08091EA4A823029F4CF5F1092F1
:101E1000A54A1092EA4A8091154B882331F04CE094
:101E200062E082E00E94CA0554C0A5EDB0E41B96B2
:101E30001C921B9728E633E4F901908189E298020D
:101E4000E12D1124E595E595E595E59597FDE3955B
:101E50000E2E000CFF0BE156FF4B90811A969C93BF
:101E60001A97F90190819802812D11248595859505
:101E70008595859597FD8395F4E68F9F901911249C
:101E800087E69802E12D1124E595E59597FDE39508
:101E90000E2E000CFF0BE156FF4B908119969C9380
:101EA0001997F90120812802812D112485958595A6
:101EB00027FD8395880F982F990F990F890FE22F8F
:101EC000E81B0E2E000CFF0BE156FF4B808118968D
:101ED0008C93A5EDB0E417961C92179727E633E490
:101EE000F901908189E29802E12D1124E595E595AB
:101EF000E595E59597FDE3950E2E000CFF0BE15659
:101F0000FF4B908116969C931697F9019081980249
:101F1000812D1124859585958595859597FD8395CA
:101F2000F4E68F9F9019112487E69802E12D112481
:101F3000E595E59597FDE3950E2E000CFF0BE15618
:101F4000FF4B908115969C931597F90120812802EB
:101F5000812D11248595859527FD8395880F982FD0
:101F6000990F990F890FE22FE81B0E2E000CFF0B23
:101F7000E156FF4B808114968C930E94480DC2302D
:101F800009F037CE1092A34A0E94C307CF9108955B
:101F90000E9438040E941E0560E070E08AE095E02F
:101FA0000E94E53A81E08093E74A80ED90E40E9448
:101FB000803B2FEF8FE392E0215080409040E1F78B
:101FC00000C0000088E690E49F938F9381E790E43F
:101FD0009F938F938DE790E49F938F930E946C3B28
:101FE0000E94EB100E9413110E94FC1078940E9432
:101FF000C307E4E2F4E08081877F808380818B7F68
:1020000080830E94AE06E5EDF0E4138287E68283CA
:1020100080E6818310822FEF8FEF9CE22150804079
:102020009040E1F700C000000E94480D0F900F9013
:102030000F900F900F900F9010E00F2EF5E0FF2EF5
:10204000F02DA6C00E94D226C3EDDAE49E818DEC6D
:10205000989F412D1124469546954695E42FF0E032
:10206000E156FF4B5081E5EDF0E45383440F542FCC
:10207000550F550F450FA92FA41BB0E0A156BF4B1C
:102080009C9192839D81989F412D11244695469560
:102090004695A42FB0E0A156BF4B5C915183440FED
:1020A000542F550F550F450FA92FA41BB0E0A15673
:1020B000BF4B9C9190839C81989F412D1124469504
:1020C00046954695A42FB0E0A156BF4B5C9157832F
:1020D000440F542F550F550F450FA92FA41BB0E0E7
:1020E000A156BF4B9C9196839A81989F412D1124B4
:1020F000469546954695A42FB0E0A156BF4B5C91FE
:102100005583440F542F550F550F450FA92FA41B6E
:10211000B0E0A156BF4B9C9194839981989F412D2B
:102120001124469546954695A42FB0E0A156BF4B85
:102130005C915387440F542F550F550F450FA92F0E
:10214000A41BB0E0A156BF4B9C9192871881189FA9
:10215000812D1124869586958695A82FB0E0A156ED
:10216000BF4B9C919187880F982F990F990F890FDA
:10217000A12FA81BB0E0A156BF4B8C9180870117FF
:1021800041F08AE090E00E943B040E94480DFA94DE
:10219000012FF11057CF0E94160D0E94480D80911B
:1021A000A14A81110E944A0D8091A34A81110E9487
:1021B000ED0D0E9488080E94CA0A0E94430C0E94EA
:1021C000480D2FEF8FE794E0215080409040E1F7D9
:1021D00000C00000E4CFE0E0F6E086E0828381E02A
:1021E000808380E00895E0E0F6E090819F7D908319
:1021F000808781E08287089580910D06817008951F
:10220000809110069091110608950E94F3100E948B
:10221000FC108823E1F30E940011E0E0F6E0258540
:1022200021602587089585E08093A00086EF8A9538
:10223000F1F708951092890080E0089543E068ED79
:1022400080E690E00E94BE268091630080FDFCCF76
:1022500080E0089580E0089580E008C0E82FF0E075
:10226000E05FFB4F9081986090838F5F8830B0F380
:1022700080E008C0E82FF0E0E05DFB4F90819860BF
:1022800090838F5F8830B0F380E008C0E82FF0E0E3
:10229000E05BFB4F9081986090838F5F8830B0F354
:1022A00080E008C0E82FF0E0E059FB4F9081986093
:1022B00090838F5F8830B0F380E008C0E82FF0E0B3
:1022C000E057FB4F9081986090838F5F8830B0F328
:1022D00080E008C0E82FF0E0E055FB4F9081986067
:1022E00090838F5F8830B0F380E008C0E82FF0E083
:1022F000E053FB4F9081986090838F5F8830B0F3FC
:10230000089585B3877F85BB84B3886084BBE3EB86
:10231000F4E08081877F808380818F7780838081D4
:10232000887F808385B38B7F85BB84B3846084BBC7
:10233000E2EBF4E08081877F808380818F778083E8
:102340008081887F80830E94AE150895E0EEF5E0DD
:1023500082818B7F8283E0E4F4E0808181608083EE
:1023600080818D7F80830E949D2A0895E0EEF5E0B4
:1023700082818F7B8283E0E2F4E0808181608083D0
:1023800080818D7F80830E94B22A08951092080672
:10239000E0E6F4E08089887F808B80898460808B90
:1023A0008089877F808B0E94EB1008950E942C11FA
:1023B0000E941E110E94A6110E94B6110E94C61111
:1023C0000E948F2A0E942A110E94912A0E941A11AB
:1023D0000E94EF2A0E9481110895811522E0920740
:1023E00010F08FEF91E0FC01FC5E808108958F3F3B
:1023F00021E0920710F08EEF91E0FC01FC5E8081FD
:10240000918108958D3F21E0920710F08CEF91E0CB
:10241000FC01FC5E608171818281938108951F932C
:10242000CF93DF939C01211582E03807B0F490919F
:1024300002109370E1F7162FE90143E16DE980E0A6
:1024400090E10E94BE26DC5E188340E06DE980E0EA
:1024500090E10E94BE2681E001C080E0DF91CF9133
:102460001F910895CF92DF92EF92FF92CF93DF9367
:102470008F3F21E0920758F4EC016B010E940F128C
:102480006D2DCE0101960E940F1281E001C080E007
:10249000DF91CF91FF90EF90DF90CF900895FF9262
:1024A0000F931F93CF93DF938D3F21E09207C0F4EA
:1024B000172F062FF52E642FEC010E940F126F2D9F
:1024C000CE0101960E940F12602FCE0102960E944B
:1024D0000F12612FCE0103960E940F1281E001C0FE
:1024E00080E0DF91CF911F910F91FF9008954CE014
:1024F00062E080E00E94CA0542C0E5EDF0E48EEBA8
:10250000838382E082838AE281838AE380832091CD
:10251000E44A8DEC289F812D112486958695869519
:10252000A82FB0E0A156BF4B9C919583880F982FA0
:10253000990F990F890FA22FA81BB0E0A156BF4B8E
:102540008C9184838091E94A8823B9F08091EA4A8A
:10255000813041F42C3330F42F5F2093E44A109201
:10256000EA4A0BC08091EA4A833039F4223028F0DD
:1025700021502093E44A1092EA4A0E94480D80912B
:10258000A14A882321F08091A24A8111B6CF60919F
:10259000E44A81E090E00E940F1208954CE062E06E
:1025A00080E00E94CA0542C0E5EDF0E48EEB838333
:1025B00082E0828380E681838AE780832091EE4AED
:1025C0008DEC289F812D1124869586958695A82FC0
:1025D000B0E0A156BF4B9C919583880F982F990F1F
:1025E000990F890FA22FA81BB0E0A156BF4B8C9169
:1025F00084838091E94A8823B9F08091EA4A813046
:1026000041F42C3330F42F5F2093EE4A1092EA4AC3
:102610000BC08091EA4A833039F4223028F02150EF
:102620002093EE4A1092EA4A0E94480D8091A14AF6
:10263000882321F08091A24A8111B6CF6091EE4AA1
:1026400082E090E00E940F120895CF931092A24A68
:102650004CE062E080E00E94CA05C1E08BC080913E
:10266000E94A882399F08091EA4A813031F4C330F5
:1026700020F4CF5F1092EA4A09C08091EA4A833081
:1026800029F4CC2319F0C1501092EA4AEC2FF0E063
:10269000E156FF4B80818093DD40C13041F008F46A
:1026A00066C0C23099F1C33009F45FC061C0E5ED86
:1026B000F0E48EEB838382E082838AE281838AE383
:1026C0008083178216824091E44A8DEC489F812DC9
:1026D0001124869586958695282F30E021563F4B0C
:1026E000D9019C919583880F982F990F990F890F85
:1026F000A42FA81BB0E0A156BF4B8C91848380917E
:10270000A24A8823A9F10E94771232C0E5EDF0E4D5
:102710008EEB838382E0828380E681838AE78083F5
:10272000178216824091EE4A8DEC489F812D11242C
:10273000869586958695282F30E021563F4BD90106
:102740009C919583880F982F990F990F890FA42F2B
:10275000A81BB0E0A156BF4B8C9184838091A24A04
:10276000882331F00E94CE1203C0C1E001C0C2E054
:102770000E94480D8091A14A811171CFCF91089597
:10278000E0E2F9E0848188608483858181608583CB
:10279000E1EEF0E480818E7F808313868EE00895E1
:1027A000E1EEF0E480818E7F8083138680E00895DF
:1027B000E0E2F9E08481836084830E94D01308956D
:1027C000E1EEF0E4808188608083818190E0880F71
:1027D000991F81608093270984E008950E94E01387
:1027E00008950E94E0130895E1EEF0E4808188608E
:1027F00080838181880F8093270983E008950E9458
:10280000F4130895A1EEB0E48C91877F8C9382E05D
:102810001B968C931B975096ED91FC9151975C966B
:102820008D919C915D970995823019F0833021F04C
:1028300006C00E94F11308950E94FF1308950E949C
:10284000D8130895E0E2F9E084818B7F848384E0EB
:102850000895E0E2F9E084818B7F848383E008952A
:10286000E0E2F9E0848184608483848183608483EE
:102870000E94D0130895E0E2F9E0848184608483AB
:1028800088E008958091250984FF19C0A1EEB0E485
:102890005296ED91FC9153975E968D919C915F9726
:1028A0000995823019F0833021F006C00E94F1139F
:1028B00008950E94FF1308950E94D8130895E1EE31
:1028C000F0E48081877F8083A281B381CD0101966E
:1028D000828393838C9180932809848195810197C9
:1028E00084839583892B11F083E0089585E0089512
:1028F000CF93DF93E1EEF0E48081877F8083848152
:102900009581019731F4E0E2F9E084818460848369
:1029100005C0E0E2F9E084818B7F8483E1EEF0E49E
:1029200084819581019784839583892BA9F0DF01A8
:10293000C281D381E0E2F9E08085888312968D918F
:102940009C911397019612968D939C931397848173
:102950008260848384E026C0A1EEB0E41296ED91FB
:10296000FC91139780912809808312968D919C91F8
:102970001397019612968D939C9313978C91846074
:102980008C931C96ED91FC911D9758968D919C917E
:10299000599709958250823018F40E943B1402C066
:1029A0000E943014DF91CF9108958091250984FF12
:1029B00019C0A1EEB0E45296ED91FC9153975E964A
:1029C0008D919C915F970995823019F0833021F0A9
:1029D00006C00E94F11308950E94FF1308950E94FB
:1029E000D8130895A1EEB0E48C9184608C931C966A
:1029F000ED91FC911D9758968D919C915997099551
:102A0000833039F0843041F0823049F40E94F11370
:102A100008950E94FF1308950E94421408950E9491
:102A2000D8130895E0E2F9E0858188608583A1EEFE
:102A3000B0E482E01B968C931B971E96ED91FC915F
:102A40001F975A968D919C915B970995823019F04A
:102A5000833021F006C00E94F11308950E94FF13F5
:102A600008950E94C0130895E0E2F9E0848188602F
:102A70008483858181608583E1EEF0E480818E7FAF
:102A8000808382E083878EE00895CF93DF93E0E236
:102A9000F9E08581806C85838091E14083FF07C0E8
:102AA0008091250984FF03C08FE08093EB408091E3
:102AB000250983FF03C080E18093EB4080912509C5
:102AC00082FF03C081E18093EB40C1EED0E4EA8550
:102AD000F0E0EE0FFF1FEA5FFF4B0190F081E02D69
:102AE00009958A87DF91CF91089581E0089585E067
:102AF00008956115710591F090E0FC013696EE0F96
:102B0000FF1FEF51FF4B60837183FC013C96EE0F7A
:102B1000FF1FEF51FF4B40835183089590E0FC016C
:102B20003696EE0FFF1FEF51FF4B25E735E120836F
:102B30003183FC013C96EE0FFF1FEF51FF4B1082DB
:102B400011820895AB01BC0180E00E9479150895BF
:102B5000AB01BC0182E00E9479150895E0E2F9E042
:102B600084E4868381EC838308959091E14091FD14
:102B700037C0E1EEF0E48183892F8E7F82609EE092
:102B8000928724EF31E020873187877F84608083BC
:102B900085E795E184879587108E118E86879787C4
:102BA000128E138E808B918B148E158E828B938B4D
:102BB000168E178E87E795E1848B958B10A211A254
:102BC000E0E2F9E084818860848385818160858387
:102BD0008581806C85838381806C838380E0089508
:102BE00081E008958091250982FF07C0E1EEF0E4BD
:102BF00080818E7F808382E083878091E14080FDA9
:102C000017C0E1EEF0E48D7F80838FEF8183A0E237
:102C1000B9E015968C911597806C15968C93159745
:102C200013968C9113978F7313968C9383850895C5
:102C300081E008959C019091E14092FF09C0E1EE8E
:102C4000F0E42283338364837583892F8B7F8083B1
:102C500008959091E14090FD11C0E1EEF0E49160A3
:102C60009083882321F081E08093EB4003C082E0D1
:102C70008093EB400E94451580E0089581E008951F
:102C800080E00E94291608951F920F920FB60F92AE
:102C900011240BB60F922F933F934F935F936F9333
:102CA0007F938F939F93AF93BF93EF93FF930E9474
:102CB0004515FF91EF91BF91AF919F918F917F91BA
:102CC0006F915F914F913F912F910F900BBE0F909D
:102CD0000FBE0F901F90189561E070E00E941A16C9
:102CE00060E070E080E090E00E94A21584E008952A
:102CF00061E070E00E941A1660E070E080E090E011
:102D00000E94A21582E00895FF920F931F93CF9324
:102D1000DF9300D0CDB7DEB7F82E69834A8300E198
:102D200017E28F2D0E94B515813019F40150110959
:102D3000C1F7012B11F1BE016E5F7F4F8CE696E16A
:102D40000E94A21561E070E0CE0101960E941A1661
:102D500060E070E088E097E10E94A8150E944016AC
:102D600000E117E20E94F215813019F401501109B7
:102D7000C9F7012B21F482E003C081E001C080E0AB
:102D80000F900F90DF91CF911F910F91FF900895B9
:102D9000EF92FF921F93CF93DF9300D0CDB7DEB7B2
:102DA000182F6A838AE289836894EE24E1F8F12C73
:102DB00023C0812F0E94B5158823D9F3BE016F5F10
:102DC0007F4F88E796E10E94A21561E070E0CE0196
:102DD00002960E941A1660E070E088E097E10E9477
:102DE000A8150E9440160E94F2158130E1F3882355
:102DF00031F081E0E81AF108E114F104D1F689819B
:102E00000F900F90DF91CF911F91FF90EF90089559
:102E100083E008958F929F92AF92BF92EF92FF92BC
:102E20000F931F93CF93DF93C3EBDAE469817A8129
:102E30008B819C810F2EF0E18F2EF7E29F2EA12C2B
:102E4000B12CF02DA50194010E94A638E22E20930A
:102E5000064169817A818B819C81A50194010E9440
:102E6000A6380F2EF8EE8F2EF3E09F2EA12CB12C5A
:102E7000F02DA50194010E94A638F22E2093194B43
:102E800069817A818B819C81A50194010E94A63879
:102E90000F2EF4E68F2E912CA12CB12CF02DA50134
:102EA00094010E94A638022F20930B4B69817A81EE
:102EB0008B819C81A50194010E94A6380F2EFAE017
:102EC0008F2E912CA12CB12CF02DA50194010E94E4
:102ED000A638122F2093E34A69817A818B819C81E5
:102EE000A50194010E94A6386093004B89819A81C4
:102EF000AB81BC8181319742A105B10514F1EE2D62
:102F0000F0E0E156FF4B8081A5EDB0E413968C9381
:102F10001397EF2DF0E0E156FF4B808112968C93D2
:102F20001297E02FF0E0E156FF4B80818F5F119602
:102F30008C931197E12FF0E0E156FF4B80818C9349
:102F400058C08091B44A9091B54AA091B64AB091C8
:102F5000B74A893E9340A105B10514F1EF2DF0E089
:102F6000E156FF4B8081A5EDB0E413968C93139747
:102F7000E02FF0E0E156FF4B80818F5F12968C933B
:102F80001297E12FF0E0E156FF4B808111968C9370
:102F90001197E62FF0E0E156FF4B80818C9329C01A
:102FA0008091B44A9091B54AA091B64AB091B74A7F
:102FB000883E9340A105B105E4F4A5EDB0E4139675
:102FC0001C921397E02FF0E0E156FF4B80818F5F5A
:102FD00012968C931297E12FF0E0E156FF4B80811F
:102FE00011968C931197E62FF0E0E156FF4B80810C
:102FF0008C93DF91CF911F910F91FF90EF90BF9035
:10300000AF909F908F900895CF92DF92EF92FF92B2
:10301000E4E4F4E080818B7F80838091480483FF27
:10302000FCCF90E040E050E0BA011DC0440F551FB6
:10303000661F771FE4E4F4E080818460808322E6E9
:103040002A95F1F7000080818B7F808382E68A9544
:10305000F1F700008091480483FD04C04F5F5F4F8B
:103060006F4F7F4F9F5F983108F3E4E4F4E0808175
:103070008460808392E69A95F1F7000080818B7FCF
:1030800080832FEF8FE794E0215080409040E1F75C
:1030900000C00000CB01BA0120E48227613020EF9C
:1030A00072072FE7820791051CF060E070E0CB010A
:1030B00028EE33E040E050E00E94A638A8EEB3E0EE
:1030C0000E94DD38C090C44AD090C54AE090C64AFC
:1030D000F090C74A0E94AE33A70196010E940433C4
:1030E0000E947633FF90EF90DF90CF9008950F937A
:1030F0001F930E9404188B019C018091C04A9091FB
:10310000C14AA091C24AB091C34A801B910BA20B45
:10311000B30B181619061A061B067CF4E3EBFAE447
:103120004585568567857089481B590B6A0B7B0B53
:10313000458756876787708B10C0BB2374F4E3EB19
:10314000FAE44585568567857089480F591F6A1FBF
:103150007B1F458756876787708B892B8A2B8B2B24
:1031600061F68AE090E00E943B0426E686EE90E05D
:10317000215080409040E1F70E94480D1F910F912F
:1031800008954F925F926F927F928F929F92AF922B
:10319000BF92CF92DF92EF92FF928090C04A9090C0
:1031A000C14AA090C24AB090C34A0E9404182B01A1
:1031B0003C012091064B3091074B4091084B5091B8
:1031C000094BA8EEB3E00E94DD386B017C011414BA
:1031D0001504160417040CF066C08091C04A909143
:1031E000C14AA091C24AB091C34AA3019201281BCF
:1031F000390B4A0B5B0BCA01B90111F41092C94A91
:10320000613836E9730738E983079105C0F080918A
:10321000C94A8F5F8093C94A863070F00E94771840
:103220008FEF9FE80197F1F700C000000E94771828
:1032300060E070E0CB0103C060E070E0CB011616E7
:103240001706180619064CF540909A4A50909B4A6A
:10325000052C000C6608770864157505860597052A
:10326000E4F42091C94A2F5F2093C94A263090F098
:10327000DC01CB01880D991DAA1DBB1D8093C04A9E
:103280009093C14AA093C24AB093C34A60E070E0F1
:10329000CB0103C060E070E0CB01C616D706E8069C
:1032A000F90628F007C060E070E0CB0103C060E0E1
:1032B00070E0CB012AE030E040E050E00E94A63808
:1032C000C901FF90EF90DF90CF90BF90AF909F909B
:1032D0008F907F906F905F904F9008951092DD4097
:1032E00088E090E00E94F7119C0180939A4A9093A5
:1032F0009B4A60E177E20E94703860939C4AE8EE56
:10330000F3E0BF010E9470386093164BC901BF0102
:103310000E947038E4E6F0E0BF010E9470386093CC
:103320009D4AC901BF010E947038EAE0F0E0BF0188
:103330000E94703860937C4AC901BF010E947038B6
:103340008093014B3DC181E08093A44A8091E84A7B
:10335000823009F485C030F4882369F0813009F4A3
:1033600044C02CC1843009F4F0C008F4B4C08530E6
:1033700009F422C123C1E091014BF0E0E156FF4B7B
:1033800080818093E0408091154B882319F0109242
:10339000DC4008C0E0919C4AF0E0E156FF4B8081A0
:1033A0008093DC408091E94A882309F407C1809129
:1033B000EA4A813051F480919C4A811106C08F5FA6
:1033C00080939C4A1092EA4AF9C08091EA4A83307D
:1033D00009F0F4C080919C4A882309F4EFC0815021
:1033E00080939C4A1092EA4AE9C0E0919C4AF0E03E
:1033F000E156FF4B80818093DC408091154B882300
:1034000019F01092DB4009C0E091164BF0E0E15654
:10341000FF4B80818F5F8093DB408091E94A882356
:1034200009F4CCC08091EA4A813051F48091164B66
:10343000893030F48F5F8093164B1092EA4ABEC0F9
:103440008091EA4A833009F0B9C08091164B8823F5
:1034500009F4B4C081508093164B1092EA4AAEC072
:10346000E091164BF0E0E156FF4B80818F5F809337
:10347000DB408091154B882319F01092DA4008C088
:10348000E0919D4AF0E0E156FF4B80818093DA4065
:103490008091E94A882309F491C08091EA4A8130F9
:1034A00051F480919D4A893030F48F5F80939D4A1A
:1034B0001092EA4A83C08091EA4A833009F07EC0C4
:1034C00080919D4A882309F479C0815080939D4A58
:1034D0001092EA4A73C0E0919D4AF0E0E156FF4B3A
:1034E00080818093DA408091154B882319F01092E7
:1034F000D94008C0E0917C4AF0E0E156FF4B808162
:103500008093D9408091E94A882309F457C080917B
:10351000EA4A813051F480917C4A893030F48F5FDF
:1035200080937C4A1092EA4A49C08091EA4A8330EB
:1035300009F044C080917C4A882309F43FC081503F
:1035400080937C4A1092EA4A39C0E0917C4AF0E0CC
:10355000E156FF4B80818093D9408091154B8823A1
:1035600019F01092E04008C0E091014BF0E0E15604
:10357000FF4B80818093E0408091E94A8823F1F0FD
:103580008091EA4A813051F48091014B893030F4C6
:103590008F5F8093014B1092EA4A10C08091EA4AF3
:1035A000833061F48091014B882341F081508093F6
:1035B000014B1092EA4A02C01092E84A0E94480D5C
:1035C0008091A14A8111BFCE20919C4A80E197E26F
:1035D000289FB001299F700D11244091164B28EEB1
:1035E00033E0429FC001439F900D1124680F791F63
:1035F00080919D4A94E6899F600D711D11248091F0
:103600007C4A90E09C01220F331F880F991F880F7E
:10361000991F880F991F820F931F680F791F809140
:10362000014B680F711D60939A4A70939B4A88E022
:1036300090E00E943212E1EAFAE481E08083118294
:1036400013821092E84A08952F923F924F925F9210
:103650006F927F928F929F92AF92BF92CF92DF92A2
:10366000EF92FF920F931F93CF93DF93CDB7DEB707
:103670002597CDBFDEBF1092DD408CE090E00E9428
:1036800002121B012C016093A64A3092A74A409275
:10369000A84A5092A94A1092AA4A1092AB4A109294
:1036A000AC4A1092AD4A6894AA24A4F80F2EF7E20F
:1036B000BF2EF02DC12CD12CE12CF12C00E010E01C
:1036C000262F332D442D552D60E070E080E090E0F2
:1036D0000E9443392093F34A3093F44A4093F54AC9
:1036E0005093F64A6093F74A7093F84A8093F94AE8
:1036F0009093FA4A222D332D442D552D60E070E031
:1037000080E090E00E9441390F2EF8EEAF2EF02DB0
:103710000F2EF3E0BF2EF02D0E94433920931F4C53
:103720003093204C4093214C5093224C6093234C77
:103730007093244C8093254C9093264C222D332D4E
:10374000442D552D60E070E080E090E00E9441390A
:103750000F2EF4E6AF2EF02DB12C0E9443392093AA
:103760000D4B30930E4B40930F4B5093104B609387
:10377000114B7093124B8093134B9093144B222D4B
:10378000332D442D552D60E070E080E090E00E94E4
:1037900041390F2EFAE0AF2EF02D0E9443392093CD
:1037A000DB4A3093DC4A4093DD4A5093DE4A609313
:1037B000DF4A7093E04A8093E14A9093E24A222DD7
:1037C000332D442D552D60E070E080E090E00E94A4
:1037D000413920931A4B30931B4B40931C4B509311
:1037E0001D4B60931E4B70931F4B8093204B909307
:1037F000214BF2C281E08093A44A8091E84A823052
:1038000009F435C130F4882369F0813009F49DC092
:10381000E1C2843009F44DC208F4BAC1853009F41C
:10382000D7C2D8C2E0911A4BF0911B4BE156FF4B27
:1038300080818093E0408091154B882319F010928D
:10384000DC400AC0E091F34AF091F44AE156FF4BA4
:1038500080818F5F8093DC408091E94A882309F45E
:10386000B9C28091EA4A8130A9F5F090F34A0091FB
:10387000F44A1091F54A8091F64A8A838091F74A7A
:103880008983B091F84AF091F94AE091FA4A2F2DD4
:10389000302F412F5A81682F7B2F8F2F9E2FA7E02B
:1038A0000E94D73909F0B0F4A1E00E94C2392093F8
:1038B000F34A3093F44A4093F54A5093F64A6093A2
:1038C000F74A7093F84A8093F94A9093FA4A109213
:1038D000EA4A80C28091EA4A833009F07BC2F090C4
:1038E000F34A0091F44A1091F54A8091F64A8A838E
:1038F0008091F74A8983B091F84AF091F94AE091B2
:10390000FA4A2F2D302F412F5A81682F7B2F8F2F6E
:103910009E2FA1E00E94D73909F008F45BC2AFEFF7
:103920000E94C2392093F34A3093F44A4093F54AF7
:103930005093F64A6093F74A7093F84A8093F94A95
:103940009093FA4A1092EA4A45C2E091F34AF09104
:10395000F44AE156FF4B80818F5F8093DC40809179
:10396000154B882319F01092DB4009C0E0911F4CE1
:10397000F091204CE156FF4B80818093DB40809199
:10398000E94A882309F426C28091EA4A8130A9F5E0
:10399000F0901F4C0091204C1091214C8091224CB2
:1039A0008A838091234C8983B091244CF091254CDB
:1039B000E091264C2F2D302F412F5A81682F7B2FDD
:1039C0008F2F9E2FA8E00E94D73909F0B0F4A1E014
:1039D0000E94C23920931F4C3093204C4093214CBD
:1039E0005093224C6093234C7093244C8093254C2D
:1039F0009093264C1092EA4AEDC18091EA4A8330B6
:103A000009F0E8C1F0901F4C0091204C1091214C1E
:103A10008091224C8A838091234C8983B091244CDD
:103A2000F091254CE091264C2F2D302F412F5A81BB
:103A3000682F7B2F8F2F9E2FA0E00E94D73909F48B
:103A4000C9C1AFEF0E94C23920931F4C3093204C64
:103A50004093214C5093224C6093234C7093244C00
:103A60008093254C9093264C1092EA4AB3C1E09182
:103A70001F4CF091204CE156FF4B80818093DB403E
:103A80008091154B882319F01092DA4009C0E0911B
:103A90000D4BF0910E4BE156FF4B80818093DA4045
:103AA0008091E94A882309F495C18091EA4A8130DE
:103AB000A9F5F0900D4B00910E4B10910F4B80919A
:103AC000104B8A838091114B8983B091124BF091F6
:103AD000134BE091144B2F2D302F412F5A81682F1B
:103AE0007B2F8F2F9E2FA8E00E94D73909F0B0F4CA
:103AF000A1E00E94C23920930D4B30930E4B4093AE
:103B00000F4B5093104B6093114B7093124B80935B
:103B1000134B9093144B1092EA4A5CC18091EA4A8D
:103B2000833009F057C1F0900D4B00910E4B10916E
:103B30000F4B8091104B8A838091114B8983B091F8
:103B4000124BF091134BE091144B2F2D302F412F3E
:103B50005A81682F7B2F8F2F9E2FA0E00E94D7398C
:103B600009F438C1AFEF0E94C23920930D4B309356
:103B70000E4B40930F4B5093104B6093114B70932F
:103B8000124B8093134B9093144B1092EA4A22C12C
:103B9000E0910D4BF0910E4BE156FF4B80818093ED
:103BA000DA408091154B882319F01092D94009C052
:103BB000E091DB4AF091DC4AE156FF4B8081809333
:103BC000D9408091E94A882309F404C18091EA4AE6
:103BD0008130A9F5F090DB4A0091DC4A1091DD4A72
:103BE0008091DE4A8A838091DF4A8983B091E04ADE
:103BF000F091E14AE091E24A2F2D302F412F5A8176
:103C0000682F7B2F8F2F9E2FA8E00E94D73909F0B5
:103C1000B0F4A1E00E94C2392093DB4A3093DC4A21
:103C20004093DD4A5093DE4A6093DF4A7093E04A46
:103C30008093E14A9093E24A1092EA4ACBC0809185
:103C4000EA4A833009F0C6C0F090DB4A0091DC4AB2
:103C50001091DD4A8091DE4A8A838091DF4A898310
:103C6000B091E04AF091E14AE091E24A2F2D302FE5
:103C7000412F5A81682F7B2F8F2F9E2FA0E00E940B
:103C8000D73909F4A7C0AFEF0E94C2392093DB4AAD
:103C90003093DC4A4093DD4A5093DE4A6093DF4A1A
:103CA0007093E04A8093E14A9093E24A1092EA4A84
:103CB00091C0E091DB4AF091DC4AE156FF4B8081F4
:103CC0008093D9408091154B882319F01092E040E1
:103CD00009C0E0911A4BF0911B4BE156FF4B8081DC
:103CE0008093E0408091E94A882309F473C0809171
:103CF000EA4A8130A9F5F0901A4B00911B4B1091C4
:103D00001C4B80911D4B8A8380911E4B8983B091FF
:103D10001F4BF091204BE091214B2F2D302F412F45
:103D20005A81682F7B2F8F2F9E2FA8E00E94D739B2
:103D300009F0B0F4A1E00E94C23920931A4B3093ED
:103D40001B4B40931C4B50931D4B60931E4B709329
:103D50001F4B8093204B9093214B1092EA4A3AC01C
:103D60008091EA4A8330B1F5F0901A4B00911B4BD9
:103D700010911C4B80911D4B8A8380911E4B89832F
:103D8000B0911F4BF091204BE091214B2F2D302F04
:103D9000412F5A81682F7B2F8F2F9E2FA0E00E94EA
:103DA000D739C1F0AFEF0E94C23920931A4B30933C
:103DB0001B4B40931C4B50931D4B60931E4B7093B9
:103DC0001F4B8093204B9093214B1092EA4A02C0E4
:103DD0001092E84A0E94480D8091A14A81110ACDB3
:103DE0006894AA24A4F80F2EF7E2BF2EF02DC12C60
:103DF000D12CE12CF12C00E010E02091F34A30911D
:103E0000F44A4091F54A5091F64A6091F74A709110
:103E1000F84A8091F94A9091FA4A0E94E838622E55
:103E2000732E842E952E6D8379838A839B83E091F4
:103E30001F4C5090204C4090214C3090224C2090B0
:103E4000234C8091244C8C83B091254CA091264C1E
:103E50002E2F352D442D532D622D782F8B2F9A2FF9
:103E600002E00E94A039A22EB32EC42ED52EE62E3B
:103E7000F72EF82F192F05E00E94A0390F2F0E946E
:103E8000CE39AE2EB52CC42CD32CE22CFC800B2FBB
:103E90001A2F0E94B93903E00E94A039A22EB32E36
:103EA000C42ED52EE62EF72E082F192F262D372DAE
:103EB000482D592D6D8179818A819B810E94B93964
:103EC000222E332E442E552E662E772E89839A83EA
:103ED00020910D4B30910E4B40910F4B5091104B58
:103EE0006091114B7091124B8091134B9091144B38
:103EF00002E00E94A039822E932E4C835B83B62F62
:103F0000A72FF82FE92F0E94A039A22EB32EC42E7E
:103F1000D52EE62EF72E082F192F282D392D4C815E
:103F20005B816B2F7A2F8F2F9E2F0E94B939822EA3
:103F3000932E4C835B83B62FA72FF82FE92F02E037
:103F40000E94A039A22EB32EC42ED52EE62EF72E17
:103F5000082F192F282D392D4C815B816B2F7A2F3B
:103F60008F2F9E2F0E94B939A22EB32EC42ED52E8C
:103F7000E62EF72E082F192F222D332D442D552DE7
:103F8000662D772D89819A810E94B939222E332E90
:103F9000442E552E662E772E89839A832091DB4AF4
:103FA0003091DC4A4091DD4A5091DE4A6091DF4A0F
:103FB0007091E04A8091E14A9091E24A01E00E94CA
:103FC000A039822E932E4C835B83B62FA72FF82F18
:103FD000E92F02E00E94A039A22EB32EC42ED52EC6
:103FE000E62EF72E082F192F282D392D4C815B81B5
:103FF0006B2F7A2F8F2F9E2F0E94B939A22EB32EAE
:10400000C42ED52EE62EF72E082F192F222D332D54
:10401000442D552D662D772D89819A810E94B939BD
:10402000A0901A4BB0901B4BC0901C4BD0901D4BD6
:10403000E0901E4BF0901F4B0091204B1091214BB4
:104040000E94B9392093A64A3093A74A4093A84AC0
:104050005093A94A6093AA4A7093AB4A8093AC4AA2
:104060009093AD4A642F752F422F532F8CE090E030
:104070000E944F12E1EAFAE481E080831182138208
:104080001092E84A2596CDBFDEBFDF91CF911F91F8
:104090000F91FF90EF90DF90CF90BF90AF909F90E7
:1040A0008F907F906F905F904F903F902F900895EA
:1040B000CF93DF93D2C01092CB4A1092CC4A109289
:1040C000C94A8091E94A882309F48EC08091EA4A5E
:1040D000813061F48091024B9091034B0196809363
:1040E000024B9093034B1092EA4A0FC08091EA4A28
:1040F000833059F48091024B9091034B0197809348
:10410000024B9093034B1092EA4A2091024B30915C
:10411000034B33230CF1E5EDF0E41782C90164E6AB
:1041200070E00E947038DB01A156BF4B4C91468372
:10413000CAE0D0E0BE010E947038DB01A156BF4B3F
:104140008C918583C901BE010E947038DC01A156A3
:10415000BF4B8C91848348C02195A5EDB0E482E0EB
:1041600017968C93179789E22802812D1124859543
:10417000859585958595922F990F990B891BE82F29
:10418000082E000CFF0BE156FF4B308116963C9336
:104190001697322F44E6849F3019112487E638029F
:1041A000E12D1124E595E59537FDE3950E2E000CE4
:1041B000FF0BE156FF4B308115963C931597280273
:1041C000812D112485958595891B880F982F990F2E
:1041D000990F890FE22FE81B0E2E000CFF0BE15602
:1041E000FF4B808114968C938091024B9091034BEE
:1041F0008093FC4A9093FD4A0E94C118A0E0B0E071
:104200008093B44A9093B54AA093B64AB093B74A04
:104210000097A105B105C9F0E3EBFAE441815281B1
:10422000638174818091FC4A9091FD4A092E000CB3
:10423000AA0BBB0B840F951FA61FB71F8183928308
:10424000A383B4830E940A1706C0892B8A2B8B2B69
:1042500011F40E940A170E94480D8091A14A8823F8
:1042600021F08091A24A811126CF6091024B70917A
:10427000034B8AE090E00E943212DF91CF910895C3
:104280008F929F92AF92BF92CF92DF92EF92FF9266
:104290001092DD4086E090E00E94F7116C01E12C65
:1042A000F12CC092064BD092074BE092084BF09253
:1042B000094BC701B60128EE33E040E050E00E9410
:1042C0008438209305410F2EF4E68F2E912CA12CDB
:1042D000B12CF02DA50194010E9484382093FB4A53
:1042E000C701B601A50194010E9484380F2EFAE09F
:1042F0008F2E912CA12CB12CF02DA50194010E94A0
:1043000084382093054BC701B601A50194010E9492
:1043100084386093C84AFFC081E08093A44A8091AA
:10432000E84A823009F482C030F4882359F08130A1
:1043300009F442C0EEC0833009F4B2C0843009F4FD
:10434000E6C0E7C0E091C84AF0E0E156FF4B80814B
:104350008093D9408091154B882319F01092DC404E
:1043600008C0E0910541F0E0E156FF4B8081809369
:10437000DC408091E94A882309F4CBC08091EA4A65
:10438000813051F480910541811106C08F5F809387
:1043900005411092EA4ABDC08091EA4A833009F093
:1043A000B8C080910541882309F4B3C0815080933F
:1043B00005411092EA4AADC0E0910541F0E0E156B6
:1043C000FF4B80818093DC408091154B882319F04E
:1043D0001092DB4008C0E091FB4AF0E0E156FF4B51
:1043E00080818093DB408091E94A882309F491C061
:1043F0008091EA4A813051F48091FB4A853030F453
:104400008F5F8093FB4A1092EA4A83C08091EA4A08
:10441000833009F07EC08091FB4A882309F479C07B
:1044200081508093FB4A1092EA4A73C0E091FB4AA4
:10443000F0E0E156FF4B80818093DB408091154B8B
:10444000882319F01092DA4008C0E091054BF0E0A3
:10445000E156FF4B80818093DA408091E94A8823BE
:1044600009F457C08091EA4A813051F48091054B9C
:10447000893030F48F5F8093054B1092EA4A49C02F
:104480008091EA4A833009F044C08091054B88232B
:1044900009F43FC081508093054B1092EA4A39C01D
:1044A000E091054BF0E0E156FF4B80818093DA40CC
:1044B0008091154B882319F01092D94008C0E091E3
:1044C000C84AF0E0E156FF4B80818093D94080914B
:1044D000E94A8823F1F08091EA4A813051F48091D1
:1044E000C84A893030F48F5F8093C84A1092EA4AF4
:1044F00010C08091EA4A833061F48091C84A8823D1
:1045000041F081508093C84A1092EA4A02C010924A
:10451000E84A0E94480D8091A14A8111FDCE409148
:10452000054128EE33E0429FC001439F900D1124C6
:10453000AC01990F660B770B8091FB4A24E6829FB2
:10454000C0011124092E000CAA0BBB0B840F951F70
:10455000A61FB71F2091054B30E0B901660F771FEA
:10456000220F331F220F331F220F331F620F731FBF
:10457000AB01770F660B770B840F951FA61FB71F34
:104580002091C84ABC01CD01620F711D811D911D92
:104590006093064B7093074B8093084B9093094BA5
:1045A00086E090E00E943212E1EAFAE481E0808342
:1045B000118213821092E84AFF90EF90DF90CF9023
:1045C000BF90AF909F908F9008954CE062E080E0A4
:1045D0000E94CA0543C0E5EDF0E417828AE18283B8
:1045E0008AE281838EE1808316822091174B8DECC5
:1045F000289F812D1124869586958695A82FB0E059
:10460000A156BF4B9C919583880F982F990F990FB6
:10461000890FA22FA81BB0E0A156BF4B8C918483B9
:1046200010868091E94A8823B9F08091EA4A813066
:1046300041F4243030F4220F2093174B1092EA4AB1
:104640000BC08091EA4A833039F4223028F0269555
:104650002093174B1092EA4A0E94480D8091A14A7C
:10466000882321F08091A24A8111B5CF6091174B28
:1046700085E090E00E940F1208954CE062E080E037
:104680000E94CA0543C0E5EDF0E4138280E6828310
:104690008AE781831082178216822091724A8DECFC
:1046A000289F812D1124869586958695A82FB0E0A8
:1046B000A156BF4B9C919583880F982F990F990F06
:1046C000890FA22FA81BB0E0A156BF4B8C91848309
:1046D00010868091E94A8823B9F08091EA4A8130B6
:1046E00041F42C3330F42F5F2093724A1092EA4A3F
:1046F0000BC08091EA4A833039F4222329F02150FB
:104700002093724A1092EA4A0E94480D8091A14A71
:10471000882321F08091A24A8111B5CF6091724A1D
:1047200084E090E00E940F1208954F925F926F9282
:104730007F928F929F92AF92BF92CF92DF92EF9231
:10474000FF920F931F93CF93DF931092A24A4CE0F6
:1047500062E080E00E94CA0584E090E00E94ED11D2
:104760008093724A85E090E00E94ED118093174B90
:1047700086E090E00E94F711A0E0B0E08093064B45
:104780009093074BA093084BB093094B8CE090E0BB
:104790000E940212DC01CB018093A64A9093A74AA3
:1047A000A093A84AB093A94A1092AA4A1092AB4A81
:1047B0001092AC4A1092AD4A88E090E00E94F71146
:1047C00080939A4A90939B4A8AE090E00E94F71166
:1047D0008093024B9093034B4090064B5090074BB5
:1047E0006090084B7090094BC301B20128EE33E092
:1047F00040E050E00E948438209305410F2EF4E6FB
:104800008F2E912CA12CB12CF02DA50194010E948A
:1048100084382093FB4AC301B201A50194010E9490
:1048200084380F2EFAE08F2E912CA12CB12CF02D74
:10483000A50194010E9484382093054BC301B20165
:10484000A50194010E9484386093C84A4090A64A0A
:104850005090A74A6090A84A7090A94A8090AA4AAE
:104860009090AB4AD091AC4AC091AD4A6894AA24CA
:10487000A4F80F2EF7E2BF2EF02DC12CD12CE12C85
:10488000F12C00E010E0242D352D462D572D682DFC
:10489000792D8D2F9C2F0E9443392093F34A30931A
:1048A000F44A4093F54A5093F64A6093F74A70935E
:1048B000F84A8093F94A9093FA4A242D352D462DD3
:1048C000572D682D792D8D2F9C2F0E9441390F2E49
:1048D000F8EEAF2EF02D0F2EF3E0BF2EF02D0E943C
:1048E000433920931F4C3093204C4093214C5093DC
:1048F000224C6093234C7093244C8093254C9093CE
:10490000264C242D352D462D572D682D792D8D2F94
:104910009C2F0E9441390F2EF4E6AF2EF02DB12CC2
:104920000E94433920930D4B30930E4B40930F4B15
:104930005093104B6093114B7093124B8093134B19
:104940009093144B242D352D462D572D682D792D00
:104950008D2F9C2F0E9441390F2EFAE0AF2EF02DA3
:104960000E9443392093DB4A3093DC4A4093DD4A6E
:104970005093DE4A6093DF4A7093E04A8093E14AA5
:104980009093E24A242D352D462D572D682D792DF3
:104990008D2F9C2F0E94413920931A4B30931B4B33
:1049A00040931C4B50931D4B60931E4B70931F4BB9
:1049B0008093204B9093214B20919A4A30919B4AAF
:1049C000C90160E177E20E94703860939C4AE8EE8A
:1049D000F3E0BF010E9470386093164BC901BF011C
:1049E0000E947038E4E6F0E0BF010E9470386093E6
:1049F0009D4AC901BF010E947038EAE0F0E0BF01A2
:104A00000E94703860937C4AC901BF010E947038CF
:104A10008093014BC1E09DC18091E94A882399F0C0
:104A20008091EA4A813031F4C73020F4CF5F109290
:104A3000EA4A09C08091EA4A833029F4CC2319F06C
:104A4000C1501092EA4AEC2FF0E0E156FF4B808112
:104A50008093DD408C2F90E08830910508F077C17D
:104A6000FC01E058FC4F0C94C538E5EDF0E41382EE
:104A7000128280E681838AE78083178216824091C2
:104A8000724A8DEC489F812D1124869586958695D6
:104A9000282F30E021563F4BD9019C919583880FF8
:104AA000982F990F990F890FA42FA81BB0E0A1563A
:104AB000BF4B8C91848313868091A24A882309F48A
:104AC00046C10E943D2343C1E5EDF0E413828AE133
:104AD00082838AE281838EE18083178216824091ED
:104AE000174B8DEC489F812D1124869586958695D0
:104AF000282F30E021563F4BD9019C919583880F98
:104B0000982F990F990F890FA42FA81BB0E0A156D9
:104B1000BF4B8C91848313868091A24A882309F429
:104B200016C10E94E52213C1E5EDF0E48CE9838310
:104B30008AEF82839EEC91838083A0910541B0E04F
:104B4000A156BF4B8C918783A091FB4AB0E0A15640
:104B5000BF4B8C918683A091054BB0E0A156BF4B13
:104B60008C918583A091C84AB0E0A156BF4B8C912F
:104B7000848313868091A24A882309F4E8C00E94A6
:104B80004021E5C0E5EDF0E4138212828AE08183E2
:104B90008AE38083A091F34AB091F44AA156BF4BB7
:104BA0008C918F5F8783A0911F4CB091204CA156B0
:104BB000BF4B8C918683A0910D4BB0910E4BA156AB
:104BC000BF4B8C918583A091DB4AB091DC4AA15602
:104BD000BF4B8C918483A0911A4BB0911B4BA15673
:104BE000BF4B8C9183878091A24A882309F4AFC080
:104BF0000E94241BACC0E5EDF0E480E683838CEEDC
:104C0000828382E0818386EB8083A0919C4AB0E01E
:104C1000A156BF4B8C918783A091164BB0E0A15653
:104C2000BF4B8C918F5F8683A0919D4AB0E0A156C7
:104C3000BF4B8C918583A0917C4AB0E0A156BF4BBD
:104C40008C918483A091014BB0E0A156BF4B8C9115
:104C500083878091A24A882309F479C00E946E1943
:104C600076C0E5EDF0E486EB83838AE182838AEF08
:104C7000818380E680832091024B3091034B332364
:104C8000FCF01782C90164E670E00E947038DB0115
:104C9000A156BF4B4C9146830AE010E0B8010E9438
:104CA0007038DB01A156BF4B8C918583C901B801D7
:104CB0000E947038DC01A156BF4B8C9184833BC0AD
:104CC0002195A5EDB0E482E017968C93179789E2C1
:104CD000289F812D112482958F70E82FF0E0E156F6
:104CE000FF4B908116969C931697E22F94E6899F2E
:104CF000E01911248DECE89FE12D1124E695E6954D
:104D0000E695F0E0E156FF4B908115969C93159740
:104D1000289F812D1124869586958695880F982F3A
:104D2000990F990F890F281BE22FF0E0E156FF4BF6
:104D3000808114968C931092E0408091A24A88233F
:104D400031F00E94582003C0C1E001C0C6E00E94BB
:104D5000480D8091A14A81115FCEDF91CF911F91C3
:104D60000F91FF90EF90DF90CF90BF90AF909F900A
:104D70008F907F906F905F904F9008951BBEFC01C5
:104D800064BF40830895682F88E60E94C816982F54
:104D900092959F70990F292F220F220F920F8F70DB
:104DA000890F0895CF93DF9386E00E94C326C3ED59
:104DB000DAE48E8385E00E94C3268D8384E00E941E
:104DC000C3268C8383E00E94C3268B8382E00E94EB
:104DD000C3268A8381E00E94C326898380E00E94E3
:104DE000C3268883DF91CF9108959DEC699F912D13
:104DF000112496959695969520E1929FA0011124F5
:104E0000990F292F220F220F920F691B6F70462BCB
:104E1000682F88E60E9484160895962F482F50E048
:104E20004730510518F5FA01E857FC4F0C94C53886
:104E30009C33E8F090E01BC09C33C8F090E017C0B2
:104E40009831A8F090E013C02FEF290F273078F0A9
:104E500091E00DC0903258F091E009C09D3038F0DB
:104E600091E005C0911103C095E101C090E0692F68
:104E70000E94F5260895CF93DF931092A24A4CE04A
:104E800062E080E00E94CA050E94D226C3EDDAE407
:104E9000AE818DECA89F912D1124969596959695AF
:104EA000E92FF0E0E156FF4B2081E5EDF0E42383AC
:104EB000990F292F220F220F920FA91BB0E0A156A4
:104EC000BF4B9C9192834D81489F912D11249695C3
:104ED00096959695292F30E021563F4BD9012C917C
:104EE0002183990F292F220F220F920FA42FA91B84
:104EF000B0E0A156BF4B9C9190834C81489F912D6F
:104F00001124969596959695292F30E021563F4B82
:104F1000D9012C912783990F292F220F220F920F4D
:104F2000A42FA91BB0E0A156BF4B9C9196834A8148
:104F3000489F912D1124969596959695292F30E0AE
:104F400021563F4BD9012C912583990F292F220FF0
:104F5000220F920FA42FA91BB0E0A156BF4B9C912A
:104F600094834981489F912D112496959695969505
:104F7000292F30E021563F4BD9012C912387990FDF
:104F8000292F220F220F920FA42FA91BB0E0A156A8
:104F9000BF4B9C919287A881A89F812D1124869553
:104FA00086958695C82FD0E0C156DF4B98819187B2
:104FB000880F982F990F990F890FA81BB0E0A15661
:104FC000BF4B8C9180878AC281E08093A44AE09194
:104FD000E84A8E2F90E08730910508F07DC2FC01F1
:104FE000E157FC4F0C94C538E091D34A8DECE89F13
:104FF000812D1124869586958695A82FB0E0A1561F
:10500000BF4B9C91A5EDB0E419969C931997880F1E
:10501000982F990F990F890FE81BF0E0E156FF4B8D
:10502000808118968C9318978091154B882321F0D6
:10503000FD01138212821FC0E091D94A8DECE89FD6
:10504000812D1124869586958695A82FB0E0A156CE
:10505000BF4B9C91A5EDB0E413969C931397880FDA
:10506000982F990F990F890FE81BF0E0E156FF4B3D
:10507000808112968C938091E94A882309F42CC28E
:105080008091EA4A813051F48091D94A833630F4D4
:105090008F5F8093D94A1092EA4A1EC28091EA4AF1
:1050A000833009F019C28091D94A882309F414C2C7
:1050B00081508093D94A1092EA4A0EC2E091D94AAF
:1050C0008DECE89F812D1124869586958695A82FD5
:1050D000B0E0A156BF4B9C91A5EDB0E413969C9314
:1050E0001397880F982F990F990F890FE81BF0E0FD
:1050F000E156FF4B808112968C9312978091154B4D
:10510000882321F0FD01118210821EC0E091D84A4F
:105110008DECE89F812D1124869586958695A82F84
:10512000B0E0A156BF4B9C91A5EDB0E411969C93C5
:105130001197880F982F990F990F890FE81BF0E0AE
:10514000E156FF4B80818C938091E94A882309F4D2
:10515000C3C18091EA4A813051F48091D84A8C30A1
:1051600030F48F5F8093D84A1092EA4AB5C180919B
:10517000EA4A833009F0B0C18091D84A823008F4FD
:10518000ABC181508093D84A1092EA4AA5C1E09100
:10519000D84A8DECE89F812D1124869586958695B9
:1051A000A82FB0E0A156BF4B9C91A5EDB0E411969D
:1051B0009C931197880F982F990F990F890FE81BCF
:1051C000F0E0E156FF4B80818C938091154B882352
:1051D00021F0FD01178216821FC0E091D74A8DECA5
:1051E000E89F812D1124869586958695A82FB0E09D
:1051F000A156BF4B9C91A5EDB0E417969C931797D1
:10520000880F982F990F990F890FE81BF0E0E1564E
:10521000FF4B808116968C938091E94A882309F48C
:105220005BC18091EA4A813051F48091D74A8F3135
:1052300030F48F5F8093D74A1092EA4A4DC1809133
:10524000EA4A833009F048C18091D74A823008F495
:1052500043C181508093D74A1092EA4A3DC1E09100
:10526000D74A8DECE89F812D1124869586958695E9
:10527000A82FB0E0A156BF4B9C91A5EDB0E41796C6
:105280009C931797880F982F990F990F890FE81BF8
:10529000F0E0E156FF4B808116968C931697809133
:1052A000154B882321F0FD01158214821FC0E09167
:1052B000D54A8DECE89F812D11248695869586959B
:1052C000A82FB0E0A156BF4B9C91A5EDB0E4159678
:1052D0009C931597880F982F990F990F890FE81BAA
:1052E000F0E0E156FF4B808114968C938091E94A5F
:1052F000882309F4F1C08091EA4A813051F4809109
:10530000D54A873130F48F5F8093D54A1092EA4AAC
:10531000E3C08091EA4A833009F0DEC08091D54A2B
:10532000882309F4D9C081508093D54A1092EA4A63
:10533000D3C0E091D54A8DECE89F812D112486954C
:1053400086958695A82FB0E0A156BF4B9C91A5ED00
:10535000B0E415969C931597880F982F990F990F85
:10536000890FE81BF0E0E156FF4B808114968C9387
:1053700014978091154B882321F0FD011386128626
:105380001FC0E091D44A8DECE89F812D11248695B1
:1053900086958695A82FB0E0A156BF4B9C91A5EDB0
:1053A000B0E41B969C931B97880F982F990F990F29
:1053B000890FE81BF0E0E156FF4B80811A968C9331
:1053C0008091E94A882309F487C08091EA4A8130B4
:1053D00051F48091D44A8B3330F48F5F8093D44A58
:1053E0001092EA4A79C08091EA4A833009F074C089
:1053F0008091D44A882309F46FC081508093D44AA5
:105400001092EA4A69C0E091D44A8DECE89F812D60
:105410001124869586958695A82FB0E0A156BF4B9E
:105420009C91A5EDB0E41B969C931B97880F982F39
:10543000990F990F890FE81BF0E0E156FF4B80812F
:105440001A968C931A978091154B882321F0FD01B1
:10545000118610861FC0E091D34A8DECE89F812D04
:105460001124869586958695A82FB0E0A156BF4B4E
:105470009C91A5EDB0E419969C931997880F982FED
:10548000990F990F890FE81BF0E0E156FF4B8081DF
:1054900018968C938091E94A8823F1F08091EA4A2A
:1054A000813051F48091D34A8B3330F48F5F8093F5
:1054B000D34A1092EA4A10C08091EA4A833061F4DC
:1054C0008091D34A882341F081508093D34A10922F
:1054D000EA4A02C01092E84A0E94480D8091A14A0F
:1054E000811172CDC3EDDAE46E8186E00E940D2752
:1054F0006D8185E00E940D276C8184E00E940D275C
:105500006A8182E00E940D27698181E00E940D2757
:10551000688180E00E940D27DF91CF91089580E09F
:105520000895E0E4FAE081E0828787E490E086A3D2
:1055300097A38FE0808380E00895E0E2F8E080E0C8
:1055400098E18087918784E9858380EC868380E079
:1055500008959091240895FFFCCF8093220881E064
:1055600090E00895E0E6F8E080E098E18087918798
:1055700084E9858380EC868380E0089590916408B7
:1055800095FFFCCF8093620881E090E008950F932F
:105590001F93CF93DF938C01C0E0D0E007C0F801E8
:1055A000EC0FFD1F80810E94BE2A2196F801019018
:1055B0000020E9F73197E01BF10BCE17DF0778F3F6
:1055C000DF91CF911F910F9108958AEFE3E2FBE401
:1055D000DF011D928A95E9F710920C4B08954AE07D
:1055E00068ED80E091E00E94BE2680E00895CF93B0
:1055F000C0E0C130A1F028F0C23069F1C33081F1C0
:1056000033C08CEA90E40E94C72A2FEF8FEF9CE210
:10561000215080409040E1F700C0000025C080EBA1
:1056200090E40E94C72A8091E54A805D0E94BE2ACC
:1056300080910741805D0E94BE2A80919F4A805DD3
:105640000E94BE2A80917A4A805D0E94BE2A8DE027
:105650000E94BE2A09C085EB90E40E94C72A04C0BC
:105660008BEB90E40E94C72A80E09DC0C11125C049
:10567000282F30E0F901ED5DF44B90819F34E9F47F
:10568000F901EC5DF44B90819B34B9F4F901EB5DC9
:10569000F44B90819D3089F483E090E00E943B04BC
:1056A0002FEF8FE392E0215080409040E1F700C05F
:1056B00000000E94E52AC1E079C0C13029F5282FF9
:1056C00030E0F901ED5DF44B90819F34E9F4F9018C
:1056D000EC5DF44B90819B34B9F4F901EB5DF44B34
:1056E00090819D3089F483E090E00E943B042FEF8D
:1056F0008FE392E0215080409040E1F700C000002D
:105700000E94E52AC2E052C0C23029F5282F30E0BD
:10571000F901ED5DF44B90819F34E9F4F901EC5D02
:10572000F44B90819B34B9F4F901EB5DF44B90811B
:105730009D3089F483E090E00E943B042FEF8FE3DB
:1057400092E0215080409040E1F700C000000E94AC
:10575000E52AC3E02BC0C33029F5282F30E0F9013A
:10576000ED5DF44B90819F34E9F4F901EC5DF44B6D
:1057700090819B34B9F4F901EB5DF44B90819D303D
:1057800089F483E090E00E943B042FEF8FE392E0E6
:10579000215080409040E1F700C000000E94E52ABF
:1057A000C5E004C08F5F8A3F08F460CF0E94480DB7
:1057B000C53009F01ECFCF9108956F927F928F92DE
:1057C0009F92BF92CF92DF92EF92FF920F931F931F
:1057D000CF93DF934CE062E081E00E94CA058090A5
:1057E000FE4A9090FF4A9401329522952F7023270C
:1057F0003F702327A7E4B3E00E94CE386C01D69413
:10580000C794D694C794D694C794DC2D20E137E290
:10581000C29EC001C39E900DD29E900D1124940192
:10582000281B390B3695279536952795369527955C
:10583000A5ECB0E20E94CE387C01F694E794F69491
:10584000E794F694E794F694E794BE2C9401369589
:10585000279536952795369527950E94CE389295AF
:1058600082958F7089279F70892748EE53E0849F27
:105870009001859F300D949F300D1124C401821B2F
:10588000930B9C013695279536952795ABE7B4E1A8
:105890000E94CE383C0176946794062D940136958B
:1058A0002795369527950E94CE389C0136952795E9
:1058B00044E6429FC001439F900D11249401281B90
:1058C000390BADECBCEC0E94CE38AC015695479537
:1058D0005695479556954795C42F94010E94CE380A
:1058E0009695879596958795969587959C01220F15
:1058F000331F880F991F880F991F880F991F820FD8
:10590000931F9401281B390BC901122FD601A156F0
:10591000BF4B2C91A5EDB0E417962C9317979701E8
:10592000332721563F4BF901208116962C93169769
:10593000F301FF27E156FF4B208115962C93159715
:105940005527FA01E156FF4B208114962C931497AA
:105950009927FC01E156FF4B80811B968C9377C100
:1059600081E08093A44A8091E84A823009F489C09A
:1059700028F4882361F08130D1F167C1843009F4C3
:1059800018C108F4C9C0853009F45DC15EC1E12FBA
:10599000F0E0E156FF4B80818093E0408091154B11
:1059A000882319F01092DC4007C0ED2FF0E0E1569B
:1059B000FF4B80818093DC408091E94A882309F481
:1059C00044C18091EA4A813031F4D63020F4DF5F5F
:1059D0001092EA4A3AC18091EA4A833009F035C10F
:1059E000DD2309F432C1D1501092EA4A2EC1ED2FC5
:1059F000F0E0E156FF4B80818093DC408091154BB5
:105A0000882319F01092DB4007C0EB2DF0E0E1563F
:105A1000FF4B80818093DB408091E94A882309F421
:105A200014C1D630B8F08091EA4A813039F4F4E0FC
:105A3000FB1520F0B3941092EA4A07C18091EA4A1C
:105A4000833009F002C1BB2009F4FFC0BA94109260
:105A5000EA4AFBC08091EA4A813039F428E02B15EC
:105A600020F0B3941092EA4AF0C08091EA4A833061
:105A700009F0EBC0BB2009F4E8C0BA941092EA4ADE
:105A8000E4C0EB2DF0E0E156FF4B80818093DB40DA
:105A90008091154B882319F01092DA4007C0E02F4F
:105AA000F0E0E156FF4B80818093DA408091E94A33
:105AB000882309F4CAC0D630C8F034E03B15B0F4EE
:105AC0008091EA4A813031F4053020F40F5F109262
:105AD000EA4ABBC08091EA4A833009F0B6C000238D
:105AE00009F4B3C001501092EA4AAFC08091EA4A6B
:105AF000813031F4093020F40F5F1092EA4AA5C0DA
:105B00008091EA4A833009F0A0C0002309F49DC0C7
:105B100001501092EA4A99C0E02FF0E0E156FF4BA5
:105B200080818093DA408091154B882319F0109280
:105B3000D94007C0EC2FF0E0E156FF4B8081809305
:105B4000D9408091E94A882309F47FC0D630D8F043
:105B500044E04B15C0F40530B0F08091EA4A813042
:105B600031F4C33020F4CF5F1092EA4A6EC08091C6
:105B7000EA4A833009F069C0CC2309F466C0C150F9
:105B80001092EA4A62C08091EA4A813031F4C93009
:105B900020F4CF5F1092EA4A58C08091EA4A8330DD
:105BA00009F053C0CC2309F450C0C1501092EA4A06
:105BB0004CC0EC2FF0E0E156FF4B80818093D94040
:105BC0008091154B882319F01092E04007C0E12F17
:105BD000F0E0E156FF4B80818093E0408091E94AFC
:105BE000882399F1D630D8F084E08B15C0F40530C5
:105BF000B0F0C330A0F08091EA4A813031F4153022
:105C000020F41F5F1092EA4A20C08091EA4A833054
:105C1000E1F41123D1F011501092EA4A16C080919C
:105C2000EA4A813031F4193020F41F5F1092EA4AB9
:105C30000CC08091EA4A833041F4112331F01150B5
:105C40001092EA4A02C01092E84A0E94480D8091E0
:105C5000A14A811185CE20E137E2D29FC001D39FB6
:105C6000900D112448EE53E0B49E9001B59E300D86
:105C70001124820F931F9C01E4E60E9F200D311D1D
:105C80001124D0E0CE01880F991FCC0FDD1FCC0F5F
:105C9000DD1FCC0FDD1F8C0F9D1F820F931F810F07
:105CA000911D8093FE4A9093FF4A292F22952F70D1
:105CB0002093E54A1092E64A9C013F7030930741D9
:105CC000109208419C013327329522952F7023278B
:105CD0003F70232720939F4A3093A04A8F709927C3
:105CE00080937A4A90937B4A0E94F72AE1EAFAE489
:105CF00081E08083118213821092E84ADF91CF9174
:105D00001F910F91FF90EF90DF90CF90BF909F90E9
:105D10008F907F906F900895CF93C0E0C130A1F035
:105D200028F0C230D1F1C330E9F140C08CEA90E4F0
:105D30000E94C72A2FEF8FEF9CE2215080409040B5
:105D4000E1F700C0000032C081EC90E40E94C72A55
:105D5000E091794AF0E0EE0FFF1FE65DFF4B808196
:105D60009181992314F481509F4F892F0E94BE2A5C
:105D7000E091794AF0E0EE0FFF1FE65DFF4B808176
:105D80009181907899231CF401979F6F01960E944E
:105D9000BE2A8DE00E94BE2A09C085EB90E40E94D5
:105DA000C72A04C08BEB90E40E94C72A80E09DC004
:105DB000C11125C0282F30E0F901ED5DF44B908131
:105DC0009F34E9F4F901EC5DF44B90819B34B9F414
:105DD000F901EB5DF44B90819D3089F483E090E014
:105DE0000E943B042FEF8FE392E0215080409040CF
:105DF000E1F700C000000E94E52AC1E079C0C1308F
:105E000029F5282F30E0F901ED5DF44B90819F34A6
:105E1000E9F4F901EC5DF44B90819B34B9F4F9019C
:105E2000EB5DF44B90819D3089F483E090E00E941B
:105E30003B042FEF8FE392E0215080409040E1F748
:105E400000C000000E94E52AC2E052C0C23029F51D
:105E5000282F30E0F901ED5DF44B90819F34E9F497
:105E6000F901EC5DF44B90819B34B9F4F901EB5DE1
:105E7000F44B90819D3089F483E090E00E943B04D4
:105E80002FEF8FE392E0215080409040E1F700C077
:105E900000000E94E52AC3E02BC0C33029F5282F5B
:105EA00030E0F901ED5DF44B90819F34E9F4F901A4
:105EB000EC5DF44B90819B34B9F4F901EB5DF44B4C
:105EC00090819D3089F483E090E00E943B042FEFA5
:105ED0008FE392E0215080409040E1F700C0000045
:105EE0000E94E52AC5E004C08F5F8A3F08F460CFB6
:105EF0000E94480DC53009F011CFCF9108954CE0B4
:105F000062E082E00E94CA053DC02091794A8DEC92
:105F1000289F812D1124869586958695E82FF0E09F
:105F2000E156FF4B9081A5EDB0E415969C93159733
:105F3000880F982F990F990F890FE22FE81BF0E037
:105F4000E156FF4B808114968C938091E94A882317
:105F5000B9F08091EA4A813041F42E3030F42F5F5D
:105F60002093794A1092EA4A0BC08091EA4A833022
:105F700039F4222329F021502093794A1092EA4AD9
:105F80000E94480D8091A24A882321F08091A14A65
:105F90008111BBCF0E948C2E0895CF93C0E0C130F9
:105FA000A1F028F0C230B1F0C330C9F01CC08CEAB7
:105FB00090E40E94C72A2FEF8FEF9CE2215080408F
:105FC0009040E1F700C000000EC086EC90E40E9413
:105FD000C72A09C08CEC90E40E94C72A04C08BEB4E
:105FE00090E40E94C72A80E030C1C11125C0282F4B
:105FF00030E0F901ED5DF44B90819F34E9F4F90153
:10600000EC5DF44B90819B34B9F4F901EB5DF44BFA
:1060100090819D3089F483E090E00E943B042FEF53
:106020008FE392E0215080409040E1F700C00000F3
:106030000E94E52AC1E00CC1C13009F04EC0282FF2
:1060400030E0F901ED5DF44B90819D3009F045C0E1
:10605000813019F0823049F02FC0F901EE5DF44B28
:10606000808183548093794A27C0F901EE5DF44B17
:1060700080818A3388F4F901EF5DF44B208130E0B0
:1060800020533109220F922F990F990F290F820F58
:1060900086538093794A10C0F901EF5DF44B20815B
:1060A00030E020533109220F922F990F990F290FB9
:1060B000820F8D538093794A83E090E00E943B04E5
:1060C0002FEF8FE392E0215080409040E1F700C035
:1060D00000000E94E52AC2E0BBC0C23009F08DC0BA
