:100600000C941E040C943D040C943D040C943D0485
:100610000C943D040C943D040C943D040C943D0456
:100620000C943D040C943D040C943D040C943D0446
:100630000C943D040C943D040C943D040C943D0436
:100640000C943D040C943D040C943D040C943D0426
:100650000C943D040C943D040C943D040C943D0416
:100660000C943D040C943D040C943D040C943D0406
:100670000C943D040C943D040C943D040C944A04E9
:100680000C943D040C943D040C943D040C943D04E6
:100690000C943D040C943D040C943D040C943D04D6
:1006A0000C943D040C943D040C943D040C945017A0
:1006B0000C943D040C943D040C94A2040C943D0451
:1006C0000C943D040C943D040C943D040C943D04A6
:1006D0000C9476040C943D040C943D040C943D045D
:1006E0000C943D040C943D040C943D040C943D0486
:1006F0000C943D040C943D040C943D040C943D0476
:10070000760F030F1B0F320F480F5E0F740F722905
:100710003A2869289928C728002936297029E62906
:10072000EA29EE29F229F829FC29002AC22A2C2BD1
:10073000952BFD2B672CD12C382D6E616E00696EC8
:10074000660000407A10F35A00A0724E180900109B
:10075000A5D4E80000E87648170000E40B54020036
:1007600000CA9A3B000000E1F50500008096980061
:10077000000040420F000000A0860100000010278A
:1007800000000000E803000000006400000000001A
:100790000A00000000000100000000002C76D8884C
:1007A000DC674F0823DFC1DFAE59E1B1B796E5E35F
:1007B000E453C63AE651997696E8E6C28426EB8978
:1007C0008C9B62ED407C6FFCEFBC9C9F40F2BAA515
:1007D0006FA5F490055A2AF75C936B6CF9676DC1AD
:1007E0001BFCE0E40D47FEF520E6B500D0ED902EB1
:1007F0000300943577050080841E080000204E0A0F
:10080000000000C80C333333330F986E128311414C
:10081000EF8D2114893BE65516CFFEE6DB18D18417
:100820004B381BF77C1D901DA4BBE424203284723E
:100830005E228100C9F124ECA1E53D2711241FBEF1
:10084000CFEFCDBFDFE7DEBF11E4A0E0B0E4E0EC26
:10085000F0E800E00BBF02C007900D92A637B10789
:10086000D9F722E5A6E7B1E401C01D92A739B20786
:10087000E1F70E94E7100C945E400C9400030E9484
:10088000E6120895E4E0F4E0908192609083809312
:10089000695108951F920F920FB60F9211240BB653
:1008A0000F928F939F93EF93FF9380912408882357
:1008B000E4F78091EB50E82FF0E090912008E051B0
:1008C000FF4A9083893110F01092EB508091EB50E9
:1008D0008F5F8093EB50FF91EF919F918F910F90DD
:1008E0000BBE0F900FBE0F901F9018951F920F9286
:1008F0000FB60F9211240BB60F928F939F93EF9325
:10090000FF93809164088823E4F780917251E82F67
:10091000F0E090916008E657FE4A90838A3F10F01D
:1009200010927251809172518F5F80937251FF913A
:10093000EF919F918F910F900BBE0F900FBE0F9074
:100940001F9018951F920F920FB60F9211240BB69D
:100950000F922F933F934F935F936F937F938F9358
:100960009F93AF93BF93EF93FF9381E080934B0AE4
:100970000E9448050E94FE0580913551811105C0F5
:10098000EFE4F1E51182128205C0E5E3F1E5808133
:100990008150808380916951811106C0E4E0F4E0C8
:1009A00080818D7F808303C0815080936951E5E30E
:1009B000F1E5818192810196818392838181928187
:1009C000803D974028F0E0E1F1E51082118212822B
:1009D000E5E3F1E58381948101968383948380919B
:1009E0001D518F5F80931D51833348F081E09091BA
:1009F0007B51911180E080937B5110921D51FF91AA
:100A0000EF91BF91AF919F918F917F916F915F9186
:100A10004F913F912F910F900BBE0F900FBE0F90F3
:100A20001F901895CF93C82F80914E51813019F4A3
:100A30008C2F0E94772D80914E51833019F48C2F8A
:100A40000E948C2D80E090E0CF9108958EE08093FD
:100A500000048DE08093200485E58093400410928B
:100A60006004109280048CE08093A00487EF809350
:100A7000C0041092040410922404109244041092B2
:100A80006404109284041092A4041092C404089583
:100A900032E02FC0E4ECF4E080818D7F8083809190
:100AA000784194E03902F0011124E758FE4BE80F39
:100AB000F11D808190E0022E02C0959587950A94E1
:100AC000E2F780FF06C0E4ECF4E08081846080837C
:100AD00005C0E4ECF4E080818B7F8083E4ECF4E0FB
:100AE0008081826080832F5F01C020E0283090F2F7
:100AF00031503323D4F7E4ECF4E0808181608083CB
:100B000080818E7F8083809178418130A9F028F0A8
:100B1000823009F1833071F13BC0E4ECF4E0808174
:100B20008F7E808380818F7D808380818F7B808397
:100B30008081806880832CC0E4ECF4E080818F7E2B
:100B4000808380818F7D80838081806480838081A9
:100B50008F7780831DC0E4ECF4E080818F7E8083FA
:100B600080818062808380818F7B808380818F778A
:100B700080830EC0E4ECF4E080818061808380811A
:100B80008F7D808380818F7B808380818F7780833E
:100B9000809178418F5F80937841843010F010927B
:100BA0007841089516C0E82FF0E0A42FB0E0AD5BC7
:100BB000BE4B2C91EE0FFF1FEE0FFF1FE758FE4BB1
:100BC000E90FF11D20839F5F01C090E0943058F33E
:100BD0008F5F6817D0F7089580E00DC0E82FF0E030
:100BE000EE0FFF1FEE0FFF1FE758FE4B138212821E
:100BF000118210828F5F833088F308958091505165
:100C00008111CDC08091080484FD0FC08AE090E07E
:100C10000E944204EFE4F1E581E082838183109237
:100C200036511092375110920C518091080485FD75
:100C300010C08AE090E00E944204EFE4F1E582E017
:100C4000828381E081831092365110923751109245
:100C50000C518091080486FD10C08AE090E00E944B
:100C60004204EFE4F1E583E0828381E08183109226
:100C700036511092375110920C51809108048823FC
:100C800084F08AE090E00E944204EFE4F1E584E021
:100C9000828381E0818310923651109237511092F5
:100CA0000C5180915151843051F48091105188231E
:100CB00019F01092105103C081E08093105180917F
:100CC0001051882391F080915151823071F48091BC
:100CD000135181110AC080911151882319F010928B
:100CE000115103C081E08093115180911051811105
:100CF00017C080911251811113C0809151518230DF
:100D000079F480911451882319F01092145108C07D
:100D100081E0809314514AE062E082E00E94D205B3
:100D200080911051882369F080915151823049F4AB
:100D300080911351882329F0EFE4F1E580818F5FE2
:100D400080838091105181110BC08091515181306D
:100D500039F480911251811103C081E080931251C6
:100D6000EFE4F1E593818281981311C08091535192
:100D7000823020F084E180933551089582E380939E
:100D80003551EFE4F1E584818F5F8483089582E338
:100D900080933551EFE4F1E58281838314820895D5
:100DA000CF92DF92EF92FF9280E090E00E94F912E2
:100DB00080934B5181508C3340F081E080934B51B4
:100DC00061E080E090E00E941B1381E090E00E94CF
:100DD000F9128093545181508C3340F081E080931C
:100DE000545161E081E090E00E941B1382E090E0AA
:100DF0000E94F91280934151803240F081E080934B
:100E0000415161E082E090E00E941B1383E090E09A
:100E10000E94F9128093EA508D3340F081E0809374
:100E2000EA5061E083E090E00E941B1384E090E0D0
:100E30000E94F91280937E518150843040F082E00C
:100E400080937E5162E084E090E00E941B1388E072
:100E500090E00E940313A0E0B0E080936B51909368
:100E60006C51A0936D51B0936E5184569109A109B4
:100E7000B10985389340A105B10590F084E690E072
:100E8000A0E0B0E080936B5190936C51A0936D51B2
:100E9000B0936E5164E670E088E090E00E943E13EB
:100EA0008CE090E00E940E130E947A366B017C0168
:100EB00060935751709358518093595190935A5160
:100EC00020E038EC4FEA57E40E946A37181654F0D5
:100ED00020E030E44CE156E4C701B6010E94CD3574
:100EE0008823A4F480E090E4ACE1B7E48093575108
:100EF00090935851A0935951B0935A5140E45CE9F2
:100F000060E070E08CE090E00E945B138AE090E08B
:100F10000E9403138093095190930A510A978730D6
:100F2000974260F084EF91E08093095190930A51C9
:100F300064EF71E08AE090E00E943E1385E090E06B
:100F40000E94F91280937C518150843640F081E0F8
:100F500080937C5161E085E090E00E941B1386E065
:100F600090E00E94F912809355518150843640F0F0
:100F700081E08093555161E086E090E00E941B1370
:100F800087E090E00E94F91280938951833038F015
:100F90001092895160E087E090E00E941B130E944C
:100FA000A02980913A518C3328F060E080E00E94C3
:100FB000DB29FFCF8091405181111CC066E186E0A2
:100FC0000E94DB2969E085E00E94DB2964E184E07E
:100FD0000E94DB2963E083E00E94DB296CE082E071
:100FE0000E94DB2960E081E00E94DB2960E080E074
:100FF0000E94DB29FF90EF90DF90CF9008958FE063
:1010000090E00E94420426E686E695E0215080406A
:101010009040E1F78FE090E00E94420426E686E6E9
:1010200095E0215080409040E1F78FE090E00E94F1
:1010300042040895CF93DF93C9E7D1E41F82E09182
:101040007C5189E2E89F812D112482958F70A82F11
:10105000B0E0AD5BBE4B9C919E83AE2F94E6899F22
:10106000A01911248DECA89FA12D1124A695A69559
:10107000A695B0E0AD5BBE4B9C919D83E89F812D12
:101080001124869586958695880F982F990F990F2C
:10109000890FE81BF0E0ED5BFE4B80818C83DF91D4
:1010A000CF910895CF93DF93C9E7D1E41B86E091F8
:1010B000555189E2E89F812D112482958F70A82FC8
:1010C000B0E0AD5BBE4B9C919A87AE2F94E6899FB2
:1010D000A01911248DECA89FA12D1124A695A695E9
:1010E000A695B0E0AD5BBE4B9C919987E89F812DA2
:1010F0001124869586958695880F982F990F990FBC
:10110000890FE81BF0E0ED5BFE4B80818887DF9163
:10111000CF9108958F929F92AF92BF92CF92DF921C
:10112000EF92FF920F931F93CF93DF930E94E019EA
:10113000AC0160E070E0C0902751D0902851E09061
:101140002951F0902A5197018601411551056105F9
:10115000710509F431C2E0915651E33028F4F09161
:101160008051FA3008F474C14AE061E081E00E94E5
:10117000D20580911451811105C080918951882335
:1011800009F463C180911E5181115FC18091AD410D
:10119000833220F48F5F8093AD4102C01092AD4145
:1011A000809163518F5F8093635190E0EC01C25551
:1011B000DE4B209189512883FC01EA56FF4FEE0F48
:1011C000FF1FE255FE4B808391830EE111E5F8018C
:1011D000C182D282E382F482FC01EE53FE4FEE0F15
:1011E000FF1FE255FE4BC082D182FE01E452FA4F4E
:1011F00080917C518083E45DFE4F809155518083C6
:1012000086E00E949129CC5CD74F8883C0916351BE
:10121000D0E085E00E949129C25FD44B8883C091C1
:101220006351D0E084E00E949129C65CD34B88834F
:10123000C0916351D0E082E00E949129CA59D24BFB
:101240008883C0916351D0E081E00E949129CE56FD
:10125000D14B8883C0916351D0E080E00E949129F6
:10126000C254D04B88838091AD4190E09C01220F05
:10127000331F820F931F880F991F880F991F60914A
:10128000895180960E941B138091AD4190E09C0192
:10129000220F331F820F931F880F991F880F991FEA
:1012A0006091635170E044960E943E13F801C18240
:1012B000D282E382F4828091AD4190E09C01220FC2
:1012C000331F820F931F880F991F880F991FB60134
:1012D00048960E943E138091AD4190E09C01220F00
:1012E000331F820F931F880F991F880F991F6091DA
:1012F0007C5146960E941B138091AD4190E09C0169
:10130000220F331F820F931F880F991F880F991F79
:101310006091555147960E941B1386E00E949129C7
:10132000682F2091AD4130E0C901880F991F280F27
:10133000391FC901880F991F880F991F4A960E946B
:101340001B1385E00E949129682F2091AD4130E068
:10135000C901880F991F280F391FC901880F991FCC
:10136000880F991F4B960E941B1384E00E949129BD
:10137000682F2091AD4130E0C901880F991F280FD7
:10138000391FC901880F991F880F991F4C960E9419
:101390001B1382E00E949129682F2091AD4130E01B
:1013A000C901880F991F280F391FC901880F991F7C
:1013B000880F991F4D960E941B1381E00E9491296E
:1013C000682F2091AD4130E0C901880F991F280F87
:1013D000391FC901880F991F880F991F4E960E94C7
:1013E0001B1380E00E949129682F2091AD4130E0CD
:1013F000C901880F991F280F391FC901880F991F2C
:10140000880F991F4F960E941B1381E0F80180837B
:10141000109214510E94FF07809180511F928F9368
:10142000809156511F928F93FF92EF92DF92CF924D
:1014300088E490E49F938F930E94783E0E94161850
:101440008DB79EB70A968DBF9EBF0E945208A9C055
:101450004A015B01A5E08A1A9108A108B108B1E030
:101460006A017B01A5E0CA0ED11CE11CF11CC0166B
:10147000D106E206F30608F4B0E0A1E0081519056C
:101480002A053B0508F4A0E0AB2341F1AEE1B1E54C
:101490001D960D911D912D913C915097400F511F1C
:1014A000621F731F769567955795479519964D93CB
:1014B0005D936D937C931C9710920C518091145105
:1014C000811105C080918951882309F46AC0EF5FBA
:1014D000E0935651FF5FF093805163C0C0902B5151
:1014E000D0902C51E0902D51F0902E518A019B010B
:1014F000075E1F4F2F4F3F4F0C151D052E053F0553
:1015000008F441C0C0902B51D0902C51E0902D5147
:10151000F0902E518A019B010951110921093109CD
:10152000C016D106E206F30670F1809114518111C4
:1015300004C080918951882319F0FF5FF093805196
:10154000EEE1F1E585859685A785B089480F591F9D
:101550006A1F7B1F769567955795479541875287F8
:101560006387748781859285A385B48581839283FF
:10157000A383B48381859285A385B4858587968767
:10158000A787B08B0EC0A0E0B0E0EEE1F1E5858763
:101590009687A787B08B81839283A383B4831092AD
:1015A00056510E941A081092705180911E5181115B
:1015B0002BC00E94161828C0209170512F5F2093D5
:1015C0007051263008F1EEE1F1E51186128613869E
:1015D0001486158616861786108AA0E0B0E08183EF
:1015E0009283A383B483108210927051109256514B
:1015F0001092805180911451811102C00E945208B2
:101600000E941A080E941618DF91CF911F910F9126
:10161000FF90EF90DF90CF90BF90AF909F908F9012
:1016200008951F93CF93DF93CDB7DEB76E97CDBFED
:10163000DEBF8EE1FE013196DF01982F1D929A9553
:10164000E9F7DF011D928A95E9F78091635190E0F7
:1016500020917641309177412817390738F42F5F70
:101660003F4F209376413093774104C010927641EA
:101670001092774180EF898385E18B838091EA50D6
:101680008C838CE28E83809154518F83809176413C
:1016900090917741FC01E255FE4B2081298722E0A1
:1016A0002A87DC01AA56BF4FAA0FBB1FA255BE4B0B
:1016B0002C9111963C913B872C87DC01AE53BE4F99
:1016C000AA0FBB1FA255BE4B2C9111963C913D8792
:1016D0002E87DF01A452BA4F2C912F87A45DBE4FF5
:1016E0002C91288BA45DBE4F2C91298BA45DBE4FFD
:1016F0002C912A8BA45DBE4F2C912B8BA45DBE4FE9
:101700002C912C8BA45DBE4F2C912D8BE05FF14F63
:1017100020812E8B9F8B888F81E090E009C0E1E0D3
:10172000F0E0EC0FFD1FE80FF11D2081920F8F5F9D
:101730008C31A8F39D8F81EF8E8F10E00AC0E1E01D
:10174000F0E0EC0FFD1FE10FF11D80810E948C2D58
:101750001F5F1E31A0F36E96CDBFDEBFDF91CF912C
:101760001F9108951F93CF93DF93CDB7DEB72A97CC
:10177000CDBFDEBF9AE0FE013196DF01292F1D9219
:101780002A95E9F7DF011D929A95E9F790EF998381
:1017900095E19B839091EA509C838D838CE28E83AC
:1017A000809154518F8381E090E009C0E1E0F0E046
:1017B000EC0FFD1FE80FF11D2081920F8F5F883025
:1017C000A8F3998781EF8A8710E00AC0E1E0F0E092
:1017D000EC0FFD1FE10FF11D80810E948C2D1F5F1A
:1017E0001A30A0F32A96CDBFDEBFDF91CF911F91B3
:1017F0000895EF92FF920F931F93CF93DF93C0E072
:1018000063C10C2F10E0F801E657FE4A8081803F4B
:1018100009F052C0F801E557FE4A9081913009F075
:101820004BC0F801E457FE4A9081913009F044C062
:10183000F801E257FE4A908191113EC0F801ED5641
:10184000FE4A9081913FC1F5E4E2F4E08081886036
:10185000808390E081E008C0F801E80FF11DE657B1
:10186000FE4A2081920F8F5F8830B0F3F801EE5668
:10187000FE4A8081981318C0F801E357FE4A908110
:101880008091EA50981310C0C4E2D4E0888184604B
:1018900088830E94110B8CEC9CE10197F1F700C04A
:1018A000000088818B7F88830E94B32DE4E2F4E0FE
:1018B0008081877F80830BC1803F09F0A1C0F80140
:1018C000E557FE4A9081913009F09AC0F801E2573D
:1018D000FE4A9081993009F093C0F801E756FE4A1C
:1018E0009081913F09F08CC0E4E2F4E0808188604F
:1018F000808390E081E008C0F801E80FF11DE65711
:10190000FE4A2081920F8F5F8E30B0F3F801E856C7
:10191000FE4A808198136CC0F801EE56FE4A808121
:10192000982F92959F70990F692F660F660F960FEB
:101930008F70692F680F86E00E94DB29F801ED5651
:10194000FE4A8081982F92959F70990F692F660F9C
:10195000660F960F8F70692F680F85E00E94DB2954
:10196000F801EC56FE4A8081982F92959F70990F4E
:10197000692F660F660F960F8F70692F680F84E0CE
:101980000E94DB29F801EB56FE4A8081982F929540
:101990009F70990F692F660F660F960F8F70692FD2
:1019A000680F82E00E94DB29F801EA56FE4A808136
:1019B000982F92959F70990F692F660F660F960F5B
:1019C0008F70692F680F81E00E94DB29F801E956CA
:1019D000FE4A8081982F92959F70990F692F660F0C
:1019E000660F960F8F70692F680F80E00E94DB29C9
:1019F0000E94B32DE4E2F4E08081877F808367C09A
:101A0000803F09F060C0F801E557FE4A80818130CF
:101A100009F059C0F801E457FE4A8081813009F08D
:101A200052C0780194E0E90EF11CF701E657FE4A36
:101A30008081873009F047C0F801E755FE4A808170
:101A4000813F09F040C0E4E2F4E080818860808357
:101A500090E081E008C0F801E80FF11DE657FE4A6A
:101A60002081920F8F5F8E31B0F3F801E855FE4A66
:101A70008081981328C060E070E0F801E357FE4AC7
:101A800090818091EA5098131EC060930951709321
:101A90000A518AE090E00E943E1304E214E0F8014B
:101AA000808184608083F701E657FE4A80810E942E
:101AB000B20B8CEC9CE10197F1F700C00000F8013B
:101AC00080818B7F8083CF5FCA3F08F49ACEDF91FD
:101AD000CF911F910F91FF90EF9008958091385111
:101AE00090913951883E934008F479C01092385152
:101AF000109239510E94A029EAE3F1E587816481BF
:101B0000861709F462C06093415182E090E00E9420
:101B10001B138CE291E0EEEAF1E4DF019C011D92DF
:101B200021503040E1F7EAEDF2E4DF019C011D9223
:101B300021503040E1F7E2E3F5E4DF019C011D9222
:101B400021503040E1F7EAE8F7E4DF019C011D9203
:101B500021503040E1F7E6EBF8E4DF019C011D92F3
:101B600021503040E1F7E2EEF9E4DF019C011D92E3
:101B700021503040E1F7EEE0FBE4DF019C011D92D3
:101B800021503040E1F7EAE3FCE4DF019C011D92C3
:101B900021503040E1F7E6E6FDE4DF019C011D92B3
:101BA00021503040E1F7E2E9FEE4DF019C011D92A3
:101BB00021503040E1F7EEEBFFE4DF019C011D9284
:101BC00021503040E1F71092635180910C518F5FAA
:101BD00080930C51833318F082E380930C51089565
:101BE000CF92DF92EF92FF9220E836E948E15BE482
:101BF00060915751709158518091595190915A511B
:101C00000E94D23520E030E040E85EE30E946F376A
:101C100020E030E040E053E40E946F379B01AC01CC
:101C20000E94613520E030E040E05BE40E946F37C5
:101C30006B017C0120916B5130916C5140916D5141
:101C400050916E51A8EEB3E00E94E93B0E947A36B3
:101C50009B01AC01C701B6010E94D2356B017C012A
:101C600060917E5170E080E090E00E947C369B01A4
:101C7000AC01C701B6010E94D23560932F51709319
:101C800030518093315190933251FF90EF90DF901B
:101C9000CF9008954AE062E080E00E94D2050E9461
:101CA000D00686E69EE00197F1F700000E94F00D55
:101CB00086E69EE00197F1F700000E949D1986E6F6
:101CC0009EE00197F1F700000E949D190E94FF0716
:101CD00010921E5110920C51E0E1F1E51082118238
:101CE0001382128210924F511092565110928051CD
:101CF0004CE062E080E00E94D2050895A895089526
:101D00003CC080915051882369F0809151518130BD
:101D100019F48093895106C080915151833011F498
:101D20001092895180918951882399F080917B513B
:101D3000882331F04CE061E081E00E94D2051BC0B5
:101D4000E9E7F1E4178216828CEF85838CEE8483B9
:101D500012C080917B51882331F04CE061E081E03A
:101D60000E94D20508C0E9E7F1E417828CEF868370
:101D70008EE8858384830E947E0E80911051882393
:101D800021F0809111518111BCCF6091895187E080
:101D900090E00E941B130895CF93109211514CE0D4
:101DA00062E080E00E94D205C1E0A3C08091505162
:101DB000882399F080915151813031F4C63020F45C
:101DC000CF5F1092515109C080915151833029F455
:101DD000CC2319F0C15010925151E9E7F1E4138678
:101DE00012861186AC2FB0E0AD5BBE4B8C91808724
:101DF0008C2F90E08730910508F079C0FC01E05805
:101E0000FC4F0C94D13BE9E7F1E48AEF838388E34C
:101E100082838EE181839AE39083178296EB968387
:101E20009EED9583848380911151882309F45FC0CE
:101E30000E94800E5CC0E9E7F1E48AE183838EEDC5
:101E4000828390E691839083178296EB96838583B5
:101E50008EE1848380911151882309F448C00E9447
:101E6000A32645C0E9E7F1E4138286EF82838AEF77
:101E700081838EE18083178296EB96839EED958316
:101E8000848380911151882391F10E9431142FC0D5
:101E9000E9E7F1E413828AED82838EE381838EED9C
:101EA0008083178296EB968385838EE1848380916D
:101EB00011518823E1F00E94FD3319C0E9E7F1E4F4
:101EC00013828AE082838EE181839AE19083178274
:101ED00096EB96839EED95838483809111518823A0
:101EE00031F00E94092A03C0C1E001C0C5E00E9490
:101EF0007E0E80911051811159CF0E944A0ECF91D0
:101F00000895CF93DF932FEF8FE796E12150804024
:101F10009040E1F700C0000043C180911251813030
:101F200009F09DC080915051882341F18091515119
:101F3000813051F480917C51843630F48F5F8093EE
:101F40007C51109251511AC080915151833051F4FB
:101F500080917C51823030F0815080937C5110927E
:101F600051510CC080915151823041F4E0E1F1E5D2
:101F700082818F5F828314821092515180917B51B4
:101F8000882331F04CE061E081E00E94D20533C04B
:101F9000C9E7D1E41F82E0917C5189E2E89F812D5D
:101FA000112482958F70A82FB0E0AD5BBE4B9C9141
:101FB0009E83AE2F24E6829FA01911248DECA89F4A
:101FC000A12D1124A695A695A695B0E0AD5BBE4BBC
:101FD0009C919D83E89F812D1124869586958695F9
:101FE000880F982F990F990F890FE81BF0E0ED5B90
:101FF000FE4B80818C83C9E7D1E41B86E09155516B
:1020000089E2E89F812D112482958F70A82FB0E07E
:10201000AD5BBE4B9C919A87AE2F94E6899FA01929
:1020200011248DECA89FA12D1124A695A695A69507
:10203000B0E0AD5BBE4B9C919987E89F812D112448
:10204000869586958695880F982F990F990F890FF9
:10205000E81BF0E0ED5BFE4B808188879FC080919C
:102060001251823009F09AC080915051882331F189
:1020700080915151813051F480915551843630F422
:102080008F5F809355511092515118C080915151DA
:10209000833051F480915551823030F081508093DB
:1020A0005551109251510AC080915151823031F4F2
:1020B000E0E1F1E5128214821092515180917B513E
:1020C000882331F04CE062E082E00E94D20533C008
:1020D000C9E7D1E41B86E091555189E2E89F812D43
:1020E000112482958F70A82FB0E0AD5BBE4B9C9100
:1020F0009A87AE2F24E6829FA01911248DECA89F09
:10210000A12D1124A695A695A695B0E0AD5BBE4B7A
:102110009C919987E89F812D1124869586958695B7
:10212000880F982F990F990F890FE81BF0E0ED5B4E
:10213000FE4B80818887C9E7D1E41F82E0917C5102
:1021400089E2E89F812D112482958F70A82FB0E03D
:10215000AD5BBE4B9C919E83AE2F94E6899FA019E8
:1021600011248DECA89FA12D1124A695A695A695C6
:10217000B0E0AD5BBE4B9C919D83E89F812D112407
:10218000869586958695880F982F990F990F890FB8
:10219000E81BF0E0ED5BFE4B80818C830E947E0E9D
:1021A000809112518111B9CE1092125160917C51DF
:1021B00085E090E00E941B136091555186E090E00D
:1021C0000E941B130E94FF07DF91CF9108950E9488
:1021D0003F040E94260560E070E082E195E00E94E5
:1021E000F13D81E080934E512FEF8FE392E021503B
:1021F00080409040E1F700C0000083E091E40E943D
:102200008C3E8DE590E40E948C3E1F9284E08F937B
:102210001F928F9384E990E49F938F930E94783E5E
:102220008EEC90E40E948C3E85E091E49F938F9326
:102230008EE091E49F938F938AE191E49F938F9333
:102240000E94783E8DE590E40E948C3E83E091E40C
:102250000E948C3E78940E94FF07E4E2F4E08081C3
:10226000877F808380818B7F8083E9E7F1E413821D
:1022700087E6828386E6818310822FEF8FEF9CE2D0
:10228000215080409040E1F700C000000E947E0E87
:1022900085E080936F5110920C5110928C520E94E5
:1022A000D0068DB79EB70C968DBF9EBFAEC00E9464
:1022B000A029CAE3D1E59E818DEC989F212D1124A0
:1022C000269526952695E22FF0E0ED5BFE4B3081BA
:1022D000E9E7F1E43383220F322F330F330F230F5B
:1022E000A92FA21BB0E0AD5BBE4B9C9192839D8158
:1022F000989F212D1124269526952695A22FB0E092
:10230000AD5BBE4B3C913183220F322F330F330F25
:10231000230FA92FA21BB0E0AD5BBE4B9C91908315
:102320009C81989F212D1124269526952695A22FD4
:10233000B0E0AD5BBE4B3C913783220F322F330FA1
:10234000330F230FA92FA21BB0E0AD5BBE4B9C91B6
:1023500096839A81989F212D11242695269526955E
:10236000A22FB0E0AD5BBE4B3C913583220F322FE4
:10237000330F330F230FA92FA21BB0E0AD5BBE4B71
:102380009C9194839981989F212D112426952695BF
:102390002695A22FB0E0AD5BBE4B3C913387220F58
:1023A000322F330F330F230FA92FA21BB0E0AD5BE9
:1023B000BE4B9C9192879881989F812D1124869580
:1023C00086958695A82FB0E0AD5BBE4B2C912187FA
:1023D000880F282F220F220F820FA92FA81BB0E0F1
:1023E000AD5BBE4B8C91808780918C52981769F0C1
:1023F00090938C528AE090E00E9442040E947E0EEC
:1024000080916F51815080936F5180916F518111F4
:102410004ECF0E944A0E0E947E0E80910C51843253
:1024200038F40E948A080CC00E94EC050E947E0EBF
:10243000809150518823C1F3109250510E944A0E4E
:102440000E948A088091105181110E94CC0E8091C7
:10245000125181110E94810F0E94F90B0E946E0D92
:102460009FEF2FE382E0915020408040E1F700C0D1
:1024700000000E947E0ED1CF1092890080E0089566
:1024800043E068ED80E690E00E948C298091630033
:1024900080FDFCCF80E0089580E008C0E82FF0E0E8
:1024A000E05FFB4F9081986090838F5F8830B0F33E
:1024B00080E008C0E82FF0E0E05DFB4F908198607D
:1024C00090838F5F8830B0F380E008C0E82FF0E0A1
:1024D000E05BFB4F9081986090838F5F8830B0F312
:1024E00080E008C0E82FF0E0E059FB4F9081986051
:1024F00090838F5F8830B0F380E008C0E82FF0E071
:10250000E057FB4F9081986090838F5F8830B0F3E5
:1025100080E008C0E82FF0E0E055FB4F9081986024
:1025200090838F5F8830B0F380E008C0E82FF0E040
:10253000E053FB4F9081986090838F5F8830B0F3B9
:10254000089585B3877F85BB84B3886084BBE3EB44
:10255000F4E08081877F808380818F778083808192
:10256000887F808385B38B7F85BB84B3846084BB85
:10257000E2EBF4E08081877F808380818F778083A6
:102580008081887F80830E94BA160895E0EEF5E08E
:1025900082818B7F8283E0E4F4E0808181608083AC
:1025A00080818D7F80830E946B2D0895E0EEF5E0A1
:1025B00082818F7B8283E0E2F4E08081816080838E
:1025C00080818D7F80830E94802D08950E944C120F
:1025D0000E9440120E94C6120E94D6120E945D2DD7
:1025E0000E945F2D0E943C120E94BD2D0E94A112EC
:1025F0000895811522E0920710F08FEF91E0FC0121
:10260000FC5E808108958F3F21E0920710F08EEFED
:1026100091E0FC01FC5E8081918108958D3F21E075
:10262000920710F08CEF91E0FC01FC5E60817181FB
:102630008281938108951F93CF93DF939C0121158D
:1026400082E03807B0F4909102109370E1F7162FF2
:10265000E90143E16DE980E090E10E948C29DC5EB4
:10266000188340E06DE980E090E10E948C2981E0D0
:1026700001C080E0DF91CF911F910895CF92DF924A
:10268000EF92FF92CF93DF938F3F21E0920758F4B0
:10269000EC016B010E941B136D2DCE0101960E946F
:1026A0001B1381E001C080E0DF91CF91FF90EF909C
:1026B000DF90CF900895FF920F931F93CF93DF93F6
:1026C0008D3F21E09207C0F4172F062FF52E642FBF
:1026D000EC010E941B136F2DCE0101960E941B136B
:1026E000602FCE0102960E941B13612FCE0103962C
:1026F0000E941B1381E001C080E0DF91CF911F9108
:102700000F91FF9008954CE062E080E00E94D205B6
:1027100042C0E9E7F1E48EEB838382E082838AE2C0
:1027200081838AE3808320914B518DEC289F812DFA
:102730001124869586958695A82FB0E0AD5BBE4B9B
:102740009C919583880F982F990F990F890FA22F2D
:10275000A81BB0E0AD5BBE4B8C918483809150513F
:102760008823B9F080915151813041F42C3330F4F9
:102770002F5F20934B51109251510BC080915151BA
:10278000833039F4223028F0215020934B5110929D
:1027900051510E947E0E80911051882321F080912A
:1027A00011518111B6CF60914B5180E090E00E94B1
:1027B0001B1308954CE062E080E00E94D20542C005
:1027C000E9E7F1E48EEB838382E0828380E6818314
:1027D0008AE78083209154518DEC289F812D11240C
:1027E000869586958695A82FB0E0AD5BBE4B9C91F3
:1027F0009583880F982F990F990F890FA22FA81BE7
:10280000B0E0AD5BBE4B8C918483809150518823A6
:10281000B9F080915151813041F42C3330F42F5F65
:1028200020935451109251510BC0809151518330DB
:1028300039F4223028F021502093545110925151F4
:102840000E947E0E80911051882321F080911151B9
:102850008111B6CF6091545181E090E00E941B132A
:102860000895CF93109211514CE062E080E00E94F5
:10287000D205C1E08BC080915051882399F080919E
:102880005151813031F4C33020F4CF5F1092515157
:1028900009C080915151833029F4CC2319F0C150E3
:1028A00010925151EC2FF0E0ED5BFE4B8081809354
:1028B0008141C13041F008F466C0C23099F1C330A3
:1028C00009F45FC061C0E9E7F1E48EEB838382E045
:1028D00082838AE281838AE3808317821682409111
:1028E0004B518DEC489F812D1124869586958695B8
:1028F000282F30E02D5B3E4BD9019C919583880FAA
:10290000982F990F990F890FA42FA81BB0E0AD5BEA
:10291000BE4B8C918483809111518823A9F10E9430
:10292000831332C0E9E7F1E48EEB838382E0828394
:1029300080E681838AE78083178216824091545112
:102940008DEC489F812D1124869586958695282F9C
:1029500030E02D5B3E4BD9019C919583880F982FD9
:10296000990F990F890FA42FA81BB0E0AD5BBE4B48
:102970008C91848380911151882331F00E94DA1365
:1029800003C0C1E001C0C2E00E947E0E80911051E0
:10299000811171CFCF910895E0E2F9E084818860E0
:1029A0008483858181608583E5E8F1E480818E7F81
:1029B000808313868EE00895E5E8F1E480818E7FC0
:1029C0008083138680E00895E0E2F9E084818360EB
:1029D00084830E94DC140895E5E8F1E48081886036
:1029E0008083818190E0880F991F816080932709FF
:1029F00084E008950E94EC1408950E94EC14089558
:102A0000E5E8F1E48081886080838181880F80938C
:102A1000270983E008950E9400150895A5E8B1E410
:102A20008C91877F8C9382E01B968C931B9750969A
:102A3000ED91FC9151975C968D919C915D970995D4
:102A4000823019F0833021F006C00E94FD140895F1
:102A50000E940B1508950E94E4140895E0E2F9E045
:102A600084818B7F848384E00895E0E2F9E08481AF
:102A70008B7F848383E00895E0E2F9E084818460C1
:102A800084838481836084830E94DC140895E0E25F
:102A9000F9E084818460848388E008958091250929
:102AA00084FF19C0A5E8B1E45296ED91FC915397CB
:102AB0005E968D919C915F970995823019F08330D5
:102AC00021F006C00E94FD1408950E940B15089580
:102AD0000E94E4140895E5E8F1E48081877F808313
:102AE000A281B381CD010196828393838C918093DF
:102AF000280984819581019784839583892B11F01E
:102B000083E0089585E00895CF93DF93E5E8F1E44D
:102B10008081877F808384819581019731F4E0E211
:102B2000F9E084818460848305C0E0E2F9E0848177
:102B30008B7F8483E5E8F1E4848195810197848328
:102B40009583892BA9F0DF01C281D381E0E2F9E00E
:102B50008085888312968D919C9113970196129689
:102B60008D939C93139784818260848384E026C034
:102B7000A5E8B1E41296ED91FC9113978091280994
:102B8000808312968D919C911397019612968D9346
:102B90009C9313978C9184608C931C96ED91FC917F
:102BA0001D9758968D919C91599709958250823026
:102BB00018F40E94471502C00E943C15DF91CF9186
:102BC00008958091250984FF19C0A5E8B1E45296C3
:102BD000ED91FC9153975E968D919C915F9709952D
:102BE000823019F0833021F006C00E94FD14089550
:102BF0000E940B1508950E94E4140895A5E8B1E41D
:102C00008C9184608C931C96ED91FC911D97589645
:102C10008D919C9159970995833039F0843041F01A
:102C2000823049F40E94FD1408950E940B15089506
:102C30000E944E1508950E94E4140895E0E2F9E020
:102C4000858188608583A5E8B1E482E01B968C933A
:102C50001B971E96ED91FC911F975A968D919C9112
:102C60005B970995823019F0833021F006C00E94ED
:102C7000FD1408950E940B1508950E94CC14089528
:102C8000E0E2F9E0848188608483858181608583C6
:102C9000E5E8F1E480818E7F808382E083878EE0A7
:102CA0000895CF93DF93E0E2F9E08581806C85831E
:102CB0008091854183FF07C08091250984FF03C06F
:102CC0008FE080938F418091250983FF03C080E1CD
:102CD00080938F418091250982FF03C081E1809319
:102CE0008F41C5E8D1E4EA85F0E0EE0FFF1FEA5F0F
:102CF000FF4B0190F081E02D09958A87DF91CF91FC
:102D0000089581E0089585E008956115710591F0B9
:102D100090E0FC013696EE0FFF1FEB57FE4B6083F1
:102D20007183FC013C96EE0FFF1FEB57FE4B408377
:102D30005183089590E0FC013696EE0FFF1FEB578C
:102D4000FE4B21E836E120833183FC013C96EE0FF7
:102D5000FF1FEB57FE4B108211820895AB01BC019F
:102D600080E00E9485160895AB01BC0182E00E94BC
:102D700085160895E0E2F9E084E4868381EC83839C
:102D800008959091854191FD37C0E5E8F1E4818394
:102D9000892F8E7F82609EE0928724EF31E020872A
:102DA0003187877F8460808381E896E18487958777
:102DB000108E118E86879787128E138E808B918B43
:102DC000148E158E828B938B168E178E83E896E168
:102DD000848B958B10A211A2E0E2F9E084818860D7
:102DE00084838581816085838581806C85838381EF
:102DF000806C838380E0089581E0089580912509A7
:102E000082FF07C0E5E8F1E480818E7F808382E065
:102E100083878091854180FD17C0E5E8F1E48D7FCF
:102E200080838FEF8183A0E2B9E015968C9115978E
:102E3000806C15968C93159713968C9113978F73BE
:102E400013968C938385089581E008959C01909159
:102E5000854192FF09C0E5E8F1E42283338364836E
:102E60007583892F8B7F808308959091854190FD94
:102E700011C0E5E8F1E491609083882321F081E0BE
:102E800080938F4103C082E080938F410E9451164E
:102E900080E0089581E0089580E00E94351708954C
:102EA0001F920F920FB60F9211240BB60F922F9311
:102EB0003F934F935F936F937F938F939F93AF93C2
:102EC000BF93EF93FF930E945116FF91EF91BF9133
:102ED000AF919F918F917F916F915F914F913F91B2
:102EE0002F910F900BBE0F900FBE0F901F90189553
:102EF00061E070E00E94261760E070E080E090E002
:102F00000E94AE1684E0089561E070E00E942617EA
:102F100060E070E080E090E00E94AE1682E00895EC
:102F2000FF920F931F93CF93DF9300D0CDB7DEB7FF
:102F3000F82E69834A8300E117E28F2D0E94C116A3
:102F4000813019F401501109C1F7012B11F1BE01B3
:102F50006E5F7F4F88E797E10E94AE1661E070E0F8
:102F6000CE0101960E94261760E070E084E198E1AE
:102F70000E94B4160E944C1700E117E20E94FE1650
:102F8000813019F401501109C9F7012B21F482E0B5
:102F900003C081E001C080E00F900F90DF91CF91DE
:102FA0001F910F91FF900895EF92FF921F93CF937F
:102FB000DF9300D0CDB7DEB7182F6A838AE289830A
:102FC0006894EE24E1F8F12C23C0812F0E94C116F1
:102FD0008823D9F3BE016F5F7F4F84E897E10E9499
:102FE000AE1661E070E0CE0102960E94261760E006
:102FF00070E084E198E10E94B4160E944C170E9490
:10300000FE168130E1F3882331F081E0E81AF108FF
:10301000E114F104D1F689810F900F90DF91CF91E7
:103020001F91FF90EF90089583E008958F929F92F3
:10303000AF92BF92EF92FF920F931F93CF93DF93C4
:10304000CEE1D1E569817A818B819C810F2EF0E1FF
:103050008F2EF7E29F2EA12CB12CF02DA50194010B
:103060000E94B23BE22E2093AA4169817A818B8132
:103070009C81A50194010E94B23B0F2EF8EE8F2E89
:10308000F3E09F2EA12CB12CF02DA50194010E94FC
:10309000B23BF22E20937F5169817A818B819C8192
:1030A000A50194010E94B23B0F2EF4E68F2E912CC5
:1030B000A12CB12CF02DA50194010E94B23B022F4E
:1030C0002093715169817A818B819C81A501940142
:1030D0000E94B23B0F2EFAE08F2E912CA12CB12C26
:1030E000F02DA50194010E94B23B122F20934A516A
:1030F00069817A818B819C81A50194010E94B23BF8
:103100006093675189819A81AB81BC8181319742FB
:10311000A105B10514F1EE2DF0E0ED5BFE4B8081D1
:10312000A9E7B1E413968C931397EF2DF0E0ED5BD4
:10313000FE4B808112968C931297E02FF0E0ED5BAE
:10314000FE4B80818F5F11968C931197E12FF0E0F9
:10315000ED5BFE4B80818C9358C080911F51909104
:103160002051A0912151B0912251893E9340A10557
:10317000B10514F1EF2DF0E0ED5BFE4B8081A9E786
:10318000B1E413968C931397E02FF0E0ED5BFE4BC8
:1031900080818F5F12968C931297E12FF0E0ED5BA8
:1031A000FE4B808111968C931197E62FF0E0ED5B3A
:1031B000FE4B80818C9329C080911F5190912051AA
:1031C000A0912151B0912251883E9340A105B105B3
:1031D000E4F4A9E7B1E413961C921397E02FF0E012
:1031E000ED5BFE4B80818F5F12968C931297E12FDF
:1031F000F0E0ED5BFE4B808111968C931197E62FEA
:10320000F0E0ED5BFE4B80818C93DF91CF911F91BD
:103210000F91FF90EF90BF90AF909F908F90089587
:103220008F929F92AF92BF92CF92DF92EF92FF92D6
:10323000E4E4F4E080818B7F80838091480483FF05
:10324000FCCF90E040E050E0BA011DC0E4E4F4E0BF
:1032500080818460808322E62A95F1F70000440F84
:10326000551F661F771F80818B7F808382E68A953A
:10327000F1F700008091480483FD04C04F5F5F4F69
:103280006F4F7F4F9F5F983108F3E4E4F4E0808153
:103290008460808392E69A95F1F7000080818B7FAD
:1032A00080832FEF8FE794E0215080409040E1F73A
:1032B00000C000006A017B0120E4E22620916B51EE
:1032C00030916C5140916D5150916E51A0E1B7E237
:1032D0000E94E93B8090235190902451A090255169
:1032E000B0902651DC01CB01880D991DAA1DBB1D94
:1032F0008C159D05AE05BF0518F4C12CD12C7601A7
:103300000E94F00D80902F5190903051A09031513B
:10331000B0903251C701B6010E947C36A5019401DC
:103320000E94D2350E944436FF90EF90DF90CF90FC
:10333000BF90AF909F908F9008950F931F930E941E
:1033400010198B019C018091235190912451A091DF
:103350002551B0912651801B910BA20BB30B18166F
:1033600019061A061B067CF4EEE1F1E5458156814B
:1033700067817085481B590B6A0B7B0B458356830D
:103380006783708710C0BB2374F4EEE1F1E54581DB
:10339000568167817085480F591F6A1F7B1F4583BF
:1033A000568367837087892B8A2B8B2B61F68AE083
:1033B00090E00E9442040E947E0E1F910F9108959A
:1033C0004F925F926F927F928F929F92AF92BF9235
:1033D000CF92DF92EF92FF920F931F93C0902351F1
:1033E000D0902451E0902551F09026510E94101960
:1033F0002B013C0120916B5130916C5140916D51EA
:1034000050916E51A8EEB3E00E94E93B4B015C0184
:1034100014141504160417040CF081C08091235174
:1034200090912451A0912551B09126519301820190
:10343000081B190B2A0B3B0BC901B8012AE030E02D
:1034400040E050E00E94B23BBA01A901440F551F71
:10345000661F771FDB01CA01880F991FAA1FBB1FB8
:10346000880F991FAA1FBB1F8A019B01080F191FF4
:103470002A1F3B1FC901B801332314F010923451A5
:1034800099232CF086169706A806B90600F58091B8
:1034900034518F5F80933451863040F00E949D19E3
:1034A0001092345160E070E0CB0133C015E0C11AD6
:1034B000D108E108F108C0922351D0922451E09242
:1034C0002551F092265160E070E0CB0122C0161623
:1034D000170618061906ECF44090095150900A514D
:1034E000052C000C66087708641575058605970598
:1034F00084F425E0C20ED11CE11CF11CC0922351C2
:10350000D0922451E0922551F092265160E070E073
:10351000CB0186169706A806B90628F007C060E01A
:1035200070E0CB0103C060E070E0CB012AE030E046
:1035300040E050E00E94B23BC9011F910F91FF9003
:10354000EF90DF90CF90BF90AF909F908F907F9043
:103550006F905F904F900895109281418AE090E0C3
:103560000E9403139C018093095190930A5160E1DA
:1035700077E20E947C3B60930B51E8EEF3E0BF01E1
:103580000E947C3B60937D51C901BF010E947C3B3E
:10359000E4E6F0E0BF010E947C3B60930D51C9015D
:1035A000BF010E947C3BEAE0F0E0BF010E947C3B4F
:1035B0006093EF50C901BF010E947C3B809368512A
:1035C0003DC181E08093135180914F51823009F4C5
:1035D00085C030F4882369F0813009F444C02CC1DF
:1035E000843009F4F0C008F4B4C0853009F422C175
:1035F00023C1E0916851F0E0ED5BFE4B8081809348
:10360000844180917B51882319F01092804108C039
:10361000E0910B51F0E0ED5BFE4B808180938041A7
:1036200080915051882309F407C180915151813014
:1036300051F480910B51811106C08F5F80930B5123
:1036400010925151F9C080915151833009F0F4C06A
:1036500080910B51882309F4EFC0815080930B5166
:1036600010925151E9C0E0910B51F0E0ED5BFE4B3F
:1036700080818093804180917B51882319F0109242
:103680007F4109C0E0917D51F0E0ED5BFE4B808110
:103690008F5F80937F4180915051882309F4CCC083
:1036A00080915151813051F480917D51893030F4B5
:1036B0008F5F80937D5110925151BEC080915151C6
:1036C000833009F0B9C080917D51882309F4B4C0DA
:1036D000815080937D5110925151AEC0E0917D5147
:1036E000F0E0ED5BFE4B80818F5F80937F418091A6
:1036F0007B51882319F010927E4108C0E0910D5152
:10370000F0E0ED5BFE4B808180937E4180915051D3
:10371000882309F491C080915151813051F48091F6
:103720000D51893030F48F5F80930D5110925151BB
:1037300083C080915151833009F07EC080910D513A
:10374000882309F479C0815080930D511092515112
:1037500073C0E0910D51F0E0ED5BFE4B80818093F2
:103760007E4180917B51882319F010927D4108C0E1
:10377000E091EF50F0E0ED5BFE4B808180937D4166
:1037800080915051882309F457C080915151813064
:1037900051F48091EF50893030F48F5F8093EF5077
:1037A0001092515149C080915151833009F044C069
:1037B0008091EF50882309F43FC081508093EF50EF
:1037C0001092515139C0E091EF50F0E0ED5BFE4BAB
:1037D000808180937D4180917B51882319F01092E4
:1037E000844108C0E0916851F0E0ED5BFE4B8081C0
:1037F00080938441809150518823F1F08091515100
:10380000813051F480916851893030F48F5F80931A
:1038100068511092515110C080915151833061F420
:1038200080916851882341F08150809368511092B3
:10383000515102C010924F510E947E0E8091105142
:103840008111BFCE20910B5180E197E2289FB001FA
:10385000299F700D112440917D5128EE33E0429F45
:10386000C001439F900D1124680F791F80910D5165
:1038700094E6899F600D711D11248091EF5090E0B6
:103880009C01220F331F880F991F880F991F880FE3
:10389000991F820F931F680F791F80916851680FDD
:1038A000711D6093095170930A518AE090E00E9463
:1038B0003E13E0E1F1E581E08083118213821092F2
:1038C0004F5108952F923F924F925F926F927F9245
:1038D0008F929F92AF92BF92CF92DF92EF92FF9220
:1038E0000F931F93CF93DF93CDB7DEB72597CDBF4F
:1038F000DEBF109281418CE090E00E940E131B010C
:103900002C016093155130921651409217515092EC
:1039100018511092195110921A5110921B51109275
:103920001C516894AA24A4F80F2EF7E2BF2EF02DA4
:10393000C12CD12CE12CF12C00E010E0262F332DEE
:10394000442D552D60E070E080E090E00E944F3CF7
:1039500020935B5130935C5140935D5150935E5185
:1039600060935F5170936051809361519093625165
:10397000222D332D442D552D60E070E080E090E045
:103980000E944D3C0F2EF8EEAF2EF02D0F2EF3E0DF
:10399000BF2EF02D0E944F3C2093845230938552CD
:1039A0004093865250938752609388527093895205
:1039B00080938A5290938B52222D332D442D552D76
:1039C00060E070E080E090E00E944D3C0F2EF4E655
:1039D000AF2EF02DB12C0E944F3C209373513093A9
:1039E0007451409375515093765160937751709311
:1039F00078518093795190937A51222D332D442D13
:103A0000552D60E070E080E090E00E944D3C0F2E6C
:103A1000FAE0AF2EF02D0E944F3C2093425130939C
:103A20004351409344515093455160934651709394
:103A300047518093485190934951222D332D442D65
:103A4000552D60E070E080E090E00E944D3C2093B6
:103A500081513093825140938351509384516093AC
:103A60008551709386518093875190938851F2C20B
:103A700081E08093135180914F51823009F435C118
:103A800030F4882369F0813009F49DC0E1C28430AC
:103A900009F44DC208F4BAC1853009F4D7C2D8C2BE
:103AA000E0918151F0918251ED5BFE4B80818093DA
:103AB000844180917B51882319F0109280410AC083
:103AC000E0915B51F0915C51ED5BFE4B80818F5F2B
:103AD0008093804180915051882309F4B9C280912C
:103AE00051518130A9F5F0905B5100915C511091DA
:103AF0005D5180915E518A8380915F518983B0913D
:103B00006051F0916151E09162512F2D302F412F82
:103B10005A81682F7B2F8F2F9E2FA7E00E94E33CB6
:103B200009F0B0F4A1E00E94CE3C20935B513093A9
:103B30005C5140935D5150935E5160935F5170931F
:103B4000605180936151909362511092515180C2A3
:103B500080915151833009F07BC2F0905B5100910C
:103B60005C5110915D5180915E518A8380915F51CB
:103B70008983B0916051F0916151E09162512F2D94
:103B8000302F412F5A81682F7B2F8F2F9E2FA1E03E
:103B90000E94E33C09F008F45BC2AFEF0E94CE3C08
:103BA00020935B5130935C5140935D5150935E5133
:103BB00060935F5170936051809361519093625113
:103BC0001092515145C2E0915B51F0915C51ED5B17
:103BD000FE4B80818F5F8093804180917B51882351
:103BE00019F010927F4109C0E0918452F091855202
:103BF000ED5BFE4B808180937F4180915051882303
:103C000009F426C2809151518130A9F5F090845277
:103C10000091855210918652809187528A838091BB
:103C200088528983B0918952F0918A52E0918B52E7
:103C30002F2D302F412F5A81682F7B2F8F2F9E2FB2
:103C4000A8E00E94E33C09F0B0F4A1E00E94CE3C61
:103C500020938452309385524093865250938752DA
:103C6000609388527093895280938A5290938B52BA
:103C700010925151EDC180915151833009F0E8C14A
:103C8000F090845200918552109186528091875213
:103C90008A83809188528983B0918952F0918A52A7
:103CA000E0918B522F2D302F412F5A81682F7B2F7F
:103CB0008F2F9E2FA0E00E94E33C09F4C9C1AFEF13
:103CC0000E94CE3C2093845230938552409386527A
:103CD00050938752609388527093895280938A528E
:103CE00090938B5210925151B3C1E0918452F09154
:103CF0008552ED5BFE4B808180937F4180917B51AB
:103D0000882319F010927E4109C0E0917351F0911F
:103D10007451ED5BFE4B808180937E4180915051C8
:103D2000882309F495C1809151518130A9F5F09013
:103D300073510091745110917551809176518A831D
:103D4000809177518983B0917851F0917951E091C8
:103D50007A512F2D302F412F5A81682F7B2F8F2F93
:103D60009E2FA8E00E94E33C09F0B0F4A1E00E947D
:103D7000CE3C2093735130937451409375515093BE
:103D800076516093775170937851809379519093E5
:103D90007A51109251515CC180915151833009F098
:103DA00057C1F090735100917451109175518091E9
:103DB00076518A83809177518983B0917851F091BF
:103DC0007951E0917A512F2D302F412F5A81682F50
:103DD0007B2F8F2F9E2FA0E00E94E33C09F438C177
:103DE000AFEF0E94CE3C20937351309374514093B7
:103DF00075515093765160937751709378518093B9
:103E0000795190937A511092515122C1E09173519E
:103E1000F0917451ED5BFE4B808180937E418091E7
:103E20007B51882319F010927D4109C0E0914251E5
:103E3000F0914351ED5BFE4B808180937D418091F9
:103E40005051882309F404C1809151518130A9F562
:103E5000F09042510091435110914451809145514D
:103E60008A83809146518983B0914751F09148519E
:103E7000E09149512F2D302F412F5A81682F7B2FF0
:103E80008F2F9E2FA8E00E94E33C09F0B0F4A1E040
:103E90000E94CE3C20934251309343514093445171
:103EA00050934551609346517093475180934851C8
:103EB0009093495110925151CBC080915151833010
:103EC00009F0C6C0F0904251009143511091445105
:103ED000809145518A83809146518983B0914751A1
:103EE000F0914851E09149512F2D302F412F5A81A7
:103EF000682F7B2F8F2F9E2FA0E00E94E33C09F4B8
:103F0000A7C0AFEF0E94CE3C209342513093435163
:103F1000409344515093455160934651709347519B
:103F200080934851909349511092515191C0E09122
:103F30004251F0914351ED5BFE4B808180937D4176
:103F400080917B51882319F01092844109C0E0913F
:103F50008151F0918251ED5BFE4B808180938441D1
:103F600080915051882309F473C080915151813060
:103F7000A9F5F09081510091825110918351809167
:103F800084518A83809185518983B0918651F091C3
:103F90008751E09188512F2D302F412F5A81682F62
:103FA0007B2F8F2F9E2FA8E00E94E33C09F0B0F4F6
:103FB000A1E00E94CE3C20938151309382514093E6
:103FC00083515093845160938551709386518093AF
:103FD000875190938851109251513AC0809151511C
:103FE0008330B1F5F090815100918251109183514D
:103FF000809184518A83809185518983B0918651C3
:10400000F0918751E09188512F2D302F412F5A8107
:10401000682F7B2F8F2F9E2FA0E00E94E33CC1F0E2
:10402000AFEF0E94CE3C2093815130938251409358
:10403000835150938451609385517093865180933E
:104040008751909388511092515102C010924F5154
:104050000E947E0E8091105181110ACD6894AA248D
:10406000A4F80F2EF7E2BF2EF02DC12CD12CE12C9D
:10407000F12C00E010E020915B5130915C514091B7
:104080005D5150915E5160915F517091605180918E
:104090006151909162510E94F43B622E732E842EE6
:1040A000952E6D8379838A839B83E091845250900F
:1040B000855240908652309087522090885280914D
:1040C00089528C83B0918A52A0918B522E2F352D1C
:1040D000442D532D622D782F8B2F9A2F02E00E94B2
:1040E000AC3CA22EB32EC42ED52EE62EF72EF82FE2
:1040F000192F05E00E94AC3C0F2F0E94DA3CAE2E37
:10410000B52CC42CD32CE22CFC800B2F1A2F0E9430
:10411000C53C03E00E94AC3CA22EB32EC42ED52E8B
:10412000E62EF72E082F192F262D372D482D592D25
:104130006D8179818A819B810E94C53C222E332E1C
:10414000442E552E662E772E89839A8320917351A3
:1041500030917451409175515091765160917751E1
:10416000709178518091795190917A5102E00E943A
:10417000AC3C822E932E4C835B83B62FA72FF82F57
:10418000E92F0E94AC3CA22EB32EC42ED52EE62ED3
:10419000F72E082F192F282D392D4C815B816B2F7D
:1041A0007A2F8F2F9E2F0E94C53C822E932E4C83F8
:1041B0005B83B62FA72FF82FE92F02E00E94AC3CBB
:1041C000A22EB32EC42ED52EE62EF72E082F192F91
:1041D000282D392D4C815B816B2F7A2F8F2F9E2FAD
:1041E0000E94C53CA22EB32EC42ED52EE62EF72E4D
:1041F000082F192F222D332D442D552D662D772D67
:1042000089819A810E94C53C222E332E442E552E40
:10421000662E772E89839A832091425130914351A3
:104220004091445150914551609146517091475190
:10423000809148519091495101E00E94AC3C822EFE
:10424000932E4C835B83B62FA72FF82FE92F02E024
:104250000E94AC3CA22EB32EC42ED52EE62EF72EF5
:10426000082F192F282D392D4C815B816B2F7A2F28
:104270008F2F9E2F0E94C53CA22EB32EC42ED52E6A
:10428000E62EF72E082F192F222D332D442D552DD4
:10429000662D772D89819A810E94C53CA09081511D
:1042A000B0908251C0908351D0908451E09085515C
:1042B000F090865100918751109188510E94C53C21
:1042C0002093155130931651409317515093185124
:1042D0006093195170931A5180931B5190931C5104
:1042E000642F752F422F532F8CE090E00E945B13B8
:1042F000E0E1F1E581E080831182138210924F5159
:104300002596CDBFDEBFDF91CF911F910F91FF901A
:10431000EF90DF90CF90BF90AF909F908F907F9065
:104320006F905F904F903F902F9008952F923F9203
:104330004F925F926F927F928F929F92AF92BF92B5
:10434000CF92DF92EF92FF920F931F93CF93DF9361
:10435000CDB7DEB76097CDBFDEBF8CE090E00E94A6
:104360000E131B012C01609315513092165140928F
:104370001751509218511092195110921A511092CF
:104380001B5110921C516894AA24A4F80F2EF7E236
:10439000BF2EF02DC12CD12CE12CF12C00E010E02F
:1043A000262F332D442D552D60E070E080E090E005
:1043B0000E944F3C20935B5130935C5140935D5180
:1043C00050935E5160935F5170936051809361513F
:1043D00090936251222D332D442D552D60E070E0D5
:1043E00080E090E00E944D3C0F2EF8EEAF2EF02DB5
:1043F0000F2EF3E0BF2EF02D0E944F3C20938452ED
:1044000030938552409386525093875260938852DE
:104410007093895280938A5290938B52222D332D20
:10442000442D552D60E070E080E090E00E944D3C0E
:104430000F2EF4E6AF2EF02DB12C0E944F3C2093AE
:1044400073513093745140937551509376516093EA
:104450007751709378518093795190937A51222DAE
:10446000332D442D552D60E070E080E090E00E94F7
:104470004D3C0F2EFAE0AF2EF02D0E944F3C2093C2
:10448000425130934351409344515093455160936E
:104490004651709347518093485190934951222D32
:1044A000332D442D552D60E070E080E090E00E94B7
:1044B0004D3C2093815130938251409383515093CE
:1044C0008451609385517093865180938751909366
:1044D0008851BAC11092365110923751109234510E
:1044E000C0902751D0902851E0902951F0902A5146
:1044F000CD82DE82EF82F886CB86DC86ED86FE8674
:1045000020911551309116514091175150911851E9
:104510006091195170911A5180911B5190911C51C9
:104520000E94B736609357517093585180935951F8
:1045300090935A5121E32A95F1F700000E94F00D63
:1045400031E33A95F1F700000E94E01989879A87D4
:104550002C01612C712C80915051882309F400C1E9
:1045600080915151813031F5209115513091165182
:1045700040911751509118516091195170911A51F1
:1045800080911B5190911C51A5E00E94CE3C20933C
:104590001551309316514093175150931851609311
:1045A000195170931A5180931B5190931C51109282
:1045B000515129C080915151833029F520911551D5
:1045C00030911651409117515091185160911951E5
:1045D00070911A5180911B5190911C51ABEF0E9428
:1045E000CE3C209315513093165140931751509360
:1045F00018516093195170931A5180931B519093E5
:104600001C511092515140911551498350911651AE
:104610005A83609117516B83709118517C838090FD
:10462000195190901A5180911B51888B90911C5177
:104630009F876894AA24A4F80F2EF7E2BF2EF02DCE
:10464000C12CD12CE12CF12C00E010E0242F352FCF
:10465000462F572F682D792D0E944F3C022F132F84
:10466000F801ED5BFE4B80810F2EF9E72F2EF1E470
:104670003F2EF02DD10117968C93E12CF12C00E008
:1046800010E029813A814B815C81682D792D8889E0
:104690009F850E944D3C0F2EF8EEAF2EF02D0F2E71
:1046A000F3E0BF2EF02D0E944F3C022F132FF80194
:1046B000ED5BFE4B8081F1018683E12CF12C00E063
:1046C00010E029813A814B815C81682D792D8889A0
:1046D0009F850E944D3C0F2EF4E6AF2EF02DB12C9D
:1046E0000E944F3C022F132FF801ED5BFE4B80819F
:1046F000D10115968C93E12CF12C00E010E029817A
:104700003A814B815C81682D792D88899F850E9433
:104710004D3C0F2EFAE0AF2EF02D0E944F3C022FA1
:10472000132FF801ED5BFE4B8081F1018483E12CB6
:10473000F12C00E010E029813A814B815C81682DE9
:10474000792D88899F850E944D3C49835A83022F89
:10475000132FF801ED5BFE4B8081D1011B968C93EA
:10476000411451046104710409F449C093018201A8
:10477000055011092109310991E0B301A2014B5FF4
:104780005F4F6F4F7F4FCB84DC84ED84FE844C15EC
:104790005D056E057F0508F490E081E04B855C8542
:1047A0006D857E85401751076207730708F480E026
:1047B000892371F06D817E818F81988560931F516F
:1047C00070932051809321519093225110927051F7
:1047D0008D819E81AF81B885840D951DA61DB71D65
:1047E000B695A795979587958093275190932851D3
:1047F000A0932951B0932A510E9416181AC0809193
:1048000070518F5F80937051863098F0EEE1F1E542
:104810001186128613861486C984DA84C601A0E044
:10482000B0E081839283A383B483109270510E947D
:1048300016182FEF3FE342E0215030404040E1F7AF
:1048400000C000000E947E0E80911051882321F04C
:104850008091115181113ECE4091155150911651C8
:1048600060911751709118518CE090E00E945B1399
:104870006096CDBFDEBFDF91CF911F910F91FF906A
:10488000EF90DF90CF90BF90AF909F908F907F90F0
:104890006F905F904F903F902F9008958F929F92CE
:1048A000AF92BF92CF92DF92EF92FF92109281412E
:1048B00088E090E00E9403136C01E12CF12CC0927F
:1048C0006B51D0926C51E0926D51F0926E51C701D4
:1048D000B60128EE33E040E050E00E94903B209388
:1048E000A9410F2EF4E68F2E912CA12CB12CF02D86
:1048F000A50194010E94903B20936451C701B60129
:10490000A50194010E94903B0F2EFAE08F2E912C6E
:10491000A12CB12CF02DA50194010E94903B209375
:104920006A51C701B601A50194010E94903B6093B2
:104930003351FFC081E08093135180914F518230F9
:1049400009F482C030F4882359F0813009F442C060
:10495000EEC0833009F4B2C0843009F4E6C0E7C089
:10496000E0913351F0E0ED5BFE4B808180937D411F
:1049700080917B51882319F01092804108C0E0910A
:10498000A941F0E0ED5BFE4B8081809380418091F6
:104990005051882309F4CBC080915151813051F49A
:1049A0008091A941811106C08F5F8093A941109227
:1049B0005151BDC080915151833009F0B8C08091F0
:1049C000A941882309F4B3C081508093A941109272
:1049D0005151ADC0E091A941F0E0ED5BFE4B80810B
:1049E0008093804180917B51882319F010927F4100
:1049F00008C0E0916451F0E0ED5BFE4B8081809354
:104A00007F4180915051882309F491C08091515188
:104A1000813051F480916451893030F48F5F8093FC
:104A200064511092515183C080915151833009F0EB
:104A30007EC080916451882309F479C081508093AD
:104A400064511092515173C0E0916451F0E0ED5BFC
:104A5000FE4B808180937F4180917B51882319F0A8
:104A600010927E4108C0E0916A51F0E0ED5BFE4B90
:104A7000808180937E4180915051882309F457C0F2
:104A800080915151813051F480916A51893030F4D4
:104A90008F5F80936A511092515149C0809151515A
:104AA000833009F044C080916A51882309F43FC0E3
:104AB000815080936A511092515139C0E0916A51EE
:104AC000F0E0ED5BFE4B808180937E4180917B51D5
:104AD000882319F010927D4108C0E0913351F0E035
:104AE000ED5BFE4B808180937D4180915051882306
:104AF000F1F080915151813051F4809133518930DE
:104B000030F48F5F809333511092515110C08091D7
:104B10005151833061F480913351882341F08150A9
:104B2000809333511092515102C010924F510E9404
:104B30007E0E809110518111FDCE4091A94128EE49
:104B400033E0429FC001439F900D1124AC01990FA7
:104B5000660B770B8091645124E6829FC00111247B
:104B6000092E000CAA0BBB0B840F951FA61FB71FA5
:104B700020916A5130E0B901660F771F220F331F71
:104B8000220F331F220F331F620F731FAB01770FEA
:104B9000660B770B840F951FA61FB71F209133510B
:104BA000BC01CD01620F711D811D911D60936B5180
:104BB00070936C5180936D5190936E5188E090E0AA
:104BC0000E943E13E0E1F1E581E0808311821382CF
:104BD00010924F51FF90EF90DF90CF90BF90AF9029
:104BE0009F908F9008954CE062E080E00E94D20593
:104BF00043C0E9E7F1E417828AE182838AE2818394
:104C00008EE18083168220917E518DEC289F812D2C
:104C10001124869586958695A82FB0E0AD5BBE4B96
:104C20009C919583880F982F990F990F890FA22F28
:104C3000A81BB0E0AD5BBE4B8C9184831086809145
:104C400050518823B9F080915151813041F4243082
:104C500030F4220F20937E51109251510BC080915D
:104C60005151833039F4223028F0269520937E511B
:104C7000109251510E947E0E80911051882321F094
:104C8000809111518111B5CF60917E5184E090E007
:104C90000E941B1308954CE062E080E00E94D20560
:104CA00043C0E9E7F1E4138280E682838AE78183E7
:104CB0001082178216822091EA508DEC289F812D58
:104CC0001124869586958695A82FB0E0AD5BBE4BE6
:104CD0009C919583880F982F990F990F890FA22F78
:104CE000A81BB0E0AD5BBE4B8C9184831086809195
:104CF00050518823B9F080915151813041F42C33C7
:104D000030F42F5F2093EA50109251510BC08091E4
:104D10005151833039F4222329F021502093EA5055
:104D2000109251510E947E0E80911051882321F0E3
:104D3000809111518111B5CF6091EA5083E090E0EC
:104D40000E941B1308952F923F924F925F926F9291
:104D50007F928F929F92AF92BF92CF92DF92EF920B
:104D6000FF920F931F93CF93DF93109211514CE05A
:104D700062E080E00E94D20583E090E00E94F91298
:104D80008093EA5084E090E00E94F91280937E5173
:104D900088E090E00E940313A0E0B0E080936B51A4
:104DA00090936C51A0936D51B0936E518CE090E054
:104DB0000E940E13DC01CB01809315519093165184
:104DC000A0931751B09318511092195110921A5183
:104DD00010921B5110921C518AE090E00E94031324
:104DE000EC018093095190930A5140906B5150907F
:104DF0006C5160906D5170906E51C301B20128EEFC
:104E000033E040E050E00E94903B2093A9410F2EF8
:104E1000F4E68F2E912CA12CB12CF02DA50194013C
:104E20000E94903B20936451C301B201A5019401FB
:104E30000E94903B0F2EFAE08F2E912CA12CB12CCA
:104E4000F02DA50194010E94903B20936A51C3016B
:104E5000B201A50194010E94903B609333512090D0
:104E60001551309016514090175150901851609044
:104E7000195170901A5180901B5190901C51689458
:104E8000AA24A4F80F2EF7E2BF2EF02DC12CD12CAE
:104E9000E12CF12C00E010E0222D332D442D552D76
:104EA000662D772D882D992D0E944F3C20935B51C4
:104EB00030935C5140935D5150935E5160935F51CC
:104EC000709360518093615190936251222D332DE4
:104ED000442D552D662D772D882D992D0E944D3C02
:104EE0000F2EF8EEAF2EF02D0F2EF3E0BF2EF02D8B
:104EF0000E944F3C209384523093855240938652B7
:104F000050938752609388527093895280938A524B
:104F100090938B52222D332D442D552D662D772DB8
:104F2000882D992D0E944D3C0F2EF4E6AF2EF02DCA
:104F3000B12C0E944F3C2093735130937451409395
:104F40007551509376516093775170937851809357
:104F5000795190937A51222D332D442D552D662D64
:104F6000772D882D992D0E944D3C0F2EFAE0AF2E03
:104F7000F02D0E944F3C2093425130934351409377
:104F800044515093455160934651709347518093DB
:104F9000485190934951222D332D442D552D662D86
:104FA000772D882D992D0E944D3C2093815130936F
:104FB00082514093835150938451609385517093F3
:104FC00086518093875190938851CE0160E177E2BA
:104FD0000E947C3B60930B5128EE33E0B9010E94A4
:104FE0007C3B60937D51CE01B9010E947C3B24E65D
:104FF00030E0B9010E947C3B60930D51CE01B901B4
:105000000E947C3B2AE030E0B9010E947C3B609327
:10501000EF50CE01B9010E947C3B80936851C1E002
:1050200064C180915051882399F080915151813011
:1050300031F4C73020F4CF5F1092515109C08091F4
:105040005151833029F4CC2319F0C15010925151A1
:10505000EC2FF0E0ED5BFE4B8081809381418C2F43
:1050600090E08830910508F03EC1FC01E957FC4F03
:105070000C94D13BE9E7F1E41382128280E681834C
:105080008AE78083178216824091EA508DEC489F10
:10509000812D1124869586958695282F30E02D5BED
:1050A0003E4BD9019C919583880F982F990F990FAA
:1050B000890FA42FA81BB0E0AD5BBE4B8C918483FD
:1050C000138680911151882309F40DC10E944B264B
:1050D0000AC1E9E7F1E413828AE182838AE28183EB
:1050E0008EE180831782168240917E518DEC489F1D
:1050F000812D1124869586958695282F30E02D5B8D
:105100003E4BD9019C919583880F982F990F990F49
:10511000890FA42FA81BB0E0AD5BBE4B8C9184839C
:10512000138680911151882309F4DDC00E94F32574
:10513000DAC0E9E7F1E48CE983838AEF82839EECAD
:1051400091838083A091A941B0E0AD5BBE4B8C916F
:105150008783A0916451B0E0AD5BBE4B8C91868398
:10516000A0916A51B0E0AD5BBE4B8C918583A0915C
:105170003351B0E0AD5BBE4B8C918483138680913C
:105180001151882309F4AFC00E944E24ACC0E9E756
:10519000F1E4138212828AE081838AE38083A09102
:1051A0005B51B0915C51AD5BBE4B8C918F5F87833F
:1051B000A0918452B0918552AD5BBE4B8C91868399
:1051C000A0917351B0917451AD5BBE4B8C918583AE
:1051D000A0914251B0914351AD5BBE4B8C91848301
:1051E000A0918151B0918251AD5BBE4B8C91838770
:1051F00080911151882309F476C00E94621C73C00B
:10520000E9E7F1E480E683838CEE828382E08183A8
:1052100086EB8083A0910B51B0E0AD5BBE4B8C91CF
:105220008783A0917D51B0E0AD5BBE4B8C918F5FC9
:105230008683A0910D51B0E0AD5BBE4B8C91858310
:10524000A091EF50B0E0AD5BBE4B8C918483A091F8
:105250006851B0E0AD5BBE4B8C918387809111515A
:10526000882309F440C00E94AC1A3DC0E9E7F1E48C
:1052700086EB83838AE182838AEF818380E6808361
:10528000A0915B51B0915C51AD5BBE4B8C918F5F37
:105290008783A0918452B0918552AD5BBE4B8C91B7
:1052A0008683A0917351B0917451AD5BBE4B8C91CC
:1052B0008583A0914251B0914351AD5BBE4B8C911F
:1052C0008483A0918151B0918251AD5BBE4B8C9192
:1052D000838780911151882331F00E94962103C069
:1052E000C1E001C0C6E00E947E0E80911051811184
:1052F00098CEDF91CF911F910F91FF90EF90DF90AB
:10530000CF90BF90AF909F908F907F906F905F9065
:105310004F903F902F9008951BBEFC0164BF4083C7
:105320000895682F88E60E94D417982F92959F7051
:10533000990F292F220F220F920F8F70890F089536
:10534000CF93DF9386E00E949129CAE3D1E58E8353
:1053500085E00E9491298D8384E00E9491298C83AD
:1053600083E00E9491298B8382E00E9491298A83A5
:1053700081E00E949129898380E00E94912988839D
:10538000DF91CF9108959DEC699F912D1124969501
:105390009695969520E1929FA0011124990F292FAF
:1053A000220F220F920F691B6F70462B682F88E621
:1053B0000E9490170895962F482F50E047305105CE
:1053C00018F5FA01E157FC4F0C94D13B9C33E8F0FF
:1053D00090E01BC09C33C8F090E017C09831A8F053
:1053E00090E013C02FEF290F273078F091E00DC027
:1053F000903258F091E009C09D3038F091E005C03E
:10540000911103C095E101C090E0692F0E94C3296A
:105410000895CF93DF93109211514CE062E080E049
:105420000E94D2050E94A029CAE3D1E5AE818DEC8D
:10543000A89F912D1124969596959695E92FF0E0C9
:10544000ED5BFE4B2081E9E7F1E42383990F292FDF
:10545000220F220F920FA91BB0E0AD5BBE4B9C91B7
:1054600092834D81489F912D1124969596959695FE
:10547000292F30E02D5B3E4BD9012C912183990FD0
:10548000292F220F220F920FA42FA91BB0E0AD5B92
:10549000BE4B9C9190834C81489F912D11249695F1
:1054A00096959695292F30E02D5B3E4BD9012C9196
:1054B0002783990F292F220F220F920FA42FA91BA8
:1054C000B0E0AD5BBE4B9C9196834A81489F912D85
:1054D0001124969596959695292F30E02D5B3E4B9D
:1054E000D9012C912583990F292F220F220F920F7A
:1054F000A42FA91BB0E0AD5BBE4B9C919483498166
:10550000489F912D1124969596959695292F30E0D8
:105510002D5B3E4BD9012C912387990F292F220F08
:10552000220F920FA42FA91BB0E0AD5BBE4B9C9144
:105530009287A881A89F812D1124869586958695AE
:10554000C82FD0E0CD5BDE4B98819187880F982FD4
:10555000990F990F890FA81BB0E0AD5BBE4B8C91E2
:1055600080878AC281E080931351E0914F518E2F42
:1055700090E08730910508F07DC2FC01EA56FC4FAF
:105580000C94D13BE0913A518DECE89F812D112490
:10559000869586958695A82FB0E0AD5BBE4B9C9115
:1055A000A9E7B1E419969C931997880F982F990F42
:1055B000990F890FE81BF0E0ED5BFE4B8081189698
:1055C0008C93189780917B51882321F0FD011382E1
:1055D00012821FC0E09140518DECE89F812D112473
:1055E000869586958695A82FB0E0AD5BBE4B9C91C5
:1055F000A9E7B1E413969C931397880F982F990FFE
:10560000990F890FE81BF0E0ED5BFE4B808112964D
:105610008C9380915051882309F42CC28091515170
:10562000813051F480914051833630F48F5F809304
:105630004051109251511EC280915151833009F056
:1056400019C280914051882309F414C2815080937B
:105650004051109251510EC2E09140518DECE89FA3
:10566000812D1124869586958695A82FB0E0AD5B97
:10567000BE4B9C91A9E7B1E413969C931397880FB6
:10568000982F990F990F890FE81BF0E0ED5BFE4B07
:10569000808112968C93129780917B51882321F000
:1056A000FD01118210821EC0E0913F518DECE89FF8
:1056B000812D1124869586958695A82FB0E0AD5B47
:1056C000BE4B9C91A9E7B1E411969C931197880F6A
:1056D000982F990F990F890FE81BF0E0ED5BFE4BB7
:1056E00080818C9380915051882309F4C3C18091AB
:1056F0005151813051F480913F518C3030F48F5FA3
:1057000080933F5110925151B5C1809151518330D6
:1057100009F0B0C180913F51823008F4ABC1815093
:1057200080933F5110925151A5C1E0913F518DECB2
:10573000E89F812D1124869586958695A82FB0E047
:10574000AD5BBE4B9C91A9E7B1E411969C93119778
:10575000880F982F990F990F890FE81BF0E0ED5BE8
:10576000FE4B80818C9380917B51882321F0FD0139
:10577000178216821FC0E0913E518DECE89F812D6B
:105780001124869586958695A82FB0E0AD5BBE4B1B
:105790009C91A9E7B1E417969C931797880F982FCF
:1057A000990F990F890FE81BF0E0ED5BFE4B8081AC
:1057B00016968C9380915051882309F45BC1809197
:1057C0005151813051F480913E518F3130F48F5FCF
:1057D00080933E51109251514DC18091515183306F
:1057E00009F048C180913E51823008F443C1815094
:1057F00080933E51109251513DC1E0913E518DEC4C
:10580000E89F812D1124869586958695A82FB0E076
:10581000AD5BBE4B9C91A9E7B1E417969C9317979B
:10582000880F982F990F990F890FE81BF0E0ED5B17
:10583000FE4B808116968C93169780917B5188231E
:1058400021F0FD01158214821FC0E0913C518DECC6
:10585000E89F812D1124869586958695A82FB0E026
:10586000AD5BBE4B9C91A9E7B1E415969C9315974F
:10587000880F982F990F990F890FE81BF0E0ED5BC7
:10588000FE4B808114968C9380915051882309F4AB
:10589000F1C080915151813051F480913C51873158
:1058A00030F48F5F80933C5110925151E3C080914E
:1058B0005151833009F0DEC080913C51882309F4B6
:1058C000D9C0815080933C5110925151D3C0E09186
:1058D0003C518DECE89F812D112486958695869507
:1058E000A82FB0E0AD5BBE4B9C91A9E7B1E4159643
:1058F0009C931597880F982F990F990F890FE81B84
:10590000F0E0ED5BFE4B808114968C9314978091B0
:105910007B51882321F0FD01138612861FC0E09180
:105920003B518DECE89F812D1124869586958695B7
:10593000A82FB0E0AD5BBE4B9C91A9E7B1E41B96EC
:105940009C931B97880F982F990F990F890FE81B2D
:10595000F0E0ED5BFE4B80811A968C938091505164
:10596000882309F487C080915151813051F480918E
:105970003B518B3330F48F5F80933B5110925151E8
:1059800079C080915151833009F074C080913B51AE
:10599000882309F46FC0815080933B51109251517C
:1059A00069C0E0913B518DECE89F812D11248695D3
:1059B00086958695A82FB0E0AD5BBE4B9C91A9E77C
:1059C000B1E41B969C931B97880F982F990F990F02
:1059D000890FE81BF0E0ED5BFE4B80811A968C93FB
:1059E0001A9780917B51882321F0FD011186108642
:1059F0001FC0E0913A518DECE89F812D11248695CE
:105A000086958695A82FB0E0AD5BBE4B9C91A9E72B
:105A1000B1E419969C931997880F982F990F990FB5
:105A2000890FE81BF0E0ED5BFE4B808118968C93AC
:105A3000809150518823F1F080915151813051F47F
:105A400080913A518B3330F48F5F80933A511092AA
:105A5000515110C080915151833061F480913A517D
:105A6000882341F0815080933A511092515102C0E5
:105A700010924F510E947E0E80911051811172CD73
:105A8000CAE3D1E56E8186E00E94DB296D8185E065
:105A90000E94DB296C8184E00E94DB296A8182E01C
:105AA0000E94DB29698181E00E94DB29688180E016
:105AB0000E94DB29DF91CF91089580E00895E0E412
:105AC000FAE081E0828787E490E086A397A38FE0E5
:105AD000808380E00895E0E2F8E080E098E180874C
:105AE000918784E9858380EC868380E00895909196
:105AF000240895FFFCCF8093220881E090E0089570
:105B0000E0E6F8E080E098E18087918784E985838A
:105B100080EC868380E008959091640895FFFCCF27
:105B20008093620881E090E008950F931F93CF93D4
:105B3000DF938C01C0E0D0E007C0F801EC0FFD1F3F
:105B400080810E948C2D2196F80101900020E9F7B8
:105B50003197E01BF10BCE17DF0778F3DF91CF9180
:105B60001F910F9108958AEFEAE8F1E5DF011D9298
:105B70008A95E9F71092725108954AE068ED80E045
:105B800091E00E948C2980E00895CF93C0E0C1305D
:105B9000A1F028F0C23069F1C33081F133C080E553
:105BA00091E40E94952D2FEF8FEF9CE221508040D1
:105BB0009040E1F700C0000025C084E591E40E9418
:105BC000952D80914C51805D0E948C2D8091AB4130
:105BD000805D0E948C2D80910E51805D0E948C2DE5
:105BE0008091ED50805D0E948C2D8DE00E948C2D67
:105BF00009C089E591E40E94952D04C08FE591E4E8
:105C00000E94952D80E09DC0C11125C0282F30E055
:105C1000F901E657FE4A90819F34E9F4F901E5570E
:105C2000FE4A90819B34B9F4F901E457FE4A908111
:105C30009D3089F483E090E00E9442042FEF8FE3CF
:105C400092E0215080409040E1F700C000000E94A7
:105C5000B32DC1E079C0C13029F5282F30E0F9011A
:105C6000E657FE4A90819F34E9F4F901E557FE4A70
:105C700090819B34B9F4F901E457FE4A90819D303C
:105C800089F483E090E00E9442042FEF8FE392E0DA
:105C9000215080409040E1F700C000000E94B32DE9
:105CA000C2E052C0C23029F5282F30E0F901E65792
:105CB000FE4A90819F34E9F4F901E557FE4A90814C
:105CC0009B34B9F4F901E457FE4A90819D3089F480
:105CD00083E090E00E9442042FEF8FE392E0215096
:105CE00080409040E1F700C000000E94B32DC3E067
:105CF0002BC0C33029F5282F30E0F901E657FE4AC2
:105D000090819F34E9F4F901E557FE4A90819B3474
:105D1000B9F4F901E457FE4A90819D3089F483E09B
:105D200090E00E9442042FEF8FE392E021508040E8
:105D30009040E1F700C000000E94B32DC5E004C010
:105D40008F5F8A3F08F460CF0E947E0EC53009F055
:105D50001ECFCF9108956F927F928F929F92BF92A4
:105D6000CF92DF92EF92FF920F931F93CF93DF9327
:105D70004CE062E081E00E94D205809065519090F5
:105D800066519401329522952F7023273F70232767
:105D9000A7E4B3E00E94DA3B6C01D694C794D69492
:105DA000C794D694C794DC2D20E137E2C29EC0018F
:105DB000C39E900DD29E900D11249401281B390B87
:105DC000369527953695279536952795A5ECB0E21B
:105DD0000E94DA3B7C01F694E794F694E794F694FB
:105DE000E794F694E794BE2C940136952795369562
:105DF0002795369527950E94DA3B929582958F706C
:105E000089279F70892748EE53E0849F9001859FE2
:105E1000300D949F300D1124C401821B930B9C0103
:105E20003695279536952795ABE7B4E10E94DA3B86
:105E30003C0176946794062D940136952795369506
:105E400027950E94DA3B9C013695279544E6429FB0
:105E5000C001439F900D11249401281B390BADEC18
:105E6000BCEC0E94DA3BAC01569547955695479598
:105E700056954795C42F94010E94DA3B96958795D5
:105E800096958795969587959C01220F331F880FCD
:105E9000991F880F991F880F991F820F931F9401D4
:105EA000281B390BC901122FD601AD5BBE4B2C91BB
:105EB000A9E7B1E417962C931797970133272D5B29
:105EC0003E4BF901208116962C931697F301FF277C
:105ED000ED5BFE4B208115962C9315975527FA0103
:105EE000ED5BFE4B208114962C9314979927FC01AF
:105EF000ED5BFE4B80811B968C9377C181E0809394
:105F0000135180914F51823009F489C028F48823BD
:105F100061F08130D1F167C1843009F418C108F40F
:105F2000C9C0853009F45DC15EC1E12FF0E0ED5BD1
:105F3000FE4B80818093844180917B51882319F0AE
:105F40001092804107C0ED2FF0E0ED5BFE4B8081A9
:105F50008093804180915051882309F444C18091FD
:105F60005151813031F4D63020F4DF5F109251511D
:105F70003AC180915151833009F035C1DD2309F4D4
:105F800032C1D150109251512EC1ED2FF0E0ED5B96
:105F9000FE4B80818093804180917B51882319F052
:105FA00010927F4107C0EB2DF0E0ED5BFE4B80814E
:105FB00080937F4180915051882309F414C1D630D9
:105FC000B8F080915151813039F4F4E0FB1520F0A4
:105FD000B3941092515107C180915151833009F00F
:105FE00002C1BB2009F4FFC0BA9410925151FBC00A
:105FF00080915151813039F428E02B1520F0B39471
:1060000010925151F0C080915151833009F0EBC092
:10601000BB2009F4E8C0BA9410925151E4C0EB2DB2
:10602000F0E0ED5BFE4B808180937F4180917B515E
:10603000882319F010927E4107C0E02FF0E0ED5B5D
:10604000FE4B808180937E4180915051882309F4DA
:10605000CAC0D630C8F034E03B15B0F4809151513D
:10606000813031F4053020F40F5F10925151BBC0E4
:1060700080915151833009F0B6C0002309F4B3C0B8
:10608000015010925151AFC080915151813031F483
:10609000093020F40F5F10925151A5C080915151E9
:1060A000833009F0A0C0002309F49DC00150109274
:1060B000515199C0E02FF0E0ED5BFE4B8081809361
:1060C0007E4180917B51882319F010927D4107C059
:1060D000EC2FF0E0ED5BFE4B808180937D41809161
