S01200005069675F5363616C65732E7372656338
S11306000C9417040C9436040C9436040C9436049D
S11306100C9436040C9436040C9436040C9436046E
S11306200C9436040C9436040C9436040C9436045E
S11306300C9436040C9436040C9436040C9436044E
S11306400C9436040C9436040C9436040C9436043E
S11306500C9436040C9436040C9436040C9436042E
S11306600C9436040C9436040C9436040C9436041E
S11306700C9436040C9436040C9436040C94430401
S11306800C9436040C9436040C9436040C943604FE
S11306900C9436040C9436040C9436040C943604EE
S11306A00C9436040C9436040C9436040C94B71948
S11306B00C9436040C9436040C949B040C94360469
S11306C00C9436040C9436040C9436040C943604BE
S11306D00C946F040C9436040C9436040C94360475
S11306E00C9436040C9436040C9436040C9436049E
S11306F00C9436040C9436040C9436040C9436048E
S11307005C31E62F163047307630B03024315A3120
S11307105132553259325D32633267326B322D3386
S1130720973300346834D2343C35A3356E616E009F
S1130730696E660000407A10F35A00A0724E1809E0
S11307400010A5D4E80000E87648170000E40B5434
S1130750020000CA9A3B000000E1F5050000809603
S11307609800000040420F000000A0860100000035
S1130770102700000000E8030000000064000000EF
S113078000000A00000000000100000000002C76B8
S1130790D888DC674F0823DFC1DFAE59E1B1B796D3
S11307A0E5E3E453C63AE651997696E8E6C2842630
S11307B0EB898C9B62ED407C6FFCEFBC9C9F40F20C
S11307C0BAA56FA5F490055A2AF75C936B6CF96788
S11307D06DC11BFCE0E40D47FEF520E6B500D0ED4D
S11307E0902E0300943577050080841E08000020B5
S11307F04E0A000000C80C333333330F986E128353
S11308001141EF8D2114893BE65516CFFEE6DB1826
S1130810D1844B381BF77C1D901DA4BBE4242032EB
S113082084725E228100C9F124ECA1E53D271124E4
S11308301FBECFEFCDBFDFE7DEBF10E4A0E0B0E422
S1130840EAE1F1E900E00BBF02C007900D92A03C81
S1130850B107D9F723E4A0ECB0E401C01D92A43A97
S1130860B207E1F70E9409130C948B480C9400031F
S11308700E9449150895E4E0F4E090819260908329
S11308808093134208951F920F920FB60F92112472
S11308900BB60F928F939F93EF93FF93809124084D
S11308A08823E4F780913441E82FF0E09091200808
S11308B0EC5BFE4B9083893110F0109234418091AF
S11308C034418F5F80933441FF91EF919F918F91D9
S11308D00F900BBE0F900FBE0F901F9018951F9294
S11308E00F920FB60F9211240BB60F928F939F9312
S11308F0EF93FF93809164088823E4F78091214269
S1130900E82FF0E090916008E759FD4B90838A3F0F
S113091010F010922142809121428F5F80932142F6
S1130920FF91EF919F918F910F900BBE0F900FBE8F
S11309300F901F9018951F920F920FB60F921124CB
S11309400BB60F922F933F934F935F936F937F93C5
S11309508F939F93AF93BF93EF93FF9381E0809323
S11309604B0A0E944F050E94EF058091C9418111F5
S113097005C0E0EFF1E41182128205C0E9ECF1E474
S113098080818150808380911342811106C0E4E00C
S1130990F4E080818D7F808303C081508093134273
S11309A0E9ECF1E4818192810196818392838181D2
S11309B09281803D974020F0E9E6F1E410821182B3
S11309C0E9ECF1E4838194810196838394838581A6
S11309D09681019685839683878190850196878386
S11309E0908781859285019681879287809178414D
S11309F08F5F80937841833348F081E090912A425D
S1130A00911180E080932A4210927841FF91EF91F6
S1130A10BF91AF919F918F917F916F915F914F9112
S1130A203F912F910F900BBE0F900FBE0F901F9010
S1130A301895CF93C82F8091EF41813019F48C2FF2
S1130A400E94E2358091EF41833019F48C2F0E948B
S1130A50F73580E090E0CF9108958EE08093000414
S1130A608DE08093200485E5809340041092600417
S1130A70109280048CE08093A00487EF8093C004DC
S1130A8010920404109224041092440410926404FA
S1130A90109284041092A4041092C404089532E0C5
S1130AA02FC0E4ECF4E080818D7F80838091C0408E
S1130AB094E03902F0011124EF53FF4BE80FF11DCC
S1130AC0808190E0022E02C0959587950A94E2F702
S1130AD080FF06C0E4ECF4E080818460808305C07C
S1130AE0E4ECF4E080818B7F8083E4ECF4E08081AB
S1130AF0826080832F5F01C020E0283090F2315063
S1130B003323D4F7E4ECF4E0808181608083808136
S1130B108E7F80838091C0408130A9F028F082309C
S1130B2009F1833071F13BC0E4ECF4E080818F7E05
S1130B30808380818F7D808380818F7B808380818F
S1130B40806880832CC0E4ECF4E080818F7E808315
S1130B5080818F7D808380818064808380818F7792
S1130B6080831DC0E4ECF4E080818F7E80838081EB
S1130B708062808380818F7B808380818F77808374
S1130B800EC0E4ECF4E080818061808380818F7DFD
S1130B90808380818F7B808380818F778083809125
S1130BA0C0408F5F8093C040843010F01092C040EA
S1130BB0089512C0E82FF0E0A42FB0E0A457BF4B73
S1130BC09C91EE0FFF1FEE0FFF1FEF53FF4B93831C
S1130BD09283918390838F5F681760F70895809163
S1130BE0F1418111A0C08091080484FD0DC08AE008
S1130BF090E00E943B04E0EFF1E481E08283818392
S1130C001092CA411092CB418091080485FD0EC018
S1130C108AE090E00E943B04E0EFF1E482E082830A
S1130C2081E081831092CA411092CB4180910804E3
S1130C3086FD0EC08AE090E00E943B04E0EFF1E400
S1130C4083E0828381E081831092CA411092CB4178
S1130C5080910804882374F08AE090E00E943B04A9
S1130C60E0EFF1E484E0828381E081831092CA4161
S1130C701092CB418091F241843051F480916941CA
S1130C80882319F01092694103C081E0809369417F
S1130C9080916941882391F08091F241823071F40E
S1130CA080916B4181110AC080916A41882319F0B7
S1130CB010926A4103C081E080936A418091694146
S1130CC0882391F08091F241823071F480916B41DC
S1130CD0882351F0E0EFF1E480818F5F808380818D
S1130CE0863010F01092F041E0EFF1E493818281BC
S1130CF0981311C08091F441823020F084E18093F4
S1130D00C941089582E38093C941E0EFF1E484810D
S1130D108F5F8483089582E38093C941E0EFF1E417
S1130D208281838314820895CF92DF92EF92FF929F
S1130D3081E090E00E9460158093EC4181508C33F7
S1130D4040F081E08093EC4161E081E090E00E941A
S1130D50821582E090E00E9460158093F6418150F4
S1130D608C3340F081E08093F64161E082E090E0D2
S1130D700E94821583E090E00E94601580932F41C9
S1130D80803240F081E080932F4161E083E090E085
S1130D900E94821584E090E00E9460158093FD40DB
S1130DA08D3340F081E08093FD4061E084E090E089
S1130DB00E94821585E090E00E946015809365434F
S1130DC08D3338F01092654360E085E090E00E9436
S1130DD0821586E090E00E946015809361418D3316
S1130DE038F01092614160E086E090E00E94821544
S1130DF087E090E00E9460158093434181508430E5
S1130E0040F082E08093434162E087E090E00E94FA
S1130E10821588E090E00E94601580935E428150C4
S1130E20843040F082E080935E4262E088E090E0AB
S1130E300E94821589E090E00E946015809315421B
S1130E408150843040F082E08093154262E089E072
S1130E5090E00E94821580E190E00E946A15A0E073
S1130E60B0E08093FB419093FC41A093FD41B0938B
S1130E70FE4184569109A109B10985389340A10521
S1130E80B10590F084E690E0A0E0B0E08093FB41EF
S1130E909093FC41A093FD41B093FE4164E670E061
S1130EA080E190E00E94A51582E190E00E946A151D
S1130EB0A0E0B0E08093094290930A42A0930B42D1
S1130EC0B0930C4284569109A109B1098538934025
S1130ED0A105B10590F084E690E0A0E0B0E0809335
S1130EE0094290930A42A0930B42B0930C4264E6E9
S1130EF070E082E190E00E94A51584E190E00E94F8
S1130F006A15A0E0B0E08093F7419093F841A09374
S1130F10F941B093FA4184569109A109B109853880
S1130F209340A105B10590F084E690E0A0E0B0E024
S1130F308093F7419093F841A093F941B093FA411B
S1130F4064E670E084E190E00E94A51585E290E0FB
S1130F500E9475150E94E53E6B017C01609330414F
S1130F6070933141809332419093334120E038ECC7
S1130F704FEA57E40E94973F181654F020E030E4FB
S1130F804CE156E4C701B6010E94383E8823A4F41C
S1130F9080E090E4ACE1B7E4809330419093314138
S1130FA0A0933241B093334140E45CE960E070E0E7
S1130FB085E290E00E94C2158AE290E00E947515D5
S1130FC00E94E53E6B017C016093F8407093F94008
S1130FD08093FA409093FB4020E038EC4FEA57E4CA
S1130FE00E94973F181654F020E030E44CE156E498
S1130FF0C701B6010E94383E8823A4F480E090E43F
S1131000ACE1B7E48093F8409093F940A093FA40A0
S1131010B093FB4040E45CE960E070E08AE290E079
S11310200E94C21580E390E00E9475150E94E53E7F
S11310306B017C0160933A4170933B4180933C4146
S113104090933D4120E038EC4FEA57E40E94973FEB
S1131050181654F020E030E44CE156E4C701B60120
S11310600E94383E8823A4F480E090E4ACE1B7E425
S113107080933A4190933B41A0933C41B0933D41CE
S113108040E45CE960E070E080E390E00E94C21517
S113109086E190E00E946A158093F6409093F740B1
S11310A08D599F4F873C910550F01092F640109255
S11310B0F74060E070E086E190E00E94A51588E1C9
S11310C090E00E946A1580930541909306418D59E2
S11310D09F4F873C910550F01092054110920641B4
S11310E060E070E088E190E00E94A5158AE190E05C
S11310F00E946A1580935342909354428D599F4F96
S1131100873C910550F0109253421092544260E093
S113111070E08AE190E00E94A5158CE190E00E94C5
S11311206A1580936E4390936F430A978730974272
S113113060F084EF91E080936E4390936F4364EF8B
S113114071E08CE190E00E94A5158EE190E00E9490
S11311506A1580936441909365410A97873097425A
S113116060F084EF91E0809364419093654164EF73
S113117071E08EE190E00E94A51580E290E00E946B
S11311806A158093D8419093D9410A978730974242
S113119060F084EF91E08093D8419093D94164EF5B
S11311A071E080E290E00E94A5150E940B328091CC
S11311B0DB418C3328F060E080E00E944632FFCFB0
S11311C08091E14181111CC066E186E00E944632B3
S11311D069E085E00E94463264E184E00E94463280
S11311E063E083E00E9446326CE082E00E94463273
S11311F060E081E00E94463260E080E00E94463276
S1131200FF90EF90DF90CF9008958FE090E00E94E0
S11312103B0426E686E695E0215080409040E1F7C5
S11312208FE090E00E943B0426E686E695E021509C
S113123080409040E1F78FE090E00E943B040895E5
S11312404F925F926F927F928F929F92AF92BF92D2
S1131250CF92DF92EF92FF92CF93C82F8130E9F4BF
S113126081E00E94961E6C01E12CF12CEDE7F1E483
S1131270C486D586E686F786808C918CA28CB38C46
S11312808091C341809335418091FF418093F54122
S11312908091CE419091CF4146C08230E9F482E002
S11312A00E94961E6C01E12CF12CEDE7F1E4C08A5A
S11312B0D18AE28AF38A848C958CA68CB78C80912F
S11312C0C4418093354180915D428093F541809182
S11312D0D0419091D14127C08330E9F483E00E944A
S11312E0961E6C01E12CF12CEDE7F1E4C48AD58A59
S11312F0E68AF78A80A091A0A2A0B3A08091C541FC
S1131300809335418091C7418093F5418091D241CA
S11313109091D34108C080E090E0812C912C54013D
S1131320C12CD12C7601C114D104E104F10409F4D7
S11313300BC221E0843F914008F420E026013701EC
S113134089E1481A51086108710891E0B701A601C2
S1131350475E5F4F6F4F7F4F481559056A057B0500
S113136008F490E081E084149504A604B70408F41A
S113137080E0982B81E0C814D904EA04FB0409F046
S113138080E0892B09F479C1222309F476C1809184
S1131390F5418F5F8093F541843008F401C1809159
S11313A035418111DFC081E080933541C13019F4AA
S11313B08093C3410BC0C23021F481E08093C441C7
S11313C005C0C33019F481E08093C54184E13CC079
S11313D0C13091F4282F30E0F9013197EE0FFF1F4F
S11313E0EE58FC4B40815181220F331FF901EE5816
S11313F0FC4B4083518327C0C23091F4282F30E046
S1131400F9013197EE0FFF1FE55DFD4B40815181DE
S1131410220F331FF901E55DFD4B4083518313C057
S1131420C33089F4282F30E0F9013197EE0FFF1F04
S1131430E95FFE4B40815181220F331FF901E95FBF
S1131440FE4B408351838150823010F6C13069F5E0
S1131450EDE7F1E444855585668577858091F6400E
S11314609091F740092E000CAA0BBB0B840F951F1B
S1131470A61FB71F84879587A687B7878093744371
S113148090937543EDEBF1E4808191810196808323
S113149091838C2F0E947D1A0E9405091092C341EA
S11314A01092CE411092CF415DC0C23069F5EDE794
S11314B0F1E4408951896289738980910541909151
S11314C00641092E000CAA0BBB0B840F951FA61F07
S11314D0B71F808B918BA28BB38B80932D429093FB
S11314E02E42EFEBF1E48081918101968083918318
S11314F08C2F0E947D1A0E9405091092C4411092FB
S1131500D0411092D1412EC0C33061F5EDE7F1E432
S113151044895589668977898091534290915442D0
S1131520092E000CAA0BBB0B840F951FA61FB71F17
S1131530848B958BA68BB78B8093094190930A413A
S1131540E1ECF1E4808191810196808391838C2F79
S11315500E947D1A0E9405091092C5411092D24141
S11315601092D3411092F5418091F6409091F7404A
S1131570092E000CAA0BBB0BC80ED91EEA1EFB1EBB
S1131580FF92EF92DF92CF9288E490E49F938F933F
S11315900E94A5460F900F900F900F900F900F9000
S11315A0C13011F58091F5418093FF41EDE7F1E4FD
S11315B0808E918EA28EB38E4485558566857785FF
S11315C08091F6409091F740092E000CAA0BBB0BBA
S11315D0840F951FA61FB71F84879587A687B78793
S11315E08C2F0E947D1AFBC0C23011F58091F54109
S11315F080935D42EDE7F1E4848E958EA68EB78EDE
S1131600408951896289738980910541909106418D
S1131610092E000CAA0BBB0B840F951FA61FB71F26
S1131620808B918BA28BB38B8C2F0E947D1AD7C099
S1131630C33009F0D4C08091F5418093C741EDE7F0
S1131640F1E480A291A2A2A2B3A244895589668939
S113165077898091534290915442092E000CAA0B31
S1131660BB0B840F951FA61FB71F848B958BA68B6E
S1131670B78B8C2F0E947D1AB2C0C13001F5EDE703
S1131680F1E4C08ED18EE28EF38E44855585668555
S113169077858091F6409091F740092E000CAA0BB3
S11316A0BB0B840F951FA61FB71F84879587A6873A
S11316B0B7878C2F0E947D1A1092144290C0C230BA
S11316C001F5EDE7F1E4C48ED58EE68EF78E408900
S11316D05189628973898091054190910641092E4F
S11316E0000CAA0BBB0B840F951FA61FB71F808B82
S11316F0918BA28BB38B8C2F0E947D1A1092FE408B
S11317006EC0C33009F06BC0EDE7F1E4C0A2D1A212
S1131710E2A2F3A24489558966897789809153426C
S113172090915442092E000CAA0BBB0B840F951FF9
S1131730A61FB71F848B958BA68BB78B8C2F0E940B
S11317407D1A1092C8414BC0C130C1F4809114423B
S11317508F5F80931442833008F441C08C2F0E9421
S11317607D1A1092C3411092144210929541109226
S11317709641109297411092984131C0C230B9F409
S11317808091FE408F5F8093FE40833040F18C2F28
S11317900E947D1A1092C4411092FE401092994109
S11317A010929A4110929B4110929C4118C0C330F0
S11317B0B1F48091C8418F5F8093C841833078F041
S11317C08C2F0E947D1A1092C5411092C84110922C
S11317D09D4110929E4110929F411092A041CF9141
S11317E0FF90EF90DF90CF90BF90AF909F908F903D
S11317F07F906F905F904F9008950F931F93CF93B6
S1131800DF93CDB7DEB7C656D109CDBFDEBF96E6AE
S1131810FE013196DF01292F1D922A95E9F7DF0198
S11318201D929A95E9F790EF998391E09B836C83DD
S11318309E839091F6419F8392E09A8791E020E005
S113184030E00AE0F6C0813009F04FC04091BD415C
S11318505091BE414431510538F02091BD41309141
S1131860BE41290F311D15C06091BD417091BE412B
S1131870492F50E06417750740F46091BD417091A1
S1131880BE416417750718F004C09A0102C020E035
S113189030E041E0400FE1E0F0E0EC0FFD1FE00F2D
S11318A0F11D308362E0600FE1E0F0E0EC0FFD1F1A
S11318B0E40FF11D2083E92FF0E0EE0FFF1FEE5837
S11318C0FC4B50814181E1E0F0E0EC0FFD1FE60F9D
S11318D0F11D408343E0400FE1E0F0E0EC0FFD1F19
S11318E0E40FF11D0C5F5083A3C0823009F04FC098
S11318F04091BF415091C0414431510538F020918D
S1131900BF413091C041290F311D15C06091BF41C5
S11319107091C041492F50E06417750740F46091FD
S1131920BF417091C0416417750718F004C09A0153
S113193002C020E030E041E0400FE1E0F0E0EC0FD5
S1131940FD1FE00FF11D308362E0600FE1E0F0E085
S1131950EC0FFD1FE40FF11D2083E92FF0E0EE0FE3
S1131960FF1FE55DFD4B50814181E1E0F0E0EC0FAC
S1131970FD1FE60FF11D408343E0400FE1E0F0E07E
S1131980EC0FFD1FE40FF11D0C5F508351C0833039
S113199009F04EC04091C1415091C24144315105BA
S11319A038F02091C1413091C241290F311D15C039
S11319B06091C1417091C241492F50E0641775078D
S11319C040F46091C1417091C2416417750718F0E9
S11319D004C09A0102C020E030E041E0400FE1E0A1
S11319E0F0E0EC0FFD1FE00FF11D308362E0600FAB
S11319F0E1E0F0E0EC0FFD1FE40FF11D2083E92F7F
S1131A00F0E0EE0FFF1FE95FFE4B50814181E1E002
S1131A10F0E0EC0FFD1FE60FF11D408343E0400FA3
S1131A20E1E0F0E0EC0FFD1FE40FF11D0C5F5083CB
S1131A309F5F953108F407CFE1E0F0E0EC0FFD1F64
S1131A40E00FF11D108281E0800FE1E0F0E0EC0F87
S1131A50FD1FE80FF11D108282E0800FE1E0F0E04D
S1131A60EC0FFD1FE80FF11D108283E0800FE1E011
S1131A70F0E0EC0FFD1FE80FF11D108284E0800FF1
S1131A80E1E0F0E0EC0FFD1FE80FF11D108236E0FD
S1131A90300F85E0800FE1E0F0E0EC0FFD1FE80F70
S1131AA0F11D108281E090E009C0E1E0F0E0EC0F6C
S1131AB0FD1FE80FF11D2081920F8F5F8317A8F39C
S1131AC087E0800FE1E0F0E0EC0FFD1FE30FF11D74
S1131AD09083085FE1E0F0E0EC0FFD1FE80FF11DDB
S1131AE081EF808310E00AC0E1E0F0E0EC0FFD1F1D
S1131AF0E10FF11D80810E94F7351F5F1017A0F3DD
S1131B00CA59DF4FCDBFDEBFDF91CF911F910F9137
S1131B1008951F93CF93DF93CDB7DEB72A97CDBF38
S1131B20DEBF9AE0FE013196DF01292F1D922A952E
S1131B30E9F7DF011D929A95E9F790EF998391E017
S1131B409B838C836D839E838091F6418F8381E098
S1131B5090E009C0E1E0F0E0EC0FFD1FE80FF11D9B
S1131B602081920F8F5F8830A8F3998781EF8A874D
S1131B7010E00AC0E1E0F0E0EC0FFD1FE10FF11D01
S1131B8080810E94F7351F5F1A30A0F32A96CDBFDB
S1131B90DEBFDF91CF911F910895EF92FF920F93D3
S1131BA01F93CF93DF93C0E0E7C10C2F10E0F8013F
S1131BB0E759FD4B8081803F09F086C0F801E65962
S1131BC0FD4B9081913009F07FC0F801E559FD4B40
S1131BD09081913009F078C0F801E359FD4B908170
S1131BE0911172C0F801EE58FD4B9081913F09F0BC
S1131BF06BC0E4E2F4E080818860808390E081E05F
S1131C0008C0F801E80FF11DE759FD4B2081920F40
S1131C108F5F8830B0F3F801EF58FD4B8081981343
S1131C204BC0F801E459FD4B80819091FD4089132C
S1131C3014C0C4E2D4E08881846088836091FD404C
S1131C4081E00E94FD0B8CEC9CE10197F1F700C050
S1131C50000088818B7F88832FC09091654389130E
S1131C6014C0C4E2D4E088818460888360916543B1
S1131C7082E00E94FD0BECECFCE13197F1F700C02F
S1131C80000088818B7F888317C0909161418913FC
S1131C9013C0C4E2D4E08881846088836091614188
S1131CA083E00E94FD0B8CEC9CE10197F1F700C0EE
S1131CB0000088818B7F88830E941E36E4E2F4E072
S1131CC08081877F80835BC1803F09F0A1C0F801D8
S1131CD0E659FD4B9081913009F09AC0F801E3591F
S1131CE0FD4B9081993009F093C0F801E858FD4B01
S1131CF09081913F09F08CC0E4E2F4E08081886037
S1131D00808390E081E008C0F801E80FF11DE759F5
S1131D10FD4B2081920F8F5F8E30B0F3F801E958AC
S1131D20FD4B808198136CC0F801EF58FD4B808106
S1131D30982F92959F70990F692F660F660F960FD3
S1131D408F70692F680F86E00E944632F801EE58C2
S1131D50FD4B8081982F92959F70990F692F660F84
S1131D60660F960F8F70692F680F85E00E944632C8
S1131D70F801ED58FD4B8081982F92959F70990F33
S1131D80692F660F660F960F8F70692F680F84E0B6
S1131D900E944632F801EC58FD4B8081982F9295B1
S1131DA09F70990F692F660F660F960F8F70692FBA
S1131DB0680F82E00E944632F801EB58FD4B8081A7
S1131DC0982F92959F70990F692F660F660F960F43
S1131DD08F70692F680F81E00E944632F801EA583B
S1131DE0FD4B8081982F92959F70990F692F660FF4
S1131DF0660F960F8F70692F680F80E00E9446323D
S1131E000E941E36E4E2F4E08081877F8083B7C0BD
S1131E10803F09F0B0C0F801E659FD4B8081813064
S1131E2009F0A9C0F801E559FD4B8081813009F022
S1131E30A2C0780194E0E90EF11CF701E759FD4BCB
S1131E408081873009F097C0F801E857FD4B808105
S1131E50813F09F090C0E4E2F4E0808188608083EF
S1131E6090E081E008C0F801E80FF11DE759FD4B4F
S1131E702081920F8F5F8E31B0F3F801E957FD4B4B
S1131E808081981378C060E070E06093634370933E
S1131E906443F801E459FD4B80819091FD4089131E
S1131EA021C060936E4370936F438CE190E00E9475
S1131EB0A51504E214E0F801808184608083F701B1
S1131EC0E759FD4B60818091FD400E94890D8CECA7
S1131ED09CE10197F1F700C00000F80180818B7F3D
S1131EE0808349C090916543891321C06093644104
S1131EF0709365418EE190E00E94A51504E214E020
S1131F00F801808184608083F701E759FD4B60818B
S1131F10809165430E94890D8CEC9CE10197F1F757
S1131F2000C00000F80180818B7F808324C09091E1
S1131F306141891320C06093D8417093D94180E2F4
S1131F4090E00E94A51504E214E0F8018081846009
S1131F508083F701E759FD4B6081809161410E94C4
S1131F60890D8CEC9CE10197F1F700C00000F801A9
S1131F7080818B7F8083CF5FCA3F08F416CEDF91C8
S1131F80CF911F910F91FF90EF9008958091CC41D4
S1131F909091CD41883E934098F11092CC4110929B
S1131FA0CD410E940B326091DF4180912F4168172F
S1131FB039F160932F4188E2E2E7F3E4DF01282F4F
S1131FC01D922A95E9F71092BD411092BE41EBE2B1
S1131FD0F2E4DF01282F1D922A95E9F71092BF4100
S1131FE01092C041E7E0F1E4DF011D928A95E9F720
S1131FF01092C1411092C24183E090E00E94821588
S113200008954F925F926F927F928F929F92AF92B8
S1132010BF92CF92DF92EF92FF92CF9310925942E8
S113202010925A4210925B4210925C4210921742F4
S1132030109218421092194210921A4210926C4156
S113204010926D4110926E4110926F41C0E046C0F3
S113205080E00E9478144091594250915A42609114
S11320605B4270915C42480F591F611D711D409382
S1132070594250935A4260935B4270935C4281E0B0
S11320800E9478144091174250911842609119426D
S113209070911A42480F591F611D711D40931742D8
S11320A0509318426093194270931A4282E00E943E
S11320B0781440916C4150916D4160916E417091E2
S11320C06F41480F591F611D711D40936C4150931E
S11320D06D4160936E4170936F41CF5FC23308F4DA
S11320E0B7CF6091594270915A4280915B4290916E
S11320F05C420F2EF2E3CF2ED12CE12CF12CF02DEB
S1132100A70196010E94BD4329013A012093594237
S113211030935A4240935B4250935C426091174221
S1132120709118428091194290911A42A701960128
S11321300E94BD4349015A0120931742309318422B
S11321404093194250931A4260916C4170916D41D1
S113215080916E4190916F41A70196010E94BD4309
S113216069017A0120936C4130936D4140936E4133
S113217050936F41C301B2010E94E53E26EF39E05E
S113218040EA5AE30E949C3F60931B4270931C42B6
S113219080931D4290931E42C501B4010E94E53E06
S11321A026EF39E040EA5AE30E949C3F6093D44111
S11321B07093D5418093D6419093D741C701B6011E
S11321C00E94E53E26EF39E040EA5AE30E949C3F34
S11321D06093F2407093F3408093F4409093F54001
S11321E0CF91FF90EF90DF90CF90BF90AF909F90F2
S11321F08F907F906F905F904F900895CF92DF9271
S1132200EF92FF92CF93DF9320E836E948E15BE455
S113221060913041709131418091324190913341CC
S11322200E943D3E6B017C012FE832EC45EF5EE3FA
S113223060911B4270911C4280911D4290911E42FC
S11322400E94CC3D9B01AC01C701B6010E943D3EFA
S113225020E030E040E053E40E949C3F9B01AC014D
S11322600E94CC3D20E030E040E05BE40E949C3FD3
S11322706B017C012091FB413091FC414091FD4177
S11322805091FE41A8EEB3E00E9416440E94E53E40
S11322909B01AC01C701B6010E943D3E6B017C016C
S11322A06091434170E080E090E00E94E73E9B0132
S11322B0AC01C701B6010E943D3ECDE7D1E468837D
S11322C079838A839B8320E836E948E15BE4609163
S11322D0F8407091F9408091FA409091FB400E943F
S11322E03D3E6B017C012FE832EC45EF5EE36091EB
S11322F0D4417091D5418091D6419091D7410E94AB
S1132300CC3D9B01AC01C701B6010E943D3E20E0DB
S113231030E040E053E40E949C3F9B01AC010E94EA
S1132320CC3D20E030E040E05BE40E949C3F6B0148
S11323307C012091094230910A4240910B42509114
S11323400C42A8EEB3E00E9416440E94E53E9B01B5
S1132350AC01C701B6010E943D3E6B017C01609156
S11323605E4270E080E090E00E94E73E9B01AC0199
S1132370C701B6010E943D3E6C837D838E839F839B
S113238020E836E948E15BE460913A4170913B41D1
S113239080913C4190913D410E943D3E6B017C0106
S11323A02FE832EC45EF5EE36091F2407091F34028
S11323B08091F4409091F5400E94CC3D9B01AC018A
S11323C0C701B6010E943D3E20E030E040E053E406
S11323D00E949C3F9B01AC010E94CC3D20E030E078
S11323E040E05BE40E949C3F6B017C012091F7413B
S11323F03091F8414091F9415091FA41A8EEB3E08F
S11324000E9416440E94E53E9B01AC01C701B6013F
S11324100E943D3E6B017C016091154270E080E0BA
S113242090E00E94E73E9B01AC01C701B6010E9407
S11324303D3E688779878A879B87DF91CF91FF909C
S1132440EF90DF90CF900895CF934AE062E080E070
S11324500E94D905E9E6F1E41082118212821092F9
S1132460F0410E9494068FEF9FE80197F1F700C0B6
S113247000000E9401100E94FE108FEF9FE8019758
S1132480F1F700C00000C0E013C081E00E94D41D39
S113249082E00E94D41D83E00E94D41D9FEF2FE3AD
S11324A082E0915020408040E1F700C00000CF5FFF
S11324B0C23058F30E9405091092C3411092C441DE
S11324C01092C541CF910895A8950895CF93109285
S11324D06A414CE062E080E00E94D905C1E091C00D
S11324E08091F141882399F08091F241813031F457
S11324F0C53020F4CF5F1092F24109C08091F241BF
S1132500833029F4CC2319F0C1501092F241E1EC4C
S1132510F0E4138612861186AC2FB0E0A457BF4BAB
S11325208C918087C23031F130F4CC2309F466C039
S1132530C13049F064C0C43009F448C088F1C530E2
S113254009F45AC05CC0E1ECF0E48AE183838EEDC7
S1132550828390E691839083178296EB968385839A
S11325608EE1848380916A41882309F448C00E94E3
S1132570753145C0E1ECF0E4138286EF82838AEF83
S113258081838EE18083178296EB96839EED9583FB
S1132590848380916A41882391F10E9498162FC008
S11325A0E1ECF0E413828AED82838EE381838EED85
S11325B08083178296EB968385838EE18483809152
S11325C06A418823E1F00E94683C19C0E1ECF0E420
S11325D013828AE082838EE181839AE19083178259
S11325E096EB96839EED9583848380916A4188233C
S11325F031F00E94743203C0C1E001C0C4E00E9403
S113260064128091694181116BCF0E942412CF9191
S113261008950E9438040E942D0560E070E089E16D
S113262095E00E941E4681E08093EF418DEB90E49B
S11326300E94B9462FEF8FE392E0215080409040F2
S1132640E1F700C0000085E590E49F938F938EE549
S113265090E49F938F938AE690E49F938F930E94D4
S1132660A5460E945E140E9486140E946F147894FA
S11326700E940509E4E2F4E08081877F8083808101
S11326808B7F80830E949406E1ECF0E4138281E660
S113269082838CEF818310822FEF8FEF9CE2215095
S11326A080409040E1F700C000000E9464120F9047
S11326B00F900F900F900F900F9010E00F2EF5E0F9
S11326C0FF2EF02DA6C00E940B32CBEDD1E49E81EB
S11326D08DEC989F412D1124469546954695E42FFF
S11326E0F0E0E457FF4B5081E1ECF0E45383440FF6
S11326F0542F550F550F450FA92FA41BB0E0A45715
S1132700BF4B9C9192839D81989F412D11244695A6
S113271046954695A42FB0E0A457BF4B5C915183D6
S1132720440F542F550F550F450FA92FA41BB0E08C
S1132730A457BF4B9C9190839C81989F412D112459
S1132740469546954695A42FB0E0A457BF4B5C919F
S11327505783440F542F550F550F450FA92FA41B12
S1132760B0E0A457BF4B9C9196839A81989F412DCA
S11327701124469546954695A42FB0E0A457BF4B27
S11327805C915583440F542F550F550F450FA92FB6
S1132790A41BB0E0A457BF4B9C9194839981989F4C
S11327A0412D1124469546954695A42FB0E0A45793
S11327B0BF4B5C915387440F542F550F550F450F52
S11327C0A92FA41BB0E0A457BF4B9C9192871881FA
S11327D0189F812D1124869586958695A82FB0E0A3
S11327E0A457BF4B9C919187880F982F990F990FED
S11327F0890FA12FA81BB0E0A457BF4B8C918087F1
S1132800011741F08AE090E00E943B040E946412A8
S1132810FA94012FF11057CF0E9424120E946412DF
S11328208091FD40882321F081E00E9420090EC0A0
S11328304CE060E080E00E94D9052FEF8FEB96E03A
S1132840215080409040E1F700C000008091654332
S1132850882321F082E00E9420090EC04CE061E050
S113286081E00E94D9052FEF8FEB96E02150804044
S11328709040E1F700C0000080916141882321F07D
S113288083E00E9420090EC04CE062E082E00E94D6
S1132890D9052FEF8FEB96E0215080409040E1F76F
S11328A000C000008091694181110E9466120E945B
S11328B0CD0D0E94C60F0E946412B2CFE0E0F6E094
S11328C086E0828381E0808380E00895E0E0F6E0A2
S11328D090819F7D9083808781E082870895809195
S11328E00D06817008958091100690911106089547
S11328F00E9466140E946F148823E1F30E947314EB
S1132900E0E0F6E0258521602587089585E0809341
S1132910A00086EF8A95F1F708951092890080E06F
S1132920089543E068ED80E690E00E94F7318091DD
S1132930630080FDFCCF80E0089580E0089580E08E
S113294008C0E82FF0E0E05FFB4F9081986090832F
S11329508F5F8830B0F380E008C0E82FF0E0E05DDE
S1132960FB4F9081986090838F5F8830B0F380E054
S113297008C0E82FF0E0E05BFB4F90819860908303
S11329808F5F8830B0F380E008C0E82FF0E0E059B2
S1132990FB4F9081986090838F5F8830B0F380E024
S11329A008C0E82FF0E0E057FB4F908198609083D7
S11329B08F5F8830B0F380E008C0E82FF0E0E05586
S11329C0FB4F9081986090838F5F8830B0F380E0F4
S11329D008C0E82FF0E0E053FB4F908198609083AB
S11329E08F5F8830B0F3089585B3877F85BB84B348
S11329F0886084BBE3EBF4E08081877F80838081FF
S1132A008F7780838081887F808385B38B7F85BB2C
S1132A1084B3846084BBE2EBF4E08081877F8083AD
S1132A2080818F7780838081887F80830E942119B1
S1132A300895E0EEF5E082818B7F8283E0E4F4E0A8
S1132A4080818160808380818D7F80830E94D635E0
S1132A500895E0EEF5E082818F7B8283E0E2F4E08A
S1132A6080818160808380818D7F80830E94EB35AB
S1132A70089510920806E0E6F4E08089887F808B50
S1132A8080898460808B8089877F808B0E945E141C
S1132A9008950E949F140E9491140E9419150E9487
S1132AA029150E9439150E94C8350E949D140E9460
S1132AB0CA350E948D140E9428360E94F414089589
S1132AC0811522E0920710F08FEF91E0FC01FC5E8B
S1132AD0808108958F3F21E0920710F08EEF91E0FE
S1132AE0FC01FC5E8081918108958D3F21E0920775
S1132AF010F08CEF91E0FC01FC5E608171818281B9
S1132B00938108951F93CF93DF939C01211582E055
S1132B103807B0F4909102109370E1F7162FE90191
S1132B2043E16DE980E090E10E94F731DC5E1883B7
S1132B3040E06DE980E090E10E94F73181E001C05E
S1132B4080E0DF91CF911F910895CF92DF92EF92B1
S1132B50FF92CF93DF938F3F21E0920758F4EC016B
S1132B606B010E9482156D2DCE0101960E94821583
S1132B7081E001C080E0DF91CF91FF90EF90DF9082
S1132B80CF900895FF920F931F93CF93DF938D3FC0
S1132B9021E09207C0F4172F062FF52E642FEC01C5
S1132BA00E9482156F2DCE0101960E948215602F1E
S1132BB0CE0102960E948215612FCE0103960E94D7
S1132BC0821581E001C080E0DF91CF911F910F91C8
S1132BD0FF9008954CE062E080E00E94D90542C075
S1132BE0E1ECF0E48EEB838382E082838AE28183EA
S1132BF08AE380832091EC418DEC289F812D112460
S1132C00869586958695A82FB0E0A457BF4B9C91D6
S1132C109583880F982F990F990F890FA22FA81BBE
S1132C20B0E0A457BF4B8C9184838091F1418823F9
S1132C30B9F08091F241813041F42C3330F42F5FAC
S1132C402093EC411092F2410BC08091F241833009
S1132C5039F4223028F021502093EC411092F241B3
S1132C600E94641280916941882321F080916A4115
S1132C708111B6CF6091EC4181E090E00E94821511
S1132C8008954CE062E080E00E94D90542C0E1EC86
S1132C90F0E48EEB838382E0828380E681838AE79B
S1132CA080832091F6418DEC289F812D11248695F7
S1132CB086958695A82FB0E0A457BF4B9C91958329
S1132CC0880F982F990F990F890FA22FA81BB0E096
S1132CD0A457BF4B8C9184838091F1418823B9F030
S1132CE08091F241813041F42C3330F42F5F2093F2
S1132CF0F6411092F2410BC08091F241833039F4D5
S1132D00223028F021502093F6411092F2410E9483
S1132D10641280916941882321F080916A41811174
S1132D20B6CF6091F64182E090E00E94821508954A
S1132D30CF9310926A414CE062E080E00E94D90592
S1132D40C1E08BC08091F141882399F08091F241D8
S1132D50813031F4C33020F4CF5F1092F24109C0C6
S1132D608091F241833029F4CC2319F0C1501092A0
S1132D70F241EC2FF0E0E457FF4B80818093C9408F
S1132D80C13041F008F466C0C23099F1C33009F48F
S1132D905FC061C0E1ECF0E48EEB838382E0828368
S1132DA08AE281838AE38083178216824091EC4110
S1132DB08DEC489F812D1124869586958695282F24
S1132DC030E024573F4BD9019C919583880F982F6D
S1132DD0990F990F890FA42FA81BB0E0A457BF4BDC
S1132DE08C91848380916A418823A9F10E94EA1519
S1132DF032C0E1ECF0E48EEB838382E0828380E6F0
S1132E0081838AE78083178216824091F6418DEC94
S1132E10489F812D1124869586958695282F30E02C
S1132E2024573F4BD9019C919583880F982F990F74
S1132E30990F890FA42FA81BB0E0A457BF4B8C9106
S1132E40848380916A41882331F00E94411603C033
S1132E50C1E001C0C2E00E94641280916941811105
S1132E6071CFCF910895E0E2F9E084818860848392
S1132E70858181608583EDECF0E480818E7F8083A1
S1132E8013868EE00895EDECF0E480818E7F8083DC
S1132E90138680E00895E0E2F9E08481836084830E
S1132EA00E9443170895EDECF0E4808188608083EC
S1132EB0818190E0880F991F81608093270984E0C5
S1132EC008950E94531708950E9453170895EDEC36
S1132ED0F0E48081886080838181880F8093270952
S1132EE083E008950E9467170895ADECB0E48C91D7
S1132EF0877F8C9382E01B968C931B975096ED9161
S1132F00FC9151975C968D919C915D9709958230C7
S1132F1019F0833021F006C00E94641708950E94BE
S1132F20721708950E944B170895E0E2F9E0848136
S1132F308B7F848384E00895E0E2F9E084818B7FD1
S1132F40848383E00895E0E2F9E0848184608483EB
S1132F508481836084830E9443170895E0E2F9E04A
S1132F6084818460848388E008958091250984FFA6
S1132F7019C0ADECB0E45296ED91FC9153975E9676
S1132F808D919C915F970995823019F0833021F0DF
S1132F9006C00E94641708950E94721708950E9443
S1132FA04B170895EDECF0E48081877F8083A28144
S1132FB0B381CD010196828393838C9180932809F8
S1132FC084819581019784839583892B11F083E013
S1132FD0089585E00895CF93DF93EDECF0E48081CC
S1132FE0877F808384819581019731F4E0E2F9E061
S1132FF084818460848305C0E0E2F9E084818B7F6E
S11330008483EDECF0E48481958101978483958336
S1133010892BA9F0DF01C281D381E0E2F9E0808548
S1133020888312968D919C911397019612968D9395
S11330309C93139784818260848384E026C0ADECE2
S1133040B0E41296ED91FC91139780912809808346
S113305012968D919C911397019612968D939C9341
S113306013978C9184608C931C96ED91FC911D9721
S113307058968D919C91599709958250823018F4F5
S11330800E94AE1702C00E94A317DF91CF9108954A
S11330908091250984FF19C0ADECB0E45296ED91FE
S11330A0FC9153975E968D919C915F970995823020
S11330B019F0833021F006C00E94641708950E941D
S11330C0721708950E944B170895ADECB0E48C91EB
S11330D084608C931C96ED91FC911D9758968D916C
S11330E09C9159970995833039F0843041F08230AE
S11330F049F40E94641708950E94721708950E946B
S1133100B51708950E944B170895E0E2F9E0858110
S113311088608583ADECB0E482E01B968C931B97AA
S11331201E96ED91FC911F975A968D919C915B97F9
S11331300995823019F0833021F006C00E9464178B
S113314008950E94721708950E9433170895E0E2CB
S1133150F9E0848188608483858181608583EDECD6
S1133160F0E480818E7F808382E083878EE00895FF
S1133170CF93DF93E0E2F9E08581806C85838091D1
S1133180CD4083FF07C08091250984FF03C08FE0F1
S11331908093D7408091250983FF03C080E1809309
S11331A0D7408091250982FF03C081E18093D740F5
S11331B0CDECD0E4EA85F0E0EE0FFF1FEA5FFF4BB1
S11331C00190F081E02D09958A87DF91CF910895D0
S11331D081E0089585E008956115710591F090E00E
S11331E0FC013696EE0FFF1FE353FF4B60837183A0
S11331F0FC013C96EE0FFF1FE353FF4B40835183CA
S1133200089590E0FC013696EE0FFF1FE353FF4B49
S113321028EE38E120833183FC013C96EE0FFF1F3A
S1133220E353FF4B108211820895AB01BC0180E08F
S11332300E94EC180895AB01BC0182E00E94EC18D6
S11332400895E0E2F9E084E4868381EC83830895C1
S11332509091CD4091FD37C0EDECF0E48183892F4E
S11332608E7F82609EE0928724EF31E02087318751
S1133270877F8460808388EE98E184879587108EA9
S1133280118E86879787128E138E808B918B148E66
S1133290158E828B938B168E178E8AEE98E1848B13
S11332A0958B10A211A2E0E2F9E084818860848306
S11332B08581816085838581806C85838381806C31
S11332C0838380E0089581E008958091250982FF39
S11332D007C0EDECF0E480818E7F808382E08387F9
S11332E08091CD4080FD17C0EDECF0E48D7F8083AC
S11332F08FEF8183A0E2B9E015968C911597806CCD
S113330015968C93159713968C9113978F73139628
S11333108C938385089581E008959C019091CD401C
S113332092FF09C0EDECF0E4228333836483758358
S1133330892F8B7F808308959091CD4090FD11C09B
S1133340EDECF0E491609083882321F081E0809398
S1133350D74003C082E08093D7400E94B81880E031
S1133360089581E0089580E00E949C1908951F92B9
S11333700F920FB60F9211240BB60F922F933F9317
S11333804F935F936F937F938F939F93AF93BF9369
S1133390EF93FF930E94B818FF91EF91BF91AF9103
S11333A09F918F917F916F915F914F913F912F9159
S11333B00F900BBE0F900FBE0F901F90189561E0F9
S11333C070E00E948D1960E070E080E090E00E945F
S11333D0151984E0089561E070E00E948D1960E0A1
S11333E070E080E090E00E94151982E00895FF9259
S11333F00F931F93CF93DF9300D0CDB7DEB7F82E92
S113340069834A8300E117E28F2D0E9428198130D5
S113341019F401501109C1F7012B11F1BE016E5FBE
S11334207F4F8FED99E10E94151961E070E0CE01A4
S113343001960E948D1960E070E08BE79AE10E948A
S11334401B190E94B31900E117E20E94651981302B
S113345019F401501109C9F7012B21F482E003C0CA
S113346081E001C080E00F900F90DF91CF911F9118
S11334700F91FF900895EF92FF921F93CF93DF93E4
S113348000D0CDB7DEB7182F6A838AE289836894A7
S1133490EE24E1F8F12C23C0812F0E9428198823FF
S11334A0D9F3BE016F5F7F4F8BEE99E10E9415192E
S11334B061E070E0CE0102960E948D1960E070E038
S11334C08BE79AE10E941B190E94B3190E946519A7
S11334D08130E1F3882331F081E0E81AF108E11446
S11334E0F104D1F689810F900F90DF91CF911F9154
S11334F0FF90EF90089583E008957F928F929F92BA
S1133500AF92BF92CF92DF92EF92FF920F931F93ED
S1133510CF93DF93082F813049F4809089419090B4
S11335208A41A0908B41B0908C4119C0823049F4FB
S113353080908D4190908E41A0908F41B0909041A9
S11335400EC0833049F48090914190909241A090B4
S11335509341B090944103C0812C912C5401C50136
S1133560B40120E137E240E050E00E94BD43722EF6
S11335702093FC400F2EF8EECF2EF3E0DF2EE12C4B
S1133580F12CF02DA70196010E94BD43122F209328
S11335905742C501B401A70196010E94BD430F2EF5
S11335A0F4E6CF2ED12CE12CF12CF02DA7019601BD
S11335B00E94BD43D22F20931F42C501B401A7012D
S11335C096010E94BD430F2EFAE0CF2ED12CE12CA0
S11335D0F12CF02DA70196010E94BD43C22F209328
S11335E0EB41C501B401A70196010E94BD4360935C
S11335F00F4281E1881687E29806A104B10418F10C
S1133600E02FF0E03197A72DB0E0A457BF4B8C9189
S1133610EE0FFF1FEE0FFF1FEF53FF4B8383A12F0E
S1133620B0E0A457BF4B8C918283AD2FB0E0A45778
S1133630BF4B8C918F5F8183AC2FB0E0A457BF4BFD
S11336408C9180834EC089EE881683E09806A1048D
S1133650B10418F1E02FF0E03197A12FB0E0A457A6
S1133660BF4B8C91EE0FFF1FEE0FFF1FEF53FF4B6D
S11336708383AD2FB0E0A457BF4B8C918F5F8283BF
S1133680AC2FB0E0A457BF4B8C918183A62FB0E040
S1133690A457BF4B8C91808324C088EE881683E0A6
S11336A09806A104B104E8F4E02FF0E03197EE0F9E
S11336B0FF1FEE0FFF1FEF53FF4B1382AD2FB0E040
S11336C0A457BF4B8C918F5F8283AC2FB0E0A4577B
S11336D0BF4B8C918183A62FB0E0A457BF4B8C9134
S11336E08083DF91CF911F910F91FF90EF90DF9036
S11336F0CF90BF90AF909F908F907F9008958F92BE
S11337009F92AF92BF92CF92DF92EF92FF920F936C
S11337101F93CF93DF93813049F4C0908941D090B7
S11337208A41E0908B41F0908C4119C0823049F479
S1133730C0908D41D0908E41E0908F41F0909041A7
S11337400EC0833049F4C0909141D0909241E090F2
S11337509341F090944103C0C12CD12C7601C70150
S1133760B60120E137E240E050E00E94BD43022F61
S11337702093FC400F2EF8EE8F2EF3E09F2EA12C09
S1133780B12CF02DA50194010E94BD43122F20936A
S11337905742C701B601A50194010E94BD430F2EF3
S11337A0F4E68F2E912CA12CB12CF02DA5019401BF
S11337B00E94BD43D22F20931F42C701B601A50129
S11337C094010E94BD430F2EFAE08F2E912CA12C60
S11337D0B12CF02DA50194010E94BD43C22F20936A
S11337E0EB41C701B601A50194010E94BD4360935A
S11337F00F4281E1C81687E2D806E104F10410F112
S1133800E02FF0E0E457FF4B8081A1ECB0E4139685
S11338108C931397E12FF0E0E457FF4B80811296CD
S11338208C931297ED2FF0E0E457FF4B80818F5F6C
S113383011968C931197EC2FF0E0E457FF4B8081A5
S11338408C934CC089EEC81683E0D806E104F104D9
S113385010F1E12FF0E0E457FF4B8081A1ECB0E4DC
S113386013968C931397ED2FF0E0E457FF4B808170
S11338708F5F12968C931297EC2FF0E0E457FF4B76
S1133880808111968C931197E62FF0E0E457FF4B5B
S113389080818C9323C088EEC81683E0D806E104A7
S11338A0F104E0F4A1ECB0E413961C921397ED2F0D
S11338B0F0E0E457FF4B80818F5F12968C93129750
S11338C0EC2FF0E0E457FF4B808111968C93119715
S11338D0E62FF0E0E457FF4B80818C93DF91CF918A
S11338E01F910F91FF90EF90DF90CF90BF90AF901A
S11338F09F908F900895CF92DF92EF92FF92E4E42D
S1133900F4E080818B7F80838091480483FFFCCF27
S113391090E040E050E0BA011DC0440F551F661FFF
S1133920771FE4E4F4E080818460808322E62A95B2
S1133930F1F7000080818B7F808382E68A95F1F71E
S113394000008091480483FD04C04F5F5F4F6F4FB8
S11339507F4F9F5F983108F3E4E4F4E08081846052
S1133960808392E69A95F1F7000080818B7F8083B3
S11339702FEF8FE794E0215080409040E1F700C0A2
S11339800000CB01BA0120E48227613020EF7207E6
S11339902FE7820791051CF060E070E0CB0128EE70
S11339A033E040E050E00E94DF43A8EEB3E00E9421
S11339B01644C0907D41D0907E41E0907F41F090CC
S11339C080410E94E73EA70196010E943D3E0E946D
S11339D0AF3EFF90EF90DF90CF900895CF92DF92AB
S11339E0EF92FF92E4E4F4E080818F7E8083809103
S11339F0480485FFFCCF90E040E050E0BA011DC0D0
S1133A00440F551F661F771FE4E4F4E08081806152
S1133A10808322E62A95F1F7000080818F7E8083DF
S1133A2082E68A95F1F700008091480485FD04C080
S1133A304F5F5F4F6F4F7F4F9F5F983108F3E4E410
S1133A40F4E080818061808392E69A95F1F700002A
S1133A5080818F7E80832FEF8FE794E02150804018
S1133A609040E1F700C00000CB01BA0120E48227B6
S1133A70613020EF72072FE7820791051CF060E0A8
S1133A8070E0CB0128EE33E040E050E00E94DF43D9
S1133A90A8EEB3E00E941644C0908141D0908241C8
S1133AA0E0908341F09084410E94E73EA701960193
S1133AB00E943D3E0E94AF3EFF90EF90DF90CF907A
S1133AC00895CF92DF92EF92FF92E4E4F4E08081D4
S1133AD08F7B8083809148048823E4F790E040E062
S1133AE050E0BA011DC0440F551F661F771FE4E460
S1133AF0F4E080818064808322E62A95F1F7000057
S1133B0080818F7B808382E68A95F1F70000809123
S1133B104804882324F04F5F5F4F6F4F7F4F9F5FB0
S1133B20983108F3E4E4F4E080818064808392E6D1
S1133B309A95F1F7000080818F7B80832FEF8FE7C8
S1133B4094E0215080409040E1F700C00000CB0198
S1133B50BA0120E48227613020EF72072FE7820741
S1133B6091051CF060E070E0CB0128EE33E040E00A
S1133B7050E00E94DF43A8EEB3E00E941644C090D8
S1133B808541D0908641E0908741F09088410E9421
S1133B90E73EA70196010E943D3E0E94AF3EFF9082
S1133BA0EF90DF90CF9008950F931F938130C9F564
S1133BB00E947B1C8B019C018091B1419091B24188
S1133BC0A091B341B091B441801B910BA20BB30BF4
S1133BD0181619061A061B067CF4EDE7F1E444A94D
S1133BE055A966A977A9481B590B6A0B7B0B44ABF3
S1133BF055AB66AB77AB10C0BB2374F4EDE7F1E4CF
S1133C0044A955A966A977A9480F591F6A1F7B1FA4
S1133C1044AB55AB66AB77AB892B8A2B8B2B61F608
S1133C2075C08230C9F50E94EE1C8B019C01809105
S1133C30B5419091B641A091B741B091B841801B74
S1133C40910BA20BB30B181619061A061B067CF46B
S1133C50EDE7F1E440AD51AD62AD73AD481B590BD6
S1133C606A0B7B0B40AF51AF62AF73AF10C0BB2385
S1133C7074F4EDE7F1E440AD51AD62AD73AD480FBE
S1133C80591F6A1F7B1F40AF51AF62AF73AF892BBF
S1133C908A2B8B2B61F63AC08330C1F50E94611DDB
S1133CA08B019C018091B9419091BA41A091BB4193
S1133CB0B091BC41801B910BA20BB30B18161906D3
S1133CC01A061B067CF4EDE7F1E444AD55AD66AD90
S1133CD077AD481B590B6A0B7B0B44AF55AF66AFEE
S1133CE077AF10C0BB2374F4EDE7F1E444AD55ADF8
S1133CF066AD77AD480F591F6A1F7B1F44AF55AFA0
S1133D0066AF77AF892B8A2B8B2B61F68AE090E024
S1133D100E943B0426E686EE90E0215080409040CD
S1133D20E1F70E9464121F910F9108954F925F92E0
S1133D306F927F928F929F92AF92BF92CF92DF92B7
S1133D40EF92FF92CF93C82F1092AD411092AE41E3
S1133D501092AF411092B041813069F50E947B1CF2
S1133D606B017C01EDE7F1E444A055A066A077A0C7
S1133D7084A995A9A6A9B7A980AB91ABA2ABB3AB13
S1133D8080906E4390906F43A12CB12C2091FB4105
S1133D903091FC414091FD415091FE41A8EEB3E0C9
S1133DA00E94164460935D4170935E4180935F412D
S1133DB09093604167C0823069F50E94EE1C6B01EC
S1133DC07C01EDE7F1E440A451A462A473A480ADA6
S1133DD091ADA2ADB3AD80AB91ABA2ABB3AB8090D0
S1133DE0644190906541A12CB12C209109423091FD
S1133DF00A4240910B4250910C42A8EEB3E00E945B
S1133E00164460935D4170935E4180935F4190934B
S1133E10604138C0833069F50E94611D6B017C01EB
S1133E20EDE7F1E444A455A466A477A484AD95AD6C
S1133E30A6ADB7AD80AB91ABA2ABB3AB8090D8418C
S1133E409090D941A12CB12C2091F7413091F841A7
S1133E504091F9415091FA41A8EEB3E00E94164412
S1133E6060935D4170935E4180935F4190936041A4
S1133E7009C0812C912C5401412C512C3201C12CAC
S1133E80D12C76011C141D041E041F040CF07DC1EA
S1133E908091AD419091AE41A091AF41B091B041BC
S1133EA0C81AD90AEA0AFB0A1C141D041E041F04BA
S1133EB00CF070C0C414D504E604F7040CF44CC030
S1133EC0C130B9F48091DA418F5F8093DA41833352
S1133ED080F0EDE7F1E480A991A9A2A9B3A98C0D22
S1133EE09D1DAE1DBF1D84AB95ABA6ABB7AB0E94A9
S1133EF00509C230B9F4809158428F5F80935842CB
S1133F00833380F0EDE7F1E480A991A9A2A9B3A9D4
S1133F108C0D9D1DAE1DBF1D80AF91AFA2AFB3AF81
S1133F200E940509C330B1F580915F428F5F809391
S1133F305F42833378F1EDE7F1E480A991A9A2A966
S1133F40B3A98C0D9D1DAE1DBF1D84AF95AFA6AF4B
S1133F50B7AF0E9405091EC0C13041F4C092A1410F
S1133F60D092A241E092A341F092A441C23041F424
S1133F70C092A541D092A641E092A741F092A841F7
S1133F80C33041F4C092A941D092AA41E092AB411E
S1133F90F092AC41C114D104E104F10461F4C130E4
S1133FA011F41092DA41C23011F410925842C33025
S1133FB011F410925F4244245524320148185908E0
S1133FC06A087B08C414D504E604F704C4F5C130B8
S1133FD069F48091DA418F5F8093DA41863030F062
S1133FE081E00E94D41D81E00E94D41DC23069F496
S1133FF0809158428F5F80935842863030F082E03F
S11340000E94D41D82E00E94D41DC33089F48091A3
S11340105F428F5F80935F42863070F083E00E943E
S1134020D41D83E00E94D41DC12CD12C760107C07D
S1134030C12CD12C760103C0C12CD12C7601C8141B
S1134040D904EA04FB040CF092C04C145D046E0421
S11340507F040CF08CC01C141D041E041F04ECF51A
S1134060C13091F4EDE7F1E480A991A9A2A9B3A923
S1134070C80ED91EEA1EFB1EC4AAD5AAE6AAF7AA30
S1134080C12CD12C760173C0C23091F4EDE7F1E478
S113409080A991A9A2A9B3A9C80ED91EEA1EFB1E24
S11340A0C0AED1AEE2AEF3AEC12CD12C76015FC06E
S11340B0C33009F051C0EDE7F1E480A991A9A2A9A8
S11340C0B3A9C80ED91EEA1EFB1EC4AED5AEE6AE19
S11340D0F7AEC12CD12C76014AC0FF200CF040C0B1
S11340E0C13091F4EDE7F1E480A991A9A2A9B3A9A3
S11340F0C80ED91EEA1EFB1EC4AAD5AAE6AAF7AAB0
S1134100C12CD12C760133C0C23091F4EDE7F1E437
S113411080A991A9A2A9B3A9C80ED91EEA1EFB1EA3
S1134120C0AED1AEE2AEF3AEC12CD12C76011FC02D
S1134130C330D1F4EDE7F1E480A991A9A2A9B3A910
S1134140C80ED91EEA1EFB1EC4AED5AEE6AEF7AE4F
S1134150C12CD12C76010BC0C12CD12C760107C007
S1134160C12CD12C760103C0C12CD12C76018091B5
S11341705D4190915E41A0915F41B09160418C1589
S11341809D05AE05BF0528F007C0C12CD12C7601D2
S113419003C0C12CD12C7601C701B6012AE030E05E
S11341A040E050E00E94DF43C901CF91FF90EF90BF
S11341B0DF90CF90BF90AF909F908F907F906F9043
S11341C05F904F900895CF93C82F1092C9408130CB
S11341D049F48CE190E00E946A15809363439093C4
S11341E0644315C0823049F48EE190E00E946A1560
S11341F080936343909364430AC0833041F48EE117
S113420090E00E946A1580936343909364434091C5
S11342106343509164439A01329522952F7023276A
S11342203F702327A7E4B3E00E940744969587953F
S113423096958795969587958093624160E177E29C
S1134240869F9001879F300D969F300D1124CA01DF
S1134250821B930B9C0136952795369527953695A9
S11342602795A5ECB0E20E940744929582958F7041
S113427089279F708927809355429A0136952795FF
S113428036952795369527950E94074492958295F1
S11342908F7089279F70892768EE73E0869F90014D
S11342A0879F300D969F300D1124CA01821B930BFA
S11342B09C013695279536952795ABE7B4E10E9486
S11342C0074496958795809363419A01369527957F
S11342D0369527950E9407449C013695279564E6F8
S11342E0629FC001639F900D11249A01281B390B12
S11342F0ADECBCEC0E9407449695879596958795FE
S113430096958795809339419A010E940744969522
S1134310879596958795969587959C01220F331FCF
S1134320880F991F880F991F880F991F820F931F59
S11343309A01281B390B209310423DC181E08093E0
S11343406B418091F041823009F485C030F48823B8
S113435069F0813009F444C02CC1843009F4F0C000
S113436008F4B4C0853009F422C123C1E09110429D
S1134370F0E0E457FF4B80818093CC4080912A4247
S1134380882319F01092C84008C0E0916241F0E01F
S1134390E457FF4B80818093C8408091F14188238A
S11343A009F407C18091F241813051F48091624156
S11343B0811106C08F5F809362411092F241F9C06F
S11343C08091F241833009F0F4C0809162418823E6
S11343D009F4EFC08150809362411092F241E9C028
S11343E0E0916241F0E0E457FF4B80818093C84044
S11343F080912A42882319F01092C74009C0E091A5
S11344005542F0E0E457FF4B80818F5F8093C740B3
S11344108091F141882309F4CCC08091F24181302C
S113442051F480915542893030F48F5F8093554226
S11344301092F241BEC08091F241833009F0B9C0BC
S113444080915542882309F4B4C081508093554229
S11344501092F241AEC0E0915542F0E0E457FF4BB8
S113446080818F5F8093C74080912A42882319F00E
S11344701092C64008C0E0916341F0E0E457FF4B5E
S113448080818093C6408091F141882309F491C0D2
S11344908091F241813051F480916341893030F44C
S11344A08F5F809363411092F24183C08091F24107
S11344B0833009F07EC080916341882309F479C078
S11344C08150809363411092F24173C0E091634143
S11344D0F0E0E457FF4B80818093C64080912A42EC
S11344E0882319F01092C54008C0E0913941F0E0EA
S11344F0E457FF4B80818093C5408091F14188232C
S113450009F457C08091F241813051F480913941CE
S1134510893030F48F5F809339411092F24149C061
S11345208091F241833009F044C08091394188235D
S113453009F43FC08150809339411092F24139C04F
S1134540E0913941F0E0E457FF4B80818093C5400E
S113455080912A42882319F01092CC4008C0E0913F
S11345601042F0E0E457FF4B80818093CC4080916F
S1134570F1418823F1F08091F241813051F480912E
S11345801042893030F48F5F809310421092F241D0
S113459010C08091F241833061F4809110428823ED
S11345A041F08150809310421092F24102C0109267
S11345B0F0410E946412809169418111BFCE409103
S11345C0624120E137E2429FC001439F900D1124D4
S11345D04091554228EE33E0429FB001439F700D55
S11345E01124680F791F809163419B0144E6849FE5
S11345F0200D311D1124C9012091394130E0B90148
S1134600660F771F220F331F220F331F220F331F12
S1134610620F731F680F791F80911042680F711D1C
S11346206093634370936443C13029F48CE190E058
S11346300E94A5150DC0C23029F48EE190E00E94BD
S1134640A51506C0C33021F480E290E00E94A515B0
S1134650E9E6F1E481E08083118212821092F04154
S1134660CF9108952F923F924F925F926F927F92D3
S11346708F929F92AF92BF92CF92DF92EF92FF926E
S11346800F931F93CF93DF93CDB7DEB72D97CDBF95
S1134690DEBF89831092C940813011F585E290E034
S11346A00E9475157B018C0120E030E0A9016D8327
S11346B0FE820F83188729873A874B875C8760932C
S11346C07041F092714100937241109373411092C2
S11346D0744110927541109276411092774149C00D
S11346E00981023011F58AE290E00E9475157B0180
S11346F08C0120E030E0A9016D83FE820F831887CE
S113470029873A874B875C8760937041F0927141A7
S11347100093724110937341109274411092754149
S1134720109276411092774124C00981033009F533
S113473080E390E00E9475157B018C0120E030E05D
S1134740A9016D83FE820F83188729873A874B87D7
S11347505C8760937041F0927141009372411093B1
S113476073411092744110927541109276411092E7
S113477077414090704150907141609072417090C7
S113478073418090744190907541F0907641FB8222
S1134790009177410A836894AA24A4F80F2EF7E2C3
S11347A0BF2EF02DC12CD12CE12CF12C00E010E017
S11347B0242D352D462D572D682D792D8B819A81E9
S11347C00E947C4420930042309301424093024271
S11347D050930342609304427093054280930642CF
S11347E090930742242D352D462D572D682D792D74
S11347F08B819A810E947A440F2EF8EEAF2EF02D11
S11348000F2EF3E0BF2EF02D0E947C4420936643CC
S113481030936743409368435093694360936A437A
S113482070936B4380936C4390936D43242D352D8B
S1134830462D572D682D792D8B819A810E947A44BB
S11348400F2EF4E6AF2EF02DB12C0E947C44209361
S11348502242309323424093244250932542609352
S11348602642709327428093284290932942242D14
S1134870352D462D572D682D792D8B819A810E94D7
S11348807A440F2EFAE0AF2EF02D0E947C44209340
S1134890E3413093E4414093E5415093E641609312
S11348A0E7417093E8418093E9419093EA41242DD4
S11348B0352D462D572D682D792D8B819A810E9497
S11348C07A44209360423093614240936242509311
S11348D0634260936442709365428093664290930E
S11348E06742F2C281E080936B418091F041823053
S11348F009F435C130F4882369F0813009F49DC08E
S1134900E1C2843009F44DC208F4BAC1853009F417
S1134910D7C2D8C2E0916042F0916142E457FF4BA4
S113492080818093CC4080912A42882319F0109290
S1134930C8400AC0E0910042F0910142E457FF4BA5
S113494080818F5F8093C8408091F141882309F46E
S1134950B9C28091F2418130A9F5F09000420091F2
S1134960014210910242E0900342EB82E090044243
S1134970EA82B0910542F0910642E09107422F2D60
S1134980302F412F5B816E2D7B2F8F2F9E2FA7E021
S11349900E94104509F0B0F4A1E00E94FB4420936A
S11349A00042309301424093024250930342609389
S11349B004427093054280930642909307421092FA
S11349C0F24180C28091F241833009F07BC2F090C1
S11349D000420091014210910242E0900342EB82B6
S11349E0E0900442EA82B0910542F0910642E091DF
S11349F007422F2D302F412F5B816E2D7B2F8F2F60
S1134A009E2FA1E00E94104509F008F45BC2AFEFAD
S1134A100E94FB442093004230930142409302429F
S1134A20509303426093044270930542809306427C
S1134A30909307421092F24145C2E0910042F091F6
S1134A400142E457FF4B80818F5F8093C84080917F
S1134A502A42882319F01092C74009C0E0916643A6
S1134A60F0916743E457FF4B80818093C740809166
S1134A70F141882309F426C28091F2418130A9F5DD
S1134A80F09066430091674310916843E090694356
S1134A90EB82E0906A43EA82B0916B43F0916C43FD
S1134AA0E0916D432F2D302F412F5B816E2D7B2F95
S1134AB08F2F9E2FA8E00E94104509F0B0F4A1E0CA
S1134AC00E94FB44209366433093674340936843BA
S1134AD05093694360936A4370936B4380936C4330
S1134AE090936D431092F241EDC18091F241833075
S1134AF009F0E8C1F0906643009167431091684360
S1134B00E0906943EB82E0906A43EA82B0916B43A0
S1134B10F0916C43E0916D432F2D302F412F5B8139
S1134B206E2D7B2F8F2F9E2FA0E00E94104509F43D
S1134B30C9C1AFEF0E94FB4420936643309367439F
S1134B40409368435093694360936A4370936B4303
S1134B5080936C4390936D431092F241B3C1E09102
S1134B606643F0916743E457FF4B80818093C740CD
S1134B7080912A42882319F01092C64009C0E0911E
S1134B802242F0912342E457FF4B80818093C64038
S1134B908091F141882309F495C18091F2418130DB
S1134BA0A9F5F09022420091234210912442E09012
S1134BB02542EB82E0902642EA82B0912742F091AE
S1134BC02842E09129422F2D302F412F5B816E2DF9
S1134BD07B2F8F2F9E2FA8E00E94104509F0B0F480
S1134BE0A1E00E94FB44209322423093234240934D
S1134BF02442509325426093264270932742809327
S1134C002842909329421092F2415CC18091F24172
S1134C10833009F057C1F090224200912342109151
S1134C202442E0902542EB82E0902642EA82B09151
S1134C302742F0912842E09129422F2D302F412F15
S1134C405B816E2D7B2F8F2F9E2FA0E00E9410453D
S1134C5009F438C1AFEF0E94FB4420932242309301
S1134C6023424093244250932542609326427093FA
S1134C70274280932842909329421092F24122C104
S1134C80E0912242F0912342E457FF4B80818093CC
S1134C90C64080912A42882319F01092C54009C069
S1134CA0E091E341F091E441E457FF4B808180932C
S1134CB0C5408091F141882309F404C18091F241F7
S1134CC08130A9F5F090E3410091E4411091E54170
S1134CD0E090E641EB82E090E741EA82B091E8415E
S1134CE0F091E941E091EA412F2D302F412F5B8172
S1134CF06E2D7B2F8F2F9E2FA8E00E94104509F068
S1134D00B0F4A1E00E94FB442093E3413093E441DA
S1134D104093E5415093E6416093E7417093E84145
S1134D208093E9419093EA411092F241CBC0809183
S1134D30F241833009F0C6C0F090E3410091E441B0
S1134D401091E541E090E641EB82E090E741EA8290
S1134D50B091E841F091E941E091EA412F2D302FE3
S1134D60412F5B816E2D7B2F8F2F9E2FA0E00E9401
S1134D70104509F4A7C0AFEF0E94FB442093E34120
S1134D803093E4414093E5415093E6416093E74119
S1134D907093E8418093E9419093EA411092F24183
S1134DA091C0E091E341F091E441E457FF4B8081ED
S1134DB08093C54080912A42882319F01092CC40F8
S1134DC009C0E0916042F0916142E457FF4B808159
S1134DD08093CC408091F141882309F473C0809181
S1134DE0F2418130A9F5F090604200916142109146
S1134DF06242E0906342EB82E0906442EA82B091C6
S1134E006542F0916642E09167422F2D302F412F89
S1134E105B816E2D7B2F8F2F9E2FA8E00E94104563
S1134E2009F0B0F4A1E00E94FB4420936042309367
S1134E306142409362425093634260936442709330
S1134E40654280936642909367421092F2413AC061
S1134E508091F2418330B1F5F0906042009161425B
S1134E6010916242E0906342EB82E0906442EA82F5
S1134E70B0916542F0916642E09167422F2D302F48
S1134E80412F5B816E2D7B2F8F2F9E2FA0E00E94E0
S1134E901045C1F0AFEF0E94FB4420936042309371
S1134EA061424093624250936342609364427093C0
S1134EB0654280936642909367421092F24102C029
S1134EC01092F0410E9464128091694181110ACDCF
S1134ED06894AA24A4F80F2EF7E2BF2EF02DC12C5B
S1134EE0D12CE12CF12C00E010E020910042309113
S1134EF001424091024250910342609104427091F8
S1134F00054280910642909107420E942144422E1C
S1134F10532E642E752E862E7A838B839C83B091B8
S1134F206643A0916743F0916843E0916943209000
S1134F306A4390906B43F0906C43FD8600916D43FF
S1134F400D832B2F3A2F4F2F5E2F622D792D8F2D0E
S1134F50902F02E00E94D944A22EB32EC42ED52E47
S1134F60E62EF72E382E192F05E00E94D944032D82
S1134F700E940745AB2EBA2ECF2EDE2EE22CF92C42
S1134F800D851D810E94F24403E00E94D944A22EA3
S1134F90B32EC42ED52EE62EF72E082F192F242D2E
S1134FA0352D462D572D682D7A818B819C810E9449
S1134FB0F244222E332E442E552E662E772E8A83CB
S1134FC09B8320912242309123424091244250916C
S1134FD02542609126427091274280912842909107
S1134FE0294202E00E94D944822E932E4D835C8391
S1134FF0B62FA72FF82FE92F0E94D944A22EB32E43
S1135000C42ED52EE62EF72E082F192F282D392D34
S11350104D815C816B2F7A2F8F2F9E2F0E94F2443B
S1135020822E932E4D835C83B62FA72FF82FE92F62
S113503002E00E94D944A22EB32EC42ED52EE62E11
S1135040F72E082F192F282D392D4D815C816B2FB8
S11350507A2F8F2F9E2F0E94F244A22EB32EC42E9D
S1135060D52EE62EF72E082F192F222D332D442D61
S1135070552D662D772D8A819B810E94F244222E24
S1135080332E442E552E662E772E8A839B832091B1
S1135090E3413091E4414091E5415091E641609112
S11350A0E7417091E8418091E9419091EA4101E042
S11350B00E94D944822E932E4D835C83B62FA72F52
S11350C0F82FE92F02E00E94D944A22EB32EC42E59
S11350D0D52EE62EF72E082F192F282D392D4D8188
S11350E05C816B2F7A2F8F2F9E2F0E94F244A22E69
S11350F0B32EC42ED52EE62EF72E082F192F222DCF
S1135100332D442D552D662D772D8A819B810E9448
S1135110F244A0906042B0906142C0906242D0904C
S11351206342E0906442F0906542009166421091BF
S113513067420E94F244209370413093714140933E
S1135140724150937341609374417093754180939D
S11351507641909377411981113049F4642F752F6A
S1135160422F532F85E290E00E94C21517C0898117
S1135170823049F4642F752F422F532F8AE290E036
S11351800E94C2150BC00981033041F4642F752FAE
S1135190422F532F80E390E00E94C215E9E6F1E428
S11351A081E08083118212821092F0412D96CDBF4E
S11351B0DEBFDF91CF911F910F91FF90EF90DF90B1
S11351C0CF90BF90AF909F908F907F906F905F90A3
S11351D04F903F902F900895CF92DF92EF92FF92DD
S11351E00F931F93CF93C82FC12CD12C760153C199
S11351F01092CA411092CB41C13019F41092DA4195
S113520009C0C23019F41092584204C0C33011F4DA
S113521010925F428091F141882309F48EC08091FD
S1135220F241813061F480911142909112420196D1
S113523080931142909312421092F2410FC08091D8
S1135240F241833059F480911142909112420197B6
S113525080931142909312421092F2412091114294
S11352603091124233230CF1E1ECF0E41782C901CE
S113527064E670E00E94A943DB01A457BF4B4C9144
S113528046830AE010E0B8010E94A943DB01A45759
S1135290BF4B8C918583C901B8010E94A943DC01ED
S11352A0A457BF4B8C91848348C02195A1ECB0E4F2
S11352B082E017968C93179789E22802812D112496
S11352C08595859585958595922F990F990B891BC1
S11352D0E82F082E000CFF0BE457FF4B3081169685
S11352E03C931697322F44E6849F3019112487E6A5
S11352F03802E12D1124E595E59537FDE3950E2E51
S1135300000CFF0BE457FF4B308115963C93159727
S11353102802812D112485958595891B880F982F46
S1135320990F990F890FE22FE81B0E2E000CFF0B2B
S1135330E457FF4B808114968C93C130B9F480916B
S11353401142909112428093F6409093F7408C2F33
S11353500E94961E6C01E12CF12CC0928941D092DE
S11353608A41E0928B41F0928C4131C0C230B9F451
S1135370809111429091124280930541909306418D
S11353808C2F0E94961E6C01E12CF12CC0928D4151
S1135390D0928E41E0928F41F092904118C0C33078
S11353A0B1F48091114290911242809353429093B0
S11353B054428C2F0E94961E6C01E12CF12CC09259
S11353C09141D0929241E0929341F0929441C11460
S11353D0D104E104F10409F454C0C130D1F4EDE77F
S11353E0F1E444855585668577858091F6409091F2
S11353F0F740092E000CAA0BBB0B840F951FA61FA8
S1135400B71F84879587A687B7878C2F0E947F1B39
S113541040C0C230D1F4EDE7F1E44089518962899A
S113542073898091054190910641092E000CAA0BC5
S1135430BB0B840F951FA61FB71F808B918BA28B6C
S1135440B38B8C2F0E947F1B24C0C33011F5EDE772
S1135450F1E4448955896689778980915342909112
S11354605442092E000CAA0BBB0B840F951FA61FD8
S1135470B71F848B958BA68BB78B8C2F0E947F1BB9
S113548008C0C114D104E104F10419F48C2F0E9462
S11354907F1B0E94641280916941882321F08091CE
S11354A06A418111A5CEC13049F4609111427091D5
S11354B0124286E190E00E94A51515C0C23049F45D
S11354C0609111427091124288E190E00E94A5150A
S11354D00AC0C33041F460911142709112428AE1D2
S11354E090E00E94A515CF911F910F91FF90EF902E
S11354F0DF90CF9008958F929F92AF92BF92CF92F8
S1135500DF92EF92FF920F931F93CF93C82F1092C5
S1135510C940813079F480E190E00E946A15A0E0EE
S1135520B0E080935D4190935E41A0935F41B0935E
S1135530604121C0823079F482E190E00E946A15D2
S1135540A0E0B0E080935D4190935E41A0935F4101
S1135550B093604110C0833071F484E190E00E9404
S11355606A15A0E0B0E080935D4190935E41A09302
S11355705F41B0936041C0905D41D0905E41E09046
S11355805F41F0906041C701B60128EE33E040E08E
S113559050E00E94BD432093F1400F2EF4E68F2E7D
S11355A0912CA12CB12CF02DA50194010E94BD4396
S11355B020930842C701B601A50194010E94BD438E
S11355C00F2EFAE08F2E912CA12CB12CF02DA501D9
S11355D094010E94BD4320931642C701B601A50160
S11355E094010E94BD436093C641FFC081E0809353
S11355F06B418091F041823009F482C030F48823F9
S113560059F0813009F442C0EEC0833009F4B2C0CD
S1135610843009F4E6C0E7C0E091C641F0E0E45705
S1135620FF4B80818093C54080912A42882319F0E2
S11356301092C84008C0E091F140F0E0E457FF4BFD
S113564080818093C8408091F141882309F4CBC0C4
S11356508091F241813051F48091F140811106C072
S11356608F5F8093F1401092F241BDC08091F2416E
S1135670833009F0B8C08091F140882309F4B3C0A5
S113568081508093F1401092F241ADC0E091F1401D
S1135690F0E0E457FF4B80818093C84080912A4218
S11356A0882319F01092C74008C0E0910842F0E046
S11356B0E457FF4B80818093C7408091F141882358
S11356C009F491C08091F241813051F480910842F3
S11356D0853030F48F5F809308421092F24183C08A
S11356E08091F241833009F07EC080910842882382
S11356F009F479C08150809308421092F24173C03A
S1135700E0910842F0E0E457FF4B80818093C7406A
S113571080912A42882319F01092C64008C0E09173
S11357201642F0E0E457FF4B80818093C64080919D
S1135730F141882309F457C08091F241813051F43A
S113574080911642893030F48F5F80931642109214
S1135750F24149C08091F241833009F044C0809104
S11357601642882309F43FC0815080931642109258
S1135770F24139C0E0911642F0E0E457FF4B8081DA
S11357808093C64080912A42882319F01092C54024
S113579008C0E091C641F0E0E457FF4B808180935C
S11357A0C5408091F1418823F1F08091F24181302C
S11357B051F48091C641893030F48F5F8093C641A3
S11357C01092F24110C08091F241833061F48091D3
S11357D0C641882341F081508093C6411092F24122
S11357E002C01092F0410E946412809169418111BB
S11357F0FDCE2091F14088EE93E0289FA001299FDF
S1135800500D11248A01550F220B330B809108424D
S113581044E6849FC0011124092E000CAA0BBB0B83
S1135820AC01BD01400F511F621F731F209116422E
S113583030E0C901880F991F220F331F220F331F35
S1135840220F331F820F931F092E000CAA0BBB0BD0
S1135850840F951FA61FB71F2091C641BC01CD011F
S1135860620F711D811D911D60935D4170935E41B6
S113587080935F4190936041C13029F480E190E0CE
S11358800E94A5150DC0C23029F482E190E00E9467
S1135890A51506C0C33021F484E190E00E94A5154B
S11358A0E9E6F1E481E08083118212821092F041F2
S11358B0CF911F910F91FF90EF90DF90CF90BF9009
S11358C0AF909F908F900895CF93C82F4CE062E0E3
S11358D080E00E94D90549C0E1ECF0E48AE18383C9
S11358E08AE282838EE18183AC2FB0E0A457BF4B60
S11358F08C91808317821682209120428DEC289F00
S1135900812D1124869586958695A82FB0E0A457FD
S1135910BF4B9C919583880F982F990F990F890FEE
S1135920A22FA81BB0E0A457BF4B8C918483108690
S11359308091F1418823B9F08091F241813041F4A2
S1135940243030F4220F209320421092F2410BC0F5
S11359508091F241833039F4223028F02695209347
S113596020421092F2410E9464128091694188237E
S113597021F080916A418111AFCFC13039F4609137
S1135980204287E090E00E94821511C0C23039F4B1
S11359906091204288E090E00E94821508C0C330E4
S11359A031F46091204289E090E00E948215CF9109
S11359B00895CF93C82F4CE062E080E00E94D9059F
S11359C049C0E1ECF0E480E683838AE7828382E0E5
S11359D08183AC2FB0E0A457BF4B8C918083178296
S11359E0168220913E418DEC289F812D11248695AD
S11359F086958695A82FB0E0A457BF4B9C919583BC
S1135A00880F982F990F990F890FA22FA81BB0E028
S1135A10A457BF4B8C91848310868091F1418823D5
S1135A20B9F08091F241813041F42C3330F42F5F8E
S1135A3020933E411092F2410BC08091F241833099
S1135A4039F4222329F0215020933E411092F2414F
S1135A500E94641280916941882321F080916A41F7
S1135A608111AFCFC13039F460913E4184E090E0C0
S1135A700E94821511C0C23039F460913E4185E024
S1135A8090E00E94821508C0C33031F460913E4119
S1135A9086E090E00E948215CF9108953F924F9244
S1135AA05F926F927F928F929F92AF92BF92CF92AA
S1135AB0DF92EF92FF920F931F93CF93DF93C82F40
S1135AC010926A414CE062E080E00E94D905C13046
S1135AD009F041C084E090E00E94601580933E414B
S1135AE087E090E00E9460158093204280E190E07E
S1135AF00E946A15A0E0B0E080935D4190935E41FE
S1135B00A0935F41B093604185E290E00E947515D7
S1135B108B019C0100937041109371412093724159
S1135B2030937341109274411092754110927641F2
S1135B301092774186E190E00E946A1580931142A9
S1135B40909312428CE190E00E946A158093634323
S1135B509093644387C0C23009F041C085E090E06F
S1135B600E94601580933E4188E090E00E94601599
S1135B708093204282E190E00E946A15A0E0B0E0A8
S1135B8080935D4190935E41A0935F41B0936041E7
S1135B908AE290E00E9475158B019C01009370418C
S1135BA01093714120937241309373411092744168
S1135BB010927541109276411092774188E190E0FD
S1135BC00E946A1580931142909312428EE190E0F4
S1135BD00E946A15809363439093644343C0C33027
S1135BE009F040C086E090E00E94601580933E4139
S1135BF089E090E00E9460158093204284E190E067
S1135C000E946A15A0E0B0E080935D4190935E41EC
S1135C10A0935F41B093604180E390E00E947515CA
S1135C208B019C0100937041109371412093724148
S1135C3030937341109274411092754110927641E1
S1135C40109277418AE190E00E946A158093114294
S1135C509093124280E290E00E946A15809363431D
S1135C609093644340905D4150905E4160905F41E9
S1135C7070906041C301B20128EE33E040E050E08F
S1135C800E94BD432093F1400F2EF4E68F2E912CF9
S1135C90A12CB12CF02DA50194010E94BD432093A9
S1135CA00842C301B201A50194010E94BD430F2E15
S1135CB0FAE08F2E912CA12CB12CF02DA50194018A
S1135CC00E94BD4320931642C301B201A501940171
S1135CD00E94BD436093C641309070414090714131
S1135CE050907241609073417090744180907541FE
S1135CF090907641D09177416894AA24A4F80F2E0D
S1135D00F7E2BF2EF02DC12CD12CE12CF12C00E0B8
S1135D1010E0232D342D452D562D672D782D892DFA
S1135D209D2F0E947C442093004230930142409373
S1135D30024250930342609304427093054280935D
S1135D40064290930742232D342D452D562D672D61
S1135D50782D892D9D2F0E947A440F2EF8EEAF2EB8
S1135D60F02D0F2EF3E0BF2EF02D0E947C442093E3
S1135D706643309367434093684350936943609309
S1135D806A4370936B4380936C4390936D43232DCC
S1135D90342D452D562D672D782D892D9D2F0E944C
S1135DA07A440F2EF4E6AF2EF02DB12C0E947C44E1
S1135DB0209322423093234240932442509325421D
S1135DC060932642709327428093284290932942FD
S1135DD0232D342D452D562D672D782D892D9D2F5E
S1135DE00E947A440F2EFAE0AF2EF02D0E947C44DC
S1135DF02093E3413093E4414093E5415093E641DD
S1135E006093E7417093E8418093E9419093EA41BC
S1135E10232D342D452D562D672D782D892D9D2F1D
S1135E200E947A44209360423093614240936242DC
S1135E3050936342609364427093654280936642D8
S1135E409093674240916343509164434A0196940E
S1135E5087949694879496948794969487949401BF
S1135E60A7E4B3E00E940744FC01F695E795F69594
S1135E70E795F695E795E093624120E137E2E29FEA
S1135E80C001E39F900DF29F900D11249A01281BED
S1135E90390B369527953695279536952795A5EC94
S1135EA0B0E20E940744929582958F7089279F7073
S1135EB08927809355429A013695279536952795DB
S1135EC0369527950E940744929582958F7089276D
S1135ED09F70892768EE73E0869F9001879F300D3D
S1135EE0969F300D1124CA01821B930B9C01369599
S1135EF0279536952795ABE7B4E10E94074496951C
S1135F008795809363419A01369527953695279511
S1135F100E9407449C013695279564E6629FC00160
S1135F20639F900D11249A01281B390BADECBCEC36
S1135F300E9407449695879596958795969587959B
S1135F40809339419A010E940744969587959695C6
S1135F508795969587959C01220F331F880F991F6B
S1135F60880F991F880F991F820F931F9A01281B6E
S1135F70390B20931042D1E0A2C18091F1418823D2
S1135F8099F08091F241813031F4D73020F4DF5F11
S1135F901092F24109C08091F241833029F4DD234B
S1135FA019F0D1501092F241ED2FF0E0E457FF4B7D
S1135FB080818093C9408D2F90E08830910508F04E
S1135FC07CC1FC01E058FC4F0C94FE43E1ECF0E48E
S1135FD01382128280E681838AE780831782168285
S1135FE040913E418DEC489F812D112486958695E4
S1135FF08695282F30E024573F4BD9019C919583F7
S1136000880F982F990F990F890FA42FA81BB0E020
S1136010A457BF4B8C918483138680916A41882353
S113602009F44BC18C2F0E94D92C47C1E1ECF0E458
S113603013828AE182838AE281838EE180831782DC
S11360401682409120428DEC489F812D1124869523
S113605086958695282F30E024573F4BD9019C9193
S11360609583880F982F990F990F890FA42FA81B38
S1136070B0E0A457BF4B8C918483138680916A410E
S1136080882309F41AC18C2F0E94642C16C1E1ECF8
S1136090F0E48CE983838AEF82839EEC918380838E
S11360A0A091F140B0E0A457BF4B8C918783A0919D
S11360B00842B0E0A457BF4B8C918683A09116424E
S11360C0B0E0A457BF4B8C918583A091C641B0E04A
S11360D0A457BF4B8C918483138680916A41882393
S11360E009F4EBC08C2F0E947B2AE7C0E1ECF0E4BA
S11360F0138212828AE081838AE38083A091004222
S1136100B0910142A457BF4B8C918F5F8783A091BC
S11361106643B0916743A457BF4B8C918683A0918B
S11361202242B0912342A457BF4B8C918583A09106
S1136130E341B091E441A457BF4B8C918483A09177
S11361406042B0916142A457BF4B8C918387809188
S11361506A41882309F4B1C08C2F0E943223ADC058
S1136160E1ECF0E486EB83838AE182838AEF818326
S113617080E6808320911142309112423323FCF057
S11361801782C90164E670E00E94A943DB01A457A9
S1136190BF4B4C9146830AE010E0B8010E94A9432A
S11361A0DB01A457BF4B8C918583C901B8010E94C0
S11361B0A943DC01A457BF4B8C9184833BC0219538
S11361C0A1ECB0E482E017968C93179789E2289F9C
S11361D0812D112482958F70E82FF0E0E457FF4B56
S11361E0908116969C931697E22F34E6839FE019CC
S11361F011248DECE89FE12D1124E695E695E695B2
S1136200F0E0E457FF4B908115969C931597289FD7
S1136210812D1124869586958695880F982F990F40
S1136220990F890F281BE22FF0E0E457FF4B808180
S113623014968C931092CC4080916A418823E9F1A2
S11362408C2F0E94EC2839C0E1ECF0E480E68383D3
S11362508CEE828382E0818386EB8083A09162410D
S1136260B0E0A457BF4B8C918783A0915542B0E016
S1136270A457BF4B8C918F5F8683A0916341B0E09C
S1136280A457BF4B8C918583A0913941B0E0A457AA
S1136290BF4B8C918483A0911042B0E0A457BF4BB4
S11362A08C91838780916A41882339F08C2F0E94D6
S11362B0E32003C0D1E001C0D6E00E9464128091C3
S11362C0694181115ACEDF91CF911F910F91FF90B7
S11362D0EF90DF90CF90BF90AF909F908F907F9082
S11362E06F905F904F903F900895CF9310926A41C2
