S01400005069675F5363616C65732D322E73726563D7
S11306000C941E040C943D040C943D040C943D0481
S11306100C943D040C943D040C943D040C943D0452
S11306200C943D040C943D040C943D040C943D0442
S11306300C943D040C943D040C943D040C943D0432
S11306400C943D040C943D040C943D040C943D0422
S11306500C943D040C943D040C943D040C943D0412
S11306600C943D040C943D040C943D040C943D0402
S11306700C943D040C943D040C943D040C944A04E5
S11306800C943D040C943D040C943D040C943D04E2
S11306900C943D040C943D040C943D040C943D04D2
S11306A00C943D040C943D040C943D040C94FC16F1
S11306B00C943D040C943D040C94A2040C943D044D
S11306C00C943D040C943D040C943D040C943D04A2
S11306D00C9476040C943D040C943D040C943D0459
S11306E00C943D040C943D040C943D040C943D0482
S11306F00C943D040C943D040C943D040C943D0472
S1130700320FBF0ED70EEE0E040F1A0F300F8E28C5
S113071056278527B527E3271C2852288C28022929
S113072006290A290E29142918291C29DE29482AF0
S1130730B12A192B832BED2B542C6E616E00696E3C
S1130740660000407A10F35A00A0724E1809001097
S1130750A5D4E80000E87648170000E40B54020032
S113076000CA9A3B000000E1F5050000809698005D
S1130770000040420F000000A08601000000102786
S113078000000000E8030000000064000000000016
S11307900A00000000000100000000002C76D88848
S11307A0DC674F0823DFC1DFAE59E1B1B796E5E35B
S11307B0E453C63AE651997696E8E6C28426EB8974
S11307C08C9B62ED407C6FFCEFBC9C9F40F2BAA511
S11307D06FA5F490055A2AF75C936B6CF9676DC1A9
S11307E01BFCE0E40D47FEF520E6B500D0ED902EAD
S11307F00300943577050080841E080000204E0A0B
S1130800000000C80C333333330F986E1283114148
S1130810EF8D2114893BE65516CFFEE6DB18D18413
S11308204B381BF77C1D901DA4BBE424203284723A
S11308305E228100C9F124ECA1E53D2711241FBEED
S1130840CFEFCDBFDFE7DEBF11E4A0E0B0E4E8EF17
S1130850FEE700E00BBF02C007900D92AE36B10771
S1130860D9F722E5AEE6B1E401C01D92AA38B20779
S1130870E1F70E94A3100C947A3F0C9400030E94A9
S113088092120895E4E0F4E0908192609083809362
S11308905D5108951F920F920FB60F9211240BB65B
S11308A00F928F939F93EF93FF9380912408882353
S11308B0E4F78091E350E82FF0E090912008E851AC
S11308C0FF4A9083893110F01092E3508091E350F5
S11308D08F5F8093E350FF91EF919F918F910F90E1
S11308E00BBE0F900FBE0F901F9018951F920F9282
S11308F00FB60F9211240BB60F928F939F93EF9321
S1130900FF93809164088823E4F780916651E82F6F
S1130910F0E090916008E358FE4A90838A3F10F01B
S113092010926651809166518F5F80936651FF915A
S1130930EF919F918F910F900BBE0F900FBE0F9070
S11309401F9018951F920F920FB60F9211240BB699
S11309500F922F933F934F935F936F937F938F9354
S11309609F93AF93BF93EF93FF9381E080934B0AE0
S11309700E9448050E94EC0580912951811105C00F
S1130980E3E4F1E51182128205C0E9E2F1E5808138
S11309908150808380915D51811106C0E4E0F4E0D0
S11309A080818D7F808303C0815080935D51E9E213
S11309B0F1E5818192810196818392838181928183
S11309C0803D974028F0E8E0F1E510821182128220
S11309D0E9E2F1E583819481019683839483809194
S11309E015518F5F80931551833348F081E09091C6
S11309F06F51911180E080936F5110921551FF91C6
S1130A00EF91BF91AF919F918F917F916F915F9182
S1130A104F913F912F910F900BBE0F900FBE0F90EF
S1130A201F901895CF93C82F80914251813019F4AB
S1130A308C2F0E94932C80914251833019F48C2F77
S1130A400E94A82C80E090E0CF9108958EE08093DE
S1130A5000048DE08093200485E580934004109287
S1130A606004109280048CE08093A00487EF80934C
S1130A70C0041092040410922404109244041092AE
S1130A806404109284041092A4041092C40408957F
S1130A9032E02FC0E4ECF4E080818D7F808380918C
S1130AA0704194E03902F0011124EF58FE4BE80F35
S1130AB0F11D808190E0022E02C0959587950A94DD
S1130AC0E2F780FF06C0E4ECF4E080818460808378
S1130AD005C0E4ECF4E080818B7F8083E4ECF4E0F7
S1130AE08081826080832F5F01C020E0283090F2F3
S1130AF031503323D4F7E4ECF4E0808181608083C7
S1130B0080818E7F8083809170418130A9F028F0AC
S1130B10823009F1833071F13BC0E4ECF4E0808170
S1130B208F7E808380818F7D808380818F7B808393
S1130B308081806880832CC0E4ECF4E080818F7E27
S1130B40808380818F7D80838081806480838081A5
S1130B508F7780831DC0E4ECF4E080818F7E8083F6
S1130B6080818062808380818F7B808380818F7786
S1130B7080830EC0E4ECF4E0808180618083808116
S1130B808F7D808380818F7B808380818F7780833A
S1130B90809170418F5F80937041843010F0109287
S1130BA07041089516C0E82FF0E0A42FB0E0A55CD2
S1130BB0BE4B2C91EE0FFF1FEE0FFF1FEF58FE4BA5
S1130BC0E90FF11D20839F5F01C090E0943058F33A
S1130BD08F5F6817D0F70895809144518111CDC07B
S1130BE08091080484FD0FC08AE090E00E944204D2
S1130BF0E3E4F1E581E08283818310922A5110922B
S1130C002B51109204518091080485FD10C08AE094
S1130C1090E00E944204E3E4F1E582E0828381E013
S1130C20818310922A5110922B5110920451809179
S1130C30080486FD10C08AE090E00E944204E3E4C8
S1130C40F1E583E0828381E0818310922A5110923E
S1130C502B511092045180910804882384F08AE077
S1130C6090E00E944204E3E4F1E584E0828381E0C1
S1130C70818310922A5110922B5110920451809129
S1130C804551843051F480910851882319F0109211
S1130C90085103C081E08093085180910851882352
S1130CA091F080914551823071F480910B51811102
S1130CB00AC080910951882319F01092095103C088
S1130CC081E08093095180910851811117C080916E
S1130CD00A51811113C080914551823079F4809179
S1130CE00C51882319F010920C5108C081E08093B4
S1130CF00C514AE062E082E00E94D20580910851E2
S1130D00882369F080914551823049F480910B51D8
S1130D10882329F0E3E4F1E580818F5F808380916B
S1130D20085181110BC080914551813039F4809173
S1130D300A51811103C081E080930A51E3E4F1E593
S1130D4093818281981311C080914751823020F0A1
S1130D5084E180932951089582E380932951E3E447
S1130D60F1E584818F5F8483089582E38093295120
S1130D70E3E4F1E58281838314820895CF92DF92C4
S1130D80EF92FF9280E090E00E94A51280933F5181
S1130D9081508C3340F081E080933F5161E080E0EA
S1130DA090E00E94C71281E090E00E94A512809317
S1130DB0495181508C3340F081E08093495161E086
S1130DC081E090E00E94C71282E090E00E94A512A8
S1130DD080933551803240F081E08093355161E059
S1130DE082E090E00E94C71283E090E00E94A51286
S1130DF08093E2508D3340F081E08093E25061E0D3
S1130E0083E090E00E94C71284E090E00E94A51263
S1130E10809372518150843040F082E0809372510B
S1130E2062E084E090E00E94C71288E090E00E94B3
S1130E30AF12A0E0B0E080935F5190936051A09313
S1130E406151B093625184569109A109B109853861
S1130E509340A105B10590F084E690E0A0E0B0E0F5
S1130E6080935F5190936051A0936151B09362510C
S1130E7064E670E088E090E00E94EA128CE090E082
S1130E800E94BA120E9496356B017C0160934B510B
S1130E9070934C5180934D5190934E5120E038EC17
S1130EA04FEA57E40E948636181654F020E030E4E6
S1130EB04CE156E4C701B6010E94E9348823A4F446
S1130EC080E090E4ACE1B7E480934B5190934C51B3
S1130ED0A0934D51B0934E5140E45CE960E070E062
S1130EE08CE090E00E9407138AE090E00E94AF1229
S1130EF080930151909302510A978730974260F092
S1130F0084EF91E0809301519093025164EF71E07A
S1130F108AE090E00E94EA1285E090E00E94A51227
S1130F20809370518150843640F081E080937051F9
S1130F3061E085E090E00E94C71286E090E00E94A4
S1130F40A51280934A518150843640F081E0809309
S1130F504A5161E086E090E00E94C71287E090E089
S1130F600E94A51280937C51833038F010927C51FA
S1130F7060E087E090E00E94C7120E94BC28809144
S1130F802E518C3328F060E080E00E94F728FFCFD8
S1130F908091345181111CC066E186E00E94F728DB
S1130FA069E085E00E94F72864E184E00E94F72864
S1130FB063E083E00E94F7286CE082E00E94F72857
S1130FC060E081E00E94F72860E080E00E94F7285A
S1130FD0FF90EF90DF90CF9008958FE090E00E9413
S1130FE0420426E686E695E0215080409040E1F7F1
S1130FF08FE090E00E94420426E686E695E02150C8
S113100080409040E1F78FE090E00E944204089510
S1131010CF93DF93C1E7D1E41F82E091705189E25D
S1131020E89F812D112482958F70A82FB0E0A55CD4
S1131030BE4B9C919E83AE2F94E6899FA0191124E8
S11310408DECA89FA12D1124A695A695A695B0E098
S1131050A55CBE4B9C919D83E89F812D11248695B0
S113106086958695880F982F990F990F890FE81BFD
S1131070F0E0E55CFE4B80818C83DF91CF91089595
S1131080CF93DF93C1E7D1E41B86E0914A5189E213
S1131090E89F812D112482958F70A82FB0E0A55C64
S11310A0BE4B9C919A87AE2F94E6899FA019112478
S11310B08DECA89FA12D1124A695A695A695B0E028
S11310C0A55CBE4B9C919987E89F812D1124869540
S11310D086958695880F982F990F990F890FE81B8D
S11310E0F0E0E55CFE4B80818887DF91CF91089525
S11310F06F927F928F929F92AF92BF92CF92DF9224
S1131100EF92FF920F931F93CF93DF930E94901956
S1131110EC016C01E12CF12C80911F519091205134
S1131120A0912151B0912251C114D104E104F104E0
S113113009F404C24C015D0122E3821A9108A1085A
S1131140B10831E0AC01BD014E5C5F4F6F4F7F4F82
S11311504C155D056E057F0508F430E021E0C814E8
S1131160D904EA04FB0408F420E0232309F4B3C1FE
S11311701F921F92DF92CF9288E490E49F938F9303
S11311800E94943D1092045180910C510F900F9045
S11311900F900F900F900F90811104C080917C519B
S11311A0882329F0809148518F5F80934851809122
S11311B04851853009F07AC14AE061E081E00E943B
S11311C0D20580910C51811105C080917C518823F6
S11311D009F46AC180911651811166C18091A541BB
S11311E0833220F48F5F8093A54102C01092A54101
S11311F0809157518F5F8093575190E08C010A552D
S11312001E4B20917C51F8012083FC01EA56FF4FCC
S1131210EE0FFF1FEA55FE4B808391834E01A12CF4
S1131220B12C0F2EF6E16F2EF1E57F2EF02DF30198
S113123081829282A382B482FC01EE53FE4FEE0FB0
S1131240FF1FEA55FE4BC083D183F801E452FA4FE5
S1131250809170518083E45DFE4F80914A51808378
S113126086E00E94AD28F801EC5CF74F8083009182
S1131270575110E085E00E94AD28F801EA5FF44B75
S113128080830091575110E084E00E94AD28F8015A
S1131290EE5CF34B80830091575110E082E00E9492
S11312A0AD28F801E25AF24B80830091575110E0C7
S11312B081E00E94AD28F801E657F14B808300914C
S11312C0575110E080E00E94AD28F801EA54F04B39
S11312D080838091A54190E09C01220F331F820FEF
S11312E0931F880F991F880F991F60917C518096D6
S11312F00E94C7128091A54190E09C01220F331FE8
S1131300820F931F880F991F880F991F609157515F
S113131070E044960E94EA12F30181829282A382D1
S1131320B4828091A54190E09C01220F331F820F6B
S1131330931F880F991F880F991FBE0148960E941A
S1131340EA128091A54190E09C01220F331F820F85
S1131350931F880F991F880F991F609170514696AB
S11313600E94C7128091A54190E09C01220F331F77
S1131370820F931F880F991F880F991F60914A51FC
S113138047960E94C71286E00E94AD28682F2091DC
S1131390A54130E0C901880F991F280F391FC901E1
S11313A0880F991F880F991F4A960E94C71285E0DB
S11313B00E94AD28682F2091A54130E0C901880F13
S11313C0991F280F391FC901880F991F880F991F6A
S11313D04B960E94C71284E00E94AD28682F20918A
S11313E0A54130E0C901880F991F280F391FC90191
S11313F0880F991F880F991F4C960E94C71282E08C
S11314000E94AD28682F2091A54130E0C901880FC2
S1131410991F280F391FC901880F991F880F991F19
S11314204D960E94C71281E00E94AD28682F20913A
S1131430A54130E0C901880F991F280F391FC90140
S1131440880F991F880F991F4E960E94C71280E03B
S11314500E94AD28682F2091A54130E0C901880F72
S1131460991F280F391FC901880F991F880F991FC9
S11314704F960E94C71281E0F301808310920C51B1
S11314800E94ED071F921F92DF92CF9288E490E4AE
S11314909F938F930E94943D0E94C2170F900F90C8
S11314A00F900F900F900F900E944008CE01A0E083
S11314B0B0E0E6E1F1E581879287A387B487818371
S11314C09283A383B4838081811102C00E94C217D6
S11314D01092645157C0AC01BD014A565F4F6F4F23
S11314E07F4F86599109A109B10931E04C155D0579
S11314F06E057F0508F430E021E0C816D906EA0637
S1131500FB0608F420E02323E9F1CE01A0E0B0E0DB
S1131510C6E1D1E589879A87AB87BC8789839A839B
S1131520AB83BC830E9408088881811102C00E9499
S1131530C217109264511092485124C08091645192
S11315408F5F809364518630E8F0E6E1F1E511861F
S1131550128613861486CE01A0E0B0E081839283C4
S1131560A383B4830E94C2170E94080880910C517F
S1131570811102C00E9440081092165110926451C9
S113158010924851DF91CF911F910F91FF90EF90EE
S1131590DF90CF90BF90AF909F908F907F906F908F
S11315A008951F93CF93DF93CDB7DEB76E97CDBF6A
S11315B0DEBF8EE1FE013196DF01982F1D929A95D0
S11315C0E9F7DF011D928A95E9F78091575190E080
S11315D020916E4130916F412817390738F42F5FFD
S11315E03F4F20936E4130936F4104C010926E417F
S11315F010926F4180EF898385E18B838091E25063
S11316008C838CE28E83809149518F8380916E41CB
S113161090916F41FC01EA55FE4B2081298722E01D
S11316202A87DC01AA56BF4FAA0FBB1FAA55BE4B7F
S11316302C9111963C913B872C87DC01AE53BE4F15
S1131640AA0FBB1FAA55BE4B2C9111963C913D8706
S11316502E87DF01A452BA4F2C912F87A45DBE4F71
S11316602C91288BA45DBE4F2C91298BA45DBE4F79
S11316702C912A8BA45DBE4F2C912B8BA45DBE4F65
S11316802C912C8BA45DBE4F2C912D8BE05FF14FE0
S113169020812E8B9F8B888F81E090E009C0E1E050
S11316A0F0E0EC0FFD1FE80FF11D2081920F8F5F1A
S11316B08C31A8F39D8F81EF8E8F10E00AC0E1E09A
S11316C0F0E0EC0FFD1FE10FF11D80810E94A82CBA
S11316D01F5F1E31A0F36E96CDBFDEBFDF91CF91A9
S11316E01F9108951F93CF93DF93CDB7DEB72A9749
S11316F0CDBFDEBF9AE0FE013196DF01292F1D9296
S11317002A95E9F7DF011D929A95E9F790EF9983FD
S113171095E19B839091E2509C838D838CE28E8330
S1131720809149518F8381E090E009C0E1E0F0E0CD
S1131730EC0FFD1FE80FF11D2081920F8F5F8830A1
S1131740A8F3998781EF8A8710E00AC0E1E0F0E00E
S1131750EC0FFD1FE10FF11D80810E94A82C1F5F7B
S11317601A30A0F32A96CDBFDEBFDF91CF911F912F
S11317700895EF92FF920F931F93CF93DF93C0E0EE
S113178063C10C2F10E0F801E358FE4A8081803FCA
S113179009F052C0F801E258FE4A9081913009F0F4
S11317A04BC0F801E158FE4A9081913009F044C0E1
S11317B0F801EF57FE4A908191113EC0F801EA57B3
S11317C0FE4A9081913FC1F5E4E2F4E080818860B3
S11317D0808390E081E008C0F801E80FF11DE35830
S11317E0FE4A2081920F8F5F8830B0F3F801EB57E7
S11317F0FE4A8081981318C0F801E058FE4A90818F
S11318008091E250981310C0C4E2D4E088818460CF
S113181088830E94D10A8CEC9CE10197F1F700C007
S1131820000088818B7F88830E94CF2CE4E2F4E05F
S11318308081877F80830BC1803F09F0A1C0F801BC
S1131840E258FE4A9081913009F09AC0F801EF57AE
S1131850FE4A9081993009F093C0F801E457FE4A9A
S11318609081913F09F08CC0E4E2F4E080818860CB
S1131870808390E081E008C0F801E80FF11DE3588F
S1131880FE4A2081920F8F5F8E30B0F3F801E55746
S1131890FE4A808198136CC0F801EB57FE4A8081A0
S11318A0982F92959F70990F692F660F660F960F68
S11318B08F70692F680F86E00E94F728F801EA57B5
S11318C0FE4A8081982F92959F70990F692F660F19
S11318D0660F960F8F70692F680F85E00E94F728B6
S11318E0F801E957FE4A8081982F92959F70990FCD
S11318F0692F660F660F960F8F70692F680F84E04B
S11319000E94F728F801E857FE4A8081982F9295A3
S11319109F70990F692F660F660F960F8F70692F4E
S1131920680F82E00E94F728F801E757FE4A808199
S1131930982F92959F70990F692F660F660F960FD7
S11319408F70692F680F81E00E94F728F801E6572D
S1131950FE4A8081982F92959F70990F692F660F88
S1131960660F960F8F70692F680F80E00E94F7282A
S11319700E94CF2CE4E2F4E08081877F808367C0FB
S1131980803F09F060C0F801E258FE4A808181304E
S113199009F059C0F801E158FE4A8081813009F00C
S11319A052C0780194E0E90EF11CF701E358FE4AB5
S11319B08081873009F047C0F801E456FE4A8081EF
S11319C0813F09F040C0E4E2F4E0808188608083D4
S11319D090E081E008C0F801E80FF11DE358FE4AE9
S11319E02081920F8F5F8E31B0F3F801E556FE4AE5
S11319F08081981328C060E070E0F801E058FE4A46
S1131A0090818091E25098131EC0609301517093AD
S1131A1002518AE090E00E94EA1204E214E0F80124
S1131A20808184608083F701E358FE4A80810E94AC
S1131A30720B8CEC9CE10197F1F700C00000F801F7
S1131A4080818B7F8083CF5FCA3F08F49ACEDF9179
S1131A50CF911F910F91FF90EF90089580912C5199
S1131A6090912D51883E934008F479C010922C51E6
S1131A7010922D510E94BC28EEE2F1E58781648129
S1131A80861709F462C06093355182E090E00E94A9
S1131A90C7128CE291E0E6EAF1E4DF019C011D92B9
S1131AA021503040E1F7E2EDF2E4DF019C011D92A8
S1131AB021503040E1F7EAE2F5E4DF019C011D9298
S1131AC021503040E1F7E2E8F7E4DF019C011D9288
S1131AD021503040E1F7EEEAF8E4DF019C011D9269
S1131AE021503040E1F7EAEDF9E4DF019C011D9259
S1131AF021503040E1F7E6E0FBE4DF019C011D9258
S1131B0021503040E1F7E2E3FCE4DF019C011D9247
S1131B1021503040E1F7EEE5FDE4DF019C011D9228
S1131B2021503040E1F7EAE8FEE4DF019C011D9218
S1131B3021503040E1F7E6EBFFE4DF019C011D9208
S1131B4021503040E1F710925751809104518F5F3A
S1131B50809304518B3018F08AE0809304510895E7
S1131B60CF92DF92EF92FF9220E836E948E15BE4FE
S1131B7060914B5170914C5180914D5190914E51C7
S1131B800E94EE3420E030E040E85EE30E948B36B1
S1131B9020E030E040E053E40E948B369B01AC012E
S1131BA00E947D3420E030E040E05BE40E948B360C
S1131BB06B017C0120915F513091605140916151E2
S1131BC050916251A8EEB3E00E94053B0E94963505
S1131BD09B01AC01C701B6010E94EE346B017C018C
S1131BE06091725170E080E090E00E9498359B0112
S1131BF0AC01C701B6010E94EE3460932351709387
S1131C0024518093255190932651FF90EF90DF90BB
S1131C10CF9008954AE062E080E00E94D2050E94DD
S1131C20BE0686E69EE00197F1F700000E94B00D23
S1131C3086E69EE00197F1F700000E944D1986E6C2
S1131C409EE00197F1F700000E944D190E94ED07F4
S1131C501092165110920451E8E0F1E510821182BD
S1131C6013821282109243514CE062E080E00E94A1
S1131C70D2050895A89508953CC0809144518823C5
S1131C8069F080914551813019F480937C5106C0EC
S1131C9080914551833011F410927C5180917C5194
S1131CA0882399F080916F51882331F04CE061E0F2
S1131CB081E00E94D2051BC0E1E7F1E4178216829D
S1131CC08CEF85838CEE848312C080916F518823BE
S1131CD031F04CE061E081E00E94D20508C0E1E708
S1131CE0F1E417828CEF86838EE8858384830E94D7
S1131CF03A0E80910851882321F080910951811175
S1131D00BCCF60917C5187E090E00E94C712089597
S1131D10CF93109209514CE062E080E00E94D2051A
S1131D20C1E0A3C080914451882399F0809145512A
S1131D30813031F4C63020F4CF5F1092455109C090
S1131D4080914551833029F4CC2319F0C15010926D
S1131D504551E1E7F1E4138612861186AC2FB0E019
S1131D60A55CBE4B8C9180878C2F90E087309105C9
S1131D7008F079C0FC01E058FC4F0C94ED3AE1E71F
S1131D80F1E48AEF838388E382838EE181839AE39B
S1131D909083178296EB96839EED9583848380913E
S1131DA00951882309F45FC00E943C0E5CC0E1E73E
S1131DB0F1E48AE183838EED828390E691839083BC
S1131DC0178296EB968385838EE1848380910951F3
S1131DD0882309F448C00E94BF2545C0E1E7F1E427
S1131DE0138286EF82838AEF81838EE18083178258
S1131DF096EB96839EED9583848380910951882385
S1131E0091F10E94DD132FC0E1E7F1E413828AED22
S1131E1082838EE381838EED8083178296EB968393
S1131E2085838EE18483809109518823E1F00E94A7
S1131E30193319C0E1E7F1E413828AE082838EE169
S1131E4081839AE19083178296EB96839EED958326
S1131E50848380910951882331F00E94252903C08D
S1131E60C1E001C0C5E00E943A0E80910851811181
S1131E7059CF0E940A0ECF910895CF93DF932FEF8D
S1131E808FE796E1215080409040E1F700C00000C8
S1131E9043C180910A51813009F09DC08091445121
S1131EA0882341F180914551813051F480917051E2
S1131EB0843630F48F5F80937051109245511AC06C
S1131EC080914551833051F480917051823030F0CB
S1131ED0815080937051109245510CC080914551AE
S1131EE0823041F4E8E0F1E582818F5F82831482DD
S1131EF01092455180916F51882331F04CE061E09C
S1131F0081E00E94D20533C0C1E7D1E41F82E09191
S1131F10705189E2E89F812D112482958F70A82F3A
S1131F20B0E0A55CBE4B9C919E83AE2F24E6829FBD
S1131F30A01911248DECA89FA12D1124A695A69576
S1131F40A695B0E0A55CBE4B9C919D83E89F812D36
S1131F501124869586958695880F982F990F990F49
S1131F60890FE81BF0E0E55CFE4B80818C83C1E7C0
S1131F70D1E41B86E0914A5189E2E89F812D112426
S1131F8082958F70A82FB0E0A55CBE4B9C919A8778
S1131F90AE2F94E6899FA01911248DECA89FA12D42
S1131FA01124A695A695A695B0E0A55CBE4B9C9180
S1131FB09987E89F812D1124869586958695880FAB
S1131FC0982F990F990F890FE81BF0E0E55CFE4B01
S1131FD0808188879FC080910A51823009F09AC01D
S1131FE080914451882331F180914551813051F4DD
S1131FF080914A51843630F48F5F80934A51109215
S1132000455118C080914551833051F480914A5113
S1132010823030F0815080934A51109245510AC069
S113202080914551823031F4E8E0F1E51282148266
S11320301092455180916F51882331F04CE062E059
S113204082E00E94D20533C0C1E7D1E41B86E0914F
S11320504A5189E2E89F812D112482958F70A82F1F
S1132060B0E0A55CBE4B9C919A87AE2F24E6829F7C
S1132070A01911248DECA89FA12D1124A695A69535
S1132080A695B0E0A55CBE4B9C919987E89F812DF5
S11320901124869586958695880F982F990F990F08
S11320A0890FE81BF0E0E55CFE4B80818887C1E77F
S11320B0D1E41F82E091705189E2E89F812D1124BF
S11320C082958F70A82FB0E0A55CBE4B9C919E8337
S11320D0AE2F94E6899FA01911248DECA89FA12D01
S11320E01124A695A695A695B0E0A55CBE4B9C913F
S11320F09D83E89F812D1124869586958695880F6A
S1132100982F990F990F890FE81BF0E0E55CFE4BBF
S113211080818C830E943A0E80910A518111B9CE3C
S113212010920A516091705185E090E00E94C712AC
S113213060914A5186E090E00E94C7120E94ED0728
S1132140DF91CF9108950E943F040E94260560E02C
S113215070E082E195E00E940D3D81E08093425160
S11321602FEF8FE392E0215080409040E1F700C0D0
S113217000008BEF90E40E94A83D85E590E40E9466
S1132180A83D1F9284E08F931F928F938CE890E474
S11321909F938F930E94943D86EC90E40E94A83D07
S11321A08DEF90E49F938F9386E091E49F938F93B8
S11321B082E191E49F938F930E94943D85E590E49E
S11321C00E94A83D8BEF90E40E94A83D78940E9461
S11321D0ED07E4E2F4E08081877F808380818B7F58
S11321E08083E1E7F1E4138287E6828386E68183D4
S11321F01082AFEFBFEF2CE2A150B0402040E1F7D6
S113220000C000000E943A0E85E080936351109252
S1132210045110927F520E94BE068DB79EB70C9651
S11322208DBF9EBFB1C00E94BC28CEE2D1E5AE8175
S11322308DECA89F912D1124969596959695E92F4E
S1132240F0E0E55CFE4B2081E1E7F1E42383990FA4
S1132250292F220F220F920FA91BB0E0A55CBE4BC1
S11322609C9192834D81489F912D1124969596952A
S11322709695292F30E0255C3E4BD9012C91218382
S1132280990F292F220F220F920FA42FA91BB0E020
S1132290A55CBE4B9C9190834C81489F912D112449
S11322A0969596959695292F30E0255C3E4BD9015D
S11322B02C912783990F292F220F220F920FA42FDD
S11322C0A91BB0E0A55CBE4B9C9196834A81489FB4
S11322D0912D1124969596959695292F30E0255C9D
S11322E03E4BD9012C912583990F292F220F220FC0
S11322F0920FA42FA91BB0E0A55CBE4B9C919483C4
S11323004981489F912D1124969596959695292F4C
S113231030E0255C3E4BD9012C912387990F292F5E
S1132320220F220F920FA42FA91BB0E0A55CBE4B75
S11323309C9192879881989F812D112486958695EA
S11323408695A82FB0E0A55CBE4B2C912187880F01
S1132350282F220F220F820FA92FA81BB0E0A55C03
S1132360BE4B8C91808780917F52981769F090932F
S11323707F528AE090E00E9442040E943A0E8091CB
S113238063518150809363518091635181114BCF8C
S11323900E940A0E0E943A0E0E9478088091085109
S11323A081110E94880E80910A5181110E943D0F73
S11323B00E94B90B0E942E0DBFEF2FE382E0B150B3
S11323C020408040E1F700C000000E943A0EE4CFB4
S11323D01092890080E0089543E068ED80E690E083
S11323E00E94A8288091630080FDFCCF80E00895BE
S11323F080E008C0E82FF0E0E05FFB4F9081986038
S113240090838F5F8830B0F380E008C0E82FF0E05D
S1132410E05DFB4F9081986090838F5F8830B0F3CC
S113242080E008C0E82FF0E0E05BFB4F908198600B
S113243090838F5F8830B0F380E008C0E82FF0E02D
S1132440E059FB4F9081986090838F5F8830B0F3A0
S113245080E008C0E82FF0E0E057FB4F90819860DF
S113246090838F5F8830B0F380E008C0E82FF0E0FD
S1132470E055FB4F9081986090838F5F8830B0F374
S113248080E008C0E82FF0E0E053FB4F90819860B3
S113249090838F5F8830B0F3089585B3877F85BBC1
S11324A084B3886084BBE3EBF4E08081877F80831E
S11324B080818F7780838081887F808385B38B7FC1
S11324C085BB84B3846084BBE2EBF4E08081877FC6
S11324D0808380818F7780838081887F80830E943E
S11324E066160895E0EEF5E082818B7F8283E0E456
S11324F0F4E080818160808380818D7F80830E946D
S1132500872C0895E0EEF5E082818F7B8283E0E200
S1132510F4E080818160808380818D7F80830E944C
S11325209C2C08950E94F8110E94EC110E947212D2
S11325300E9482120E94792C0E947B2C0E94E81136
S11325400E94D92C0E944D120895811522E0920711
S113255010F08FEF91E0FC01FC5E808108958F3FC5
S113256021E0920710F08EEF91E0FC01FC5E808187
S1132570918108958D3F21E0920710F08CEF91E056
S1132580FC01FC5E608171818281938108951F93B7
S1132590CF93DF939C01211582E03807B0F490912A
S11325A002109370E1F7162FE90143E16DE980E031
S11325B090E10E94A828DC5E188340E06DE980E089
S11325C090E10E94A82881E001C080E0DF91CF91D2
S11325D01F910895CF92DF92EF92FF92CF93DF93F2
S11325E08F3F21E0920758F4EC016B010E94C7125F
S11325F06D2DCE0101960E94C71281E001C080E0DA
S1132600DF91CF91FF90EF90DF90CF900895FF92EC
S11326100F931F93CF93DF938D3F21E09207C0F474
S1132620172F062FF52E642FEC010E94C7126F2D71
S1132630CE0101960E94C712602FCE0102960E941D
S1132640C712612FCE0103960E94C71281E001C018
S113265080E0DF91CF911F910F91FF9008954CE09E
S113266062E080E00E94D20542C0E1E7F1E48EEB33
S1132670838382E082838AE281838AE38083209158
S11326803F518DEC289F812D112486958695869542
S1132690A82FB0E0A55CBE4B9C919583880F982F22
S11326A0990F990F890FA22FA81BB0E0A55CBE4B10
S11326B08C918483809144518823B9F08091455151
S11326C0813041F42C3330F42F5F20933F5110922A
S11326D045510BC080914551833039F4223028F0A4
S11326E0215020933F51109245510E943A0E8091FF
S11326F00851882321F0809109518111B6CF60914E
S11327003F5180E090E00E94C71208954CE062E0DF
S113271080E00E94D20542C0E1E7F1E48EEB8383BE
S113272082E0828380E681838AE780832091495115
S11327308DEC289F812D1124869586958695A82F4A
S1132740B0E0A55CBE4B9C919583880F982F990FA0
S1132750990F890FA22FA81BB0E0A55CBE4B8C91EA
S11327608483809144518823B9F08091455181300C
S113277041F42C3330F42F5F20934951109245518A
S11327800BC080914551833039F4223028F0215018
S113279020934951109245510E943A0E809108515C
S11327A0882321F0809109518111B6CF609149515C
S11327B081E090E00E94C7120895CF9310920951CE
S11327C04CE062E080E00E94D205C1E08BC08091C1
S11327D04451882399F080914551813031F4C330BC
S11327E020F4CF5F1092455109C080914551833048
S11327F029F4CC2319F0C15010924551EC2FF0E08C
S1132800E55CFE4B808180937941C13041F008F44E
S113281066C0C23099F1C33009F45FC061C0E1E71A
S1132820F1E48EEB838382E082838AE281838AE30C
S113283080831782168240913F518DEC489F812DF1
S11328401124869586958695282F30E0255C3E4B8D
S1132850D9019C919583880F982F990F990F890F0F
S1132860A42FA81BB0E0A55CBE4B8C9184838091FF
S113287009518823A9F10E942F1332C0E1E7F1E442
S11328808EEB838382E0828380E681838AE7808380
S113289017821682409149518DEC489F812D112455
S11328A0869586958695282F30E0255C3E4BD90188
S11328B09C919583880F982F990F990F890FA42FB6
S11328C0A81BB0E0A55CBE4B8C9184838091095118
S11328D0882331F00E94861303C0C1E001C0C2E026
S11328E00E943A0E80910851811171CFCF910895C1
S11328F0E0E2F9E084818860848385818160858356
S1132900EDE7F1E480818E7F808313868EE0089565
S1132910EDE7F1E480818E7F8083138680E0089563
S1132920E0E2F9E08481836084830E94881408953E
S1132930EDE7F1E4808188608083818190E0880FF5
S1132940991F81608093270984E008950E94981458
S113295008950E9498140895EDE7F1E48081886059
S113296080838181880F8093270983E008950E94E2
S1132970AC140895ADE7B1E48C91877F8C9382E029
S11329801B968C931B975096ED91FC9151975C96F6
S11329908D919C915D970995823019F0833021F0D7
S11329A006C00E94A91408950E94B71408950E94B5
S11329B090140895E0E2F9E084818B7F848384E0BD
S11329C00895E0E2F9E084818B7F848383E00895B5
S11329D0E0E2F9E084818460848384818360848379
S11329E00E9488140895E0E2F9E08481846084837D
S11329F088E008958091250984FF19C0ADE7B1E40A
S1132A005296ED91FC9153975E968D919C915F97B0
S1132A100995823019F0833021F006C00E94A91470
S1132A2008950E94B71408950E9490140895EDE744
S1132A30F1E48081877F8083A281B381CD010196F7
S1132A40828393838C918093280984819581019753
S1132A5084839583892B11F083E0089585E008959C
S1132A60CF93DF93EDE7F1E48081877F80838481D6
S1132A709581019731F4E0E2F9E0848184608483F4
S1132A8005C0E0E2F9E084818B7F8483EDE7F1E423
S1132A9084819581019784839583892BA9F0DF0133
S1132AA0C281D381E0E2F9E08085888312968D911A
S1132AB09C911397019612968D939C9313978481FE
S1132AC08260848384E026C0ADE7B1E41296ED9180
S1132AD0FC91139780912809808312968D919C9183
S1132AE01397019612968D939C9313978C918460FF
S1132AF08C931C96ED91FC911D9758968D919C9109
S1132B00599709958250823018F40E94F31402C038
S1132B100E94E814DF91CF9108958091250984FFE4
S1132B2019C0ADE7B1E45296ED91FC9153975E96CE
S1132B308D919C915F970995823019F0833021F033
S1132B4006C00E94A91408950E94B71408950E9413
S1132B5090140895ADE7B1E48C9184608C931C9635
S1132B60ED91FC911D9758968D919C9159970995DB
S1132B70833039F0843041F0823049F40E94A91442
S1132B8008950E94B71408950E94FA1408950E94AB
S1132B9090140895E0E2F9E0858188608583ADE7CB
S1132BA0B1E482E01B968C931B971E96ED91FC91E9
S1132BB01F975A968D919C915B970995823019F0D5
S1132BC0833021F006C00E94A91408950E94B7140E
S1132BD008950E9478140895E0E2F9E08481886001
S1132BE08483858181608583EDE7F1E480818E7F34
S1132BF0808382E083878EE00895CF93DF93E0E2C1
S1132C00F9E08581806C858380917D4183FF07C0D5
S1132C108091250984FF03C08FE0809387418091D0
S1132C20250983FF03C080E18093874180912509B2
S1132C3082FF03C081E180938741CDE7D1E4EA8537
S1132C40F0E0EE0FFF1FEA5FFF4B0190F081E02DF3
S1132C5009958A87DF91CF91089581E0089585E0F1
S1132C6008956115710591F090E0FC013696EE0F20
S1132C70FF1FE358FE4B60837183FC013C96EE0F0B
S1132C80FF1FE358FE4B40835183089590E0FC01FD
S1132C903696EE0FFF1FE358FE4B2DE236E12083FC
S1132CA03183FC013C96EE0FFF1FE358FE4B10826C
S1132CB011820895AB01BC0180E00E943116089591
S1132CC0AB01BC0182E00E9431160895E0E2F9E014
S1132CD084E4868381EC8383089590917D4191FD02
S1132CE037C0EDE7F1E48183892F8E7F82609EE017
S1132CF0928724EF31E020873187877F8460808347
S1132D008DE296E184879587108E118E868797874A
S1132D10128E138E808B918B148E158E828B938BD7
S1132D20168E178E8FE296E1848B958B10A211A2DA
S1132D30E0E2F9E084818860848385818160858311
S1132D408581806C85838381806C838380E0089592
S1132D5081E008958091250982FF07C0EDE7F1E441
S1132D6080818E7F808382E0838780917D4180FD96
S1132D7017C0EDE7F1E48D7F80838FEF8183A0E2BC
S1132D80B9E015968C911597806C15968C931597D0
S1132D9013968C9113978F7313968C938385089550
S1132DA081E008959C0190917D4192FF09C0EDE777
S1132DB0F1E42283338364837583892F8B7F80833B
S1132DC0089590917D4190FD11C0EDE7F1E491608B
S1132DD09083882321F081E08093874103C082E0BF
S1132DE0809387410E94FD1580E0089581E0089555
S1132DF080E00E94E11608951F920F920FB60F9281
S1132E0011240BB60F922F933F934F935F936F93BD
S1132E107F938F939F93AF93BF93EF93FF930E94FE
S1132E20FD15FF91EF91BF91AF919F918F917F918C
S1132E306F915F914F913F912F910F900BBE0F9027
S1132E400FBE0F901F90189561E070E00E94D2169B
S1132E5060E070E080E090E00E945A1684E00895FB
S1132E6061E070E00E94D21660E070E080E090E0E3
S1132E700E945A1682E00895FF920F931F93CF93F6
S1132E80DF9300D0CDB7DEB7F82E69834A8300E123
S1132E9017E28F2D0E946D16813019F4015011092B
S1132EA0C1F7012B11F1BE016E5F7F4F84E297E100
S1132EB00E945A1661E070E0CE0101960E94D2167B
S1132EC060E070E080EC97E10E9460160E94F816C2
S1132ED000E117E20E94AA16813019F40150110989
S1132EE0C9F7012B21F482E003C081E001C080E036
S1132EF00F900F90DF91CF911F910F91FF90089544
S1132F00EF92FF921F93CF93DF9300D0CDB7DEB73C
S1132F10182F6A838AE289836894EE24E1F8F12CFD
S1132F2023C0812F0E946D168823D9F3BE016F5FE1
S1132F307F4F80E397E10E945A1661E070E0CE0172
S1132F4002960E94D21660E070E080EC97E10E9445
S1132F5060160E94F8160E94AA168130E1F38823B5
S1132F6031F081E0E81AF108E114F104D1F6898125
S1132F700F900F90DF91CF911F91FF90EF900895E4
S1132F8083E008958F929F92AF92BF92EF92FF9247
S1132F900F931F93CF93DF93C6E1D1E569817A81C3
S1132FA08B819C810F2EF0E18F2EF7E29F2EA12CB6
S1132FB0B12CF02DA50194010E94CE3AE22E20936B
S1132FC0A24169817A818B819C81A50194010E942F
S1132FD0CE3A0F2EF8EE8F2EF3E09F2EA12CB12CBB
S1132FE0F02DA50194010E94CE3AF22E2093735144
S1132FF069817A818B819C81A50194010E94CE3ADA
S11330000F2EF4E68F2E912CA12CB12CF02DA501BE
S113301094010E94CE3A022F2093655169817A81EE
S11330208B819C81A50194010E94CE3A0F2EFAE077
S11330308F2E912CA12CB12CF02DA50194010E946E
S1133040CE3A122F20933E5169817A818B819C81E3
S1133050A50194010E94CE3A60935B5189819A81C3
S1133060AB81BC8181319742A105B10514F1EE2DEC
S1133070F0E0E55CFE4B8081A1E7B1E413968C930C
S11330801397EF2DF0E0E55CFE4B808112968C9354
S11330901297E02FF0E0E55CFE4B80818F5F119684
S11330A08C931197E12FF0E0E55CFE4B80818C93CB
S11330B058C08091175190911851A0911951B09115
S11330C01A51893E9340A105B10514F1EF2DF0E0AA
S11330D0E55CFE4B8081A1E7B1E413968C931397D2
S11330E0E02FF0E0E55CFE4B80818F5F12968C93BD
S11330F01297E12FF0E0E55CFE4B808111968C93F2
S11331001197E62FF0E0E55CFE4B80818C9329C09B
S11331108091175190911851A0911951B0911A5161
S1133120883E9340A105B105E4F4A1E7B1E4139608
S11331301C921397E02FF0E0E55CFE4B80818F5FDB
S113314012968C931297E12FF0E0E55CFE4B8081A0
S113315011968C931197E62FF0E0E55CFE4B80818D
S11331608C93DF91CF911F910F91FF90EF90BF90BF
S1133170AF909F908F9008958F929F92AF92BF923D
S1133180CF92DF92EF92FF92E4E4F4E080818B7FB0
S113319080838091480483FFFCCF90E040E050E0BE
S11331A0BA011DC0E4E4F4E080818460808322E6F7
S11331B02A95F1F70000440F551F661F771F808181
S11331C08B7F808382E68A95F1F700008091480422
S11331D083FD04C04F5F5F4F6F4F7F4F9F5F9831F8
S11331E008F3E4E4F4E080818460808392E69A95B5
S11331F0F1F7000080818B7F80832FEF8FE794E0CD
S1133200215080409040E1F700C000006A017B013A
S113321020E4E22620915F51309160514091615148
S113322050916251A0E1B7E20E94053B80901B518E
S113323090901C51A0901D51B0901E51DC01CB0107
S1133240880D991DAA1DBB1D8C159D05AE05BF05D6
S113325018F4C12CD12C76010E94B00D81E38A951B
S1133260F1F700008090235190902451A0902551B3
S1133270B0902651C701B6010E949835A50194016A
S11332800E94EE340E946035FF90EF90DF90CF9063
S1133290BF90AF909F908F9008950F931F930E94BB
S11332A0BC188B019C0180911B5190911C51A091E1
S11332B01D51B0911E51801B910BA20BB30B18161C
S11332C019061A061B067CF4E6E1F1E545815681F0
S11332D067817085481B590B6A0B7B0B45835683AA
S11332E06783708710C0BB2374F4E6E1F1E5458180
S11332F0568167817085480F591F6A1F7B1F45835C
S1133300568367837087892B8A2B8B2B61F68AE01F
S113331090E00E9442040E943A0E1F910F9108957A
S11333204F925F926F927F928F929F92AF92BF92D1
S1133330CF92DF92EF92FF920F931F93C0901B5195
S1133340D0901C51E0901D51F0901E510E94BC1869
S11333502B013C0120915F513091605140916151AA
S113336050916251A8EEB3E00E94053B4B015C0111
S113337014141504160417040CF081C080911B5119
S113338090911C51A0911D51B0911E519301820145
S1133390081B190B2A0B3B0BC901B8012AE030E0CA
S11333A040E050E00E94CE3ABA01A901440F551FF3
S11333B0661F771FDB01CA01880F991FAA1FBB1F55
S11333C0880F991FAA1FBB1F8A019B01080F191F91
S11333D02A1F3B1FC901B801332314F0109228514E
S11333E099232CF086169706A806B90600F5809155
S11333F028518F5F809328518B3040F00E944D19E3
S11334001092285160E070E0CB0133C015E0C11A7E
S1133410D108E108F108C0921B51D0921C51E092EE
S11334201D51F0921E5160E070E0CB0122C01616CF
S1133430170618061906ECF44090015150900251F9
S1133440052C000C66087708641575058605970534
S113345084F425E0C20ED11CE11CF11CC0921B5166
S1133460D0921C51E0921D51F0921E5160E070E028
S1133470CB0186169706A806B90628F007C060E0B7
S113348070E0CB0103C060E070E0CB012AE030E0E3
S113349040E050E00E94CE3AC9011F910F91FF9085
S11334A0EF90DF90CF90BF90AF909F908F907F90E0
S11334B06F905F904F900895109279418AE090E068
S11334C00E94AF129C01809301519093025160E1DC
S11334D077E20E94983A60930351E8EEF3E0BF016B
S11334E00E94983A60937151C901BF010E94983AB1
S11334F0E4E6F0E0BF010E94983A60930551C901E7
S1133500BF010E94983AEAE0F0E0BF010E94983AB5
S11335106093E750C901BF010E94983A80935C51BF
S11335203DC181E080930B5180914351823009F475
S113353085C030F4882369F0813009F444C02CC17B
S1133540843009F4F0C008F4B4C0853009F422C111
S113355023C1E0915C51F0E0E55CFE4B80818093F7
S11335607C4180916F51882319F01092784108C0F2
S1133570E0910351F0E0E55CFE4B8081809378415B
S113358080914451882309F407C1809145518130C9
S113359051F480910351811106C08F5F80930351D0
S11335A010924551F9C080914551833009F0F4C01F
S11335B080910351882309F4EFC081508093035113
S11335C010924551E9C0E0910351F0E0E55CFE4BF7
S11335D080818093784180916F51882319F01092F3
S11335E0774109C0E0917151F0E0E55CFE4B8081C8
S11335F08F5F8093774180914451882309F4CCC034
S113360080914551813051F480917151893030F469
S11336108F5F8093715110924551BEC08091455186
S1133620833009F0B9C080917151882309F4B4C082
S113363081508093715110924551AEC0E091715107
S1133640F0E0E55CFE4B80818F5F80937741809151
S11336506F51882319F01092764108C0E09105510A
S1133660F0E0E55CFE4B808180937641809144518B
S1133670882309F491C080914551813051F480919F
S11336800551893030F48F5F809305511092455174
S113369083C080914551833009F07EC080910551EB
S11336A0882309F479C081508093055110924551C3
S11336B073C0E0910551F0E0E55CFE4B808180939E
S11336C0764180916F51882319F01092754108C09A
S11336D0E091E750F0E0E55CFE4B8081809375411A
S11336E080914451882309F457C080914551813019
S11336F051F48091E750893030F48F5F8093E75024
S11337001092455149C080914551833009F044C01D
S11337108091E750882309F43FC081508093E7509B
S11337201092455139C0E091E750F0E0E55CFE4B62
S113373080818093754180916F51882319F0109294
S11337407C4108C0E0915C51F0E0E55CFE4B808177
S113375080937C41809144518823F1F080914551BC
S1133760813051F480915C51893030F48F5F8093C3
S11337705C511092455110C080914551833061F4E1
S113378080915C51882341F0815080935C51109268
S1133790455102C0109243510E943A0E8091085143
S11337A08111BFCE2091035180E197E2289FB0019F
S11337B0299F700D11244091715128EE33E0429FEE
S11337C0C001439F900D1124680F791F809105510A
S11337D094E6899F600D711D11248091E75090E05B
S11337E09C01220F331F880F991F880F991F880F80
S11337F0991F820F931F680F791F80915C51680F86
S1133800711D60930151709302518AE090E00E940F
S1133810EA12E8E0F1E581E08083118213821092DC
S1133820435108952F923F924F925F926F927F92ED
S11338308F929F92AF92BF92CF92DF92EF92FF92BC
S11338400F931F93CF93DF93CDB7DEB72597CDBFEB
S1133850DEBF109279418CE090E00E94BA121B0105
S11338602C0160930D5130920E5140920F515092A1
S11338701051109211511092125110921351109232
S113388014516894AA24A4F80F2EF7E2BF2EF02D49
S1133890C12CD12CE12CF12C00E010E0262F332D8B
S11338A0442D552D60E070E080E090E00E946B3B79
S11338B020934F5130935051409351515093525152
S11338C06093535170935451809355519093565132
S11338D0222D332D442D552D60E070E080E090E0E2
S11338E00E94693B0F2EF8EEAF2EF02D0F2EF3E061
S11338F0BF2EF02D0E946B3B209377523093785269
S11339004093795250937A5260937B5270937C52D5
S113391080937D5290937E52222D332D442D552D2C
S113392060E070E080E090E00E94693B0F2EF4E6D6
S1133930AF2EF02DB12C0E946B3B20936751309336
S113394068514093695150936A5160936B517093DD
S11339506C5180936D5190936E51222D332D442DD3
S1133960552D60E070E080E090E00E94693B0F2EEE
S1133970FAE0AF2EF02D0E946B3B2093365130932A
S11339803751409338515093395160933A51709361
S11339903B5180933C5190933D51222D332D442D26
S11339A0552D60E070E080E090E00E94693B209338
S11339B0745130937551409376515093775160937D
S11339C078517093795180937A5190937B51F2C2DC
S11339D081E080930B5180914351823009F435C1C9
S11339E030F4882369F0813009F49DC0E1C2843049
S11339F009F44DC208F4BAC1853009F4D7C2D8C25B
S1133A00E0917451F0917551E55CFE4B8081809397
S1133A107C4180916F51882319F0109278410AC03B
S1133A20E0914F51F0915051E55CFE4B80818F5FE6
S1133A308093784180914451882309F4B9C28091DC
S1133A4045518130A9F5F0904F510091505110919A
S1133A505151809152518A83809153518983B091FD
S1133A605451F0915551E09156512F2D302F412F43
S1133A705A81682F7B2F8F2F9E2FA7E00E94FF3B38
S1133A8009F0B0F4A1E00E94EA3B20934F51309337
S1133A9050514093515150935251609353517093EC
S1133AA0545180935551909356511092455180C270
S1133AB080914551833009F07BC2F0904F510091C1
S1133AC0505110915151809152518A838091535198
S1133AD08983B0915451F0915551E09156512F2D55
S1133AE0302F412F5A81682F7B2F8F2F9E2FA1E0DB
S1133AF00E94FF3B09F008F45BC2AFEF0E94EA3B6F
S1133B0020934F51309350514093515150935251FF
S1133B1060935351709354518093555190935651DF
S1133B201092455145C2E0914F51F0915051E55CDE
S1133B30FE4B80818F5F8093784180916F51882301
S1133B4019F01092774109C0E0917752F0917852C0
S1133B50E55CFE4B808180937741809144518823BA
S1133B6009F426C2809145518130A9F5F09077522D
S1133B70009178521091795280917A528A8380917F
S1133B807B528983B0917C52F0917D52E0917E52B8
S1133B902F2D302F412F5A81682F7B2F8F2F9E2F4F
S1133BA0A8E00E94FF3B09F0B0F4A1E00E94EA3BC8
S1133BB020937752309378524093795250937A52AB
S1133BC060937B5270937C5280937D5290937E528B
S1133BD010924551EDC180914551833009F0E8C1FF
S1133BE0F0907752009178521091795280917A52E4
S1133BF08A8380917B528983B0917C52F0917D526B
S1133C00E0917E522F2D302F412F5A81682F7B2F28
S1133C108F2F9E2FA0E00E94FF3B09F4C9C1AFEF94
S1133C200E94EA3B20937752309378524093795222
S1133C3050937A5260937B5270937C5280937D525E
S1133C4090937E5210924551B3C1E0917752F09116
S1133C507852E55CFE4B80818093774180916F516F
S1133C60882319F01092764109C0E0916751F091D0
S1133C706851E55CFE4B808180937641809144518C
S1133C80882309F495C1809145518130A9F5F090BC
S1133C906751009168511091695180916A518A83EA
S1133CA080916B518983B0916C51F0916D51E09189
S1133CB06E512F2D302F412F5A81682F7B2F8F2F3C
S1133CC09E2FA8E00E94FF3B09F0B0F4A1E00E94FF
S1133CD0EA3B209367513093685140936951509364
S1133CE06A5160936B5170936C5180936D519093B2
S1133CF06E51109245515CC180914551833009F059
S1133D0057C1F090675100916851109169518091A9
S1133D106A518A8380916B518983B0916C51F0917F
S1133D206D51E0916E512F2D302F412F5A81682F04
S1133D307B2F8F2F9E2FA0E00E94FF3B09F438C1F8
S1133D40AFEF0E94EA3B2093675130936851409350
S1133D50695150936A5160936B5170936C51809385
S1133D606D5190936E511092455122C1E09167516B
S1133D70F0916851E55CFE4B80818093764180919F
S1133D806F51882319F01092754109C0E0913651A2
S1133D90F0913751E55CFE4B8081809375418091B1
S1133DA04451882309F404C1809145518130A9F517
S1133DB0F09036510091375110913851809139511A
S1133DC08A8380913A518983B0913B51F0913C515F
S1133DD0E0913D512F2D302F412F5A81682F7B2F99
S1133DE08F2F9E2FA8E00E94FF3B09F0B0F4A1E0C2
S1133DF00E94EA3B20933651309337514093385117
S1133E005093395160933A5170933B5180933C5194
S1133E1090933D5110924551CBC0809145518330D0
S1133E2009F0C6C0F09036510091375110913851C5
S1133E30809139518A8380913A518983B0913B5161
S1133E40F0913C51E0913D512F2D302F412F5A815B
S1133E50682F7B2F8F2F9E2FA0E00E94FF3B09F439
S1133E60A7C0AFEF0E94EA3B2093365130933751FD
S1133E70409338515093395160933A5170933B5168
S1133E8080933C5190933D511092455191C0E091E3
S1133E903651F0913751E55CFE4B8081809375413A
S1133EA080916F51882319F010927C4109C0E091F0
S1133EB07451F0917551E55CFE4B808180937C4197
S1133EC080914451882309F473C080914551813015
S1133ED0A9F5F0907451009175511091765180912B
S1133EE077518A83809178518983B0917951F09187
S1133EF07A51E0917B512F2D302F412F5A81682F19
S1133F007B2F8F2F9E2FA8E00E94FF3B09F0B0F477
S1133F10A1E00E94EA3B2093745130937551409381
S1133F20765150937751609378517093795180937F
S1133F307A5190937B51109245513AC080914551EA
S1133F408330B1F5F0907451009175511091765110
S1133F50809177518A83809178518983B091795186
S1133F60F0917A51E0917B512F2D302F412F5A81BE
S1133F70682F7B2F8F2F9E2FA0E00E94FF3BC1F064
S1133F80AFEF0E94EA3B20937451309375514093F4
S1133F90765150937751609378517093795180930F
S1133FA07A5190937B511092455102C01092435123
S1133FB00E943A0E8091085181110ACD6894AA2476
S1133FC0A4F80F2EF7E2BF2EF02DC12CD12CE12C3A
S1133FD0F12C00E010E020914F513091505140916C
S1133FE0515150915251609153517091545180915B
S1133FF05551909156510E94103B622E732E842E7F
S1134000952E6D8379838A839B83E09177525090B8
S113401078524090795230907A5220907B5280911D
S11340207C528C83B0917D52A0917E522E2F352DDF
S1134030442D532D622D782F8B2F9A2F02E00E944E
S1134040C83BA22EB32EC42ED52EE62EF72EF82F63
S1134050192F05E00E94C83B0F2F0E94F63BAE2E9D
S1134060B52CC42CD32CE22CFC800B2F1A2F0E94CD
S1134070E13B03E00E94C83BA22EB32EC42ED52EF2
S1134080E62EF72E082F192F262D372D482D592DC2
S11340906D8179818A819B810E94E13B222E332E9E
S11340A0442E552E662E772E89839A83209167514C
S11340B0309168514091695150916A5160916B51AE
S11340C070916C5180916D5190916E5102E00E94FB
S11340D0C83B822E932E4C835B83B62FA72FF82FD9
S11340E0E92F0E94C83BA22EB32EC42ED52EE62E55
S11340F0F72E082F192F282D392D4C815B816B2F1A
S11341007A2F8F2F9E2F0E94E13B822E932E4C8379
S11341105B83B62FA72FF82FE92F02E00E94C83B3C
S1134120A22EB32EC42ED52EE62EF72E082F192F2D
S1134130282D392D4C815B816B2F7A2F8F2F9E2F49
S11341400E94E13BA22EB32EC42ED52EE62EF72ECE
S1134150082F192F222D332D442D552D662D772D03
S113416089819A810E94E13B222E332E442E552EC2
S1134170662E772E89839A83209136513091375158
S1134180409138515091395160913A5170913B515D
S113419080913C5190913D5101E00E94C83B822E98
S11341A0932E4C835B83B62FA72FF82FE92F02E0C1
S11341B00E94C83BA22EB32EC42ED52EE62EF72E77
S11341C0082F192F282D392D4C815B816B2F7A2FC5
S11341D08F2F9E2F0E94E13BA22EB32EC42ED52EEC
S11341E0E62EF72E082F192F222D332D442D552D71
S11341F0662D772D89819A810E94E13BA0907451AC
S1134200B0907551C0907651D0907751E09078512C
S1134210F090795100917A5110917B510E94E13BC9
S113422020930D5130930E5140930F5150931051E0
S113423060931151709312518093135190931451C0
S1134240642F752F422F532F8CE090E00E940713A8
S1134250E8E0F1E581E080831182138210924351FA
S11342602596CDBFDEBFDF91CF911F910F91FF90B7
S1134270EF90DF90CF90BF90AF909F908F907F9002
S11342806F905F904F903F902F9008952F923F92A0
S11342904F925F926F927F928F929F92AF92BF9252
S11342A0CF92DF92EF92FF920F931F93CF93DF93FE
S11342B08CE090E00E94BA121B012C0160930D5116
S11342C030920E5140920F51509210511092115150
S11342D01092125110921351109214516894AA24FE
S11342E0A4F80F2EF7E2BF2EF02DC12CD12CE12C17
S11342F0F12C00E010E0262F332D442D552D60E0E5
S113430070E080E090E00E946B3B20934F5130932B
S11343105051409351515093525160935351709363
S113432054518093555190935651222D332D442D41
S1134330552D60E070E080E090E00E94693B0F2E14
S1134340F8EEAF2EF02D0F2EF3E0BF2EF02D0E94CD
S11343506B3B209377523093785240937952509329
S11343607A5260937B5270937C5280937D529093E7
S11343707E52222D332D442D552D60E070E080E0D7
S113438090E00E94693B0F2EF4E6AF2EF02DB12C85
S11343900E946B3B2093675130936851409369515D
S11343A050936A5160936B5170936C5180936D512B
S11343B090936E51222D332D442D552D60E070E0E5
S11343C080E090E00E94693B0F2EFAE0AF2EF02DC2
S11343D00E946B3B209336513093375140933851B0
S11343E05093395160933A5170933B5180933C51AF
S11343F090933D51222D332D442D552D60E070E0D6
S113440080E090E00E94693B209374513093755191
S113441040937651509377516093785170937951CA
S113442080937A5190937B512EC110922A5110920D
S11344302B511092285180914451882309F4ECC0E7
S113444080914551813031F520910D5130910E51BB
S113445040910F515091105160911151709112512E
S11344608091135190911451AAE00E94EA3B209349
S11344700D5130930E5140930F515093105160934E
S113448011517093125180931351909314511092BF
S1134490455129C080914551833029F520910D5112
S11344A030910E5140910F51509110516091115122
S11344B0709112518091135190911451A6EF0E9462
S11344C0EA3B20930D5130930E5140930F5150937A
S11344D01051609311517093125180931351909322
S11344E014511092455120900D5130900E5140902E
S11344F00F51509010516090115170901251809052
S11345001351909014516894AA24A4F80F2EF7E242
S1134510BF2EF02DC12CD12CE12CF12C00E010E0A9
S1134520222D332D442D552D662D772D882D992D33
S11345300E946B3B022F132FF801E55CFE4B808138
S1134540C1E7D1E48F8300E010E0222D332D442D08
S1134550552D662D772D882D992D0E94693B0F2EA0
S1134560F8EEAF2EF02D0F2EF3E0BF2EF02D0E94AB
S11345706B3B022F132FF801E55CFE4B80818E8389
S1134580E12CF12C00E010E0222D332D442D552D8B
S1134590662D772D882D992D0E94693B0F2EF4E608
S11345A0AF2EF02DB12C0E946B3B022F132FF8017C
S11345B0E55CFE4B80818D83E12CF12C00E010E062
S11345C0222D332D442D552D662D772D882D992D93
S11345D00E94693B0F2EFAE0AF2EF02D0E946B3B38
S11345E0022F132FF801E55CFE4B80818C83E12CB4
S11345F0F12C00E010E0222D332D442D552D662D95
S1134600772D882D992D0E94693B022F132FF801D5
S1134610E55CFE4B80818B8720910D5130910E51CA
S113462040910F515091105160911151709112515C
S113463080911351909114510E94D33560934B5142
S113464070934C5180934D5190934E510E94B00DF4
S11346500E949019A0E0B0E08093175190931851F4
S1134660A0931951B0931A510097A105B10519F0FF
S11346700E94C21706C0892B8A2B8B2B11F40E942F
S1134680C2170E943A0E80910851882321F080912C
S113469009518111CACE40910D5150910E51609132
S11346A00F51709110518CE090E00E940713DF913C
S11346B0CF911F910F91FF90EF90DF90CF90BF901B
S11346C0AF909F908F907F906F905F904F903F90AE
S11346D02F9008958F929F92AF92BF92CF92DF92C4
S11346E0EF92FF921092794188E090E00E94AF121D
S11346F06C01E12CF12CC0925F51D0926051E09298
S11347006151F0926251C701B60128EE33E040E0F6
S113471050E00E94AC3A2093A1410F2EF4E68F2E74
S1134720912CA12CB12CF02DA50194010E94AC3A3E
S113473020935851C701B601A50194010E94AC3AD7
S11347400F2EFAE08F2E912CA12CB12CF02DA50167
S113475094010E94AC3A20935E51C701B601A501B1
S113476094010E94AC3A60932751FFC081E080938A
S11347700B5180914351823009F482C030F4882374
S113478059F0813009F442C0EEC0833009F4B2C05C
S1134790843009F4E6C0E7C0E0912751F0E0E55C1D
S11347A0FE4B80818093754180916F51882319F06D
S11347B01092784108C0E091A141F0E0E55CFE4B25
S11347C080818093784180914451882309F4CBC03F
S11347D080914551813051F48091A141811106C0ED
S11347E08F5F8093A14110924551BDC08091455186
S11347F0833009F0B8C08091A141882309F4B3C083
S113480081508093A14110924551ADC0E091A141E6
S1134810F0E0E55CFE4B80818093784180916F519C
S1134820882319F01092774108C0E0915851F0E0C4
S1134830E55CFE4B808180937741809144518823CD
S113484009F491C080914551813051F480915851BF
S1134850893030F48F5F809358511092455183C052
S113486080914551833009F07EC08091585188234E
S113487009F479C08150809358511092455173C006
S1134880E0915851F0E0E55CFE4B808180937741E4
S113489080916F51882319F01092764108C0E091FD
S11348A05E51F0E0E55CFE4B80818093764180911F
S11348B04451882309F457C080914551813051F403
S11348C080915E51893030F48F5F80935E511092F5
S11348D0455149C080914551833009F044C08091CD
S11348E05E51882309F43FC0815080935E51109239
S11348F0455139C0E0915E51F0E0E55CFE4B8081AA
S11349008093764180916F51882319F010927541FC
S113491008C0E0912751F0E0E55CFE4B8081809374
S11349207541809144518823F1F080914551813043
S113493051F480912751893030F48F5F809327514F
S11349401092455110C080914551833061F480919B
S11349502751882341F0815080932751109245516B
S113496002C0109243510E943A0E80910851811165
S1134970FDCE4091A14128EE33E0429FC001439F08
S1134980900D1124AC01990F660B770B809158514F
S113499024E6829FC0011124092E000CAA0BBB0B34
S11349A0840F951FA61FB71F20915E5130E0B901F7
S11349B0660F771F220F331F220F331F220F331F5F
S11349C0620F731FAB01770F660B770B840F951F74
S11349D0A61FB71F20912751BC01CD01620F711D85
S11349E0811D911D60935F5170936051809361515B
S11349F09093625188E090E00E94EA12E8E0F1E5C9
S1134A0081E080831182138210924351FF90EF90D2
S1134A10DF90CF90BF90AF909F908F9008954CE01F
S1134A2062E080E00E94D20543C0E1E7F1E417822E
S1134A308AE182838AE281838EE1808316822091D7
S1134A4072518DEC289F812D11248695869586952B
S1134A50A82FB0E0A55CBE4B9C919583880F982F3E
S1134A60990F990F890FA22FA81BB0E0A55CBE4B2C
S1134A708C9184831086809144518823B9F080916D
S1134A804551813041F4243030F4220F2093725187
S1134A90109245510BC080914551833039F4223036
S1134AA028F0269520937251109245510E943A0E97
S1134AB080910851882321F0809109518111B5CF4B
S1134AC06091725184E090E00E94C71208954CE016
S1134AD062E080E00E94D20543C0E1E7F1E4138282
S1134AE080E682838AE7818310821782168220916E
S1134AF0E2508DEC289F812D11248695869586950C
S1134B00A82FB0E0A55CBE4B9C919583880F982F8D
S1134B10990F990F890FA22FA81BB0E0A55CBE4B7B
S1134B208C9184831086809144518823B9F08091BC
S1134B304551813041F42C3330F42F5F2093E250FF
S1134B40109245510BC080914551833039F4222392
S1134B5029F021502093E250109245510E943A0EC0
S1134B6080910851882321F0809109518111B5CF9A
S1134B706091E25083E090E00E94C71208952F9262
S1134B803F924F925F926F927F928F929F92AF92D9
S1134B90BF92CF92DF92EF92FF920F931F93CF9326
S1134BA0DF93109209514CE062E080E00E94D2054C
S1134BB083E090E00E94A5128093E25084E090E0AC
S1134BC00E94A5128093725188E090E00E94AF1277
S1134BD0A0E0B0E080935F5190936051A093615145
S1134BE0B09362518CE090E00E94BA12DC01CB01D8
S1134BF080930D5190930E51A0930F51B093105187
S1134C00109211511092125110921351109214518A
S1134C108AE090E00E94AF12EC01809301519093DE
S1134C20025140905F51509060516090615170907A
S1134C306251C301B20128EE33E040E050E00E942B
S1134C40AC3A2093A1410F2EF4E68F2E912CA12C87
S1134C50B12CF02DA50194010E94AC3A2093585137
S1134C60C301B201A50194010E94AC3A0F2EFAE0EF
S1134C708F2E912CA12CB12CF02DA50194010E9412
S1134C80AC3A20935E51C301B201A50194010E9484
S1134C90AC3A6093275120900D5130900E514090C2
S1134CA00F5150901051609011517090125180909A
S1134CB01351909014516894AA24A4F80F2EF7E28B
S1134CC0BF2EF02DC12CD12CE12CF12C00E010E0F2
S1134CD0222D332D442D552D662D772D882D992D7C
S1134CE00E946B3B20934F5130935051409351514C
S1134CF05093525160935351709354518093555132
S1134D0090935651222D332D442D552D662D772DFC
S1134D10882D992D0E94693B0F2EF8EEAF2EF02DB1
S1134D200F2EF3E0BF2EF02D0E946B3B20937752A1
S1134D30309378524093795250937A5260937B52D5
S1134D4070937C5280937D5290937E52222D332D0A
S1134D50442D552D662D772D882D992D0E94693B64
S1134D600F2EF4E6AF2EF02DB12C0E946B3B209356
S1134D706751309368514093695150936A516093DD
S1134D806B5170936C5180936D5190936E51222DA1
S1134D90332D442D552D662D772D882D992D0E9468
S1134DA0693B0F2EFAE0AF2EF02D0E946B3B20934F
S1134DB03651309337514093385150933951609361
S1134DC03A5170933B5180933C5190933D51222D25
S1134DD0332D442D552D662D772D882D992D0E9428
S1134DE0693B20937451309375514093765150939D
S1134DF07751609378517093795180937A5190935D
S1134E007B51CE0160E177E20E94983A60930351AE
S1134E1028EE33E0B9010E94983A60937151CE01B3
S1134E20B9010E94983A24E630E0B9010E94983A08
S1134E3060930551CE01B9010E94983A2AE030E00E
S1134E40B9010E94983A6093E750CE01B9010E94DB
S1134E50983A80935C51C1E064C1809144518823A5
S1134E6099F080914551813031F4C73020F4CF5FFF
S1134E701092455109C080914551833029F4CC23C7
S1134E8019F0C15010924551EC2FF0E0E55CFE4B57
S1134E908081809379418C2F90E08830910508F0CF
S1134EA03EC1FC01E957FC4F0C94ED3AE1E7F1E413
S1134EB01382128280E681838AE7808317821682B6
S1134EC04091E2508DEC489F812D11248695869562
S1134ED08695282F30E0255C3E4BD9019C91958323
S1134EE0880F982F990F990F890FA42FA81BB0E052
S1134EF0A55CBE4B8C9184831386809109518823D1
S1134F0009F40DC10E9467250AC1E1E7F1E41382A7
S1134F108AE182838AE281838EE18083178216820A
S1134F20409172518DEC489F812D11248695869570
S1134F308695282F30E0255C3E4BD9019C919583C2
S1134F40880F982F990F990F890FA42FA81BB0E0F1
S1134F50A55CBE4B8C918483138680910951882370
S1134F6009F4DDC00E940F25DAC0E1E7F1E48CE921
S1134F7083838AEF82839EEC91838083A091A141F5
S1134F80B0E0A55CBE4B8C918783A0915851B0E0F2
S1134F90A55CBE4B8C918683A0915E51B0E0A55C6C
S1134FA0BE4B8C918583A0912751B0E0A55CBE4B8C
S1134FB08C918483138680910951882309F4AFC0AE
S1134FC00E946A23ACC0E1E7F1E4138212828AE012
S1134FD081838AE38083A0914F51B0915051A55CA5
S1134FE0BE4B8C918F5F8783A0917752B09178529A
S1134FF0A55CBE4B8C918683A0916751B09168519A
S1135000A55CBE4B8C918583A0913651B0913751EC
S1135010A55CBE4B8C918483A0917451B091755161
S1135020A55CBE4B8C91838780910951882309F438
S113503076C00E94121C73C0E1E7F1E480E683832A
S11350408CEE828382E0818386EB8083A09103517E
S1135050B0E0A55CBE4B8C918783A0917151B0E008
S1135060A55CBE4B8C918F5F8683A0910551B0E007
S1135070A55CBE4B8C918583A091E750B0E0A55C04
S1135080BE4B8C918483A0915C51B0E0A55CBE4B77
S11350908C91838780910951882309F440C00E9430
S11350A05C1A3DC0E1E7F1E486EB83838AE1828305
S11350B08AEF818380E68083A0914F51B091505153
S11350C0A55CBE4B8C918F5F8783A0917752B09182
S11350D07852A55CBE4B8C918683A0916751B091A8
S11350E06851A55CBE4B8C918583A0913651B091DB
S11350F03751A55CBE4B8C918483A0917451B091BF
S11351007551A55CBE4B8C9183878091095188238E
S113511031F00E94462103C0C1E001C0C6E00E94F4
S11351203A0E80910851811198CEDF91CF911F9151
S11351300F91FF90EF90DF90CF90BF90AF909F9032
S11351408F907F906F905F904F903F902F90089535
S11351501BBEFC0164BF40830895682F88E60E944B
S11351608017982F92959F70990F292F220F220F45
S1135170920F8F70890F0895CF93DF9386E00E947A
S1135180AD28CEE2D1E58E8385E00E94AD288D83E3
S113519084E00E94AD288C8383E00E94AD288B8339
S11351A082E00E94AD288A8381E00E94AD28898331
S11351B080E00E94AD288883DF91CF9108959DEC13
S11351C0699F912D112496959695969520E1929F2D
S11351D0A0011124990F292F220F220F920F691B6E
S11351E06F70462B682F88E60E943C170895962F0F
S11351F0482F50E04730510518F5FA01E157FC4FAC
S11352000C94ED3A9C33E8F090E01BC09C33C8F05A
S113521090E017C09831A8F090E013C02FEF290F49
S1135220273078F091E00DC0903258F091E009C039
S11352309D3038F091E005C0911103C095E101C0A3
S113524090E0692F0E94DF280895CF93DF93109296
S113525009514CE062E080E00E94D2050E94BC2823
S1135260CEE2D1E5AE818DECA89F912D11249695C7
S113527096959695E92FF0E0E55CFE4B2081E1E7F9
S1135280F1E42383990F292F220F220F920FA91BD8
S1135290B0E0A55CBE4B9C9192834D81489F912DBB
S11352A01124969596959695292F30E0255C3E4BD2
S11352B0D9012C912183990F292F220F220F920FAC
S11352C0A42FA91BB0E0A55CBE4B9C9190834C819C
S11352D0489F912D1124969596959695292F30E007
S11352E0255C3E4BD9012C912783990F292F220F3E
S11352F0220F920FA42FA91BB0E0A55CBE4B9C917A
S113530096834A81489F912D11249695969596955A
S1135310292F30E0255C3E4BD9012C912583990F30
S1135320292F220F220F920FA42FA91BB0E0A55CF6
S1135330BE4B9C9194834981489F912D112496954D
S113534096959695292F30E0255C3E4BD9012C91FA
S11353502387990F292F220F220F920FA42FA91B05
S1135360B0E0A55CBE4B9C919287A881A89F812D3B
S11353701124869586958695C82FD0E0C55CDE4BB2
S113538098819187880F982F990F990F890FA81BDF
S1135390B0E0A55CBE4B8C9180878AC281E080938B
S11353A00B51E09143518E2F90E08730910508F026
S11353B07DC2FC01EA56FC4F0C94ED3AE0912E516B
S11353C08DECE89F812D1124869586958695A82FCE
S11353D0B0E0A55CBE4B9C91A1E7B1E419969C9307
S11353E01997880F982F990F990F890FE81BF0E0F0
S11353F0E55CFE4B808118968C93189780916F51D1
S1135400882321F0FD01138212821FC0E0913451E0
S11354108DECE89F812D1124869586958695A82F7D
S1135420B0E0A55CBE4B9C91A1E7B1E413969C93BC
S11354301397880F982F990F990F890FE81BF0E0A5
S1135440E55CFE4B808112968C93809144518823B5
S113545009F42CC280914551813051F4809134512A
S1135460833630F48F5F80933451109245511EC2BD
S113547080914551833009F019C2809134518823B9
S113548009F414C2815080933451109245510EC2D4
S1135490E09134518DECE89F812D112486958695F9
S11354A08695A82FB0E0A55CBE4B9C91A1E7B1E422
S11354B013969C931397880F982F990F990F890F20
S11354C0E81BF0E0E55CFE4B808112968C9312970A
S11354D080916F51882321F0FD01118210821EC03A
S11354E0E09133518DECE89F812D112486958695AA
S11354F08695A82FB0E0A55CBE4B9C91A1E7B1E4D2
S113550011969C931197880F982F990F990F890FD3
S1135510E81BF0E0E55CFE4B80818C938091445164
S1135520882309F4C3C180914551813051F480919D
S113553033518C3030F48F5F809333511092455146
S1135540B5C180914551833009F0B0C18091335188
S1135550823008F4ABC1815080933351109245518D
S1135560A5C1E09133518DECE89F812D11248695DE
S113557086958695A82FB0E0A55CBE4B9C91A1E7CB
S1135580B1E411969C931197880F982F990F990F56
S1135590890FE81BF0E0E55CFE4B80818C938091E1
S11355A06F51882321F0FD01178216821FC0E091FC
S11355B032518DECE89F812D112486958695869530
S11355C0A82FB0E0A55CBE4B9C91A1E7B1E417966F
S11355D09C931797880F982F990F990F890FE81BA1
S11355E0F0E0E55CFE4B808116968C9380914451EB
S11355F0882309F45BC180914551813051F4809135
S113560032518F3130F48F5F809332511092455173
S11356104DC180914551833009F048C18091325188
S1135620823008F443C18150809332511092455125
S11356303DC1E09132518DECE89F812D1124869576
S113564086958695A82FB0E0A55CBE4B9C91A1E7FA
S1135650B1E417969C931797880F982F990F990F79
S1135660890FE81BF0E0E55CFE4B808116968C9375
S1135670169780916F51882321F0FD0115821482C1
S11356801FC0E09130518DECE89F812D1124869547
S113569086958695A82FB0E0A55CBE4B9C91A1E7AA
S11356A0B1E415969C931597880F982F990F990F2D
S11356B0890FE81BF0E0E55CFE4B808114968C9327
S11356C080914451882309F4F1C08091455181307F
S11356D051F480913051873130F48F5F8093305191
S11356E010924551E3C080914551833009F0DEC0EA
S11356F080913051882309F4D9C08150809330516E
S113570010924551D3C0E09130518DECE89F812D2A
S11357101124869586958695A82FB0E0A55CBE4B8E
S11357209C91A1E7B1E415969C931597880F982F47
S1135730990F990F890FE81BF0E0E55CFE4B80811F
S113574014968C93149780916F51882321F0FD0156
S1135750138612861FC0E0912F518DECE89F812D96
S11357601124869586958695A82FB0E0A55CBE4B3E
S11357709C91A1E7B1E41B969C931B97880F982FEB
S1135780990F990F890FE81BF0E0E55CFE4B8081CF
S11357901A968C9380914451882309F487C0809190
S11357A04551813051F480912F518B3330F48F5F08
S11357B080932F511092455179C080914551833087
S11357C009F074C080912F51882309F46FC081506F
S11357D080932F511092455169C0E0912F518DEC67
S11357E0E89F812D1124869586958695A82FB0E093
S11357F0A55CBE4B9C91A1E7B1E41B969C931B97BF
S1135800880F982F990F990F890FE81BF0E0E55C3A
S1135810FE4B80811A968C931A9780916F5188233E
S113582021F0FD01118610861FC0E0912E518DECF0
S1135830E89F812D1124869586958695A82FB0E042
S1135840A55CBE4B9C91A1E7B1E419969C93199772
S1135850880F982F990F990F890FE81BF0E0E55CEA
S1135860FE4B808118968C93809144518823F1F0EB
S113587080914551813051F480912E518B3330F415
S11358808F5F80932E511092455110C080914551E5
S1135890833061F480912E51882341F081508093AC
S11358A02E511092455102C0109243510E943A0E5B
S11358B080910851811172CDCEE2D1E56E8186E0EE
S11358C00E94F7286D8185E00E94F7286C8184E0AE
S11358D00E94F7286A8182E00E94F728698181E0AA
S11358E00E94F728688180E00E94F728DF91CF9119
S11358F0089580E00895E0E4FAE081E0828787E497
S113590090E086A397A38FE0808380E00895E0E28F
S1135910F8E080E098E18087918784E9858380ECD2
S1135920868380E008959091240895FFFCCF8093AE
S1135930220881E090E00895E0E6F8E080E098E154
S11359408087918784E9858380EC868380E008954D
S11359509091640895FFFCCF8093620881E090E009
S113596008950F931F93CF93DF938C01C0E0D0E091
S113597007C0F801EC0FFD1F80810E94A82C21961E
S1135980F80101900020E9F73197E01BF10BCE17E5
S1135990DF0778F3DF91CF911F910F9108958AEF7C
S11359A0EDE7F1E5DF011D928A95E9F71092665162
S11359B008954AE068ED80E091E00E94A82880E024
S11359C00895CF93C0E0C130A1F028F0C23069F14E
S11359D0C33081F133C088E491E40E94B12C2FEFED
S11359E08FEF9CE2215080409040E1F700C000001E
S11359F025C08CE491E40E94B12C80914051805DDB
S1135A000E94A82C8091A341805D0E94A82C8091C3
S1135A100651805D0E94A82C8091E550805D0E9413
S1135A20A82C8DE00E94A82C09C081E591E40E9475
S1135A30B12C04C087E591E40E94B12C80E09DC0A4
S1135A40C11125C0282F30E0F901E358FE4A9081A6
S1135A509F34E9F4F901E258FE4A90819B34B9F489
S1135A60F901E158FE4A90819D3089F483E090E089
S1135A700E9442042FEF8FE392E021508040904037
S1135A80E1F700C000000E94CF2CC1E079C0C13012
S1135A9029F5282F30E0F901E358FE4A90819F341C
S1135AA0E9F4F901E258FE4A90819B34B9F4F90112
S1135AB0E158FE4A90819D3089F483E090E00E9491
S1135AC042042FEF8FE392E0215080409040E1F7B1
S1135AD000C000000E94CF2CC2E052C0C23029F5A1
S1135AE0282F30E0F901E358FE4A90819F34E9F40D
S1135AF0F901E258FE4A90819B34B9F4F901E15866
S1135B00FE4A90819D3089F483E090E00E94420433
S1135B102FEF8FE392E0215080409040E1F700C0E6
S1135B2000000E94CF2CC3E02BC0C33029F5282FDE
S1135B3030E0F901E358FE4A90819F34E9F4F90119
S1135B40E258FE4A90819B34B9F4F901E158FE4AC7
S1135B5090819D3089F483E090E00E9442042FEF0D
S1135B608FE392E0215080409040E1F700C00000B4
S1135B700E94CF2CC5E004C08F5F8A3F08F460CF39
S1135B800E943A0EC53009F01ECFCF9108956F924E
S1135B907F928F929F92BF92CF92DF92EF92FF9269
S1135BA00F931F93CF93DF934CE062E081E00E9458
S1135BB0D2058090595190905A5194013295229572
S1135BC02F7023273F702327A7E4B3E00E94F63AFF
S1135BD06C01D694C794D694C794D694C794DC2DFC
S1135BE020E137E2C29EC001C39E900DD29E900D6B
S1135BF011249401281B390B369527953695279542
S1135C0036952795A5ECB0E20E94F63A7C01F6940D
S1135C10E794F694E794F694E794F694E794BE2C0C
S1135C2094013695279536952795369527950E94A4
S1135C30F63A929582958F7089279F70892748EE4E
S1135C4053E0849F9001859F300D949F300D112463
S1135C50C401821B930B9C01369527953695279595
S1135C60ABE7B4E10E94F63A3C0176946794062DC2
S1135C70940136952795369527950E94F63A9C010E
S1135C803695279544E6429FC001439F900D112409
S1135C909401281B390BADECBCEC0E94F63AAC0124
S1135CA0569547955695479556954795C42F940113
S1135CB00E94F63A96958795969587959695879539
S1135CC09C01220F331F880F991F880F991F880F7B
S1135CD0991F820F931F9401281B390BC901122F9E
S1135CE0D601A55CBE4B2C91A1E7B1E417962C9389
S1135CF0179797013327255C3E4BF90120811696AF
S1135D002C931697F301FF27E55CFE4B2081159633
S1135D102C9315975527FA01E55CFE4B20811496C8
S1135D202C9314979927FC01E55CFE4B80811B960C
S1135D308C9377C181E080930B51809143518230E1
S1135D4009F489C028F4882361F08130D1F167C156
S1135D50843009F418C108F4C9C0853009F45DC160
S1135D605EC1E12FF0E0E55CFE4B808180937C41D5
S1135D7080916F51882319F01092784107C0ED2F5C
S1135D80F0E0E55CFE4B8081809378418091445142
S1135D90882309F444C180914551813031F4D630CF
S1135DA020F4DF5F109245513AC180914551833010
S1135DB009F035C1DD2309F432C1D15010924551A7
S1135DC02EC1ED2FF0E0E55CFE4B8081809378419D
S1135DD080916F51882319F01092774107C0EB2D01
S1135DE0F0E0E55CFE4B80818093774180914451E3
S1135DF0882309F414C1D630B8F08091455181301C
S1135E0039F4F4E0FB1520F0B3941092455107C126
S1135E1080914551833009F002C1BB2009F4FFC0D1
S1135E20BA9410924551FBC080914551813039F4A8
S1135E3028E02B1520F0B39410924551F0C08091C6
S1135E404551833009F0EBC0BB2009F4E8C0BA9493
S1135E5010924551E4C0EB2DF0E0E55CFE4B8081EF
S1135E608093774180916F51882319F01092764185
S1135E7007C0E02FF0E0E55CFE4B80818093764123
S1135E8080914451882309F4CAC0D630C8F034E064
S1135E903B15B0F480914551813031F4053020F444
S1135EA00F5F10924551BBC080914551833009F07A
S1135EB0B6C0002309F4B3C0015010924551AFC0DD
S1135EC080914551813031F4093020F40F5F1092F4
S1135ED04551A5C080914551833009F0A0C00023ED
S1135EE009F49DC001501092455199C0E02FF0E093
S1135EF0E55CFE4B80818093764180916F518823CD
S1135F0019F01092754107C0EC2FF0E0E55CFE4BF0
S1135F1080818093754180914451882309F47FC026
S1135F20D630D8F044E04B15C0F40530B0F0809181
S1135F304551813031F4C33020F4CF5F1092455184
S1135F406EC080914551833009F069C0CC2309F4B7
S1135F5066C0C1501092455162C080914551813054
S1135F6031F4C93020F4CF5F1092455158C080916C
S1135F704551833009F053C0CC2309F450C0C150BB
S1135F80109245514CC0EC2FF0E0E55CFE4B808153
S1135F908093754180916F51882319F010927C4150
S1135FA007C0E12FF0E0E55CFE4B808180937C41EB
S1135FB080914451882399F1D630D8F084E08B1530
S1135FC0C0F40530B0F0C330A0F080914551813069
S1135FD031F4153020F41F5F1092455120C0809198
S1135FE045518330E1F41123D1F011501092455101
S1135FF016C080914551813031F4193020F41F5F6F
S1136000109245510CC080914551833041F41123C5
S113601031F011501092455102C0109243510E9428
S11360203A0E80910851811185CE20E137E2D29F4A
S1136030C001D39F900D112448EE53E0B49E90010B
S1136040B59E300D1124820F931F9C01E4E60E9F30
S1136050200D311D1124D0E0CE01880F991FCC0FE3
S1136060DD1FCC0FDD1FCC0FDD1F8C0F9D1F820F9A
S1136070931F810F911D8093595190935A51292F49
S113608022952F7020934051109241519C013F70F2
S11360903093A3411092A4419C0133273295229559
S11360A02F7023273F7023272093065130930751E5
S11360B08F7099278093E5509093E6500E94E12CCD
S11360C0E8E0F1E581E0808311821382109243516C
S11360D0DF91CF911F910F91FF90EF90DF90CF90C0
S11360E0BF909F908F907F906F900895CF93C0E062
S11360F0C130A1F028F0C230D1F1C330E9F140C081
S113610088E491E40E94B12C2FEF8FEF9CE22150A0
S113611080409040E1F700C0000032C08DE591E47A
S11361200E94B12CE091E450F0E0EE0FFF1FE65D19
S1136130FF4B80819181992314F481509F4F892FC3
S11361400E94A82CE091E450F0E0EE0FFF1FE65D02
S1136150FF4B80819181907899231CF401979F6F64
S113616001960E94A82C8DE00E94A82C09C081E50C
S113617091E40E94B12C04C087E591E40E94B12C03
S113618080E09DC0C11125C0282F30E0F901E358FB
S1136190FE4A90819F34E9F4F901E258FE4A908165
S11361A09B34B9F4F901E158FE4A90819D3089F499
S11361B083E090E00E9442042FEF8FE392E02150AD
S11361C080409040E1F700C000000E94CF2CC1E065
S11361D079C0C13029F5282F30E0F901E358FE4A8F
S11361E090819F34E9F4F901E258FE4A90819B348E
S11361F0B9F4F901E158FE4A90819D3089F483E0B5
S113620090E00E9442042FEF8FE392E021508040FF
S11362109040E1F700C000000E94CF2CC2E052C0C1
S1136220C23029F5282F30E0F901E358FE4A908165
S11362309F34E9F4F901E258FE4A90819B34B9F4A1
S1136240F901E158FE4A90819D3089F483E090E0A1
S11362500E9442042FEF8FE392E02150804090404F
S1136260E1F700C000000E94CF2CC3E02BC0C33074
S113627029F5282F30E0F901E358FE4A90819F3434
S1136280E9F4F901E258FE4A90819B34B9F4F9012A
S1136290E158FE4A90819D3089F483E090E00E94A9
S11362A042042FEF8FE392E0215080409040E1F7C9
S11362B000C000000E94CF2CC5E004C08F5F8A3F5D
S11362C008F460CF0E943A0EC53009F011CFCF9187
S11362D008954CE062E082E00E94D2053DC0209126
S11362E0E4508DEC289F812D112486958695869502
